{
  "_format": "hh-sol-artifact-1",
  "contractName": "Mudskipper",
  "sourceName": "contracts/Mudskipper/mudskipper.sol",
  "abi": [
    {
      "inputs": [],
      "stateMutability": "nonpayable",
      "type": "constructor"
    },
    {
      "inputs": [],
      "name": "AccessControlBadConfirmation",
      "type": "error"
    },
    {
      "inputs": [
        {
          "internalType": "address",
          "name": "account",
          "type": "address"
        },
        {
          "internalType": "bytes32",
          "name": "neededRole",
          "type": "bytes32"
        }
      ],
      "name": "AccessControlUnauthorizedAccount",
      "type": "error"
    },
    {
      "inputs": [
        {
          "internalType": "address",
          "name": "target",
          "type": "address"
        }
      ],
      "name": "AddressEmptyCode",
      "type": "error"
    },
    {
      "inputs": [],
      "name": "ECDSAInvalidSignature",
      "type": "error"
    },
    {
      "inputs": [
        {
          "internalType": "uint256",
          "name": "length",
          "type": "uint256"
        }
      ],
      "name": "ECDSAInvalidSignatureLength",
      "type": "error"
    },
    {
      "inputs": [
        {
          "internalType": "bytes32",
          "name": "s",
          "type": "bytes32"
        }
      ],
      "name": "ECDSAInvalidSignatureS",
      "type": "error"
    },
    {
      "inputs": [
        {
          "internalType": "address",
          "name": "implementation",
          "type": "address"
        }
      ],
      "name": "ERC1967InvalidImplementation",
      "type": "error"
    },
    {
      "inputs": [],
      "name": "ERC1967NonPayable",
      "type": "error"
    },
    {
      "inputs": [],
      "name": "FailedInnerCall",
      "type": "error"
    },
    {
      "inputs": [],
      "name": "InvalidInitialization",
      "type": "error"
    },
    {
      "inputs": [
        {
          "internalType": "bytes",
          "name": "reason",
          "type": "bytes"
        }
      ],
      "name": "LiFiFailed",
      "type": "error"
    },
    {
      "inputs": [
        {
          "internalType": "bytes",
          "name": "reason",
          "type": "bytes"
        }
      ],
      "name": "LowlevelError",
      "type": "error"
    },
    {
      "inputs": [],
      "name": "NotInitializing",
      "type": "error"
    },
    {
      "inputs": [
        {
          "internalType": "uint256",
          "name": "failedIndex",
          "type": "uint256"
        },
        {
          "internalType": "bytes",
          "name": "reason",
          "type": "bytes"
        }
      ],
      "name": "SwapFailed",
      "type": "error"
    },
    {
      "inputs": [],
      "name": "UUPSUnauthorizedCallContext",
      "type": "error"
    },
    {
      "inputs": [
        {
          "internalType": "bytes32",
          "name": "slot",
          "type": "bytes32"
        }
      ],
      "name": "UUPSUnsupportedProxiableUUID",
      "type": "error"
    },
    {
      "anonymous": false,
      "inputs": [
        {
          "indexed": false,
          "internalType": "uint64",
          "name": "version",
          "type": "uint64"
        }
      ],
      "name": "Initialized",
      "type": "event"
    },
    {
      "anonymous": false,
      "inputs": [
        {
          "indexed": true,
          "internalType": "bytes32",
          "name": "role",
          "type": "bytes32"
        },
        {
          "indexed": true,
          "internalType": "bytes32",
          "name": "previousAdminRole",
          "type": "bytes32"
        },
        {
          "indexed": true,
          "internalType": "bytes32",
          "name": "newAdminRole",
          "type": "bytes32"
        }
      ],
      "name": "RoleAdminChanged",
      "type": "event"
    },
    {
      "anonymous": false,
      "inputs": [
        {
          "indexed": true,
          "internalType": "bytes32",
          "name": "role",
          "type": "bytes32"
        },
        {
          "indexed": true,
          "internalType": "address",
          "name": "account",
          "type": "address"
        },
        {
          "indexed": true,
          "internalType": "address",
          "name": "sender",
          "type": "address"
        }
      ],
      "name": "RoleGranted",
      "type": "event"
    },
    {
      "anonymous": false,
      "inputs": [
        {
          "indexed": true,
          "internalType": "bytes32",
          "name": "role",
          "type": "bytes32"
        },
        {
          "indexed": true,
          "internalType": "address",
          "name": "account",
          "type": "address"
        },
        {
          "indexed": true,
          "internalType": "address",
          "name": "sender",
          "type": "address"
        }
      ],
      "name": "RoleRevoked",
      "type": "event"
    },
    {
      "anonymous": false,
      "inputs": [
        {
          "indexed": false,
          "internalType": "address",
          "name": "recipient",
          "type": "address"
        },
        {
          "indexed": false,
          "internalType": "address",
          "name": "finalAsset",
          "type": "address"
        },
        {
          "indexed": false,
          "internalType": "uint256",
          "name": "outputQuantity",
          "type": "uint256"
        }
      ],
      "name": "SwapExecuted",
      "type": "event"
    },
    {
      "anonymous": false,
      "inputs": [
        {
          "indexed": true,
          "internalType": "uint256",
          "name": "ticketID",
          "type": "uint256"
        },
        {
          "indexed": false,
          "internalType": "uint256",
          "name": "revertFee",
          "type": "uint256"
        },
        {
          "components": [
            {
              "internalType": "address",
              "name": "requester",
              "type": "address"
            },
            {
              "internalType": "address",
              "name": "asset",
              "type": "address"
            },
            {
              "internalType": "uint256",
              "name": "quantity",
              "type": "uint256"
            },
            {
              "internalType": "uint256",
              "name": "collectedFee",
              "type": "uint256"
            },
            {
              "internalType": "uint256",
              "name": "revertFee",
              "type": "uint256"
            }
          ],
          "indexed": false,
          "internalType": "struct IMudskipper.Deposit",
          "name": "returnedDeposit",
          "type": "tuple"
        }
      ],
      "name": "TransferRejected",
      "type": "event"
    },
    {
      "anonymous": false,
      "inputs": [
        {
          "components": [
            {
              "internalType": "uint256",
              "name": "id",
              "type": "uint256"
            },
            {
              "internalType": "address",
              "name": "sender",
              "type": "address"
            },
            {
              "internalType": "address",
              "name": "asset",
              "type": "address"
            },
            {
              "internalType": "uint256",
              "name": "quantity",
              "type": "uint256"
            },
            {
              "internalType": "uint256",
              "name": "fee",
              "type": "uint256"
            },
            {
              "internalType": "uint256",
              "name": "funding",
              "type": "uint256"
            },
            {
              "internalType": "uint256",
              "name": "deadline",
              "type": "uint256"
            }
          ],
          "indexed": false,
          "internalType": "struct IMudskipper.RequestTicket",
          "name": "ticket",
          "type": "tuple"
        }
      ],
      "name": "TransferRequested",
      "type": "event"
    },
    {
      "anonymous": false,
      "inputs": [
        {
          "indexed": true,
          "internalType": "address",
          "name": "implementation",
          "type": "address"
        }
      ],
      "name": "Upgraded",
      "type": "event"
    },
    {
      "inputs": [],
      "name": "AGGREGATOR_LIFI",
      "outputs": [
        {
          "internalType": "bytes32",
          "name": "",
          "type": "bytes32"
        }
      ],
      "stateMutability": "view",
      "type": "function"
    },
    {
      "inputs": [],
      "name": "BRIDGE_UNABRIDGE",
      "outputs": [
        {
          "internalType": "bytes32",
          "name": "",
          "type": "bytes32"
        }
      ],
      "stateMutability": "view",
      "type": "function"
    },
    {
      "inputs": [],
      "name": "DEFAULT_ADMIN_ROLE",
      "outputs": [
        {
          "internalType": "bytes32",
          "name": "",
          "type": "bytes32"
        }
      ],
      "stateMutability": "view",
      "type": "function"
    },
    {
      "inputs": [],
      "name": "MUDSKIPPER_BUFFER",
      "outputs": [
        {
          "internalType": "bytes32",
          "name": "",
          "type": "bytes32"
        }
      ],
      "stateMutability": "view",
      "type": "function"
    },
    {
      "inputs": [],
      "name": "MUDSKIPPER_MANAGER",
      "outputs": [
        {
          "internalType": "bytes32",
          "name": "",
          "type": "bytes32"
        }
      ],
      "stateMutability": "view",
      "type": "function"
    },
    {
      "inputs": [],
      "name": "MUDSKIPPER_RESERVE",
      "outputs": [
        {
          "internalType": "bytes32",
          "name": "",
          "type": "bytes32"
        }
      ],
      "stateMutability": "view",
      "type": "function"
    },
    {
      "inputs": [],
      "name": "MUDSKIPPER_VAULT",
      "outputs": [
        {
          "internalType": "bytes32",
          "name": "",
          "type": "bytes32"
        }
      ],
      "stateMutability": "view",
      "type": "function"
    },
    {
      "inputs": [],
      "name": "TICKET_PUBLISHER",
      "outputs": [
        {
          "internalType": "bytes32",
          "name": "",
          "type": "bytes32"
        }
      ],
      "stateMutability": "view",
      "type": "function"
    },
    {
      "inputs": [],
      "name": "TX_RELAYER",
      "outputs": [
        {
          "internalType": "bytes32",
          "name": "",
          "type": "bytes32"
        }
      ],
      "stateMutability": "view",
      "type": "function"
    },
    {
      "inputs": [],
      "name": "UPGRADE_INTERFACE_VERSION",
      "outputs": [
        {
          "internalType": "string",
          "name": "",
          "type": "string"
        }
      ],
      "stateMutability": "view",
      "type": "function"
    },
    {
      "inputs": [
        {
          "internalType": "bytes32",
          "name": "",
          "type": "bytes32"
        }
      ],
      "name": "addressRegistry",
      "outputs": [
        {
          "internalType": "address",
          "name": "",
          "type": "address"
        }
      ],
      "stateMutability": "view",
      "type": "function"
    },
    {
      "inputs": [
        {
          "internalType": "address",
          "name": "token",
          "type": "address"
        },
        {
          "internalType": "address",
          "name": "to",
          "type": "address"
        },
        {
          "internalType": "uint256",
          "name": "min",
          "type": "uint256"
        }
      ],
      "name": "approveMax",
      "outputs": [],
      "stateMutability": "nonpayable",
      "type": "function"
    },
    {
      "inputs": [
        {
          "internalType": "uint256",
          "name": "value",
          "type": "uint256"
        },
        {
          "internalType": "bytes",
          "name": "data",
          "type": "bytes"
        }
      ],
      "name": "bridgeViaLiFi",
      "outputs": [
        {
          "internalType": "bool",
          "name": "",
          "type": "bool"
        }
      ],
      "stateMutability": "payable",
      "type": "function"
    },
    {
      "inputs": [
        {
          "components": [
            {
              "internalType": "address",
              "name": "from",
              "type": "address"
            },
            {
              "internalType": "uint64",
              "name": "dstChain",
              "type": "uint64"
            },
            {
              "internalType": "address",
              "name": "to",
              "type": "address"
            },
            {
              "internalType": "uint64",
              "name": "gasLimit",
              "type": "uint64"
            },
            {
              "components": [
                {
                  "internalType": "address",
                  "name": "token",
                  "type": "address"
                },
                {
                  "internalType": "uint256",
                  "name": "amount",
                  "type": "uint256"
                }
              ],
              "internalType": "struct Client.EVMTokenAmount",
              "name": "ccipFeeTokenAmountForCurrChain",
              "type": "tuple"
            },
            {
              "components": [
                {
                  "internalType": "address",
                  "name": "token",
                  "type": "address"
                },
                {
                  "internalType": "uint256",
                  "name": "amount",
                  "type": "uint256"
                }
              ],
              "internalType": "struct Client.EVMTokenAmount",
              "name": "ccipFeeTokenAmountForNextChain",
              "type": "tuple"
            },
            {
              "internalType": "uint256",
              "name": "totalAmount",
              "type": "uint256"
            },
            {
              "internalType": "uint256",
              "name": "bridgedAmount",
              "type": "uint256"
            },
            {
              "internalType": "address",
              "name": "srcToken",
              "type": "address"
            },
            {
              "internalType": "bytes32",
              "name": "metaHash",
              "type": "bytes32"
            },
            {
              "internalType": "address",
              "name": "contractAddress",
              "type": "address"
            },
            {
              "internalType": "bytes",
              "name": "inputs",
              "type": "bytes"
            }
          ],
          "internalType": "struct UnaTypes.ExitERC20",
          "name": "unaBridgeCalldata",
          "type": "tuple"
        }
      ],
      "name": "bridgeViaUnaBridge",
      "outputs": [
        {
          "internalType": "bool",
          "name": "success",
          "type": "bool"
        }
      ],
      "stateMutability": "payable",
      "type": "function"
    },
    {
      "inputs": [
        {
          "components": [
            {
              "internalType": "address",
              "name": "to",
              "type": "address"
            },
            {
              "internalType": "uint256",
              "name": "value",
              "type": "uint256"
            },
            {
              "internalType": "bytes",
              "name": "data",
              "type": "bytes"
            }
          ],
          "internalType": "struct IMudskipper.Tx[]",
          "name": "txs",
          "type": "tuple[]"
        }
      ],
      "name": "callArbitrary",
      "outputs": [
        {
          "internalType": "bool",
          "name": "",
          "type": "bool"
        }
      ],
      "stateMutability": "nonpayable",
      "type": "function"
    },
    {
      "inputs": [
        {
          "internalType": "bool",
          "name": "_break",
          "type": "bool"
        }
      ],
      "name": "circuitBreaker",
      "outputs": [],
      "stateMutability": "nonpayable",
      "type": "function"
    },
    {
      "inputs": [],
      "name": "denyRequest",
      "outputs": [
        {
          "internalType": "bool",
          "name": "",
          "type": "bool"
        }
      ],
      "stateMutability": "view",
      "type": "function"
    },
    {
      "inputs": [
        {
          "internalType": "bytes32",
          "name": "role",
          "type": "bytes32"
        }
      ],
      "name": "getRoleAdmin",
      "outputs": [
        {
          "internalType": "bytes32",
          "name": "",
          "type": "bytes32"
        }
      ],
      "stateMutability": "view",
      "type": "function"
    },
    {
      "inputs": [
        {
          "internalType": "bytes32",
          "name": "role",
          "type": "bytes32"
        },
        {
          "internalType": "address",
          "name": "account",
          "type": "address"
        }
      ],
      "name": "grantRole",
      "outputs": [],
      "stateMutability": "nonpayable",
      "type": "function"
    },
    {
      "inputs": [
        {
          "internalType": "bytes32",
          "name": "role",
          "type": "bytes32"
        },
        {
          "internalType": "address",
          "name": "account",
          "type": "address"
        }
      ],
      "name": "hasRole",
      "outputs": [
        {
          "internalType": "bool",
          "name": "",
          "type": "bool"
        }
      ],
      "stateMutability": "view",
      "type": "function"
    },
    {
      "inputs": [
        {
          "internalType": "address",
          "name": "owner",
          "type": "address"
        }
      ],
      "name": "initialize",
      "outputs": [],
      "stateMutability": "nonpayable",
      "type": "function"
    },
    {
      "inputs": [],
      "name": "proxiableUUID",
      "outputs": [
        {
          "internalType": "bytes32",
          "name": "",
          "type": "bytes32"
        }
      ],
      "stateMutability": "view",
      "type": "function"
    },
    {
      "inputs": [
        {
          "internalType": "uint256",
          "name": "ticketID",
          "type": "uint256"
        },
        {
          "components": [
            {
              "internalType": "address",
              "name": "requester",
              "type": "address"
            },
            {
              "internalType": "address",
              "name": "asset",
              "type": "address"
            },
            {
              "internalType": "uint256",
              "name": "quantity",
              "type": "uint256"
            },
            {
              "internalType": "uint256",
              "name": "collectedFee",
              "type": "uint256"
            },
            {
              "internalType": "uint256",
              "name": "revertFee",
              "type": "uint256"
            }
          ],
          "internalType": "struct IMudskipper.Deposit",
          "name": "deposit",
          "type": "tuple"
        }
      ],
      "name": "rejectTransfer",
      "outputs": [
        {
          "internalType": "bool",
          "name": "success",
          "type": "bool"
        }
      ],
      "stateMutability": "payable",
      "type": "function"
    },
    {
      "inputs": [
        {
          "internalType": "bytes32",
          "name": "role",
          "type": "bytes32"
        },
        {
          "internalType": "address",
          "name": "callerConfirmation",
          "type": "address"
        }
      ],
      "name": "renounceRole",
      "outputs": [],
      "stateMutability": "nonpayable",
      "type": "function"
    },
    {
      "inputs": [
        {
          "components": [
            {
              "internalType": "uint256",
              "name": "id",
              "type": "uint256"
            },
            {
              "internalType": "address",
              "name": "sender",
              "type": "address"
            },
            {
              "internalType": "address",
              "name": "asset",
              "type": "address"
            },
            {
              "internalType": "uint256",
              "name": "quantity",
              "type": "uint256"
            },
            {
              "internalType": "uint256",
              "name": "fee",
              "type": "uint256"
            },
            {
              "internalType": "uint256",
              "name": "funding",
              "type": "uint256"
            },
            {
              "internalType": "uint256",
              "name": "deadline",
              "type": "uint256"
            }
          ],
          "internalType": "struct IMudskipper.RequestTicket",
          "name": "ticket",
          "type": "tuple"
        },
        {
          "internalType": "bytes",
          "name": "signature",
          "type": "bytes"
        }
      ],
      "name": "requestTransfer",
      "outputs": [
        {
          "internalType": "bool",
          "name": "success",
          "type": "bool"
        }
      ],
      "stateMutability": "payable",
      "type": "function"
    },
    {
      "inputs": [
        {
          "internalType": "bytes32",
          "name": "role",
          "type": "bytes32"
        },
        {
          "internalType": "address",
          "name": "account",
          "type": "address"
        }
      ],
      "name": "revokeRole",
      "outputs": [],
      "stateMutability": "nonpayable",
      "type": "function"
    },
    {
      "inputs": [
        {
          "internalType": "bytes4",
          "name": "interfaceId",
          "type": "bytes4"
        }
      ],
      "name": "supportsInterface",
      "outputs": [
        {
          "internalType": "bool",
          "name": "",
          "type": "bool"
        }
      ],
      "stateMutability": "view",
      "type": "function"
    },
    {
      "inputs": [
        {
          "components": [
            {
              "components": [
                {
                  "internalType": "address",
                  "name": "callTo",
                  "type": "address"
                },
                {
                  "internalType": "address",
                  "name": "approveTo",
                  "type": "address"
                },
                {
                  "internalType": "address",
                  "name": "fromAsset",
                  "type": "address"
                },
                {
                  "internalType": "uint256",
                  "name": "fromQuantity",
                  "type": "uint256"
                },
                {
                  "internalType": "address",
                  "name": "toAsset",
                  "type": "address"
                },
                {
                  "internalType": "bytes",
                  "name": "callData",
                  "type": "bytes"
                },
                {
                  "internalType": "bool",
                  "name": "requiresDeposit",
                  "type": "bool"
                }
              ],
              "internalType": "struct IMudskipper.SwapData[]",
              "name": "swapData",
              "type": "tuple[]"
            },
            {
              "internalType": "address",
              "name": "recipient",
              "type": "address"
            },
            {
              "internalType": "uint256",
              "name": "minOutput",
              "type": "uint256"
            }
          ],
          "internalType": "struct IMudskipper.SwapRequest",
          "name": "swapRequest",
          "type": "tuple"
        }
      ],
      "name": "swap",
      "outputs": [
        {
          "internalType": "bool",
          "name": "success",
          "type": "bool"
        }
      ],
      "stateMutability": "nonpayable",
      "type": "function"
    },
    {
      "inputs": [
        {
          "components": [
            {
              "components": [
                {
                  "internalType": "address",
                  "name": "callTo",
                  "type": "address"
                },
                {
                  "internalType": "address",
                  "name": "approveTo",
                  "type": "address"
                },
                {
                  "internalType": "address",
                  "name": "fromAsset",
                  "type": "address"
                },
                {
                  "internalType": "uint256",
                  "name": "fromQuantity",
                  "type": "uint256"
                },
                {
                  "internalType": "address",
                  "name": "toAsset",
                  "type": "address"
                },
                {
                  "internalType": "bytes",
                  "name": "callData",
                  "type": "bytes"
                },
                {
                  "internalType": "bool",
                  "name": "requiresDeposit",
                  "type": "bool"
                }
              ],
              "internalType": "struct IMudskipper.SwapData[]",
              "name": "swapData",
              "type": "tuple[]"
            },
            {
              "internalType": "address",
              "name": "recipient",
              "type": "address"
            },
            {
              "internalType": "uint256",
              "name": "minOutput",
              "type": "uint256"
            }
          ],
          "internalType": "struct IMudskipper.SwapRequest",
          "name": "swapRequest",
          "type": "tuple"
        },
        {
          "components": [
            {
              "internalType": "address",
              "name": "from",
              "type": "address"
            },
            {
              "internalType": "uint64",
              "name": "dstChain",
              "type": "uint64"
            },
            {
              "internalType": "address",
              "name": "to",
              "type": "address"
            },
            {
              "internalType": "uint64",
              "name": "gasLimit",
              "type": "uint64"
            },
            {
              "components": [
                {
                  "internalType": "address",
                  "name": "token",
                  "type": "address"
                },
                {
                  "internalType": "uint256",
                  "name": "amount",
                  "type": "uint256"
                }
              ],
              "internalType": "struct Client.EVMTokenAmount",
              "name": "ccipFeeTokenAmountForCurrChain",
              "type": "tuple"
            },
            {
              "components": [
                {
                  "internalType": "address",
                  "name": "token",
                  "type": "address"
                },
                {
                  "internalType": "uint256",
                  "name": "amount",
                  "type": "uint256"
                }
              ],
              "internalType": "struct Client.EVMTokenAmount",
              "name": "ccipFeeTokenAmountForNextChain",
              "type": "tuple"
            },
            {
              "internalType": "uint256",
              "name": "totalAmount",
              "type": "uint256"
            },
            {
              "internalType": "uint256",
              "name": "bridgedAmount",
              "type": "uint256"
            },
            {
              "internalType": "address",
              "name": "srcToken",
              "type": "address"
            },
            {
              "internalType": "bytes32",
              "name": "metaHash",
              "type": "bytes32"
            },
            {
              "internalType": "address",
              "name": "contractAddress",
              "type": "address"
            },
            {
              "internalType": "bytes",
              "name": "inputs",
              "type": "bytes"
            }
          ],
          "internalType": "struct UnaTypes.ExitERC20",
          "name": "unaBridgeCalldata",
          "type": "tuple"
        }
      ],
      "name": "swapAndUnaBridge",
      "outputs": [
        {
          "internalType": "bool",
          "name": "success",
          "type": "bool"
        }
      ],
      "stateMutability": "payable",
      "type": "function"
    },
    {
      "inputs": [
        {
          "internalType": "address",
          "name": "newImplementation",
          "type": "address"
        },
        {
          "internalType": "bytes",
          "name": "data",
          "type": "bytes"
        }
      ],
      "name": "upgradeToAndCall",
      "outputs": [],
      "stateMutability": "payable",
      "type": "function"
    },
    {
      "inputs": [
        {
          "internalType": "bytes32",
          "name": "key",
          "type": "bytes32"
        },
        {
          "internalType": "address",
          "name": "addr",
          "type": "address"
        }
      ],
      "name": "writeRegistry",
      "outputs": [],
      "stateMutability": "nonpayable",
      "type": "function"
    },
    {
      "stateMutability": "payable",
      "type": "receive"
    }
  ],
  "bytecode": "0x60a06040523073ffffffffffffffffffffffffffffffffffffffff1660809073ffffffffffffffffffffffffffffffffffffffff168152503480156200004457600080fd5b50620000556200005b60201b60201c565b620001cf565b60006200006d6200016560201b60201c565b90508060000160089054906101000a900460ff1615620000b9576040517ff92ee8a900000000000000000000000000000000000000000000000000000000815260040160405180910390fd5b67ffffffffffffffff80168160000160009054906101000a900467ffffffffffffffff1667ffffffffffffffff1614620001625767ffffffffffffffff8160000160006101000a81548167ffffffffffffffff021916908367ffffffffffffffff1602179055507fc7f505b2f371ae2175ee4913f4499e1f2633a7b5936321eed1cdaeb6115181d267ffffffffffffffff604051620001599190620001b2565b60405180910390a15b50565b60007ff0c57e16840df040f15088dc2f81fe391c3923bec73e23a9662efc9c229c6a00905090565b600067ffffffffffffffff82169050919050565b620001ac816200018d565b82525050565b6000602082019050620001c96000830184620001a1565b92915050565b608051614dfc620001f9600039600081816122d60152818161232b01526124ec0152614dfc6000f3fe6080604052600436106101dc5760003560e01c8063609ab6ec11610102578063bc53bba911610095578063dab5bb8f11610064578063dab5bb8f146106c7578063db404538146106f2578063ef4dd55d1461071d578063ffb773951461075a576101e3565b8063bc53bba914610608578063c4d66de814610645578063d36791dc1461066e578063d547741f1461069e576101e3565b8063a4a44a22116100d1578063a4a44a221461054a578063ab99541114610575578063ad3cb1cc146105b2578063b0079683146105dd576101e3565b8063609ab6ec1461048e57806380fe39c8146104b957806391d14854146104e2578063a217fddf1461051f576101e3565b80632b432c391161017a5780634f1ef286116101495780634f1ef286146103f357806350bb43fe1461040f57806350d336ed1461043a57806352d1902d14610463576101e3565b80632b432c39146103465780632bca2a83146103765780632f2ff15d146103a157806336568abe146103ca576101e3565b806316fb0943116101b657806316fb0943146102855780631c3f6eab146102ae578063248a9ca3146102de57806325d91df41461031b576101e3565b806301ffc9a7146101e8578063085b21d114610225578063145ba05814610255576101e3565b366101e357005b600080fd5b3480156101f457600080fd5b5061020f600480360381019061020a91906131bd565b610785565b60405161021c9190613205565b60405180910390f35b61023f600480360381019061023a919061360a565b6107ff565b60405161024c9190613205565b60405180910390f35b61026f600480360381019061026a9190613653565b61083c565b60405161027c9190613205565b60405180910390f35b34801561029157600080fd5b506102ac60048036038101906102a791906136af565b610979565b005b6102c860048036038101906102c39190613786565b6109b4565b6040516102d59190613205565b60405180910390f35b3480156102ea57600080fd5b50610305600480360381019061030091906137e7565b6110c7565b6040516103129190613823565b60405180910390f35b34801561032757600080fd5b506103306110f5565b60405161033d9190613823565b60405180910390f35b610360600480360381019061035b919061385d565b611119565b60405161036d9190613205565b60405180910390f35b34801561038257600080fd5b5061038b6113a7565b6040516103989190613823565b60405180910390f35b3480156103ad57600080fd5b506103c860048036038101906103c3919061389d565b6113cb565b005b3480156103d657600080fd5b506103f160048036038101906103ec919061389d565b6113ed565b005b61040d600480360381019061040891906138dd565b611468565b005b34801561041b57600080fd5b50610424611487565b6040516104319190613823565b60405180910390f35b34801561044657600080fd5b50610461600480360381019061045c919061389d565b6114ab565b005b34801561046f57600080fd5b5061047861152b565b6040516104859190613823565b60405180910390f35b34801561049a57600080fd5b506104a361155e565b6040516104b09190613823565b60405180910390f35b3480156104c557600080fd5b506104e060048036038101906104db9190613965565b611582565b005b3480156104ee57600080fd5b506105096004803603810190610504919061389d565b6115ca565b6040516105169190613205565b60405180910390f35b34801561052b57600080fd5b50610534611643565b6040516105419190613823565b60405180910390f35b34801561055657600080fd5b5061055f61164a565b60405161056c9190613205565b60405180910390f35b34801561058157600080fd5b5061059c600480360381019061059791906139b1565b61165d565b6040516105a99190613205565b60405180910390f35b3480156105be57600080fd5b506105c76116f1565b6040516105d49190613a79565b60405180910390f35b3480156105e957600080fd5b506105f261172a565b6040516105ff9190613823565b60405180910390f35b34801561061457600080fd5b5061062f600480360381019061062a9190613af1565b61174e565b60405161063c9190613205565b60405180910390f35b34801561065157600080fd5b5061066c60048036038101906106679190613b3e565b6118ed565b005b61068860048036038101906106839190613b6b565b611a81565b6040516106959190613205565b60405180910390f35b3480156106aa57600080fd5b506106c560048036038101906106c0919061389d565b611b1d565b005b3480156106d357600080fd5b506106dc611b3f565b6040516106e99190613823565b60405180910390f35b3480156106fe57600080fd5b50610707611b63565b6040516107149190613823565b60405180910390f35b34801561072957600080fd5b50610744600480360381019061073f91906137e7565b611b87565b6040516107519190613bf2565b60405180910390f35b34801561076657600080fd5b5061076f611bba565b60405161077c9190613823565b60405180910390f35b60007f7965db0b000000000000000000000000000000000000000000000000000000007bffffffffffffffffffffffffffffffffffffffffffffffffffffffff1916827bffffffffffffffffffffffffffffffffffffffffffffffffffffffff191614806107f857506107f782611bde565b5b9050919050565b60007f5c9f8a1f8085e87c1cd1dbd0fc499f4b22698a6dfb10c34aec0aa3e50fe0d6ff61082b81611c48565b61083483611c5c565b915050919050565b60007f5c9f8a1f8085e87c1cd1dbd0fc499f4b22698a6dfb10c34aec0aa3e50fe0d6ff61086881611c48565b6000806000807f91252170d30ebdf6e8cea4292a8e5081a5c77e065aa855c856af6f3dd1f2f7ba815260200190815260200160002060009054906101000a900473ffffffffffffffffffffffffffffffffffffffff1673ffffffffffffffffffffffffffffffffffffffff1686866040516108e39190613c54565b60006040518083038185875af1925050503d8060008114610920576040519150601f19603f3d011682016040523d82523d6000602084013e610925565b606091505b50915091508161096c57806040517fe42dd8b60000000000000000000000000000000000000000000000000000000081526004016109639190613cb5565b60405180910390fd5b6001935050505092915050565b7f5c9f8a1f8085e87c1cd1dbd0fc499f4b22698a6dfb10c34aec0aa3e50fe0d6ff6109a381611c48565b6109ae848484611d93565b50505050565b6000600160009054906101000a900460ff1615610a06576040517f08c379a00000000000000000000000000000000000000000000000000000000081526004016109fd90613d23565b60405180910390fd5b610a3a7f9c7abe1cc344a0c822ed019aa7e0c3c247359aa68f7dd45424189f65d496d679610a3386611fa4565b8585612011565b610a79576040517f08c379a0000000000000000000000000000000000000000000000000000000008152600401610a7090613d8f565b60405180910390fd5b3373ffffffffffffffffffffffffffffffffffffffff16846020016020810190610aa39190613b3e565b73ffffffffffffffffffffffffffffffffffffffff1614610af9576040517f08c379a0000000000000000000000000000000000000000000000000000000008152600401610af090613dfb565b60405180910390fd5b428460c001351015610b40576040517f08c379a0000000000000000000000000000000000000000000000000000000008152600401610b3790613e67565b60405180910390fd5b6000349050600073ffffffffffffffffffffffffffffffffffffffff16856040016020810190610b709190613b3e565b73ffffffffffffffffffffffffffffffffffffffff1603610be9573485606001351115610bd2576040517f08c379a0000000000000000000000000000000000000000000000000000000008152600401610bc990613ed3565b60405180910390fd5b846060013581610be29190613f22565b9050610e2f565b6000856040016020810190610bfe9190613b3e565b73ffffffffffffffffffffffffffffffffffffffff166370a08231306040518263ffffffff1660e01b8152600401610c369190613bf2565b602060405180830381865afa158015610c53573d6000803e3d6000fd5b505050506040513d601f19601f82011682018060405250810190610c779190613f6b565b9050856040016020810190610c8c9190613b3e565b73ffffffffffffffffffffffffffffffffffffffff166323b872dd333089606001356040518463ffffffff1660e01b8152600401610ccc93929190613fa7565b6020604051808303816000875af1158015610ceb573d6000803e3d6000fd5b505050506040513d601f19601f82011682018060405250810190610d0f9190613ff3565b925082610d51576040517f08c379a0000000000000000000000000000000000000000000000000000000008152600401610d489061406c565b60405180910390fd5b856040016020810190610d649190613b3e565b73ffffffffffffffffffffffffffffffffffffffff166370a08231306040518263ffffffff1660e01b8152600401610d9c9190613bf2565b602060405180830381865afa158015610db9573d6000803e3d6000fd5b505050506040513d601f19601f82011682018060405250810190610ddd9190613f6b565b866060013582610ded919061408c565b14610e2d576040517f08c379a0000000000000000000000000000000000000000000000000000000008152600401610e249061410c565b60405180910390fd5b505b8460a001358560800135610e43919061408c565b8114610e84576040517f08c379a0000000000000000000000000000000000000000000000000000000008152600401610e7b90614178565b60405180910390fd5b6000807f3519cf5aeb70da6112075d724f8ff68482f701927df8eb30d337663e095ece05815260200190815260200160002060009054906101000a900473ffffffffffffffffffffffffffffffffffffffff1673ffffffffffffffffffffffffffffffffffffffff168560800135604051610efe906141be565b60006040518083038185875af1925050503d8060008114610f3b576040519150601f19603f3d011682016040523d82523d6000602084013e610f40565b606091505b50508092505081610f86576040517f08c379a0000000000000000000000000000000000000000000000000000000008152600401610f7d9061421f565b60405180910390fd5b6000807fbf552e6e0a367f565ca7b394eba25a2010479eda0873b6fc1b4ce9f00e7085a6815260200190815260200160002060009054906101000a900473ffffffffffffffffffffffffffffffffffffffff1673ffffffffffffffffffffffffffffffffffffffff168560a00135604051611000906141be565b60006040518083038185875af1925050503d806000811461103d576040519150601f19603f3d011682016040523d82523d6000602084013e611042565b606091505b50508092505081611088576040517f08c379a000000000000000000000000000000000000000000000000000000000815260040161107f9061428b565b60405180910390fd5b7f021a8f676b027bd5c29778d376fb1ec3337e5119da42ea969759f3187f4cdfbc856040516110b791906143bd565b60405180910390a1509392505050565b6000806110d26120a1565b905080600001600084815260200190815260200160002060010154915050919050565b7f5c9f8a1f8085e87c1cd1dbd0fc499f4b22698a6dfb10c34aec0aa3e50fe0d6ff81565b60007f5c9f8a1f8085e87c1cd1dbd0fc499f4b22698a6dfb10c34aec0aa3e50fe0d6ff61114581611c48565b60008360800135846060013561115b9190613f22565b9050600073ffffffffffffffffffffffffffffffffffffffff168460200160208101906111889190613b3e565b73ffffffffffffffffffffffffffffffffffffffff16036111ba578360400135816111b3919061408c565b90506112a3565b8360200160208101906111cd9190613b3e565b73ffffffffffffffffffffffffffffffffffffffff1663a9059cbb8560000160208101906111fb9190613b3e565b86604001356040518363ffffffff1660e01b815260040161121d9291906143d8565b6020604051808303816000875af115801561123c573d6000803e3d6000fd5b505050506040513d601f19601f820116820180604052508101906112609190613ff3565b9250826112a2576040517f08c379a00000000000000000000000000000000000000000000000000000000081526004016112999061406c565b60405180910390fd5b5b8360000160208101906112b69190613b3e565b73ffffffffffffffffffffffffffffffffffffffff16816040516112d9906141be565b60006040518083038185875af1925050503d8060008114611316576040519150601f19603f3d011682016040523d82523d6000602084013e61131b565b606091505b50508093505082611361576040517f08c379a00000000000000000000000000000000000000000000000000000000081526004016113589061444d565b60405180910390fd5b847fe2ca2bf72bb8a110d86fe26850e80122ee62f39c11c263696106fb0bcebbc9448560800135866040516113979291906144fd565b60405180910390a2505092915050565b7f3519cf5aeb70da6112075d724f8ff68482f701927df8eb30d337663e095ece0581565b6113d4826110c7565b6113dd81611c48565b6113e783836120c9565b50505050565b6113f56121ca565b73ffffffffffffffffffffffffffffffffffffffff168173ffffffffffffffffffffffffffffffffffffffff1614611459576040517f6697b23200000000000000000000000000000000000000000000000000000000815260040160405180910390fd5b61146382826121d2565b505050565b6114706122d4565b611479826123ba565b61148382826123cb565b5050565b7f19e84af850d308f83cafc054ced962bf340369700532abe13c64a9b9176dafcc81565b7f7d4c95ebf98b3d0730a4b295f90ccf54047e768470d7c5e21916c87cd29a32496114d581611c48565b8160008085815260200190815260200160002060006101000a81548173ffffffffffffffffffffffffffffffffffffffff021916908373ffffffffffffffffffffffffffffffffffffffff160217905550505050565b60006115356124ea565b7f360894a13ba1a3210667c828492db98dca3e2076cc3735a920a3ca505d382bbc60001b905090565b7f88293327f82deeefe2207f437bfa0859226c07c40ebc93dada7dadc53ecfbb1d81565b7f5c9f8a1f8085e87c1cd1dbd0fc499f4b22698a6dfb10c34aec0aa3e50fe0d6ff6115ac81611c48565b81600160006101000a81548160ff0219169083151502179055505050565b6000806115d56120a1565b905080600001600085815260200190815260200160002060000160008473ffffffffffffffffffffffffffffffffffffffff1673ffffffffffffffffffffffffffffffffffffffff16815260200190815260200160002060009054906101000a900460ff1691505092915050565b6000801b81565b600160009054906101000a900460ff1681565b60007f5c9f8a1f8085e87c1cd1dbd0fc499f4b22698a6dfb10c34aec0aa3e50fe0d6ff61168981611c48565b600083806000019061169b9190614535565b9050116116dd576040517f08c379a00000000000000000000000000000000000000000000000000000000081526004016116d4906145e4565b60405180910390fd5b6116e683612571565b506001915050919050565b6040518060400160405280600581526020017f352e302e3000000000000000000000000000000000000000000000000000000081525081565b7f9c7abe1cc344a0c822ed019aa7e0c3c247359aa68f7dd45424189f65d496d67981565b60007f5c9f8a1f8085e87c1cd1dbd0fc499f4b22698a6dfb10c34aec0aa3e50fe0d6ff61177a81611c48565b60005b848490508110156118e15760008086868481811061179e5761179d614604565b5b90506020028101906117b09190614633565b60000160208101906117c29190613b3e565b73ffffffffffffffffffffffffffffffffffffffff168787858181106117eb576117ea614604565b5b90506020028101906117fd9190614633565b6020013588888681811061181457611813614604565b5b90506020028101906118269190614633565b8060400190611835919061465b565b6040516118439291906146e3565b60006040518083038185875af1925050503d8060008114611880576040519150601f19603f3d011682016040523d82523d6000602084013e611885565b606091505b5091509150816118cc57806040517f2b73bbca0000000000000000000000000000000000000000000000000000000081526004016118c39190613cb5565b60405180910390fd5b505080806118d9906146fc565b91505061177d565b50600191505092915050565b60006118f76129ed565b905060008160000160089054906101000a900460ff1615905060008260000160009054906101000a900467ffffffffffffffff1690506000808267ffffffffffffffff161480156119455750825b9050600060018367ffffffffffffffff1614801561197a575060003073ffffffffffffffffffffffffffffffffffffffff163b145b905081158015611988575080155b156119bf576040517ff92ee8a900000000000000000000000000000000000000000000000000000000815260040160405180910390fd5b60018560000160006101000a81548167ffffffffffffffff021916908367ffffffffffffffff1602179055508315611a0f5760018560000160086101000a81548160ff0219169083151502179055505b611a1c6000801b876120c9565b508315611a795760008560000160086101000a81548160ff0219169083151502179055507fc7f505b2f371ae2175ee4913f4499e1f2633a7b5936321eed1cdaeb6115181d26001604051611a709190614789565b60405180910390a15b505050505050565b60007f5c9f8a1f8085e87c1cd1dbd0fc499f4b22698a6dfb10c34aec0aa3e50fe0d6ff611aad81611c48565b6000848060000190611abf9190614535565b905011611b01576040517f08c379a0000000000000000000000000000000000000000000000000000000008152600401611af8906145e4565b60405180910390fd5b611b0a84612571565b50611b1483611c5c565b91505092915050565b611b26826110c7565b611b2f81611c48565b611b3983836121d2565b50505050565b7f91252170d30ebdf6e8cea4292a8e5081a5c77e065aa855c856af6f3dd1f2f7ba81565b7fbf552e6e0a367f565ca7b394eba25a2010479eda0873b6fc1b4ce9f00e7085a681565b60006020528060005260406000206000915054906101000a900473ffffffffffffffffffffffffffffffffffffffff1681565b7f7d4c95ebf98b3d0730a4b295f90ccf54047e768470d7c5e21916c87cd29a324981565b60007f01ffc9a7000000000000000000000000000000000000000000000000000000007bffffffffffffffffffffffffffffffffffffffffffffffffffffffff1916827bffffffffffffffffffffffffffffffffffffffffffffffffffffffff1916149050919050565b611c5981611c546121ca565b612a15565b50565b6000611cc48261010001516000807f88293327f82deeefe2207f437bfa0859226c07c40ebc93dada7dadc53ecfbb1d815260200190815260200160002060009054906101000a900473ffffffffffffffffffffffffffffffffffffffff168460c00151611d93565b6000807f88293327f82deeefe2207f437bfa0859226c07c40ebc93dada7dadc53ecfbb1d815260200190815260200160002060009054906101000a900473ffffffffffffffffffffffffffffffffffffffff1673ffffffffffffffffffffffffffffffffffffffff16636b0e54e1836080015160200151846040518363ffffffff1660e01b8152600401611d589190614941565b6000604051808303818588803b158015611d7157600080fd5b505af1158015611d85573d6000803e3d6000fd5b505050505060019050919050565b600073ffffffffffffffffffffffffffffffffffffffff168273ffffffffffffffffffffffffffffffffffffffff1603611e02576040517f08c379a0000000000000000000000000000000000000000000000000000000008152600401611df9906149af565b60405180910390fd5b600073ffffffffffffffffffffffffffffffffffffffff168373ffffffffffffffffffffffffffffffffffffffff160315611f9f57808373ffffffffffffffffffffffffffffffffffffffff1663dd62ed3e30856040518363ffffffff1660e01b8152600401611e739291906149cf565b602060405180830381865afa158015611e90573d6000803e3d6000fd5b505050506040513d601f19601f82011682018060405250810190611eb49190613f6b565b1015611f9e5760008373ffffffffffffffffffffffffffffffffffffffff1663095ea7b3847fffffffffffffffffffffffffffffffffffffffffffffffffffffffffffffffff6040518363ffffffff1660e01b8152600401611f179291906143d8565b6020604051808303816000875af1158015611f36573d6000803e3d6000fd5b505050506040513d601f19601f82011682018060405250810190611f5a9190613ff3565b905080611f9c576040517f08c379a0000000000000000000000000000000000000000000000000000000008152600401611f9390614a44565b60405180910390fd5b505b5b505050565b60608160000135826020016020810190611fbe9190613b3e565b836040016020810190611fd19190613b3e565b846060013585608001358660a001358760c00135604051602001611ffb9796959493929190614acd565b6040516020818303038152906040529050919050565b60006120978561209286805190602001206040516020016120329190614bc6565b6040516020818303038152906040528051906020012086868080601f016020809104026020016040519081016040528093929190818152602001838380828437600081840152601f19601f82011690508083019250505050505050612a66565b6115ca565b9050949350505050565b60007f02dd7bc7dec4dceedda775e58dd541e08a116c6c53815c0bd028192f7b626800905090565b6000806120d46120a1565b90506120e084846115ca565b6121be57600181600001600086815260200190815260200160002060000160008573ffffffffffffffffffffffffffffffffffffffff1673ffffffffffffffffffffffffffffffffffffffff16815260200190815260200160002060006101000a81548160ff02191690831515021790555061215a6121ca565b73ffffffffffffffffffffffffffffffffffffffff168373ffffffffffffffffffffffffffffffffffffffff16857f2f8788117e7eff1d82e926ec794901d17c78024a50270940304540a733656f0d60405160405180910390a460019150506121c4565b60009150505b92915050565b600033905090565b6000806121dd6120a1565b90506121e984846115ca565b156122c857600081600001600086815260200190815260200160002060000160008573ffffffffffffffffffffffffffffffffffffffff1673ffffffffffffffffffffffffffffffffffffffff16815260200190815260200160002060006101000a81548160ff0219169083151502179055506122646121ca565b73ffffffffffffffffffffffffffffffffffffffff168373ffffffffffffffffffffffffffffffffffffffff16857ff6391f5c32d9c69d2a47ea670b442974b53935d1edc7fd64eb21e047a839171b60405160405180910390a460019150506122ce565b60009150505b92915050565b7f000000000000000000000000000000000000000000000000000000000000000073ffffffffffffffffffffffffffffffffffffffff163073ffffffffffffffffffffffffffffffffffffffff16148061238157507f000000000000000000000000000000000000000000000000000000000000000073ffffffffffffffffffffffffffffffffffffffff16612368612a92565b73ffffffffffffffffffffffffffffffffffffffff1614155b156123b8576040517fe07c8dba00000000000000000000000000000000000000000000000000000000815260040160405180910390fd5b565b6000801b6123c781611c48565b5050565b8173ffffffffffffffffffffffffffffffffffffffff166352d1902d6040518163ffffffff1660e01b8152600401602060405180830381865afa92505050801561243357506040513d601f19601f820116820180604052508101906124309190614c01565b60015b61247457816040517f4c9c8ce300000000000000000000000000000000000000000000000000000000815260040161246b9190613bf2565b60405180910390fd5b7f360894a13ba1a3210667c828492db98dca3e2076cc3735a920a3ca505d382bbc60001b81146124db57806040517faa1d49a40000000000000000000000000000000000000000000000000000000081526004016124d29190613823565b60405180910390fd5b6124e58383612ae9565b505050565b7f000000000000000000000000000000000000000000000000000000000000000073ffffffffffffffffffffffffffffffffffffffff163073ffffffffffffffffffffffffffffffffffffffff161461256f576040517fe07c8dba00000000000000000000000000000000000000000000000000000000815260040160405180910390fd5b565b6000808280600001906125849190614535565b60018580600001906125969190614535565b90506125a29190613f22565b8181106125b2576125b1614604565b5b90506020028101906125c49190614c2e565b60800160208101906125d69190613b3e565b905060006125f6828560200160208101906125f19190613b3e565b612b5c565b905060005b84806000019061260b9190614535565b90508110156128e2576126dd8580600001906126279190614535565b8381811061263857612637614604565b5b905060200281019061264a9190614c2e565b604001602081019061265c9190613b3e565b86806000019061266c9190614535565b8481811061267d5761267c614604565b5b905060200281019061268f9190614c2e565b60200160208101906126a19190613b3e565b8780600001906126b19190614535565b858181106126c2576126c1614604565b5b90506020028101906126d49190614c2e565b60600135611d93565b6000808680600001906126f09190614535565b8481811061270157612700614604565b5b90506020028101906127139190614c2e565b60000160208101906127259190613b3e565b73ffffffffffffffffffffffffffffffffffffffff16600073ffffffffffffffffffffffffffffffffffffffff168880600001906127639190614535565b8681811061277457612773614604565b5b90506020028101906127869190614c2e565b60400160208101906127989190613b3e565b73ffffffffffffffffffffffffffffffffffffffff16146127ba5760006127f2565b8780600001906127ca9190614535565b858181106127db576127da614604565b5b90506020028101906127ed9190614c2e565b606001355b8880600001906128029190614535565b8681811061281357612812614604565b5b90506020028101906128259190614c2e565b8060a00190612834919061465b565b6040516128429291906146e3565b60006040518083038185875af1925050503d806000811461287f576040519150601f19603f3d011682016040523d82523d6000602084013e612884565b606091505b5091509150816128cd5782816040517f69bcaeba0000000000000000000000000000000000000000000000000000000081526004016128c4929190614c56565b60405180910390fd5b505080806128da906146fc565b9150506125fb565b5080612900838660200160208101906128fb9190613b3e565b612b5c565b61290a9190613f22565b92508360400135831015612953576040517f08c379a000000000000000000000000000000000000000000000000000000000815260040161294a90614cd2565b60405180910390fd5b3073ffffffffffffffffffffffffffffffffffffffff1684602001602081019061297d9190613b3e565b73ffffffffffffffffffffffffffffffffffffffff16146129e6577fbad29f2bbbf6bb1e15563203bcdb0dd660c54eab078763eb66f797efa8f5e8c18460200160208101906129cc9190613b3e565b83856040516129dd93929190613fa7565b60405180910390a15b5050919050565b60007ff0c57e16840df040f15088dc2f81fe391c3923bec73e23a9662efc9c229c6a00905090565b612a1f82826115ca565b612a625780826040517fe2517d3f000000000000000000000000000000000000000000000000000000008152600401612a59929190614cf2565b60405180910390fd5b5050565b600080600080612a768686612c31565b925092509250612a868282612c8d565b82935050505092915050565b6000612ac07f360894a13ba1a3210667c828492db98dca3e2076cc3735a920a3ca505d382bbc60001b612df1565b60000160009054906101000a900473ffffffffffffffffffffffffffffffffffffffff16905090565b612af282612dfb565b8173ffffffffffffffffffffffffffffffffffffffff167fbc7cd75a20ee27fd9adebab32041f755214dbc6bffa90cc0225b39da2e5c2d3b60405160405180910390a2600081511115612b4f57612b498282612ec8565b50612b58565b612b57612f4c565b5b5050565b60008073ffffffffffffffffffffffffffffffffffffffff168373ffffffffffffffffffffffffffffffffffffffff1614612c10578273ffffffffffffffffffffffffffffffffffffffff166370a08231836040518263ffffffff1660e01b8152600401612bca9190613bf2565b602060405180830381865afa158015612be7573d6000803e3d6000fd5b505050506040513d601f19601f82011682018060405250810190612c0b9190613f6b565b612c29565b8173ffffffffffffffffffffffffffffffffffffffff16315b905092915050565b60008060006041845103612c765760008060006020870151925060408701519150606087015160001a9050612c6888828585612f89565b955095509550505050612c86565b60006002855160001b9250925092505b9250925092565b60006003811115612ca157612ca0614d1b565b5b826003811115612cb457612cb3614d1b565b5b0315612ded5760016003811115612cce57612ccd614d1b565b5b826003811115612ce157612ce0614d1b565b5b03612d18576040517ff645eedf00000000000000000000000000000000000000000000000000000000815260040160405180910390fd5b60026003811115612d2c57612d2b614d1b565b5b826003811115612d3f57612d3e614d1b565b5b03612d84578060001c6040517ffce698f7000000000000000000000000000000000000000000000000000000008152600401612d7b9190614d4a565b60405180910390fd5b600380811115612d9757612d96614d1b565b5b826003811115612daa57612da9614d1b565b5b03612dec57806040517fd78bce0c000000000000000000000000000000000000000000000000000000008152600401612de39190613823565b60405180910390fd5b5b5050565b6000819050919050565b60008173ffffffffffffffffffffffffffffffffffffffff163b03612e5757806040517f4c9c8ce3000000000000000000000000000000000000000000000000000000008152600401612e4e9190613bf2565b60405180910390fd5b80612e847f360894a13ba1a3210667c828492db98dca3e2076cc3735a920a3ca505d382bbc60001b612df1565b60000160006101000a81548173ffffffffffffffffffffffffffffffffffffffff021916908373ffffffffffffffffffffffffffffffffffffffff16021790555050565b60606000808473ffffffffffffffffffffffffffffffffffffffff1684604051612ef29190613c54565b600060405180830381855af49150503d8060008114612f2d576040519150601f19603f3d011682016040523d82523d6000602084013e612f32565b606091505b5091509150612f4285838361307d565b9250505092915050565b6000341115612f87576040517fb398979f00000000000000000000000000000000000000000000000000000000815260040160405180910390fd5b565b60008060007f7fffffffffffffffffffffffffffffff5d576e7357a4501ddfe92f46681b20a08460001c1115612fc9576000600385925092509250613073565b600060018888888860405160008152602001604052604051612fee9493929190614d81565b6020604051602081039080840390855afa158015613010573d6000803e3d6000fd5b505050602060405103519050600073ffffffffffffffffffffffffffffffffffffffff168173ffffffffffffffffffffffffffffffffffffffff160361306457600060016000801b93509350935050613073565b8060008060001b935093509350505b9450945094915050565b6060826130925761308d8261310c565b613104565b600082511480156130ba575060008473ffffffffffffffffffffffffffffffffffffffff163b145b156130fc57836040517f9996b3150000000000000000000000000000000000000000000000000000000081526004016130f39190613bf2565b60405180910390fd5b819050613105565b5b9392505050565b60008151111561311f5780518082602001fd5b6040517f1425ea4200000000000000000000000000000000000000000000000000000000815260040160405180910390fd5b6000604051905090565b600080fd5b600080fd5b60007fffffffff0000000000000000000000000000000000000000000000000000000082169050919050565b61319a81613165565b81146131a557600080fd5b50565b6000813590506131b781613191565b92915050565b6000602082840312156131d3576131d261315b565b5b60006131e1848285016131a8565b91505092915050565b60008115159050919050565b6131ff816131ea565b82525050565b600060208201905061321a60008301846131f6565b92915050565b600080fd5b6000601f19601f8301169050919050565b7f4e487b7100000000000000000000000000000000000000000000000000000000600052604160045260246000fd5b61326e82613225565b810181811067ffffffffffffffff8211171561328d5761328c613236565b5b80604052505050565b60006132a0613151565b90506132ac8282613265565b919050565b600080fd5b600073ffffffffffffffffffffffffffffffffffffffff82169050919050565b60006132e1826132b6565b9050919050565b6132f1816132d6565b81146132fc57600080fd5b50565b60008135905061330e816132e8565b92915050565b600067ffffffffffffffff82169050919050565b61333181613314565b811461333c57600080fd5b50565b60008135905061334e81613328565b92915050565b6000819050919050565b61336781613354565b811461337257600080fd5b50565b6000813590506133848161335e565b92915050565b6000604082840312156133a05761339f613220565b5b6133aa6040613296565b905060006133ba848285016132ff565b60008301525060206133ce84828501613375565b60208301525092915050565b6000819050919050565b6133ed816133da565b81146133f857600080fd5b50565b60008135905061340a816133e4565b92915050565b600080fd5b600080fd5b600067ffffffffffffffff82111561343557613434613236565b5b61343e82613225565b9050602081019050919050565b82818337600083830152505050565b600061346d6134688461341a565b613296565b90508281526020810184848401111561348957613488613415565b5b61349484828561344b565b509392505050565b600082601f8301126134b1576134b0613410565b5b81356134c184826020860161345a565b91505092915050565b60006101c082840312156134e1576134e0613220565b5b6134ec610180613296565b905060006134fc848285016132ff565b60008301525060206135108482850161333f565b6020830152506040613524848285016132ff565b60408301525060606135388482850161333f565b606083015250608061354c8482850161338a565b60808301525060c06135608482850161338a565b60a08301525061010061357584828501613375565b60c08301525061012061358a84828501613375565b60e08301525061014061359f848285016132ff565b610100830152506101606135b5848285016133fb565b610120830152506101806135cb848285016132ff565b610140830152506101a082013567ffffffffffffffff8111156135f1576135f06132b1565b5b6135fd8482850161349c565b6101608301525092915050565b6000602082840312156136205761361f61315b565b5b600082013567ffffffffffffffff81111561363e5761363d613160565b5b61364a848285016134ca565b91505092915050565b6000806040838503121561366a5761366961315b565b5b600061367885828601613375565b925050602083013567ffffffffffffffff81111561369957613698613160565b5b6136a58582860161349c565b9150509250929050565b6000806000606084860312156136c8576136c761315b565b5b60006136d6868287016132ff565b93505060206136e7868287016132ff565b92505060406136f886828701613375565b9150509250925092565b600080fd5b600060e0828403121561371d5761371c613702565b5b81905092915050565b600080fd5b600080fd5b60008083601f84011261374657613745613410565b5b8235905067ffffffffffffffff81111561376357613762613726565b5b60208301915083600182028301111561377f5761377e61372b565b5b9250929050565b600080600061010084860312156137a05761379f61315b565b5b60006137ae86828701613707565b93505060e084013567ffffffffffffffff8111156137cf576137ce613160565b5b6137db86828701613730565b92509250509250925092565b6000602082840312156137fd576137fc61315b565b5b600061380b848285016133fb565b91505092915050565b61381d816133da565b82525050565b60006020820190506138386000830184613814565b92915050565b600060a0828403121561385457613853613702565b5b81905092915050565b60008060c083850312156138745761387361315b565b5b600061388285828601613375565b92505060206138938582860161383e565b9150509250929050565b600080604083850312156138b4576138b361315b565b5b60006138c2858286016133fb565b92505060206138d3858286016132ff565b9150509250929050565b600080604083850312156138f4576138f361315b565b5b6000613902858286016132ff565b925050602083013567ffffffffffffffff81111561392357613922613160565b5b61392f8582860161349c565b9150509250929050565b613942816131ea565b811461394d57600080fd5b50565b60008135905061395f81613939565b92915050565b60006020828403121561397b5761397a61315b565b5b600061398984828501613950565b91505092915050565b6000606082840312156139a8576139a7613702565b5b81905092915050565b6000602082840312156139c7576139c661315b565b5b600082013567ffffffffffffffff8111156139e5576139e4613160565b5b6139f184828501613992565b91505092915050565b600081519050919050565b600082825260208201905092915050565b60005b83811015613a34578082015181840152602081019050613a19565b60008484015250505050565b6000613a4b826139fa565b613a558185613a05565b9350613a65818560208601613a16565b613a6e81613225565b840191505092915050565b60006020820190508181036000830152613a938184613a40565b905092915050565b60008083601f840112613ab157613ab0613410565b5b8235905067ffffffffffffffff811115613ace57613acd613726565b5b602083019150836020820283011115613aea57613ae961372b565b5b9250929050565b60008060208385031215613b0857613b0761315b565b5b600083013567ffffffffffffffff811115613b2657613b25613160565b5b613b3285828601613a9b565b92509250509250929050565b600060208284031215613b5457613b5361315b565b5b6000613b62848285016132ff565b91505092915050565b60008060408385031215613b8257613b8161315b565b5b600083013567ffffffffffffffff811115613ba057613b9f613160565b5b613bac85828601613992565b925050602083013567ffffffffffffffff811115613bcd57613bcc613160565b5b613bd9858286016134ca565b9150509250929050565b613bec816132d6565b82525050565b6000602082019050613c076000830184613be3565b92915050565b600081519050919050565b600081905092915050565b6000613c2e82613c0d565b613c388185613c18565b9350613c48818560208601613a16565b80840191505092915050565b6000613c608284613c23565b915081905092915050565b600082825260208201905092915050565b6000613c8782613c0d565b613c918185613c6b565b9350613ca1818560208601613a16565b613caa81613225565b840191505092915050565b60006020820190508181036000830152613ccf8184613c7c565b905092915050565b7f5365727669636520756e617661696c61626c6500000000000000000000000000600082015250565b6000613d0d601383613a05565b9150613d1882613cd7565b602082019050919050565b60006020820190508181036000830152613d3c81613d00565b9050919050565b7f496e76616c6964207369676e6174757265000000000000000000000000000000600082015250565b6000613d79601183613a05565b9150613d8482613d43565b602082019050919050565b60006020820190508181036000830152613da881613d6c565b9050919050565b7f496e76616c6964207469636b6574000000000000000000000000000000000000600082015250565b6000613de5600e83613a05565b9150613df082613daf565b602082019050919050565b60006020820190508181036000830152613e1481613dd8565b9050919050565b7f4f75746461746564207469636b65740000000000000000000000000000000000600082015250565b6000613e51600f83613a05565b9150613e5c82613e1b565b602082019050919050565b60006020820190508181036000830152613e8081613e44565b9050919050565b7f496e73756666696369656e742076616c75650000000000000000000000000000600082015250565b6000613ebd601283613a05565b9150613ec882613e87565b602082019050919050565b60006020820190508181036000830152613eec81613eb0565b9050919050565b7f4e487b7100000000000000000000000000000000000000000000000000000000600052601160045260246000fd5b6000613f2d82613354565b9150613f3883613354565b9250828203905081811115613f5057613f4f613ef3565b5b92915050565b600081519050613f658161335e565b92915050565b600060208284031215613f8157613f8061315b565b5b6000613f8f84828501613f56565b91505092915050565b613fa181613354565b82525050565b6000606082019050613fbc6000830186613be3565b613fc96020830185613be3565b613fd66040830184613f98565b949350505050565b600081519050613fed81613939565b92915050565b6000602082840312156140095761400861315b565b5b600061401784828501613fde565b91505092915050565b7f4661696c656420746f207472616e736665722061737365740000000000000000600082015250565b6000614056601883613a05565b915061406182614020565b602082019050919050565b6000602082019050818103600083015261408581614049565b9050919050565b600061409782613354565b91506140a283613354565b92508282019050808211156140ba576140b9613ef3565b5b92915050565b7f5472616e73666572206572726f72000000000000000000000000000000000000600082015250565b60006140f6600e83613a05565b9150614101826140c0565b602082019050919050565b60006020820190508181036000830152614125816140e9565b9050919050565b7f496e636f72726563742066656500000000000000000000000000000000000000600082015250565b6000614162600d83613a05565b915061416d8261412c565b602082019050919050565b6000602082019050818103600083015261419181614155565b9050919050565b50565b60006141a8600083613c18565b91506141b382614198565b600082019050919050565b60006141c98261419b565b9150819050919050565b7f4661696c656420746f20736176652076616c7574000000000000000000000000600082015250565b6000614209601483613a05565b9150614214826141d3565b602082019050919050565b60006020820190508181036000830152614238816141fc565b9050919050565b7f4661696c656420746f2073617665206275666665720000000000000000000000600082015250565b6000614275601583613a05565b91506142808261423f565b602082019050919050565b600060208201905081810360008301526142a481614268565b9050919050565b60006142ba6020840184613375565b905092915050565b6142cb81613354565b82525050565b60006142e060208401846132ff565b905092915050565b6142f1816132d6565b82525050565b60e0820161430860008301836142ab565b61431560008501826142c2565b5061432360208301836142d1565b61433060208501826142e8565b5061433e60408301836142d1565b61434b60408501826142e8565b5061435960608301836142ab565b61436660608501826142c2565b5061437460808301836142ab565b61438160808501826142c2565b5061438f60a08301836142ab565b61439c60a08501826142c2565b506143aa60c08301836142ab565b6143b760c08501826142c2565b50505050565b600060e0820190506143d260008301846142f7565b92915050565b60006040820190506143ed6000830185613be3565b6143fa6020830184613f98565b9392505050565b7f4661696c656420746f207472616e73666572206e617469766500000000000000600082015250565b6000614437601983613a05565b915061444282614401565b602082019050919050565b600060208201905081810360008301526144668161442a565b9050919050565b60a0820161447e60008301836142d1565b61448b60008501826142e8565b5061449960208301836142d1565b6144a660208501826142e8565b506144b460408301836142ab565b6144c160408501826142c2565b506144cf60608301836142ab565b6144dc60608501826142c2565b506144ea60808301836142ab565b6144f760808501826142c2565b50505050565b600060c0820190506145126000830185613f98565b61451f602083018461446d565b9392505050565b600080fd5b600080fd5b600080fd5b6000808335600160200384360303811261455257614551614526565b5b80840192508235915067ffffffffffffffff8211156145745761457361452b565b5b6020830192506020820236038313156145905761458f614530565b5b509250929050565b7f53776170206c656e677468206973207a65726f00000000000000000000000000600082015250565b60006145ce601383613a05565b91506145d982614598565b602082019050919050565b600060208201905081810360008301526145fd816145c1565b9050919050565b7f4e487b7100000000000000000000000000000000000000000000000000000000600052603260045260246000fd5b60008235600160600383360303811261464f5761464e614526565b5b80830191505092915050565b6000808335600160200384360303811261467857614677614526565b5b80840192508235915067ffffffffffffffff82111561469a5761469961452b565b5b6020830192506001820236038313156146b6576146b5614530565b5b509250929050565b60006146ca8385613c18565b93506146d783858461344b565b82840190509392505050565b60006146f08284866146be565b91508190509392505050565b600061470782613354565b91507fffffffffffffffffffffffffffffffffffffffffffffffffffffffffffffffff820361473957614738613ef3565b5b600182019050919050565b6000819050919050565b6000819050919050565b600061477361476e61476984614744565b61474e565b613314565b9050919050565b61478381614758565b82525050565b600060208201905061479e600083018461477a565b92915050565b6147ad81613314565b82525050565b6040820160008201516147c960008501826142e8565b5060208201516147dc60208501826142c2565b50505050565b6147eb816133da565b82525050565b600082825260208201905092915050565b600061480d82613c0d565b61481781856147f1565b9350614827818560208601613a16565b61483081613225565b840191505092915050565b60006101c08301600083015161485460008601826142e8565b50602083015161486760208601826147a4565b50604083015161487a60408601826142e8565b50606083015161488d60608601826147a4565b5060808301516148a060808601826147b3565b5060a08301516148b360c08601826147b3565b5060c08301516148c76101008601826142c2565b5060e08301516148db6101208601826142c2565b506101008301516148f06101408601826142e8565b506101208301516149056101608601826147e2565b5061014083015161491a6101808601826142e8565b506101608301518482036101a08601526149348282614802565b9150508091505092915050565b6000602082019050818103600083015261495b818461483b565b905092915050565b7f5a65726f4164647265737320697320676976656e000000000000000000000000600082015250565b6000614999601483613a05565b91506149a482614963565b602082019050919050565b600060208201905081810360008301526149c88161498c565b9050919050565b60006040820190506149e46000830185613be3565b6149f16020830184613be3565b9392505050565b7f417070726f7665206661696c6564000000000000000000000000000000000000600082015250565b6000614a2e600e83613a05565b9150614a39826149f8565b602082019050919050565b60006020820190508181036000830152614a5d81614a21565b9050919050565b6000819050919050565b614a7f614a7a82613354565b614a64565b82525050565b60008160601b9050919050565b6000614a9d82614a85565b9050919050565b6000614aaf82614a92565b9050919050565b614ac7614ac2826132d6565b614aa4565b82525050565b6000614ad9828a614a6e565b602082019150614ae98289614ab6565b601482019150614af98288614ab6565b601482019150614b098287614a6e565b602082019150614b198286614a6e565b602082019150614b298285614a6e565b602082019150614b398284614a6e565b60208201915081905098975050505050505050565b600081905092915050565b7f19457468657265756d205369676e6564204d6573736167653a0a333200000000600082015250565b6000614b8f601c83614b4e565b9150614b9a82614b59565b601c82019050919050565b6000819050919050565b614bc0614bbb826133da565b614ba5565b82525050565b6000614bd182614b82565b9150614bdd8284614baf565b60208201915081905092915050565b600081519050614bfb816133e4565b92915050565b600060208284031215614c1757614c1661315b565b5b6000614c2584828501614bec565b91505092915050565b60008235600160e003833603038112614c4a57614c49614526565b5b80830191505092915050565b6000604082019050614c6b6000830185613f98565b8181036020830152614c7d8184613c7c565b90509392505050565b7f496e73756666696369656e74206f757470757400000000000000000000000000600082015250565b6000614cbc601383613a05565b9150614cc782614c86565b602082019050919050565b60006020820190508181036000830152614ceb81614caf565b9050919050565b6000604082019050614d076000830185613be3565b614d146020830184613814565b9392505050565b7f4e487b7100000000000000000000000000000000000000000000000000000000600052602160045260246000fd5b6000602082019050614d5f6000830184613f98565b92915050565b600060ff82169050919050565b614d7b81614d65565b82525050565b6000608082019050614d966000830187613814565b614da36020830186614d72565b614db06040830185613814565b614dbd6060830184613814565b9594505050505056fea2646970667358221220a85fbc00b30f3c716cc343660fbd6b66abaafc13fc154ddab81432cabdb2b92264736f6c63430008140033",
  "linkReferences": {},
  "deployedLinkReferences": {}
}