{
  "_format": "hh-sol-artifact-1",
  "contractName": "CallTest",
  "sourceName": "contracts/Mock/callTest.sol",
  "abi": [
    {
      "anonymous": false,
      "inputs": [],
      "name": "called",
      "type": "event"
    },
    {
      "inputs": [
        {
          "internalType": "address",
          "name": "addr",
          "type": "address"
        },
        {
          "internalType": "bytes",
          "name": "data",
          "type": "bytes"
        }
      ],
      "name": "call1",
      "outputs": [],
      "stateMutability": "nonpayable",
      "type": "function"
    },
    {
      "inputs": [
        {
          "internalType": "address",
          "name": "addr",
          "type": "address"
        },
        {
          "internalType": "bytes",
          "name": "data",
          "type": "bytes"
        }
      ],
      "name": "call2",
      "outputs": [],
      "stateMutability": "nonpayable",
      "type": "function"
    },
    {
      "inputs": [
        {
          "internalType": "address",
          "name": "addr",
          "type": "address"
        },
        {
          "internalType": "bytes",
          "name": "data",
          "type": "bytes"
        }
      ],
      "name": "call3",
      "outputs": [],
      "stateMutability": "nonpayable",
      "type": "function"
    },
    {
      "inputs": [],
      "name": "lastAnswer",
      "outputs": [
        {
          "internalType": "bool",
          "name": "",
          "type": "bool"
        }
      ],
      "stateMutability": "view",
      "type": "function"
    },
    {
      "stateMutability": "payable",
      "type": "receive"
    }
  ],
  "bytecode": "0x608060405234801561001057600080fd5b50610616806100206000396000f3fe6080604052600436106100435760003560e01c806329a20bca1461004f5780638a45f3371461007857806396a84cfd146100a1578063bb23ae25146100ca5761004a565b3661004a57005b600080fd5b34801561005b57600080fd5b50610076600480360381019061007191906104c6565b6100f5565b005b34801561008457600080fd5b5061009f600480360381019061009a91906104c6565b6101aa565b005b3480156100ad57600080fd5b506100c860048036038101906100c391906104c6565b610261565b005b3480156100d657600080fd5b506100df6102fd565b6040516100ec919061053d565b60405180910390f35b8173ffffffffffffffffffffffffffffffffffffffff168160405161011a91906105c9565b6000604051808303816000865af19150503d8060008114610157576040519150601f19603f3d011682016040523d82523d6000602084013e61015c565b606091505b50506000808291906101000a81548160ff021916908315150217905550507f50f9b6cdc484a81c70163a8cabbf4cbcef98327bc7ec46e2c9fbdfa766324b8e60405160405180910390a15050565b8173ffffffffffffffffffffffffffffffffffffffff166001826040516101d191906105c9565b60006040518083038185875af1925050503d806000811461020e576040519150601f19603f3d011682016040523d82523d6000602084013e610213565b606091505b50506000808291906101000a81548160ff021916908315150217905550507f50f9b6cdc484a81c70163a8cabbf4cbcef98327bc7ec46e2c9fbdfa766324b8e60405160405180910390a15050565b8173ffffffffffffffffffffffffffffffffffffffff1660018260405161028891906105c9565b60006040518083038185875af1925050503d80600081146102c5576040519150601f19603f3d011682016040523d82523d6000602084013e6102ca565b606091505b5050507f50f9b6cdc484a81c70163a8cabbf4cbcef98327bc7ec46e2c9fbdfa766324b8e60405160405180910390a15050565b60008054906101000a900460ff1681565b6000604051905090565b600080fd5b600080fd5b600073ffffffffffffffffffffffffffffffffffffffff82169050919050565b600061034d82610322565b9050919050565b61035d81610342565b811461036857600080fd5b50565b60008135905061037a81610354565b92915050565b600080fd5b600080fd5b6000601f19601f8301169050919050565b7f4e487b7100000000000000000000000000000000000000000000000000000000600052604160045260246000fd5b6103d38261038a565b810181811067ffffffffffffffff821117156103f2576103f161039b565b5b80604052505050565b600061040561030e565b905061041182826103ca565b919050565b600067ffffffffffffffff8211156104315761043061039b565b5b61043a8261038a565b9050602081019050919050565b82818337600083830152505050565b600061046961046484610416565b6103fb565b90508281526020810184848401111561048557610484610385565b5b610490848285610447565b509392505050565b600082601f8301126104ad576104ac610380565b5b81356104bd848260208601610456565b91505092915050565b600080604083850312156104dd576104dc610318565b5b60006104eb8582860161036b565b925050602083013567ffffffffffffffff81111561050c5761050b61031d565b5b61051885828601610498565b9150509250929050565b60008115159050919050565b61053781610522565b82525050565b6000602082019050610552600083018461052e565b92915050565b600081519050919050565b600081905092915050565b60005b8381101561058c578082015181840152602081019050610571565b60008484015250505050565b60006105a382610558565b6105ad8185610563565b93506105bd81856020860161056e565b80840191505092915050565b60006105d58284610598565b91508190509291505056fea2646970667358221220b965cb2f267153bdbfc2dbad9e20a25bc600451777a96bb0a327e2776e3d20fb64736f6c63430008140033",
  "linkReferences": {},
  "deployedLinkReferences": {}
}