{
  "_format": "hh-sol-artifact-1",
  "contractName": "CallTest_PNR",
  "sourceName": "contracts/Mock/callTest.sol",
  "abi": [
    {
      "inputs": [],
      "name": "a",
      "outputs": [],
      "stateMutability": "payable",
      "type": "function"
    }
  ],
  "bytecode": "0x6080604052348015600f57600080fd5b50606480601d6000396000f3fe608060405260043610601c5760003560e01c80630dbe671f146021575b600080fd5b60276029565b005b600080fdfea264697066735822122004962fba0b563f67f5659fef5a648dbe16b2135a39fba91c94544b89598b0ec764736f6c63430008140033",
  "linkReferences": {},
  "deployedLinkReferences": {}
}