{
  "_format": "hh-sol-artifact-1",
  "contractName": "CallTest_N",
  "sourceName": "contracts/Mock/callTest.sol",
  "abi": [
    {
      "inputs": [],
      "name": "a",
      "outputs": [],
      "stateMutability": "nonpayable",
      "type": "function"
    }
  ],
  "bytecode": "0x6080604052348015600f57600080fd5b50606d80601d6000396000f3fe6080604052348015600f57600080fd5b506004361060285760003560e01c80630dbe671f14602d575b600080fd5b60336035565b005b56fea26469706673582212209b9620d740f6e40d8bee3903c66b28953adcc3c8b5c54accba2835728f51814964736f6c63430008140033",
  "linkReferences": {},
  "deployedLinkReferences": {}
}