{
  "_format": "hh-sol-artifact-1",
  "contractName": "Buffer",
  "sourceName": "contracts/Mudskipper/buffer.sol",
  "abi": [
    {
      "inputs": [],
      "stateMutability": "nonpayable",
      "type": "constructor"
    },
    {
      "inputs": [],
      "name": "AccessControlBadConfirmation",
      "type": "error"
    },
    {
      "inputs": [
        {
          "internalType": "address",
          "name": "account",
          "type": "address"
        },
        {
          "internalType": "bytes32",
          "name": "neededRole",
          "type": "bytes32"
        }
      ],
      "name": "AccessControlUnauthorizedAccount",
      "type": "error"
    },
    {
      "inputs": [
        {
          "internalType": "address",
          "name": "target",
          "type": "address"
        }
      ],
      "name": "AddressEmptyCode",
      "type": "error"
    },
    {
      "inputs": [
        {
          "internalType": "address",
          "name": "implementation",
          "type": "address"
        }
      ],
      "name": "ERC1967InvalidImplementation",
      "type": "error"
    },
    {
      "inputs": [],
      "name": "ERC1967NonPayable",
      "type": "error"
    },
    {
      "inputs": [],
      "name": "FailedInnerCall",
      "type": "error"
    },
    {
      "inputs": [
        {
          "internalType": "uint256",
          "name": "transferableBalance",
          "type": "uint256"
        }
      ],
      "name": "InsufficientBalance",
      "type": "error"
    },
    {
      "inputs": [],
      "name": "InvalidInitialization",
      "type": "error"
    },
    {
      "inputs": [],
      "name": "NotInitializing",
      "type": "error"
    },
    {
      "inputs": [],
      "name": "UUPSUnauthorizedCallContext",
      "type": "error"
    },
    {
      "inputs": [
        {
          "internalType": "bytes32",
          "name": "slot",
          "type": "bytes32"
        }
      ],
      "name": "UUPSUnsupportedProxiableUUID",
      "type": "error"
    },
    {
      "anonymous": false,
      "inputs": [
        {
          "indexed": false,
          "internalType": "address",
          "name": "to",
          "type": "address"
        },
        {
          "indexed": false,
          "internalType": "uint256",
          "name": "quantity",
          "type": "uint256"
        }
      ],
      "name": "BufferWithdrawn",
      "type": "event"
    },
    {
      "anonymous": false,
      "inputs": [
        {
          "indexed": false,
          "internalType": "uint64",
          "name": "version",
          "type": "uint64"
        }
      ],
      "name": "Initialized",
      "type": "event"
    },
    {
      "anonymous": false,
      "inputs": [
        {
          "indexed": false,
          "internalType": "address",
          "name": "setter",
          "type": "address"
        },
        {
          "indexed": false,
          "internalType": "address",
          "name": "newReserve",
          "type": "address"
        }
      ],
      "name": "ReserveSet",
      "type": "event"
    },
    {
      "anonymous": false,
      "inputs": [
        {
          "indexed": true,
          "internalType": "bytes32",
          "name": "role",
          "type": "bytes32"
        },
        {
          "indexed": true,
          "internalType": "bytes32",
          "name": "previousAdminRole",
          "type": "bytes32"
        },
        {
          "indexed": true,
          "internalType": "bytes32",
          "name": "newAdminRole",
          "type": "bytes32"
        }
      ],
      "name": "RoleAdminChanged",
      "type": "event"
    },
    {
      "anonymous": false,
      "inputs": [
        {
          "indexed": true,
          "internalType": "bytes32",
          "name": "role",
          "type": "bytes32"
        },
        {
          "indexed": true,
          "internalType": "address",
          "name": "account",
          "type": "address"
        },
        {
          "indexed": true,
          "internalType": "address",
          "name": "sender",
          "type": "address"
        }
      ],
      "name": "RoleGranted",
      "type": "event"
    },
    {
      "anonymous": false,
      "inputs": [
        {
          "indexed": true,
          "internalType": "bytes32",
          "name": "role",
          "type": "bytes32"
        },
        {
          "indexed": true,
          "internalType": "address",
          "name": "account",
          "type": "address"
        },
        {
          "indexed": true,
          "internalType": "address",
          "name": "sender",
          "type": "address"
        }
      ],
      "name": "RoleRevoked",
      "type": "event"
    },
    {
      "anonymous": false,
      "inputs": [
        {
          "indexed": true,
          "internalType": "address",
          "name": "implementation",
          "type": "address"
        }
      ],
      "name": "Upgraded",
      "type": "event"
    },
    {
      "inputs": [],
      "name": "DEFAULT_ADMIN_ROLE",
      "outputs": [
        {
          "internalType": "bytes32",
          "name": "",
          "type": "bytes32"
        }
      ],
      "stateMutability": "view",
      "type": "function"
    },
    {
      "inputs": [],
      "name": "POOL_MANAGER",
      "outputs": [
        {
          "internalType": "bytes32",
          "name": "",
          "type": "bytes32"
        }
      ],
      "stateMutability": "view",
      "type": "function"
    },
    {
      "inputs": [],
      "name": "UPGRADE_INTERFACE_VERSION",
      "outputs": [
        {
          "internalType": "string",
          "name": "",
          "type": "string"
        }
      ],
      "stateMutability": "view",
      "type": "function"
    },
    {
      "inputs": [
        {
          "internalType": "bytes32",
          "name": "role",
          "type": "bytes32"
        }
      ],
      "name": "getRoleAdmin",
      "outputs": [
        {
          "internalType": "bytes32",
          "name": "",
          "type": "bytes32"
        }
      ],
      "stateMutability": "view",
      "type": "function"
    },
    {
      "inputs": [
        {
          "internalType": "bytes32",
          "name": "role",
          "type": "bytes32"
        },
        {
          "internalType": "address",
          "name": "account",
          "type": "address"
        }
      ],
      "name": "grantRole",
      "outputs": [],
      "stateMutability": "nonpayable",
      "type": "function"
    },
    {
      "inputs": [
        {
          "internalType": "bytes32",
          "name": "role",
          "type": "bytes32"
        },
        {
          "internalType": "address",
          "name": "account",
          "type": "address"
        }
      ],
      "name": "hasRole",
      "outputs": [
        {
          "internalType": "bool",
          "name": "",
          "type": "bool"
        }
      ],
      "stateMutability": "view",
      "type": "function"
    },
    {
      "inputs": [
        {
          "internalType": "address",
          "name": "owner",
          "type": "address"
        }
      ],
      "name": "initialize",
      "outputs": [],
      "stateMutability": "nonpayable",
      "type": "function"
    },
    {
      "inputs": [],
      "name": "proxiableUUID",
      "outputs": [
        {
          "internalType": "bytes32",
          "name": "",
          "type": "bytes32"
        }
      ],
      "stateMutability": "view",
      "type": "function"
    },
    {
      "inputs": [
        {
          "internalType": "bytes32",
          "name": "role",
          "type": "bytes32"
        },
        {
          "internalType": "address",
          "name": "callerConfirmation",
          "type": "address"
        }
      ],
      "name": "renounceRole",
      "outputs": [],
      "stateMutability": "nonpayable",
      "type": "function"
    },
    {
      "inputs": [],
      "name": "reserve",
      "outputs": [
        {
          "internalType": "address",
          "name": "",
          "type": "address"
        }
      ],
      "stateMutability": "view",
      "type": "function"
    },
    {
      "inputs": [
        {
          "internalType": "bytes32",
          "name": "role",
          "type": "bytes32"
        },
        {
          "internalType": "address",
          "name": "account",
          "type": "address"
        }
      ],
      "name": "revokeRole",
      "outputs": [],
      "stateMutability": "nonpayable",
      "type": "function"
    },
    {
      "inputs": [
        {
          "internalType": "address",
          "name": "newReserve",
          "type": "address"
        }
      ],
      "name": "setReserve",
      "outputs": [],
      "stateMutability": "nonpayable",
      "type": "function"
    },
    {
      "inputs": [
        {
          "internalType": "bytes4",
          "name": "interfaceId",
          "type": "bytes4"
        }
      ],
      "name": "supportsInterface",
      "outputs": [
        {
          "internalType": "bool",
          "name": "",
          "type": "bool"
        }
      ],
      "stateMutability": "view",
      "type": "function"
    },
    {
      "inputs": [
        {
          "internalType": "uint256",
          "name": "quantity",
          "type": "uint256"
        }
      ],
      "name": "transferBuffer",
      "outputs": [
        {
          "internalType": "bool",
          "name": "success",
          "type": "bool"
        }
      ],
      "stateMutability": "nonpayable",
      "type": "function"
    },
    {
      "inputs": [
        {
          "internalType": "address",
          "name": "newImplementation",
          "type": "address"
        },
        {
          "internalType": "bytes",
          "name": "data",
          "type": "bytes"
        }
      ],
      "name": "upgradeToAndCall",
      "outputs": [],
      "stateMutability": "payable",
      "type": "function"
    },
    {
      "inputs": [
        {
          "internalType": "address",
          "name": "to",
          "type": "address"
        },
        {
          "internalType": "uint256",
          "name": "quantity",
          "type": "uint256"
        }
      ],
      "name": "withdrawToRebalance",
      "outputs": [
        {
          "internalType": "bool",
          "name": "success",
          "type": "bool"
        }
      ],
      "stateMutability": "nonpayable",
      "type": "function"
    },
    {
      "stateMutability": "payable",
      "type": "receive"
    }
  ],
  "bytecode": "0x60a06040523073ffffffffffffffffffffffffffffffffffffffff1660809073ffffffffffffffffffffffffffffffffffffffff168152503480156200004457600080fd5b50620000556200005b60201b60201c565b620001cf565b60006200006d6200016560201b60201c565b90508060000160089054906101000a900460ff1615620000b9576040517ff92ee8a900000000000000000000000000000000000000000000000000000000815260040160405180910390fd5b67ffffffffffffffff80168160000160009054906101000a900467ffffffffffffffff1667ffffffffffffffff1614620001625767ffffffffffffffff8160000160006101000a81548167ffffffffffffffff021916908367ffffffffffffffff1602179055507fc7f505b2f371ae2175ee4913f4499e1f2633a7b5936321eed1cdaeb6115181d267ffffffffffffffff604051620001599190620001b2565b60405180910390a15b50565b60007ff0c57e16840df040f15088dc2f81fe391c3923bec73e23a9662efc9c229c6a00905090565b600067ffffffffffffffff82169050919050565b620001ac816200018d565b82525050565b6000602082019050620001c96000830184620001a1565b92915050565b608051611d1b620001f960003960008181610d1701528181610d6c0152610f2d0152611d1b6000f3fe6080604052600436106100f75760003560e01c806391d148541161008a578063c4d66de811610059578063c4d66de81461033a578063cd3293de14610363578063cf120bb61461038e578063d547741f146103cb576100fe565b806391d148541461027e5780639cecc80a146102bb578063a217fddf146102e4578063ad3cb1cc1461030f576100fe565b80634f1ef286116100c65780634f1ef286146101cf57806352d1902d146101eb57806362308e85146102165780638a44802414610241576100fe565b806301ffc9a714610103578063248a9ca3146101405780632f2ff15d1461017d57806336568abe146101a6576100fe565b366100fe57005b600080fd5b34801561010f57600080fd5b5061012a600480360381019061012591906114fd565b6103f4565b6040516101379190611545565b60405180910390f35b34801561014c57600080fd5b5061016760048036038101906101629190611596565b61046e565b60405161017491906115d2565b60405180910390f35b34801561018957600080fd5b506101a4600480360381019061019f919061164b565b61049c565b005b3480156101b257600080fd5b506101cd60048036038101906101c8919061164b565b6104be565b005b6101e960048036038101906101e491906117d1565b610539565b005b3480156101f757600080fd5b50610200610558565b60405161020d91906115d2565b60405180910390f35b34801561022257600080fd5b5061022b61058b565b60405161023891906115d2565b60405180910390f35b34801561024d57600080fd5b5061026860048036038101906102639190611863565b6105af565b6040516102759190611545565b60405180910390f35b34801561028a57600080fd5b506102a560048036038101906102a0919061164b565b61060d565b6040516102b29190611545565b60405180910390f35b3480156102c757600080fd5b506102e260048036038101906102dd9190611890565b610686565b005b3480156102f057600080fd5b506102f961079c565b60405161030691906115d2565b60405180910390f35b34801561031b57600080fd5b506103246107a3565b604051610331919061193c565b60405180910390f35b34801561034657600080fd5b50610361600480360381019061035c9190611890565b6107dc565b005b34801561036f57600080fd5b50610378610970565b604051610385919061196d565b60405180910390f35b34801561039a57600080fd5b506103b560048036038101906103b09190611988565b610994565b6040516103c29190611545565b60405180910390f35b3480156103d757600080fd5b506103f260048036038101906103ed919061164b565b610a42565b005b60007f7965db0b000000000000000000000000000000000000000000000000000000007bffffffffffffffffffffffffffffffffffffffffffffffffffffffff1916827bffffffffffffffffffffffffffffffffffffffffffffffffffffffff19161480610467575061046682610a64565b5b9050919050565b600080610479610ace565b905080600001600084815260200190815260200160002060010154915050919050565b6104a58261046e565b6104ae81610af6565b6104b88383610b0a565b50505050565b6104c6610c0b565b73ffffffffffffffffffffffffffffffffffffffff168173ffffffffffffffffffffffffffffffffffffffff161461052a576040517f6697b23200000000000000000000000000000000000000000000000000000000815260040160405180910390fd5b6105348282610c13565b505050565b610541610d15565b61054a82610dfb565b6105548282610e0c565b5050565b6000610562610f2b565b7f360894a13ba1a3210667c828492db98dca3e2076cc3735a920a3ca505d382bbc60001b905090565b7f41a01ec0a13b563fa452569e3fbb116366d217c2769aa1561822e65a617e384281565b60007f41a01ec0a13b563fa452569e3fbb116366d217c2769aa1561822e65a617e38426105db81610af6565b61060560008054906101000a900473ffffffffffffffffffffffffffffffffffffffff1684610fb2565b915050919050565b600080610618610ace565b905080600001600085815260200190815260200160002060000160008473ffffffffffffffffffffffffffffffffffffffff1673ffffffffffffffffffffffffffffffffffffffff16815260200190815260200160002060009054906101000a900460ff1691505092915050565b7f41a01ec0a13b563fa452569e3fbb116366d217c2769aa1561822e65a617e38426106b081610af6565b600073ffffffffffffffffffffffffffffffffffffffff168273ffffffffffffffffffffffffffffffffffffffff160361071f576040517f08c379a000000000000000000000000000000000000000000000000000000000815260040161071690611a14565b60405180910390fd5b816000806101000a81548173ffffffffffffffffffffffffffffffffffffffff021916908373ffffffffffffffffffffffffffffffffffffffff1602179055507fb69e1c416d8be92ac92c8e97e77c4626fba5e6ab50161099f659ea3303479e503383604051610790929190611a34565b60405180910390a15050565b6000801b81565b6040518060400160405280600581526020017f352e302e3000000000000000000000000000000000000000000000000000000081525081565b60006107e66110e2565b905060008160000160089054906101000a900460ff1615905060008260000160009054906101000a900467ffffffffffffffff1690506000808267ffffffffffffffff161480156108345750825b9050600060018367ffffffffffffffff16148015610869575060003073ffffffffffffffffffffffffffffffffffffffff163b145b905081158015610877575080155b156108ae576040517ff92ee8a900000000000000000000000000000000000000000000000000000000815260040160405180910390fd5b60018560000160006101000a81548167ffffffffffffffff021916908367ffffffffffffffff16021790555083156108fe5760018560000160086101000a81548160ff0219169083151502179055505b61090b6000801b87610b0a565b5083156109685760008560000160086101000a81548160ff0219169083151502179055507fc7f505b2f371ae2175ee4913f4499e1f2633a7b5936321eed1cdaeb6115181d2600160405161095f9190611ab6565b60405180910390a15b505050505050565b60008054906101000a900473ffffffffffffffffffffffffffffffffffffffff1681565b60007f41a01ec0a13b563fa452569e3fbb116366d217c2769aa1561822e65a617e38426109c081610af6565b600073ffffffffffffffffffffffffffffffffffffffff168473ffffffffffffffffffffffffffffffffffffffff1603610a2f576040517f08c379a0000000000000000000000000000000000000000000000000000000008152600401610a2690611a14565b60405180910390fd5b610a398484610fb2565b91505092915050565b610a4b8261046e565b610a5481610af6565b610a5e8383610c13565b50505050565b60007f01ffc9a7000000000000000000000000000000000000000000000000000000007bffffffffffffffffffffffffffffffffffffffffffffffffffffffff1916827bffffffffffffffffffffffffffffffffffffffffffffffffffffffff1916149050919050565b60007f02dd7bc7dec4dceedda775e58dd541e08a116c6c53815c0bd028192f7b626800905090565b610b0781610b02610c0b565b61110a565b50565b600080610b15610ace565b9050610b21848461060d565b610bff57600181600001600086815260200190815260200160002060000160008573ffffffffffffffffffffffffffffffffffffffff1673ffffffffffffffffffffffffffffffffffffffff16815260200190815260200160002060006101000a81548160ff021916908315150217905550610b9b610c0b565b73ffffffffffffffffffffffffffffffffffffffff168373ffffffffffffffffffffffffffffffffffffffff16857f2f8788117e7eff1d82e926ec794901d17c78024a50270940304540a733656f0d60405160405180910390a46001915050610c05565b60009150505b92915050565b600033905090565b600080610c1e610ace565b9050610c2a848461060d565b15610d0957600081600001600086815260200190815260200160002060000160008573ffffffffffffffffffffffffffffffffffffffff1673ffffffffffffffffffffffffffffffffffffffff16815260200190815260200160002060006101000a81548160ff021916908315150217905550610ca5610c0b565b73ffffffffffffffffffffffffffffffffffffffff168373ffffffffffffffffffffffffffffffffffffffff16857ff6391f5c32d9c69d2a47ea670b442974b53935d1edc7fd64eb21e047a839171b60405160405180910390a46001915050610d0f565b60009150505b92915050565b7f000000000000000000000000000000000000000000000000000000000000000073ffffffffffffffffffffffffffffffffffffffff163073ffffffffffffffffffffffffffffffffffffffff161480610dc257507f000000000000000000000000000000000000000000000000000000000000000073ffffffffffffffffffffffffffffffffffffffff16610da961115b565b73ffffffffffffffffffffffffffffffffffffffff1614155b15610df9576040517fe07c8dba00000000000000000000000000000000000000000000000000000000815260040160405180910390fd5b565b6000801b610e0881610af6565b5050565b8173ffffffffffffffffffffffffffffffffffffffff166352d1902d6040518163ffffffff1660e01b8152600401602060405180830381865afa925050508015610e7457506040513d601f19601f82011682018060405250810190610e719190611ae6565b60015b610eb557816040517f4c9c8ce3000000000000000000000000000000000000000000000000000000008152600401610eac919061196d565b60405180910390fd5b7f360894a13ba1a3210667c828492db98dca3e2076cc3735a920a3ca505d382bbc60001b8114610f1c57806040517faa1d49a4000000000000000000000000000000000000000000000000000000008152600401610f1391906115d2565b60405180910390fd5b610f2683836111b2565b505050565b7f000000000000000000000000000000000000000000000000000000000000000073ffffffffffffffffffffffffffffffffffffffff163073ffffffffffffffffffffffffffffffffffffffff1614610fb0576040517fe07c8dba00000000000000000000000000000000000000000000000000000000815260040160405180910390fd5b565b600047821115610ff7576040517f08c379a0000000000000000000000000000000000000000000000000000000008152600401610fee90611b5f565b60405180910390fd5b8273ffffffffffffffffffffffffffffffffffffffff168260405161101b90611bb0565b60006040518083038185875af1925050503d8060008114611058576040519150601f19603f3d011682016040523d82523d6000602084013e61105d565b606091505b505080915050806110a3576040517f08c379a000000000000000000000000000000000000000000000000000000000815260040161109a90611c11565b60405180910390fd5b7f62ca0d7de15cc068977ffa227dead16c52bfdc4120fbe6db81c8d36c305895ee83836040516110d4929190611c40565b60405180910390a192915050565b60007ff0c57e16840df040f15088dc2f81fe391c3923bec73e23a9662efc9c229c6a00905090565b611114828261060d565b6111575780826040517fe2517d3f00000000000000000000000000000000000000000000000000000000815260040161114e929190611c69565b60405180910390fd5b5050565b60006111897f360894a13ba1a3210667c828492db98dca3e2076cc3735a920a3ca505d382bbc60001b611225565b60000160009054906101000a900473ffffffffffffffffffffffffffffffffffffffff16905090565b6111bb8261122f565b8173ffffffffffffffffffffffffffffffffffffffff167fbc7cd75a20ee27fd9adebab32041f755214dbc6bffa90cc0225b39da2e5c2d3b60405160405180910390a26000815111156112185761121282826112fc565b50611221565b611220611380565b5b5050565b6000819050919050565b60008173ffffffffffffffffffffffffffffffffffffffff163b0361128b57806040517f4c9c8ce3000000000000000000000000000000000000000000000000000000008152600401611282919061196d565b60405180910390fd5b806112b87f360894a13ba1a3210667c828492db98dca3e2076cc3735a920a3ca505d382bbc60001b611225565b60000160006101000a81548173ffffffffffffffffffffffffffffffffffffffff021916908373ffffffffffffffffffffffffffffffffffffffff16021790555050565b60606000808473ffffffffffffffffffffffffffffffffffffffff16846040516113269190611cce565b600060405180830381855af49150503d8060008114611361576040519150601f19603f3d011682016040523d82523d6000602084013e611366565b606091505b50915091506113768583836113bd565b9250505092915050565b60003411156113bb576040517fb398979f00000000000000000000000000000000000000000000000000000000815260040160405180910390fd5b565b6060826113d2576113cd8261144c565b611444565b600082511480156113fa575060008473ffffffffffffffffffffffffffffffffffffffff163b145b1561143c57836040517f9996b315000000000000000000000000000000000000000000000000000000008152600401611433919061196d565b60405180910390fd5b819050611445565b5b9392505050565b60008151111561145f5780518082602001fd5b6040517f1425ea4200000000000000000000000000000000000000000000000000000000815260040160405180910390fd5b6000604051905090565b600080fd5b600080fd5b60007fffffffff0000000000000000000000000000000000000000000000000000000082169050919050565b6114da816114a5565b81146114e557600080fd5b50565b6000813590506114f7816114d1565b92915050565b6000602082840312156115135761151261149b565b5b6000611521848285016114e8565b91505092915050565b60008115159050919050565b61153f8161152a565b82525050565b600060208201905061155a6000830184611536565b92915050565b6000819050919050565b61157381611560565b811461157e57600080fd5b50565b6000813590506115908161156a565b92915050565b6000602082840312156115ac576115ab61149b565b5b60006115ba84828501611581565b91505092915050565b6115cc81611560565b82525050565b60006020820190506115e760008301846115c3565b92915050565b600073ffffffffffffffffffffffffffffffffffffffff82169050919050565b6000611618826115ed565b9050919050565b6116288161160d565b811461163357600080fd5b50565b6000813590506116458161161f565b92915050565b600080604083850312156116625761166161149b565b5b600061167085828601611581565b925050602061168185828601611636565b9150509250929050565b600080fd5b600080fd5b6000601f19601f8301169050919050565b7f4e487b7100000000000000000000000000000000000000000000000000000000600052604160045260246000fd5b6116de82611695565b810181811067ffffffffffffffff821117156116fd576116fc6116a6565b5b80604052505050565b6000611710611491565b905061171c82826116d5565b919050565b600067ffffffffffffffff82111561173c5761173b6116a6565b5b61174582611695565b9050602081019050919050565b82818337600083830152505050565b600061177461176f84611721565b611706565b9050828152602081018484840111156117905761178f611690565b5b61179b848285611752565b509392505050565b600082601f8301126117b8576117b761168b565b5b81356117c8848260208601611761565b91505092915050565b600080604083850312156117e8576117e761149b565b5b60006117f685828601611636565b925050602083013567ffffffffffffffff811115611817576118166114a0565b5b611823858286016117a3565b9150509250929050565b6000819050919050565b6118408161182d565b811461184b57600080fd5b50565b60008135905061185d81611837565b92915050565b6000602082840312156118795761187861149b565b5b60006118878482850161184e565b91505092915050565b6000602082840312156118a6576118a561149b565b5b60006118b484828501611636565b91505092915050565b600081519050919050565b600082825260208201905092915050565b60005b838110156118f75780820151818401526020810190506118dc565b60008484015250505050565b600061190e826118bd565b61191881856118c8565b93506119288185602086016118d9565b61193181611695565b840191505092915050565b600060208201905081810360008301526119568184611903565b905092915050565b6119678161160d565b82525050565b6000602082019050611982600083018461195e565b92915050565b6000806040838503121561199f5761199e61149b565b5b60006119ad85828601611636565b92505060206119be8582860161184e565b9150509250929050565b7f5a65726f4164647265737320697320676976656e000000000000000000000000600082015250565b60006119fe6014836118c8565b9150611a09826119c8565b602082019050919050565b60006020820190508181036000830152611a2d816119f1565b9050919050565b6000604082019050611a49600083018561195e565b611a56602083018461195e565b9392505050565b6000819050919050565b600067ffffffffffffffff82169050919050565b6000819050919050565b6000611aa0611a9b611a9684611a5d565b611a7b565b611a67565b9050919050565b611ab081611a85565b82525050565b6000602082019050611acb6000830184611aa7565b92915050565b600081519050611ae08161156a565b92915050565b600060208284031215611afc57611afb61149b565b5b6000611b0a84828501611ad1565b91505092915050565b7f496e73756666696369656e742062616c616e6365000000000000000000000000600082015250565b6000611b496014836118c8565b9150611b5482611b13565b602082019050919050565b60006020820190508181036000830152611b7881611b3c565b9050919050565b600081905092915050565b50565b6000611b9a600083611b7f565b9150611ba582611b8a565b600082019050919050565b6000611bbb82611b8d565b9150819050919050565b7f4661696c656420746f207472616e736665720000000000000000000000000000600082015250565b6000611bfb6012836118c8565b9150611c0682611bc5565b602082019050919050565b60006020820190508181036000830152611c2a81611bee565b9050919050565b611c3a8161182d565b82525050565b6000604082019050611c55600083018561195e565b611c626020830184611c31565b9392505050565b6000604082019050611c7e600083018561195e565b611c8b60208301846115c3565b9392505050565b600081519050919050565b6000611ca882611c92565b611cb28185611b7f565b9350611cc28185602086016118d9565b80840191505092915050565b6000611cda8284611c9d565b91508190509291505056fea26469706673582212209bc3de3261803b8b513aff999be051d89befad9ef8a3b1079d165306165d8e6b64736f6c63430008140033",
  "linkReferences": {},
  "deployedLinkReferences": {}
}