{
  "_format": "hh-sol-artifact-1",
  "contractName": "Reserve",
  "sourceName": "contracts/Mudskipper/reserve.sol",
  "abi": [
    {
      "inputs": [],
      "stateMutability": "nonpayable",
      "type": "constructor"
    },
    {
      "inputs": [],
      "name": "AccessControlBadConfirmation",
      "type": "error"
    },
    {
      "inputs": [
        {
          "internalType": "address",
          "name": "account",
          "type": "address"
        },
        {
          "internalType": "bytes32",
          "name": "neededRole",
          "type": "bytes32"
        }
      ],
      "name": "AccessControlUnauthorizedAccount",
      "type": "error"
    },
    {
      "inputs": [
        {
          "internalType": "address",
          "name": "target",
          "type": "address"
        }
      ],
      "name": "AddressEmptyCode",
      "type": "error"
    },
    {
      "inputs": [
        {
          "internalType": "address",
          "name": "implementation",
          "type": "address"
        }
      ],
      "name": "ERC1967InvalidImplementation",
      "type": "error"
    },
    {
      "inputs": [],
      "name": "ERC1967NonPayable",
      "type": "error"
    },
    {
      "inputs": [],
      "name": "FailedInnerCall",
      "type": "error"
    },
    {
      "inputs": [],
      "name": "InvalidInitialization",
      "type": "error"
    },
    {
      "inputs": [],
      "name": "NotInitializing",
      "type": "error"
    },
    {
      "inputs": [
        {
          "internalType": "uint256",
          "name": "claimableBlock",
          "type": "uint256"
        }
      ],
      "name": "TooManyClaim",
      "type": "error"
    },
    {
      "inputs": [
        {
          "internalType": "uint256",
          "name": "claimableQuantity",
          "type": "uint256"
        }
      ],
      "name": "TooMuchClaim",
      "type": "error"
    },
    {
      "inputs": [],
      "name": "UUPSUnauthorizedCallContext",
      "type": "error"
    },
    {
      "inputs": [
        {
          "internalType": "bytes32",
          "name": "slot",
          "type": "bytes32"
        }
      ],
      "name": "UUPSUnsupportedProxiableUUID",
      "type": "error"
    },
    {
      "anonymous": false,
      "inputs": [
        {
          "indexed": false,
          "internalType": "address",
          "name": "setter",
          "type": "address"
        },
        {
          "indexed": false,
          "internalType": "uint256",
          "name": "interval",
          "type": "uint256"
        }
      ],
      "name": "ClaimableIntervalSet",
      "type": "event"
    },
    {
      "anonymous": false,
      "inputs": [
        {
          "indexed": false,
          "internalType": "address",
          "name": "setter",
          "type": "address"
        },
        {
          "indexed": false,
          "internalType": "uint256",
          "name": "quantity",
          "type": "uint256"
        }
      ],
      "name": "ClaimableQuantitySet",
      "type": "event"
    },
    {
      "anonymous": false,
      "inputs": [
        {
          "indexed": false,
          "internalType": "uint64",
          "name": "version",
          "type": "uint64"
        }
      ],
      "name": "Initialized",
      "type": "event"
    },
    {
      "anonymous": false,
      "inputs": [
        {
          "indexed": false,
          "internalType": "address",
          "name": "claimer",
          "type": "address"
        },
        {
          "indexed": false,
          "internalType": "uint256",
          "name": "quantity",
          "type": "uint256"
        }
      ],
      "name": "ReserveClaimed",
      "type": "event"
    },
    {
      "anonymous": false,
      "inputs": [
        {
          "indexed": true,
          "internalType": "bytes32",
          "name": "role",
          "type": "bytes32"
        },
        {
          "indexed": true,
          "internalType": "bytes32",
          "name": "previousAdminRole",
          "type": "bytes32"
        },
        {
          "indexed": true,
          "internalType": "bytes32",
          "name": "newAdminRole",
          "type": "bytes32"
        }
      ],
      "name": "RoleAdminChanged",
      "type": "event"
    },
    {
      "anonymous": false,
      "inputs": [
        {
          "indexed": true,
          "internalType": "bytes32",
          "name": "role",
          "type": "bytes32"
        },
        {
          "indexed": true,
          "internalType": "address",
          "name": "account",
          "type": "address"
        },
        {
          "indexed": true,
          "internalType": "address",
          "name": "sender",
          "type": "address"
        }
      ],
      "name": "RoleGranted",
      "type": "event"
    },
    {
      "anonymous": false,
      "inputs": [
        {
          "indexed": true,
          "internalType": "bytes32",
          "name": "role",
          "type": "bytes32"
        },
        {
          "indexed": true,
          "internalType": "address",
          "name": "account",
          "type": "address"
        },
        {
          "indexed": true,
          "internalType": "address",
          "name": "sender",
          "type": "address"
        }
      ],
      "name": "RoleRevoked",
      "type": "event"
    },
    {
      "anonymous": false,
      "inputs": [
        {
          "indexed": true,
          "internalType": "address",
          "name": "implementation",
          "type": "address"
        }
      ],
      "name": "Upgraded",
      "type": "event"
    },
    {
      "inputs": [],
      "name": "DEFAULT_ADMIN_ROLE",
      "outputs": [
        {
          "internalType": "bytes32",
          "name": "",
          "type": "bytes32"
        }
      ],
      "stateMutability": "view",
      "type": "function"
    },
    {
      "inputs": [],
      "name": "POOL_MANAGER",
      "outputs": [
        {
          "internalType": "bytes32",
          "name": "",
          "type": "bytes32"
        }
      ],
      "stateMutability": "view",
      "type": "function"
    },
    {
      "inputs": [],
      "name": "TX_RELAYER",
      "outputs": [
        {
          "internalType": "bytes32",
          "name": "",
          "type": "bytes32"
        }
      ],
      "stateMutability": "view",
      "type": "function"
    },
    {
      "inputs": [],
      "name": "UPGRADE_INTERFACE_VERSION",
      "outputs": [
        {
          "internalType": "string",
          "name": "",
          "type": "string"
        }
      ],
      "stateMutability": "view",
      "type": "function"
    },
    {
      "inputs": [
        {
          "internalType": "address",
          "name": "to",
          "type": "address"
        },
        {
          "internalType": "uint256",
          "name": "quantity",
          "type": "uint256"
        }
      ],
      "name": "claimReserve",
      "outputs": [
        {
          "internalType": "bool",
          "name": "success",
          "type": "bool"
        }
      ],
      "stateMutability": "nonpayable",
      "type": "function"
    },
    {
      "inputs": [],
      "name": "claimableInterval",
      "outputs": [
        {
          "internalType": "uint256",
          "name": "",
          "type": "uint256"
        }
      ],
      "stateMutability": "view",
      "type": "function"
    },
    {
      "inputs": [],
      "name": "claimableQuantity",
      "outputs": [
        {
          "internalType": "uint256",
          "name": "",
          "type": "uint256"
        }
      ],
      "stateMutability": "view",
      "type": "function"
    },
    {
      "inputs": [
        {
          "internalType": "address",
          "name": "",
          "type": "address"
        }
      ],
      "name": "claimedBlock",
      "outputs": [
        {
          "internalType": "uint256",
          "name": "",
          "type": "uint256"
        }
      ],
      "stateMutability": "view",
      "type": "function"
    },
    {
      "inputs": [
        {
          "internalType": "bytes32",
          "name": "role",
          "type": "bytes32"
        }
      ],
      "name": "getRoleAdmin",
      "outputs": [
        {
          "internalType": "bytes32",
          "name": "",
          "type": "bytes32"
        }
      ],
      "stateMutability": "view",
      "type": "function"
    },
    {
      "inputs": [
        {
          "internalType": "bytes32",
          "name": "role",
          "type": "bytes32"
        },
        {
          "internalType": "address",
          "name": "account",
          "type": "address"
        }
      ],
      "name": "grantRole",
      "outputs": [],
      "stateMutability": "nonpayable",
      "type": "function"
    },
    {
      "inputs": [
        {
          "internalType": "bytes32",
          "name": "role",
          "type": "bytes32"
        },
        {
          "internalType": "address",
          "name": "account",
          "type": "address"
        }
      ],
      "name": "hasRole",
      "outputs": [
        {
          "internalType": "bool",
          "name": "",
          "type": "bool"
        }
      ],
      "stateMutability": "view",
      "type": "function"
    },
    {
      "inputs": [
        {
          "internalType": "address",
          "name": "owner",
          "type": "address"
        }
      ],
      "name": "initialize",
      "outputs": [],
      "stateMutability": "nonpayable",
      "type": "function"
    },
    {
      "inputs": [],
      "name": "intervalPassed",
      "outputs": [
        {
          "internalType": "bool",
          "name": "",
          "type": "bool"
        }
      ],
      "stateMutability": "view",
      "type": "function"
    },
    {
      "inputs": [],
      "name": "proxiableUUID",
      "outputs": [
        {
          "internalType": "bytes32",
          "name": "",
          "type": "bytes32"
        }
      ],
      "stateMutability": "view",
      "type": "function"
    },
    {
      "inputs": [
        {
          "internalType": "bytes32",
          "name": "role",
          "type": "bytes32"
        },
        {
          "internalType": "address",
          "name": "callerConfirmation",
          "type": "address"
        }
      ],
      "name": "renounceRole",
      "outputs": [],
      "stateMutability": "nonpayable",
      "type": "function"
    },
    {
      "inputs": [
        {
          "internalType": "bytes32",
          "name": "role",
          "type": "bytes32"
        },
        {
          "internalType": "address",
          "name": "account",
          "type": "address"
        }
      ],
      "name": "revokeRole",
      "outputs": [],
      "stateMutability": "nonpayable",
      "type": "function"
    },
    {
      "inputs": [
        {
          "internalType": "uint256",
          "name": "interval",
          "type": "uint256"
        }
      ],
      "name": "setClaimableInterval",
      "outputs": [],
      "stateMutability": "nonpayable",
      "type": "function"
    },
    {
      "inputs": [
        {
          "internalType": "uint256",
          "name": "quantity",
          "type": "uint256"
        }
      ],
      "name": "setClaimableQuantity",
      "outputs": [],
      "stateMutability": "nonpayable",
      "type": "function"
    },
    {
      "inputs": [
        {
          "internalType": "bytes4",
          "name": "interfaceId",
          "type": "bytes4"
        }
      ],
      "name": "supportsInterface",
      "outputs": [
        {
          "internalType": "bool",
          "name": "",
          "type": "bool"
        }
      ],
      "stateMutability": "view",
      "type": "function"
    },
    {
      "inputs": [
        {
          "internalType": "address",
          "name": "newImplementation",
          "type": "address"
        },
        {
          "internalType": "bytes",
          "name": "data",
          "type": "bytes"
        }
      ],
      "name": "upgradeToAndCall",
      "outputs": [],
      "stateMutability": "payable",
      "type": "function"
    },
    {
      "stateMutability": "payable",
      "type": "receive"
    }
  ],
  "bytecode": "0x60a06040523073ffffffffffffffffffffffffffffffffffffffff1660809073ffffffffffffffffffffffffffffffffffffffff168152503480156200004457600080fd5b50620000556200005b60201b60201c565b620001cf565b60006200006d6200016560201b60201c565b90508060000160089054906101000a900460ff1615620000b9576040517ff92ee8a900000000000000000000000000000000000000000000000000000000815260040160405180910390fd5b67ffffffffffffffff80168160000160009054906101000a900467ffffffffffffffff1667ffffffffffffffff1614620001625767ffffffffffffffff8160000160006101000a81548167ffffffffffffffff021916908367ffffffffffffffff1602179055507fc7f505b2f371ae2175ee4913f4499e1f2633a7b5936321eed1cdaeb6115181d267ffffffffffffffff604051620001599190620001b2565b60405180910390a15b50565b60007ff0c57e16840df040f15088dc2f81fe391c3923bec73e23a9662efc9c229c6a00905090565b600067ffffffffffffffff82169050919050565b620001ac816200018d565b82525050565b6000602082019050620001c96000830184620001a1565b92915050565b608051611f53620001f960003960008181610fbe0152818161101301526111d40152611f536000f3fe6080604052600436106101235760003560e01c80637bbf1033116100a0578063a217fddf11610064578063a217fddf146103f9578063ad3cb1cc14610424578063bd252f431461044f578063c4d66de814610478578063d547741f146104a15761012a565b80637bbf1033146103005780638316121c1461032b5780638893882e1461036857806391d148541461039357806398b55da7146103d05761012a565b806336568abe116100e757806336568abe1461023a5780634f1ef2861461026357806352d1902d1461027f5780635acafaf0146102aa57806362308e85146102d55761012a565b806301ffc9a71461012f57806309e62b911461016c578063248a9ca3146101a957806325d91df4146101e65780632f2ff15d146102115761012a565b3661012a57005b600080fd5b34801561013b57600080fd5b5061015660048036038101906101519190611674565b6104ca565b60405161016391906116bc565b60405180910390f35b34801561017857600080fd5b50610193600480360381019061018e919061176b565b610544565b6040516101a091906116bc565b60405180910390f35b3480156101b557600080fd5b506101d060048036038101906101cb91906117e1565b6107e1565b6040516101dd919061181d565b60405180910390f35b3480156101f257600080fd5b506101fb61080f565b604051610208919061181d565b60405180910390f35b34801561021d57600080fd5b5061023860048036038101906102339190611838565b610833565b005b34801561024657600080fd5b50610261600480360381019061025c9190611838565b610855565b005b61027d600480360381019061027891906119be565b6108d0565b005b34801561028b57600080fd5b506102946108ef565b6040516102a1919061181d565b60405180910390f35b3480156102b657600080fd5b506102bf610922565b6040516102cc9190611a29565b60405180910390f35b3480156102e157600080fd5b506102ea610928565b6040516102f7919061181d565b60405180910390f35b34801561030c57600080fd5b5061031561094c565b60405161032291906116bc565b60405180910390f35b34801561033757600080fd5b50610352600480360381019061034d9190611a44565b6109a2565b60405161035f9190611a29565b60405180910390f35b34801561037457600080fd5b5061037d6109ba565b60405161038a9190611a29565b60405180910390f35b34801561039f57600080fd5b506103ba60048036038101906103b59190611838565b6109c0565b6040516103c791906116bc565b60405180910390f35b3480156103dc57600080fd5b506103f760048036038101906103f29190611a71565b610a39565b005b34801561040557600080fd5b5061040e610aa7565b60405161041b919061181d565b60405180910390f35b34801561043057600080fd5b50610439610aae565b6040516104469190611b1d565b60405180910390f35b34801561045b57600080fd5b5061047660048036038101906104719190611a71565b610ae7565b005b34801561048457600080fd5b5061049f600480360381019061049a9190611a44565b610b55565b005b3480156104ad57600080fd5b506104c860048036038101906104c39190611838565b610ce9565b005b60007f7965db0b000000000000000000000000000000000000000000000000000000007bffffffffffffffffffffffffffffffffffffffffffffffffffffffff1916827bffffffffffffffffffffffffffffffffffffffffffffffffffffffff1916148061053d575061053c82610d0b565b5b9050919050565b60007f5c9f8a1f8085e87c1cd1dbd0fc499f4b22698a6dfb10c34aec0aa3e50fe0d6ff61057081610d75565b600073ffffffffffffffffffffffffffffffffffffffff168473ffffffffffffffffffffffffffffffffffffffff16036105df576040517f08c379a00000000000000000000000000000000000000000000000000000000081526004016105d690611b8b565b60405180910390fd5b600154831115610624576040517f08c379a000000000000000000000000000000000000000000000000000000000815260040161061b90611bf7565b60405180910390fd5b436002546000803373ffffffffffffffffffffffffffffffffffffffff1673ffffffffffffffffffffffffffffffffffffffff168152602001908152602001600020546106719190611c46565b11156106b2576040517f08c379a00000000000000000000000000000000000000000000000000000000081526004016106a990611cc6565b60405180910390fd5b436000803373ffffffffffffffffffffffffffffffffffffffff1673ffffffffffffffffffffffffffffffffffffffff168152602001908152602001600020819055508373ffffffffffffffffffffffffffffffffffffffff168360405161071990611d17565b60006040518083038185875af1925050503d8060008114610756576040519150601f19603f3d011682016040523d82523d6000602084013e61075b565b606091505b505080925050816107a1576040517f08c379a000000000000000000000000000000000000000000000000000000000815260040161079890611d78565b60405180910390fd5b7fb17956903b0eeaf0b3d7594ff05a22faab59523d7c39363c95ca9dab6b249da484846040516107d2929190611da7565b60405180910390a15092915050565b6000806107ec610d89565b905080600001600084815260200190815260200160002060010154915050919050565b7f5c9f8a1f8085e87c1cd1dbd0fc499f4b22698a6dfb10c34aec0aa3e50fe0d6ff81565b61083c826107e1565b61084581610d75565b61084f8383610db1565b50505050565b61085d610eb2565b73ffffffffffffffffffffffffffffffffffffffff168173ffffffffffffffffffffffffffffffffffffffff16146108c1576040517f6697b23200000000000000000000000000000000000000000000000000000000815260040160405180910390fd5b6108cb8282610eba565b505050565b6108d8610fbc565b6108e1826110a2565b6108eb82826110b3565b5050565b60006108f96111d2565b7f360894a13ba1a3210667c828492db98dca3e2076cc3735a920a3ca505d382bbc60001b905090565b60025481565b7f41a01ec0a13b563fa452569e3fbb116366d217c2769aa1561822e65a617e384281565b6000436002546000803373ffffffffffffffffffffffffffffffffffffffff1673ffffffffffffffffffffffffffffffffffffffff1681526020019081526020016000205461099b9190611c46565b1115905090565b60006020528060005260406000206000915090505481565b60015481565b6000806109cb610d89565b905080600001600085815260200190815260200160002060000160008473ffffffffffffffffffffffffffffffffffffffff1673ffffffffffffffffffffffffffffffffffffffff16815260200190815260200160002060009054906101000a900460ff1691505092915050565b7f41a01ec0a13b563fa452569e3fbb116366d217c2769aa1561822e65a617e3842610a6381610d75565b816001819055507f866bae4d01574028072d315164f653fd49a680ba70a6ed2a0884cc0502a587493383604051610a9b929190611da7565b60405180910390a15050565b6000801b81565b6040518060400160405280600581526020017f352e302e3000000000000000000000000000000000000000000000000000000081525081565b7f41a01ec0a13b563fa452569e3fbb116366d217c2769aa1561822e65a617e3842610b1181610d75565b816002819055507f97f39a78022b0b86639c41587617facc6cdc303318d399c4924e779387db10d03383604051610b49929190611da7565b60405180910390a15050565b6000610b5f611259565b905060008160000160089054906101000a900460ff1615905060008260000160009054906101000a900467ffffffffffffffff1690506000808267ffffffffffffffff16148015610bad5750825b9050600060018367ffffffffffffffff16148015610be2575060003073ffffffffffffffffffffffffffffffffffffffff163b145b905081158015610bf0575080155b15610c27576040517ff92ee8a900000000000000000000000000000000000000000000000000000000815260040160405180910390fd5b60018560000160006101000a81548167ffffffffffffffff021916908367ffffffffffffffff1602179055508315610c775760018560000160086101000a81548160ff0219169083151502179055505b610c846000801b87610db1565b508315610ce15760008560000160086101000a81548160ff0219169083151502179055507fc7f505b2f371ae2175ee4913f4499e1f2633a7b5936321eed1cdaeb6115181d26001604051610cd89190611e29565b60405180910390a15b505050505050565b610cf2826107e1565b610cfb81610d75565b610d058383610eba565b50505050565b60007f01ffc9a7000000000000000000000000000000000000000000000000000000007bffffffffffffffffffffffffffffffffffffffffffffffffffffffff1916827bffffffffffffffffffffffffffffffffffffffffffffffffffffffff1916149050919050565b610d8681610d81610eb2565b611281565b50565b60007f02dd7bc7dec4dceedda775e58dd541e08a116c6c53815c0bd028192f7b626800905090565b600080610dbc610d89565b9050610dc884846109c0565b610ea657600181600001600086815260200190815260200160002060000160008573ffffffffffffffffffffffffffffffffffffffff1673ffffffffffffffffffffffffffffffffffffffff16815260200190815260200160002060006101000a81548160ff021916908315150217905550610e42610eb2565b73ffffffffffffffffffffffffffffffffffffffff168373ffffffffffffffffffffffffffffffffffffffff16857f2f8788117e7eff1d82e926ec794901d17c78024a50270940304540a733656f0d60405160405180910390a46001915050610eac565b60009150505b92915050565b600033905090565b600080610ec5610d89565b9050610ed184846109c0565b15610fb057600081600001600086815260200190815260200160002060000160008573ffffffffffffffffffffffffffffffffffffffff1673ffffffffffffffffffffffffffffffffffffffff16815260200190815260200160002060006101000a81548160ff021916908315150217905550610f4c610eb2565b73ffffffffffffffffffffffffffffffffffffffff168373ffffffffffffffffffffffffffffffffffffffff16857ff6391f5c32d9c69d2a47ea670b442974b53935d1edc7fd64eb21e047a839171b60405160405180910390a46001915050610fb6565b60009150505b92915050565b7f000000000000000000000000000000000000000000000000000000000000000073ffffffffffffffffffffffffffffffffffffffff163073ffffffffffffffffffffffffffffffffffffffff16148061106957507f000000000000000000000000000000000000000000000000000000000000000073ffffffffffffffffffffffffffffffffffffffff166110506112d2565b73ffffffffffffffffffffffffffffffffffffffff1614155b156110a0576040517fe07c8dba00000000000000000000000000000000000000000000000000000000815260040160405180910390fd5b565b6000801b6110af81610d75565b5050565b8173ffffffffffffffffffffffffffffffffffffffff166352d1902d6040518163ffffffff1660e01b8152600401602060405180830381865afa92505050801561111b57506040513d601f19601f820116820180604052508101906111189190611e59565b60015b61115c57816040517f4c9c8ce30000000000000000000000000000000000000000000000000000000081526004016111539190611e86565b60405180910390fd5b7f360894a13ba1a3210667c828492db98dca3e2076cc3735a920a3ca505d382bbc60001b81146111c357806040517faa1d49a40000000000000000000000000000000000000000000000000000000081526004016111ba919061181d565b60405180910390fd5b6111cd8383611329565b505050565b7f000000000000000000000000000000000000000000000000000000000000000073ffffffffffffffffffffffffffffffffffffffff163073ffffffffffffffffffffffffffffffffffffffff1614611257576040517fe07c8dba00000000000000000000000000000000000000000000000000000000815260040160405180910390fd5b565b60007ff0c57e16840df040f15088dc2f81fe391c3923bec73e23a9662efc9c229c6a00905090565b61128b82826109c0565b6112ce5780826040517fe2517d3f0000000000000000000000000000000000000000000000000000000081526004016112c5929190611ea1565b60405180910390fd5b5050565b60006113007f360894a13ba1a3210667c828492db98dca3e2076cc3735a920a3ca505d382bbc60001b61139c565b60000160009054906101000a900473ffffffffffffffffffffffffffffffffffffffff16905090565b611332826113a6565b8173ffffffffffffffffffffffffffffffffffffffff167fbc7cd75a20ee27fd9adebab32041f755214dbc6bffa90cc0225b39da2e5c2d3b60405160405180910390a260008151111561138f576113898282611473565b50611398565b6113976114f7565b5b5050565b6000819050919050565b60008173ffffffffffffffffffffffffffffffffffffffff163b0361140257806040517f4c9c8ce30000000000000000000000000000000000000000000000000000000081526004016113f99190611e86565b60405180910390fd5b8061142f7f360894a13ba1a3210667c828492db98dca3e2076cc3735a920a3ca505d382bbc60001b61139c565b60000160006101000a81548173ffffffffffffffffffffffffffffffffffffffff021916908373ffffffffffffffffffffffffffffffffffffffff16021790555050565b60606000808473ffffffffffffffffffffffffffffffffffffffff168460405161149d9190611f06565b600060405180830381855af49150503d80600081146114d8576040519150601f19603f3d011682016040523d82523d6000602084013e6114dd565b606091505b50915091506114ed858383611534565b9250505092915050565b6000341115611532576040517fb398979f00000000000000000000000000000000000000000000000000000000815260040160405180910390fd5b565b60608261154957611544826115c3565b6115bb565b60008251148015611571575060008473ffffffffffffffffffffffffffffffffffffffff163b145b156115b357836040517f9996b3150000000000000000000000000000000000000000000000000000000081526004016115aa9190611e86565b60405180910390fd5b8190506115bc565b5b9392505050565b6000815111156115d65780518082602001fd5b6040517f1425ea4200000000000000000000000000000000000000000000000000000000815260040160405180910390fd5b6000604051905090565b600080fd5b600080fd5b60007fffffffff0000000000000000000000000000000000000000000000000000000082169050919050565b6116518161161c565b811461165c57600080fd5b50565b60008135905061166e81611648565b92915050565b60006020828403121561168a57611689611612565b5b60006116988482850161165f565b91505092915050565b60008115159050919050565b6116b6816116a1565b82525050565b60006020820190506116d160008301846116ad565b92915050565b600073ffffffffffffffffffffffffffffffffffffffff82169050919050565b6000611702826116d7565b9050919050565b611712816116f7565b811461171d57600080fd5b50565b60008135905061172f81611709565b92915050565b6000819050919050565b61174881611735565b811461175357600080fd5b50565b6000813590506117658161173f565b92915050565b6000806040838503121561178257611781611612565b5b600061179085828601611720565b92505060206117a185828601611756565b9150509250929050565b6000819050919050565b6117be816117ab565b81146117c957600080fd5b50565b6000813590506117db816117b5565b92915050565b6000602082840312156117f7576117f6611612565b5b6000611805848285016117cc565b91505092915050565b611817816117ab565b82525050565b6000602082019050611832600083018461180e565b92915050565b6000806040838503121561184f5761184e611612565b5b600061185d858286016117cc565b925050602061186e85828601611720565b9150509250929050565b600080fd5b600080fd5b6000601f19601f8301169050919050565b7f4e487b7100000000000000000000000000000000000000000000000000000000600052604160045260246000fd5b6118cb82611882565b810181811067ffffffffffffffff821117156118ea576118e9611893565b5b80604052505050565b60006118fd611608565b905061190982826118c2565b919050565b600067ffffffffffffffff82111561192957611928611893565b5b61193282611882565b9050602081019050919050565b82818337600083830152505050565b600061196161195c8461190e565b6118f3565b90508281526020810184848401111561197d5761197c61187d565b5b61198884828561193f565b509392505050565b600082601f8301126119a5576119a4611878565b5b81356119b584826020860161194e565b91505092915050565b600080604083850312156119d5576119d4611612565b5b60006119e385828601611720565b925050602083013567ffffffffffffffff811115611a0457611a03611617565b5b611a1085828601611990565b9150509250929050565b611a2381611735565b82525050565b6000602082019050611a3e6000830184611a1a565b92915050565b600060208284031215611a5a57611a59611612565b5b6000611a6884828501611720565b91505092915050565b600060208284031215611a8757611a86611612565b5b6000611a9584828501611756565b91505092915050565b600081519050919050565b600082825260208201905092915050565b60005b83811015611ad8578082015181840152602081019050611abd565b60008484015250505050565b6000611aef82611a9e565b611af98185611aa9565b9350611b09818560208601611aba565b611b1281611882565b840191505092915050565b60006020820190508181036000830152611b378184611ae4565b905092915050565b7f5a65726f4164647265737320697320676976656e000000000000000000000000600082015250565b6000611b75601483611aa9565b9150611b8082611b3f565b602082019050919050565b60006020820190508181036000830152611ba481611b68565b9050919050565b7f546f6f206d75636820636c61696d000000000000000000000000000000000000600082015250565b6000611be1600e83611aa9565b9150611bec82611bab565b602082019050919050565b60006020820190508181036000830152611c1081611bd4565b9050919050565b7f4e487b7100000000000000000000000000000000000000000000000000000000600052601160045260246000fd5b6000611c5182611735565b9150611c5c83611735565b9250828201905080821115611c7457611c73611c17565b5b92915050565b7f546f6f206d616e7920636c61696d000000000000000000000000000000000000600082015250565b6000611cb0600e83611aa9565b9150611cbb82611c7a565b602082019050919050565b60006020820190508181036000830152611cdf81611ca3565b9050919050565b600081905092915050565b50565b6000611d01600083611ce6565b9150611d0c82611cf1565b600082019050919050565b6000611d2282611cf4565b9150819050919050565b7f4661696c656420746f207472616e736665720000000000000000000000000000600082015250565b6000611d62601283611aa9565b9150611d6d82611d2c565b602082019050919050565b60006020820190508181036000830152611d9181611d55565b9050919050565b611da1816116f7565b82525050565b6000604082019050611dbc6000830185611d98565b611dc96020830184611a1a565b9392505050565b6000819050919050565b600067ffffffffffffffff82169050919050565b6000819050919050565b6000611e13611e0e611e0984611dd0565b611dee565b611dda565b9050919050565b611e2381611df8565b82525050565b6000602082019050611e3e6000830184611e1a565b92915050565b600081519050611e53816117b5565b92915050565b600060208284031215611e6f57611e6e611612565b5b6000611e7d84828501611e44565b91505092915050565b6000602082019050611e9b6000830184611d98565b92915050565b6000604082019050611eb66000830185611d98565b611ec3602083018461180e565b9392505050565b600081519050919050565b6000611ee082611eca565b611eea8185611ce6565b9350611efa818560208601611aba565b80840191505092915050565b6000611f128284611ed5565b91508190509291505056fea26469706673582212209f6f682492234dd9bbc53e0db20b57302a1e21da009cd8b32863c85b0413c79a64736f6c63430008140033",
  "linkReferences": {},
  "deployedLinkReferences": {}
}