{
  "_format": "hh-sol-artifact-1",
  "contractName": "MockSwap",
  "sourceName": "contracts/Mock/mockSwap.sol",
  "abi": [
    {
      "inputs": [],
      "stateMutability": "nonpayable",
      "type": "constructor"
    },
    {
      "inputs": [
        {
          "internalType": "address",
          "name": "target",
          "type": "address"
        }
      ],
      "name": "AddressEmptyCode",
      "type": "error"
    },
    {
      "inputs": [
        {
          "internalType": "address",
          "name": "implementation",
          "type": "address"
        }
      ],
      "name": "ERC1967InvalidImplementation",
      "type": "error"
    },
    {
      "inputs": [],
      "name": "ERC1967NonPayable",
      "type": "error"
    },
    {
      "inputs": [],
      "name": "FailedInnerCall",
      "type": "error"
    },
    {
      "inputs": [],
      "name": "InvalidInitialization",
      "type": "error"
    },
    {
      "inputs": [],
      "name": "NotInitializing",
      "type": "error"
    },
    {
      "inputs": [],
      "name": "UUPSUnauthorizedCallContext",
      "type": "error"
    },
    {
      "inputs": [
        {
          "internalType": "bytes32",
          "name": "slot",
          "type": "bytes32"
        }
      ],
      "name": "UUPSUnsupportedProxiableUUID",
      "type": "error"
    },
    {
      "anonymous": false,
      "inputs": [
        {
          "indexed": false,
          "internalType": "uint64",
          "name": "version",
          "type": "uint64"
        }
      ],
      "name": "Initialized",
      "type": "event"
    },
    {
      "anonymous": false,
      "inputs": [
        {
          "indexed": true,
          "internalType": "address",
          "name": "implementation",
          "type": "address"
        }
      ],
      "name": "Upgraded",
      "type": "event"
    },
    {
      "inputs": [],
      "name": "UPGRADE_INTERFACE_VERSION",
      "outputs": [
        {
          "internalType": "string",
          "name": "",
          "type": "string"
        }
      ],
      "stateMutability": "view",
      "type": "function"
    },
    {
      "inputs": [
        {
          "internalType": "address",
          "name": "fromAsset",
          "type": "address"
        },
        {
          "internalType": "address",
          "name": "toAsset",
          "type": "address"
        },
        {
          "internalType": "uint256",
          "name": "quantity",
          "type": "uint256"
        },
        {
          "internalType": "address",
          "name": "recipient",
          "type": "address"
        }
      ],
      "name": "fixedRatioSwap",
      "outputs": [
        {
          "internalType": "uint256",
          "name": "output",
          "type": "uint256"
        }
      ],
      "stateMutability": "payable",
      "type": "function"
    },
    {
      "inputs": [
        {
          "internalType": "address",
          "name": "oracle_",
          "type": "address"
        }
      ],
      "name": "initialize",
      "outputs": [],
      "stateMutability": "nonpayable",
      "type": "function"
    },
    {
      "inputs": [],
      "name": "oracle",
      "outputs": [
        {
          "internalType": "address",
          "name": "",
          "type": "address"
        }
      ],
      "stateMutability": "view",
      "type": "function"
    },
    {
      "inputs": [
        {
          "internalType": "address",
          "name": "fromAsset",
          "type": "address"
        },
        {
          "internalType": "address",
          "name": "toAsset",
          "type": "address"
        },
        {
          "internalType": "uint256",
          "name": "quantity",
          "type": "uint256"
        },
        {
          "internalType": "address",
          "name": "recipient",
          "type": "address"
        }
      ],
      "name": "oracleBasedSwap",
      "outputs": [
        {
          "internalType": "uint256",
          "name": "output",
          "type": "uint256"
        }
      ],
      "stateMutability": "payable",
      "type": "function"
    },
    {
      "inputs": [
        {
          "internalType": "address",
          "name": "",
          "type": "address"
        },
        {
          "internalType": "address",
          "name": "",
          "type": "address"
        }
      ],
      "name": "prices",
      "outputs": [
        {
          "internalType": "uint256",
          "name": "",
          "type": "uint256"
        }
      ],
      "stateMutability": "view",
      "type": "function"
    },
    {
      "inputs": [],
      "name": "proxiableUUID",
      "outputs": [
        {
          "internalType": "bytes32",
          "name": "",
          "type": "bytes32"
        }
      ],
      "stateMutability": "view",
      "type": "function"
    },
    {
      "inputs": [
        {
          "internalType": "address",
          "name": "baseCurrency",
          "type": "address"
        },
        {
          "internalType": "address",
          "name": "quoteCurrency",
          "type": "address"
        },
        {
          "internalType": "uint256",
          "name": "price",
          "type": "uint256"
        }
      ],
      "name": "setSwapRatio",
      "outputs": [],
      "stateMutability": "nonpayable",
      "type": "function"
    },
    {
      "inputs": [
        {
          "internalType": "address",
          "name": "newImplementation",
          "type": "address"
        },
        {
          "internalType": "bytes",
          "name": "data",
          "type": "bytes"
        }
      ],
      "name": "upgradeToAndCall",
      "outputs": [],
      "stateMutability": "payable",
      "type": "function"
    }
  ],
  "bytecode": "0x60a06040523073ffffffffffffffffffffffffffffffffffffffff1660809073ffffffffffffffffffffffffffffffffffffffff168152503480156200004457600080fd5b50620000556200005b60201b60201c565b620001cf565b60006200006d6200016560201b60201c565b90508060000160089054906101000a900460ff1615620000b9576040517ff92ee8a900000000000000000000000000000000000000000000000000000000815260040160405180910390fd5b67ffffffffffffffff80168160000160009054906101000a900467ffffffffffffffff1667ffffffffffffffff1614620001625767ffffffffffffffff8160000160006101000a81548167ffffffffffffffff021916908367ffffffffffffffff1602179055507fc7f505b2f371ae2175ee4913f4499e1f2633a7b5936321eed1cdaeb6115181d267ffffffffffffffff604051620001599190620001b2565b60405180910390a15b50565b60007ff0c57e16840df040f15088dc2f81fe391c3923bec73e23a9662efc9c229c6a00905090565b600067ffffffffffffffff82169050919050565b620001ac816200018d565b82525050565b6000602082019050620001c96000830184620001a1565b92915050565b60805161216c620001f960003960008181610fe40152818161103901526111ec015261216c6000f3fe6080604052600436106100865760003560e01c80637dc0d1d0116100595780637dc0d1d0146101385780638848737e146101635780638d1903c414610193578063ad3cb1cc146101c3578063c4d66de8146101ee57610086565b80631f3124041461008b5780634f1ef286146100c857806352d1902d146100e4578063563e95d31461010f575b600080fd5b34801561009757600080fd5b506100b260048036038101906100ad9190611641565b610217565b6040516100bf919061169a565b60405180910390f35b6100e260048036038101906100dd91906117fb565b61023c565b005b3480156100f057600080fd5b506100f961025b565b6040516101069190611870565b60405180910390f35b34801561011b57600080fd5b50610136600480360381019061013191906118b7565b61028e565b005b34801561014457600080fd5b5061014d61041d565b60405161015a9190611919565b60405180910390f35b61017d60048036038101906101789190611934565b610441565b60405161018a919061169a565b60405180910390f35b6101ad60048036038101906101a89190611934565b610895565b6040516101ba919061169a565b60405180910390f35b3480156101cf57600080fd5b506101d8610de3565b6040516101e59190611a1a565b60405180910390f35b3480156101fa57600080fd5b5061021560048036038101906102109190611a3c565b610e1c565b005b6001602052816000526040600020602052806000526040600020600091509150505481565b610244610fe2565b61024d826110c8565b61025782826110cb565b5050565b60006102656111ea565b7f360894a13ba1a3210667c828492db98dca3e2076cc3735a920a3ca505d382bbc60001b905090565b8173ffffffffffffffffffffffffffffffffffffffff168373ffffffffffffffffffffffffffffffffffffffff16036102fc576040517f08c379a00000000000000000000000000000000000000000000000000000000081526004016102f390611ab5565b60405180910390fd5b806ec097ce7bc90715b34b9f10000000006103179190611b33565b600160008573ffffffffffffffffffffffffffffffffffffffff1673ffffffffffffffffffffffffffffffffffffffff16815260200190815260200160002060008473ffffffffffffffffffffffffffffffffffffffff1673ffffffffffffffffffffffffffffffffffffffff1681526020019081526020016000208190555080600160008473ffffffffffffffffffffffffffffffffffffffff1673ffffffffffffffffffffffffffffffffffffffff16815260200190815260200160002060008573ffffffffffffffffffffffffffffffffffffffff1673ffffffffffffffffffffffffffffffffffffffff16815260200190815260200160002081905550505050565b60008054906101000a900473ffffffffffffffffffffffffffffffffffffffff1681565b600080600160008673ffffffffffffffffffffffffffffffffffffffff1673ffffffffffffffffffffffffffffffffffffffff16815260200190815260200160002060008773ffffffffffffffffffffffffffffffffffffffff1673ffffffffffffffffffffffffffffffffffffffff1681526020019081526020016000205411610501576040517f08c379a00000000000000000000000000000000000000000000000000000000081526004016104f890611bb0565b60405180910390fd5b600073ffffffffffffffffffffffffffffffffffffffff168573ffffffffffffffffffffffffffffffffffffffff16036105465734831461054157600080fd5b6105c8565b8473ffffffffffffffffffffffffffffffffffffffff166323b872dd3330866040518463ffffffff1660e01b815260040161058393929190611bd0565b6020604051808303816000875af11580156105a2573d6000803e3d6000fd5b505050506040513d601f19601f820116820180604052508101906105c69190611c3f565b505b670de0b6b3a764000083600160008773ffffffffffffffffffffffffffffffffffffffff1673ffffffffffffffffffffffffffffffffffffffff16815260200190815260200160002060008873ffffffffffffffffffffffffffffffffffffffff1673ffffffffffffffffffffffffffffffffffffffff168152602001908152602001600020546106599190611c6c565b6106639190611b33565b905060008473ffffffffffffffffffffffffffffffffffffffff166370a08231306040518263ffffffff1660e01b81526004016106a09190611919565b602060405180830381865afa1580156106bd573d6000803e3d6000fd5b505050506040513d601f19601f820116820180604052508101906106e19190611cc3565b905080821115610764578473ffffffffffffffffffffffffffffffffffffffff166340c10f193083856107149190611cf0565b6040518363ffffffff1660e01b8152600401610731929190611d24565b600060405180830381600087803b15801561074b57600080fd5b505af115801561075f573d6000803e3d6000fd5b505050505b60008073ffffffffffffffffffffffffffffffffffffffff168673ffffffffffffffffffffffffffffffffffffffff160361080a578373ffffffffffffffffffffffffffffffffffffffff16836040516107bd90611d7e565b60006040518083038185875af1925050503d80600081146107fa576040519150601f19603f3d011682016040523d82523d6000602084013e6107ff565b606091505b50508091505061088b565b8573ffffffffffffffffffffffffffffffffffffffff1663a9059cbb85856040518363ffffffff1660e01b8152600401610845929190611d24565b6020604051808303816000875af1158015610864573d6000803e3d6000fd5b505050506040513d601f19601f820116820180604052508101906108889190611c3f565b90505b5050949350505050565b600080600267ffffffffffffffff8111156108b3576108b26116d0565b5b6040519080825280602002602001820160405280156108e15781602001602082028036833780820191505090505b509050856040516020016108f59190611ddb565b604051602081830303815290604052805190602001208160008151811061091f5761091e611df6565b5b6020026020010181815250508460405160200161093c9190611ddb565b604051602081830303815290604052805190602001208160018151811061096657610965611df6565b5b60200260200101818152505060008060009054906101000a900473ffffffffffffffffffffffffffffffffffffffff1673ffffffffffffffffffffffffffffffffffffffff166326ee4836836040518263ffffffff1660e01b81526004016109ce9190611ee3565b600060405180830381865afa1580156109eb573d6000803e3d6000fd5b505050506040513d6000823e3d601f19601f82011682018060405250810190610a149190611fcd565b9050600081600081518110610a2c57610a2b611df6565b5b6020026020010151118015610a5c5750600081600181518110610a5257610a51611df6565b5b6020026020010151115b610a9b576040517f08c379a0000000000000000000000000000000000000000000000000000000008152600401610a9290611bb0565b60405180910390fd5b600073ffffffffffffffffffffffffffffffffffffffff168773ffffffffffffffffffffffffffffffffffffffff1603610ae057348514610adb57600080fd5b610b62565b8673ffffffffffffffffffffffffffffffffffffffff166323b872dd3330886040518463ffffffff1660e01b8152600401610b1d93929190611bd0565b6020604051808303816000875af1158015610b3c573d6000803e3d6000fd5b505050506040513d601f19601f82011682018060405250810190610b609190611c3f565b505b80600181518110610b7657610b75611df6565b5b60200260200101518582600081518110610b9357610b92611df6565b5b6020026020010151610ba59190611c6c565b610baf9190611b33565b925060008673ffffffffffffffffffffffffffffffffffffffff166370a08231306040518263ffffffff1660e01b8152600401610bec9190611919565b602060405180830381865afa158015610c09573d6000803e3d6000fd5b505050506040513d601f19601f82011682018060405250810190610c2d9190611cc3565b905080841115610cb0578673ffffffffffffffffffffffffffffffffffffffff166340c10f19308387610c609190611cf0565b6040518363ffffffff1660e01b8152600401610c7d929190611d24565b600060405180830381600087803b158015610c9757600080fd5b505af1158015610cab573d6000803e3d6000fd5b505050505b60008073ffffffffffffffffffffffffffffffffffffffff168873ffffffffffffffffffffffffffffffffffffffff1603610d56578573ffffffffffffffffffffffffffffffffffffffff1685604051610d0990611d7e565b60006040518083038185875af1925050503d8060008114610d46576040519150601f19603f3d011682016040523d82523d6000602084013e610d4b565b606091505b505080915050610dd7565b8773ffffffffffffffffffffffffffffffffffffffff1663a9059cbb87876040518363ffffffff1660e01b8152600401610d91929190611d24565b6020604051808303816000875af1158015610db0573d6000803e3d6000fd5b505050506040513d601f19601f82011682018060405250810190610dd49190611c3f565b90505b50505050949350505050565b6040518060400160405280600581526020017f352e302e3000000000000000000000000000000000000000000000000000000081525081565b6000610e26611271565b905060008160000160089054906101000a900460ff1615905060008260000160009054906101000a900467ffffffffffffffff1690506000808267ffffffffffffffff16148015610e745750825b9050600060018367ffffffffffffffff16148015610ea9575060003073ffffffffffffffffffffffffffffffffffffffff163b145b905081158015610eb7575080155b15610eee576040517ff92ee8a900000000000000000000000000000000000000000000000000000000815260040160405180910390fd5b60018560000160006101000a81548167ffffffffffffffff021916908367ffffffffffffffff1602179055508315610f3e5760018560000160086101000a81548160ff0219169083151502179055505b856000806101000a81548173ffffffffffffffffffffffffffffffffffffffff021916908373ffffffffffffffffffffffffffffffffffffffff1602179055508315610fda5760008560000160086101000a81548160ff0219169083151502179055507fc7f505b2f371ae2175ee4913f4499e1f2633a7b5936321eed1cdaeb6115181d26001604051610fd1919061206f565b60405180910390a15b505050505050565b7f000000000000000000000000000000000000000000000000000000000000000073ffffffffffffffffffffffffffffffffffffffff163073ffffffffffffffffffffffffffffffffffffffff16148061108f57507f000000000000000000000000000000000000000000000000000000000000000073ffffffffffffffffffffffffffffffffffffffff16611076611299565b73ffffffffffffffffffffffffffffffffffffffff1614155b156110c6576040517fe07c8dba00000000000000000000000000000000000000000000000000000000815260040160405180910390fd5b565b50565b8173ffffffffffffffffffffffffffffffffffffffff166352d1902d6040518163ffffffff1660e01b8152600401602060405180830381865afa92505050801561113357506040513d601f19601f8201168201806040525081019061113091906120b6565b60015b61117457816040517f4c9c8ce300000000000000000000000000000000000000000000000000000000815260040161116b9190611919565b60405180910390fd5b7f360894a13ba1a3210667c828492db98dca3e2076cc3735a920a3ca505d382bbc60001b81146111db57806040517faa1d49a40000000000000000000000000000000000000000000000000000000081526004016111d29190611870565b60405180910390fd5b6111e583836112f0565b505050565b7f000000000000000000000000000000000000000000000000000000000000000073ffffffffffffffffffffffffffffffffffffffff163073ffffffffffffffffffffffffffffffffffffffff161461126f576040517fe07c8dba00000000000000000000000000000000000000000000000000000000815260040160405180910390fd5b565b60007ff0c57e16840df040f15088dc2f81fe391c3923bec73e23a9662efc9c229c6a00905090565b60006112c77f360894a13ba1a3210667c828492db98dca3e2076cc3735a920a3ca505d382bbc60001b611363565b60000160009054906101000a900473ffffffffffffffffffffffffffffffffffffffff16905090565b6112f98261136d565b8173ffffffffffffffffffffffffffffffffffffffff167fbc7cd75a20ee27fd9adebab32041f755214dbc6bffa90cc0225b39da2e5c2d3b60405160405180910390a260008151111561135657611350828261143a565b5061135f565b61135e6114be565b5b5050565b6000819050919050565b60008173ffffffffffffffffffffffffffffffffffffffff163b036113c957806040517f4c9c8ce30000000000000000000000000000000000000000000000000000000081526004016113c09190611919565b60405180910390fd5b806113f67f360894a13ba1a3210667c828492db98dca3e2076cc3735a920a3ca505d382bbc60001b611363565b60000160006101000a81548173ffffffffffffffffffffffffffffffffffffffff021916908373ffffffffffffffffffffffffffffffffffffffff16021790555050565b60606000808473ffffffffffffffffffffffffffffffffffffffff1684604051611464919061211f565b600060405180830381855af49150503d806000811461149f576040519150601f19603f3d011682016040523d82523d6000602084013e6114a4565b606091505b50915091506114b48583836114fb565b9250505092915050565b60003411156114f9576040517fb398979f00000000000000000000000000000000000000000000000000000000815260040160405180910390fd5b565b6060826115105761150b8261158a565b611582565b60008251148015611538575060008473ffffffffffffffffffffffffffffffffffffffff163b145b1561157a57836040517f9996b3150000000000000000000000000000000000000000000000000000000081526004016115719190611919565b60405180910390fd5b819050611583565b5b9392505050565b60008151111561159d5780518082602001fd5b6040517f1425ea4200000000000000000000000000000000000000000000000000000000815260040160405180910390fd5b6000604051905090565b600080fd5b600080fd5b600073ffffffffffffffffffffffffffffffffffffffff82169050919050565b600061160e826115e3565b9050919050565b61161e81611603565b811461162957600080fd5b50565b60008135905061163b81611615565b92915050565b60008060408385031215611658576116576115d9565b5b60006116668582860161162c565b92505060206116778582860161162c565b9150509250929050565b6000819050919050565b61169481611681565b82525050565b60006020820190506116af600083018461168b565b92915050565b600080fd5b600080fd5b6000601f19601f8301169050919050565b7f4e487b7100000000000000000000000000000000000000000000000000000000600052604160045260246000fd5b611708826116bf565b810181811067ffffffffffffffff82111715611727576117266116d0565b5b80604052505050565b600061173a6115cf565b905061174682826116ff565b919050565b600067ffffffffffffffff821115611766576117656116d0565b5b61176f826116bf565b9050602081019050919050565b82818337600083830152505050565b600061179e6117998461174b565b611730565b9050828152602081018484840111156117ba576117b96116ba565b5b6117c584828561177c565b509392505050565b600082601f8301126117e2576117e16116b5565b5b81356117f284826020860161178b565b91505092915050565b60008060408385031215611812576118116115d9565b5b60006118208582860161162c565b925050602083013567ffffffffffffffff811115611841576118406115de565b5b61184d858286016117cd565b9150509250929050565b6000819050919050565b61186a81611857565b82525050565b60006020820190506118856000830184611861565b92915050565b61189481611681565b811461189f57600080fd5b50565b6000813590506118b18161188b565b92915050565b6000806000606084860312156118d0576118cf6115d9565b5b60006118de8682870161162c565b93505060206118ef8682870161162c565b9250506040611900868287016118a2565b9150509250925092565b61191381611603565b82525050565b600060208201905061192e600083018461190a565b92915050565b6000806000806080858703121561194e5761194d6115d9565b5b600061195c8782880161162c565b945050602061196d8782880161162c565b935050604061197e878288016118a2565b925050606061198f8782880161162c565b91505092959194509250565b600081519050919050565b600082825260208201905092915050565b60005b838110156119d55780820151818401526020810190506119ba565b60008484015250505050565b60006119ec8261199b565b6119f681856119a6565b9350611a068185602086016119b7565b611a0f816116bf565b840191505092915050565b60006020820190508181036000830152611a3481846119e1565b905092915050565b600060208284031215611a5257611a516115d9565b5b6000611a608482850161162c565b91505092915050565b7f53616d652063757272656e637900000000000000000000000000000000000000600082015250565b6000611a9f600d836119a6565b9150611aaa82611a69565b602082019050919050565b60006020820190508181036000830152611ace81611a92565b9050919050565b7f4e487b7100000000000000000000000000000000000000000000000000000000600052601260045260246000fd5b7f4e487b7100000000000000000000000000000000000000000000000000000000600052601160045260246000fd5b6000611b3e82611681565b9150611b4983611681565b925082611b5957611b58611ad5565b5b828204905092915050565b7f5377617020726174696f20756e646566696e6564000000000000000000000000600082015250565b6000611b9a6014836119a6565b9150611ba582611b64565b602082019050919050565b60006020820190508181036000830152611bc981611b8d565b9050919050565b6000606082019050611be5600083018661190a565b611bf2602083018561190a565b611bff604083018461168b565b949350505050565b60008115159050919050565b611c1c81611c07565b8114611c2757600080fd5b50565b600081519050611c3981611c13565b92915050565b600060208284031215611c5557611c546115d9565b5b6000611c6384828501611c2a565b91505092915050565b6000611c7782611681565b9150611c8283611681565b9250828202611c9081611681565b91508282048414831517611ca757611ca6611b04565b5b5092915050565b600081519050611cbd8161188b565b92915050565b600060208284031215611cd957611cd86115d9565b5b6000611ce784828501611cae565b91505092915050565b6000611cfb82611681565b9150611d0683611681565b9250828203905081811115611d1e57611d1d611b04565b5b92915050565b6000604082019050611d39600083018561190a565b611d46602083018461168b565b9392505050565b600081905092915050565b50565b6000611d68600083611d4d565b9150611d7382611d58565b600082019050919050565b6000611d8982611d5b565b9150819050919050565b60008160601b9050919050565b6000611dab82611d93565b9050919050565b6000611dbd82611da0565b9050919050565b611dd5611dd082611603565b611db2565b82525050565b6000611de78284611dc4565b60148201915081905092915050565b7f4e487b7100000000000000000000000000000000000000000000000000000000600052603260045260246000fd5b600081519050919050565b600082825260208201905092915050565b6000819050602082019050919050565b611e5a81611857565b82525050565b6000611e6c8383611e51565b60208301905092915050565b6000602082019050919050565b6000611e9082611e25565b611e9a8185611e30565b9350611ea583611e41565b8060005b83811015611ed6578151611ebd8882611e60565b9750611ec883611e78565b925050600181019050611ea9565b5085935050505092915050565b60006020820190508181036000830152611efd8184611e85565b905092915050565b600067ffffffffffffffff821115611f2057611f1f6116d0565b5b602082029050602081019050919050565b600080fd5b6000611f49611f4484611f05565b611730565b90508083825260208201905060208402830185811115611f6c57611f6b611f31565b5b835b81811015611f955780611f818882611cae565b845260208401935050602081019050611f6e565b5050509392505050565b600082601f830112611fb457611fb36116b5565b5b8151611fc4848260208601611f36565b91505092915050565b600060208284031215611fe357611fe26115d9565b5b600082015167ffffffffffffffff811115612001576120006115de565b5b61200d84828501611f9f565b91505092915050565b6000819050919050565b600067ffffffffffffffff82169050919050565b6000819050919050565b600061205961205461204f84612016565b612034565b612020565b9050919050565b6120698161203e565b82525050565b60006020820190506120846000830184612060565b92915050565b61209381611857565b811461209e57600080fd5b50565b6000815190506120b08161208a565b92915050565b6000602082840312156120cc576120cb6115d9565b5b60006120da848285016120a1565b91505092915050565b600081519050919050565b60006120f9826120e3565b6121038185611d4d565b93506121138185602086016119b7565b80840191505092915050565b600061212b82846120ee565b91508190509291505056fea264697066735822122087434ff5bd234015e5bc05c0e69e49153db150cea3ef362050c5ca42dab3776364736f6c63430008140033",
  "linkReferences": {},
  "deployedLinkReferences": {}
}