{
  "_format": "hh-sol-artifact-1",
  "contractName": "TestV2",
  "sourceName": "contracts/Mock/proxyTest.sol",
  "abi": [
    {
      "inputs": [],
      "name": "version",
      "outputs": [
        {
          "internalType": "uint256",
          "name": "",
          "type": "uint256"
        }
      ],
      "stateMutability": "view",
      "type": "function"
    },
    {
      "inputs": [
        {
          "internalType": "uint256",
          "name": "check",
          "type": "uint256"
        }
      ],
      "name": "version",
      "outputs": [
        {
          "internalType": "bool",
          "name": "",
          "type": "bool"
        }
      ],
      "stateMutability": "view",
      "type": "function"
    }
  ],
  "bytecode": "0x608060405234801561001057600080fd5b5061019d806100206000396000f3fe608060405234801561001057600080fd5b50600436106100365760003560e01c806354fd4d501461003b578063d3cbde3114610059575b600080fd5b610043610089565b60405161005091906100b8565b60405180910390f35b610073600480360381019061006e9190610104565b610092565b604051610080919061014c565b60405180910390f35b60006002905090565b6000600282149050919050565b6000819050919050565b6100b28161009f565b82525050565b60006020820190506100cd60008301846100a9565b92915050565b600080fd5b6100e18161009f565b81146100ec57600080fd5b50565b6000813590506100fe816100d8565b92915050565b60006020828403121561011a576101196100d3565b5b6000610128848285016100ef565b91505092915050565b60008115159050919050565b61014681610131565b82525050565b6000602082019050610161600083018461013d565b9291505056fea26469706673582212205545fe049b84757ba18fad592b91df35e9dc8dfd6576860a9bd67cf6efa14e4864736f6c63430008140033",
  "linkReferences": {},
  "deployedLinkReferences": {}
}