{
  "_format": "hh-sol-artifact-1",
  "contractName": "MockOracle",
  "sourceName": "contracts/Mock/mockOracle.sol",
  "abi": [
    {
      "inputs": [],
      "stateMutability": "nonpayable",
      "type": "constructor"
    },
    {
      "inputs": [
        {
          "internalType": "address",
          "name": "target",
          "type": "address"
        }
      ],
      "name": "AddressEmptyCode",
      "type": "error"
    },
    {
      "inputs": [
        {
          "internalType": "address",
          "name": "implementation",
          "type": "address"
        }
      ],
      "name": "ERC1967InvalidImplementation",
      "type": "error"
    },
    {
      "inputs": [],
      "name": "ERC1967NonPayable",
      "type": "error"
    },
    {
      "inputs": [],
      "name": "FailedInnerCall",
      "type": "error"
    },
    {
      "inputs": [],
      "name": "InvalidInitialization",
      "type": "error"
    },
    {
      "inputs": [],
      "name": "NotInitializing",
      "type": "error"
    },
    {
      "inputs": [],
      "name": "UUPSUnauthorizedCallContext",
      "type": "error"
    },
    {
      "inputs": [
        {
          "internalType": "bytes32",
          "name": "slot",
          "type": "bytes32"
        }
      ],
      "name": "UUPSUnsupportedProxiableUUID",
      "type": "error"
    },
    {
      "anonymous": false,
      "inputs": [
        {
          "indexed": false,
          "internalType": "uint64",
          "name": "version",
          "type": "uint64"
        }
      ],
      "name": "Initialized",
      "type": "event"
    },
    {
      "anonymous": false,
      "inputs": [
        {
          "indexed": true,
          "internalType": "address",
          "name": "implementation",
          "type": "address"
        }
      ],
      "name": "Upgraded",
      "type": "event"
    },
    {
      "inputs": [],
      "name": "UPGRADE_INTERFACE_VERSION",
      "outputs": [
        {
          "internalType": "string",
          "name": "",
          "type": "string"
        }
      ],
      "stateMutability": "view",
      "type": "function"
    },
    {
      "inputs": [
        {
          "internalType": "bytes32[]",
          "name": "topics",
          "type": "bytes32[]"
        }
      ],
      "name": "getPrices",
      "outputs": [
        {
          "internalType": "uint256[]",
          "name": "results",
          "type": "uint256[]"
        }
      ],
      "stateMutability": "view",
      "type": "function"
    },
    {
      "inputs": [],
      "name": "initialize",
      "outputs": [],
      "stateMutability": "nonpayable",
      "type": "function"
    },
    {
      "inputs": [
        {
          "internalType": "bytes32",
          "name": "",
          "type": "bytes32"
        }
      ],
      "name": "prices",
      "outputs": [
        {
          "internalType": "uint256",
          "name": "",
          "type": "uint256"
        }
      ],
      "stateMutability": "view",
      "type": "function"
    },
    {
      "inputs": [],
      "name": "proxiableUUID",
      "outputs": [
        {
          "internalType": "bytes32",
          "name": "",
          "type": "bytes32"
        }
      ],
      "stateMutability": "view",
      "type": "function"
    },
    {
      "inputs": [
        {
          "internalType": "bytes32[]",
          "name": "topics",
          "type": "bytes32[]"
        },
        {
          "internalType": "uint256[]",
          "name": "values",
          "type": "uint256[]"
        }
      ],
      "name": "setPrices",
      "outputs": [],
      "stateMutability": "nonpayable",
      "type": "function"
    },
    {
      "inputs": [
        {
          "internalType": "address",
          "name": "newImplementation",
          "type": "address"
        },
        {
          "internalType": "bytes",
          "name": "data",
          "type": "bytes"
        }
      ],
      "name": "upgradeToAndCall",
      "outputs": [],
      "stateMutability": "payable",
      "type": "function"
    }
  ],
  "bytecode": "0x60a06040523073ffffffffffffffffffffffffffffffffffffffff1660809073ffffffffffffffffffffffffffffffffffffffff168152503480156200004457600080fd5b50620000556200005b60201b60201c565b620001cf565b60006200006d6200016560201b60201c565b90508060000160089054906101000a900460ff1615620000b9576040517ff92ee8a900000000000000000000000000000000000000000000000000000000815260040160405180910390fd5b67ffffffffffffffff80168160000160009054906101000a900467ffffffffffffffff1667ffffffffffffffff1614620001625767ffffffffffffffff8160000160006101000a81548167ffffffffffffffff021916908367ffffffffffffffff1602179055507fc7f505b2f371ae2175ee4913f4499e1f2633a7b5936321eed1cdaeb6115181d267ffffffffffffffff604051620001599190620001b2565b60405180910390a15b50565b60007ff0c57e16840df040f15088dc2f81fe391c3923bec73e23a9662efc9c229c6a00905090565b600067ffffffffffffffff82169050919050565b620001ac816200018d565b82525050565b6000602082019050620001c96000830184620001a1565b92915050565b6080516112de620001f96000396000818161051101528181610566015261071901526112de6000f3fe6080604052600436106100705760003560e01c806352d1902d1161004e57806352d1902d146100f757806360846bc6146101225780638129fc1c1461015f578063ad3cb1cc1461017657610070565b80631cfdd5231461007557806326ee48361461009e5780634f1ef286146100db575b600080fd5b34801561008157600080fd5b5061009c60048036038101906100979190610bcb565b6101a1565b005b3480156100aa57600080fd5b506100c560048036038101906100c09190610c4c565b61021b565b6040516100d29190610d61565b60405180910390f35b6100f560048036038101906100f09190610f22565b6102e7565b005b34801561010357600080fd5b5061010c610306565b6040516101199190610f97565b60405180910390f35b34801561012e57600080fd5b5061014960048036038101906101449190610fde565b610339565b604051610156919061101a565b60405180910390f35b34801561016b57600080fd5b50610174610351565b005b34801561018257600080fd5b5061018b6104d6565b60405161019891906110b4565b60405180910390f35b60005b848490508160ff1610156102145782828260ff168181106101c8576101c76110d6565b5b9050602002013560008087878560ff168181106101e8576101e76110d6565b5b90506020020135815260200190815260200160002081905550808061020c90611141565b9150506101a4565b5050505050565b60608282905067ffffffffffffffff81111561023a57610239610df7565b5b6040519080825280602002602001820160405280156102685781602001602082028036833780820191505090505b50905060005b838390508160ff1610156102e05760008085858460ff16818110610295576102946110d6565b5b90506020020135815260200190815260200160002054828260ff16815181106102c1576102c06110d6565b5b60200260200101818152505080806102d890611141565b91505061026e565b5092915050565b6102ef61050f565b6102f8826105f5565b61030282826105f8565b5050565b6000610310610717565b7f360894a13ba1a3210667c828492db98dca3e2076cc3735a920a3ca505d382bbc60001b905090565b60006020528060005260406000206000915090505481565b600061035b61079e565b905060008160000160089054906101000a900460ff1615905060008260000160009054906101000a900467ffffffffffffffff1690506000808267ffffffffffffffff161480156103a95750825b9050600060018367ffffffffffffffff161480156103de575060003073ffffffffffffffffffffffffffffffffffffffff163b145b9050811580156103ec575080155b15610423576040517ff92ee8a900000000000000000000000000000000000000000000000000000000815260040160405180910390fd5b60018560000160006101000a81548167ffffffffffffffff021916908367ffffffffffffffff16021790555083156104735760018560000160086101000a81548160ff0219169083151502179055505b83156104cf5760008560000160086101000a81548160ff0219169083151502179055507fc7f505b2f371ae2175ee4913f4499e1f2633a7b5936321eed1cdaeb6115181d260016040516104c691906111c3565b60405180910390a15b5050505050565b6040518060400160405280600581526020017f352e302e3000000000000000000000000000000000000000000000000000000081525081565b7f000000000000000000000000000000000000000000000000000000000000000073ffffffffffffffffffffffffffffffffffffffff163073ffffffffffffffffffffffffffffffffffffffff1614806105bc57507f000000000000000000000000000000000000000000000000000000000000000073ffffffffffffffffffffffffffffffffffffffff166105a36107c6565b73ffffffffffffffffffffffffffffffffffffffff1614155b156105f3576040517fe07c8dba00000000000000000000000000000000000000000000000000000000815260040160405180910390fd5b565b50565b8173ffffffffffffffffffffffffffffffffffffffff166352d1902d6040518163ffffffff1660e01b8152600401602060405180830381865afa92505050801561066057506040513d601f19601f8201168201806040525081019061065d91906111f3565b60015b6106a157816040517f4c9c8ce3000000000000000000000000000000000000000000000000000000008152600401610698919061122f565b60405180910390fd5b7f360894a13ba1a3210667c828492db98dca3e2076cc3735a920a3ca505d382bbc60001b811461070857806040517faa1d49a40000000000000000000000000000000000000000000000000000000081526004016106ff9190610f97565b60405180910390fd5b610712838361081d565b505050565b7f000000000000000000000000000000000000000000000000000000000000000073ffffffffffffffffffffffffffffffffffffffff163073ffffffffffffffffffffffffffffffffffffffff161461079c576040517fe07c8dba00000000000000000000000000000000000000000000000000000000815260040160405180910390fd5b565b60007ff0c57e16840df040f15088dc2f81fe391c3923bec73e23a9662efc9c229c6a00905090565b60006107f47f360894a13ba1a3210667c828492db98dca3e2076cc3735a920a3ca505d382bbc60001b610890565b60000160009054906101000a900473ffffffffffffffffffffffffffffffffffffffff16905090565b6108268261089a565b8173ffffffffffffffffffffffffffffffffffffffff167fbc7cd75a20ee27fd9adebab32041f755214dbc6bffa90cc0225b39da2e5c2d3b60405160405180910390a26000815111156108835761087d8282610967565b5061088c565b61088b6109eb565b5b5050565b6000819050919050565b60008173ffffffffffffffffffffffffffffffffffffffff163b036108f657806040517f4c9c8ce30000000000000000000000000000000000000000000000000000000081526004016108ed919061122f565b60405180910390fd5b806109237f360894a13ba1a3210667c828492db98dca3e2076cc3735a920a3ca505d382bbc60001b610890565b60000160006101000a81548173ffffffffffffffffffffffffffffffffffffffff021916908373ffffffffffffffffffffffffffffffffffffffff16021790555050565b60606000808473ffffffffffffffffffffffffffffffffffffffff16846040516109919190611291565b600060405180830381855af49150503d80600081146109cc576040519150601f19603f3d011682016040523d82523d6000602084013e6109d1565b606091505b50915091506109e1858383610a28565b9250505092915050565b6000341115610a26576040517fb398979f00000000000000000000000000000000000000000000000000000000815260040160405180910390fd5b565b606082610a3d57610a3882610ab7565b610aaf565b60008251148015610a65575060008473ffffffffffffffffffffffffffffffffffffffff163b145b15610aa757836040517f9996b315000000000000000000000000000000000000000000000000000000008152600401610a9e919061122f565b60405180910390fd5b819050610ab0565b5b9392505050565b600081511115610aca5780518082602001fd5b6040517f1425ea4200000000000000000000000000000000000000000000000000000000815260040160405180910390fd5b6000604051905090565b600080fd5b600080fd5b600080fd5b600080fd5b600080fd5b60008083601f840112610b3557610b34610b10565b5b8235905067ffffffffffffffff811115610b5257610b51610b15565b5b602083019150836020820283011115610b6e57610b6d610b1a565b5b9250929050565b60008083601f840112610b8b57610b8a610b10565b5b8235905067ffffffffffffffff811115610ba857610ba7610b15565b5b602083019150836020820283011115610bc457610bc3610b1a565b5b9250929050565b60008060008060408587031215610be557610be4610b06565b5b600085013567ffffffffffffffff811115610c0357610c02610b0b565b5b610c0f87828801610b1f565b9450945050602085013567ffffffffffffffff811115610c3257610c31610b0b565b5b610c3e87828801610b75565b925092505092959194509250565b60008060208385031215610c6357610c62610b06565b5b600083013567ffffffffffffffff811115610c8157610c80610b0b565b5b610c8d85828601610b1f565b92509250509250929050565b600081519050919050565b600082825260208201905092915050565b6000819050602082019050919050565b6000819050919050565b610cd881610cc5565b82525050565b6000610cea8383610ccf565b60208301905092915050565b6000602082019050919050565b6000610d0e82610c99565b610d188185610ca4565b9350610d2383610cb5565b8060005b83811015610d54578151610d3b8882610cde565b9750610d4683610cf6565b925050600181019050610d27565b5085935050505092915050565b60006020820190508181036000830152610d7b8184610d03565b905092915050565b600073ffffffffffffffffffffffffffffffffffffffff82169050919050565b6000610dae82610d83565b9050919050565b610dbe81610da3565b8114610dc957600080fd5b50565b600081359050610ddb81610db5565b92915050565b600080fd5b6000601f19601f8301169050919050565b7f4e487b7100000000000000000000000000000000000000000000000000000000600052604160045260246000fd5b610e2f82610de6565b810181811067ffffffffffffffff82111715610e4e57610e4d610df7565b5b80604052505050565b6000610e61610afc565b9050610e6d8282610e26565b919050565b600067ffffffffffffffff821115610e8d57610e8c610df7565b5b610e9682610de6565b9050602081019050919050565b82818337600083830152505050565b6000610ec5610ec084610e72565b610e57565b905082815260208101848484011115610ee157610ee0610de1565b5b610eec848285610ea3565b509392505050565b600082601f830112610f0957610f08610b10565b5b8135610f19848260208601610eb2565b91505092915050565b60008060408385031215610f3957610f38610b06565b5b6000610f4785828601610dcc565b925050602083013567ffffffffffffffff811115610f6857610f67610b0b565b5b610f7485828601610ef4565b9150509250929050565b6000819050919050565b610f9181610f7e565b82525050565b6000602082019050610fac6000830184610f88565b92915050565b610fbb81610f7e565b8114610fc657600080fd5b50565b600081359050610fd881610fb2565b92915050565b600060208284031215610ff457610ff3610b06565b5b600061100284828501610fc9565b91505092915050565b61101481610cc5565b82525050565b600060208201905061102f600083018461100b565b92915050565b600081519050919050565b600082825260208201905092915050565b60005b8381101561106f578082015181840152602081019050611054565b60008484015250505050565b600061108682611035565b6110908185611040565b93506110a0818560208601611051565b6110a981610de6565b840191505092915050565b600060208201905081810360008301526110ce818461107b565b905092915050565b7f4e487b7100000000000000000000000000000000000000000000000000000000600052603260045260246000fd5b7f4e487b7100000000000000000000000000000000000000000000000000000000600052601160045260246000fd5b600060ff82169050919050565b600061114c82611134565b915060ff820361115f5761115e611105565b5b600182019050919050565b6000819050919050565b600067ffffffffffffffff82169050919050565b6000819050919050565b60006111ad6111a86111a38461116a565b611188565b611174565b9050919050565b6111bd81611192565b82525050565b60006020820190506111d860008301846111b4565b92915050565b6000815190506111ed81610fb2565b92915050565b60006020828403121561120957611208610b06565b5b6000611217848285016111de565b91505092915050565b61122981610da3565b82525050565b60006020820190506112446000830184611220565b92915050565b600081519050919050565b600081905092915050565b600061126b8261124a565b6112758185611255565b9350611285818560208601611051565b80840191505092915050565b600061129d8284611260565b91508190509291505056fea26469706673582212203e7d5d8f230a3ea3e72a0106eb3b54dbb5187b7d005cac51d68e92976ae1980f64736f6c63430008140033",
  "linkReferences": {},
  "deployedLinkReferences": {}
}