{
  "_format": "hh-sol-artifact-1",
  "contractName": "Vault",
  "sourceName": "contracts/Mudskipper/vault.sol",
  "abi": [
    {
      "inputs": [],
      "stateMutability": "nonpayable",
      "type": "constructor"
    },
    {
      "inputs": [],
      "name": "AccessControlBadConfirmation",
      "type": "error"
    },
    {
      "inputs": [
        {
          "internalType": "address",
          "name": "account",
          "type": "address"
        },
        {
          "internalType": "bytes32",
          "name": "neededRole",
          "type": "bytes32"
        }
      ],
      "name": "AccessControlUnauthorizedAccount",
      "type": "error"
    },
    {
      "inputs": [
        {
          "internalType": "address",
          "name": "target",
          "type": "address"
        }
      ],
      "name": "AddressEmptyCode",
      "type": "error"
    },
    {
      "inputs": [
        {
          "internalType": "address",
          "name": "implementation",
          "type": "address"
        }
      ],
      "name": "ERC1967InvalidImplementation",
      "type": "error"
    },
    {
      "inputs": [],
      "name": "ERC1967NonPayable",
      "type": "error"
    },
    {
      "inputs": [],
      "name": "FailedInnerCall",
      "type": "error"
    },
    {
      "inputs": [
        {
          "internalType": "uint256",
          "name": "transferableBalance",
          "type": "uint256"
        }
      ],
      "name": "InsufficientBalance",
      "type": "error"
    },
    {
      "inputs": [],
      "name": "InvalidInitialization",
      "type": "error"
    },
    {
      "inputs": [],
      "name": "NotInitializing",
      "type": "error"
    },
    {
      "inputs": [],
      "name": "UUPSUnauthorizedCallContext",
      "type": "error"
    },
    {
      "inputs": [
        {
          "internalType": "bytes32",
          "name": "slot",
          "type": "bytes32"
        }
      ],
      "name": "UUPSUnsupportedProxiableUUID",
      "type": "error"
    },
    {
      "anonymous": false,
      "inputs": [
        {
          "indexed": false,
          "internalType": "uint64",
          "name": "version",
          "type": "uint64"
        }
      ],
      "name": "Initialized",
      "type": "event"
    },
    {
      "anonymous": false,
      "inputs": [
        {
          "indexed": false,
          "internalType": "address",
          "name": "recipient",
          "type": "address"
        },
        {
          "indexed": false,
          "internalType": "uint256",
          "name": "lastShare",
          "type": "uint256"
        },
        {
          "indexed": false,
          "internalType": "uint256",
          "name": "newShare",
          "type": "uint256"
        }
      ],
      "name": "RecipientSet",
      "type": "event"
    },
    {
      "anonymous": false,
      "inputs": [
        {
          "indexed": false,
          "internalType": "address",
          "name": "setter",
          "type": "address"
        },
        {
          "indexed": false,
          "internalType": "address",
          "name": "newReserve",
          "type": "address"
        }
      ],
      "name": "ReserveSet",
      "type": "event"
    },
    {
      "anonymous": false,
      "inputs": [
        {
          "indexed": true,
          "internalType": "bytes32",
          "name": "role",
          "type": "bytes32"
        },
        {
          "indexed": true,
          "internalType": "bytes32",
          "name": "previousAdminRole",
          "type": "bytes32"
        },
        {
          "indexed": true,
          "internalType": "bytes32",
          "name": "newAdminRole",
          "type": "bytes32"
        }
      ],
      "name": "RoleAdminChanged",
      "type": "event"
    },
    {
      "anonymous": false,
      "inputs": [
        {
          "indexed": true,
          "internalType": "bytes32",
          "name": "role",
          "type": "bytes32"
        },
        {
          "indexed": true,
          "internalType": "address",
          "name": "account",
          "type": "address"
        },
        {
          "indexed": true,
          "internalType": "address",
          "name": "sender",
          "type": "address"
        }
      ],
      "name": "RoleGranted",
      "type": "event"
    },
    {
      "anonymous": false,
      "inputs": [
        {
          "indexed": true,
          "internalType": "bytes32",
          "name": "role",
          "type": "bytes32"
        },
        {
          "indexed": true,
          "internalType": "address",
          "name": "account",
          "type": "address"
        },
        {
          "indexed": true,
          "internalType": "address",
          "name": "sender",
          "type": "address"
        }
      ],
      "name": "RoleRevoked",
      "type": "event"
    },
    {
      "anonymous": false,
      "inputs": [
        {
          "indexed": true,
          "internalType": "address",
          "name": "implementation",
          "type": "address"
        }
      ],
      "name": "Upgraded",
      "type": "event"
    },
    {
      "anonymous": false,
      "inputs": [
        {
          "indexed": false,
          "internalType": "address",
          "name": "to",
          "type": "address"
        },
        {
          "indexed": false,
          "internalType": "uint256",
          "name": "quantity",
          "type": "uint256"
        }
      ],
      "name": "VaultWithdrawn",
      "type": "event"
    },
    {
      "inputs": [],
      "name": "DEFAULT_ADMIN_ROLE",
      "outputs": [
        {
          "internalType": "bytes32",
          "name": "",
          "type": "bytes32"
        }
      ],
      "stateMutability": "view",
      "type": "function"
    },
    {
      "inputs": [],
      "name": "UPGRADE_INTERFACE_VERSION",
      "outputs": [
        {
          "internalType": "string",
          "name": "",
          "type": "string"
        }
      ],
      "stateMutability": "view",
      "type": "function"
    },
    {
      "inputs": [],
      "name": "VAULT_MANAGER",
      "outputs": [
        {
          "internalType": "bytes32",
          "name": "",
          "type": "bytes32"
        }
      ],
      "stateMutability": "view",
      "type": "function"
    },
    {
      "inputs": [],
      "name": "countRecipients",
      "outputs": [
        {
          "internalType": "uint256",
          "name": "",
          "type": "uint256"
        }
      ],
      "stateMutability": "view",
      "type": "function"
    },
    {
      "inputs": [
        {
          "internalType": "uint256",
          "name": "quantity",
          "type": "uint256"
        }
      ],
      "name": "finalizeRevenue",
      "outputs": [
        {
          "internalType": "bool",
          "name": "success",
          "type": "bool"
        }
      ],
      "stateMutability": "nonpayable",
      "type": "function"
    },
    {
      "inputs": [
        {
          "internalType": "bytes32",
          "name": "role",
          "type": "bytes32"
        }
      ],
      "name": "getRoleAdmin",
      "outputs": [
        {
          "internalType": "bytes32",
          "name": "",
          "type": "bytes32"
        }
      ],
      "stateMutability": "view",
      "type": "function"
    },
    {
      "inputs": [
        {
          "internalType": "bytes32",
          "name": "role",
          "type": "bytes32"
        },
        {
          "internalType": "address",
          "name": "account",
          "type": "address"
        }
      ],
      "name": "grantRole",
      "outputs": [],
      "stateMutability": "nonpayable",
      "type": "function"
    },
    {
      "inputs": [
        {
          "internalType": "bytes32",
          "name": "role",
          "type": "bytes32"
        },
        {
          "internalType": "address",
          "name": "account",
          "type": "address"
        }
      ],
      "name": "hasRole",
      "outputs": [
        {
          "internalType": "bool",
          "name": "",
          "type": "bool"
        }
      ],
      "stateMutability": "view",
      "type": "function"
    },
    {
      "inputs": [
        {
          "internalType": "address",
          "name": "owner",
          "type": "address"
        }
      ],
      "name": "initialize",
      "outputs": [],
      "stateMutability": "nonpayable",
      "type": "function"
    },
    {
      "inputs": [],
      "name": "proxiableUUID",
      "outputs": [
        {
          "internalType": "bytes32",
          "name": "",
          "type": "bytes32"
        }
      ],
      "stateMutability": "view",
      "type": "function"
    },
    {
      "inputs": [
        {
          "internalType": "uint256",
          "name": "",
          "type": "uint256"
        }
      ],
      "name": "recipients",
      "outputs": [
        {
          "internalType": "address",
          "name": "",
          "type": "address"
        }
      ],
      "stateMutability": "view",
      "type": "function"
    },
    {
      "inputs": [
        {
          "internalType": "bytes32",
          "name": "role",
          "type": "bytes32"
        },
        {
          "internalType": "address",
          "name": "callerConfirmation",
          "type": "address"
        }
      ],
      "name": "renounceRole",
      "outputs": [],
      "stateMutability": "nonpayable",
      "type": "function"
    },
    {
      "inputs": [
        {
          "internalType": "bytes32",
          "name": "role",
          "type": "bytes32"
        },
        {
          "internalType": "address",
          "name": "account",
          "type": "address"
        }
      ],
      "name": "revokeRole",
      "outputs": [],
      "stateMutability": "nonpayable",
      "type": "function"
    },
    {
      "inputs": [
        {
          "internalType": "address[]",
          "name": "newRecipients",
          "type": "address[]"
        },
        {
          "internalType": "uint256[]",
          "name": "shares",
          "type": "uint256[]"
        }
      ],
      "name": "setRecipients",
      "outputs": [],
      "stateMutability": "nonpayable",
      "type": "function"
    },
    {
      "inputs": [
        {
          "internalType": "address",
          "name": "",
          "type": "address"
        }
      ],
      "name": "shareRatio",
      "outputs": [
        {
          "internalType": "uint256",
          "name": "",
          "type": "uint256"
        }
      ],
      "stateMutability": "view",
      "type": "function"
    },
    {
      "inputs": [
        {
          "internalType": "bytes4",
          "name": "interfaceId",
          "type": "bytes4"
        }
      ],
      "name": "supportsInterface",
      "outputs": [
        {
          "internalType": "bool",
          "name": "",
          "type": "bool"
        }
      ],
      "stateMutability": "view",
      "type": "function"
    },
    {
      "inputs": [],
      "name": "totalShare",
      "outputs": [
        {
          "internalType": "uint256",
          "name": "",
          "type": "uint256"
        }
      ],
      "stateMutability": "view",
      "type": "function"
    },
    {
      "inputs": [
        {
          "internalType": "address",
          "name": "newImplementation",
          "type": "address"
        },
        {
          "internalType": "bytes",
          "name": "data",
          "type": "bytes"
        }
      ],
      "name": "upgradeToAndCall",
      "outputs": [],
      "stateMutability": "payable",
      "type": "function"
    },
    {
      "stateMutability": "payable",
      "type": "receive"
    }
  ],
  "bytecode": "0x60a06040523073ffffffffffffffffffffffffffffffffffffffff1660809073ffffffffffffffffffffffffffffffffffffffff168152503480156200004457600080fd5b50620000556200005b60201b60201c565b620001cf565b60006200006d6200016560201b60201c565b90508060000160089054906101000a900460ff1615620000b9576040517ff92ee8a900000000000000000000000000000000000000000000000000000000815260040160405180910390fd5b67ffffffffffffffff80168160000160009054906101000a900467ffffffffffffffff1667ffffffffffffffff1614620001625767ffffffffffffffff8160000160006101000a81548167ffffffffffffffff021916908367ffffffffffffffff1602179055507fc7f505b2f371ae2175ee4913f4499e1f2633a7b5936321eed1cdaeb6115181d267ffffffffffffffff604051620001599190620001b2565b60405180910390a15b50565b60007ff0c57e16840df040f15088dc2f81fe391c3923bec73e23a9662efc9c229c6a00905090565b600067ffffffffffffffff82169050919050565b620001ac816200018d565b82525050565b6000602082019050620001c96000830184620001a1565b92915050565b608051612342620001f960003960008181610f2301528181610f78015261113901526123426000f3fe60806040526004361061010d5760003560e01c8063a217fddf11610095578063bd1ea40611610064578063bd1ea40614610369578063c18bb5d6146103a6578063c4d66de8146103e3578063d1bc76a11461040c578063d547741f1461044957610114565b8063a217fddf146102bf578063ad3cb1cc146102ea578063ae373c1b14610315578063bc22ff4e1461033e57610114565b806336568abe116100dc57806336568abe146101e75780634f1ef2861461021057806352d1902d1461022c57806391d14854146102575780639ea13c7c1461029457610114565b806301ffc9a714610119578063026c420714610156578063248a9ca3146101815780632f2ff15d146101be57610114565b3661011457005b600080fd5b34801561012557600080fd5b50610140600480360381019061013b9190611854565b610472565b60405161014d919061189c565b60405180910390f35b34801561016257600080fd5b5061016b6104ec565b60405161017891906118d0565b60405180910390f35b34801561018d57600080fd5b506101a860048036038101906101a39190611921565b6104f2565b6040516101b5919061195d565b60405180910390f35b3480156101ca57600080fd5b506101e560048036038101906101e091906119d6565b610520565b005b3480156101f357600080fd5b5061020e600480360381019061020991906119d6565b610542565b005b61022a60048036038101906102259190611b5c565b6105bd565b005b34801561023857600080fd5b506102416105dc565b60405161024e919061195d565b60405180910390f35b34801561026357600080fd5b5061027e600480360381019061027991906119d6565b61060f565b60405161028b919061189c565b60405180910390f35b3480156102a057600080fd5b506102a9610688565b6040516102b691906118d0565b60405180910390f35b3480156102cb57600080fd5b506102d4610694565b6040516102e1919061195d565b60405180910390f35b3480156102f657600080fd5b506102ff61069b565b60405161030c9190611c37565b60405180910390f35b34801561032157600080fd5b5061033c60048036038101906103379190611d0f565b6106d4565b005b34801561034a57600080fd5b50610353610771565b604051610360919061195d565b60405180910390f35b34801561037557600080fd5b50610390600480360381019061038b9190611dbc565b610795565b60405161039d919061189c565b60405180910390f35b3480156103b257600080fd5b506103cd60048036038101906103c89190611de9565b610a63565b6040516103da91906118d0565b60405180910390f35b3480156103ef57600080fd5b5061040a60048036038101906104059190611de9565b610a7b565b005b34801561041857600080fd5b50610433600480360381019061042e9190611dbc565b610c0f565b6040516104409190611e25565b60405180910390f35b34801561045557600080fd5b50610470600480360381019061046b91906119d6565b610c4e565b005b60007f7965db0b000000000000000000000000000000000000000000000000000000007bffffffffffffffffffffffffffffffffffffffffffffffffffffffff1916827bffffffffffffffffffffffffffffffffffffffffffffffffffffffff191614806104e557506104e482610c70565b5b9050919050565b60025481565b6000806104fd610cda565b905080600001600084815260200190815260200160002060010154915050919050565b610529826104f2565b61053281610d02565b61053c8383610d16565b50505050565b61054a610e17565b73ffffffffffffffffffffffffffffffffffffffff168173ffffffffffffffffffffffffffffffffffffffff16146105ae576040517f6697b23200000000000000000000000000000000000000000000000000000000815260040160405180910390fd5b6105b88282610e1f565b505050565b6105c5610f21565b6105ce82611007565b6105d88282611018565b5050565b60006105e6611137565b7f360894a13ba1a3210667c828492db98dca3e2076cc3735a920a3ca505d382bbc60001b905090565b60008061061a610cda565b905080600001600085815260200190815260200160002060000160008473ffffffffffffffffffffffffffffffffffffffff1673ffffffffffffffffffffffffffffffffffffffff16815260200190815260200160002060009054906101000a900460ff1691505092915050565b60008080549050905090565b6000801b81565b6040518060400160405280600581526020017f352e302e3000000000000000000000000000000000000000000000000000000081525081565b7f7d6d8b9b446e2d961101099c17de9758016a0de4ad2bd37ba4da59dcd2a1e69a6106fe81610d02565b60005b858590508110156107695761075686868381811061072257610721611e40565b5b90506020020160208101906107379190611de9565b85858481811061074a57610749611e40565b5b905060200201356111be565b808061076190611e9e565b915050610701565b505050505050565b7f7d6d8b9b446e2d961101099c17de9758016a0de4ad2bd37ba4da59dcd2a1e69a81565b60007f7d6d8b9b446e2d961101099c17de9758016a0de4ad2bd37ba4da59dcd2a1e69a6107c181610d02565b47831115610804576040517f08c379a00000000000000000000000000000000000000000000000000000000081526004016107fb90611f32565b60405180910390fd5b6000805b600080549050811015610a5b57600060016000805490506108299190611f52565b82146108c9576002546001600080858154811061084957610848611e40565b5b9060005260206000200160009054906101000a900473ffffffffffffffffffffffffffffffffffffffff1673ffffffffffffffffffffffffffffffffffffffff1673ffffffffffffffffffffffffffffffffffffffff16815260200190815260200160002054876108ba9190611f86565b6108c49190611ff7565b6108d6565b82866108d59190611f52565b5b9050600082815481106108ec576108eb611e40565b5b9060005260206000200160009054906101000a900473ffffffffffffffffffffffffffffffffffffffff1673ffffffffffffffffffffffffffffffffffffffff168160405161093a90612059565b60006040518083038185875af1925050503d8060008114610977576040519150601f19603f3d011682016040523d82523d6000602084013e61097c565b606091505b505080955050808361098e919061206e565b9250846109d0576040517f08c379a00000000000000000000000000000000000000000000000000000000081526004016109c7906120ee565b60405180910390fd5b7f1b5775af7e7537be20684ccf94b9c6f4b180dabad653f5b57a234a9c6a3db40b60008381548110610a0557610a04611e40565b5b9060005260206000200160009054906101000a900473ffffffffffffffffffffffffffffffffffffffff1682604051610a3f92919061210e565b60405180910390a1508080610a5390611e9e565b915050610808565b505050919050565b60016020528060005260406000206000915090505481565b6000610a8561138b565b905060008160000160089054906101000a900460ff1615905060008260000160009054906101000a900467ffffffffffffffff1690506000808267ffffffffffffffff16148015610ad35750825b9050600060018367ffffffffffffffff16148015610b08575060003073ffffffffffffffffffffffffffffffffffffffff163b145b905081158015610b16575080155b15610b4d576040517ff92ee8a900000000000000000000000000000000000000000000000000000000815260040160405180910390fd5b60018560000160006101000a81548167ffffffffffffffff021916908367ffffffffffffffff1602179055508315610b9d5760018560000160086101000a81548160ff0219169083151502179055505b610baa6000801b87610d16565b508315610c075760008560000160086101000a81548160ff0219169083151502179055507fc7f505b2f371ae2175ee4913f4499e1f2633a7b5936321eed1cdaeb6115181d26001604051610bfe9190612190565b60405180910390a15b505050505050565b60008181548110610c1f57600080fd5b906000526020600020016000915054906101000a900473ffffffffffffffffffffffffffffffffffffffff1681565b610c57826104f2565b610c6081610d02565b610c6a8383610e1f565b50505050565b60007f01ffc9a7000000000000000000000000000000000000000000000000000000007bffffffffffffffffffffffffffffffffffffffffffffffffffffffff1916827bffffffffffffffffffffffffffffffffffffffffffffffffffffffff1916149050919050565b60007f02dd7bc7dec4dceedda775e58dd541e08a116c6c53815c0bd028192f7b626800905090565b610d1381610d0e610e17565b6113b3565b50565b600080610d21610cda565b9050610d2d848461060f565b610e0b57600181600001600086815260200190815260200160002060000160008573ffffffffffffffffffffffffffffffffffffffff1673ffffffffffffffffffffffffffffffffffffffff16815260200190815260200160002060006101000a81548160ff021916908315150217905550610da7610e17565b73ffffffffffffffffffffffffffffffffffffffff168373ffffffffffffffffffffffffffffffffffffffff16857f2f8788117e7eff1d82e926ec794901d17c78024a50270940304540a733656f0d60405160405180910390a46001915050610e11565b60009150505b92915050565b600033905090565b600080610e2a610cda565b9050610e36848461060f565b15610f1557600081600001600086815260200190815260200160002060000160008573ffffffffffffffffffffffffffffffffffffffff1673ffffffffffffffffffffffffffffffffffffffff16815260200190815260200160002060006101000a81548160ff021916908315150217905550610eb1610e17565b73ffffffffffffffffffffffffffffffffffffffff168373ffffffffffffffffffffffffffffffffffffffff16857ff6391f5c32d9c69d2a47ea670b442974b53935d1edc7fd64eb21e047a839171b60405160405180910390a46001915050610f1b565b60009150505b92915050565b7f000000000000000000000000000000000000000000000000000000000000000073ffffffffffffffffffffffffffffffffffffffff163073ffffffffffffffffffffffffffffffffffffffff161480610fce57507f000000000000000000000000000000000000000000000000000000000000000073ffffffffffffffffffffffffffffffffffffffff16610fb5611404565b73ffffffffffffffffffffffffffffffffffffffff1614155b15611005576040517fe07c8dba00000000000000000000000000000000000000000000000000000000815260040160405180910390fd5b565b6000801b61101481610d02565b5050565b8173ffffffffffffffffffffffffffffffffffffffff166352d1902d6040518163ffffffff1660e01b8152600401602060405180830381865afa92505050801561108057506040513d601f19601f8201168201806040525081019061107d91906121c0565b60015b6110c157816040517f4c9c8ce30000000000000000000000000000000000000000000000000000000081526004016110b89190611e25565b60405180910390fd5b7f360894a13ba1a3210667c828492db98dca3e2076cc3735a920a3ca505d382bbc60001b811461112857806040517faa1d49a400000000000000000000000000000000000000000000000000000000815260040161111f919061195d565b60405180910390fd5b611132838361145b565b505050565b7f000000000000000000000000000000000000000000000000000000000000000073ffffffffffffffffffffffffffffffffffffffff163073ffffffffffffffffffffffffffffffffffffffff16146111bc576040517fe07c8dba00000000000000000000000000000000000000000000000000000000815260040160405180910390fd5b565b600073ffffffffffffffffffffffffffffffffffffffff168273ffffffffffffffffffffffffffffffffffffffff160361122d576040517f08c379a000000000000000000000000000000000000000000000000000000000815260040161122490612239565b60405180910390fd5b6000611238836114ce565b1561128457600160008473ffffffffffffffffffffffffffffffffffffffff1673ffffffffffffffffffffffffffffffffffffffff1681526020019081526020016000205490506112e8565b6000839080600181540180825580915050600190039060005260206000200160009091909190916101000a81548173ffffffffffffffffffffffffffffffffffffffff021916908373ffffffffffffffffffffffffffffffffffffffff1602179055505b81600160008573ffffffffffffffffffffffffffffffffffffffff1673ffffffffffffffffffffffffffffffffffffffff16815260200190815260200160002081905550808260025461133b919061206e565b6113459190611f52565b6002819055507faad2847070ebe23ef1cff61cc74ae20ceaa2bb50eabfe80501c6689d1483511583828460405161137e93929190612259565b60405180910390a1505050565b60007ff0c57e16840df040f15088dc2f81fe391c3923bec73e23a9662efc9c229c6a00905090565b6113bd828261060f565b6114005780826040517fe2517d3f0000000000000000000000000000000000000000000000000000000081526004016113f7929190612290565b60405180910390fd5b5050565b60006114327f360894a13ba1a3210667c828492db98dca3e2076cc3735a920a3ca505d382bbc60001b61157c565b60000160009054906101000a900473ffffffffffffffffffffffffffffffffffffffff16905090565b61146482611586565b8173ffffffffffffffffffffffffffffffffffffffff167fbc7cd75a20ee27fd9adebab32041f755214dbc6bffa90cc0225b39da2e5c2d3b60405160405180910390a26000815111156114c1576114bb8282611653565b506114ca565b6114c96116d7565b5b5050565b600080600090505b600080549050811015611571578273ffffffffffffffffffffffffffffffffffffffff166000828154811061150e5761150d611e40565b5b9060005260206000200160009054906101000a900473ffffffffffffffffffffffffffffffffffffffff1673ffffffffffffffffffffffffffffffffffffffff160361155e576001915050611577565b808061156990611e9e565b9150506114d6565b50600090505b919050565b6000819050919050565b60008173ffffffffffffffffffffffffffffffffffffffff163b036115e257806040517f4c9c8ce30000000000000000000000000000000000000000000000000000000081526004016115d99190611e25565b60405180910390fd5b8061160f7f360894a13ba1a3210667c828492db98dca3e2076cc3735a920a3ca505d382bbc60001b61157c565b60000160006101000a81548173ffffffffffffffffffffffffffffffffffffffff021916908373ffffffffffffffffffffffffffffffffffffffff16021790555050565b60606000808473ffffffffffffffffffffffffffffffffffffffff168460405161167d91906122f5565b600060405180830381855af49150503d80600081146116b8576040519150601f19603f3d011682016040523d82523d6000602084013e6116bd565b606091505b50915091506116cd858383611714565b9250505092915050565b6000341115611712576040517fb398979f00000000000000000000000000000000000000000000000000000000815260040160405180910390fd5b565b60608261172957611724826117a3565b61179b565b60008251148015611751575060008473ffffffffffffffffffffffffffffffffffffffff163b145b1561179357836040517f9996b31500000000000000000000000000000000000000000000000000000000815260040161178a9190611e25565b60405180910390fd5b81905061179c565b5b9392505050565b6000815111156117b65780518082602001fd5b6040517f1425ea4200000000000000000000000000000000000000000000000000000000815260040160405180910390fd5b6000604051905090565b600080fd5b600080fd5b60007fffffffff0000000000000000000000000000000000000000000000000000000082169050919050565b611831816117fc565b811461183c57600080fd5b50565b60008135905061184e81611828565b92915050565b60006020828403121561186a576118696117f2565b5b60006118788482850161183f565b91505092915050565b60008115159050919050565b61189681611881565b82525050565b60006020820190506118b1600083018461188d565b92915050565b6000819050919050565b6118ca816118b7565b82525050565b60006020820190506118e560008301846118c1565b92915050565b6000819050919050565b6118fe816118eb565b811461190957600080fd5b50565b60008135905061191b816118f5565b92915050565b600060208284031215611937576119366117f2565b5b60006119458482850161190c565b91505092915050565b611957816118eb565b82525050565b6000602082019050611972600083018461194e565b92915050565b600073ffffffffffffffffffffffffffffffffffffffff82169050919050565b60006119a382611978565b9050919050565b6119b381611998565b81146119be57600080fd5b50565b6000813590506119d0816119aa565b92915050565b600080604083850312156119ed576119ec6117f2565b5b60006119fb8582860161190c565b9250506020611a0c858286016119c1565b9150509250929050565b600080fd5b600080fd5b6000601f19601f8301169050919050565b7f4e487b7100000000000000000000000000000000000000000000000000000000600052604160045260246000fd5b611a6982611a20565b810181811067ffffffffffffffff82111715611a8857611a87611a31565b5b80604052505050565b6000611a9b6117e8565b9050611aa78282611a60565b919050565b600067ffffffffffffffff821115611ac757611ac6611a31565b5b611ad082611a20565b9050602081019050919050565b82818337600083830152505050565b6000611aff611afa84611aac565b611a91565b905082815260208101848484011115611b1b57611b1a611a1b565b5b611b26848285611add565b509392505050565b600082601f830112611b4357611b42611a16565b5b8135611b53848260208601611aec565b91505092915050565b60008060408385031215611b7357611b726117f2565b5b6000611b81858286016119c1565b925050602083013567ffffffffffffffff811115611ba257611ba16117f7565b5b611bae85828601611b2e565b9150509250929050565b600081519050919050565b600082825260208201905092915050565b60005b83811015611bf2578082015181840152602081019050611bd7565b60008484015250505050565b6000611c0982611bb8565b611c138185611bc3565b9350611c23818560208601611bd4565b611c2c81611a20565b840191505092915050565b60006020820190508181036000830152611c518184611bfe565b905092915050565b600080fd5b600080fd5b60008083601f840112611c7957611c78611a16565b5b8235905067ffffffffffffffff811115611c9657611c95611c59565b5b602083019150836020820283011115611cb257611cb1611c5e565b5b9250929050565b60008083601f840112611ccf57611cce611a16565b5b8235905067ffffffffffffffff811115611cec57611ceb611c59565b5b602083019150836020820283011115611d0857611d07611c5e565b5b9250929050565b60008060008060408587031215611d2957611d286117f2565b5b600085013567ffffffffffffffff811115611d4757611d466117f7565b5b611d5387828801611c63565b9450945050602085013567ffffffffffffffff811115611d7657611d756117f7565b5b611d8287828801611cb9565b925092505092959194509250565b611d99816118b7565b8114611da457600080fd5b50565b600081359050611db681611d90565b92915050565b600060208284031215611dd257611dd16117f2565b5b6000611de084828501611da7565b91505092915050565b600060208284031215611dff57611dfe6117f2565b5b6000611e0d848285016119c1565b91505092915050565b611e1f81611998565b82525050565b6000602082019050611e3a6000830184611e16565b92915050565b7f4e487b7100000000000000000000000000000000000000000000000000000000600052603260045260246000fd5b7f4e487b7100000000000000000000000000000000000000000000000000000000600052601160045260246000fd5b6000611ea9826118b7565b91507fffffffffffffffffffffffffffffffffffffffffffffffffffffffffffffffff8203611edb57611eda611e6f565b5b600182019050919050565b7f496e73756666696369656e742062616c616e6365000000000000000000000000600082015250565b6000611f1c601483611bc3565b9150611f2782611ee6565b602082019050919050565b60006020820190508181036000830152611f4b81611f0f565b9050919050565b6000611f5d826118b7565b9150611f68836118b7565b9250828203905081811115611f8057611f7f611e6f565b5b92915050565b6000611f91826118b7565b9150611f9c836118b7565b9250828202611faa816118b7565b91508282048414831517611fc157611fc0611e6f565b5b5092915050565b7f4e487b7100000000000000000000000000000000000000000000000000000000600052601260045260246000fd5b6000612002826118b7565b915061200d836118b7565b92508261201d5761201c611fc8565b5b828204905092915050565b600081905092915050565b50565b6000612043600083612028565b915061204e82612033565b600082019050919050565b600061206482612036565b9150819050919050565b6000612079826118b7565b9150612084836118b7565b925082820190508082111561209c5761209b611e6f565b5b92915050565b7f4661696c656420746f207472616e736665720000000000000000000000000000600082015250565b60006120d8601283611bc3565b91506120e3826120a2565b602082019050919050565b60006020820190508181036000830152612107816120cb565b9050919050565b60006040820190506121236000830185611e16565b61213060208301846118c1565b9392505050565b6000819050919050565b600067ffffffffffffffff82169050919050565b6000819050919050565b600061217a61217561217084612137565b612155565b612141565b9050919050565b61218a8161215f565b82525050565b60006020820190506121a56000830184612181565b92915050565b6000815190506121ba816118f5565b92915050565b6000602082840312156121d6576121d56117f2565b5b60006121e4848285016121ab565b91505092915050565b7f5a65726f4164647265737320697320676976656e000000000000000000000000600082015250565b6000612223601483611bc3565b915061222e826121ed565b602082019050919050565b6000602082019050818103600083015261225281612216565b9050919050565b600060608201905061226e6000830186611e16565b61227b60208301856118c1565b61228860408301846118c1565b949350505050565b60006040820190506122a56000830185611e16565b6122b2602083018461194e565b9392505050565b600081519050919050565b60006122cf826122b9565b6122d98185612028565b93506122e9818560208601611bd4565b80840191505092915050565b600061230182846122c4565b91508190509291505056fea264697066735822122089dd0e510bd6c7f1f4eeb5badcf037e10524f5ea5dd13ad46d0401908dfcf8d964736f6c63430008140033",
  "linkReferences": {},
  "deployedLinkReferences": {}
}