{
	"Mock\\mockOracle.sol": {
		"MockOracle": {
			"abi": [
				{
					"inputs": [],
					"stateMutability": "nonpayable",
					"type": "constructor"
				},
				{
					"inputs": [
						{
							"internalType": "address",
							"name": "target",
							"type": "address"
						}
					],
					"name": "AddressEmptyCode",
					"type": "error"
				},
				{
					"inputs": [
						{
							"internalType": "address",
							"name": "implementation",
							"type": "address"
						}
					],
					"name": "ERC1967InvalidImplementation",
					"type": "error"
				},
				{
					"inputs": [],
					"name": "ERC1967NonPayable",
					"type": "error"
				},
				{
					"inputs": [],
					"name": "FailedInnerCall",
					"type": "error"
				},
				{
					"inputs": [],
					"name": "InvalidInitialization",
					"type": "error"
				},
				{
					"inputs": [],
					"name": "NotInitializing",
					"type": "error"
				},
				{
					"inputs": [],
					"name": "UUPSUnauthorizedCallContext",
					"type": "error"
				},
				{
					"inputs": [
						{
							"internalType": "bytes32",
							"name": "slot",
							"type": "bytes32"
						}
					],
					"name": "UUPSUnsupportedProxiableUUID",
					"type": "error"
				},
				{
					"anonymous": false,
					"inputs": [
						{
							"indexed": false,
							"internalType": "uint64",
							"name": "version",
							"type": "uint64"
						}
					],
					"name": "Initialized",
					"type": "event"
				},
				{
					"anonymous": false,
					"inputs": [
						{
							"indexed": true,
							"internalType": "address",
							"name": "implementation",
							"type": "address"
						}
					],
					"name": "Upgraded",
					"type": "event"
				},
				{
					"inputs": [],
					"name": "UPGRADE_INTERFACE_VERSION",
					"outputs": [
						{
							"internalType": "string",
							"name": "",
							"type": "string"
						}
					],
					"stateMutability": "view",
					"type": "function"
				},
				{
					"inputs": [
						{
							"internalType": "bytes32[]",
							"name": "topics",
							"type": "bytes32[]"
						}
					],
					"name": "getPrices",
					"outputs": [
						{
							"internalType": "uint256[]",
							"name": "results",
							"type": "uint256[]"
						}
					],
					"stateMutability": "view",
					"type": "function"
				},
				{
					"inputs": [],
					"name": "initialize",
					"outputs": [],
					"stateMutability": "nonpayable",
					"type": "function"
				},
				{
					"inputs": [
						{
							"internalType": "bytes32",
							"name": "",
							"type": "bytes32"
						}
					],
					"name": "prices",
					"outputs": [
						{
							"internalType": "uint256",
							"name": "",
							"type": "uint256"
						}
					],
					"stateMutability": "view",
					"type": "function"
				},
				{
					"inputs": [],
					"name": "proxiableUUID",
					"outputs": [
						{
							"internalType": "bytes32",
							"name": "",
							"type": "bytes32"
						}
					],
					"stateMutability": "view",
					"type": "function"
				},
				{
					"inputs": [
						{
							"internalType": "bytes32[]",
							"name": "topics",
							"type": "bytes32[]"
						},
						{
							"internalType": "uint256[]",
							"name": "values",
							"type": "uint256[]"
						}
					],
					"name": "setPrices",
					"outputs": [],
					"stateMutability": "nonpayable",
					"type": "function"
				},
				{
					"inputs": [
						{
							"internalType": "address",
							"name": "newImplementation",
							"type": "address"
						},
						{
							"internalType": "bytes",
							"name": "data",
							"type": "bytes"
						}
					],
					"name": "upgradeToAndCall",
					"outputs": [],
					"stateMutability": "payable",
					"type": "function"
				}
			],
			"devdoc": {
				"errors": {
					"AddressEmptyCode(address)": [
						{
							"details": "There's no code at `target` (it is not a contract)."
						}
					],
					"ERC1967InvalidImplementation(address)": [
						{
							"details": "The `implementation` of the proxy is invalid."
						}
					],
					"ERC1967NonPayable()": [
						{
							"details": "An upgrade function sees `msg.value > 0` that may be lost."
						}
					],
					"FailedInnerCall()": [
						{
							"details": "A call to an address target failed. The target may have reverted."
						}
					],
					"InvalidInitialization()": [
						{
							"details": "The contract is already initialized."
						}
					],
					"NotInitializing()": [
						{
							"details": "The contract is not initializing."
						}
					],
					"UUPSUnauthorizedCallContext()": [
						{
							"details": "The call is from an unauthorized context."
						}
					],
					"UUPSUnsupportedProxiableUUID(bytes32)": [
						{
							"details": "The storage `slot` is unsupported as a UUID."
						}
					]
				},
				"events": {
					"Initialized(uint64)": {
						"details": "Triggered when the contract has been initialized or reinitialized."
					},
					"Upgraded(address)": {
						"details": "Emitted when the implementation is upgraded."
					}
				},
				"kind": "dev",
				"methods": {
					"proxiableUUID()": {
						"details": "Implementation of the ERC1822 {proxiableUUID} function. This returns the storage slot used by the implementation. It is used to validate the implementation's compatibility when performing an upgrade. IMPORTANT: A proxy pointing at a proxiable contract should not be considered proxiable itself, because this risks bricking a proxy that upgrades to it, by delegating to itself until out of gas. Thus it is critical that this function revert if invoked through a proxy. This is guaranteed by the `notDelegated` modifier."
					},
					"upgradeToAndCall(address,bytes)": {
						"custom:oz-upgrades-unsafe-allow-reachable": "delegatecall",
						"details": "Upgrade the implementation of the proxy to `newImplementation`, and subsequently execute the function call encoded in `data`. Calls {_authorizeUpgrade}. Emits an {Upgraded} event."
					}
				},
				"version": 1
			},
			"evm": {
				"assembly": "    /* \"Mock\\\\mockOracle.sol\":418:1199  contract MockOracle is UUPSUpgradeable, Initializable {... */\n  mstore(0x40, 0xa0)\n    /* \"@openzeppelin/contracts/proxy/utils/UUPSUpgradeable.sol\":1060:1064  this */\n  address\n    /* \"@openzeppelin/contracts/proxy/utils/UUPSUpgradeable.sol\":1017:1065  address private immutable __self = address(this) */\n  0xffffffffffffffffffffffffffffffffffffffff\n  and\n  0x80\n  swap1\n  0xffffffffffffffffffffffffffffffffffffffff\n  and\n  dup2\n  mstore\n  pop\n    /* \"Mock\\\\mockOracle.sol\":1057:1113  constructor () {... */\n  callvalue\n  dup1\n  iszero\n  tag_1\n  jumpi\n  0x00\n  dup1\n  revert\ntag_1:\n  pop\n    /* \"Mock\\\\mockOracle.sol\":1083:1105  _disableInitializers() */\n  tag_4\n    /* \"Mock\\\\mockOracle.sol\":1083:1103  _disableInitializers */\n  shl(0x20, tag_5)\n    /* \"Mock\\\\mockOracle.sol\":1083:1105  _disableInitializers() */\n  0x20\n  shr\n  jump\t// in\ntag_4:\n    /* \"Mock\\\\mockOracle.sol\":418:1199  contract MockOracle is UUPSUpgradeable, Initializable {... */\n  jump(tag_6)\n    /* \"@openzeppelin/contracts/proxy/utils/Initializable.sol\":7711:8133  function _disableInitializers() internal virtual {... */\ntag_5:\n    /* \"@openzeppelin/contracts/proxy/utils/Initializable.sol\":7826:7856  InitializableStorage storage $ */\n  0x00\n    /* \"@openzeppelin/contracts/proxy/utils/Initializable.sol\":7859:7885  _getInitializableStorage() */\n  tag_8\n    /* \"@openzeppelin/contracts/proxy/utils/Initializable.sol\":7859:7883  _getInitializableStorage */\n  shl(0x20, tag_9)\n    /* \"@openzeppelin/contracts/proxy/utils/Initializable.sol\":7859:7885  _getInitializableStorage() */\n  0x20\n  shr\n  jump\t// in\ntag_8:\n    /* \"@openzeppelin/contracts/proxy/utils/Initializable.sol\":7826:7885  InitializableStorage storage $ = _getInitializableStorage() */\n  swap1\n  pop\n    /* \"@openzeppelin/contracts/proxy/utils/Initializable.sol\":7900:7901  $ */\n  dup1\n    /* \"@openzeppelin/contracts/proxy/utils/Initializable.sol\":7900:7915  $._initializing */\n  0x00\n  add\n  0x08\n  swap1\n  sload\n  swap1\n  0x0100\n  exp\n  swap1\n  div\n  0xff\n  and\n    /* \"@openzeppelin/contracts/proxy/utils/Initializable.sol\":7896:7972  if ($._initializing) {... */\n  iszero\n  tag_10\n  jumpi\n    /* \"@openzeppelin/contracts/proxy/utils/Initializable.sol\":7938:7961  InvalidInitialization() */\n  mload(0x40)\n  0xf92ee8a900000000000000000000000000000000000000000000000000000000\n  dup2\n  mstore\n  0x04\n  add\n  mload(0x40)\n  dup1\n  swap2\n  sub\n  swap1\n  revert\n    /* \"@openzeppelin/contracts/proxy/utils/Initializable.sol\":7896:7972  if ($._initializing) {... */\ntag_10:\n    /* \"@openzeppelin/contracts/proxy/utils/Initializable.sol\":8003:8019  type(uint64).max */\n  0xffffffffffffffff\n    /* \"@openzeppelin/contracts/proxy/utils/Initializable.sol\":7985:8019  $._initialized != type(uint64).max */\n  dup1\n  and\n    /* \"@openzeppelin/contracts/proxy/utils/Initializable.sol\":7985:7986  $ */\n  dup2\n    /* \"@openzeppelin/contracts/proxy/utils/Initializable.sol\":7985:7999  $._initialized */\n  0x00\n  add\n  0x00\n  swap1\n  sload\n  swap1\n  0x0100\n  exp\n  swap1\n  div\n  0xffffffffffffffff\n  and\n    /* \"@openzeppelin/contracts/proxy/utils/Initializable.sol\":7985:8019  $._initialized != type(uint64).max */\n  0xffffffffffffffff\n  and\n  eq\n    /* \"@openzeppelin/contracts/proxy/utils/Initializable.sol\":7981:8127  if ($._initialized != type(uint64).max) {... */\n  tag_11\n  jumpi\n    /* \"@openzeppelin/contracts/proxy/utils/Initializable.sol\":8052:8068  type(uint64).max */\n  0xffffffffffffffff\n    /* \"@openzeppelin/contracts/proxy/utils/Initializable.sol\":8035:8036  $ */\n  dup2\n    /* \"@openzeppelin/contracts/proxy/utils/Initializable.sol\":8035:8049  $._initialized */\n  0x00\n  add\n  0x00\n    /* \"@openzeppelin/contracts/proxy/utils/Initializable.sol\":8035:8068  $._initialized = type(uint64).max */\n  0x0100\n  exp\n  dup2\n  sload\n  dup2\n  0xffffffffffffffff\n  mul\n  not\n  and\n  swap1\n  dup4\n  0xffffffffffffffff\n  and\n  mul\n  or\n  swap1\n  sstore\n  pop\n    /* \"@openzeppelin/contracts/proxy/utils/Initializable.sol\":8087:8116  Initialized(type(uint64).max) */\n  0xc7f505b2f371ae2175ee4913f4499e1f2633a7b5936321eed1cdaeb6115181d2\n    /* \"@openzeppelin/contracts/proxy/utils/Initializable.sol\":8099:8115  type(uint64).max */\n  0xffffffffffffffff\n    /* \"@openzeppelin/contracts/proxy/utils/Initializable.sol\":8087:8116  Initialized(type(uint64).max) */\n  mload(0x40)\n  tag_12\n  swap2\n  swap1\n  tag_13\n  jump\t// in\ntag_12:\n  mload(0x40)\n  dup1\n  swap2\n  sub\n  swap1\n  log1\n    /* \"@openzeppelin/contracts/proxy/utils/Initializable.sol\":7981:8127  if ($._initialized != type(uint64).max) {... */\ntag_11:\n    /* \"@openzeppelin/contracts/proxy/utils/Initializable.sol\":7760:8133  {... */\n  pop\n    /* \"@openzeppelin/contracts/proxy/utils/Initializable.sol\":7711:8133  function _disableInitializers() internal virtual {... */\n  jump\t// out\n    /* \"@openzeppelin/contracts/proxy/utils/Initializable.sol\":8737:8907  function _getInitializableStorage() private pure returns (InitializableStorage storage $) {... */\ntag_9:\n    /* \"@openzeppelin/contracts/proxy/utils/Initializable.sol\":8795:8825  InitializableStorage storage $ */\n  0x00\n    /* \"@openzeppelin/contracts/proxy/utils/Initializable.sol\":8870:8891  INITIALIZABLE_STORAGE */\n  0xf0c57e16840df040f15088dc2f81fe391c3923bec73e23a9662efc9c229c6a00\n    /* \"@openzeppelin/contracts/proxy/utils/Initializable.sol\":8860:8891  $.slot := INITIALIZABLE_STORAGE */\n  swap1\n  pop\n    /* \"@openzeppelin/contracts/proxy/utils/Initializable.sol\":8737:8907  function _getInitializableStorage() private pure returns (InitializableStorage storage $) {... */\n  swap1\n  jump\t// out\n    /* \"#utility.yul\":7:108   */\ntag_15:\n    /* \"#utility.yul\":43:50   */\n  0x00\n    /* \"#utility.yul\":83:101   */\n  0xffffffffffffffff\n    /* \"#utility.yul\":76:81   */\n  dup3\n    /* \"#utility.yul\":72:102   */\n  and\n    /* \"#utility.yul\":61:102   */\n  swap1\n  pop\n    /* \"#utility.yul\":7:108   */\n  swap2\n  swap1\n  pop\n  jump\t// out\n    /* \"#utility.yul\":114:229   */\ntag_16:\n    /* \"#utility.yul\":199:222   */\n  tag_20\n    /* \"#utility.yul\":216:221   */\n  dup2\n    /* \"#utility.yul\":199:222   */\n  tag_15\n  jump\t// in\ntag_20:\n    /* \"#utility.yul\":194:197   */\n  dup3\n    /* \"#utility.yul\":187:223   */\n  mstore\n    /* \"#utility.yul\":114:229   */\n  pop\n  pop\n  jump\t// out\n    /* \"#utility.yul\":235:453   */\ntag_13:\n    /* \"#utility.yul\":326:330   */\n  0x00\n    /* \"#utility.yul\":364:366   */\n  0x20\n    /* \"#utility.yul\":353:362   */\n  dup3\n    /* \"#utility.yul\":349:367   */\n  add\n    /* \"#utility.yul\":341:367   */\n  swap1\n  pop\n    /* \"#utility.yul\":377:446   */\n  tag_22\n    /* \"#utility.yul\":443:444   */\n  0x00\n    /* \"#utility.yul\":432:441   */\n  dup4\n    /* \"#utility.yul\":428:445   */\n  add\n    /* \"#utility.yul\":419:425   */\n  dup5\n    /* \"#utility.yul\":377:446   */\n  tag_16\n  jump\t// in\ntag_22:\n    /* \"#utility.yul\":235:453   */\n  swap3\n  swap2\n  pop\n  pop\n  jump\t// out\n    /* \"Mock\\\\mockOracle.sol\":418:1199  contract MockOracle is UUPSUpgradeable, Initializable {... */\ntag_6:\n  mload(0x80)\n  codecopy(0x00, dataOffset(sub_0), dataSize(sub_0))\n  0x00\n  assignImmutable(\"0x71c24ce59180130dc1b5c3ebcbddeb1cf32dae46f5ec55f50a3074f581ef8c07\")\n  return(0x00, dataSize(sub_0))\nstop\n\nsub_0: assembly {\n        /* \"Mock\\\\mockOracle.sol\":418:1199  contract MockOracle is UUPSUpgradeable, Initializable {... */\n      mstore(0x40, 0x80)\n      jumpi(tag_1, lt(calldatasize, 0x04))\n      shr(0xe0, calldataload(0x00))\n      dup1\n      0x52d1902d\n      gt\n      tag_9\n      jumpi\n      dup1\n      0x52d1902d\n      eq\n      tag_5\n      jumpi\n      dup1\n      0x60846bc6\n      eq\n      tag_6\n      jumpi\n      dup1\n      0x8129fc1c\n      eq\n      tag_7\n      jumpi\n      dup1\n      0xad3cb1cc\n      eq\n      tag_8\n      jumpi\n      jump(tag_1)\n    tag_9:\n      dup1\n      0x1cfdd523\n      eq\n      tag_2\n      jumpi\n      dup1\n      0x26ee4836\n      eq\n      tag_3\n      jumpi\n      dup1\n      0x4f1ef286\n      eq\n      tag_4\n      jumpi\n    tag_1:\n      0x00\n      dup1\n      revert\n        /* \"Mock\\\\mockOracle.sol\":530:723  function setPrices (bytes32[] calldata topics, uint256[] calldata values) external {... */\n    tag_2:\n      callvalue\n      dup1\n      iszero\n      tag_10\n      jumpi\n      0x00\n      dup1\n      revert\n    tag_10:\n      pop\n      tag_11\n      0x04\n      dup1\n      calldatasize\n      sub\n      dup2\n      add\n      swap1\n      tag_12\n      swap2\n      swap1\n      tag_13\n      jump\t// in\n    tag_12:\n      tag_14\n      jump\t// in\n    tag_11:\n      stop\n        /* \"Mock\\\\mockOracle.sol\":731:987  function getPrices (bytes32[] calldata topics) external view returns (uint256[] memory results) {... */\n    tag_3:\n      callvalue\n      dup1\n      iszero\n      tag_15\n      jumpi\n      0x00\n      dup1\n      revert\n    tag_15:\n      pop\n      tag_16\n      0x04\n      dup1\n      calldatasize\n      sub\n      dup2\n      add\n      swap1\n      tag_17\n      swap2\n      swap1\n      tag_18\n      jump\t// in\n    tag_17:\n      tag_19\n      jump\t// in\n    tag_16:\n      mload(0x40)\n      tag_20\n      swap2\n      swap1\n      tag_21\n      jump\t// in\n    tag_20:\n      mload(0x40)\n      dup1\n      swap2\n      sub\n      swap1\n      return\n        /* \"@openzeppelin/contracts/proxy/utils/UUPSUpgradeable.sol\":3892:4106  function upgradeToAndCall(address newImplementation, bytes memory data) public payable virtual onlyProxy {... */\n    tag_4:\n      tag_22\n      0x04\n      dup1\n      calldatasize\n      sub\n      dup2\n      add\n      swap1\n      tag_23\n      swap2\n      swap1\n      tag_24\n      jump\t// in\n    tag_23:\n      tag_25\n      jump\t// in\n    tag_22:\n      stop\n        /* \"@openzeppelin/contracts/proxy/utils/UUPSUpgradeable.sol\":3439:3573  function proxiableUUID() external view virtual notDelegated returns (bytes32) {... */\n    tag_5:\n      callvalue\n      dup1\n      iszero\n      tag_26\n      jumpi\n      0x00\n      dup1\n      revert\n    tag_26:\n      pop\n      tag_27\n      tag_28\n      jump\t// in\n    tag_27:\n      mload(0x40)\n      tag_29\n      swap2\n      swap1\n      tag_30\n      jump\t// in\n    tag_29:\n      mload(0x40)\n      dup1\n      swap2\n      sub\n      swap1\n      return\n        /* \"Mock\\\\mockOracle.sol\":479:521  mapping (bytes32 => uint256) public prices */\n    tag_6:\n      callvalue\n      dup1\n      iszero\n      tag_31\n      jumpi\n      0x00\n      dup1\n      revert\n    tag_31:\n      pop\n      tag_32\n      0x04\n      dup1\n      calldatasize\n      sub\n      dup2\n      add\n      swap1\n      tag_33\n      swap2\n      swap1\n      tag_34\n      jump\t// in\n    tag_33:\n      tag_35\n      jump\t// in\n    tag_32:\n      mload(0x40)\n      tag_36\n      swap2\n      swap1\n      tag_37\n      jump\t// in\n    tag_36:\n      mload(0x40)\n      dup1\n      swap2\n      sub\n      swap1\n      return\n        /* \"Mock\\\\mockOracle.sol\":999:1049  function initialize () public initializer {... */\n    tag_7:\n      callvalue\n      dup1\n      iszero\n      tag_38\n      jumpi\n      0x00\n      dup1\n      revert\n    tag_38:\n      pop\n      tag_39\n      tag_40\n      jump\t// in\n    tag_39:\n      stop\n        /* \"@openzeppelin/contracts/proxy/utils/UUPSUpgradeable.sol\":1708:1766  string public constant UPGRADE_INTERFACE_VERSION = \"5.0.0\" */\n    tag_8:\n      callvalue\n      dup1\n      iszero\n      tag_41\n      jumpi\n      0x00\n      dup1\n      revert\n    tag_41:\n      pop\n      tag_42\n      tag_43\n      jump\t// in\n    tag_42:\n      mload(0x40)\n      tag_44\n      swap2\n      swap1\n      tag_45\n      jump\t// in\n    tag_44:\n      mload(0x40)\n      dup1\n      swap2\n      sub\n      swap1\n      return\n        /* \"Mock\\\\mockOracle.sol\":530:723  function setPrices (bytes32[] calldata topics, uint256[] calldata values) external {... */\n    tag_14:\n        /* \"Mock\\\\mockOracle.sol\":628:635  uint8 i */\n      0x00\n        /* \"Mock\\\\mockOracle.sol\":624:716  for(uint8 i=0; i<topics.length; i++){... */\n    tag_47:\n        /* \"Mock\\\\mockOracle.sol\":641:647  topics */\n      dup5\n      dup5\n        /* \"Mock\\\\mockOracle.sol\":641:654  topics.length */\n      swap1\n      pop\n        /* \"Mock\\\\mockOracle.sol\":639:640  i */\n      dup2\n        /* \"Mock\\\\mockOracle.sol\":639:654  i<topics.length */\n      0xff\n      and\n      lt\n        /* \"Mock\\\\mockOracle.sol\":624:716  for(uint8 i=0; i<topics.length; i++){... */\n      iszero\n      tag_48\n      jumpi\n        /* \"Mock\\\\mockOracle.sol\":695:701  values */\n      dup3\n      dup3\n        /* \"Mock\\\\mockOracle.sol\":702:703  i */\n      dup3\n        /* \"Mock\\\\mockOracle.sol\":695:704  values[i] */\n      0xff\n      and\n      dup2\n      dup2\n      lt\n      tag_50\n      jumpi\n      tag_51\n      tag_52\n      jump\t// in\n    tag_51:\n    tag_50:\n      swap1\n      pop\n      0x20\n      mul\n      add\n      calldataload\n        /* \"Mock\\\\mockOracle.sol\":675:681  prices */\n      0x00\n        /* \"Mock\\\\mockOracle.sol\":675:692  prices[topics[i]] */\n      dup1\n        /* \"Mock\\\\mockOracle.sol\":682:688  topics */\n      dup8\n      dup8\n        /* \"Mock\\\\mockOracle.sol\":689:690  i */\n      dup6\n        /* \"Mock\\\\mockOracle.sol\":682:691  topics[i] */\n      0xff\n      and\n      dup2\n      dup2\n      lt\n      tag_53\n      jumpi\n      tag_54\n      tag_52\n      jump\t// in\n    tag_54:\n    tag_53:\n      swap1\n      pop\n      0x20\n      mul\n      add\n      calldataload\n        /* \"Mock\\\\mockOracle.sol\":675:692  prices[topics[i]] */\n      dup2\n      mstore\n      0x20\n      add\n      swap1\n      dup2\n      mstore\n      0x20\n      add\n      0x00\n      keccak256\n        /* \"Mock\\\\mockOracle.sol\":675:704  prices[topics[i]] = values[i] */\n      dup2\n      swap1\n      sstore\n      pop\n        /* \"Mock\\\\mockOracle.sol\":656:659  i++ */\n      dup1\n      dup1\n      tag_55\n      swap1\n      tag_56\n      jump\t// in\n    tag_55:\n      swap2\n      pop\n      pop\n        /* \"Mock\\\\mockOracle.sol\":624:716  for(uint8 i=0; i<topics.length; i++){... */\n      jump(tag_47)\n    tag_48:\n      pop\n        /* \"Mock\\\\mockOracle.sol\":530:723  function setPrices (bytes32[] calldata topics, uint256[] calldata values) external {... */\n      pop\n      pop\n      pop\n      pop\n      jump\t// out\n        /* \"Mock\\\\mockOracle.sol\":731:987  function getPrices (bytes32[] calldata topics) external view returns (uint256[] memory results) {... */\n    tag_19:\n        /* \"Mock\\\\mockOracle.sol\":801:825  uint256[] memory results */\n      0x60\n        /* \"Mock\\\\mockOracle.sol\":862:868  topics */\n      dup3\n      dup3\n        /* \"Mock\\\\mockOracle.sol\":862:875  topics.length */\n      swap1\n      pop\n        /* \"Mock\\\\mockOracle.sol\":848:876  new uint256[](topics.length) */\n      0xffffffffffffffff\n      dup2\n      gt\n      iszero\n      tag_58\n      jumpi\n      tag_59\n      tag_60\n      jump\t// in\n    tag_59:\n    tag_58:\n      mload(0x40)\n      swap1\n      dup1\n      dup3\n      mstore\n      dup1\n      0x20\n      mul\n      0x20\n      add\n      dup3\n      add\n      0x40\n      mstore\n      dup1\n      iszero\n      tag_61\n      jumpi\n      dup2\n      0x20\n      add\n      0x20\n      dup3\n      mul\n      dup1\n      calldatasize\n      dup4\n      calldatacopy\n      dup1\n      dup3\n      add\n      swap2\n      pop\n      pop\n      swap1\n      pop\n    tag_61:\n      pop\n        /* \"Mock\\\\mockOracle.sol\":838:876  results = new uint256[](topics.length) */\n      swap1\n      pop\n        /* \"Mock\\\\mockOracle.sol\":891:898  uint8 i */\n      0x00\n        /* \"Mock\\\\mockOracle.sol\":887:980  for(uint8 i=0; i<topics.length; i++){... */\n    tag_62:\n        /* \"Mock\\\\mockOracle.sol\":904:910  topics */\n      dup4\n      dup4\n        /* \"Mock\\\\mockOracle.sol\":904:917  topics.length */\n      swap1\n      pop\n        /* \"Mock\\\\mockOracle.sol\":902:903  i */\n      dup2\n        /* \"Mock\\\\mockOracle.sol\":902:917  i<topics.length */\n      0xff\n      and\n      lt\n        /* \"Mock\\\\mockOracle.sol\":887:980  for(uint8 i=0; i<topics.length; i++){... */\n      iszero\n      tag_63\n      jumpi\n        /* \"Mock\\\\mockOracle.sol\":951:957  prices */\n      0x00\n        /* \"Mock\\\\mockOracle.sol\":951:968  prices[topics[i]] */\n      dup1\n        /* \"Mock\\\\mockOracle.sol\":958:964  topics */\n      dup6\n      dup6\n        /* \"Mock\\\\mockOracle.sol\":965:966  i */\n      dup5\n        /* \"Mock\\\\mockOracle.sol\":958:967  topics[i] */\n      0xff\n      and\n      dup2\n      dup2\n      lt\n      tag_65\n      jumpi\n      tag_66\n      tag_52\n      jump\t// in\n    tag_66:\n    tag_65:\n      swap1\n      pop\n      0x20\n      mul\n      add\n      calldataload\n        /* \"Mock\\\\mockOracle.sol\":951:968  prices[topics[i]] */\n      dup2\n      mstore\n      0x20\n      add\n      swap1\n      dup2\n      mstore\n      0x20\n      add\n      0x00\n      keccak256\n      sload\n        /* \"Mock\\\\mockOracle.sol\":938:945  results */\n      dup3\n        /* \"Mock\\\\mockOracle.sol\":946:947  i */\n      dup3\n        /* \"Mock\\\\mockOracle.sol\":938:948  results[i] */\n      0xff\n      and\n      dup2\n      mload\n      dup2\n      lt\n      tag_67\n      jumpi\n      tag_68\n      tag_52\n      jump\t// in\n    tag_68:\n    tag_67:\n      0x20\n      mul\n      0x20\n      add\n      add\n        /* \"Mock\\\\mockOracle.sol\":938:968  results[i] = prices[topics[i]] */\n      dup2\n      dup2\n      mstore\n      pop\n      pop\n        /* \"Mock\\\\mockOracle.sol\":919:922  i++ */\n      dup1\n      dup1\n      tag_69\n      swap1\n      tag_56\n      jump\t// in\n    tag_69:\n      swap2\n      pop\n      pop\n        /* \"Mock\\\\mockOracle.sol\":887:980  for(uint8 i=0; i<topics.length; i++){... */\n      jump(tag_62)\n    tag_63:\n      pop\n        /* \"Mock\\\\mockOracle.sol\":731:987  function getPrices (bytes32[] calldata topics) external view returns (uint256[] memory results) {... */\n      swap3\n      swap2\n      pop\n      pop\n      jump\t// out\n        /* \"@openzeppelin/contracts/proxy/utils/UUPSUpgradeable.sol\":3892:4106  function upgradeToAndCall(address newImplementation, bytes memory data) public payable virtual onlyProxy {... */\n    tag_25:\n        /* \"@openzeppelin/contracts/proxy/utils/UUPSUpgradeable.sol\":2542:2555  _checkProxy() */\n      tag_71\n        /* \"@openzeppelin/contracts/proxy/utils/UUPSUpgradeable.sol\":2542:2553  _checkProxy */\n      tag_72\n        /* \"@openzeppelin/contracts/proxy/utils/UUPSUpgradeable.sol\":2542:2555  _checkProxy() */\n      jump\t// in\n    tag_71:\n        /* \"@openzeppelin/contracts/proxy/utils/UUPSUpgradeable.sol\":4007:4043  _authorizeUpgrade(newImplementation) */\n      tag_74\n        /* \"@openzeppelin/contracts/proxy/utils/UUPSUpgradeable.sol\":4025:4042  newImplementation */\n      dup3\n        /* \"@openzeppelin/contracts/proxy/utils/UUPSUpgradeable.sol\":4007:4024  _authorizeUpgrade */\n      tag_75\n        /* \"@openzeppelin/contracts/proxy/utils/UUPSUpgradeable.sol\":4007:4043  _authorizeUpgrade(newImplementation) */\n      jump\t// in\n    tag_74:\n        /* \"@openzeppelin/contracts/proxy/utils/UUPSUpgradeable.sol\":4053:4099  _upgradeToAndCallUUPS(newImplementation, data) */\n      tag_76\n        /* \"@openzeppelin/contracts/proxy/utils/UUPSUpgradeable.sol\":4075:4092  newImplementation */\n      dup3\n        /* \"@openzeppelin/contracts/proxy/utils/UUPSUpgradeable.sol\":4094:4098  data */\n      dup3\n        /* \"@openzeppelin/contracts/proxy/utils/UUPSUpgradeable.sol\":4053:4074  _upgradeToAndCallUUPS */\n      tag_77\n        /* \"@openzeppelin/contracts/proxy/utils/UUPSUpgradeable.sol\":4053:4099  _upgradeToAndCallUUPS(newImplementation, data) */\n      jump\t// in\n    tag_76:\n        /* \"@openzeppelin/contracts/proxy/utils/UUPSUpgradeable.sol\":3892:4106  function upgradeToAndCall(address newImplementation, bytes memory data) public payable virtual onlyProxy {... */\n      pop\n      pop\n      jump\t// out\n        /* \"@openzeppelin/contracts/proxy/utils/UUPSUpgradeable.sol\":3439:3573  function proxiableUUID() external view virtual notDelegated returns (bytes32) {... */\n    tag_28:\n        /* \"@openzeppelin/contracts/proxy/utils/UUPSUpgradeable.sol\":3508:3515  bytes32 */\n      0x00\n        /* \"@openzeppelin/contracts/proxy/utils/UUPSUpgradeable.sol\":2813:2833  _checkNotDelegated() */\n      tag_79\n        /* \"@openzeppelin/contracts/proxy/utils/UUPSUpgradeable.sol\":2813:2831  _checkNotDelegated */\n      tag_80\n        /* \"@openzeppelin/contracts/proxy/utils/UUPSUpgradeable.sol\":2813:2833  _checkNotDelegated() */\n      jump\t// in\n    tag_79:\n        /* \"@openzeppelin/contracts/proxy/ERC1967/ERC1967Utils.sol\":1327:1393  0x360894a13ba1a3210667c828492db98dca3e2076cc3735a920a3ca505d382bbc */\n      0x360894a13ba1a3210667c828492db98dca3e2076cc3735a920a3ca505d382bbc\n        /* \"@openzeppelin/contracts/proxy/utils/UUPSUpgradeable.sol\":3534:3566  ERC1967Utils.IMPLEMENTATION_SLOT */\n      0x00\n      shl\n        /* \"@openzeppelin/contracts/proxy/utils/UUPSUpgradeable.sol\":3527:3566  return ERC1967Utils.IMPLEMENTATION_SLOT */\n      swap1\n      pop\n        /* \"@openzeppelin/contracts/proxy/utils/UUPSUpgradeable.sol\":3439:3573  function proxiableUUID() external view virtual notDelegated returns (bytes32) {... */\n      swap1\n      jump\t// out\n        /* \"Mock\\\\mockOracle.sol\":479:521  mapping (bytes32 => uint256) public prices */\n    tag_35:\n      mstore(0x20, 0x00)\n      dup1\n      0x00\n      mstore\n      keccak256(0x00, 0x40)\n      0x00\n      swap2\n      pop\n      swap1\n      pop\n      sload\n      dup2\n      jump\t// out\n        /* \"Mock\\\\mockOracle.sol\":999:1049  function initialize () public initializer {... */\n    tag_40:\n        /* \"@openzeppelin/contracts/proxy/utils/Initializable.sol\":4158:4188  InitializableStorage storage $ */\n      0x00\n        /* \"@openzeppelin/contracts/proxy/utils/Initializable.sol\":4191:4217  _getInitializableStorage() */\n      tag_83\n        /* \"@openzeppelin/contracts/proxy/utils/Initializable.sol\":4191:4215  _getInitializableStorage */\n      tag_84\n        /* \"@openzeppelin/contracts/proxy/utils/Initializable.sol\":4191:4217  _getInitializableStorage() */\n      jump\t// in\n    tag_83:\n        /* \"@openzeppelin/contracts/proxy/utils/Initializable.sol\":4158:4217  InitializableStorage storage $ = _getInitializableStorage() */\n      swap1\n      pop\n        /* \"@openzeppelin/contracts/proxy/utils/Initializable.sol\":4279:4298  bool isTopLevelCall */\n      0x00\n        /* \"@openzeppelin/contracts/proxy/utils/Initializable.sol\":4302:4303  $ */\n      dup2\n        /* \"@openzeppelin/contracts/proxy/utils/Initializable.sol\":4302:4317  $._initializing */\n      0x00\n      add\n      0x08\n      swap1\n      sload\n      swap1\n      0x0100\n      exp\n      swap1\n      div\n      0xff\n      and\n        /* \"@openzeppelin/contracts/proxy/utils/Initializable.sol\":4301:4317  !$._initializing */\n      iszero\n        /* \"@openzeppelin/contracts/proxy/utils/Initializable.sol\":4279:4317  bool isTopLevelCall = !$._initializing */\n      swap1\n      pop\n        /* \"@openzeppelin/contracts/proxy/utils/Initializable.sol\":4327:4345  uint64 initialized */\n      0x00\n        /* \"@openzeppelin/contracts/proxy/utils/Initializable.sol\":4348:4349  $ */\n      dup3\n        /* \"@openzeppelin/contracts/proxy/utils/Initializable.sol\":4348:4362  $._initialized */\n      0x00\n      add\n      0x00\n      swap1\n      sload\n      swap1\n      0x0100\n      exp\n      swap1\n      div\n      0xffffffffffffffff\n      and\n        /* \"@openzeppelin/contracts/proxy/utils/Initializable.sol\":4327:4362  uint64 initialized = $._initialized */\n      swap1\n      pop\n        /* \"@openzeppelin/contracts/proxy/utils/Initializable.sol\":4706:4723  bool initialSetup */\n      0x00\n        /* \"@openzeppelin/contracts/proxy/utils/Initializable.sol\":4741:4742  0 */\n      dup1\n        /* \"@openzeppelin/contracts/proxy/utils/Initializable.sol\":4726:4737  initialized */\n      dup3\n        /* \"@openzeppelin/contracts/proxy/utils/Initializable.sol\":4726:4742  initialized == 0 */\n      0xffffffffffffffff\n      and\n      eq\n        /* \"@openzeppelin/contracts/proxy/utils/Initializable.sol\":4726:4760  initialized == 0 && isTopLevelCall */\n      dup1\n      iszero\n      tag_85\n      jumpi\n      pop\n        /* \"@openzeppelin/contracts/proxy/utils/Initializable.sol\":4746:4760  isTopLevelCall */\n      dup3\n        /* \"@openzeppelin/contracts/proxy/utils/Initializable.sol\":4726:4760  initialized == 0 && isTopLevelCall */\n    tag_85:\n        /* \"@openzeppelin/contracts/proxy/utils/Initializable.sol\":4706:4760  bool initialSetup = initialized == 0 && isTopLevelCall */\n      swap1\n      pop\n        /* \"@openzeppelin/contracts/proxy/utils/Initializable.sol\":4770:4787  bool construction */\n      0x00\n        /* \"@openzeppelin/contracts/proxy/utils/Initializable.sol\":4805:4806  1 */\n      0x01\n        /* \"@openzeppelin/contracts/proxy/utils/Initializable.sol\":4790:4801  initialized */\n      dup4\n        /* \"@openzeppelin/contracts/proxy/utils/Initializable.sol\":4790:4806  initialized == 1 */\n      0xffffffffffffffff\n      and\n      eq\n        /* \"@openzeppelin/contracts/proxy/utils/Initializable.sol\":4790:4840  initialized == 1 && address(this).code.length == 0 */\n      dup1\n      iszero\n      tag_86\n      jumpi\n      pop\n        /* \"@openzeppelin/contracts/proxy/utils/Initializable.sol\":4839:4840  0 */\n      0x00\n        /* \"@openzeppelin/contracts/proxy/utils/Initializable.sol\":4818:4822  this */\n      address\n        /* \"@openzeppelin/contracts/proxy/utils/Initializable.sol\":4810:4835  address(this).code.length */\n      0xffffffffffffffffffffffffffffffffffffffff\n      and\n      extcodesize\n        /* \"@openzeppelin/contracts/proxy/utils/Initializable.sol\":4810:4840  address(this).code.length == 0 */\n      eq\n        /* \"@openzeppelin/contracts/proxy/utils/Initializable.sol\":4790:4840  initialized == 1 && address(this).code.length == 0 */\n    tag_86:\n        /* \"@openzeppelin/contracts/proxy/utils/Initializable.sol\":4770:4840  bool construction = initialized == 1 && address(this).code.length == 0 */\n      swap1\n      pop\n        /* \"@openzeppelin/contracts/proxy/utils/Initializable.sol\":4856:4868  initialSetup */\n      dup2\n        /* \"@openzeppelin/contracts/proxy/utils/Initializable.sol\":4855:4868  !initialSetup */\n      iszero\n        /* \"@openzeppelin/contracts/proxy/utils/Initializable.sol\":4855:4885  !initialSetup && !construction */\n      dup1\n      iszero\n      tag_87\n      jumpi\n      pop\n        /* \"@openzeppelin/contracts/proxy/utils/Initializable.sol\":4873:4885  construction */\n      dup1\n        /* \"@openzeppelin/contracts/proxy/utils/Initializable.sol\":4872:4885  !construction */\n      iszero\n        /* \"@openzeppelin/contracts/proxy/utils/Initializable.sol\":4855:4885  !initialSetup && !construction */\n    tag_87:\n        /* \"@openzeppelin/contracts/proxy/utils/Initializable.sol\":4851:4942  if (!initialSetup && !construction) {... */\n      iszero\n      tag_88\n      jumpi\n        /* \"@openzeppelin/contracts/proxy/utils/Initializable.sol\":4908:4931  InvalidInitialization() */\n      mload(0x40)\n      0xf92ee8a900000000000000000000000000000000000000000000000000000000\n      dup2\n      mstore\n      0x04\n      add\n      mload(0x40)\n      dup1\n      swap2\n      sub\n      swap1\n      revert\n        /* \"@openzeppelin/contracts/proxy/utils/Initializable.sol\":4851:4942  if (!initialSetup && !construction) {... */\n    tag_88:\n        /* \"@openzeppelin/contracts/proxy/utils/Initializable.sol\":4968:4969  1 */\n      0x01\n        /* \"@openzeppelin/contracts/proxy/utils/Initializable.sol\":4951:4952  $ */\n      dup6\n        /* \"@openzeppelin/contracts/proxy/utils/Initializable.sol\":4951:4965  $._initialized */\n      0x00\n      add\n      0x00\n        /* \"@openzeppelin/contracts/proxy/utils/Initializable.sol\":4951:4969  $._initialized = 1 */\n      0x0100\n      exp\n      dup2\n      sload\n      dup2\n      0xffffffffffffffff\n      mul\n      not\n      and\n      swap1\n      dup4\n      0xffffffffffffffff\n      and\n      mul\n      or\n      swap1\n      sstore\n      pop\n        /* \"@openzeppelin/contracts/proxy/utils/Initializable.sol\":4983:4997  isTopLevelCall */\n      dup4\n        /* \"@openzeppelin/contracts/proxy/utils/Initializable.sol\":4979:5046  if (isTopLevelCall) {... */\n      iszero\n      tag_89\n      jumpi\n        /* \"@openzeppelin/contracts/proxy/utils/Initializable.sol\":5031:5035  true */\n      0x01\n        /* \"@openzeppelin/contracts/proxy/utils/Initializable.sol\":5013:5014  $ */\n      dup6\n        /* \"@openzeppelin/contracts/proxy/utils/Initializable.sol\":5013:5028  $._initializing */\n      0x00\n      add\n      0x08\n        /* \"@openzeppelin/contracts/proxy/utils/Initializable.sol\":5013:5035  $._initializing = true */\n      0x0100\n      exp\n      dup2\n      sload\n      dup2\n      0xff\n      mul\n      not\n      and\n      swap1\n      dup4\n      iszero\n      iszero\n      mul\n      or\n      swap1\n      sstore\n      pop\n        /* \"@openzeppelin/contracts/proxy/utils/Initializable.sol\":4979:5046  if (isTopLevelCall) {... */\n    tag_89:\n        /* \"@openzeppelin/contracts/proxy/utils/Initializable.sol\":5070:5084  isTopLevelCall */\n      dup4\n        /* \"@openzeppelin/contracts/proxy/utils/Initializable.sol\":5066:5167  if (isTopLevelCall) {... */\n      iszero\n      tag_91\n      jumpi\n        /* \"@openzeppelin/contracts/proxy/utils/Initializable.sol\":5118:5123  false */\n      0x00\n        /* \"@openzeppelin/contracts/proxy/utils/Initializable.sol\":5100:5101  $ */\n      dup6\n        /* \"@openzeppelin/contracts/proxy/utils/Initializable.sol\":5100:5115  $._initializing */\n      0x00\n      add\n      0x08\n        /* \"@openzeppelin/contracts/proxy/utils/Initializable.sol\":5100:5123  $._initializing = false */\n      0x0100\n      exp\n      dup2\n      sload\n      dup2\n      0xff\n      mul\n      not\n      and\n      swap1\n      dup4\n      iszero\n      iszero\n      mul\n      or\n      swap1\n      sstore\n      pop\n        /* \"@openzeppelin/contracts/proxy/utils/Initializable.sol\":5142:5156  Initialized(1) */\n      0xc7f505b2f371ae2175ee4913f4499e1f2633a7b5936321eed1cdaeb6115181d2\n        /* \"@openzeppelin/contracts/proxy/utils/Initializable.sol\":5154:5155  1 */\n      0x01\n        /* \"@openzeppelin/contracts/proxy/utils/Initializable.sol\":5142:5156  Initialized(1) */\n      mload(0x40)\n      tag_92\n      swap2\n      swap1\n      tag_93\n      jump\t// in\n    tag_92:\n      mload(0x40)\n      dup1\n      swap2\n      sub\n      swap1\n      log1\n        /* \"@openzeppelin/contracts/proxy/utils/Initializable.sol\":5066:5167  if (isTopLevelCall) {... */\n    tag_91:\n        /* \"@openzeppelin/contracts/proxy/utils/Initializable.sol\":4092:5173  {... */\n      pop\n      pop\n      pop\n      pop\n      pop\n        /* \"Mock\\\\mockOracle.sol\":999:1049  function initialize () public initializer {... */\n      jump\t// out\n        /* \"@openzeppelin/contracts/proxy/utils/UUPSUpgradeable.sol\":1708:1766  string public constant UPGRADE_INTERFACE_VERSION = \"5.0.0\" */\n    tag_43:\n      mload(0x40)\n      dup1\n      0x40\n      add\n      0x40\n      mstore\n      dup1\n      0x05\n      dup2\n      mstore\n      0x20\n      add\n      0x352e302e30000000000000000000000000000000000000000000000000000000\n      dup2\n      mstore\n      pop\n      dup2\n      jump\t// out\n        /* \"@openzeppelin/contracts/proxy/utils/UUPSUpgradeable.sol\":4333:4645  function _checkProxy() internal view virtual {... */\n    tag_72:\n        /* \"@openzeppelin/contracts/proxy/utils/UUPSUpgradeable.sol\":4422:4428  __self */\n      immutable(\"0x71c24ce59180130dc1b5c3ebcbddeb1cf32dae46f5ec55f50a3074f581ef8c07\")\n        /* \"@openzeppelin/contracts/proxy/utils/UUPSUpgradeable.sol\":4405:4428  address(this) == __self */\n      0xffffffffffffffffffffffffffffffffffffffff\n      and\n        /* \"@openzeppelin/contracts/proxy/utils/UUPSUpgradeable.sol\":4413:4417  this */\n      address\n        /* \"@openzeppelin/contracts/proxy/utils/UUPSUpgradeable.sol\":4405:4428  address(this) == __self */\n      0xffffffffffffffffffffffffffffffffffffffff\n      and\n      eq\n        /* \"@openzeppelin/contracts/proxy/utils/UUPSUpgradeable.sol\":4405:4525  address(this) == __self || // Must be called through delegatecall... */\n      dup1\n      tag_95\n      jumpi\n      pop\n        /* \"@openzeppelin/contracts/proxy/utils/UUPSUpgradeable.sol\":4519:4525  __self */\n      immutable(\"0x71c24ce59180130dc1b5c3ebcbddeb1cf32dae46f5ec55f50a3074f581ef8c07\")\n        /* \"@openzeppelin/contracts/proxy/utils/UUPSUpgradeable.sol\":4483:4525  ERC1967Utils.getImplementation() != __self */\n      0xffffffffffffffffffffffffffffffffffffffff\n      and\n        /* \"@openzeppelin/contracts/proxy/utils/UUPSUpgradeable.sol\":4483:4515  ERC1967Utils.getImplementation() */\n      tag_96\n        /* \"@openzeppelin/contracts/proxy/utils/UUPSUpgradeable.sol\":4483:4513  ERC1967Utils.getImplementation */\n      tag_97\n        /* \"@openzeppelin/contracts/proxy/utils/UUPSUpgradeable.sol\":4483:4515  ERC1967Utils.getImplementation() */\n      jump\t// in\n    tag_96:\n        /* \"@openzeppelin/contracts/proxy/utils/UUPSUpgradeable.sol\":4483:4525  ERC1967Utils.getImplementation() != __self */\n      0xffffffffffffffffffffffffffffffffffffffff\n      and\n      eq\n      iszero\n        /* \"@openzeppelin/contracts/proxy/utils/UUPSUpgradeable.sol\":4405:4525  address(this) == __self || // Must be called through delegatecall... */\n    tag_95:\n        /* \"@openzeppelin/contracts/proxy/utils/UUPSUpgradeable.sol\":4388:4639  if (... */\n      iszero\n      tag_98\n      jumpi\n        /* \"@openzeppelin/contracts/proxy/utils/UUPSUpgradeable.sol\":4599:4628  UUPSUnauthorizedCallContext() */\n      mload(0x40)\n      0xe07c8dba00000000000000000000000000000000000000000000000000000000\n      dup2\n      mstore\n      0x04\n      add\n      mload(0x40)\n      dup1\n      swap2\n      sub\n      swap1\n      revert\n        /* \"@openzeppelin/contracts/proxy/utils/UUPSUpgradeable.sol\":4388:4639  if (... */\n    tag_98:\n        /* \"@openzeppelin/contracts/proxy/utils/UUPSUpgradeable.sol\":4333:4645  function _checkProxy() internal view virtual {... */\n      jump\t// out\n        /* \"Mock\\\\mockOracle.sol\":1121:1196  function _authorizeUpgrade (address newImplementation) internal override {} */\n    tag_75:\n      pop\n      jump\t// out\n        /* \"@openzeppelin/contracts/proxy/utils/UUPSUpgradeable.sol\":5786:6324  function _upgradeToAndCallUUPS(address newImplementation, bytes memory data) private {... */\n    tag_77:\n        /* \"@openzeppelin/contracts/proxy/utils/UUPSUpgradeable.sol\":5903:5920  newImplementation */\n      dup2\n        /* \"@openzeppelin/contracts/proxy/utils/UUPSUpgradeable.sol\":5885:5935  IERC1822Proxiable(newImplementation).proxiableUUID */\n      0xffffffffffffffffffffffffffffffffffffffff\n      and\n      0x52d1902d\n        /* \"@openzeppelin/contracts/proxy/utils/UUPSUpgradeable.sol\":5885:5937  IERC1822Proxiable(newImplementation).proxiableUUID() */\n      mload(0x40)\n      dup2\n      0xffffffff\n      and\n      0xe0\n      shl\n      dup2\n      mstore\n      0x04\n      add\n      0x20\n      mload(0x40)\n      dup1\n      dup4\n      sub\n      dup2\n      dup7\n      gas\n      staticcall\n      swap3\n      pop\n      pop\n      pop\n      dup1\n      iszero\n      tag_101\n      jumpi\n      pop\n      mload(0x40)\n      returndatasize\n      not(0x1f)\n      0x1f\n      dup3\n      add\n      and\n      dup3\n      add\n      dup1\n      0x40\n      mstore\n      pop\n      dup2\n      add\n      swap1\n      tag_102\n      swap2\n      swap1\n      tag_103\n      jump\t// in\n    tag_102:\n      0x01\n    tag_101:\n        /* \"@openzeppelin/contracts/proxy/utils/UUPSUpgradeable.sol\":5881:6318  try IERC1822Proxiable(newImplementation).proxiableUUID() returns (bytes32 slot) {... */\n      tag_104\n      jumpi\n        /* \"@openzeppelin/contracts/proxy/utils/UUPSUpgradeable.sol\":6289:6306  newImplementation */\n      dup2\n        /* \"@openzeppelin/contracts/proxy/utils/UUPSUpgradeable.sol\":6247:6307  ERC1967Utils.ERC1967InvalidImplementation(newImplementation) */\n      mload(0x40)\n      0x4c9c8ce300000000000000000000000000000000000000000000000000000000\n      dup2\n      mstore\n      0x04\n      add\n      tag_108\n      swap2\n      swap1\n      tag_109\n      jump\t// in\n    tag_108:\n      mload(0x40)\n      dup1\n      swap2\n      sub\n      swap1\n      revert\n        /* \"@openzeppelin/contracts/proxy/utils/UUPSUpgradeable.sol\":5881:6318  try IERC1822Proxiable(newImplementation).proxiableUUID() returns (bytes32 slot) {... */\n    tag_104:\n        /* \"@openzeppelin/contracts/proxy/ERC1967/ERC1967Utils.sol\":1327:1393  0x360894a13ba1a3210667c828492db98dca3e2076cc3735a920a3ca505d382bbc */\n      0x360894a13ba1a3210667c828492db98dca3e2076cc3735a920a3ca505d382bbc\n        /* \"@openzeppelin/contracts/proxy/utils/UUPSUpgradeable.sol\":5987:6019  ERC1967Utils.IMPLEMENTATION_SLOT */\n      0x00\n      shl\n        /* \"@openzeppelin/contracts/proxy/utils/UUPSUpgradeable.sol\":5979:5983  slot */\n      dup2\n        /* \"@openzeppelin/contracts/proxy/utils/UUPSUpgradeable.sol\":5979:6019  slot != ERC1967Utils.IMPLEMENTATION_SLOT */\n      eq\n        /* \"@openzeppelin/contracts/proxy/utils/UUPSUpgradeable.sol\":5975:6095  if (slot != ERC1967Utils.IMPLEMENTATION_SLOT) {... */\n      tag_111\n      jumpi\n        /* \"@openzeppelin/contracts/proxy/utils/UUPSUpgradeable.sol\":6075:6079  slot */\n      dup1\n        /* \"@openzeppelin/contracts/proxy/utils/UUPSUpgradeable.sol\":6046:6080  UUPSUnsupportedProxiableUUID(slot) */\n      mload(0x40)\n      0xaa1d49a400000000000000000000000000000000000000000000000000000000\n      dup2\n      mstore\n      0x04\n      add\n      tag_112\n      swap2\n      swap1\n      tag_30\n      jump\t// in\n    tag_112:\n      mload(0x40)\n      dup1\n      swap2\n      sub\n      swap1\n      revert\n        /* \"@openzeppelin/contracts/proxy/utils/UUPSUpgradeable.sol\":5975:6095  if (slot != ERC1967Utils.IMPLEMENTATION_SLOT) {... */\n    tag_111:\n        /* \"@openzeppelin/contracts/proxy/utils/UUPSUpgradeable.sol\":6108:6162  ERC1967Utils.upgradeToAndCall(newImplementation, data) */\n      tag_113\n        /* \"@openzeppelin/contracts/proxy/utils/UUPSUpgradeable.sol\":6138:6155  newImplementation */\n      dup4\n        /* \"@openzeppelin/contracts/proxy/utils/UUPSUpgradeable.sol\":6157:6161  data */\n      dup4\n        /* \"@openzeppelin/contracts/proxy/utils/UUPSUpgradeable.sol\":6108:6137  ERC1967Utils.upgradeToAndCall */\n      tag_114\n        /* \"@openzeppelin/contracts/proxy/utils/UUPSUpgradeable.sol\":6108:6162  ERC1967Utils.upgradeToAndCall(newImplementation, data) */\n      jump\t// in\n    tag_113:\n        /* \"@openzeppelin/contracts/proxy/utils/UUPSUpgradeable.sol\":5938:6173  returns (bytes32 slot) {... */\n      pop\n        /* \"@openzeppelin/contracts/proxy/utils/UUPSUpgradeable.sol\":5786:6324  function _upgradeToAndCallUUPS(address newImplementation, bytes memory data) private {... */\n      pop\n      pop\n      jump\t// out\n        /* \"@openzeppelin/contracts/proxy/utils/UUPSUpgradeable.sol\":4762:4975  function _checkNotDelegated() internal view virtual {... */\n    tag_80:\n        /* \"@openzeppelin/contracts/proxy/utils/UUPSUpgradeable.sol\":4845:4851  __self */\n      immutable(\"0x71c24ce59180130dc1b5c3ebcbddeb1cf32dae46f5ec55f50a3074f581ef8c07\")\n        /* \"@openzeppelin/contracts/proxy/utils/UUPSUpgradeable.sol\":4828:4851  address(this) != __self */\n      0xffffffffffffffffffffffffffffffffffffffff\n      and\n        /* \"@openzeppelin/contracts/proxy/utils/UUPSUpgradeable.sol\":4836:4840  this */\n      address\n        /* \"@openzeppelin/contracts/proxy/utils/UUPSUpgradeable.sol\":4828:4851  address(this) != __self */\n      0xffffffffffffffffffffffffffffffffffffffff\n      and\n      eq\n        /* \"@openzeppelin/contracts/proxy/utils/UUPSUpgradeable.sol\":4824:4969  if (address(this) != __self) {... */\n      tag_116\n      jumpi\n        /* \"@openzeppelin/contracts/proxy/utils/UUPSUpgradeable.sol\":4929:4958  UUPSUnauthorizedCallContext() */\n      mload(0x40)\n      0xe07c8dba00000000000000000000000000000000000000000000000000000000\n      dup2\n      mstore\n      0x04\n      add\n      mload(0x40)\n      dup1\n      swap2\n      sub\n      swap1\n      revert\n        /* \"@openzeppelin/contracts/proxy/utils/UUPSUpgradeable.sol\":4824:4969  if (address(this) != __self) {... */\n    tag_116:\n        /* \"@openzeppelin/contracts/proxy/utils/UUPSUpgradeable.sol\":4762:4975  function _checkNotDelegated() internal view virtual {... */\n      jump\t// out\n        /* \"@openzeppelin/contracts/proxy/utils/Initializable.sol\":8737:8907  function _getInitializableStorage() private pure returns (InitializableStorage storage $) {... */\n    tag_84:\n        /* \"@openzeppelin/contracts/proxy/utils/Initializable.sol\":8795:8825  InitializableStorage storage $ */\n      0x00\n        /* \"@openzeppelin/contracts/proxy/utils/Initializable.sol\":8870:8891  INITIALIZABLE_STORAGE */\n      0xf0c57e16840df040f15088dc2f81fe391c3923bec73e23a9662efc9c229c6a00\n        /* \"@openzeppelin/contracts/proxy/utils/Initializable.sol\":8860:8891  $.slot := INITIALIZABLE_STORAGE */\n      swap1\n      pop\n        /* \"@openzeppelin/contracts/proxy/utils/Initializable.sol\":8737:8907  function _getInitializableStorage() private pure returns (InitializableStorage storage $) {... */\n      swap1\n      jump\t// out\n        /* \"@openzeppelin/contracts/proxy/ERC1967/ERC1967Utils.sol\":1957:2095  function getImplementation() internal view returns (address) {... */\n    tag_97:\n        /* \"@openzeppelin/contracts/proxy/ERC1967/ERC1967Utils.sol\":2009:2016  address */\n      0x00\n        /* \"@openzeppelin/contracts/proxy/ERC1967/ERC1967Utils.sol\":2035:2082  StorageSlot.getAddressSlot(IMPLEMENTATION_SLOT) */\n      tag_119\n        /* \"@openzeppelin/contracts/proxy/ERC1967/ERC1967Utils.sol\":1327:1393  0x360894a13ba1a3210667c828492db98dca3e2076cc3735a920a3ca505d382bbc */\n      0x360894a13ba1a3210667c828492db98dca3e2076cc3735a920a3ca505d382bbc\n        /* \"@openzeppelin/contracts/proxy/ERC1967/ERC1967Utils.sol\":2062:2081  IMPLEMENTATION_SLOT */\n      0x00\n      shl\n        /* \"@openzeppelin/contracts/proxy/ERC1967/ERC1967Utils.sol\":2035:2061  StorageSlot.getAddressSlot */\n      tag_120\n        /* \"@openzeppelin/contracts/proxy/ERC1967/ERC1967Utils.sol\":2035:2082  StorageSlot.getAddressSlot(IMPLEMENTATION_SLOT) */\n      jump\t// in\n    tag_119:\n        /* \"@openzeppelin/contracts/proxy/ERC1967/ERC1967Utils.sol\":2035:2088  StorageSlot.getAddressSlot(IMPLEMENTATION_SLOT).value */\n      0x00\n      add\n      0x00\n      swap1\n      sload\n      swap1\n      0x0100\n      exp\n      swap1\n      div\n      0xffffffffffffffffffffffffffffffffffffffff\n      and\n        /* \"@openzeppelin/contracts/proxy/ERC1967/ERC1967Utils.sol\":2028:2088  return StorageSlot.getAddressSlot(IMPLEMENTATION_SLOT).value */\n      swap1\n      pop\n        /* \"@openzeppelin/contracts/proxy/ERC1967/ERC1967Utils.sol\":1957:2095  function getImplementation() internal view returns (address) {... */\n      swap1\n      jump\t// out\n        /* \"@openzeppelin/contracts/proxy/ERC1967/ERC1967Utils.sol\":2779:3114  function upgradeToAndCall(address newImplementation, bytes memory data) internal {... */\n    tag_114:\n        /* \"@openzeppelin/contracts/proxy/ERC1967/ERC1967Utils.sol\":2870:2907  _setImplementation(newImplementation) */\n      tag_122\n        /* \"@openzeppelin/contracts/proxy/ERC1967/ERC1967Utils.sol\":2889:2906  newImplementation */\n      dup3\n        /* \"@openzeppelin/contracts/proxy/ERC1967/ERC1967Utils.sol\":2870:2888  _setImplementation */\n      tag_123\n        /* \"@openzeppelin/contracts/proxy/ERC1967/ERC1967Utils.sol\":2870:2907  _setImplementation(newImplementation) */\n      jump\t// in\n    tag_122:\n        /* \"@openzeppelin/contracts/proxy/ERC1967/ERC1967Utils.sol\":2931:2948  newImplementation */\n      dup2\n        /* \"@openzeppelin/contracts/proxy/ERC1967/ERC1967Utils.sol\":2922:2949  Upgraded(newImplementation) */\n      0xffffffffffffffffffffffffffffffffffffffff\n      and\n      0xbc7cd75a20ee27fd9adebab32041f755214dbc6bffa90cc0225b39da2e5c2d3b\n      mload(0x40)\n      mload(0x40)\n      dup1\n      swap2\n      sub\n      swap1\n      log2\n        /* \"@openzeppelin/contracts/proxy/ERC1967/ERC1967Utils.sol\":2978:2979  0 */\n      0x00\n        /* \"@openzeppelin/contracts/proxy/ERC1967/ERC1967Utils.sol\":2964:2968  data */\n      dup2\n        /* \"@openzeppelin/contracts/proxy/ERC1967/ERC1967Utils.sol\":2964:2975  data.length */\n      mload\n        /* \"@openzeppelin/contracts/proxy/ERC1967/ERC1967Utils.sol\":2964:2979  data.length > 0 */\n      gt\n        /* \"@openzeppelin/contracts/proxy/ERC1967/ERC1967Utils.sol\":2960:3108  if (data.length > 0) {... */\n      iszero\n      tag_124\n      jumpi\n        /* \"@openzeppelin/contracts/proxy/ERC1967/ERC1967Utils.sol\":2995:3048  Address.functionDelegateCall(newImplementation, data) */\n      tag_125\n        /* \"@openzeppelin/contracts/proxy/ERC1967/ERC1967Utils.sol\":3024:3041  newImplementation */\n      dup3\n        /* \"@openzeppelin/contracts/proxy/ERC1967/ERC1967Utils.sol\":3043:3047  data */\n      dup3\n        /* \"@openzeppelin/contracts/proxy/ERC1967/ERC1967Utils.sol\":2995:3023  Address.functionDelegateCall */\n      tag_126\n        /* \"@openzeppelin/contracts/proxy/ERC1967/ERC1967Utils.sol\":2995:3048  Address.functionDelegateCall(newImplementation, data) */\n      jump\t// in\n    tag_125:\n      pop\n        /* \"@openzeppelin/contracts/proxy/ERC1967/ERC1967Utils.sol\":2960:3108  if (data.length > 0) {... */\n      jump(tag_127)\n    tag_124:\n        /* \"@openzeppelin/contracts/proxy/ERC1967/ERC1967Utils.sol\":3079:3097  _checkNonPayable() */\n      tag_128\n        /* \"@openzeppelin/contracts/proxy/ERC1967/ERC1967Utils.sol\":3079:3095  _checkNonPayable */\n      tag_129\n        /* \"@openzeppelin/contracts/proxy/ERC1967/ERC1967Utils.sol\":3079:3097  _checkNonPayable() */\n      jump\t// in\n    tag_128:\n        /* \"@openzeppelin/contracts/proxy/ERC1967/ERC1967Utils.sol\":2960:3108  if (data.length > 0) {... */\n    tag_127:\n        /* \"@openzeppelin/contracts/proxy/ERC1967/ERC1967Utils.sol\":2779:3114  function upgradeToAndCall(address newImplementation, bytes memory data) internal {... */\n      pop\n      pop\n      jump\t// out\n        /* \"@openzeppelin/contracts/utils/StorageSlot.sol\":1684:1874  function getAddressSlot(bytes32 slot) internal pure returns (AddressSlot storage r) {... */\n    tag_120:\n        /* \"@openzeppelin/contracts/utils/StorageSlot.sol\":1745:1766  AddressSlot storage r */\n      0x00\n        /* \"@openzeppelin/contracts/utils/StorageSlot.sol\":1854:1858  slot */\n      dup2\n        /* \"@openzeppelin/contracts/utils/StorageSlot.sol\":1844:1858  r.slot := slot */\n      swap1\n      pop\n        /* \"@openzeppelin/contracts/utils/StorageSlot.sol\":1684:1874  function getAddressSlot(bytes32 slot) internal pure returns (AddressSlot storage r) {... */\n      swap2\n      swap1\n      pop\n      jump\t// out\n        /* \"@openzeppelin/contracts/proxy/ERC1967/ERC1967Utils.sol\":2186:2467  function _setImplementation(address newImplementation) private {... */\n    tag_123:\n        /* \"@openzeppelin/contracts/proxy/ERC1967/ERC1967Utils.sol\":2296:2297  0 */\n      0x00\n        /* \"@openzeppelin/contracts/proxy/ERC1967/ERC1967Utils.sol\":2263:2280  newImplementation */\n      dup2\n        /* \"@openzeppelin/contracts/proxy/ERC1967/ERC1967Utils.sol\":2263:2292  newImplementation.code.length */\n      0xffffffffffffffffffffffffffffffffffffffff\n      and\n      extcodesize\n        /* \"@openzeppelin/contracts/proxy/ERC1967/ERC1967Utils.sol\":2263:2297  newImplementation.code.length == 0 */\n      sub\n        /* \"@openzeppelin/contracts/proxy/ERC1967/ERC1967Utils.sol\":2259:2378  if (newImplementation.code.length == 0) {... */\n      tag_132\n      jumpi\n        /* \"@openzeppelin/contracts/proxy/ERC1967/ERC1967Utils.sol\":2349:2366  newImplementation */\n      dup1\n        /* \"@openzeppelin/contracts/proxy/ERC1967/ERC1967Utils.sol\":2320:2367  ERC1967InvalidImplementation(newImplementation) */\n      mload(0x40)\n      0x4c9c8ce300000000000000000000000000000000000000000000000000000000\n      dup2\n      mstore\n      0x04\n      add\n      tag_133\n      swap2\n      swap1\n      tag_109\n      jump\t// in\n    tag_133:\n      mload(0x40)\n      dup1\n      swap2\n      sub\n      swap1\n      revert\n        /* \"@openzeppelin/contracts/proxy/ERC1967/ERC1967Utils.sol\":2259:2378  if (newImplementation.code.length == 0) {... */\n    tag_132:\n        /* \"@openzeppelin/contracts/proxy/ERC1967/ERC1967Utils.sol\":2443:2460  newImplementation */\n      dup1\n        /* \"@openzeppelin/contracts/proxy/ERC1967/ERC1967Utils.sol\":2387:2434  StorageSlot.getAddressSlot(IMPLEMENTATION_SLOT) */\n      tag_134\n        /* \"@openzeppelin/contracts/proxy/ERC1967/ERC1967Utils.sol\":1327:1393  0x360894a13ba1a3210667c828492db98dca3e2076cc3735a920a3ca505d382bbc */\n      0x360894a13ba1a3210667c828492db98dca3e2076cc3735a920a3ca505d382bbc\n        /* \"@openzeppelin/contracts/proxy/ERC1967/ERC1967Utils.sol\":2414:2433  IMPLEMENTATION_SLOT */\n      0x00\n      shl\n        /* \"@openzeppelin/contracts/proxy/ERC1967/ERC1967Utils.sol\":2387:2413  StorageSlot.getAddressSlot */\n      tag_120\n        /* \"@openzeppelin/contracts/proxy/ERC1967/ERC1967Utils.sol\":2387:2434  StorageSlot.getAddressSlot(IMPLEMENTATION_SLOT) */\n      jump\t// in\n    tag_134:\n        /* \"@openzeppelin/contracts/proxy/ERC1967/ERC1967Utils.sol\":2387:2440  StorageSlot.getAddressSlot(IMPLEMENTATION_SLOT).value */\n      0x00\n      add\n      0x00\n        /* \"@openzeppelin/contracts/proxy/ERC1967/ERC1967Utils.sol\":2387:2460  StorageSlot.getAddressSlot(IMPLEMENTATION_SLOT).value = newImplementation */\n      0x0100\n      exp\n      dup2\n      sload\n      dup2\n      0xffffffffffffffffffffffffffffffffffffffff\n      mul\n      not\n      and\n      swap1\n      dup4\n      0xffffffffffffffffffffffffffffffffffffffff\n      and\n      mul\n      or\n      swap1\n      sstore\n      pop\n        /* \"@openzeppelin/contracts/proxy/ERC1967/ERC1967Utils.sol\":2186:2467  function _setImplementation(address newImplementation) private {... */\n      pop\n      jump\t// out\n        /* \"@openzeppelin/contracts/utils/Address.sol\":4106:4359  function functionDelegateCall(address target, bytes memory data) internal returns (bytes memory) {... */\n    tag_126:\n        /* \"@openzeppelin/contracts/utils/Address.sol\":4189:4201  bytes memory */\n      0x60\n        /* \"@openzeppelin/contracts/utils/Address.sol\":4214:4226  bool success */\n      0x00\n        /* \"@openzeppelin/contracts/utils/Address.sol\":4228:4251  bytes memory returndata */\n      dup1\n        /* \"@openzeppelin/contracts/utils/Address.sol\":4255:4261  target */\n      dup5\n        /* \"@openzeppelin/contracts/utils/Address.sol\":4255:4274  target.delegatecall */\n      0xffffffffffffffffffffffffffffffffffffffff\n      and\n        /* \"@openzeppelin/contracts/utils/Address.sol\":4275:4279  data */\n      dup5\n        /* \"@openzeppelin/contracts/utils/Address.sol\":4255:4280  target.delegatecall(data) */\n      mload(0x40)\n      tag_136\n      swap2\n      swap1\n      tag_137\n      jump\t// in\n    tag_136:\n      0x00\n      mload(0x40)\n      dup1\n      dup4\n      sub\n      dup2\n      dup6\n      gas\n      delegatecall\n      swap2\n      pop\n      pop\n      returndatasize\n      dup1\n      0x00\n      dup2\n      eq\n      tag_140\n      jumpi\n      mload(0x40)\n      swap2\n      pop\n      and(add(returndatasize, 0x3f), not(0x1f))\n      dup3\n      add\n      0x40\n      mstore\n      returndatasize\n      dup3\n      mstore\n      returndatasize\n      0x00\n      0x20\n      dup5\n      add\n      returndatacopy\n      jump(tag_139)\n    tag_140:\n      0x60\n      swap2\n      pop\n    tag_139:\n      pop\n        /* \"@openzeppelin/contracts/utils/Address.sol\":4213:4280  (bool success, bytes memory returndata) = target.delegatecall(data) */\n      swap2\n      pop\n      swap2\n      pop\n        /* \"@openzeppelin/contracts/utils/Address.sol\":4297:4352  verifyCallResultFromTarget(target, success, returndata) */\n      tag_141\n        /* \"@openzeppelin/contracts/utils/Address.sol\":4324:4330  target */\n      dup6\n        /* \"@openzeppelin/contracts/utils/Address.sol\":4332:4339  success */\n      dup4\n        /* \"@openzeppelin/contracts/utils/Address.sol\":4341:4351  returndata */\n      dup4\n        /* \"@openzeppelin/contracts/utils/Address.sol\":4297:4323  verifyCallResultFromTarget */\n      tag_142\n        /* \"@openzeppelin/contracts/utils/Address.sol\":4297:4352  verifyCallResultFromTarget(target, success, returndata) */\n      jump\t// in\n    tag_141:\n        /* \"@openzeppelin/contracts/utils/Address.sol\":4290:4352  return verifyCallResultFromTarget(target, success, returndata) */\n      swap3\n      pop\n      pop\n      pop\n        /* \"@openzeppelin/contracts/utils/Address.sol\":4106:4359  function functionDelegateCall(address target, bytes memory data) internal returns (bytes memory) {... */\n      swap3\n      swap2\n      pop\n      pop\n      jump\t// out\n        /* \"@openzeppelin/contracts/proxy/ERC1967/ERC1967Utils.sol\":6598:6720  function _checkNonPayable() private {... */\n    tag_129:\n        /* \"@openzeppelin/contracts/proxy/ERC1967/ERC1967Utils.sol\":6660:6661  0 */\n      0x00\n        /* \"@openzeppelin/contracts/proxy/ERC1967/ERC1967Utils.sol\":6648:6657  msg.value */\n      callvalue\n        /* \"@openzeppelin/contracts/proxy/ERC1967/ERC1967Utils.sol\":6648:6661  msg.value > 0 */\n      gt\n        /* \"@openzeppelin/contracts/proxy/ERC1967/ERC1967Utils.sol\":6644:6714  if (msg.value > 0) {... */\n      iszero\n      tag_144\n      jumpi\n        /* \"@openzeppelin/contracts/proxy/ERC1967/ERC1967Utils.sol\":6684:6703  ERC1967NonPayable() */\n      mload(0x40)\n      0xb398979f00000000000000000000000000000000000000000000000000000000\n      dup2\n      mstore\n      0x04\n      add\n      mload(0x40)\n      dup1\n      swap2\n      sub\n      swap1\n      revert\n        /* \"@openzeppelin/contracts/proxy/ERC1967/ERC1967Utils.sol\":6644:6714  if (msg.value > 0) {... */\n    tag_144:\n        /* \"@openzeppelin/contracts/proxy/ERC1967/ERC1967Utils.sol\":6598:6720  function _checkNonPayable() private {... */\n      jump\t// out\n        /* \"@openzeppelin/contracts/utils/Address.sol\":4625:5207  function verifyCallResultFromTarget(... */\n    tag_142:\n        /* \"@openzeppelin/contracts/utils/Address.sol\":4769:4781  bytes memory */\n      0x60\n        /* \"@openzeppelin/contracts/utils/Address.sol\":4798:4805  success */\n      dup3\n        /* \"@openzeppelin/contracts/utils/Address.sol\":4793:5201  if (!success) {... */\n      tag_146\n      jumpi\n        /* \"@openzeppelin/contracts/utils/Address.sol\":4821:4840  _revert(returndata) */\n      tag_147\n        /* \"@openzeppelin/contracts/utils/Address.sol\":4829:4839  returndata */\n      dup3\n        /* \"@openzeppelin/contracts/utils/Address.sol\":4821:4828  _revert */\n      tag_148\n        /* \"@openzeppelin/contracts/utils/Address.sol\":4821:4840  _revert(returndata) */\n      jump\t// in\n    tag_147:\n        /* \"@openzeppelin/contracts/utils/Address.sol\":4793:5201  if (!success) {... */\n      jump(tag_149)\n    tag_146:\n        /* \"@openzeppelin/contracts/utils/Address.sol\":5066:5067  0 */\n      0x00\n        /* \"@openzeppelin/contracts/utils/Address.sol\":5045:5055  returndata */\n      dup3\n        /* \"@openzeppelin/contracts/utils/Address.sol\":5045:5062  returndata.length */\n      mload\n        /* \"@openzeppelin/contracts/utils/Address.sol\":5045:5067  returndata.length == 0 */\n      eq\n        /* \"@openzeppelin/contracts/utils/Address.sol\":5045:5094  returndata.length == 0 && target.code.length == 0 */\n      dup1\n      iszero\n      tag_150\n      jumpi\n      pop\n        /* \"@openzeppelin/contracts/utils/Address.sol\":5093:5094  0 */\n      0x00\n        /* \"@openzeppelin/contracts/utils/Address.sol\":5071:5077  target */\n      dup5\n        /* \"@openzeppelin/contracts/utils/Address.sol\":5071:5089  target.code.length */\n      0xffffffffffffffffffffffffffffffffffffffff\n      and\n      extcodesize\n        /* \"@openzeppelin/contracts/utils/Address.sol\":5071:5094  target.code.length == 0 */\n      eq\n        /* \"@openzeppelin/contracts/utils/Address.sol\":5045:5094  returndata.length == 0 && target.code.length == 0 */\n    tag_150:\n        /* \"@openzeppelin/contracts/utils/Address.sol\":5041:5160  if (returndata.length == 0 && target.code.length == 0) {... */\n      iszero\n      tag_151\n      jumpi\n        /* \"@openzeppelin/contracts/utils/Address.sol\":5138:5144  target */\n      dup4\n        /* \"@openzeppelin/contracts/utils/Address.sol\":5121:5145  AddressEmptyCode(target) */\n      mload(0x40)\n      0x9996b31500000000000000000000000000000000000000000000000000000000\n      dup2\n      mstore\n      0x04\n      add\n      tag_152\n      swap2\n      swap1\n      tag_109\n      jump\t// in\n    tag_152:\n      mload(0x40)\n      dup1\n      swap2\n      sub\n      swap1\n      revert\n        /* \"@openzeppelin/contracts/utils/Address.sol\":5041:5160  if (returndata.length == 0 && target.code.length == 0) {... */\n    tag_151:\n        /* \"@openzeppelin/contracts/utils/Address.sol\":5180:5190  returndata */\n      dup2\n        /* \"@openzeppelin/contracts/utils/Address.sol\":5173:5190  return returndata */\n      swap1\n      pop\n      jump(tag_145)\n        /* \"@openzeppelin/contracts/utils/Address.sol\":4793:5201  if (!success) {... */\n    tag_149:\n        /* \"@openzeppelin/contracts/utils/Address.sol\":4625:5207  function verifyCallResultFromTarget(... */\n    tag_145:\n      swap4\n      swap3\n      pop\n      pop\n      pop\n      jump\t// out\n        /* \"@openzeppelin/contracts/utils/Address.sol\":5743:6259  function _revert(bytes memory returndata) private pure {... */\n    tag_148:\n        /* \"@openzeppelin/contracts/utils/Address.sol\":5894:5895  0 */\n      0x00\n        /* \"@openzeppelin/contracts/utils/Address.sol\":5874:5884  returndata */\n      dup2\n        /* \"@openzeppelin/contracts/utils/Address.sol\":5874:5891  returndata.length */\n      mload\n        /* \"@openzeppelin/contracts/utils/Address.sol\":5874:5895  returndata.length > 0 */\n      gt\n        /* \"@openzeppelin/contracts/utils/Address.sol\":5870:6253  if (returndata.length > 0) {... */\n      iszero\n      tag_154\n      jumpi\n        /* \"@openzeppelin/contracts/utils/Address.sol\":6102:6112  returndata */\n      dup1\n        /* \"@openzeppelin/contracts/utils/Address.sol\":6096:6113  mload(returndata) */\n      mload\n        /* \"@openzeppelin/contracts/utils/Address.sol\":6158:6173  returndata_size */\n      dup1\n        /* \"@openzeppelin/contracts/utils/Address.sol\":6145:6155  returndata */\n      dup3\n        /* \"@openzeppelin/contracts/utils/Address.sol\":6141:6143  32 */\n      0x20\n        /* \"@openzeppelin/contracts/utils/Address.sol\":6137:6156  add(32, returndata) */\n      add\n        /* \"@openzeppelin/contracts/utils/Address.sol\":6130:6174  revert(add(32, returndata), returndata_size) */\n      revert\n        /* \"@openzeppelin/contracts/utils/Address.sol\":5870:6253  if (returndata.length > 0) {... */\n    tag_154:\n        /* \"@openzeppelin/contracts/utils/Address.sol\":6225:6242  FailedInnerCall() */\n      mload(0x40)\n      0x1425ea4200000000000000000000000000000000000000000000000000000000\n      dup2\n      mstore\n      0x04\n      add\n      mload(0x40)\n      dup1\n      swap2\n      sub\n      swap1\n      revert\n        /* \"#utility.yul\":7:82   */\n    tag_156:\n        /* \"#utility.yul\":40:46   */\n      0x00\n        /* \"#utility.yul\":73:75   */\n      0x40\n        /* \"#utility.yul\":67:76   */\n      mload\n        /* \"#utility.yul\":57:76   */\n      swap1\n      pop\n        /* \"#utility.yul\":7:82   */\n      swap1\n      jump\t// out\n        /* \"#utility.yul\":88:205   */\n    tag_157:\n        /* \"#utility.yul\":197:198   */\n      0x00\n        /* \"#utility.yul\":194:195   */\n      dup1\n        /* \"#utility.yul\":187:199   */\n      revert\n        /* \"#utility.yul\":211:328   */\n    tag_158:\n        /* \"#utility.yul\":320:321   */\n      0x00\n        /* \"#utility.yul\":317:318   */\n      dup1\n        /* \"#utility.yul\":310:322   */\n      revert\n        /* \"#utility.yul\":334:451   */\n    tag_159:\n        /* \"#utility.yul\":443:444   */\n      0x00\n        /* \"#utility.yul\":440:441   */\n      dup1\n        /* \"#utility.yul\":433:445   */\n      revert\n        /* \"#utility.yul\":457:574   */\n    tag_160:\n        /* \"#utility.yul\":566:567   */\n      0x00\n        /* \"#utility.yul\":563:564   */\n      dup1\n        /* \"#utility.yul\":556:568   */\n      revert\n        /* \"#utility.yul\":580:697   */\n    tag_161:\n        /* \"#utility.yul\":689:690   */\n      0x00\n        /* \"#utility.yul\":686:687   */\n      dup1\n        /* \"#utility.yul\":679:691   */\n      revert\n        /* \"#utility.yul\":720:1288   */\n    tag_162:\n        /* \"#utility.yul\":793:801   */\n      0x00\n        /* \"#utility.yul\":803:809   */\n      dup1\n        /* \"#utility.yul\":853:856   */\n      dup4\n        /* \"#utility.yul\":846:850   */\n      0x1f\n        /* \"#utility.yul\":838:844   */\n      dup5\n        /* \"#utility.yul\":834:851   */\n      add\n        /* \"#utility.yul\":830:857   */\n      slt\n        /* \"#utility.yul\":820:942   */\n      tag_213\n      jumpi\n        /* \"#utility.yul\":861:940   */\n      tag_214\n      tag_159\n      jump\t// in\n    tag_214:\n        /* \"#utility.yul\":820:942   */\n    tag_213:\n        /* \"#utility.yul\":974:980   */\n      dup3\n        /* \"#utility.yul\":961:981   */\n      calldataload\n        /* \"#utility.yul\":951:981   */\n      swap1\n      pop\n        /* \"#utility.yul\":1004:1022   */\n      0xffffffffffffffff\n        /* \"#utility.yul\":996:1002   */\n      dup2\n        /* \"#utility.yul\":993:1023   */\n      gt\n        /* \"#utility.yul\":990:1107   */\n      iszero\n      tag_215\n      jumpi\n        /* \"#utility.yul\":1026:1105   */\n      tag_216\n      tag_160\n      jump\t// in\n    tag_216:\n        /* \"#utility.yul\":990:1107   */\n    tag_215:\n        /* \"#utility.yul\":1140:1144   */\n      0x20\n        /* \"#utility.yul\":1132:1138   */\n      dup4\n        /* \"#utility.yul\":1128:1145   */\n      add\n        /* \"#utility.yul\":1116:1145   */\n      swap2\n      pop\n        /* \"#utility.yul\":1194:1197   */\n      dup4\n        /* \"#utility.yul\":1186:1190   */\n      0x20\n        /* \"#utility.yul\":1178:1184   */\n      dup3\n        /* \"#utility.yul\":1174:1191   */\n      mul\n        /* \"#utility.yul\":1164:1172   */\n      dup4\n        /* \"#utility.yul\":1160:1192   */\n      add\n        /* \"#utility.yul\":1157:1198   */\n      gt\n        /* \"#utility.yul\":1154:1282   */\n      iszero\n      tag_217\n      jumpi\n        /* \"#utility.yul\":1201:1280   */\n      tag_218\n      tag_161\n      jump\t// in\n    tag_218:\n        /* \"#utility.yul\":1154:1282   */\n    tag_217:\n        /* \"#utility.yul\":720:1288   */\n      swap3\n      pop\n      swap3\n      swap1\n      pop\n      jump\t// out\n        /* \"#utility.yul\":1311:1879   */\n    tag_163:\n        /* \"#utility.yul\":1384:1392   */\n      0x00\n        /* \"#utility.yul\":1394:1400   */\n      dup1\n        /* \"#utility.yul\":1444:1447   */\n      dup4\n        /* \"#utility.yul\":1437:1441   */\n      0x1f\n        /* \"#utility.yul\":1429:1435   */\n      dup5\n        /* \"#utility.yul\":1425:1442   */\n      add\n        /* \"#utility.yul\":1421:1448   */\n      slt\n        /* \"#utility.yul\":1411:1533   */\n      tag_220\n      jumpi\n        /* \"#utility.yul\":1452:1531   */\n      tag_221\n      tag_159\n      jump\t// in\n    tag_221:\n        /* \"#utility.yul\":1411:1533   */\n    tag_220:\n        /* \"#utility.yul\":1565:1571   */\n      dup3\n        /* \"#utility.yul\":1552:1572   */\n      calldataload\n        /* \"#utility.yul\":1542:1572   */\n      swap1\n      pop\n        /* \"#utility.yul\":1595:1613   */\n      0xffffffffffffffff\n        /* \"#utility.yul\":1587:1593   */\n      dup2\n        /* \"#utility.yul\":1584:1614   */\n      gt\n        /* \"#utility.yul\":1581:1698   */\n      iszero\n      tag_222\n      jumpi\n        /* \"#utility.yul\":1617:1696   */\n      tag_223\n      tag_160\n      jump\t// in\n    tag_223:\n        /* \"#utility.yul\":1581:1698   */\n    tag_222:\n        /* \"#utility.yul\":1731:1735   */\n      0x20\n        /* \"#utility.yul\":1723:1729   */\n      dup4\n        /* \"#utility.yul\":1719:1736   */\n      add\n        /* \"#utility.yul\":1707:1736   */\n      swap2\n      pop\n        /* \"#utility.yul\":1785:1788   */\n      dup4\n        /* \"#utility.yul\":1777:1781   */\n      0x20\n        /* \"#utility.yul\":1769:1775   */\n      dup3\n        /* \"#utility.yul\":1765:1782   */\n      mul\n        /* \"#utility.yul\":1755:1763   */\n      dup4\n        /* \"#utility.yul\":1751:1783   */\n      add\n        /* \"#utility.yul\":1748:1789   */\n      gt\n        /* \"#utility.yul\":1745:1873   */\n      iszero\n      tag_224\n      jumpi\n        /* \"#utility.yul\":1792:1871   */\n      tag_225\n      tag_161\n      jump\t// in\n    tag_225:\n        /* \"#utility.yul\":1745:1873   */\n    tag_224:\n        /* \"#utility.yul\":1311:1879   */\n      swap3\n      pop\n      swap3\n      swap1\n      pop\n      jump\t// out\n        /* \"#utility.yul\":1885:2819   */\n    tag_13:\n        /* \"#utility.yul\":2007:2013   */\n      0x00\n        /* \"#utility.yul\":2015:2021   */\n      dup1\n        /* \"#utility.yul\":2023:2029   */\n      0x00\n        /* \"#utility.yul\":2031:2037   */\n      dup1\n        /* \"#utility.yul\":2080:2082   */\n      0x40\n        /* \"#utility.yul\":2068:2077   */\n      dup6\n        /* \"#utility.yul\":2059:2066   */\n      dup8\n        /* \"#utility.yul\":2055:2078   */\n      sub\n        /* \"#utility.yul\":2051:2083   */\n      slt\n        /* \"#utility.yul\":2048:2167   */\n      iszero\n      tag_227\n      jumpi\n        /* \"#utility.yul\":2086:2165   */\n      tag_228\n      tag_157\n      jump\t// in\n    tag_228:\n        /* \"#utility.yul\":2048:2167   */\n    tag_227:\n        /* \"#utility.yul\":2234:2235   */\n      0x00\n        /* \"#utility.yul\":2223:2232   */\n      dup6\n        /* \"#utility.yul\":2219:2236   */\n      add\n        /* \"#utility.yul\":2206:2237   */\n      calldataload\n        /* \"#utility.yul\":2264:2282   */\n      0xffffffffffffffff\n        /* \"#utility.yul\":2256:2262   */\n      dup2\n        /* \"#utility.yul\":2253:2283   */\n      gt\n        /* \"#utility.yul\":2250:2367   */\n      iszero\n      tag_229\n      jumpi\n        /* \"#utility.yul\":2286:2365   */\n      tag_230\n      tag_158\n      jump\t// in\n    tag_230:\n        /* \"#utility.yul\":2250:2367   */\n    tag_229:\n        /* \"#utility.yul\":2399:2479   */\n      tag_231\n        /* \"#utility.yul\":2471:2478   */\n      dup8\n        /* \"#utility.yul\":2462:2468   */\n      dup3\n        /* \"#utility.yul\":2451:2460   */\n      dup9\n        /* \"#utility.yul\":2447:2469   */\n      add\n        /* \"#utility.yul\":2399:2479   */\n      tag_162\n      jump\t// in\n    tag_231:\n        /* \"#utility.yul\":2381:2479   */\n      swap5\n      pop\n      swap5\n      pop\n        /* \"#utility.yul\":2177:2489   */\n      pop\n        /* \"#utility.yul\":2556:2558   */\n      0x20\n        /* \"#utility.yul\":2545:2554   */\n      dup6\n        /* \"#utility.yul\":2541:2559   */\n      add\n        /* \"#utility.yul\":2528:2560   */\n      calldataload\n        /* \"#utility.yul\":2587:2605   */\n      0xffffffffffffffff\n        /* \"#utility.yul\":2579:2585   */\n      dup2\n        /* \"#utility.yul\":2576:2606   */\n      gt\n        /* \"#utility.yul\":2573:2690   */\n      iszero\n      tag_232\n      jumpi\n        /* \"#utility.yul\":2609:2688   */\n      tag_233\n      tag_158\n      jump\t// in\n    tag_233:\n        /* \"#utility.yul\":2573:2690   */\n    tag_232:\n        /* \"#utility.yul\":2722:2802   */\n      tag_234\n        /* \"#utility.yul\":2794:2801   */\n      dup8\n        /* \"#utility.yul\":2785:2791   */\n      dup3\n        /* \"#utility.yul\":2774:2783   */\n      dup9\n        /* \"#utility.yul\":2770:2792   */\n      add\n        /* \"#utility.yul\":2722:2802   */\n      tag_163\n      jump\t// in\n    tag_234:\n        /* \"#utility.yul\":2704:2802   */\n      swap3\n      pop\n      swap3\n      pop\n        /* \"#utility.yul\":2499:2812   */\n      pop\n        /* \"#utility.yul\":1885:2819   */\n      swap3\n      swap6\n      swap2\n      swap5\n      pop\n      swap3\n      pop\n      jump\t// out\n        /* \"#utility.yul\":2825:3384   */\n    tag_18:\n        /* \"#utility.yul\":2911:2917   */\n      0x00\n        /* \"#utility.yul\":2919:2925   */\n      dup1\n        /* \"#utility.yul\":2968:2970   */\n      0x20\n        /* \"#utility.yul\":2956:2965   */\n      dup4\n        /* \"#utility.yul\":2947:2954   */\n      dup6\n        /* \"#utility.yul\":2943:2966   */\n      sub\n        /* \"#utility.yul\":2939:2971   */\n      slt\n        /* \"#utility.yul\":2936:3055   */\n      iszero\n      tag_236\n      jumpi\n        /* \"#utility.yul\":2974:3053   */\n      tag_237\n      tag_157\n      jump\t// in\n    tag_237:\n        /* \"#utility.yul\":2936:3055   */\n    tag_236:\n        /* \"#utility.yul\":3122:3123   */\n      0x00\n        /* \"#utility.yul\":3111:3120   */\n      dup4\n        /* \"#utility.yul\":3107:3124   */\n      add\n        /* \"#utility.yul\":3094:3125   */\n      calldataload\n        /* \"#utility.yul\":3152:3170   */\n      0xffffffffffffffff\n        /* \"#utility.yul\":3144:3150   */\n      dup2\n        /* \"#utility.yul\":3141:3171   */\n      gt\n        /* \"#utility.yul\":3138:3255   */\n      iszero\n      tag_238\n      jumpi\n        /* \"#utility.yul\":3174:3253   */\n      tag_239\n      tag_158\n      jump\t// in\n    tag_239:\n        /* \"#utility.yul\":3138:3255   */\n    tag_238:\n        /* \"#utility.yul\":3287:3367   */\n      tag_240\n        /* \"#utility.yul\":3359:3366   */\n      dup6\n        /* \"#utility.yul\":3350:3356   */\n      dup3\n        /* \"#utility.yul\":3339:3348   */\n      dup7\n        /* \"#utility.yul\":3335:3357   */\n      add\n        /* \"#utility.yul\":3287:3367   */\n      tag_162\n      jump\t// in\n    tag_240:\n        /* \"#utility.yul\":3269:3367   */\n      swap3\n      pop\n      swap3\n      pop\n        /* \"#utility.yul\":3065:3377   */\n      pop\n        /* \"#utility.yul\":2825:3384   */\n      swap3\n      pop\n      swap3\n      swap1\n      pop\n      jump\t// out\n        /* \"#utility.yul\":3390:3504   */\n    tag_164:\n        /* \"#utility.yul\":3457:3463   */\n      0x00\n        /* \"#utility.yul\":3491:3496   */\n      dup2\n        /* \"#utility.yul\":3485:3497   */\n      mload\n        /* \"#utility.yul\":3475:3497   */\n      swap1\n      pop\n        /* \"#utility.yul\":3390:3504   */\n      swap2\n      swap1\n      pop\n      jump\t// out\n        /* \"#utility.yul\":3510:3694   */\n    tag_165:\n        /* \"#utility.yul\":3609:3620   */\n      0x00\n        /* \"#utility.yul\":3643:3649   */\n      dup3\n        /* \"#utility.yul\":3638:3641   */\n      dup3\n        /* \"#utility.yul\":3631:3650   */\n      mstore\n        /* \"#utility.yul\":3683:3687   */\n      0x20\n        /* \"#utility.yul\":3678:3681   */\n      dup3\n        /* \"#utility.yul\":3674:3688   */\n      add\n        /* \"#utility.yul\":3659:3688   */\n      swap1\n      pop\n        /* \"#utility.yul\":3510:3694   */\n      swap3\n      swap2\n      pop\n      pop\n      jump\t// out\n        /* \"#utility.yul\":3700:3832   */\n    tag_166:\n        /* \"#utility.yul\":3767:3771   */\n      0x00\n        /* \"#utility.yul\":3790:3793   */\n      dup2\n        /* \"#utility.yul\":3782:3793   */\n      swap1\n      pop\n        /* \"#utility.yul\":3820:3824   */\n      0x20\n        /* \"#utility.yul\":3815:3818   */\n      dup3\n        /* \"#utility.yul\":3811:3825   */\n      add\n        /* \"#utility.yul\":3803:3825   */\n      swap1\n      pop\n        /* \"#utility.yul\":3700:3832   */\n      swap2\n      swap1\n      pop\n      jump\t// out\n        /* \"#utility.yul\":3838:3915   */\n    tag_167:\n        /* \"#utility.yul\":3875:3882   */\n      0x00\n        /* \"#utility.yul\":3904:3909   */\n      dup2\n        /* \"#utility.yul\":3893:3909   */\n      swap1\n      pop\n        /* \"#utility.yul\":3838:3915   */\n      swap2\n      swap1\n      pop\n      jump\t// out\n        /* \"#utility.yul\":3921:4029   */\n    tag_168:\n        /* \"#utility.yul\":3998:4022   */\n      tag_246\n        /* \"#utility.yul\":4016:4021   */\n      dup2\n        /* \"#utility.yul\":3998:4022   */\n      tag_167\n      jump\t// in\n    tag_246:\n        /* \"#utility.yul\":3993:3996   */\n      dup3\n        /* \"#utility.yul\":3986:4023   */\n      mstore\n        /* \"#utility.yul\":3921:4029   */\n      pop\n      pop\n      jump\t// out\n        /* \"#utility.yul\":4035:4214   */\n    tag_169:\n        /* \"#utility.yul\":4104:4114   */\n      0x00\n        /* \"#utility.yul\":4125:4171   */\n      tag_248\n        /* \"#utility.yul\":4167:4170   */\n      dup4\n        /* \"#utility.yul\":4159:4165   */\n      dup4\n        /* \"#utility.yul\":4125:4171   */\n      tag_168\n      jump\t// in\n    tag_248:\n        /* \"#utility.yul\":4203:4207   */\n      0x20\n        /* \"#utility.yul\":4198:4201   */\n      dup4\n        /* \"#utility.yul\":4194:4208   */\n      add\n        /* \"#utility.yul\":4180:4208   */\n      swap1\n      pop\n        /* \"#utility.yul\":4035:4214   */\n      swap3\n      swap2\n      pop\n      pop\n      jump\t// out\n        /* \"#utility.yul\":4220:4333   */\n    tag_170:\n        /* \"#utility.yul\":4290:4294   */\n      0x00\n        /* \"#utility.yul\":4322:4326   */\n      0x20\n        /* \"#utility.yul\":4317:4320   */\n      dup3\n        /* \"#utility.yul\":4313:4327   */\n      add\n        /* \"#utility.yul\":4305:4327   */\n      swap1\n      pop\n        /* \"#utility.yul\":4220:4333   */\n      swap2\n      swap1\n      pop\n      jump\t// out\n        /* \"#utility.yul\":4369:5101   */\n    tag_171:\n        /* \"#utility.yul\":4488:4491   */\n      0x00\n        /* \"#utility.yul\":4517:4571   */\n      tag_251\n        /* \"#utility.yul\":4565:4570   */\n      dup3\n        /* \"#utility.yul\":4517:4571   */\n      tag_164\n      jump\t// in\n    tag_251:\n        /* \"#utility.yul\":4587:4673   */\n      tag_252\n        /* \"#utility.yul\":4666:4672   */\n      dup2\n        /* \"#utility.yul\":4661:4664   */\n      dup6\n        /* \"#utility.yul\":4587:4673   */\n      tag_165\n      jump\t// in\n    tag_252:\n        /* \"#utility.yul\":4580:4673   */\n      swap4\n      pop\n        /* \"#utility.yul\":4697:4753   */\n      tag_253\n        /* \"#utility.yul\":4747:4752   */\n      dup4\n        /* \"#utility.yul\":4697:4753   */\n      tag_166\n      jump\t// in\n    tag_253:\n        /* \"#utility.yul\":4776:4783   */\n      dup1\n        /* \"#utility.yul\":4807:4808   */\n      0x00\n        /* \"#utility.yul\":4792:5076   */\n    tag_254:\n        /* \"#utility.yul\":4817:4823   */\n      dup4\n        /* \"#utility.yul\":4814:4815   */\n      dup2\n        /* \"#utility.yul\":4811:4824   */\n      lt\n        /* \"#utility.yul\":4792:5076   */\n      iszero\n      tag_256\n      jumpi\n        /* \"#utility.yul\":4893:4899   */\n      dup2\n        /* \"#utility.yul\":4887:4900   */\n      mload\n        /* \"#utility.yul\":4920:4983   */\n      tag_257\n        /* \"#utility.yul\":4979:4982   */\n      dup9\n        /* \"#utility.yul\":4964:4977   */\n      dup3\n        /* \"#utility.yul\":4920:4983   */\n      tag_169\n      jump\t// in\n    tag_257:\n        /* \"#utility.yul\":4913:4983   */\n      swap8\n      pop\n        /* \"#utility.yul\":5006:5066   */\n      tag_258\n        /* \"#utility.yul\":5059:5065   */\n      dup4\n        /* \"#utility.yul\":5006:5066   */\n      tag_170\n      jump\t// in\n    tag_258:\n        /* \"#utility.yul\":4996:5066   */\n      swap3\n      pop\n        /* \"#utility.yul\":4852:5076   */\n      pop\n        /* \"#utility.yul\":4839:4840   */\n      0x01\n        /* \"#utility.yul\":4836:4837   */\n      dup2\n        /* \"#utility.yul\":4832:4841   */\n      add\n        /* \"#utility.yul\":4827:4841   */\n      swap1\n      pop\n        /* \"#utility.yul\":4792:5076   */\n      jump(tag_254)\n    tag_256:\n        /* \"#utility.yul\":4796:4810   */\n      pop\n        /* \"#utility.yul\":5092:5095   */\n      dup6\n        /* \"#utility.yul\":5085:5095   */\n      swap4\n      pop\n        /* \"#utility.yul\":4493:5101   */\n      pop\n      pop\n      pop\n        /* \"#utility.yul\":4369:5101   */\n      swap3\n      swap2\n      pop\n      pop\n      jump\t// out\n        /* \"#utility.yul\":5107:5480   */\n    tag_21:\n        /* \"#utility.yul\":5250:5254   */\n      0x00\n        /* \"#utility.yul\":5288:5290   */\n      0x20\n        /* \"#utility.yul\":5277:5286   */\n      dup3\n        /* \"#utility.yul\":5273:5291   */\n      add\n        /* \"#utility.yul\":5265:5291   */\n      swap1\n      pop\n        /* \"#utility.yul\":5337:5346   */\n      dup2\n        /* \"#utility.yul\":5331:5335   */\n      dup2\n        /* \"#utility.yul\":5327:5347   */\n      sub\n        /* \"#utility.yul\":5323:5324   */\n      0x00\n        /* \"#utility.yul\":5312:5321   */\n      dup4\n        /* \"#utility.yul\":5308:5325   */\n      add\n        /* \"#utility.yul\":5301:5348   */\n      mstore\n        /* \"#utility.yul\":5365:5473   */\n      tag_260\n        /* \"#utility.yul\":5468:5472   */\n      dup2\n        /* \"#utility.yul\":5459:5465   */\n      dup5\n        /* \"#utility.yul\":5365:5473   */\n      tag_171\n      jump\t// in\n    tag_260:\n        /* \"#utility.yul\":5357:5473   */\n      swap1\n      pop\n        /* \"#utility.yul\":5107:5480   */\n      swap3\n      swap2\n      pop\n      pop\n      jump\t// out\n        /* \"#utility.yul\":5486:5612   */\n    tag_172:\n        /* \"#utility.yul\":5523:5530   */\n      0x00\n        /* \"#utility.yul\":5563:5605   */\n      0xffffffffffffffffffffffffffffffffffffffff\n        /* \"#utility.yul\":5556:5561   */\n      dup3\n        /* \"#utility.yul\":5552:5606   */\n      and\n        /* \"#utility.yul\":5541:5606   */\n      swap1\n      pop\n        /* \"#utility.yul\":5486:5612   */\n      swap2\n      swap1\n      pop\n      jump\t// out\n        /* \"#utility.yul\":5618:5714   */\n    tag_173:\n        /* \"#utility.yul\":5655:5662   */\n      0x00\n        /* \"#utility.yul\":5684:5708   */\n      tag_263\n        /* \"#utility.yul\":5702:5707   */\n      dup3\n        /* \"#utility.yul\":5684:5708   */\n      tag_172\n      jump\t// in\n    tag_263:\n        /* \"#utility.yul\":5673:5708   */\n      swap1\n      pop\n        /* \"#utility.yul\":5618:5714   */\n      swap2\n      swap1\n      pop\n      jump\t// out\n        /* \"#utility.yul\":5720:5842   */\n    tag_174:\n        /* \"#utility.yul\":5793:5817   */\n      tag_265\n        /* \"#utility.yul\":5811:5816   */\n      dup2\n        /* \"#utility.yul\":5793:5817   */\n      tag_173\n      jump\t// in\n    tag_265:\n        /* \"#utility.yul\":5786:5791   */\n      dup2\n        /* \"#utility.yul\":5783:5818   */\n      eq\n        /* \"#utility.yul\":5773:5836   */\n      tag_266\n      jumpi\n        /* \"#utility.yul\":5832:5833   */\n      0x00\n        /* \"#utility.yul\":5829:5830   */\n      dup1\n        /* \"#utility.yul\":5822:5834   */\n      revert\n        /* \"#utility.yul\":5773:5836   */\n    tag_266:\n        /* \"#utility.yul\":5720:5842   */\n      pop\n      jump\t// out\n        /* \"#utility.yul\":5848:5987   */\n    tag_175:\n        /* \"#utility.yul\":5894:5899   */\n      0x00\n        /* \"#utility.yul\":5932:5938   */\n      dup2\n        /* \"#utility.yul\":5919:5939   */\n      calldataload\n        /* \"#utility.yul\":5910:5939   */\n      swap1\n      pop\n        /* \"#utility.yul\":5948:5981   */\n      tag_268\n        /* \"#utility.yul\":5975:5980   */\n      dup2\n        /* \"#utility.yul\":5948:5981   */\n      tag_174\n      jump\t// in\n    tag_268:\n        /* \"#utility.yul\":5848:5987   */\n      swap3\n      swap2\n      pop\n      pop\n      jump\t// out\n        /* \"#utility.yul\":5993:6110   */\n    tag_176:\n        /* \"#utility.yul\":6102:6103   */\n      0x00\n        /* \"#utility.yul\":6099:6100   */\n      dup1\n        /* \"#utility.yul\":6092:6104   */\n      revert\n        /* \"#utility.yul\":6116:6218   */\n    tag_177:\n        /* \"#utility.yul\":6157:6163   */\n      0x00\n        /* \"#utility.yul\":6208:6210   */\n      0x1f\n        /* \"#utility.yul\":6204:6211   */\n      not\n        /* \"#utility.yul\":6199:6201   */\n      0x1f\n        /* \"#utility.yul\":6192:6197   */\n      dup4\n        /* \"#utility.yul\":6188:6202   */\n      add\n        /* \"#utility.yul\":6184:6212   */\n      and\n        /* \"#utility.yul\":6174:6212   */\n      swap1\n      pop\n        /* \"#utility.yul\":6116:6218   */\n      swap2\n      swap1\n      pop\n      jump\t// out\n        /* \"#utility.yul\":6224:6404   */\n    tag_60:\n        /* \"#utility.yul\":6272:6349   */\n      0x4e487b7100000000000000000000000000000000000000000000000000000000\n        /* \"#utility.yul\":6269:6270   */\n      0x00\n        /* \"#utility.yul\":6262:6350   */\n      mstore\n        /* \"#utility.yul\":6369:6373   */\n      0x41\n        /* \"#utility.yul\":6366:6367   */\n      0x04\n        /* \"#utility.yul\":6359:6374   */\n      mstore\n        /* \"#utility.yul\":6393:6397   */\n      0x24\n        /* \"#utility.yul\":6390:6391   */\n      0x00\n        /* \"#utility.yul\":6383:6398   */\n      revert\n        /* \"#utility.yul\":6410:6691   */\n    tag_178:\n        /* \"#utility.yul\":6493:6520   */\n      tag_273\n        /* \"#utility.yul\":6515:6519   */\n      dup3\n        /* \"#utility.yul\":6493:6520   */\n      tag_177\n      jump\t// in\n    tag_273:\n        /* \"#utility.yul\":6485:6491   */\n      dup2\n        /* \"#utility.yul\":6481:6521   */\n      add\n        /* \"#utility.yul\":6623:6629   */\n      dup2\n        /* \"#utility.yul\":6611:6621   */\n      dup2\n        /* \"#utility.yul\":6608:6630   */\n      lt\n        /* \"#utility.yul\":6587:6605   */\n      0xffffffffffffffff\n        /* \"#utility.yul\":6575:6585   */\n      dup3\n        /* \"#utility.yul\":6572:6606   */\n      gt\n        /* \"#utility.yul\":6569:6631   */\n      or\n        /* \"#utility.yul\":6566:6654   */\n      iszero\n      tag_274\n      jumpi\n        /* \"#utility.yul\":6634:6652   */\n      tag_275\n      tag_60\n      jump\t// in\n    tag_275:\n        /* \"#utility.yul\":6566:6654   */\n    tag_274:\n        /* \"#utility.yul\":6674:6684   */\n      dup1\n        /* \"#utility.yul\":6670:6672   */\n      0x40\n        /* \"#utility.yul\":6663:6685   */\n      mstore\n        /* \"#utility.yul\":6453:6691   */\n      pop\n        /* \"#utility.yul\":6410:6691   */\n      pop\n      pop\n      jump\t// out\n        /* \"#utility.yul\":6697:6826   */\n    tag_179:\n        /* \"#utility.yul\":6731:6737   */\n      0x00\n        /* \"#utility.yul\":6758:6778   */\n      tag_277\n      tag_156\n      jump\t// in\n    tag_277:\n        /* \"#utility.yul\":6748:6778   */\n      swap1\n      pop\n        /* \"#utility.yul\":6787:6820   */\n      tag_278\n        /* \"#utility.yul\":6815:6819   */\n      dup3\n        /* \"#utility.yul\":6807:6813   */\n      dup3\n        /* \"#utility.yul\":6787:6820   */\n      tag_178\n      jump\t// in\n    tag_278:\n        /* \"#utility.yul\":6697:6826   */\n      swap2\n      swap1\n      pop\n      jump\t// out\n        /* \"#utility.yul\":6832:7139   */\n    tag_180:\n        /* \"#utility.yul\":6893:6897   */\n      0x00\n        /* \"#utility.yul\":6983:7001   */\n      0xffffffffffffffff\n        /* \"#utility.yul\":6975:6981   */\n      dup3\n        /* \"#utility.yul\":6972:7002   */\n      gt\n        /* \"#utility.yul\":6969:7025   */\n      iszero\n      tag_280\n      jumpi\n        /* \"#utility.yul\":7005:7023   */\n      tag_281\n      tag_60\n      jump\t// in\n    tag_281:\n        /* \"#utility.yul\":6969:7025   */\n    tag_280:\n        /* \"#utility.yul\":7043:7072   */\n      tag_282\n        /* \"#utility.yul\":7065:7071   */\n      dup3\n        /* \"#utility.yul\":7043:7072   */\n      tag_177\n      jump\t// in\n    tag_282:\n        /* \"#utility.yul\":7035:7072   */\n      swap1\n      pop\n        /* \"#utility.yul\":7127:7131   */\n      0x20\n        /* \"#utility.yul\":7121:7125   */\n      dup2\n        /* \"#utility.yul\":7117:7132   */\n      add\n        /* \"#utility.yul\":7109:7132   */\n      swap1\n      pop\n        /* \"#utility.yul\":6832:7139   */\n      swap2\n      swap1\n      pop\n      jump\t// out\n        /* \"#utility.yul\":7145:7291   */\n    tag_181:\n        /* \"#utility.yul\":7242:7248   */\n      dup3\n        /* \"#utility.yul\":7237:7240   */\n      dup2\n        /* \"#utility.yul\":7232:7235   */\n      dup4\n        /* \"#utility.yul\":7219:7249   */\n      calldatacopy\n        /* \"#utility.yul\":7283:7284   */\n      0x00\n        /* \"#utility.yul\":7274:7280   */\n      dup4\n        /* \"#utility.yul\":7269:7272   */\n      dup4\n        /* \"#utility.yul\":7265:7281   */\n      add\n        /* \"#utility.yul\":7258:7285   */\n      mstore\n        /* \"#utility.yul\":7145:7291   */\n      pop\n      pop\n      pop\n      jump\t// out\n        /* \"#utility.yul\":7297:7720   */\n    tag_182:\n        /* \"#utility.yul\":7374:7379   */\n      0x00\n        /* \"#utility.yul\":7399:7464   */\n      tag_285\n        /* \"#utility.yul\":7415:7463   */\n      tag_286\n        /* \"#utility.yul\":7456:7462   */\n      dup5\n        /* \"#utility.yul\":7415:7463   */\n      tag_180\n      jump\t// in\n    tag_286:\n        /* \"#utility.yul\":7399:7464   */\n      tag_179\n      jump\t// in\n    tag_285:\n        /* \"#utility.yul\":7390:7464   */\n      swap1\n      pop\n        /* \"#utility.yul\":7487:7493   */\n      dup3\n        /* \"#utility.yul\":7480:7485   */\n      dup2\n        /* \"#utility.yul\":7473:7494   */\n      mstore\n        /* \"#utility.yul\":7525:7529   */\n      0x20\n        /* \"#utility.yul\":7518:7523   */\n      dup2\n        /* \"#utility.yul\":7514:7530   */\n      add\n        /* \"#utility.yul\":7563:7566   */\n      dup5\n        /* \"#utility.yul\":7554:7560   */\n      dup5\n        /* \"#utility.yul\":7549:7552   */\n      dup5\n        /* \"#utility.yul\":7545:7561   */\n      add\n        /* \"#utility.yul\":7542:7567   */\n      gt\n        /* \"#utility.yul\":7539:7651   */\n      iszero\n      tag_287\n      jumpi\n        /* \"#utility.yul\":7570:7649   */\n      tag_288\n      tag_176\n      jump\t// in\n    tag_288:\n        /* \"#utility.yul\":7539:7651   */\n    tag_287:\n        /* \"#utility.yul\":7660:7714   */\n      tag_289\n        /* \"#utility.yul\":7707:7713   */\n      dup5\n        /* \"#utility.yul\":7702:7705   */\n      dup3\n        /* \"#utility.yul\":7697:7700   */\n      dup6\n        /* \"#utility.yul\":7660:7714   */\n      tag_181\n      jump\t// in\n    tag_289:\n        /* \"#utility.yul\":7380:7720   */\n      pop\n        /* \"#utility.yul\":7297:7720   */\n      swap4\n      swap3\n      pop\n      pop\n      pop\n      jump\t// out\n        /* \"#utility.yul\":7739:8077   */\n    tag_183:\n        /* \"#utility.yul\":7794:7799   */\n      0x00\n        /* \"#utility.yul\":7843:7846   */\n      dup3\n        /* \"#utility.yul\":7836:7840   */\n      0x1f\n        /* \"#utility.yul\":7828:7834   */\n      dup4\n        /* \"#utility.yul\":7824:7841   */\n      add\n        /* \"#utility.yul\":7820:7847   */\n      slt\n        /* \"#utility.yul\":7810:7932   */\n      tag_291\n      jumpi\n        /* \"#utility.yul\":7851:7930   */\n      tag_292\n      tag_159\n      jump\t// in\n    tag_292:\n        /* \"#utility.yul\":7810:7932   */\n    tag_291:\n        /* \"#utility.yul\":7968:7974   */\n      dup2\n        /* \"#utility.yul\":7955:7975   */\n      calldataload\n        /* \"#utility.yul\":7993:8071   */\n      tag_293\n        /* \"#utility.yul\":8067:8070   */\n      dup5\n        /* \"#utility.yul\":8059:8065   */\n      dup3\n        /* \"#utility.yul\":8052:8056   */\n      0x20\n        /* \"#utility.yul\":8044:8050   */\n      dup7\n        /* \"#utility.yul\":8040:8057   */\n      add\n        /* \"#utility.yul\":7993:8071   */\n      tag_182\n      jump\t// in\n    tag_293:\n        /* \"#utility.yul\":7984:8071   */\n      swap2\n      pop\n        /* \"#utility.yul\":7800:8077   */\n      pop\n        /* \"#utility.yul\":7739:8077   */\n      swap3\n      swap2\n      pop\n      pop\n      jump\t// out\n        /* \"#utility.yul\":8083:8735   */\n    tag_24:\n        /* \"#utility.yul\":8160:8166   */\n      0x00\n        /* \"#utility.yul\":8168:8174   */\n      dup1\n        /* \"#utility.yul\":8217:8219   */\n      0x40\n        /* \"#utility.yul\":8205:8214   */\n      dup4\n        /* \"#utility.yul\":8196:8203   */\n      dup6\n        /* \"#utility.yul\":8192:8215   */\n      sub\n        /* \"#utility.yul\":8188:8220   */\n      slt\n        /* \"#utility.yul\":8185:8304   */\n      iszero\n      tag_295\n      jumpi\n        /* \"#utility.yul\":8223:8302   */\n      tag_296\n      tag_157\n      jump\t// in\n    tag_296:\n        /* \"#utility.yul\":8185:8304   */\n    tag_295:\n        /* \"#utility.yul\":8343:8344   */\n      0x00\n        /* \"#utility.yul\":8368:8421   */\n      tag_297\n        /* \"#utility.yul\":8413:8420   */\n      dup6\n        /* \"#utility.yul\":8404:8410   */\n      dup3\n        /* \"#utility.yul\":8393:8402   */\n      dup7\n        /* \"#utility.yul\":8389:8411   */\n      add\n        /* \"#utility.yul\":8368:8421   */\n      tag_175\n      jump\t// in\n    tag_297:\n        /* \"#utility.yul\":8358:8421   */\n      swap3\n      pop\n        /* \"#utility.yul\":8314:8431   */\n      pop\n        /* \"#utility.yul\":8498:8500   */\n      0x20\n        /* \"#utility.yul\":8487:8496   */\n      dup4\n        /* \"#utility.yul\":8483:8501   */\n      add\n        /* \"#utility.yul\":8470:8502   */\n      calldataload\n        /* \"#utility.yul\":8529:8547   */\n      0xffffffffffffffff\n        /* \"#utility.yul\":8521:8527   */\n      dup2\n        /* \"#utility.yul\":8518:8548   */\n      gt\n        /* \"#utility.yul\":8515:8632   */\n      iszero\n      tag_298\n      jumpi\n        /* \"#utility.yul\":8551:8630   */\n      tag_299\n      tag_158\n      jump\t// in\n    tag_299:\n        /* \"#utility.yul\":8515:8632   */\n    tag_298:\n        /* \"#utility.yul\":8656:8718   */\n      tag_300\n        /* \"#utility.yul\":8710:8717   */\n      dup6\n        /* \"#utility.yul\":8701:8707   */\n      dup3\n        /* \"#utility.yul\":8690:8699   */\n      dup7\n        /* \"#utility.yul\":8686:8708   */\n      add\n        /* \"#utility.yul\":8656:8718   */\n      tag_183\n      jump\t// in\n    tag_300:\n        /* \"#utility.yul\":8646:8718   */\n      swap2\n      pop\n        /* \"#utility.yul\":8441:8728   */\n      pop\n        /* \"#utility.yul\":8083:8735   */\n      swap3\n      pop\n      swap3\n      swap1\n      pop\n      jump\t// out\n        /* \"#utility.yul\":8741:8818   */\n    tag_184:\n        /* \"#utility.yul\":8778:8785   */\n      0x00\n        /* \"#utility.yul\":8807:8812   */\n      dup2\n        /* \"#utility.yul\":8796:8812   */\n      swap1\n      pop\n        /* \"#utility.yul\":8741:8818   */\n      swap2\n      swap1\n      pop\n      jump\t// out\n        /* \"#utility.yul\":8824:8942   */\n    tag_185:\n        /* \"#utility.yul\":8911:8935   */\n      tag_303\n        /* \"#utility.yul\":8929:8934   */\n      dup2\n        /* \"#utility.yul\":8911:8935   */\n      tag_184\n      jump\t// in\n    tag_303:\n        /* \"#utility.yul\":8906:8909   */\n      dup3\n        /* \"#utility.yul\":8899:8936   */\n      mstore\n        /* \"#utility.yul\":8824:8942   */\n      pop\n      pop\n      jump\t// out\n        /* \"#utility.yul\":8948:9170   */\n    tag_30:\n        /* \"#utility.yul\":9041:9045   */\n      0x00\n        /* \"#utility.yul\":9079:9081   */\n      0x20\n        /* \"#utility.yul\":9068:9077   */\n      dup3\n        /* \"#utility.yul\":9064:9082   */\n      add\n        /* \"#utility.yul\":9056:9082   */\n      swap1\n      pop\n        /* \"#utility.yul\":9092:9163   */\n      tag_305\n        /* \"#utility.yul\":9160:9161   */\n      0x00\n        /* \"#utility.yul\":9149:9158   */\n      dup4\n        /* \"#utility.yul\":9145:9162   */\n      add\n        /* \"#utility.yul\":9136:9142   */\n      dup5\n        /* \"#utility.yul\":9092:9163   */\n      tag_185\n      jump\t// in\n    tag_305:\n        /* \"#utility.yul\":8948:9170   */\n      swap3\n      swap2\n      pop\n      pop\n      jump\t// out\n        /* \"#utility.yul\":9176:9298   */\n    tag_186:\n        /* \"#utility.yul\":9249:9273   */\n      tag_307\n        /* \"#utility.yul\":9267:9272   */\n      dup2\n        /* \"#utility.yul\":9249:9273   */\n      tag_184\n      jump\t// in\n    tag_307:\n        /* \"#utility.yul\":9242:9247   */\n      dup2\n        /* \"#utility.yul\":9239:9274   */\n      eq\n        /* \"#utility.yul\":9229:9292   */\n      tag_308\n      jumpi\n        /* \"#utility.yul\":9288:9289   */\n      0x00\n        /* \"#utility.yul\":9285:9286   */\n      dup1\n        /* \"#utility.yul\":9278:9290   */\n      revert\n        /* \"#utility.yul\":9229:9292   */\n    tag_308:\n        /* \"#utility.yul\":9176:9298   */\n      pop\n      jump\t// out\n        /* \"#utility.yul\":9304:9443   */\n    tag_187:\n        /* \"#utility.yul\":9350:9355   */\n      0x00\n        /* \"#utility.yul\":9388:9394   */\n      dup2\n        /* \"#utility.yul\":9375:9395   */\n      calldataload\n        /* \"#utility.yul\":9366:9395   */\n      swap1\n      pop\n        /* \"#utility.yul\":9404:9437   */\n      tag_310\n        /* \"#utility.yul\":9431:9436   */\n      dup2\n        /* \"#utility.yul\":9404:9437   */\n      tag_186\n      jump\t// in\n    tag_310:\n        /* \"#utility.yul\":9304:9443   */\n      swap3\n      swap2\n      pop\n      pop\n      jump\t// out\n        /* \"#utility.yul\":9449:9778   */\n    tag_34:\n        /* \"#utility.yul\":9508:9514   */\n      0x00\n        /* \"#utility.yul\":9557:9559   */\n      0x20\n        /* \"#utility.yul\":9545:9554   */\n      dup3\n        /* \"#utility.yul\":9536:9543   */\n      dup5\n        /* \"#utility.yul\":9532:9555   */\n      sub\n        /* \"#utility.yul\":9528:9560   */\n      slt\n        /* \"#utility.yul\":9525:9644   */\n      iszero\n      tag_312\n      jumpi\n        /* \"#utility.yul\":9563:9642   */\n      tag_313\n      tag_157\n      jump\t// in\n    tag_313:\n        /* \"#utility.yul\":9525:9644   */\n    tag_312:\n        /* \"#utility.yul\":9683:9684   */\n      0x00\n        /* \"#utility.yul\":9708:9761   */\n      tag_314\n        /* \"#utility.yul\":9753:9760   */\n      dup5\n        /* \"#utility.yul\":9744:9750   */\n      dup3\n        /* \"#utility.yul\":9733:9742   */\n      dup6\n        /* \"#utility.yul\":9729:9751   */\n      add\n        /* \"#utility.yul\":9708:9761   */\n      tag_187\n      jump\t// in\n    tag_314:\n        /* \"#utility.yul\":9698:9761   */\n      swap2\n      pop\n        /* \"#utility.yul\":9654:9771   */\n      pop\n        /* \"#utility.yul\":9449:9778   */\n      swap3\n      swap2\n      pop\n      pop\n      jump\t// out\n        /* \"#utility.yul\":9784:9902   */\n    tag_188:\n        /* \"#utility.yul\":9871:9895   */\n      tag_316\n        /* \"#utility.yul\":9889:9894   */\n      dup2\n        /* \"#utility.yul\":9871:9895   */\n      tag_167\n      jump\t// in\n    tag_316:\n        /* \"#utility.yul\":9866:9869   */\n      dup3\n        /* \"#utility.yul\":9859:9896   */\n      mstore\n        /* \"#utility.yul\":9784:9902   */\n      pop\n      pop\n      jump\t// out\n        /* \"#utility.yul\":9908:10130   */\n    tag_37:\n        /* \"#utility.yul\":10001:10005   */\n      0x00\n        /* \"#utility.yul\":10039:10041   */\n      0x20\n        /* \"#utility.yul\":10028:10037   */\n      dup3\n        /* \"#utility.yul\":10024:10042   */\n      add\n        /* \"#utility.yul\":10016:10042   */\n      swap1\n      pop\n        /* \"#utility.yul\":10052:10123   */\n      tag_318\n        /* \"#utility.yul\":10120:10121   */\n      0x00\n        /* \"#utility.yul\":10109:10118   */\n      dup4\n        /* \"#utility.yul\":10105:10122   */\n      add\n        /* \"#utility.yul\":10096:10102   */\n      dup5\n        /* \"#utility.yul\":10052:10123   */\n      tag_188\n      jump\t// in\n    tag_318:\n        /* \"#utility.yul\":9908:10130   */\n      swap3\n      swap2\n      pop\n      pop\n      jump\t// out\n        /* \"#utility.yul\":10136:10235   */\n    tag_189:\n        /* \"#utility.yul\":10188:10194   */\n      0x00\n        /* \"#utility.yul\":10222:10227   */\n      dup2\n        /* \"#utility.yul\":10216:10228   */\n      mload\n        /* \"#utility.yul\":10206:10228   */\n      swap1\n      pop\n        /* \"#utility.yul\":10136:10235   */\n      swap2\n      swap1\n      pop\n      jump\t// out\n        /* \"#utility.yul\":10241:10410   */\n    tag_190:\n        /* \"#utility.yul\":10325:10336   */\n      0x00\n        /* \"#utility.yul\":10359:10365   */\n      dup3\n        /* \"#utility.yul\":10354:10357   */\n      dup3\n        /* \"#utility.yul\":10347:10366   */\n      mstore\n        /* \"#utility.yul\":10399:10403   */\n      0x20\n        /* \"#utility.yul\":10394:10397   */\n      dup3\n        /* \"#utility.yul\":10390:10404   */\n      add\n        /* \"#utility.yul\":10375:10404   */\n      swap1\n      pop\n        /* \"#utility.yul\":10241:10410   */\n      swap3\n      swap2\n      pop\n      pop\n      jump\t// out\n        /* \"#utility.yul\":10416:10662   */\n    tag_191:\n        /* \"#utility.yul\":10497:10498   */\n      0x00\n        /* \"#utility.yul\":10507:10620   */\n    tag_322:\n        /* \"#utility.yul\":10521:10527   */\n      dup4\n        /* \"#utility.yul\":10518:10519   */\n      dup2\n        /* \"#utility.yul\":10515:10528   */\n      lt\n        /* \"#utility.yul\":10507:10620   */\n      iszero\n      tag_324\n      jumpi\n        /* \"#utility.yul\":10606:10607   */\n      dup1\n        /* \"#utility.yul\":10601:10604   */\n      dup3\n        /* \"#utility.yul\":10597:10608   */\n      add\n        /* \"#utility.yul\":10591:10609   */\n      mload\n        /* \"#utility.yul\":10587:10588   */\n      dup2\n        /* \"#utility.yul\":10582:10585   */\n      dup5\n        /* \"#utility.yul\":10578:10589   */\n      add\n        /* \"#utility.yul\":10571:10610   */\n      mstore\n        /* \"#utility.yul\":10543:10545   */\n      0x20\n        /* \"#utility.yul\":10540:10541   */\n      dup2\n        /* \"#utility.yul\":10536:10546   */\n      add\n        /* \"#utility.yul\":10531:10546   */\n      swap1\n      pop\n        /* \"#utility.yul\":10507:10620   */\n      jump(tag_322)\n    tag_324:\n        /* \"#utility.yul\":10654:10655   */\n      0x00\n        /* \"#utility.yul\":10645:10651   */\n      dup5\n        /* \"#utility.yul\":10640:10643   */\n      dup5\n        /* \"#utility.yul\":10636:10652   */\n      add\n        /* \"#utility.yul\":10629:10656   */\n      mstore\n        /* \"#utility.yul\":10478:10662   */\n      pop\n        /* \"#utility.yul\":10416:10662   */\n      pop\n      pop\n      pop\n      jump\t// out\n        /* \"#utility.yul\":10668:11045   */\n    tag_192:\n        /* \"#utility.yul\":10756:10759   */\n      0x00\n        /* \"#utility.yul\":10784:10823   */\n      tag_326\n        /* \"#utility.yul\":10817:10822   */\n      dup3\n        /* \"#utility.yul\":10784:10823   */\n      tag_189\n      jump\t// in\n    tag_326:\n        /* \"#utility.yul\":10839:10910   */\n      tag_327\n        /* \"#utility.yul\":10903:10909   */\n      dup2\n        /* \"#utility.yul\":10898:10901   */\n      dup6\n        /* \"#utility.yul\":10839:10910   */\n      tag_190\n      jump\t// in\n    tag_327:\n        /* \"#utility.yul\":10832:10910   */\n      swap4\n      pop\n        /* \"#utility.yul\":10919:10984   */\n      tag_328\n        /* \"#utility.yul\":10977:10983   */\n      dup2\n        /* \"#utility.yul\":10972:10975   */\n      dup6\n        /* \"#utility.yul\":10965:10969   */\n      0x20\n        /* \"#utility.yul\":10958:10963   */\n      dup7\n        /* \"#utility.yul\":10954:10970   */\n      add\n        /* \"#utility.yul\":10919:10984   */\n      tag_191\n      jump\t// in\n    tag_328:\n        /* \"#utility.yul\":11009:11038   */\n      tag_329\n        /* \"#utility.yul\":11031:11037   */\n      dup2\n        /* \"#utility.yul\":11009:11038   */\n      tag_177\n      jump\t// in\n    tag_329:\n        /* \"#utility.yul\":11004:11007   */\n      dup5\n        /* \"#utility.yul\":11000:11039   */\n      add\n        /* \"#utility.yul\":10993:11039   */\n      swap2\n      pop\n        /* \"#utility.yul\":10760:11045   */\n      pop\n        /* \"#utility.yul\":10668:11045   */\n      swap3\n      swap2\n      pop\n      pop\n      jump\t// out\n        /* \"#utility.yul\":11051:11364   */\n    tag_45:\n        /* \"#utility.yul\":11164:11168   */\n      0x00\n        /* \"#utility.yul\":11202:11204   */\n      0x20\n        /* \"#utility.yul\":11191:11200   */\n      dup3\n        /* \"#utility.yul\":11187:11205   */\n      add\n        /* \"#utility.yul\":11179:11205   */\n      swap1\n      pop\n        /* \"#utility.yul\":11251:11260   */\n      dup2\n        /* \"#utility.yul\":11245:11249   */\n      dup2\n        /* \"#utility.yul\":11241:11261   */\n      sub\n        /* \"#utility.yul\":11237:11238   */\n      0x00\n        /* \"#utility.yul\":11226:11235   */\n      dup4\n        /* \"#utility.yul\":11222:11239   */\n      add\n        /* \"#utility.yul\":11215:11262   */\n      mstore\n        /* \"#utility.yul\":11279:11357   */\n      tag_331\n        /* \"#utility.yul\":11352:11356   */\n      dup2\n        /* \"#utility.yul\":11343:11349   */\n      dup5\n        /* \"#utility.yul\":11279:11357   */\n      tag_192\n      jump\t// in\n    tag_331:\n        /* \"#utility.yul\":11271:11357   */\n      swap1\n      pop\n        /* \"#utility.yul\":11051:11364   */\n      swap3\n      swap2\n      pop\n      pop\n      jump\t// out\n        /* \"#utility.yul\":11370:11550   */\n    tag_52:\n        /* \"#utility.yul\":11418:11495   */\n      0x4e487b7100000000000000000000000000000000000000000000000000000000\n        /* \"#utility.yul\":11415:11416   */\n      0x00\n        /* \"#utility.yul\":11408:11496   */\n      mstore\n        /* \"#utility.yul\":11515:11519   */\n      0x32\n        /* \"#utility.yul\":11512:11513   */\n      0x04\n        /* \"#utility.yul\":11505:11520   */\n      mstore\n        /* \"#utility.yul\":11539:11543   */\n      0x24\n        /* \"#utility.yul\":11536:11537   */\n      0x00\n        /* \"#utility.yul\":11529:11544   */\n      revert\n        /* \"#utility.yul\":11556:11736   */\n    tag_193:\n        /* \"#utility.yul\":11604:11681   */\n      0x4e487b7100000000000000000000000000000000000000000000000000000000\n        /* \"#utility.yul\":11601:11602   */\n      0x00\n        /* \"#utility.yul\":11594:11682   */\n      mstore\n        /* \"#utility.yul\":11701:11705   */\n      0x11\n        /* \"#utility.yul\":11698:11699   */\n      0x04\n        /* \"#utility.yul\":11691:11706   */\n      mstore\n        /* \"#utility.yul\":11725:11729   */\n      0x24\n        /* \"#utility.yul\":11722:11723   */\n      0x00\n        /* \"#utility.yul\":11715:11730   */\n      revert\n        /* \"#utility.yul\":11742:11828   */\n    tag_194:\n        /* \"#utility.yul\":11777:11784   */\n      0x00\n        /* \"#utility.yul\":11817:11821   */\n      0xff\n        /* \"#utility.yul\":11810:11815   */\n      dup3\n        /* \"#utility.yul\":11806:11822   */\n      and\n        /* \"#utility.yul\":11795:11822   */\n      swap1\n      pop\n        /* \"#utility.yul\":11742:11828   */\n      swap2\n      swap1\n      pop\n      jump\t// out\n        /* \"#utility.yul\":11834:12001   */\n    tag_56:\n        /* \"#utility.yul\":11871:11874   */\n      0x00\n        /* \"#utility.yul\":11894:11916   */\n      tag_336\n        /* \"#utility.yul\":11910:11915   */\n      dup3\n        /* \"#utility.yul\":11894:11916   */\n      tag_194\n      jump\t// in\n    tag_336:\n        /* \"#utility.yul\":11885:11916   */\n      swap2\n      pop\n        /* \"#utility.yul\":11938:11942   */\n      0xff\n        /* \"#utility.yul\":11931:11936   */\n      dup3\n        /* \"#utility.yul\":11928:11943   */\n      sub\n        /* \"#utility.yul\":11925:11966   */\n      tag_337\n      jumpi\n        /* \"#utility.yul\":11946:11964   */\n      tag_338\n      tag_193\n      jump\t// in\n    tag_338:\n        /* \"#utility.yul\":11925:11966   */\n    tag_337:\n        /* \"#utility.yul\":11993:11994   */\n      0x01\n        /* \"#utility.yul\":11986:11991   */\n      dup3\n        /* \"#utility.yul\":11982:11995   */\n      add\n        /* \"#utility.yul\":11975:11995   */\n      swap1\n      pop\n        /* \"#utility.yul\":11834:12001   */\n      swap2\n      swap1\n      pop\n      jump\t// out\n        /* \"#utility.yul\":12007:12092   */\n    tag_195:\n        /* \"#utility.yul\":12052:12059   */\n      0x00\n        /* \"#utility.yul\":12081:12086   */\n      dup2\n        /* \"#utility.yul\":12070:12086   */\n      swap1\n      pop\n        /* \"#utility.yul\":12007:12092   */\n      swap2\n      swap1\n      pop\n      jump\t// out\n        /* \"#utility.yul\":12098:12199   */\n    tag_196:\n        /* \"#utility.yul\":12134:12141   */\n      0x00\n        /* \"#utility.yul\":12174:12192   */\n      0xffffffffffffffff\n        /* \"#utility.yul\":12167:12172   */\n      dup3\n        /* \"#utility.yul\":12163:12193   */\n      and\n        /* \"#utility.yul\":12152:12193   */\n      swap1\n      pop\n        /* \"#utility.yul\":12098:12199   */\n      swap2\n      swap1\n      pop\n      jump\t// out\n        /* \"#utility.yul\":12205:12265   */\n    tag_197:\n        /* \"#utility.yul\":12233:12236   */\n      0x00\n        /* \"#utility.yul\":12254:12259   */\n      dup2\n        /* \"#utility.yul\":12247:12259   */\n      swap1\n      pop\n        /* \"#utility.yul\":12205:12265   */\n      swap2\n      swap1\n      pop\n      jump\t// out\n        /* \"#utility.yul\":12271:12427   */\n    tag_198:\n        /* \"#utility.yul\":12328:12337   */\n      0x00\n        /* \"#utility.yul\":12361:12421   */\n      tag_343\n        /* \"#utility.yul\":12378:12420   */\n      tag_344\n        /* \"#utility.yul\":12387:12419   */\n      tag_345\n        /* \"#utility.yul\":12413:12418   */\n      dup5\n        /* \"#utility.yul\":12387:12419   */\n      tag_195\n      jump\t// in\n    tag_345:\n        /* \"#utility.yul\":12378:12420   */\n      tag_197\n      jump\t// in\n    tag_344:\n        /* \"#utility.yul\":12361:12421   */\n      tag_196\n      jump\t// in\n    tag_343:\n        /* \"#utility.yul\":12348:12421   */\n      swap1\n      pop\n        /* \"#utility.yul\":12271:12427   */\n      swap2\n      swap1\n      pop\n      jump\t// out\n        /* \"#utility.yul\":12433:12578   */\n    tag_199:\n        /* \"#utility.yul\":12527:12571   */\n      tag_347\n        /* \"#utility.yul\":12565:12570   */\n      dup2\n        /* \"#utility.yul\":12527:12571   */\n      tag_198\n      jump\t// in\n    tag_347:\n        /* \"#utility.yul\":12522:12525   */\n      dup3\n        /* \"#utility.yul\":12515:12572   */\n      mstore\n        /* \"#utility.yul\":12433:12578   */\n      pop\n      pop\n      jump\t// out\n        /* \"#utility.yul\":12584:12820   */\n    tag_93:\n        /* \"#utility.yul\":12684:12688   */\n      0x00\n        /* \"#utility.yul\":12722:12724   */\n      0x20\n        /* \"#utility.yul\":12711:12720   */\n      dup3\n        /* \"#utility.yul\":12707:12725   */\n      add\n        /* \"#utility.yul\":12699:12725   */\n      swap1\n      pop\n        /* \"#utility.yul\":12735:12813   */\n      tag_349\n        /* \"#utility.yul\":12810:12811   */\n      0x00\n        /* \"#utility.yul\":12799:12808   */\n      dup4\n        /* \"#utility.yul\":12795:12812   */\n      add\n        /* \"#utility.yul\":12786:12792   */\n      dup5\n        /* \"#utility.yul\":12735:12813   */\n      tag_199\n      jump\t// in\n    tag_349:\n        /* \"#utility.yul\":12584:12820   */\n      swap3\n      swap2\n      pop\n      pop\n      jump\t// out\n        /* \"#utility.yul\":12826:12969   */\n    tag_200:\n        /* \"#utility.yul\":12883:12888   */\n      0x00\n        /* \"#utility.yul\":12914:12920   */\n      dup2\n        /* \"#utility.yul\":12908:12921   */\n      mload\n        /* \"#utility.yul\":12899:12921   */\n      swap1\n      pop\n        /* \"#utility.yul\":12930:12963   */\n      tag_351\n        /* \"#utility.yul\":12957:12962   */\n      dup2\n        /* \"#utility.yul\":12930:12963   */\n      tag_186\n      jump\t// in\n    tag_351:\n        /* \"#utility.yul\":12826:12969   */\n      swap3\n      swap2\n      pop\n      pop\n      jump\t// out\n        /* \"#utility.yul\":12975:13326   */\n    tag_103:\n        /* \"#utility.yul\":13045:13051   */\n      0x00\n        /* \"#utility.yul\":13094:13096   */\n      0x20\n        /* \"#utility.yul\":13082:13091   */\n      dup3\n        /* \"#utility.yul\":13073:13080   */\n      dup5\n        /* \"#utility.yul\":13069:13092   */\n      sub\n        /* \"#utility.yul\":13065:13097   */\n      slt\n        /* \"#utility.yul\":13062:13181   */\n      iszero\n      tag_353\n      jumpi\n        /* \"#utility.yul\":13100:13179   */\n      tag_354\n      tag_157\n      jump\t// in\n    tag_354:\n        /* \"#utility.yul\":13062:13181   */\n    tag_353:\n        /* \"#utility.yul\":13220:13221   */\n      0x00\n        /* \"#utility.yul\":13245:13309   */\n      tag_355\n        /* \"#utility.yul\":13301:13308   */\n      dup5\n        /* \"#utility.yul\":13292:13298   */\n      dup3\n        /* \"#utility.yul\":13281:13290   */\n      dup6\n        /* \"#utility.yul\":13277:13299   */\n      add\n        /* \"#utility.yul\":13245:13309   */\n      tag_200\n      jump\t// in\n    tag_355:\n        /* \"#utility.yul\":13235:13309   */\n      swap2\n      pop\n        /* \"#utility.yul\":13191:13319   */\n      pop\n        /* \"#utility.yul\":12975:13326   */\n      swap3\n      swap2\n      pop\n      pop\n      jump\t// out\n        /* \"#utility.yul\":13332:13450   */\n    tag_201:\n        /* \"#utility.yul\":13419:13443   */\n      tag_357\n        /* \"#utility.yul\":13437:13442   */\n      dup2\n        /* \"#utility.yul\":13419:13443   */\n      tag_173\n      jump\t// in\n    tag_357:\n        /* \"#utility.yul\":13414:13417   */\n      dup3\n        /* \"#utility.yul\":13407:13444   */\n      mstore\n        /* \"#utility.yul\":13332:13450   */\n      pop\n      pop\n      jump\t// out\n        /* \"#utility.yul\":13456:13678   */\n    tag_109:\n        /* \"#utility.yul\":13549:13553   */\n      0x00\n        /* \"#utility.yul\":13587:13589   */\n      0x20\n        /* \"#utility.yul\":13576:13585   */\n      dup3\n        /* \"#utility.yul\":13572:13590   */\n      add\n        /* \"#utility.yul\":13564:13590   */\n      swap1\n      pop\n        /* \"#utility.yul\":13600:13671   */\n      tag_359\n        /* \"#utility.yul\":13668:13669   */\n      0x00\n        /* \"#utility.yul\":13657:13666   */\n      dup4\n        /* \"#utility.yul\":13653:13670   */\n      add\n        /* \"#utility.yul\":13644:13650   */\n      dup5\n        /* \"#utility.yul\":13600:13671   */\n      tag_201\n      jump\t// in\n    tag_359:\n        /* \"#utility.yul\":13456:13678   */\n      swap3\n      swap2\n      pop\n      pop\n      jump\t// out\n        /* \"#utility.yul\":13684:13782   */\n    tag_202:\n        /* \"#utility.yul\":13735:13741   */\n      0x00\n        /* \"#utility.yul\":13769:13774   */\n      dup2\n        /* \"#utility.yul\":13763:13775   */\n      mload\n        /* \"#utility.yul\":13753:13775   */\n      swap1\n      pop\n        /* \"#utility.yul\":13684:13782   */\n      swap2\n      swap1\n      pop\n      jump\t// out\n        /* \"#utility.yul\":13788:13935   */\n    tag_203:\n        /* \"#utility.yul\":13889:13900   */\n      0x00\n        /* \"#utility.yul\":13926:13929   */\n      dup2\n        /* \"#utility.yul\":13911:13929   */\n      swap1\n      pop\n        /* \"#utility.yul\":13788:13935   */\n      swap3\n      swap2\n      pop\n      pop\n      jump\t// out\n        /* \"#utility.yul\":13941:14327   */\n    tag_204:\n        /* \"#utility.yul\":14045:14048   */\n      0x00\n        /* \"#utility.yul\":14073:14111   */\n      tag_363\n        /* \"#utility.yul\":14105:14110   */\n      dup3\n        /* \"#utility.yul\":14073:14111   */\n      tag_202\n      jump\t// in\n    tag_363:\n        /* \"#utility.yul\":14127:14215   */\n      tag_364\n        /* \"#utility.yul\":14208:14214   */\n      dup2\n        /* \"#utility.yul\":14203:14206   */\n      dup6\n        /* \"#utility.yul\":14127:14215   */\n      tag_203\n      jump\t// in\n    tag_364:\n        /* \"#utility.yul\":14120:14215   */\n      swap4\n      pop\n        /* \"#utility.yul\":14224:14289   */\n      tag_365\n        /* \"#utility.yul\":14282:14288   */\n      dup2\n        /* \"#utility.yul\":14277:14280   */\n      dup6\n        /* \"#utility.yul\":14270:14274   */\n      0x20\n        /* \"#utility.yul\":14263:14268   */\n      dup7\n        /* \"#utility.yul\":14259:14275   */\n      add\n        /* \"#utility.yul\":14224:14289   */\n      tag_191\n      jump\t// in\n    tag_365:\n        /* \"#utility.yul\":14314:14320   */\n      dup1\n        /* \"#utility.yul\":14309:14312   */\n      dup5\n        /* \"#utility.yul\":14305:14321   */\n      add\n        /* \"#utility.yul\":14298:14321   */\n      swap2\n      pop\n        /* \"#utility.yul\":14049:14327   */\n      pop\n        /* \"#utility.yul\":13941:14327   */\n      swap3\n      swap2\n      pop\n      pop\n      jump\t// out\n        /* \"#utility.yul\":14333:14604   */\n    tag_137:\n        /* \"#utility.yul\":14463:14466   */\n      0x00\n        /* \"#utility.yul\":14485:14578   */\n      tag_367\n        /* \"#utility.yul\":14574:14577   */\n      dup3\n        /* \"#utility.yul\":14565:14571   */\n      dup5\n        /* \"#utility.yul\":14485:14578   */\n      tag_204\n      jump\t// in\n    tag_367:\n        /* \"#utility.yul\":14478:14578   */\n      swap2\n      pop\n        /* \"#utility.yul\":14595:14598   */\n      dup2\n        /* \"#utility.yul\":14588:14598   */\n      swap1\n      pop\n        /* \"#utility.yul\":14333:14604   */\n      swap3\n      swap2\n      pop\n      pop\n      jump\t// out\n\n    auxdata: 0xa264697066735822122013c482140851a2060834a0932743840644bc3f85b935c26df4a9cdec9dfe56a864736f6c63430008140033\n}\n",
				"bytecode": {
					"linkReferences": {},
					"object": "60a06040523073ffffffffffffffffffffffffffffffffffffffff1660809073ffffffffffffffffffffffffffffffffffffffff1681525034801562000043575f80fd5b50620000546200005a60201b60201c565b620001c4565b5f6200006b6200015e60201b60201c565b9050805f0160089054906101000a900460ff1615620000b6576040517ff92ee8a900000000000000000000000000000000000000000000000000000000815260040160405180910390fd5b67ffffffffffffffff8016815f015f9054906101000a900467ffffffffffffffff1667ffffffffffffffff16146200015b5767ffffffffffffffff815f015f6101000a81548167ffffffffffffffff021916908367ffffffffffffffff1602179055507fc7f505b2f371ae2175ee4913f4499e1f2633a7b5936321eed1cdaeb6115181d267ffffffffffffffff604051620001529190620001a9565b60405180910390a15b50565b5f7ff0c57e16840df040f15088dc2f81fe391c3923bec73e23a9662efc9c229c6a00905090565b5f67ffffffffffffffff82169050919050565b620001a38162000185565b82525050565b5f602082019050620001be5f83018462000198565b92915050565b60805161125d620001eb5f395f81816104ef0152818161054401526106f6015261125d5ff3fe60806040526004361061006f575f3560e01c806352d1902d1161004d57806352d1902d146100f357806360846bc61461011d5780638129fc1c14610159578063ad3cb1cc1461016f5761006f565b80631cfdd5231461007357806326ee48361461009b5780634f1ef286146100d7575b5f80fd5b34801561007e575f80fd5b5061009960048036038101906100949190610b8d565b610199565b005b3480156100a6575f80fd5b506100c160048036038101906100bc9190610c0b565b610210565b6040516100ce9190610d16565b60405180910390f35b6100f160048036038101906100ec9190610ec8565b6102d9565b005b3480156100fe575f80fd5b506101076102f8565b6040516101149190610f3a565b60405180910390f35b348015610128575f80fd5b50610143600480360381019061013e9190610f7d565b610329565b6040516101509190610fb7565b60405180910390f35b348015610164575f80fd5b5061016d61033d565b005b34801561017a575f80fd5b506101836104b4565b604051610190919061104a565b60405180910390f35b5f5b848490508160ff1610156102095782828260ff168181106101bf576101be61106a565b5b905060200201355f8087878560ff168181106101de576101dd61106a565b5b9050602002013581526020019081526020015f20819055508080610201906110d0565b91505061019b565b5050505050565b60608282905067ffffffffffffffff81111561022f5761022e610da4565b5b60405190808252806020026020018201604052801561025d5781602001602082028036833780820191505090505b5090505f5b838390508160ff1610156102d2575f8085858460ff168181106102885761028761106a565b5b9050602002013581526020019081526020015f2054828260ff16815181106102b3576102b261106a565b5b60200260200101818152505080806102ca906110d0565b915050610262565b5092915050565b6102e16104ed565b6102ea826105d3565b6102f482826105d6565b5050565b5f6103016106f4565b7f360894a13ba1a3210667c828492db98dca3e2076cc3735a920a3ca505d382bbc5f1b905090565b5f602052805f5260405f205f915090505481565b5f61034661077b565b90505f815f0160089054906101000a900460ff161590505f825f015f9054906101000a900467ffffffffffffffff1690505f808267ffffffffffffffff1614801561038e5750825b90505f60018367ffffffffffffffff161480156103c157505f3073ffffffffffffffffffffffffffffffffffffffff163b145b9050811580156103cf575080155b15610406576040517ff92ee8a900000000000000000000000000000000000000000000000000000000815260040160405180910390fd5b6001855f015f6101000a81548167ffffffffffffffff021916908367ffffffffffffffff1602179055508315610453576001855f0160086101000a81548160ff0219169083151502179055505b83156104ad575f855f0160086101000a81548160ff0219169083151502179055507fc7f505b2f371ae2175ee4913f4499e1f2633a7b5936321eed1cdaeb6115181d260016040516104a4919061114d565b60405180910390a15b5050505050565b6040518060400160405280600581526020017f352e302e3000000000000000000000000000000000000000000000000000000081525081565b7f000000000000000000000000000000000000000000000000000000000000000073ffffffffffffffffffffffffffffffffffffffff163073ffffffffffffffffffffffffffffffffffffffff16148061059a57507f000000000000000000000000000000000000000000000000000000000000000073ffffffffffffffffffffffffffffffffffffffff166105816107a2565b73ffffffffffffffffffffffffffffffffffffffff1614155b156105d1576040517fe07c8dba00000000000000000000000000000000000000000000000000000000815260040160405180910390fd5b565b50565b8173ffffffffffffffffffffffffffffffffffffffff166352d1902d6040518163ffffffff1660e01b8152600401602060405180830381865afa92505050801561063e57506040513d601f19601f8201168201806040525081019061063b919061117a565b60015b61067f57816040517f4c9c8ce300000000000000000000000000000000000000000000000000000000815260040161067691906111b4565b60405180910390fd5b7f360894a13ba1a3210667c828492db98dca3e2076cc3735a920a3ca505d382bbc5f1b81146106e557806040517faa1d49a40000000000000000000000000000000000000000000000000000000081526004016106dc9190610f3a565b60405180910390fd5b6106ef83836107f5565b505050565b7f000000000000000000000000000000000000000000000000000000000000000073ffffffffffffffffffffffffffffffffffffffff163073ffffffffffffffffffffffffffffffffffffffff1614610779576040517fe07c8dba00000000000000000000000000000000000000000000000000000000815260040160405180910390fd5b565b5f7ff0c57e16840df040f15088dc2f81fe391c3923bec73e23a9662efc9c229c6a00905090565b5f6107ce7f360894a13ba1a3210667c828492db98dca3e2076cc3735a920a3ca505d382bbc5f1b610867565b5f015f9054906101000a900473ffffffffffffffffffffffffffffffffffffffff16905090565b6107fe82610870565b8173ffffffffffffffffffffffffffffffffffffffff167fbc7cd75a20ee27fd9adebab32041f755214dbc6bffa90cc0225b39da2e5c2d3b60405160405180910390a25f8151111561085a576108548282610939565b50610863565b6108626109b9565b5b5050565b5f819050919050565b5f8173ffffffffffffffffffffffffffffffffffffffff163b036108cb57806040517f4c9c8ce30000000000000000000000000000000000000000000000000000000081526004016108c291906111b4565b60405180910390fd5b806108f77f360894a13ba1a3210667c828492db98dca3e2076cc3735a920a3ca505d382bbc5f1b610867565b5f015f6101000a81548173ffffffffffffffffffffffffffffffffffffffff021916908373ffffffffffffffffffffffffffffffffffffffff16021790555050565b60605f808473ffffffffffffffffffffffffffffffffffffffff16846040516109629190611211565b5f60405180830381855af49150503d805f811461099a576040519150601f19603f3d011682016040523d82523d5f602084013e61099f565b606091505b50915091506109af8583836109f5565b9250505092915050565b5f3411156109f3576040517fb398979f00000000000000000000000000000000000000000000000000000000815260040160405180910390fd5b565b606082610a0a57610a0582610a82565b610a7a565b5f8251148015610a3057505f8473ffffffffffffffffffffffffffffffffffffffff163b145b15610a7257836040517f9996b315000000000000000000000000000000000000000000000000000000008152600401610a6991906111b4565b60405180910390fd5b819050610a7b565b5b9392505050565b5f81511115610a945780518082602001fd5b6040517f1425ea4200000000000000000000000000000000000000000000000000000000815260040160405180910390fd5b5f604051905090565b5f80fd5b5f80fd5b5f80fd5b5f80fd5b5f80fd5b5f8083601f840112610af857610af7610ad7565b5b8235905067ffffffffffffffff811115610b1557610b14610adb565b5b602083019150836020820283011115610b3157610b30610adf565b5b9250929050565b5f8083601f840112610b4d57610b4c610ad7565b5b8235905067ffffffffffffffff811115610b6a57610b69610adb565b5b602083019150836020820283011115610b8657610b85610adf565b5b9250929050565b5f805f8060408587031215610ba557610ba4610acf565b5b5f85013567ffffffffffffffff811115610bc257610bc1610ad3565b5b610bce87828801610ae3565b9450945050602085013567ffffffffffffffff811115610bf157610bf0610ad3565b5b610bfd87828801610b38565b925092505092959194509250565b5f8060208385031215610c2157610c20610acf565b5b5f83013567ffffffffffffffff811115610c3e57610c3d610ad3565b5b610c4a85828601610ae3565b92509250509250929050565b5f81519050919050565b5f82825260208201905092915050565b5f819050602082019050919050565b5f819050919050565b610c9181610c7f565b82525050565b5f610ca28383610c88565b60208301905092915050565b5f602082019050919050565b5f610cc482610c56565b610cce8185610c60565b9350610cd983610c70565b805f5b83811015610d09578151610cf08882610c97565b9750610cfb83610cae565b925050600181019050610cdc565b5085935050505092915050565b5f6020820190508181035f830152610d2e8184610cba565b905092915050565b5f73ffffffffffffffffffffffffffffffffffffffff82169050919050565b5f610d5f82610d36565b9050919050565b610d6f81610d55565b8114610d79575f80fd5b50565b5f81359050610d8a81610d66565b92915050565b5f80fd5b5f601f19601f8301169050919050565b7f4e487b71000000000000000000000000000000000000000000000000000000005f52604160045260245ffd5b610dda82610d94565b810181811067ffffffffffffffff82111715610df957610df8610da4565b5b80604052505050565b5f610e0b610ac6565b9050610e178282610dd1565b919050565b5f67ffffffffffffffff821115610e3657610e35610da4565b5b610e3f82610d94565b9050602081019050919050565b828183375f83830152505050565b5f610e6c610e6784610e1c565b610e02565b905082815260208101848484011115610e8857610e87610d90565b5b610e93848285610e4c565b509392505050565b5f82601f830112610eaf57610eae610ad7565b5b8135610ebf848260208601610e5a565b91505092915050565b5f8060408385031215610ede57610edd610acf565b5b5f610eeb85828601610d7c565b925050602083013567ffffffffffffffff811115610f0c57610f0b610ad3565b5b610f1885828601610e9b565b9150509250929050565b5f819050919050565b610f3481610f22565b82525050565b5f602082019050610f4d5f830184610f2b565b92915050565b610f5c81610f22565b8114610f66575f80fd5b50565b5f81359050610f7781610f53565b92915050565b5f60208284031215610f9257610f91610acf565b5b5f610f9f84828501610f69565b91505092915050565b610fb181610c7f565b82525050565b5f602082019050610fca5f830184610fa8565b92915050565b5f81519050919050565b5f82825260208201905092915050565b5f5b83811015611007578082015181840152602081019050610fec565b5f8484015250505050565b5f61101c82610fd0565b6110268185610fda565b9350611036818560208601610fea565b61103f81610d94565b840191505092915050565b5f6020820190508181035f8301526110628184611012565b905092915050565b7f4e487b71000000000000000000000000000000000000000000000000000000005f52603260045260245ffd5b7f4e487b71000000000000000000000000000000000000000000000000000000005f52601160045260245ffd5b5f60ff82169050919050565b5f6110da826110c4565b915060ff82036110ed576110ec611097565b5b600182019050919050565b5f819050919050565b5f67ffffffffffffffff82169050919050565b5f819050919050565b5f61113761113261112d846110f8565b611114565b611101565b9050919050565b6111478161111d565b82525050565b5f6020820190506111605f83018461113e565b92915050565b5f8151905061117481610f53565b92915050565b5f6020828403121561118f5761118e610acf565b5b5f61119c84828501611166565b91505092915050565b6111ae81610d55565b82525050565b5f6020820190506111c75f8301846111a5565b92915050565b5f81519050919050565b5f81905092915050565b5f6111eb826111cd565b6111f581856111d7565b9350611205818560208601610fea565b80840191505092915050565b5f61121c82846111e1565b91508190509291505056fea264697066735822122013c482140851a2060834a0932743840644bc3f85b935c26df4a9cdec9dfe56a864736f6c63430008140033",
					"opcodes": "PUSH1 0xA0 PUSH1 0x40 MSTORE ADDRESS PUSH20 0xFFFFFFFFFFFFFFFFFFFFFFFFFFFFFFFFFFFFFFFF AND PUSH1 0x80 SWAP1 PUSH20 0xFFFFFFFFFFFFFFFFFFFFFFFFFFFFFFFFFFFFFFFF AND DUP2 MSTORE POP CALLVALUE DUP1 ISZERO PUSH3 0x43 JUMPI PUSH0 DUP1 REVERT JUMPDEST POP PUSH3 0x54 PUSH3 0x5A PUSH1 0x20 SHL PUSH1 0x20 SHR JUMP JUMPDEST PUSH3 0x1C4 JUMP JUMPDEST PUSH0 PUSH3 0x6B PUSH3 0x15E PUSH1 0x20 SHL PUSH1 0x20 SHR JUMP JUMPDEST SWAP1 POP DUP1 PUSH0 ADD PUSH1 0x8 SWAP1 SLOAD SWAP1 PUSH2 0x100 EXP SWAP1 DIV PUSH1 0xFF AND ISZERO PUSH3 0xB6 JUMPI PUSH1 0x40 MLOAD PUSH32 0xF92EE8A900000000000000000000000000000000000000000000000000000000 DUP2 MSTORE PUSH1 0x4 ADD PUSH1 0x40 MLOAD DUP1 SWAP2 SUB SWAP1 REVERT JUMPDEST PUSH8 0xFFFFFFFFFFFFFFFF DUP1 AND DUP2 PUSH0 ADD PUSH0 SWAP1 SLOAD SWAP1 PUSH2 0x100 EXP SWAP1 DIV PUSH8 0xFFFFFFFFFFFFFFFF AND PUSH8 0xFFFFFFFFFFFFFFFF AND EQ PUSH3 0x15B JUMPI PUSH8 0xFFFFFFFFFFFFFFFF DUP2 PUSH0 ADD PUSH0 PUSH2 0x100 EXP DUP2 SLOAD DUP2 PUSH8 0xFFFFFFFFFFFFFFFF MUL NOT AND SWAP1 DUP4 PUSH8 0xFFFFFFFFFFFFFFFF AND MUL OR SWAP1 SSTORE POP PUSH32 0xC7F505B2F371AE2175EE4913F4499E1F2633A7B5936321EED1CDAEB6115181D2 PUSH8 0xFFFFFFFFFFFFFFFF PUSH1 0x40 MLOAD PUSH3 0x152 SWAP2 SWAP1 PUSH3 0x1A9 JUMP JUMPDEST PUSH1 0x40 MLOAD DUP1 SWAP2 SUB SWAP1 LOG1 JUMPDEST POP JUMP JUMPDEST PUSH0 PUSH32 0xF0C57E16840DF040F15088DC2F81FE391C3923BEC73E23A9662EFC9C229C6A00 SWAP1 POP SWAP1 JUMP JUMPDEST PUSH0 PUSH8 0xFFFFFFFFFFFFFFFF DUP3 AND SWAP1 POP SWAP2 SWAP1 POP JUMP JUMPDEST PUSH3 0x1A3 DUP2 PUSH3 0x185 JUMP JUMPDEST DUP3 MSTORE POP POP JUMP JUMPDEST PUSH0 PUSH1 0x20 DUP3 ADD SWAP1 POP PUSH3 0x1BE PUSH0 DUP4 ADD DUP5 PUSH3 0x198 JUMP JUMPDEST SWAP3 SWAP2 POP POP JUMP JUMPDEST PUSH1 0x80 MLOAD PUSH2 0x125D PUSH3 0x1EB PUSH0 CODECOPY PUSH0 DUP2 DUP2 PUSH2 0x4EF ADD MSTORE DUP2 DUP2 PUSH2 0x544 ADD MSTORE PUSH2 0x6F6 ADD MSTORE PUSH2 0x125D PUSH0 RETURN INVALID PUSH1 0x80 PUSH1 0x40 MSTORE PUSH1 0x4 CALLDATASIZE LT PUSH2 0x6F JUMPI PUSH0 CALLDATALOAD PUSH1 0xE0 SHR DUP1 PUSH4 0x52D1902D GT PUSH2 0x4D JUMPI DUP1 PUSH4 0x52D1902D EQ PUSH2 0xF3 JUMPI DUP1 PUSH4 0x60846BC6 EQ PUSH2 0x11D JUMPI DUP1 PUSH4 0x8129FC1C EQ PUSH2 0x159 JUMPI DUP1 PUSH4 0xAD3CB1CC EQ PUSH2 0x16F JUMPI PUSH2 0x6F JUMP JUMPDEST DUP1 PUSH4 0x1CFDD523 EQ PUSH2 0x73 JUMPI DUP1 PUSH4 0x26EE4836 EQ PUSH2 0x9B JUMPI DUP1 PUSH4 0x4F1EF286 EQ PUSH2 0xD7 JUMPI JUMPDEST PUSH0 DUP1 REVERT JUMPDEST CALLVALUE DUP1 ISZERO PUSH2 0x7E JUMPI PUSH0 DUP1 REVERT JUMPDEST POP PUSH2 0x99 PUSH1 0x4 DUP1 CALLDATASIZE SUB DUP2 ADD SWAP1 PUSH2 0x94 SWAP2 SWAP1 PUSH2 0xB8D JUMP JUMPDEST PUSH2 0x199 JUMP JUMPDEST STOP JUMPDEST CALLVALUE DUP1 ISZERO PUSH2 0xA6 JUMPI PUSH0 DUP1 REVERT JUMPDEST POP PUSH2 0xC1 PUSH1 0x4 DUP1 CALLDATASIZE SUB DUP2 ADD SWAP1 PUSH2 0xBC SWAP2 SWAP1 PUSH2 0xC0B JUMP JUMPDEST PUSH2 0x210 JUMP JUMPDEST PUSH1 0x40 MLOAD PUSH2 0xCE SWAP2 SWAP1 PUSH2 0xD16 JUMP JUMPDEST PUSH1 0x40 MLOAD DUP1 SWAP2 SUB SWAP1 RETURN JUMPDEST PUSH2 0xF1 PUSH1 0x4 DUP1 CALLDATASIZE SUB DUP2 ADD SWAP1 PUSH2 0xEC SWAP2 SWAP1 PUSH2 0xEC8 JUMP JUMPDEST PUSH2 0x2D9 JUMP JUMPDEST STOP JUMPDEST CALLVALUE DUP1 ISZERO PUSH2 0xFE JUMPI PUSH0 DUP1 REVERT JUMPDEST POP PUSH2 0x107 PUSH2 0x2F8 JUMP JUMPDEST PUSH1 0x40 MLOAD PUSH2 0x114 SWAP2 SWAP1 PUSH2 0xF3A JUMP JUMPDEST PUSH1 0x40 MLOAD DUP1 SWAP2 SUB SWAP1 RETURN JUMPDEST CALLVALUE DUP1 ISZERO PUSH2 0x128 JUMPI PUSH0 DUP1 REVERT JUMPDEST POP PUSH2 0x143 PUSH1 0x4 DUP1 CALLDATASIZE SUB DUP2 ADD SWAP1 PUSH2 0x13E SWAP2 SWAP1 PUSH2 0xF7D JUMP JUMPDEST PUSH2 0x329 JUMP JUMPDEST PUSH1 0x40 MLOAD PUSH2 0x150 SWAP2 SWAP1 PUSH2 0xFB7 JUMP JUMPDEST PUSH1 0x40 MLOAD DUP1 SWAP2 SUB SWAP1 RETURN JUMPDEST CALLVALUE DUP1 ISZERO PUSH2 0x164 JUMPI PUSH0 DUP1 REVERT JUMPDEST POP PUSH2 0x16D PUSH2 0x33D JUMP JUMPDEST STOP JUMPDEST CALLVALUE DUP1 ISZERO PUSH2 0x17A JUMPI PUSH0 DUP1 REVERT JUMPDEST POP PUSH2 0x183 PUSH2 0x4B4 JUMP JUMPDEST PUSH1 0x40 MLOAD PUSH2 0x190 SWAP2 SWAP1 PUSH2 0x104A JUMP JUMPDEST PUSH1 0x40 MLOAD DUP1 SWAP2 SUB SWAP1 RETURN JUMPDEST PUSH0 JUMPDEST DUP5 DUP5 SWAP1 POP DUP2 PUSH1 0xFF AND LT ISZERO PUSH2 0x209 JUMPI DUP3 DUP3 DUP3 PUSH1 0xFF AND DUP2 DUP2 LT PUSH2 0x1BF JUMPI PUSH2 0x1BE PUSH2 0x106A JUMP JUMPDEST JUMPDEST SWAP1 POP PUSH1 0x20 MUL ADD CALLDATALOAD PUSH0 DUP1 DUP8 DUP8 DUP6 PUSH1 0xFF AND DUP2 DUP2 LT PUSH2 0x1DE JUMPI PUSH2 0x1DD PUSH2 0x106A JUMP JUMPDEST JUMPDEST SWAP1 POP PUSH1 0x20 MUL ADD CALLDATALOAD DUP2 MSTORE PUSH1 0x20 ADD SWAP1 DUP2 MSTORE PUSH1 0x20 ADD PUSH0 KECCAK256 DUP2 SWAP1 SSTORE POP DUP1 DUP1 PUSH2 0x201 SWAP1 PUSH2 0x10D0 JUMP JUMPDEST SWAP2 POP POP PUSH2 0x19B JUMP JUMPDEST POP POP POP POP POP JUMP JUMPDEST PUSH1 0x60 DUP3 DUP3 SWAP1 POP PUSH8 0xFFFFFFFFFFFFFFFF DUP2 GT ISZERO PUSH2 0x22F JUMPI PUSH2 0x22E PUSH2 0xDA4 JUMP JUMPDEST JUMPDEST PUSH1 0x40 MLOAD SWAP1 DUP1 DUP3 MSTORE DUP1 PUSH1 0x20 MUL PUSH1 0x20 ADD DUP3 ADD PUSH1 0x40 MSTORE DUP1 ISZERO PUSH2 0x25D JUMPI DUP2 PUSH1 0x20 ADD PUSH1 0x20 DUP3 MUL DUP1 CALLDATASIZE DUP4 CALLDATACOPY DUP1 DUP3 ADD SWAP2 POP POP SWAP1 POP JUMPDEST POP SWAP1 POP PUSH0 JUMPDEST DUP4 DUP4 SWAP1 POP DUP2 PUSH1 0xFF AND LT ISZERO PUSH2 0x2D2 JUMPI PUSH0 DUP1 DUP6 DUP6 DUP5 PUSH1 0xFF AND DUP2 DUP2 LT PUSH2 0x288 JUMPI PUSH2 0x287 PUSH2 0x106A JUMP JUMPDEST JUMPDEST SWAP1 POP PUSH1 0x20 MUL ADD CALLDATALOAD DUP2 MSTORE PUSH1 0x20 ADD SWAP1 DUP2 MSTORE PUSH1 0x20 ADD PUSH0 KECCAK256 SLOAD DUP3 DUP3 PUSH1 0xFF AND DUP2 MLOAD DUP2 LT PUSH2 0x2B3 JUMPI PUSH2 0x2B2 PUSH2 0x106A JUMP JUMPDEST JUMPDEST PUSH1 0x20 MUL PUSH1 0x20 ADD ADD DUP2 DUP2 MSTORE POP POP DUP1 DUP1 PUSH2 0x2CA SWAP1 PUSH2 0x10D0 JUMP JUMPDEST SWAP2 POP POP PUSH2 0x262 JUMP JUMPDEST POP SWAP3 SWAP2 POP POP JUMP JUMPDEST PUSH2 0x2E1 PUSH2 0x4ED JUMP JUMPDEST PUSH2 0x2EA DUP3 PUSH2 0x5D3 JUMP JUMPDEST PUSH2 0x2F4 DUP3 DUP3 PUSH2 0x5D6 JUMP JUMPDEST POP POP JUMP JUMPDEST PUSH0 PUSH2 0x301 PUSH2 0x6F4 JUMP JUMPDEST PUSH32 0x360894A13BA1A3210667C828492DB98DCA3E2076CC3735A920A3CA505D382BBC PUSH0 SHL SWAP1 POP SWAP1 JUMP JUMPDEST PUSH0 PUSH1 0x20 MSTORE DUP1 PUSH0 MSTORE PUSH1 0x40 PUSH0 KECCAK256 PUSH0 SWAP2 POP SWAP1 POP SLOAD DUP2 JUMP JUMPDEST PUSH0 PUSH2 0x346 PUSH2 0x77B JUMP JUMPDEST SWAP1 POP PUSH0 DUP2 PUSH0 ADD PUSH1 0x8 SWAP1 SLOAD SWAP1 PUSH2 0x100 EXP SWAP1 DIV PUSH1 0xFF AND ISZERO SWAP1 POP PUSH0 DUP3 PUSH0 ADD PUSH0 SWAP1 SLOAD SWAP1 PUSH2 0x100 EXP SWAP1 DIV PUSH8 0xFFFFFFFFFFFFFFFF AND SWAP1 POP PUSH0 DUP1 DUP3 PUSH8 0xFFFFFFFFFFFFFFFF AND EQ DUP1 ISZERO PUSH2 0x38E JUMPI POP DUP3 JUMPDEST SWAP1 POP PUSH0 PUSH1 0x1 DUP4 PUSH8 0xFFFFFFFFFFFFFFFF AND EQ DUP1 ISZERO PUSH2 0x3C1 JUMPI POP PUSH0 ADDRESS PUSH20 0xFFFFFFFFFFFFFFFFFFFFFFFFFFFFFFFFFFFFFFFF AND EXTCODESIZE EQ JUMPDEST SWAP1 POP DUP2 ISZERO DUP1 ISZERO PUSH2 0x3CF JUMPI POP DUP1 ISZERO JUMPDEST ISZERO PUSH2 0x406 JUMPI PUSH1 0x40 MLOAD PUSH32 0xF92EE8A900000000000000000000000000000000000000000000000000000000 DUP2 MSTORE PUSH1 0x4 ADD PUSH1 0x40 MLOAD DUP1 SWAP2 SUB SWAP1 REVERT JUMPDEST PUSH1 0x1 DUP6 PUSH0 ADD PUSH0 PUSH2 0x100 EXP DUP2 SLOAD DUP2 PUSH8 0xFFFFFFFFFFFFFFFF MUL NOT AND SWAP1 DUP4 PUSH8 0xFFFFFFFFFFFFFFFF AND MUL OR SWAP1 SSTORE POP DUP4 ISZERO PUSH2 0x453 JUMPI PUSH1 0x1 DUP6 PUSH0 ADD PUSH1 0x8 PUSH2 0x100 EXP DUP2 SLOAD DUP2 PUSH1 0xFF MUL NOT AND SWAP1 DUP4 ISZERO ISZERO MUL OR SWAP1 SSTORE POP JUMPDEST DUP4 ISZERO PUSH2 0x4AD JUMPI PUSH0 DUP6 PUSH0 ADD PUSH1 0x8 PUSH2 0x100 EXP DUP2 SLOAD DUP2 PUSH1 0xFF MUL NOT AND SWAP1 DUP4 ISZERO ISZERO MUL OR SWAP1 SSTORE POP PUSH32 0xC7F505B2F371AE2175EE4913F4499E1F2633A7B5936321EED1CDAEB6115181D2 PUSH1 0x1 PUSH1 0x40 MLOAD PUSH2 0x4A4 SWAP2 SWAP1 PUSH2 0x114D JUMP JUMPDEST PUSH1 0x40 MLOAD DUP1 SWAP2 SUB SWAP1 LOG1 JUMPDEST POP POP POP POP POP JUMP JUMPDEST PUSH1 0x40 MLOAD DUP1 PUSH1 0x40 ADD PUSH1 0x40 MSTORE DUP1 PUSH1 0x5 DUP2 MSTORE PUSH1 0x20 ADD PUSH32 0x352E302E30000000000000000000000000000000000000000000000000000000 DUP2 MSTORE POP DUP2 JUMP JUMPDEST PUSH32 0x0 PUSH20 0xFFFFFFFFFFFFFFFFFFFFFFFFFFFFFFFFFFFFFFFF AND ADDRESS PUSH20 0xFFFFFFFFFFFFFFFFFFFFFFFFFFFFFFFFFFFFFFFF AND EQ DUP1 PUSH2 0x59A JUMPI POP PUSH32 0x0 PUSH20 0xFFFFFFFFFFFFFFFFFFFFFFFFFFFFFFFFFFFFFFFF AND PUSH2 0x581 PUSH2 0x7A2 JUMP JUMPDEST PUSH20 0xFFFFFFFFFFFFFFFFFFFFFFFFFFFFFFFFFFFFFFFF AND EQ ISZERO JUMPDEST ISZERO PUSH2 0x5D1 JUMPI PUSH1 0x40 MLOAD PUSH32 0xE07C8DBA00000000000000000000000000000000000000000000000000000000 DUP2 MSTORE PUSH1 0x4 ADD PUSH1 0x40 MLOAD DUP1 SWAP2 SUB SWAP1 REVERT JUMPDEST JUMP JUMPDEST POP JUMP JUMPDEST DUP2 PUSH20 0xFFFFFFFFFFFFFFFFFFFFFFFFFFFFFFFFFFFFFFFF AND PUSH4 0x52D1902D PUSH1 0x40 MLOAD DUP2 PUSH4 0xFFFFFFFF AND PUSH1 0xE0 SHL DUP2 MSTORE PUSH1 0x4 ADD PUSH1 0x20 PUSH1 0x40 MLOAD DUP1 DUP4 SUB DUP2 DUP7 GAS STATICCALL SWAP3 POP POP POP DUP1 ISZERO PUSH2 0x63E JUMPI POP PUSH1 0x40 MLOAD RETURNDATASIZE PUSH1 0x1F NOT PUSH1 0x1F DUP3 ADD AND DUP3 ADD DUP1 PUSH1 0x40 MSTORE POP DUP2 ADD SWAP1 PUSH2 0x63B SWAP2 SWAP1 PUSH2 0x117A JUMP JUMPDEST PUSH1 0x1 JUMPDEST PUSH2 0x67F JUMPI DUP2 PUSH1 0x40 MLOAD PUSH32 0x4C9C8CE300000000000000000000000000000000000000000000000000000000 DUP2 MSTORE PUSH1 0x4 ADD PUSH2 0x676 SWAP2 SWAP1 PUSH2 0x11B4 JUMP JUMPDEST PUSH1 0x40 MLOAD DUP1 SWAP2 SUB SWAP1 REVERT JUMPDEST PUSH32 0x360894A13BA1A3210667C828492DB98DCA3E2076CC3735A920A3CA505D382BBC PUSH0 SHL DUP2 EQ PUSH2 0x6E5 JUMPI DUP1 PUSH1 0x40 MLOAD PUSH32 0xAA1D49A400000000000000000000000000000000000000000000000000000000 DUP2 MSTORE PUSH1 0x4 ADD PUSH2 0x6DC SWAP2 SWAP1 PUSH2 0xF3A JUMP JUMPDEST PUSH1 0x40 MLOAD DUP1 SWAP2 SUB SWAP1 REVERT JUMPDEST PUSH2 0x6EF DUP4 DUP4 PUSH2 0x7F5 JUMP JUMPDEST POP POP POP JUMP JUMPDEST PUSH32 0x0 PUSH20 0xFFFFFFFFFFFFFFFFFFFFFFFFFFFFFFFFFFFFFFFF AND ADDRESS PUSH20 0xFFFFFFFFFFFFFFFFFFFFFFFFFFFFFFFFFFFFFFFF AND EQ PUSH2 0x779 JUMPI PUSH1 0x40 MLOAD PUSH32 0xE07C8DBA00000000000000000000000000000000000000000000000000000000 DUP2 MSTORE PUSH1 0x4 ADD PUSH1 0x40 MLOAD DUP1 SWAP2 SUB SWAP1 REVERT JUMPDEST JUMP JUMPDEST PUSH0 PUSH32 0xF0C57E16840DF040F15088DC2F81FE391C3923BEC73E23A9662EFC9C229C6A00 SWAP1 POP SWAP1 JUMP JUMPDEST PUSH0 PUSH2 0x7CE PUSH32 0x360894A13BA1A3210667C828492DB98DCA3E2076CC3735A920A3CA505D382BBC PUSH0 SHL PUSH2 0x867 JUMP JUMPDEST PUSH0 ADD PUSH0 SWAP1 SLOAD SWAP1 PUSH2 0x100 EXP SWAP1 DIV PUSH20 0xFFFFFFFFFFFFFFFFFFFFFFFFFFFFFFFFFFFFFFFF AND SWAP1 POP SWAP1 JUMP JUMPDEST PUSH2 0x7FE DUP3 PUSH2 0x870 JUMP JUMPDEST DUP2 PUSH20 0xFFFFFFFFFFFFFFFFFFFFFFFFFFFFFFFFFFFFFFFF AND PUSH32 0xBC7CD75A20EE27FD9ADEBAB32041F755214DBC6BFFA90CC0225B39DA2E5C2D3B PUSH1 0x40 MLOAD PUSH1 0x40 MLOAD DUP1 SWAP2 SUB SWAP1 LOG2 PUSH0 DUP2 MLOAD GT ISZERO PUSH2 0x85A JUMPI PUSH2 0x854 DUP3 DUP3 PUSH2 0x939 JUMP JUMPDEST POP PUSH2 0x863 JUMP JUMPDEST PUSH2 0x862 PUSH2 0x9B9 JUMP JUMPDEST JUMPDEST POP POP JUMP JUMPDEST PUSH0 DUP2 SWAP1 POP SWAP2 SWAP1 POP JUMP JUMPDEST PUSH0 DUP2 PUSH20 0xFFFFFFFFFFFFFFFFFFFFFFFFFFFFFFFFFFFFFFFF AND EXTCODESIZE SUB PUSH2 0x8CB JUMPI DUP1 PUSH1 0x40 MLOAD PUSH32 0x4C9C8CE300000000000000000000000000000000000000000000000000000000 DUP2 MSTORE PUSH1 0x4 ADD PUSH2 0x8C2 SWAP2 SWAP1 PUSH2 0x11B4 JUMP JUMPDEST PUSH1 0x40 MLOAD DUP1 SWAP2 SUB SWAP1 REVERT JUMPDEST DUP1 PUSH2 0x8F7 PUSH32 0x360894A13BA1A3210667C828492DB98DCA3E2076CC3735A920A3CA505D382BBC PUSH0 SHL PUSH2 0x867 JUMP JUMPDEST PUSH0 ADD PUSH0 PUSH2 0x100 EXP DUP2 SLOAD DUP2 PUSH20 0xFFFFFFFFFFFFFFFFFFFFFFFFFFFFFFFFFFFFFFFF MUL NOT AND SWAP1 DUP4 PUSH20 0xFFFFFFFFFFFFFFFFFFFFFFFFFFFFFFFFFFFFFFFF AND MUL OR SWAP1 SSTORE POP POP JUMP JUMPDEST PUSH1 0x60 PUSH0 DUP1 DUP5 PUSH20 0xFFFFFFFFFFFFFFFFFFFFFFFFFFFFFFFFFFFFFFFF AND DUP5 PUSH1 0x40 MLOAD PUSH2 0x962 SWAP2 SWAP1 PUSH2 0x1211 JUMP JUMPDEST PUSH0 PUSH1 0x40 MLOAD DUP1 DUP4 SUB DUP2 DUP6 GAS DELEGATECALL SWAP2 POP POP RETURNDATASIZE DUP1 PUSH0 DUP2 EQ PUSH2 0x99A JUMPI PUSH1 0x40 MLOAD SWAP2 POP PUSH1 0x1F NOT PUSH1 0x3F RETURNDATASIZE ADD AND DUP3 ADD PUSH1 0x40 MSTORE RETURNDATASIZE DUP3 MSTORE RETURNDATASIZE PUSH0 PUSH1 0x20 DUP5 ADD RETURNDATACOPY PUSH2 0x99F JUMP JUMPDEST PUSH1 0x60 SWAP2 POP JUMPDEST POP SWAP2 POP SWAP2 POP PUSH2 0x9AF DUP6 DUP4 DUP4 PUSH2 0x9F5 JUMP JUMPDEST SWAP3 POP POP POP SWAP3 SWAP2 POP POP JUMP JUMPDEST PUSH0 CALLVALUE GT ISZERO PUSH2 0x9F3 JUMPI PUSH1 0x40 MLOAD PUSH32 0xB398979F00000000000000000000000000000000000000000000000000000000 DUP2 MSTORE PUSH1 0x4 ADD PUSH1 0x40 MLOAD DUP1 SWAP2 SUB SWAP1 REVERT JUMPDEST JUMP JUMPDEST PUSH1 0x60 DUP3 PUSH2 0xA0A JUMPI PUSH2 0xA05 DUP3 PUSH2 0xA82 JUMP JUMPDEST PUSH2 0xA7A JUMP JUMPDEST PUSH0 DUP3 MLOAD EQ DUP1 ISZERO PUSH2 0xA30 JUMPI POP PUSH0 DUP5 PUSH20 0xFFFFFFFFFFFFFFFFFFFFFFFFFFFFFFFFFFFFFFFF AND EXTCODESIZE EQ JUMPDEST ISZERO PUSH2 0xA72 JUMPI DUP4 PUSH1 0x40 MLOAD PUSH32 0x9996B31500000000000000000000000000000000000000000000000000000000 DUP2 MSTORE PUSH1 0x4 ADD PUSH2 0xA69 SWAP2 SWAP1 PUSH2 0x11B4 JUMP JUMPDEST PUSH1 0x40 MLOAD DUP1 SWAP2 SUB SWAP1 REVERT JUMPDEST DUP2 SWAP1 POP PUSH2 0xA7B JUMP JUMPDEST JUMPDEST SWAP4 SWAP3 POP POP POP JUMP JUMPDEST PUSH0 DUP2 MLOAD GT ISZERO PUSH2 0xA94 JUMPI DUP1 MLOAD DUP1 DUP3 PUSH1 0x20 ADD REVERT JUMPDEST PUSH1 0x40 MLOAD PUSH32 0x1425EA4200000000000000000000000000000000000000000000000000000000 DUP2 MSTORE PUSH1 0x4 ADD PUSH1 0x40 MLOAD DUP1 SWAP2 SUB SWAP1 REVERT JUMPDEST PUSH0 PUSH1 0x40 MLOAD SWAP1 POP SWAP1 JUMP JUMPDEST PUSH0 DUP1 REVERT JUMPDEST PUSH0 DUP1 REVERT JUMPDEST PUSH0 DUP1 REVERT JUMPDEST PUSH0 DUP1 REVERT JUMPDEST PUSH0 DUP1 REVERT JUMPDEST PUSH0 DUP1 DUP4 PUSH1 0x1F DUP5 ADD SLT PUSH2 0xAF8 JUMPI PUSH2 0xAF7 PUSH2 0xAD7 JUMP JUMPDEST JUMPDEST DUP3 CALLDATALOAD SWAP1 POP PUSH8 0xFFFFFFFFFFFFFFFF DUP2 GT ISZERO PUSH2 0xB15 JUMPI PUSH2 0xB14 PUSH2 0xADB JUMP JUMPDEST JUMPDEST PUSH1 0x20 DUP4 ADD SWAP2 POP DUP4 PUSH1 0x20 DUP3 MUL DUP4 ADD GT ISZERO PUSH2 0xB31 JUMPI PUSH2 0xB30 PUSH2 0xADF JUMP JUMPDEST JUMPDEST SWAP3 POP SWAP3 SWAP1 POP JUMP JUMPDEST PUSH0 DUP1 DUP4 PUSH1 0x1F DUP5 ADD SLT PUSH2 0xB4D JUMPI PUSH2 0xB4C PUSH2 0xAD7 JUMP JUMPDEST JUMPDEST DUP3 CALLDATALOAD SWAP1 POP PUSH8 0xFFFFFFFFFFFFFFFF DUP2 GT ISZERO PUSH2 0xB6A JUMPI PUSH2 0xB69 PUSH2 0xADB JUMP JUMPDEST JUMPDEST PUSH1 0x20 DUP4 ADD SWAP2 POP DUP4 PUSH1 0x20 DUP3 MUL DUP4 ADD GT ISZERO PUSH2 0xB86 JUMPI PUSH2 0xB85 PUSH2 0xADF JUMP JUMPDEST JUMPDEST SWAP3 POP SWAP3 SWAP1 POP JUMP JUMPDEST PUSH0 DUP1 PUSH0 DUP1 PUSH1 0x40 DUP6 DUP8 SUB SLT ISZERO PUSH2 0xBA5 JUMPI PUSH2 0xBA4 PUSH2 0xACF JUMP JUMPDEST JUMPDEST PUSH0 DUP6 ADD CALLDATALOAD PUSH8 0xFFFFFFFFFFFFFFFF DUP2 GT ISZERO PUSH2 0xBC2 JUMPI PUSH2 0xBC1 PUSH2 0xAD3 JUMP JUMPDEST JUMPDEST PUSH2 0xBCE DUP8 DUP3 DUP9 ADD PUSH2 0xAE3 JUMP JUMPDEST SWAP5 POP SWAP5 POP POP PUSH1 0x20 DUP6 ADD CALLDATALOAD PUSH8 0xFFFFFFFFFFFFFFFF DUP2 GT ISZERO PUSH2 0xBF1 JUMPI PUSH2 0xBF0 PUSH2 0xAD3 JUMP JUMPDEST JUMPDEST PUSH2 0xBFD DUP8 DUP3 DUP9 ADD PUSH2 0xB38 JUMP JUMPDEST SWAP3 POP SWAP3 POP POP SWAP3 SWAP6 SWAP2 SWAP5 POP SWAP3 POP JUMP JUMPDEST PUSH0 DUP1 PUSH1 0x20 DUP4 DUP6 SUB SLT ISZERO PUSH2 0xC21 JUMPI PUSH2 0xC20 PUSH2 0xACF JUMP JUMPDEST JUMPDEST PUSH0 DUP4 ADD CALLDATALOAD PUSH8 0xFFFFFFFFFFFFFFFF DUP2 GT ISZERO PUSH2 0xC3E JUMPI PUSH2 0xC3D PUSH2 0xAD3 JUMP JUMPDEST JUMPDEST PUSH2 0xC4A DUP6 DUP3 DUP7 ADD PUSH2 0xAE3 JUMP JUMPDEST SWAP3 POP SWAP3 POP POP SWAP3 POP SWAP3 SWAP1 POP JUMP JUMPDEST PUSH0 DUP2 MLOAD SWAP1 POP SWAP2 SWAP1 POP JUMP JUMPDEST PUSH0 DUP3 DUP3 MSTORE PUSH1 0x20 DUP3 ADD SWAP1 POP SWAP3 SWAP2 POP POP JUMP JUMPDEST PUSH0 DUP2 SWAP1 POP PUSH1 0x20 DUP3 ADD SWAP1 POP SWAP2 SWAP1 POP JUMP JUMPDEST PUSH0 DUP2 SWAP1 POP SWAP2 SWAP1 POP JUMP JUMPDEST PUSH2 0xC91 DUP2 PUSH2 0xC7F JUMP JUMPDEST DUP3 MSTORE POP POP JUMP JUMPDEST PUSH0 PUSH2 0xCA2 DUP4 DUP4 PUSH2 0xC88 JUMP JUMPDEST PUSH1 0x20 DUP4 ADD SWAP1 POP SWAP3 SWAP2 POP POP JUMP JUMPDEST PUSH0 PUSH1 0x20 DUP3 ADD SWAP1 POP SWAP2 SWAP1 POP JUMP JUMPDEST PUSH0 PUSH2 0xCC4 DUP3 PUSH2 0xC56 JUMP JUMPDEST PUSH2 0xCCE DUP2 DUP6 PUSH2 0xC60 JUMP JUMPDEST SWAP4 POP PUSH2 0xCD9 DUP4 PUSH2 0xC70 JUMP JUMPDEST DUP1 PUSH0 JUMPDEST DUP4 DUP2 LT ISZERO PUSH2 0xD09 JUMPI DUP2 MLOAD PUSH2 0xCF0 DUP9 DUP3 PUSH2 0xC97 JUMP JUMPDEST SWAP8 POP PUSH2 0xCFB DUP4 PUSH2 0xCAE JUMP JUMPDEST SWAP3 POP POP PUSH1 0x1 DUP2 ADD SWAP1 POP PUSH2 0xCDC JUMP JUMPDEST POP DUP6 SWAP4 POP POP POP POP SWAP3 SWAP2 POP POP JUMP JUMPDEST PUSH0 PUSH1 0x20 DUP3 ADD SWAP1 POP DUP2 DUP2 SUB PUSH0 DUP4 ADD MSTORE PUSH2 0xD2E DUP2 DUP5 PUSH2 0xCBA JUMP JUMPDEST SWAP1 POP SWAP3 SWAP2 POP POP JUMP JUMPDEST PUSH0 PUSH20 0xFFFFFFFFFFFFFFFFFFFFFFFFFFFFFFFFFFFFFFFF DUP3 AND SWAP1 POP SWAP2 SWAP1 POP JUMP JUMPDEST PUSH0 PUSH2 0xD5F DUP3 PUSH2 0xD36 JUMP JUMPDEST SWAP1 POP SWAP2 SWAP1 POP JUMP JUMPDEST PUSH2 0xD6F DUP2 PUSH2 0xD55 JUMP JUMPDEST DUP2 EQ PUSH2 0xD79 JUMPI PUSH0 DUP1 REVERT JUMPDEST POP JUMP JUMPDEST PUSH0 DUP2 CALLDATALOAD SWAP1 POP PUSH2 0xD8A DUP2 PUSH2 0xD66 JUMP JUMPDEST SWAP3 SWAP2 POP POP JUMP JUMPDEST PUSH0 DUP1 REVERT JUMPDEST PUSH0 PUSH1 0x1F NOT PUSH1 0x1F DUP4 ADD AND SWAP1 POP SWAP2 SWAP1 POP JUMP JUMPDEST PUSH32 0x4E487B7100000000000000000000000000000000000000000000000000000000 PUSH0 MSTORE PUSH1 0x41 PUSH1 0x4 MSTORE PUSH1 0x24 PUSH0 REVERT JUMPDEST PUSH2 0xDDA DUP3 PUSH2 0xD94 JUMP JUMPDEST DUP2 ADD DUP2 DUP2 LT PUSH8 0xFFFFFFFFFFFFFFFF DUP3 GT OR ISZERO PUSH2 0xDF9 JUMPI PUSH2 0xDF8 PUSH2 0xDA4 JUMP JUMPDEST JUMPDEST DUP1 PUSH1 0x40 MSTORE POP POP POP JUMP JUMPDEST PUSH0 PUSH2 0xE0B PUSH2 0xAC6 JUMP JUMPDEST SWAP1 POP PUSH2 0xE17 DUP3 DUP3 PUSH2 0xDD1 JUMP JUMPDEST SWAP2 SWAP1 POP JUMP JUMPDEST PUSH0 PUSH8 0xFFFFFFFFFFFFFFFF DUP3 GT ISZERO PUSH2 0xE36 JUMPI PUSH2 0xE35 PUSH2 0xDA4 JUMP JUMPDEST JUMPDEST PUSH2 0xE3F DUP3 PUSH2 0xD94 JUMP JUMPDEST SWAP1 POP PUSH1 0x20 DUP2 ADD SWAP1 POP SWAP2 SWAP1 POP JUMP JUMPDEST DUP3 DUP2 DUP4 CALLDATACOPY PUSH0 DUP4 DUP4 ADD MSTORE POP POP POP JUMP JUMPDEST PUSH0 PUSH2 0xE6C PUSH2 0xE67 DUP5 PUSH2 0xE1C JUMP JUMPDEST PUSH2 0xE02 JUMP JUMPDEST SWAP1 POP DUP3 DUP2 MSTORE PUSH1 0x20 DUP2 ADD DUP5 DUP5 DUP5 ADD GT ISZERO PUSH2 0xE88 JUMPI PUSH2 0xE87 PUSH2 0xD90 JUMP JUMPDEST JUMPDEST PUSH2 0xE93 DUP5 DUP3 DUP6 PUSH2 0xE4C JUMP JUMPDEST POP SWAP4 SWAP3 POP POP POP JUMP JUMPDEST PUSH0 DUP3 PUSH1 0x1F DUP4 ADD SLT PUSH2 0xEAF JUMPI PUSH2 0xEAE PUSH2 0xAD7 JUMP JUMPDEST JUMPDEST DUP2 CALLDATALOAD PUSH2 0xEBF DUP5 DUP3 PUSH1 0x20 DUP7 ADD PUSH2 0xE5A JUMP JUMPDEST SWAP2 POP POP SWAP3 SWAP2 POP POP JUMP JUMPDEST PUSH0 DUP1 PUSH1 0x40 DUP4 DUP6 SUB SLT ISZERO PUSH2 0xEDE JUMPI PUSH2 0xEDD PUSH2 0xACF JUMP JUMPDEST JUMPDEST PUSH0 PUSH2 0xEEB DUP6 DUP3 DUP7 ADD PUSH2 0xD7C JUMP JUMPDEST SWAP3 POP POP PUSH1 0x20 DUP4 ADD CALLDATALOAD PUSH8 0xFFFFFFFFFFFFFFFF DUP2 GT ISZERO PUSH2 0xF0C JUMPI PUSH2 0xF0B PUSH2 0xAD3 JUMP JUMPDEST JUMPDEST PUSH2 0xF18 DUP6 DUP3 DUP7 ADD PUSH2 0xE9B JUMP JUMPDEST SWAP2 POP POP SWAP3 POP SWAP3 SWAP1 POP JUMP JUMPDEST PUSH0 DUP2 SWAP1 POP SWAP2 SWAP1 POP JUMP JUMPDEST PUSH2 0xF34 DUP2 PUSH2 0xF22 JUMP JUMPDEST DUP3 MSTORE POP POP JUMP JUMPDEST PUSH0 PUSH1 0x20 DUP3 ADD SWAP1 POP PUSH2 0xF4D PUSH0 DUP4 ADD DUP5 PUSH2 0xF2B JUMP JUMPDEST SWAP3 SWAP2 POP POP JUMP JUMPDEST PUSH2 0xF5C DUP2 PUSH2 0xF22 JUMP JUMPDEST DUP2 EQ PUSH2 0xF66 JUMPI PUSH0 DUP1 REVERT JUMPDEST POP JUMP JUMPDEST PUSH0 DUP2 CALLDATALOAD SWAP1 POP PUSH2 0xF77 DUP2 PUSH2 0xF53 JUMP JUMPDEST SWAP3 SWAP2 POP POP JUMP JUMPDEST PUSH0 PUSH1 0x20 DUP3 DUP5 SUB SLT ISZERO PUSH2 0xF92 JUMPI PUSH2 0xF91 PUSH2 0xACF JUMP JUMPDEST JUMPDEST PUSH0 PUSH2 0xF9F DUP5 DUP3 DUP6 ADD PUSH2 0xF69 JUMP JUMPDEST SWAP2 POP POP SWAP3 SWAP2 POP POP JUMP JUMPDEST PUSH2 0xFB1 DUP2 PUSH2 0xC7F JUMP JUMPDEST DUP3 MSTORE POP POP JUMP JUMPDEST PUSH0 PUSH1 0x20 DUP3 ADD SWAP1 POP PUSH2 0xFCA PUSH0 DUP4 ADD DUP5 PUSH2 0xFA8 JUMP JUMPDEST SWAP3 SWAP2 POP POP JUMP JUMPDEST PUSH0 DUP2 MLOAD SWAP1 POP SWAP2 SWAP1 POP JUMP JUMPDEST PUSH0 DUP3 DUP3 MSTORE PUSH1 0x20 DUP3 ADD SWAP1 POP SWAP3 SWAP2 POP POP JUMP JUMPDEST PUSH0 JUMPDEST DUP4 DUP2 LT ISZERO PUSH2 0x1007 JUMPI DUP1 DUP3 ADD MLOAD DUP2 DUP5 ADD MSTORE PUSH1 0x20 DUP2 ADD SWAP1 POP PUSH2 0xFEC JUMP JUMPDEST PUSH0 DUP5 DUP5 ADD MSTORE POP POP POP POP JUMP JUMPDEST PUSH0 PUSH2 0x101C DUP3 PUSH2 0xFD0 JUMP JUMPDEST PUSH2 0x1026 DUP2 DUP6 PUSH2 0xFDA JUMP JUMPDEST SWAP4 POP PUSH2 0x1036 DUP2 DUP6 PUSH1 0x20 DUP7 ADD PUSH2 0xFEA JUMP JUMPDEST PUSH2 0x103F DUP2 PUSH2 0xD94 JUMP JUMPDEST DUP5 ADD SWAP2 POP POP SWAP3 SWAP2 POP POP JUMP JUMPDEST PUSH0 PUSH1 0x20 DUP3 ADD SWAP1 POP DUP2 DUP2 SUB PUSH0 DUP4 ADD MSTORE PUSH2 0x1062 DUP2 DUP5 PUSH2 0x1012 JUMP JUMPDEST SWAP1 POP SWAP3 SWAP2 POP POP JUMP JUMPDEST PUSH32 0x4E487B7100000000000000000000000000000000000000000000000000000000 PUSH0 MSTORE PUSH1 0x32 PUSH1 0x4 MSTORE PUSH1 0x24 PUSH0 REVERT JUMPDEST PUSH32 0x4E487B7100000000000000000000000000000000000000000000000000000000 PUSH0 MSTORE PUSH1 0x11 PUSH1 0x4 MSTORE PUSH1 0x24 PUSH0 REVERT JUMPDEST PUSH0 PUSH1 0xFF DUP3 AND SWAP1 POP SWAP2 SWAP1 POP JUMP JUMPDEST PUSH0 PUSH2 0x10DA DUP3 PUSH2 0x10C4 JUMP JUMPDEST SWAP2 POP PUSH1 0xFF DUP3 SUB PUSH2 0x10ED JUMPI PUSH2 0x10EC PUSH2 0x1097 JUMP JUMPDEST JUMPDEST PUSH1 0x1 DUP3 ADD SWAP1 POP SWAP2 SWAP1 POP JUMP JUMPDEST PUSH0 DUP2 SWAP1 POP SWAP2 SWAP1 POP JUMP JUMPDEST PUSH0 PUSH8 0xFFFFFFFFFFFFFFFF DUP3 AND SWAP1 POP SWAP2 SWAP1 POP JUMP JUMPDEST PUSH0 DUP2 SWAP1 POP SWAP2 SWAP1 POP JUMP JUMPDEST PUSH0 PUSH2 0x1137 PUSH2 0x1132 PUSH2 0x112D DUP5 PUSH2 0x10F8 JUMP JUMPDEST PUSH2 0x1114 JUMP JUMPDEST PUSH2 0x1101 JUMP JUMPDEST SWAP1 POP SWAP2 SWAP1 POP JUMP JUMPDEST PUSH2 0x1147 DUP2 PUSH2 0x111D JUMP JUMPDEST DUP3 MSTORE POP POP JUMP JUMPDEST PUSH0 PUSH1 0x20 DUP3 ADD SWAP1 POP PUSH2 0x1160 PUSH0 DUP4 ADD DUP5 PUSH2 0x113E JUMP JUMPDEST SWAP3 SWAP2 POP POP JUMP JUMPDEST PUSH0 DUP2 MLOAD SWAP1 POP PUSH2 0x1174 DUP2 PUSH2 0xF53 JUMP JUMPDEST SWAP3 SWAP2 POP POP JUMP JUMPDEST PUSH0 PUSH1 0x20 DUP3 DUP5 SUB SLT ISZERO PUSH2 0x118F JUMPI PUSH2 0x118E PUSH2 0xACF JUMP JUMPDEST JUMPDEST PUSH0 PUSH2 0x119C DUP5 DUP3 DUP6 ADD PUSH2 0x1166 JUMP JUMPDEST SWAP2 POP POP SWAP3 SWAP2 POP POP JUMP JUMPDEST PUSH2 0x11AE DUP2 PUSH2 0xD55 JUMP JUMPDEST DUP3 MSTORE POP POP JUMP JUMPDEST PUSH0 PUSH1 0x20 DUP3 ADD SWAP1 POP PUSH2 0x11C7 PUSH0 DUP4 ADD DUP5 PUSH2 0x11A5 JUMP JUMPDEST SWAP3 SWAP2 POP POP JUMP JUMPDEST PUSH0 DUP2 MLOAD SWAP1 POP SWAP2 SWAP1 POP JUMP JUMPDEST PUSH0 DUP2 SWAP1 POP SWAP3 SWAP2 POP POP JUMP JUMPDEST PUSH0 PUSH2 0x11EB DUP3 PUSH2 0x11CD JUMP JUMPDEST PUSH2 0x11F5 DUP2 DUP6 PUSH2 0x11D7 JUMP JUMPDEST SWAP4 POP PUSH2 0x1205 DUP2 DUP6 PUSH1 0x20 DUP7 ADD PUSH2 0xFEA JUMP JUMPDEST DUP1 DUP5 ADD SWAP2 POP POP SWAP3 SWAP2 POP POP JUMP JUMPDEST PUSH0 PUSH2 0x121C DUP3 DUP5 PUSH2 0x11E1 JUMP JUMPDEST SWAP2 POP DUP2 SWAP1 POP SWAP3 SWAP2 POP POP JUMP INVALID LOG2 PUSH5 0x6970667358 0x22 SLT KECCAK256 SGT 0xC4 DUP3 EQ ADDMOD MLOAD LOG2 MOD ADDMOD CALLVALUE LOG0 SWAP4 0x27 NUMBER DUP5 MOD PREVRANDAO 0xBC EXTCODEHASH DUP6 0xB9 CALLDATALOAD 0xC2 PUSH14 0xF4A9CDEC9DFE56A864736F6C6343 STOP ADDMOD EQ STOP CALLER "
				},
				"gasEstimates": {
					"creation": {
						"codeDepositCost": "940200",
						"executionCost": "infinite",
						"totalCost": "infinite"
					},
					"external": {
						"UPGRADE_INTERFACE_VERSION()": "infinite",
						"getPrices(bytes32[])": "infinite",
						"initialize()": "81624",
						"prices(bytes32)": "2775",
						"proxiableUUID()": "infinite",
						"setPrices(bytes32[],uint256[])": "infinite",
						"upgradeToAndCall(address,bytes)": "infinite"
					},
					"internal": {
						"_authorizeUpgrade(address)": "11"
					}
				},
				"methodIdentifiers": {
					"UPGRADE_INTERFACE_VERSION()": "ad3cb1cc",
					"getPrices(bytes32[])": "26ee4836",
					"initialize()": "8129fc1c",
					"prices(bytes32)": "60846bc6",
					"proxiableUUID()": "52d1902d",
					"setPrices(bytes32[],uint256[])": "1cfdd523",
					"upgradeToAndCall(address,bytes)": "4f1ef286"
				}
			},
			"storageLayout": {
				"storage": [
					{
						"astId": 1136,
						"contract": "Mock\\mockOracle.sol:MockOracle",
						"label": "prices",
						"offset": 0,
						"slot": "0",
						"type": "t_mapping(t_bytes32,t_uint256)"
					}
				],
				"types": {
					"t_bytes32": {
						"encoding": "inplace",
						"label": "bytes32",
						"numberOfBytes": "32"
					},
					"t_mapping(t_bytes32,t_uint256)": {
						"encoding": "mapping",
						"key": "t_bytes32",
						"label": "mapping(bytes32 => uint256)",
						"numberOfBytes": "32",
						"value": "t_uint256"
					},
					"t_uint256": {
						"encoding": "inplace",
						"label": "uint256",
						"numberOfBytes": "32"
					}
				}
			},
			"userdoc": {
				"kind": "user",
				"methods": {},
				"version": 1
			}
		}
	}
}