{
  "_format": "hh-sol-artifact-1",
  "contractName": "DefaultProxy",
  "sourceName": "contracts/Utils/proxy.sol",
  "abi": [
    {
      "inputs": [
        {
          "internalType": "address",
          "name": "_logic",
          "type": "address"
        },
        {
          "internalType": "bytes",
          "name": "_data",
          "type": "bytes"
        },
        {
          "internalType": "address",
          "name": "owner",
          "type": "address"
        }
      ],
      "stateMutability": "nonpayable",
      "type": "constructor"
    },
    {
      "inputs": [
        {
          "internalType": "address",
          "name": "target",
          "type": "address"
        }
      ],
      "name": "AddressEmptyCode",
      "type": "error"
    },
    {
      "inputs": [
        {
          "internalType": "address",
          "name": "admin",
          "type": "address"
        }
      ],
      "name": "ERC1967InvalidAdmin",
      "type": "error"
    },
    {
      "inputs": [
        {
          "internalType": "address",
          "name": "implementation",
          "type": "address"
        }
      ],
      "name": "ERC1967InvalidImplementation",
      "type": "error"
    },
    {
      "inputs": [],
      "name": "ERC1967NonPayable",
      "type": "error"
    },
    {
      "inputs": [],
      "name": "FailedInnerCall",
      "type": "error"
    },
    {
      "anonymous": false,
      "inputs": [
        {
          "indexed": false,
          "internalType": "address",
          "name": "previousAdmin",
          "type": "address"
        },
        {
          "indexed": false,
          "internalType": "address",
          "name": "newAdmin",
          "type": "address"
        }
      ],
      "name": "AdminChanged",
      "type": "event"
    },
    {
      "anonymous": false,
      "inputs": [
        {
          "indexed": true,
          "internalType": "address",
          "name": "implementation",
          "type": "address"
        }
      ],
      "name": "Upgraded",
      "type": "event"
    },
    {
      "stateMutability": "payable",
      "type": "fallback"
    },
    {
      "inputs": [],
      "name": "getImplementation",
      "outputs": [
        {
          "internalType": "address",
          "name": "",
          "type": "address"
        }
      ],
      "stateMutability": "view",
      "type": "function"
    },
    {
      "inputs": [],
      "name": "owner",
      "outputs": [
        {
          "internalType": "address",
          "name": "",
          "type": "address"
        }
      ],
      "stateMutability": "view",
      "type": "function"
    },
    {
      "inputs": [
        {
          "internalType": "address",
          "name": "newOwner",
          "type": "address"
        }
      ],
      "name": "transferOwnership",
      "outputs": [],
      "stateMutability": "nonpayable",
      "type": "function"
    },
    {
      "inputs": [
        {
          "internalType": "address",
          "name": "newImplementation",
          "type": "address"
        },
        {
          "internalType": "bytes",
          "name": "data",
          "type": "bytes"
        }
      ],
      "name": "upgradeToAndCall",
      "outputs": [],
      "stateMutability": "nonpayable",
      "type": "function"
    }
  ],
  "bytecode": "0x60806040523480156200001157600080fd5b50604051620013613803806200136183398181016040528101906200003791906200072b565b82826200004b82826200006760201b60201c565b50506200005e81620000f460201b60201c565b50505062000867565b62000078826200015260201b60201c565b8173ffffffffffffffffffffffffffffffffffffffff167fbc7cd75a20ee27fd9adebab32041f755214dbc6bffa90cc0225b39da2e5c2d3b60405160405180910390a2600081511115620000df57620000d882826200022a60201b60201c565b50620000f0565b620000ef620002ba60201b60201c565b5b5050565b7f7e644d79422f17c01e4894b5f4f588d331ebfa28653d42ae832dc59e38c9798f62000125620002f860201b60201c565b8260405162000136929190620007b7565b60405180910390a16200014f816200035760201b60201c565b50565b60008173ffffffffffffffffffffffffffffffffffffffff163b03620001b157806040517f4c9c8ce3000000000000000000000000000000000000000000000000000000008152600401620001a89190620007e4565b60405180910390fd5b80620001e67f360894a13ba1a3210667c828492db98dca3e2076cc3735a920a3ca505d382bbc60001b6200044560201b60201c565b60000160006101000a81548173ffffffffffffffffffffffffffffffffffffffff021916908373ffffffffffffffffffffffffffffffffffffffff16021790555050565b60606000808473ffffffffffffffffffffffffffffffffffffffff16846040516200025691906200084e565b600060405180830381855af49150503d806000811462000293576040519150601f19603f3d011682016040523d82523d6000602084013e62000298565b606091505b5091509150620002b08583836200044f60201b60201c565b9250505092915050565b6000341115620002f6576040517fb398979f00000000000000000000000000000000000000000000000000000000815260040160405180910390fd5b565b60006200032e7fb53127684a568b3173ae13b9f8a6016e243e63b6e8ee1178d6a717850b5d610360001b6200044560201b60201c565b60000160009054906101000a900473ffffffffffffffffffffffffffffffffffffffff16905090565b600073ffffffffffffffffffffffffffffffffffffffff168173ffffffffffffffffffffffffffffffffffffffff1603620003cc5760006040517f62e77ba2000000000000000000000000000000000000000000000000000000008152600401620003c39190620007e4565b60405180910390fd5b80620004017fb53127684a568b3173ae13b9f8a6016e243e63b6e8ee1178d6a717850b5d610360001b6200044560201b60201c565b60000160006101000a81548173ffffffffffffffffffffffffffffffffffffffff021916908373ffffffffffffffffffffffffffffffffffffffff16021790555050565b6000819050919050565b6060826200046e576200046882620004ed60201b60201c565b620004e5565b6000825114801562000497575060008473ffffffffffffffffffffffffffffffffffffffff163b145b15620004dc57836040517f9996b315000000000000000000000000000000000000000000000000000000008152600401620004d39190620007e4565b60405180910390fd5b819050620004e6565b5b9392505050565b600081511115620005015780518082602001fd5b6040517f1425ea4200000000000000000000000000000000000000000000000000000000815260040160405180910390fd5b6000604051905090565b600080fd5b600080fd5b600073ffffffffffffffffffffffffffffffffffffffff82169050919050565b6000620005748262000547565b9050919050565b620005868162000567565b81146200059257600080fd5b50565b600081519050620005a6816200057b565b92915050565b600080fd5b600080fd5b6000601f19601f8301169050919050565b7f4e487b7100000000000000000000000000000000000000000000000000000000600052604160045260246000fd5b6200060182620005b6565b810181811067ffffffffffffffff82111715620006235762000622620005c7565b5b80604052505050565b60006200063862000533565b9050620006468282620005f6565b919050565b600067ffffffffffffffff821115620006695762000668620005c7565b5b6200067482620005b6565b9050602081019050919050565b60005b83811015620006a157808201518184015260208101905062000684565b60008484015250505050565b6000620006c4620006be846200064b565b6200062c565b905082815260208101848484011115620006e357620006e2620005b1565b5b620006f084828562000681565b509392505050565b600082601f83011262000710576200070f620005ac565b5b815162000722848260208601620006ad565b91505092915050565b6000806000606084860312156200074757620007466200053d565b5b6000620007578682870162000595565b935050602084015167ffffffffffffffff8111156200077b576200077a62000542565b5b6200078986828701620006f8565b92505060406200079c8682870162000595565b9150509250925092565b620007b18162000567565b82525050565b6000604082019050620007ce6000830185620007a6565b620007dd6020830184620007a6565b9392505050565b6000602082019050620007fb6000830184620007a6565b92915050565b600081519050919050565b600081905092915050565b6000620008248262000801565b6200083081856200080c565b93506200084281856020860162000681565b80840191505092915050565b60006200085c828462000817565b915081905092915050565b610aea80620008776000396000f3fe6080604052600436106100435760003560e01c80634f1ef2861461004e5780638da5cb5b14610077578063aaf10f42146100a2578063f2fde38b146100cd57610044565b5b61004c6100f6565b005b34801561005a57600080fd5b50610075600480360381019061007091906108d3565b610108565b005b34801561008357600080fd5b5061008c61018b565b604051610099919061093e565b60405180910390f35b3480156100ae57600080fd5b506100b761019a565b6040516100c4919061093e565b60405180910390f35b3480156100d957600080fd5b506100f460048036038101906100ef9190610959565b6101a9565b005b61010661010161022a565b610239565b565b3373ffffffffffffffffffffffffffffffffffffffff1661012761025f565b73ffffffffffffffffffffffffffffffffffffffff161461017d576040517f08c379a0000000000000000000000000000000000000000000000000000000008152600401610174906109e3565b60405180910390fd5b61018782826102b6565b5050565b600061019561025f565b905090565b60006101a4610329565b905090565b3373ffffffffffffffffffffffffffffffffffffffff166101c861025f565b73ffffffffffffffffffffffffffffffffffffffff161461021e576040517f08c379a0000000000000000000000000000000000000000000000000000000008152600401610215906109e3565b60405180910390fd5b61022781610380565b50565b6000610234610329565b905090565b3660008037600080366000845af43d6000803e806000811461025a573d6000f35b3d6000fd5b600061028d7fb53127684a568b3173ae13b9f8a6016e243e63b6e8ee1178d6a717850b5d610360001b6103cc565b60000160009054906101000a900473ffffffffffffffffffffffffffffffffffffffff16905090565b6102bf826103d6565b8173ffffffffffffffffffffffffffffffffffffffff167fbc7cd75a20ee27fd9adebab32041f755214dbc6bffa90cc0225b39da2e5c2d3b60405160405180910390a260008151111561031c5761031682826104a3565b50610325565b610324610527565b5b5050565b60006103577f360894a13ba1a3210667c828492db98dca3e2076cc3735a920a3ca505d382bbc60001b6103cc565b60000160009054906101000a900473ffffffffffffffffffffffffffffffffffffffff16905090565b7f7e644d79422f17c01e4894b5f4f588d331ebfa28653d42ae832dc59e38c9798f6103a961025f565b826040516103b8929190610a03565b60405180910390a16103c981610564565b50565b6000819050919050565b60008173ffffffffffffffffffffffffffffffffffffffff163b0361043257806040517f4c9c8ce3000000000000000000000000000000000000000000000000000000008152600401610429919061093e565b60405180910390fd5b8061045f7f360894a13ba1a3210667c828492db98dca3e2076cc3735a920a3ca505d382bbc60001b6103cc565b60000160006101000a81548173ffffffffffffffffffffffffffffffffffffffff021916908373ffffffffffffffffffffffffffffffffffffffff16021790555050565b60606000808473ffffffffffffffffffffffffffffffffffffffff16846040516104cd9190610a9d565b600060405180830381855af49150503d8060008114610508576040519150601f19603f3d011682016040523d82523d6000602084013e61050d565b606091505b509150915061051d858383610647565b9250505092915050565b6000341115610562576040517fb398979f00000000000000000000000000000000000000000000000000000000815260040160405180910390fd5b565b600073ffffffffffffffffffffffffffffffffffffffff168173ffffffffffffffffffffffffffffffffffffffff16036105d65760006040517f62e77ba20000000000000000000000000000000000000000000000000000000081526004016105cd919061093e565b60405180910390fd5b806106037fb53127684a568b3173ae13b9f8a6016e243e63b6e8ee1178d6a717850b5d610360001b6103cc565b60000160006101000a81548173ffffffffffffffffffffffffffffffffffffffff021916908373ffffffffffffffffffffffffffffffffffffffff16021790555050565b60608261065c57610657826106d6565b6106ce565b60008251148015610684575060008473ffffffffffffffffffffffffffffffffffffffff163b145b156106c657836040517f9996b3150000000000000000000000000000000000000000000000000000000081526004016106bd919061093e565b60405180910390fd5b8190506106cf565b5b9392505050565b6000815111156106e95780518082602001fd5b6040517f1425ea4200000000000000000000000000000000000000000000000000000000815260040160405180910390fd5b6000604051905090565b600080fd5b600080fd5b600073ffffffffffffffffffffffffffffffffffffffff82169050919050565b600061075a8261072f565b9050919050565b61076a8161074f565b811461077557600080fd5b50565b60008135905061078781610761565b92915050565b600080fd5b600080fd5b6000601f19601f8301169050919050565b7f4e487b7100000000000000000000000000000000000000000000000000000000600052604160045260246000fd5b6107e082610797565b810181811067ffffffffffffffff821117156107ff576107fe6107a8565b5b80604052505050565b600061081261071b565b905061081e82826107d7565b919050565b600067ffffffffffffffff82111561083e5761083d6107a8565b5b61084782610797565b9050602081019050919050565b82818337600083830152505050565b600061087661087184610823565b610808565b90508281526020810184848401111561089257610891610792565b5b61089d848285610854565b509392505050565b600082601f8301126108ba576108b961078d565b5b81356108ca848260208601610863565b91505092915050565b600080604083850312156108ea576108e9610725565b5b60006108f885828601610778565b925050602083013567ffffffffffffffff8111156109195761091861072a565b5b610925858286016108a5565b9150509250929050565b6109388161074f565b82525050565b6000602082019050610953600083018461092f565b92915050565b60006020828403121561096f5761096e610725565b5b600061097d84828501610778565b91505092915050565b600082825260208201905092915050565b7f554e415554484f52495a45440000000000000000000000000000000000000000600082015250565b60006109cd600c83610986565b91506109d882610997565b602082019050919050565b600060208201905081810360008301526109fc816109c0565b9050919050565b6000604082019050610a18600083018561092f565b610a25602083018461092f565b9392505050565b600081519050919050565b600081905092915050565b60005b83811015610a60578082015181840152602081019050610a45565b60008484015250505050565b6000610a7782610a2c565b610a818185610a37565b9350610a91818560208601610a42565b80840191505092915050565b6000610aa98284610a6c565b91508190509291505056fea26469706673582212206b27d881a66ea542d78b55c0ffe3541b7178a46da716f5e8cb88f3b6d610e47e64736f6c63430008140033",
  "linkReferences": {},
  "deployedLinkReferences": {}
}