{
  "_format": "hh-sol-artifact-1",
  "contractName": "MockUnaBridge",
  "sourceName": "contracts/Mock/mockUna.sol",
  "abi": [
    {
      "inputs": [],
      "stateMutability": "nonpayable",
      "type": "constructor"
    },
    {
      "inputs": [
        {
          "internalType": "address",
          "name": "target",
          "type": "address"
        }
      ],
      "name": "AddressEmptyCode",
      "type": "error"
    },
    {
      "inputs": [
        {
          "internalType": "address",
          "name": "implementation",
          "type": "address"
        }
      ],
      "name": "ERC1967InvalidImplementation",
      "type": "error"
    },
    {
      "inputs": [],
      "name": "ERC1967NonPayable",
      "type": "error"
    },
    {
      "inputs": [],
      "name": "FailedInnerCall",
      "type": "error"
    },
    {
      "inputs": [],
      "name": "InvalidInitialization",
      "type": "error"
    },
    {
      "inputs": [],
      "name": "NotInitializing",
      "type": "error"
    },
    {
      "inputs": [],
      "name": "UUPSUnauthorizedCallContext",
      "type": "error"
    },
    {
      "inputs": [
        {
          "internalType": "bytes32",
          "name": "slot",
          "type": "bytes32"
        }
      ],
      "name": "UUPSUnsupportedProxiableUUID",
      "type": "error"
    },
    {
      "anonymous": false,
      "inputs": [
        {
          "indexed": true,
          "internalType": "bytes32",
          "name": "messageId",
          "type": "bytes32"
        },
        {
          "indexed": true,
          "internalType": "address",
          "name": "from",
          "type": "address"
        },
        {
          "indexed": true,
          "internalType": "address",
          "name": "to",
          "type": "address"
        },
        {
          "indexed": false,
          "internalType": "uint64",
          "name": "dstChain",
          "type": "uint64"
        },
        {
          "indexed": false,
          "internalType": "uint64",
          "name": "gasLimit",
          "type": "uint64"
        },
        {
          "components": [
            {
              "internalType": "address",
              "name": "token",
              "type": "address"
            },
            {
              "internalType": "uint256",
              "name": "amount",
              "type": "uint256"
            }
          ],
          "indexed": false,
          "internalType": "struct Client.EVMTokenAmount",
          "name": "ccipFeeTokenAmountForCurrChain",
          "type": "tuple"
        },
        {
          "components": [
            {
              "internalType": "address",
              "name": "token",
              "type": "address"
            },
            {
              "internalType": "uint256",
              "name": "amount",
              "type": "uint256"
            }
          ],
          "indexed": false,
          "internalType": "struct Client.EVMTokenAmount",
          "name": "ccipFeeTokenAmountForNextChain",
          "type": "tuple"
        },
        {
          "components": [
            {
              "internalType": "address",
              "name": "token",
              "type": "address"
            },
            {
              "internalType": "uint256",
              "name": "amount",
              "type": "uint256"
            }
          ],
          "indexed": false,
          "internalType": "struct Client.EVMTokenAmount",
          "name": "ccipFeeTokenAmount",
          "type": "tuple"
        },
        {
          "indexed": false,
          "internalType": "uint256",
          "name": "serviceFeeAmount",
          "type": "uint256"
        },
        {
          "indexed": false,
          "internalType": "address",
          "name": "srcToken",
          "type": "address"
        },
        {
          "indexed": false,
          "internalType": "uint256",
          "name": "amount",
          "type": "uint256"
        },
        {
          "indexed": false,
          "internalType": "bytes32",
          "name": "metaHash",
          "type": "bytes32"
        }
      ],
      "name": "ExitERC20",
      "type": "event"
    },
    {
      "anonymous": false,
      "inputs": [
        {
          "indexed": false,
          "internalType": "uint64",
          "name": "version",
          "type": "uint64"
        }
      ],
      "name": "Initialized",
      "type": "event"
    },
    {
      "anonymous": false,
      "inputs": [
        {
          "indexed": true,
          "internalType": "address",
          "name": "implementation",
          "type": "address"
        }
      ],
      "name": "Upgraded",
      "type": "event"
    },
    {
      "inputs": [],
      "name": "UPGRADE_INTERFACE_VERSION",
      "outputs": [
        {
          "internalType": "string",
          "name": "",
          "type": "string"
        }
      ],
      "stateMutability": "view",
      "type": "function"
    },
    {
      "inputs": [
        {
          "components": [
            {
              "internalType": "address",
              "name": "from",
              "type": "address"
            },
            {
              "internalType": "uint64",
              "name": "dstChain",
              "type": "uint64"
            },
            {
              "internalType": "address",
              "name": "to",
              "type": "address"
            },
            {
              "internalType": "uint64",
              "name": "gasLimit",
              "type": "uint64"
            },
            {
              "components": [
                {
                  "internalType": "address",
                  "name": "token",
                  "type": "address"
                },
                {
                  "internalType": "uint256",
                  "name": "amount",
                  "type": "uint256"
                }
              ],
              "internalType": "struct Client.EVMTokenAmount",
              "name": "ccipFeeTokenAmountForCurrChain",
              "type": "tuple"
            },
            {
              "components": [
                {
                  "internalType": "address",
                  "name": "token",
                  "type": "address"
                },
                {
                  "internalType": "uint256",
                  "name": "amount",
                  "type": "uint256"
                }
              ],
              "internalType": "struct Client.EVMTokenAmount",
              "name": "ccipFeeTokenAmountForNextChain",
              "type": "tuple"
            },
            {
              "internalType": "uint256",
              "name": "totalAmount",
              "type": "uint256"
            },
            {
              "internalType": "uint256",
              "name": "bridgedAmount",
              "type": "uint256"
            },
            {
              "internalType": "address",
              "name": "srcToken",
              "type": "address"
            },
            {
              "internalType": "bytes32",
              "name": "metaHash",
              "type": "bytes32"
            },
            {
              "internalType": "address",
              "name": "contractAddress",
              "type": "address"
            },
            {
              "internalType": "bytes",
              "name": "inputs",
              "type": "bytes"
            }
          ],
          "internalType": "struct UnaTypes.ExitERC20",
          "name": "args",
          "type": "tuple"
        }
      ],
      "name": "exitERC20",
      "outputs": [],
      "stateMutability": "nonpayable",
      "type": "function"
    },
    {
      "inputs": [],
      "name": "initialize",
      "outputs": [],
      "stateMutability": "nonpayable",
      "type": "function"
    },
    {
      "inputs": [],
      "name": "nonce",
      "outputs": [
        {
          "internalType": "uint256",
          "name": "",
          "type": "uint256"
        }
      ],
      "stateMutability": "view",
      "type": "function"
    },
    {
      "inputs": [],
      "name": "proxiableUUID",
      "outputs": [
        {
          "internalType": "bytes32",
          "name": "",
          "type": "bytes32"
        }
      ],
      "stateMutability": "view",
      "type": "function"
    },
    {
      "inputs": [
        {
          "internalType": "address",
          "name": "newImplementation",
          "type": "address"
        },
        {
          "internalType": "bytes",
          "name": "data",
          "type": "bytes"
        }
      ],
      "name": "upgradeToAndCall",
      "outputs": [],
      "stateMutability": "payable",
      "type": "function"
    }
  ],
  "bytecode": "0x60a06040523073ffffffffffffffffffffffffffffffffffffffff1660809073ffffffffffffffffffffffffffffffffffffffff168152503480156200004457600080fd5b50620000556200005b60201b60201c565b620001cf565b60006200006d6200016560201b60201c565b90508060000160089054906101000a900460ff1615620000b9576040517ff92ee8a900000000000000000000000000000000000000000000000000000000815260040160405180910390fd5b67ffffffffffffffff80168160000160009054906101000a900467ffffffffffffffff1667ffffffffffffffff1614620001625767ffffffffffffffff8160000160006101000a81548167ffffffffffffffff021916908367ffffffffffffffff1602179055507fc7f505b2f371ae2175ee4913f4499e1f2633a7b5936321eed1cdaeb6115181d267ffffffffffffffff604051620001599190620001b2565b60405180910390a15b50565b60007ff0c57e16840df040f15088dc2f81fe391c3923bec73e23a9662efc9c229c6a00905090565b600067ffffffffffffffff82169050919050565b620001ac816200018d565b82525050565b6000602082019050620001c96000830184620001a1565b92915050565b60805161137a620001f96000396000818161051301528181610568015261071b015261137a6000f3fe6080604052600436106100555760003560e01c80634f1ef2861461005a57806352d1902d146100765780636b0e54e1146100a15780638129fc1c146100ca578063ad3cb1cc146100e1578063affed0e01461010c575b600080fd5b610074600480360381019061006f9190610cb6565b610137565b005b34801561008257600080fd5b5061008b610156565b6040516100989190610d2b565b60405180910390f35b3480156100ad57600080fd5b506100c860048036038101906100c39190610d6b565b610189565b005b3480156100d657600080fd5b506100df610345565b005b3480156100ed57600080fd5b506100f66104d2565b6040516101039190610e33565b60405180910390f35b34801561011857600080fd5b5061012161050b565b60405161012e9190610e6e565b60405180910390f35b61013f610511565b610148826105f7565b61015282826105fa565b5050565b6000610160610719565b7f360894a13ba1a3210667c828492db98dca3e2076cc3735a920a3ca505d382bbc60001b905090565b8061014001602081019061019d9190610e89565b73ffffffffffffffffffffffffffffffffffffffff166323b872dd33308461010001356040518463ffffffff1660e01b81526004016101de93929190610ec5565b6020604051808303816000875af11580156101fd573d6000803e3d6000fd5b505050506040513d601f19601f820116820180604052508101906102219190610f34565b508060400160208101906102359190610e89565b73ffffffffffffffffffffffffffffffffffffffff1681600001602081019061025e9190610e89565b73ffffffffffffffffffffffffffffffffffffffff1660008081548092919061028690610f90565b9190505560405160200161029a9190610ff9565b604051602081830303815290604052805190602001207f37dabf4e62c387ace50cfa3452052d0f983e8eb9e3d647dfaeadb2a0d6b5d5518460200160208101906102e49190611054565b8560600160208101906102f79190611054565b866080018760c0018860800160008a6101400160208101906103199190610e89565b8b61010001358c610160013560405161033a9998979695949392919061118c565b60405180910390a450565b600061034f6107a0565b905060008160000160089054906101000a900460ff1615905060008260000160009054906101000a900467ffffffffffffffff1690506000808267ffffffffffffffff1614801561039d5750825b9050600060018367ffffffffffffffff161480156103d2575060003073ffffffffffffffffffffffffffffffffffffffff163b145b9050811580156103e0575080155b15610417576040517ff92ee8a900000000000000000000000000000000000000000000000000000000815260040160405180910390fd5b60018560000160006101000a81548167ffffffffffffffff021916908367ffffffffffffffff16021790555083156104675760018560000160086101000a81548160ff0219169083151502179055505b600160008190555083156104cb5760008560000160086101000a81548160ff0219169083151502179055507fc7f505b2f371ae2175ee4913f4499e1f2633a7b5936321eed1cdaeb6115181d260016040516104c29190611257565b60405180910390a15b5050505050565b6040518060400160405280600581526020017f352e302e3000000000000000000000000000000000000000000000000000000081525081565b60005481565b7f000000000000000000000000000000000000000000000000000000000000000073ffffffffffffffffffffffffffffffffffffffff163073ffffffffffffffffffffffffffffffffffffffff1614806105be57507f000000000000000000000000000000000000000000000000000000000000000073ffffffffffffffffffffffffffffffffffffffff166105a56107c8565b73ffffffffffffffffffffffffffffffffffffffff1614155b156105f5576040517fe07c8dba00000000000000000000000000000000000000000000000000000000815260040160405180910390fd5b565b50565b8173ffffffffffffffffffffffffffffffffffffffff166352d1902d6040518163ffffffff1660e01b8152600401602060405180830381865afa92505050801561066257506040513d601f19601f8201168201806040525081019061065f919061129e565b60015b6106a357816040517f4c9c8ce300000000000000000000000000000000000000000000000000000000815260040161069a91906112cb565b60405180910390fd5b7f360894a13ba1a3210667c828492db98dca3e2076cc3735a920a3ca505d382bbc60001b811461070a57806040517faa1d49a40000000000000000000000000000000000000000000000000000000081526004016107019190610d2b565b60405180910390fd5b610714838361081f565b505050565b7f000000000000000000000000000000000000000000000000000000000000000073ffffffffffffffffffffffffffffffffffffffff163073ffffffffffffffffffffffffffffffffffffffff161461079e576040517fe07c8dba00000000000000000000000000000000000000000000000000000000815260040160405180910390fd5b565b60007ff0c57e16840df040f15088dc2f81fe391c3923bec73e23a9662efc9c229c6a00905090565b60006107f67f360894a13ba1a3210667c828492db98dca3e2076cc3735a920a3ca505d382bbc60001b610892565b60000160009054906101000a900473ffffffffffffffffffffffffffffffffffffffff16905090565b6108288261089c565b8173ffffffffffffffffffffffffffffffffffffffff167fbc7cd75a20ee27fd9adebab32041f755214dbc6bffa90cc0225b39da2e5c2d3b60405160405180910390a26000815111156108855761087f8282610969565b5061088e565b61088d6109ed565b5b5050565b6000819050919050565b60008173ffffffffffffffffffffffffffffffffffffffff163b036108f857806040517f4c9c8ce30000000000000000000000000000000000000000000000000000000081526004016108ef91906112cb565b60405180910390fd5b806109257f360894a13ba1a3210667c828492db98dca3e2076cc3735a920a3ca505d382bbc60001b610892565b60000160006101000a81548173ffffffffffffffffffffffffffffffffffffffff021916908373ffffffffffffffffffffffffffffffffffffffff16021790555050565b60606000808473ffffffffffffffffffffffffffffffffffffffff1684604051610993919061132d565b600060405180830381855af49150503d80600081146109ce576040519150601f19603f3d011682016040523d82523d6000602084013e6109d3565b606091505b50915091506109e3858383610a2a565b9250505092915050565b6000341115610a28576040517fb398979f00000000000000000000000000000000000000000000000000000000815260040160405180910390fd5b565b606082610a3f57610a3a82610ab9565b610ab1565b60008251148015610a67575060008473ffffffffffffffffffffffffffffffffffffffff163b145b15610aa957836040517f9996b315000000000000000000000000000000000000000000000000000000008152600401610aa091906112cb565b60405180910390fd5b819050610ab2565b5b9392505050565b600081511115610acc5780518082602001fd5b6040517f1425ea4200000000000000000000000000000000000000000000000000000000815260040160405180910390fd5b6000604051905090565b600080fd5b600080fd5b600073ffffffffffffffffffffffffffffffffffffffff82169050919050565b6000610b3d82610b12565b9050919050565b610b4d81610b32565b8114610b5857600080fd5b50565b600081359050610b6a81610b44565b92915050565b600080fd5b600080fd5b6000601f19601f8301169050919050565b7f4e487b7100000000000000000000000000000000000000000000000000000000600052604160045260246000fd5b610bc382610b7a565b810181811067ffffffffffffffff82111715610be257610be1610b8b565b5b80604052505050565b6000610bf5610afe565b9050610c018282610bba565b919050565b600067ffffffffffffffff821115610c2157610c20610b8b565b5b610c2a82610b7a565b9050602081019050919050565b82818337600083830152505050565b6000610c59610c5484610c06565b610beb565b905082815260208101848484011115610c7557610c74610b75565b5b610c80848285610c37565b509392505050565b600082601f830112610c9d57610c9c610b70565b5b8135610cad848260208601610c46565b91505092915050565b60008060408385031215610ccd57610ccc610b08565b5b6000610cdb85828601610b5b565b925050602083013567ffffffffffffffff811115610cfc57610cfb610b0d565b5b610d0885828601610c88565b9150509250929050565b6000819050919050565b610d2581610d12565b82525050565b6000602082019050610d406000830184610d1c565b92915050565b600080fd5b60006101c08284031215610d6257610d61610d46565b5b81905092915050565b600060208284031215610d8157610d80610b08565b5b600082013567ffffffffffffffff811115610d9f57610d9e610b0d565b5b610dab84828501610d4b565b91505092915050565b600081519050919050565b600082825260208201905092915050565b60005b83811015610dee578082015181840152602081019050610dd3565b60008484015250505050565b6000610e0582610db4565b610e0f8185610dbf565b9350610e1f818560208601610dd0565b610e2881610b7a565b840191505092915050565b60006020820190508181036000830152610e4d8184610dfa565b905092915050565b6000819050919050565b610e6881610e55565b82525050565b6000602082019050610e836000830184610e5f565b92915050565b600060208284031215610e9f57610e9e610b08565b5b6000610ead84828501610b5b565b91505092915050565b610ebf81610b32565b82525050565b6000606082019050610eda6000830186610eb6565b610ee76020830185610eb6565b610ef46040830184610e5f565b949350505050565b60008115159050919050565b610f1181610efc565b8114610f1c57600080fd5b50565b600081519050610f2e81610f08565b92915050565b600060208284031215610f4a57610f49610b08565b5b6000610f5884828501610f1f565b91505092915050565b7f4e487b7100000000000000000000000000000000000000000000000000000000600052601160045260246000fd5b6000610f9b82610e55565b91507fffffffffffffffffffffffffffffffffffffffffffffffffffffffffffffffff8203610fcd57610fcc610f61565b5b600182019050919050565b6000819050919050565b610ff3610fee82610e55565b610fd8565b82525050565b60006110058284610fe2565b60208201915081905092915050565b600067ffffffffffffffff82169050919050565b61103181611014565b811461103c57600080fd5b50565b60008135905061104e81611028565b92915050565b60006020828403121561106a57611069610b08565b5b60006110788482850161103f565b91505092915050565b61108a81611014565b82525050565b600061109f6020840184610b5b565b905092915050565b6110b081610b32565b82525050565b6110bf81610e55565b81146110ca57600080fd5b50565b6000813590506110dc816110b6565b92915050565b60006110f160208401846110cd565b905092915050565b61110281610e55565b82525050565b604082016111196000830183611090565b61112660008501826110a7565b5061113460208301836110e2565b61114160208501826110f9565b50505050565b6000819050919050565b6000819050919050565b600061117661117161116c84611147565b611151565b610e55565b9050919050565b6111868161115b565b82525050565b6000610180820190506111a2600083018c611081565b6111af602083018b611081565b6111bc604083018a611108565b6111c96080830189611108565b6111d660c0830188611108565b6111e461010083018761117d565b6111f2610120830186610eb6565b611200610140830185610e5f565b61120e610160830184610d1c565b9a9950505050505050505050565b6000819050919050565b600061124161123c6112378461121c565b611151565b611014565b9050919050565b61125181611226565b82525050565b600060208201905061126c6000830184611248565b92915050565b61127b81610d12565b811461128657600080fd5b50565b60008151905061129881611272565b92915050565b6000602082840312156112b4576112b3610b08565b5b60006112c284828501611289565b91505092915050565b60006020820190506112e06000830184610eb6565b92915050565b600081519050919050565b600081905092915050565b6000611307826112e6565b61131181856112f1565b9350611321818560208601610dd0565b80840191505092915050565b600061133982846112fc565b91508190509291505056fea26469706673582212201dc0e142873907f651267f50bd7b171ebb38e84165ef8e2b39e00c6c80c22adb64736f6c63430008140033",
  "linkReferences": {},
  "deployedLinkReferences": {}
}