{
	"data": {
		"bytecode": {
			"linkReferences": {},
			"object": "60a06040523073ffffffffffffffffffffffffffffffffffffffff1660809073ffffffffffffffffffffffffffffffffffffffff1681525034801562000043575f80fd5b50620000546200005a60201b60201c565b620001c4565b5f6200006b6200015e60201b60201c565b9050805f0160089054906101000a900460ff1615620000b6576040517ff92ee8a900000000000000000000000000000000000000000000000000000000815260040160405180910390fd5b67ffffffffffffffff8016815f015f9054906101000a900467ffffffffffffffff1667ffffffffffffffff16146200015b5767ffffffffffffffff815f015f6101000a81548167ffffffffffffffff021916908367ffffffffffffffff1602179055507fc7f505b2f371ae2175ee4913f4499e1f2633a7b5936321eed1cdaeb6115181d267ffffffffffffffff604051620001529190620001a9565b60405180910390a15b50565b5f7ff0c57e16840df040f15088dc2f81fe391c3923bec73e23a9662efc9c229c6a00905090565b5f67ffffffffffffffff82169050919050565b620001a38162000185565b82525050565b5f602082019050620001be5f83018462000198565b92915050565b608051614b6f620001eb5f395f818161220f0152818161226401526124230152614b6f5ff3fe6080604052600436106101d7575f3560e01c8063609ab6ec11610101578063b007968311610094578063dab5bb8f11610063578063dab5bb8f14610693578063db404538146106bd578063ef4dd55d146106e7578063ffb7739514610723576101d7565b8063b0079683146105d5578063bc53bba9146105ff578063d36791dc1461063b578063d547741f1461066b576101d7565b8063a217fddf116100d0578063a217fddf1461051b578063a4a44a2214610545578063ab9954111461056f578063ad3cb1cc146105ab576101d7565b8063609ab6ec1461047757806380fe39c8146104a15780638129fc1c146104c957806391d14854146104df576101d7565b80632b432c39116101795780634f1ef286116101485780634f1ef286146103df57806350bb43fe146103fb57806350d336ed1461042557806352d1902d1461044d576101d7565b80632b432c39146103355780632bca2a83146103655780632f2ff15d1461038f57806336568abe146103b7576101d7565b806316fb0943116101b557806316fb0943146102775780631c3f6eab1461029f578063248a9ca3146102cf57806325d91df41461030b576101d7565b806301ffc9a7146101db578063085b21d114610217578063145ba05814610247575b5f80fd5b3480156101e6575f80fd5b5061020160048036038101906101fc9190613019565b61074d565b60405161020e919061305e565b60405180910390f35b610231600480360381019061022c9190613442565b6107c6565b60405161023e919061305e565b60405180910390f35b610261600480360381019061025c9190613489565b610802565b60405161026e919061305e565b60405180910390f35b348015610282575f80fd5b5061029d600480360381019061029891906134e3565b610937565b005b6102b960048036038101906102b491906135b2565b610972565b6040516102c6919061305e565b60405180910390f35b3480156102da575f80fd5b506102f560048036038101906102f09190613610565b61106c565b604051610302919061364a565b60405180910390f35b348015610316575f80fd5b5061031f611096565b60405161032c919061364a565b60405180910390f35b61034f600480360381019061034a9190613681565b6110ba565b60405161035c919061305e565b60405180910390f35b348015610370575f80fd5b5061037961133d565b604051610386919061364a565b60405180910390f35b34801561039a575f80fd5b506103b560048036038101906103b091906136bf565b611361565b005b3480156103c2575f80fd5b506103dd60048036038101906103d891906136bf565b611383565b005b6103f960048036038101906103f491906136fd565b6113fe565b005b348015610406575f80fd5b5061040f61141d565b60405161041c919061364a565b60405180910390f35b348015610430575f80fd5b5061044b600480360381019061044691906136bf565b611441565b005b348015610458575f80fd5b506104616114be565b60405161046e919061364a565b60405180910390f35b348015610482575f80fd5b5061048b6114ef565b604051610498919061364a565b60405180910390f35b3480156104ac575f80fd5b506104c760048036038101906104c29190613781565b611513565b005b3480156104d4575f80fd5b506104dd61155a565b005b3480156104ea575f80fd5b50610505600480360381019061050091906136bf565b6116de565b604051610512919061305e565b60405180910390f35b348015610526575f80fd5b5061052f61174f565b60405161053c919061364a565b60405180910390f35b348015610550575f80fd5b50610559611755565b604051610566919061305e565b60405180910390f35b34801561057a575f80fd5b50610595600480360381019061059091906137ca565b611767565b6040516105a2919061305e565b60405180910390f35b3480156105b6575f80fd5b506105bf6117f8565b6040516105cc919061388b565b60405180910390f35b3480156105e0575f80fd5b506105e9611831565b6040516105f6919061364a565b60405180910390f35b34801561060a575f80fd5b5061062560048036038101906106209190613900565b611855565b604051610632919061305e565b60405180910390f35b6106556004803603810190610650919061394b565b6119ed565b604051610662919061305e565b60405180910390f35b348015610676575f80fd5b50610691600480360381019061068c91906136bf565b611a86565b005b34801561069e575f80fd5b506106a7611aa8565b6040516106b4919061364a565b60405180910390f35b3480156106c8575f80fd5b506106d1611acc565b6040516106de919061364a565b60405180910390f35b3480156106f2575f80fd5b5061070d60048036038101906107089190613610565b611af0565b60405161071a91906139d0565b60405180910390f35b34801561072e575f80fd5b50610737611b1f565b604051610744919061364a565b60405180910390f35b5f7f7965db0b000000000000000000000000000000000000000000000000000000007bffffffffffffffffffffffffffffffffffffffffffffffffffffffff1916827bffffffffffffffffffffffffffffffffffffffffffffffffffffffff191614806107bf57506107be82611b43565b5b9050919050565b5f7f5c9f8a1f8085e87c1cd1dbd0fc499f4b22698a6dfb10c34aec0aa3e50fe0d6ff6107f181611bac565b6107fa83611bc0565b915050919050565b5f7f5c9f8a1f8085e87c1cd1dbd0fc499f4b22698a6dfb10c34aec0aa3e50fe0d6ff61082d81611bac565b5f805f807f91252170d30ebdf6e8cea4292a8e5081a5c77e065aa855c856af6f3dd1f2f7ba81526020019081526020015f205f9054906101000a900473ffffffffffffffffffffffffffffffffffffffff1673ffffffffffffffffffffffffffffffffffffffff1686866040516108a49190613a2d565b5f6040518083038185875af1925050503d805f81146108de576040519150601f19603f3d011682016040523d82523d5f602084013e6108e3565b606091505b50915091508161092a57806040517fe42dd8b60000000000000000000000000000000000000000000000000000000081526004016109219190613a8b565b60405180910390fd5b6001935050505092915050565b7f5c9f8a1f8085e87c1cd1dbd0fc499f4b22698a6dfb10c34aec0aa3e50fe0d6ff61096181611bac565b61096c848484611cec565b50505050565b5f60015f9054906101000a900460ff16156109c2576040517f08c379a00000000000000000000000000000000000000000000000000000000081526004016109b990613af5565b60405180910390fd5b6109f67f9c7abe1cc344a0c822ed019aa7e0c3c247359aa68f7dd45424189f65d496d6796109ef86611ef5565b8585611f61565b610a35576040517f08c379a0000000000000000000000000000000000000000000000000000000008152600401610a2c90613b5d565b60405180910390fd5b3373ffffffffffffffffffffffffffffffffffffffff16846020016020810190610a5f9190613b7b565b73ffffffffffffffffffffffffffffffffffffffff1614610ab5576040517f08c379a0000000000000000000000000000000000000000000000000000000008152600401610aac90613bf0565b60405180910390fd5b428460c0013510610afb576040517f08c379a0000000000000000000000000000000000000000000000000000000008152600401610af290613c58565b60405180910390fd5b5f3490505f73ffffffffffffffffffffffffffffffffffffffff16856040016020810190610b299190613b7b565b73ffffffffffffffffffffffffffffffffffffffff1603610ba2573485606001351115610b8b576040517f08c379a0000000000000000000000000000000000000000000000000000000008152600401610b8290613cc0565b60405180910390fd5b846060013581610b9b9190613d0b565b9050610de0565b5f856040016020810190610bb69190613b7b565b73ffffffffffffffffffffffffffffffffffffffff166370a08231306040518263ffffffff1660e01b8152600401610bee91906139d0565b602060405180830381865afa158015610c09573d5f803e3d5ffd5b505050506040513d601f19601f82011682018060405250810190610c2d9190613d52565b9050856040016020810190610c429190613b7b565b73ffffffffffffffffffffffffffffffffffffffff166323b872dd333089606001356040518463ffffffff1660e01b8152600401610c8293929190613d8c565b6020604051808303815f875af1158015610c9e573d5f803e3d5ffd5b505050506040513d601f19601f82011682018060405250810190610cc29190613dd5565b925082610d04576040517f08c379a0000000000000000000000000000000000000000000000000000000008152600401610cfb90613e4a565b60405180910390fd5b856040016020810190610d179190613b7b565b73ffffffffffffffffffffffffffffffffffffffff166370a08231306040518263ffffffff1660e01b8152600401610d4f91906139d0565b602060405180830381865afa158015610d6a573d5f803e3d5ffd5b505050506040513d601f19601f82011682018060405250810190610d8e9190613d52565b866060013582610d9e9190613e68565b14610dde576040517f08c379a0000000000000000000000000000000000000000000000000000000008152600401610dd590613ee5565b60405180910390fd5b505b8460a001358560800135610df49190613e68565b8114610e35576040517f08c379a0000000000000000000000000000000000000000000000000000000008152600401610e2c90613f4d565b60405180910390fd5b5f807f3519cf5aeb70da6112075d724f8ff68482f701927df8eb30d337663e095ece0581526020019081526020015f205f9054906101000a900473ffffffffffffffffffffffffffffffffffffffff1673ffffffffffffffffffffffffffffffffffffffff168560800135604051610eac90613f8e565b5f6040518083038185875af1925050503d805f8114610ee6576040519150601f19603f3d011682016040523d82523d5f602084013e610eeb565b606091505b50508092505081610f31576040517f08c379a0000000000000000000000000000000000000000000000000000000008152600401610f2890613fec565b60405180910390fd5b5f807fbf552e6e0a367f565ca7b394eba25a2010479eda0873b6fc1b4ce9f00e7085a681526020019081526020015f205f9054906101000a900473ffffffffffffffffffffffffffffffffffffffff1673ffffffffffffffffffffffffffffffffffffffff168560a00135604051610fa890613f8e565b5f6040518083038185875af1925050503d805f8114610fe2576040519150601f19603f3d011682016040523d82523d5f602084013e610fe7565b606091505b5050809250508161102d576040517f08c379a000000000000000000000000000000000000000000000000000000000815260040161102490614054565b60405180910390fd5b7f021a8f676b027bd5c29778d376fb1ec3337e5119da42ea969759f3187f4cdfbc8560405161105c9190614180565b60405180910390a1509392505050565b5f80611076611fef565b9050805f015f8481526020019081526020015f2060010154915050919050565b7f5c9f8a1f8085e87c1cd1dbd0fc499f4b22698a6dfb10c34aec0aa3e50fe0d6ff81565b5f7f5c9f8a1f8085e87c1cd1dbd0fc499f4b22698a6dfb10c34aec0aa3e50fe0d6ff6110e581611bac565b5f836080013584606001356110fa9190613d0b565b90505f73ffffffffffffffffffffffffffffffffffffffff168460200160208101906111269190613b7b565b73ffffffffffffffffffffffffffffffffffffffff1603611158578360400135816111519190613e68565b905061123d565b83602001602081019061116b9190613b7b565b73ffffffffffffffffffffffffffffffffffffffff1663a9059cbb855f0160208101906111989190613b7b565b86604001356040518363ffffffff1660e01b81526004016111ba929190614199565b6020604051808303815f875af11580156111d6573d5f803e3d5ffd5b505050506040513d601f19601f820116820180604052508101906111fa9190613dd5565b92508261123c576040517f08c379a000000000000000000000000000000000000000000000000000000000815260040161123390613e4a565b60405180910390fd5b5b835f01602081019061124f9190613b7b565b73ffffffffffffffffffffffffffffffffffffffff168160405161127290613f8e565b5f6040518083038185875af1925050503d805f81146112ac576040519150601f19603f3d011682016040523d82523d5f602084013e6112b1565b606091505b505080935050826112f7576040517f08c379a00000000000000000000000000000000000000000000000000000000081526004016112ee9061420a565b60405180910390fd5b847fe2ca2bf72bb8a110d86fe26850e80122ee62f39c11c263696106fb0bcebbc94485608001358660405161132d9291906142b6565b60405180910390a2505092915050565b7f3519cf5aeb70da6112075d724f8ff68482f701927df8eb30d337663e095ece0581565b61136a8261106c565b61137381611bac565b61137d8383612016565b50505050565b61138b61210e565b73ffffffffffffffffffffffffffffffffffffffff168173ffffffffffffffffffffffffffffffffffffffff16146113ef576040517f6697b23200000000000000000000000000000000000000000000000000000000815260040160405180910390fd5b6113f98282612115565b505050565b61140661220d565b61140f826122f3565b6114198282612303565b5050565b7f19e84af850d308f83cafc054ced962bf340369700532abe13c64a9b9176dafcc81565b7f7d4c95ebf98b3d0730a4b295f90ccf54047e768470d7c5e21916c87cd29a324961146b81611bac565b815f808581526020019081526020015f205f6101000a81548173ffffffffffffffffffffffffffffffffffffffff021916908373ffffffffffffffffffffffffffffffffffffffff160217905550505050565b5f6114c7612421565b7f360894a13ba1a3210667c828492db98dca3e2076cc3735a920a3ca505d382bbc5f1b905090565b7f88293327f82deeefe2207f437bfa0859226c07c40ebc93dada7dadc53ecfbb1d81565b7f5c9f8a1f8085e87c1cd1dbd0fc499f4b22698a6dfb10c34aec0aa3e50fe0d6ff61153d81611bac565b8160015f6101000a81548160ff0219169083151502179055505050565b5f6115636124a8565b90505f815f0160089054906101000a900460ff161590505f825f015f9054906101000a900467ffffffffffffffff1690505f808267ffffffffffffffff161480156115ab5750825b90505f60018367ffffffffffffffff161480156115de57505f3073ffffffffffffffffffffffffffffffffffffffff163b145b9050811580156115ec575080155b15611623576040517ff92ee8a900000000000000000000000000000000000000000000000000000000815260040160405180910390fd5b6001855f015f6101000a81548167ffffffffffffffff021916908367ffffffffffffffff1602179055508315611670576001855f0160086101000a81548160ff0219169083151502179055505b61167c5f801b33612016565b5083156116d7575f855f0160086101000a81548160ff0219169083151502179055507fc7f505b2f371ae2175ee4913f4499e1f2633a7b5936321eed1cdaeb6115181d260016040516116ce919061431f565b60405180910390a15b5050505050565b5f806116e8611fef565b9050805f015f8581526020019081526020015f205f015f8473ffffffffffffffffffffffffffffffffffffffff1673ffffffffffffffffffffffffffffffffffffffff1681526020019081526020015f205f9054906101000a900460ff1691505092915050565b5f801b81565b60015f9054906101000a900460ff1681565b5f7f5c9f8a1f8085e87c1cd1dbd0fc499f4b22698a6dfb10c34aec0aa3e50fe0d6ff61179281611bac565b5f83805f01906117a29190614344565b9050116117e4576040517f08c379a00000000000000000000000000000000000000000000000000000000081526004016117db906143f0565b60405180910390fd5b6117ed836124cf565b506001915050919050565b6040518060400160405280600581526020017f352e302e3000000000000000000000000000000000000000000000000000000081525081565b7f9c7abe1cc344a0c822ed019aa7e0c3c247359aa68f7dd45424189f65d496d67981565b5f7f5c9f8a1f8085e87c1cd1dbd0fc499f4b22698a6dfb10c34aec0aa3e50fe0d6ff61188081611bac565b5f5b848490508110156119e1575f808686848181106118a2576118a161440e565b5b90506020028101906118b4919061443b565b5f0160208101906118c59190613b7b565b73ffffffffffffffffffffffffffffffffffffffff168787858181106118ee576118ed61440e565b5b9050602002810190611900919061443b565b602001358888868181106119175761191661440e565b5b9050602002810190611929919061443b565b80604001906119389190614462565b6040516119469291906144e8565b5f6040518083038185875af1925050503d805f8114611980576040519150601f19603f3d011682016040523d82523d5f602084013e611985565b606091505b5091509150816119cc57806040517f2b73bbca0000000000000000000000000000000000000000000000000000000081526004016119c39190613a8b565b60405180910390fd5b505080806119d990614500565b915050611882565b50600191505092915050565b5f7f5c9f8a1f8085e87c1cd1dbd0fc499f4b22698a6dfb10c34aec0aa3e50fe0d6ff611a1881611bac565b5f84805f0190611a289190614344565b905011611a6a576040517f08c379a0000000000000000000000000000000000000000000000000000000008152600401611a61906143f0565b60405180910390fd5b611a73846124cf565b50611a7d83611bc0565b91505092915050565b611a8f8261106c565b611a9881611bac565b611aa28383612115565b50505050565b7f91252170d30ebdf6e8cea4292a8e5081a5c77e065aa855c856af6f3dd1f2f7ba81565b7fbf552e6e0a367f565ca7b394eba25a2010479eda0873b6fc1b4ce9f00e7085a681565b5f602052805f5260405f205f915054906101000a900473ffffffffffffffffffffffffffffffffffffffff1681565b7f7d4c95ebf98b3d0730a4b295f90ccf54047e768470d7c5e21916c87cd29a324981565b5f7f01ffc9a7000000000000000000000000000000000000000000000000000000007bffffffffffffffffffffffffffffffffffffffffffffffffffffffff1916827bffffffffffffffffffffffffffffffffffffffffffffffffffffffff1916149050919050565b611bbd81611bb861210e565b6128a4565b50565b5f611c248261010001515f807f88293327f82deeefe2207f437bfa0859226c07c40ebc93dada7dadc53ecfbb1d81526020019081526020015f205f9054906101000a900473ffffffffffffffffffffffffffffffffffffffff168460c00151611cec565b5f807f88293327f82deeefe2207f437bfa0859226c07c40ebc93dada7dadc53ecfbb1d81526020019081526020015f205f9054906101000a900473ffffffffffffffffffffffffffffffffffffffff1673ffffffffffffffffffffffffffffffffffffffff16636b0e54e1836080015160200151846040518363ffffffff1660e01b8152600401611cb591906146dd565b5f604051808303818588803b158015611ccc575f80fd5b505af1158015611cde573d5f803e3d5ffd5b505050505060019050919050565b5f73ffffffffffffffffffffffffffffffffffffffff168273ffffffffffffffffffffffffffffffffffffffff1603611d5a576040517f08c379a0000000000000000000000000000000000000000000000000000000008152600401611d5190614747565b60405180910390fd5b5f73ffffffffffffffffffffffffffffffffffffffff168373ffffffffffffffffffffffffffffffffffffffff160315611ef057808373ffffffffffffffffffffffffffffffffffffffff1663dd62ed3e30856040518363ffffffff1660e01b8152600401611dca929190614765565b602060405180830381865afa158015611de5573d5f803e3d5ffd5b505050506040513d601f19601f82011682018060405250810190611e099190613d52565b1015611eef575f8373ffffffffffffffffffffffffffffffffffffffff1663095ea7b3847fffffffffffffffffffffffffffffffffffffffffffffffffffffffffffffffff6040518363ffffffff1660e01b8152600401611e6b929190614199565b6020604051808303815f875af1158015611e87573d5f803e3d5ffd5b505050506040513d601f19601f82011682018060405250810190611eab9190613dd5565b905080611eed576040517f08c379a0000000000000000000000000000000000000000000000000000000008152600401611ee4906147d6565b60405180910390fd5b505b5b505050565b6060815f0135826020016020810190611f0e9190613b7b565b836040016020810190611f219190613b7b565b846060013585608001358660a001358760c00135604051602001611f4b9796959493929190614859565b6040516020818303038152906040529050919050565b5f611fe585611fe08680519060200120604051602001611f81919061494d565b6040516020818303038152906040528051906020012086868080601f0160208091040260200160405190810160405280939291908181526020018383808284375f81840152601f19601f820116905080830192505050505050506128f5565b6116de565b9050949350505050565b5f7f02dd7bc7dec4dceedda775e58dd541e08a116c6c53815c0bd028192f7b626800905090565b5f80612020611fef565b905061202c84846116de565b612103576001815f015f8681526020019081526020015f205f015f8573ffffffffffffffffffffffffffffffffffffffff1673ffffffffffffffffffffffffffffffffffffffff1681526020019081526020015f205f6101000a81548160ff02191690831515021790555061209f61210e565b73ffffffffffffffffffffffffffffffffffffffff168373ffffffffffffffffffffffffffffffffffffffff16857f2f8788117e7eff1d82e926ec794901d17c78024a50270940304540a733656f0d60405160405180910390a46001915050612108565b5f9150505b92915050565b5f33905090565b5f8061211f611fef565b905061212b84846116de565b15612202575f815f015f8681526020019081526020015f205f015f8573ffffffffffffffffffffffffffffffffffffffff1673ffffffffffffffffffffffffffffffffffffffff1681526020019081526020015f205f6101000a81548160ff02191690831515021790555061219e61210e565b73ffffffffffffffffffffffffffffffffffffffff168373ffffffffffffffffffffffffffffffffffffffff16857ff6391f5c32d9c69d2a47ea670b442974b53935d1edc7fd64eb21e047a839171b60405160405180910390a46001915050612207565b5f9150505b92915050565b7f000000000000000000000000000000000000000000000000000000000000000073ffffffffffffffffffffffffffffffffffffffff163073ffffffffffffffffffffffffffffffffffffffff1614806122ba57507f000000000000000000000000000000000000000000000000000000000000000073ffffffffffffffffffffffffffffffffffffffff166122a161291f565b73ffffffffffffffffffffffffffffffffffffffff1614155b156122f1576040517fe07c8dba00000000000000000000000000000000000000000000000000000000815260040160405180910390fd5b565b5f801b6122ff81611bac565b5050565b8173ffffffffffffffffffffffffffffffffffffffff166352d1902d6040518163ffffffff1660e01b8152600401602060405180830381865afa92505050801561236b57506040513d601f19601f820116820180604052508101906123689190614986565b60015b6123ac57816040517f4c9c8ce30000000000000000000000000000000000000000000000000000000081526004016123a391906139d0565b60405180910390fd5b7f360894a13ba1a3210667c828492db98dca3e2076cc3735a920a3ca505d382bbc5f1b811461241257806040517faa1d49a4000000000000000000000000000000000000000000000000000000008152600401612409919061364a565b60405180910390fd5b61241c8383612972565b505050565b7f000000000000000000000000000000000000000000000000000000000000000073ffffffffffffffffffffffffffffffffffffffff163073ffffffffffffffffffffffffffffffffffffffff16146124a6576040517fe07c8dba00000000000000000000000000000000000000000000000000000000815260040160405180910390fd5b565b5f7ff0c57e16840df040f15088dc2f81fe391c3923bec73e23a9662efc9c229c6a00905090565b5f8082805f01906124e09190614344565b600185805f01906124f19190614344565b90506124fd9190613d0b565b81811061250d5761250c61440e565b5b905060200281019061251f91906149b1565b60800160208101906125319190613b7b565b90505f6125508285602001602081019061254b9190613b7b565b6129e4565b90505f5b84805f01906125639190614344565b905081101561282c5761263285805f019061257e9190614344565b8381811061258f5761258e61440e565b5b90506020028101906125a191906149b1565b60400160208101906125b39190613b7b565b86805f01906125c29190614344565b848181106125d3576125d261440e565b5b90506020028101906125e591906149b1565b60200160208101906125f79190613b7b565b87805f01906126069190614344565b858181106126175761261661440e565b5b905060200281019061262991906149b1565b60600135611cec565b5f8086805f01906126439190614344565b848181106126545761265361440e565b5b905060200281019061266691906149b1565b5f0160208101906126779190613b7b565b73ffffffffffffffffffffffffffffffffffffffff165f73ffffffffffffffffffffffffffffffffffffffff1688805f01906126b39190614344565b868181106126c4576126c361440e565b5b90506020028101906126d691906149b1565b60400160208101906126e89190613b7b565b73ffffffffffffffffffffffffffffffffffffffff1614612709575f612740565b87805f01906127189190614344565b858181106127295761272861440e565b5b905060200281019061273b91906149b1565b606001355b88805f019061274f9190614344565b868181106127605761275f61440e565b5b905060200281019061277291906149b1565b8060a001906127819190614462565b60405161278f9291906144e8565b5f6040518083038185875af1925050503d805f81146127c9576040519150601f19603f3d011682016040523d82523d5f602084013e6127ce565b606091505b5091509150816128175782816040517f69bcaeba00000000000000000000000000000000000000000000000000000000815260040161280e9291906149d8565b60405180910390fd5b5050808061282490614500565b915050612554565b508061284a838660200160208101906128459190613b7b565b6129e4565b6128549190613d0b565b9250836040013583101561289d576040517f08c379a000000000000000000000000000000000000000000000000000000000815260040161289490614a50565b60405180910390fd5b5050919050565b6128ae82826116de565b6128f15780826040517fe2517d3f0000000000000000000000000000000000000000000000000000000081526004016128e8929190614a6e565b60405180910390fd5b5050565b5f805f806129038686612ab6565b9250925092506129138282612b0b565b82935050505092915050565b5f61294b7f360894a13ba1a3210667c828492db98dca3e2076cc3735a920a3ca505d382bbc5f1b612c6d565b5f015f9054906101000a900473ffffffffffffffffffffffffffffffffffffffff16905090565b61297b82612c76565b8173ffffffffffffffffffffffffffffffffffffffff167fbc7cd75a20ee27fd9adebab32041f755214dbc6bffa90cc0225b39da2e5c2d3b60405160405180910390a25f815111156129d7576129d18282612d3f565b506129e0565b6129df612dbf565b5b5050565b5f8073ffffffffffffffffffffffffffffffffffffffff168373ffffffffffffffffffffffffffffffffffffffff1614612a95578273ffffffffffffffffffffffffffffffffffffffff166370a08231836040518263ffffffff1660e01b8152600401612a5191906139d0565b602060405180830381865afa158015612a6c573d5f803e3d5ffd5b505050506040513d601f19601f82011682018060405250810190612a909190613d52565b612aae565b8173ffffffffffffffffffffffffffffffffffffffff16315b905092915050565b5f805f6041845103612af6575f805f602087015192506040870151915060608701515f1a9050612ae888828585612dfb565b955095509550505050612b04565b5f600285515f1b9250925092505b9250925092565b5f6003811115612b1e57612b1d614a95565b5b826003811115612b3157612b30614a95565b5b0315612c695760016003811115612b4b57612b4a614a95565b5b826003811115612b5e57612b5d614a95565b5b03612b95576040517ff645eedf00000000000000000000000000000000000000000000000000000000815260040160405180910390fd5b60026003811115612ba957612ba8614a95565b5b826003811115612bbc57612bbb614a95565b5b03612c0057805f1c6040517ffce698f7000000000000000000000000000000000000000000000000000000008152600401612bf79190614ac2565b60405180910390fd5b600380811115612c1357612c12614a95565b5b826003811115612c2657612c25614a95565b5b03612c6857806040517fd78bce0c000000000000000000000000000000000000000000000000000000008152600401612c5f919061364a565b60405180910390fd5b5b5050565b5f819050919050565b5f8173ffffffffffffffffffffffffffffffffffffffff163b03612cd157806040517f4c9c8ce3000000000000000000000000000000000000000000000000000000008152600401612cc891906139d0565b60405180910390fd5b80612cfd7f360894a13ba1a3210667c828492db98dca3e2076cc3735a920a3ca505d382bbc5f1b612c6d565b5f015f6101000a81548173ffffffffffffffffffffffffffffffffffffffff021916908373ffffffffffffffffffffffffffffffffffffffff16021790555050565b60605f808473ffffffffffffffffffffffffffffffffffffffff1684604051612d689190613a2d565b5f60405180830381855af49150503d805f8114612da0576040519150601f19603f3d011682016040523d82523d5f602084013e612da5565b606091505b5091509150612db5858383612ee2565b9250505092915050565b5f341115612df9576040517fb398979f00000000000000000000000000000000000000000000000000000000815260040160405180910390fd5b565b5f805f7f7fffffffffffffffffffffffffffffff5d576e7357a4501ddfe92f46681b20a0845f1c1115612e37575f600385925092509250612ed8565b5f6001888888886040515f8152602001604052604051612e5a9493929190614af6565b6020604051602081039080840390855afa158015612e7a573d5f803e3d5ffd5b5050506020604051035190505f73ffffffffffffffffffffffffffffffffffffffff168173ffffffffffffffffffffffffffffffffffffffff1603612ecb575f60015f801b93509350935050612ed8565b805f805f1b935093509350505b9450945094915050565b606082612ef757612ef282612f6f565b612f67565b5f8251148015612f1d57505f8473ffffffffffffffffffffffffffffffffffffffff163b145b15612f5f57836040517f9996b315000000000000000000000000000000000000000000000000000000008152600401612f5691906139d0565b60405180910390fd5b819050612f68565b5b9392505050565b5f81511115612f815780518082602001fd5b6040517f1425ea4200000000000000000000000000000000000000000000000000000000815260040160405180910390fd5b5f604051905090565b5f80fd5b5f80fd5b5f7fffffffff0000000000000000000000000000000000000000000000000000000082169050919050565b612ff881612fc4565b8114613002575f80fd5b50565b5f8135905061301381612fef565b92915050565b5f6020828403121561302e5761302d612fbc565b5b5f61303b84828501613005565b91505092915050565b5f8115159050919050565b61305881613044565b82525050565b5f6020820190506130715f83018461304f565b92915050565b5f80fd5b5f601f19601f8301169050919050565b7f4e487b71000000000000000000000000000000000000000000000000000000005f52604160045260245ffd5b6130c18261307b565b810181811067ffffffffffffffff821117156130e0576130df61308b565b5b80604052505050565b5f6130f2612fb3565b90506130fe82826130b8565b919050565b5f80fd5b5f73ffffffffffffffffffffffffffffffffffffffff82169050919050565b5f61313082613107565b9050919050565b61314081613126565b811461314a575f80fd5b50565b5f8135905061315b81613137565b92915050565b5f67ffffffffffffffff82169050919050565b61317d81613161565b8114613187575f80fd5b50565b5f8135905061319881613174565b92915050565b5f819050919050565b6131b08161319e565b81146131ba575f80fd5b50565b5f813590506131cb816131a7565b92915050565b5f604082840312156131e6576131e5613077565b5b6131f060406130e9565b90505f6131ff8482850161314d565b5f830152506020613212848285016131bd565b60208301525092915050565b5f819050919050565b6132308161321e565b811461323a575f80fd5b50565b5f8135905061324b81613227565b92915050565b5f80fd5b5f80fd5b5f67ffffffffffffffff8211156132735761327261308b565b5b61327c8261307b565b9050602081019050919050565b828183375f83830152505050565b5f6132a96132a484613259565b6130e9565b9050828152602081018484840111156132c5576132c4613255565b5b6132d0848285613289565b509392505050565b5f82601f8301126132ec576132eb613251565b5b81356132fc848260208601613297565b91505092915050565b5f6101c0828403121561331b5761331a613077565b5b6133266101806130e9565b90505f6133358482850161314d565b5f8301525060206133488482850161318a565b602083015250604061335c8482850161314d565b60408301525060606133708482850161318a565b6060830152506080613384848285016131d1565b60808301525060c0613398848285016131d1565b60a0830152506101006133ad848285016131bd565b60c0830152506101206133c2848285016131bd565b60e0830152506101406133d78482850161314d565b610100830152506101606133ed8482850161323d565b610120830152506101806134038482850161314d565b610140830152506101a082013567ffffffffffffffff81111561342957613428613103565b5b613435848285016132d8565b6101608301525092915050565b5f6020828403121561345757613456612fbc565b5b5f82013567ffffffffffffffff81111561347457613473612fc0565b5b61348084828501613305565b91505092915050565b5f806040838503121561349f5761349e612fbc565b5b5f6134ac858286016131bd565b925050602083013567ffffffffffffffff8111156134cd576134cc612fc0565b5b6134d9858286016132d8565b9150509250929050565b5f805f606084860312156134fa576134f9612fbc565b5b5f6135078682870161314d565b93505060206135188682870161314d565b9250506040613529868287016131bd565b9150509250925092565b5f80fd5b5f60e0828403121561354c5761354b613533565b5b81905092915050565b5f80fd5b5f80fd5b5f8083601f84011261357257613571613251565b5b8235905067ffffffffffffffff81111561358f5761358e613555565b5b6020830191508360018202830111156135ab576135aa613559565b5b9250929050565b5f805f61010084860312156135ca576135c9612fbc565b5b5f6135d786828701613537565b93505060e084013567ffffffffffffffff8111156135f8576135f7612fc0565b5b6136048682870161355d565b92509250509250925092565b5f6020828403121561362557613624612fbc565b5b5f6136328482850161323d565b91505092915050565b6136448161321e565b82525050565b5f60208201905061365d5f83018461363b565b92915050565b5f60a0828403121561367857613677613533565b5b81905092915050565b5f8060c0838503121561369757613696612fbc565b5b5f6136a4858286016131bd565b92505060206136b585828601613663565b9150509250929050565b5f80604083850312156136d5576136d4612fbc565b5b5f6136e28582860161323d565b92505060206136f38582860161314d565b9150509250929050565b5f806040838503121561371357613712612fbc565b5b5f6137208582860161314d565b925050602083013567ffffffffffffffff81111561374157613740612fc0565b5b61374d858286016132d8565b9150509250929050565b61376081613044565b811461376a575f80fd5b50565b5f8135905061377b81613757565b92915050565b5f6020828403121561379657613795612fbc565b5b5f6137a38482850161376d565b91505092915050565b5f606082840312156137c1576137c0613533565b5b81905092915050565b5f602082840312156137df576137de612fbc565b5b5f82013567ffffffffffffffff8111156137fc576137fb612fc0565b5b613808848285016137ac565b91505092915050565b5f81519050919050565b5f82825260208201905092915050565b5f5b8381101561384857808201518184015260208101905061382d565b5f8484015250505050565b5f61385d82613811565b613867818561381b565b935061387781856020860161382b565b6138808161307b565b840191505092915050565b5f6020820190508181035f8301526138a38184613853565b905092915050565b5f8083601f8401126138c0576138bf613251565b5b8235905067ffffffffffffffff8111156138dd576138dc613555565b5b6020830191508360208202830111156138f9576138f8613559565b5b9250929050565b5f806020838503121561391657613915612fbc565b5b5f83013567ffffffffffffffff81111561393357613932612fc0565b5b61393f858286016138ab565b92509250509250929050565b5f806040838503121561396157613960612fbc565b5b5f83013567ffffffffffffffff81111561397e5761397d612fc0565b5b61398a858286016137ac565b925050602083013567ffffffffffffffff8111156139ab576139aa612fc0565b5b6139b785828601613305565b9150509250929050565b6139ca81613126565b82525050565b5f6020820190506139e35f8301846139c1565b92915050565b5f81519050919050565b5f81905092915050565b5f613a07826139e9565b613a1181856139f3565b9350613a2181856020860161382b565b80840191505092915050565b5f613a3882846139fd565b915081905092915050565b5f82825260208201905092915050565b5f613a5d826139e9565b613a678185613a43565b9350613a7781856020860161382b565b613a808161307b565b840191505092915050565b5f6020820190508181035f830152613aa38184613a53565b905092915050565b7f5365727669636520756e617661696c61626c65000000000000000000000000005f82015250565b5f613adf60138361381b565b9150613aea82613aab565b602082019050919050565b5f6020820190508181035f830152613b0c81613ad3565b9050919050565b7f496e76616c6964207369676e61747572650000000000000000000000000000005f82015250565b5f613b4760118361381b565b9150613b5282613b13565b602082019050919050565b5f6020820190508181035f830152613b7481613b3b565b9050919050565b5f60208284031215613b9057613b8f612fbc565b5b5f613b9d8482850161314d565b91505092915050565b7f496e76616c6964207469636b65740000000000000000000000000000000000005f82015250565b5f613bda600e8361381b565b9150613be582613ba6565b602082019050919050565b5f6020820190508181035f830152613c0781613bce565b9050919050565b7f4f75746461746564207469636b657400000000000000000000000000000000005f82015250565b5f613c42600f8361381b565b9150613c4d82613c0e565b602082019050919050565b5f6020820190508181035f830152613c6f81613c36565b9050919050565b7f496e73756666696369656e742076616c756500000000000000000000000000005f82015250565b5f613caa60128361381b565b9150613cb582613c76565b602082019050919050565b5f6020820190508181035f830152613cd781613c9e565b9050919050565b7f4e487b71000000000000000000000000000000000000000000000000000000005f52601160045260245ffd5b5f613d158261319e565b9150613d208361319e565b9250828203905081811115613d3857613d37613cde565b5b92915050565b5f81519050613d4c816131a7565b92915050565b5f60208284031215613d6757613d66612fbc565b5b5f613d7484828501613d3e565b91505092915050565b613d868161319e565b82525050565b5f606082019050613d9f5f8301866139c1565b613dac60208301856139c1565b613db96040830184613d7d565b949350505050565b5f81519050613dcf81613757565b92915050565b5f60208284031215613dea57613de9612fbc565b5b5f613df784828501613dc1565b91505092915050565b7f4661696c656420746f207472616e7366657220617373657400000000000000005f82015250565b5f613e3460188361381b565b9150613e3f82613e00565b602082019050919050565b5f6020820190508181035f830152613e6181613e28565b9050919050565b5f613e728261319e565b9150613e7d8361319e565b9250828201905080821115613e9557613e94613cde565b5b92915050565b7f5472616e73666572206572726f720000000000000000000000000000000000005f82015250565b5f613ecf600e8361381b565b9150613eda82613e9b565b602082019050919050565b5f6020820190508181035f830152613efc81613ec3565b9050919050565b7f496e636f727265637420666565000000000000000000000000000000000000005f82015250565b5f613f37600d8361381b565b9150613f4282613f03565b602082019050919050565b5f6020820190508181035f830152613f6481613f2b565b9050919050565b50565b5f613f795f836139f3565b9150613f8482613f6b565b5f82019050919050565b5f613f9882613f6e565b9150819050919050565b7f4661696c656420746f20736176652076616c75740000000000000000000000005f82015250565b5f613fd660148361381b565b9150613fe182613fa2565b602082019050919050565b5f6020820190508181035f83015261400381613fca565b9050919050565b7f4661696c656420746f20736176652062756666657200000000000000000000005f82015250565b5f61403e60158361381b565b91506140498261400a565b602082019050919050565b5f6020820190508181035f83015261406b81614032565b9050919050565b5f61408060208401846131bd565b905092915050565b6140918161319e565b82525050565b5f6140a5602084018461314d565b905092915050565b6140b681613126565b82525050565b60e082016140cc5f830183614072565b6140d85f850182614088565b506140e66020830183614097565b6140f360208501826140ad565b506141016040830183614097565b61410e60408501826140ad565b5061411c6060830183614072565b6141296060850182614088565b506141376080830183614072565b6141446080850182614088565b5061415260a0830183614072565b61415f60a0850182614088565b5061416d60c0830183614072565b61417a60c0850182614088565b50505050565b5f60e0820190506141935f8301846140bc565b92915050565b5f6040820190506141ac5f8301856139c1565b6141b96020830184613d7d565b9392505050565b7f4661696c656420746f207472616e73666572206e6174697665000000000000005f82015250565b5f6141f460198361381b565b91506141ff826141c0565b602082019050919050565b5f6020820190508181035f830152614221816141e8565b9050919050565b60a082016142385f830183614097565b6142445f8501826140ad565b506142526020830183614097565b61425f60208501826140ad565b5061426d6040830183614072565b61427a6040850182614088565b506142886060830183614072565b6142956060850182614088565b506142a36080830183614072565b6142b06080850182614088565b50505050565b5f60c0820190506142c95f830185613d7d565b6142d66020830184614228565b9392505050565b5f819050919050565b5f819050919050565b5f6143096143046142ff846142dd565b6142e6565b613161565b9050919050565b614319816142ef565b82525050565b5f6020820190506143325f830184614310565b92915050565b5f80fd5b5f80fd5b5f80fd5b5f80833560016020038436030381126143605761435f614338565b5b80840192508235915067ffffffffffffffff8211156143825761438161433c565b5b60208301925060208202360383131561439e5761439d614340565b5b509250929050565b7f53776170206c656e677468206973207a65726f000000000000000000000000005f82015250565b5f6143da60138361381b565b91506143e5826143a6565b602082019050919050565b5f6020820190508181035f830152614407816143ce565b9050919050565b7f4e487b71000000000000000000000000000000000000000000000000000000005f52603260045260245ffd5b5f8235600160600383360303811261445657614455614338565b5b80830191505092915050565b5f808335600160200384360303811261447e5761447d614338565b5b80840192508235915067ffffffffffffffff8211156144a05761449f61433c565b5b6020830192506001820236038313156144bc576144bb614340565b5b509250929050565b5f6144cf83856139f3565b93506144dc838584613289565b82840190509392505050565b5f6144f48284866144c4565b91508190509392505050565b5f61450a8261319e565b91507fffffffffffffffffffffffffffffffffffffffffffffffffffffffffffffffff820361453c5761453b613cde565b5b600182019050919050565b61455081613161565b82525050565b604082015f82015161456a5f8501826140ad565b50602082015161457d6020850182614088565b50505050565b61458c8161321e565b82525050565b5f82825260208201905092915050565b5f6145ac826139e9565b6145b68185614592565b93506145c681856020860161382b565b6145cf8161307b565b840191505092915050565b5f6101c083015f8301516145f05f8601826140ad565b5060208301516146036020860182614547565b50604083015161461660408601826140ad565b5060608301516146296060860182614547565b50608083015161463c6080860182614556565b5060a083015161464f60c0860182614556565b5060c0830151614663610100860182614088565b5060e0830151614677610120860182614088565b5061010083015161468c6101408601826140ad565b506101208301516146a1610160860182614583565b506101408301516146b66101808601826140ad565b506101608301518482036101a08601526146d082826145a2565b9150508091505092915050565b5f6020820190508181035f8301526146f581846145da565b905092915050565b7f5a65726f4164647265737320697320676976656e0000000000000000000000005f82015250565b5f61473160148361381b565b915061473c826146fd565b602082019050919050565b5f6020820190508181035f83015261475e81614725565b9050919050565b5f6040820190506147785f8301856139c1565b61478560208301846139c1565b9392505050565b7f417070726f7665206661696c65640000000000000000000000000000000000005f82015250565b5f6147c0600e8361381b565b91506147cb8261478c565b602082019050919050565b5f6020820190508181035f8301526147ed816147b4565b9050919050565b5f819050919050565b61480e6148098261319e565b6147f4565b82525050565b5f8160601b9050919050565b5f61482a82614814565b9050919050565b5f61483b82614820565b9050919050565b61485361484e82613126565b614831565b82525050565b5f614864828a6147fd565b6020820191506148748289614842565b6014820191506148848288614842565b60148201915061489482876147fd565b6020820191506148a482866147fd565b6020820191506148b482856147fd565b6020820191506148c482846147fd565b60208201915081905098975050505050505050565b5f81905092915050565b7f19457468657265756d205369676e6564204d6573736167653a0a3332000000005f82015250565b5f614917601c836148d9565b9150614922826148e3565b601c82019050919050565b5f819050919050565b6149476149428261321e565b61492d565b82525050565b5f6149578261490b565b91506149638284614936565b60208201915081905092915050565b5f8151905061498081613227565b92915050565b5f6020828403121561499b5761499a612fbc565b5b5f6149a884828501614972565b91505092915050565b5f8235600160e0038336030381126149cc576149cb614338565b5b80830191505092915050565b5f6040820190506149eb5f830185613d7d565b81810360208301526149fd8184613a53565b90509392505050565b7f496e73756666696369656e74206f7574707574000000000000000000000000005f82015250565b5f614a3a60138361381b565b9150614a4582614a06565b602082019050919050565b5f6020820190508181035f830152614a6781614a2e565b9050919050565b5f604082019050614a815f8301856139c1565b614a8e602083018461363b565b9392505050565b7f4e487b71000000000000000000000000000000000000000000000000000000005f52602160045260245ffd5b5f602082019050614ad55f830184613d7d565b92915050565b5f60ff82169050919050565b614af081614adb565b82525050565b5f608082019050614b095f83018761363b565b614b166020830186614ae7565b614b23604083018561363b565b614b30606083018461363b565b9594505050505056fea26469706673582212202e02762ada47dc2967a916200d14161373b2cc50dc2fa6fff8a8acbc823f69d564736f6c63430008140033",
			"opcodes": "PUSH1 0xA0 PUSH1 0x40 MSTORE ADDRESS PUSH20 0xFFFFFFFFFFFFFFFFFFFFFFFFFFFFFFFFFFFFFFFF AND PUSH1 0x80 SWAP1 PUSH20 0xFFFFFFFFFFFFFFFFFFFFFFFFFFFFFFFFFFFFFFFF AND DUP2 MSTORE POP CALLVALUE DUP1 ISZERO PUSH3 0x43 JUMPI PUSH0 DUP1 REVERT JUMPDEST POP PUSH3 0x54 PUSH3 0x5A PUSH1 0x20 SHL PUSH1 0x20 SHR JUMP JUMPDEST PUSH3 0x1C4 JUMP JUMPDEST PUSH0 PUSH3 0x6B PUSH3 0x15E PUSH1 0x20 SHL PUSH1 0x20 SHR JUMP JUMPDEST SWAP1 POP DUP1 PUSH0 ADD PUSH1 0x8 SWAP1 SLOAD SWAP1 PUSH2 0x100 EXP SWAP1 DIV PUSH1 0xFF AND ISZERO PUSH3 0xB6 JUMPI PUSH1 0x40 MLOAD PUSH32 0xF92EE8A900000000000000000000000000000000000000000000000000000000 DUP2 MSTORE PUSH1 0x4 ADD PUSH1 0x40 MLOAD DUP1 SWAP2 SUB SWAP1 REVERT JUMPDEST PUSH8 0xFFFFFFFFFFFFFFFF DUP1 AND DUP2 PUSH0 ADD PUSH0 SWAP1 SLOAD SWAP1 PUSH2 0x100 EXP SWAP1 DIV PUSH8 0xFFFFFFFFFFFFFFFF AND PUSH8 0xFFFFFFFFFFFFFFFF AND EQ PUSH3 0x15B JUMPI PUSH8 0xFFFFFFFFFFFFFFFF DUP2 PUSH0 ADD PUSH0 PUSH2 0x100 EXP DUP2 SLOAD DUP2 PUSH8 0xFFFFFFFFFFFFFFFF MUL NOT AND SWAP1 DUP4 PUSH8 0xFFFFFFFFFFFFFFFF AND MUL OR SWAP1 SSTORE POP PUSH32 0xC7F505B2F371AE2175EE4913F4499E1F2633A7B5936321EED1CDAEB6115181D2 PUSH8 0xFFFFFFFFFFFFFFFF PUSH1 0x40 MLOAD PUSH3 0x152 SWAP2 SWAP1 PUSH3 0x1A9 JUMP JUMPDEST PUSH1 0x40 MLOAD DUP1 SWAP2 SUB SWAP1 LOG1 JUMPDEST POP JUMP JUMPDEST PUSH0 PUSH32 0xF0C57E16840DF040F15088DC2F81FE391C3923BEC73E23A9662EFC9C229C6A00 SWAP1 POP SWAP1 JUMP JUMPDEST PUSH0 PUSH8 0xFFFFFFFFFFFFFFFF DUP3 AND SWAP1 POP SWAP2 SWAP1 POP JUMP JUMPDEST PUSH3 0x1A3 DUP2 PUSH3 0x185 JUMP JUMPDEST DUP3 MSTORE POP POP JUMP JUMPDEST PUSH0 PUSH1 0x20 DUP3 ADD SWAP1 POP PUSH3 0x1BE PUSH0 DUP4 ADD DUP5 PUSH3 0x198 JUMP JUMPDEST SWAP3 SWAP2 POP POP JUMP JUMPDEST PUSH1 0x80 MLOAD PUSH2 0x4B6F PUSH3 0x1EB PUSH0 CODECOPY PUSH0 DUP2 DUP2 PUSH2 0x220F ADD MSTORE DUP2 DUP2 PUSH2 0x2264 ADD MSTORE PUSH2 0x2423 ADD MSTORE PUSH2 0x4B6F PUSH0 RETURN INVALID PUSH1 0x80 PUSH1 0x40 MSTORE PUSH1 0x4 CALLDATASIZE LT PUSH2 0x1D7 JUMPI PUSH0 CALLDATALOAD PUSH1 0xE0 SHR DUP1 PUSH4 0x609AB6EC GT PUSH2 0x101 JUMPI DUP1 PUSH4 0xB0079683 GT PUSH2 0x94 JUMPI DUP1 PUSH4 0xDAB5BB8F GT PUSH2 0x63 JUMPI DUP1 PUSH4 0xDAB5BB8F EQ PUSH2 0x693 JUMPI DUP1 PUSH4 0xDB404538 EQ PUSH2 0x6BD JUMPI DUP1 PUSH4 0xEF4DD55D EQ PUSH2 0x6E7 JUMPI DUP1 PUSH4 0xFFB77395 EQ PUSH2 0x723 JUMPI PUSH2 0x1D7 JUMP JUMPDEST DUP1 PUSH4 0xB0079683 EQ PUSH2 0x5D5 JUMPI DUP1 PUSH4 0xBC53BBA9 EQ PUSH2 0x5FF JUMPI DUP1 PUSH4 0xD36791DC EQ PUSH2 0x63B JUMPI DUP1 PUSH4 0xD547741F EQ PUSH2 0x66B JUMPI PUSH2 0x1D7 JUMP JUMPDEST DUP1 PUSH4 0xA217FDDF GT PUSH2 0xD0 JUMPI DUP1 PUSH4 0xA217FDDF EQ PUSH2 0x51B JUMPI DUP1 PUSH4 0xA4A44A22 EQ PUSH2 0x545 JUMPI DUP1 PUSH4 0xAB995411 EQ PUSH2 0x56F JUMPI DUP1 PUSH4 0xAD3CB1CC EQ PUSH2 0x5AB JUMPI PUSH2 0x1D7 JUMP JUMPDEST DUP1 PUSH4 0x609AB6EC EQ PUSH2 0x477 JUMPI DUP1 PUSH4 0x80FE39C8 EQ PUSH2 0x4A1 JUMPI DUP1 PUSH4 0x8129FC1C EQ PUSH2 0x4C9 JUMPI DUP1 PUSH4 0x91D14854 EQ PUSH2 0x4DF JUMPI PUSH2 0x1D7 JUMP JUMPDEST DUP1 PUSH4 0x2B432C39 GT PUSH2 0x179 JUMPI DUP1 PUSH4 0x4F1EF286 GT PUSH2 0x148 JUMPI DUP1 PUSH4 0x4F1EF286 EQ PUSH2 0x3DF JUMPI DUP1 PUSH4 0x50BB43FE EQ PUSH2 0x3FB JUMPI DUP1 PUSH4 0x50D336ED EQ PUSH2 0x425 JUMPI DUP1 PUSH4 0x52D1902D EQ PUSH2 0x44D JUMPI PUSH2 0x1D7 JUMP JUMPDEST DUP1 PUSH4 0x2B432C39 EQ PUSH2 0x335 JUMPI DUP1 PUSH4 0x2BCA2A83 EQ PUSH2 0x365 JUMPI DUP1 PUSH4 0x2F2FF15D EQ PUSH2 0x38F JUMPI DUP1 PUSH4 0x36568ABE EQ PUSH2 0x3B7 JUMPI PUSH2 0x1D7 JUMP JUMPDEST DUP1 PUSH4 0x16FB0943 GT PUSH2 0x1B5 JUMPI DUP1 PUSH4 0x16FB0943 EQ PUSH2 0x277 JUMPI DUP1 PUSH4 0x1C3F6EAB EQ PUSH2 0x29F JUMPI DUP1 PUSH4 0x248A9CA3 EQ PUSH2 0x2CF JUMPI DUP1 PUSH4 0x25D91DF4 EQ PUSH2 0x30B JUMPI PUSH2 0x1D7 JUMP JUMPDEST DUP1 PUSH4 0x1FFC9A7 EQ PUSH2 0x1DB JUMPI DUP1 PUSH4 0x85B21D1 EQ PUSH2 0x217 JUMPI DUP1 PUSH4 0x145BA058 EQ PUSH2 0x247 JUMPI JUMPDEST PUSH0 DUP1 REVERT JUMPDEST CALLVALUE DUP1 ISZERO PUSH2 0x1E6 JUMPI PUSH0 DUP1 REVERT JUMPDEST POP PUSH2 0x201 PUSH1 0x4 DUP1 CALLDATASIZE SUB DUP2 ADD SWAP1 PUSH2 0x1FC SWAP2 SWAP1 PUSH2 0x3019 JUMP JUMPDEST PUSH2 0x74D JUMP JUMPDEST PUSH1 0x40 MLOAD PUSH2 0x20E SWAP2 SWAP1 PUSH2 0x305E JUMP JUMPDEST PUSH1 0x40 MLOAD DUP1 SWAP2 SUB SWAP1 RETURN JUMPDEST PUSH2 0x231 PUSH1 0x4 DUP1 CALLDATASIZE SUB DUP2 ADD SWAP1 PUSH2 0x22C SWAP2 SWAP1 PUSH2 0x3442 JUMP JUMPDEST PUSH2 0x7C6 JUMP JUMPDEST PUSH1 0x40 MLOAD PUSH2 0x23E SWAP2 SWAP1 PUSH2 0x305E JUMP JUMPDEST PUSH1 0x40 MLOAD DUP1 SWAP2 SUB SWAP1 RETURN JUMPDEST PUSH2 0x261 PUSH1 0x4 DUP1 CALLDATASIZE SUB DUP2 ADD SWAP1 PUSH2 0x25C SWAP2 SWAP1 PUSH2 0x3489 JUMP JUMPDEST PUSH2 0x802 JUMP JUMPDEST PUSH1 0x40 MLOAD PUSH2 0x26E SWAP2 SWAP1 PUSH2 0x305E JUMP JUMPDEST PUSH1 0x40 MLOAD DUP1 SWAP2 SUB SWAP1 RETURN JUMPDEST CALLVALUE DUP1 ISZERO PUSH2 0x282 JUMPI PUSH0 DUP1 REVERT JUMPDEST POP PUSH2 0x29D PUSH1 0x4 DUP1 CALLDATASIZE SUB DUP2 ADD SWAP1 PUSH2 0x298 SWAP2 SWAP1 PUSH2 0x34E3 JUMP JUMPDEST PUSH2 0x937 JUMP JUMPDEST STOP JUMPDEST PUSH2 0x2B9 PUSH1 0x4 DUP1 CALLDATASIZE SUB DUP2 ADD SWAP1 PUSH2 0x2B4 SWAP2 SWAP1 PUSH2 0x35B2 JUMP JUMPDEST PUSH2 0x972 JUMP JUMPDEST PUSH1 0x40 MLOAD PUSH2 0x2C6 SWAP2 SWAP1 PUSH2 0x305E JUMP JUMPDEST PUSH1 0x40 MLOAD DUP1 SWAP2 SUB SWAP1 RETURN JUMPDEST CALLVALUE DUP1 ISZERO PUSH2 0x2DA JUMPI PUSH0 DUP1 REVERT JUMPDEST POP PUSH2 0x2F5 PUSH1 0x4 DUP1 CALLDATASIZE SUB DUP2 ADD SWAP1 PUSH2 0x2F0 SWAP2 SWAP1 PUSH2 0x3610 JUMP JUMPDEST PUSH2 0x106C JUMP JUMPDEST PUSH1 0x40 MLOAD PUSH2 0x302 SWAP2 SWAP1 PUSH2 0x364A JUMP JUMPDEST PUSH1 0x40 MLOAD DUP1 SWAP2 SUB SWAP1 RETURN JUMPDEST CALLVALUE DUP1 ISZERO PUSH2 0x316 JUMPI PUSH0 DUP1 REVERT JUMPDEST POP PUSH2 0x31F PUSH2 0x1096 JUMP JUMPDEST PUSH1 0x40 MLOAD PUSH2 0x32C SWAP2 SWAP1 PUSH2 0x364A JUMP JUMPDEST PUSH1 0x40 MLOAD DUP1 SWAP2 SUB SWAP1 RETURN JUMPDEST PUSH2 0x34F PUSH1 0x4 DUP1 CALLDATASIZE SUB DUP2 ADD SWAP1 PUSH2 0x34A SWAP2 SWAP1 PUSH2 0x3681 JUMP JUMPDEST PUSH2 0x10BA JUMP JUMPDEST PUSH1 0x40 MLOAD PUSH2 0x35C SWAP2 SWAP1 PUSH2 0x305E JUMP JUMPDEST PUSH1 0x40 MLOAD DUP1 SWAP2 SUB SWAP1 RETURN JUMPDEST CALLVALUE DUP1 ISZERO PUSH2 0x370 JUMPI PUSH0 DUP1 REVERT JUMPDEST POP PUSH2 0x379 PUSH2 0x133D JUMP JUMPDEST PUSH1 0x40 MLOAD PUSH2 0x386 SWAP2 SWAP1 PUSH2 0x364A JUMP JUMPDEST PUSH1 0x40 MLOAD DUP1 SWAP2 SUB SWAP1 RETURN JUMPDEST CALLVALUE DUP1 ISZERO PUSH2 0x39A JUMPI PUSH0 DUP1 REVERT JUMPDEST POP PUSH2 0x3B5 PUSH1 0x4 DUP1 CALLDATASIZE SUB DUP2 ADD SWAP1 PUSH2 0x3B0 SWAP2 SWAP1 PUSH2 0x36BF JUMP JUMPDEST PUSH2 0x1361 JUMP JUMPDEST STOP JUMPDEST CALLVALUE DUP1 ISZERO PUSH2 0x3C2 JUMPI PUSH0 DUP1 REVERT JUMPDEST POP PUSH2 0x3DD PUSH1 0x4 DUP1 CALLDATASIZE SUB DUP2 ADD SWAP1 PUSH2 0x3D8 SWAP2 SWAP1 PUSH2 0x36BF JUMP JUMPDEST PUSH2 0x1383 JUMP JUMPDEST STOP JUMPDEST PUSH2 0x3F9 PUSH1 0x4 DUP1 CALLDATASIZE SUB DUP2 ADD SWAP1 PUSH2 0x3F4 SWAP2 SWAP1 PUSH2 0x36FD JUMP JUMPDEST PUSH2 0x13FE JUMP JUMPDEST STOP JUMPDEST CALLVALUE DUP1 ISZERO PUSH2 0x406 JUMPI PUSH0 DUP1 REVERT JUMPDEST POP PUSH2 0x40F PUSH2 0x141D JUMP JUMPDEST PUSH1 0x40 MLOAD PUSH2 0x41C SWAP2 SWAP1 PUSH2 0x364A JUMP JUMPDEST PUSH1 0x40 MLOAD DUP1 SWAP2 SUB SWAP1 RETURN JUMPDEST CALLVALUE DUP1 ISZERO PUSH2 0x430 JUMPI PUSH0 DUP1 REVERT JUMPDEST POP PUSH2 0x44B PUSH1 0x4 DUP1 CALLDATASIZE SUB DUP2 ADD SWAP1 PUSH2 0x446 SWAP2 SWAP1 PUSH2 0x36BF JUMP JUMPDEST PUSH2 0x1441 JUMP JUMPDEST STOP JUMPDEST CALLVALUE DUP1 ISZERO PUSH2 0x458 JUMPI PUSH0 DUP1 REVERT JUMPDEST POP PUSH2 0x461 PUSH2 0x14BE JUMP JUMPDEST PUSH1 0x40 MLOAD PUSH2 0x46E SWAP2 SWAP1 PUSH2 0x364A JUMP JUMPDEST PUSH1 0x40 MLOAD DUP1 SWAP2 SUB SWAP1 RETURN JUMPDEST CALLVALUE DUP1 ISZERO PUSH2 0x482 JUMPI PUSH0 DUP1 REVERT JUMPDEST POP PUSH2 0x48B PUSH2 0x14EF JUMP JUMPDEST PUSH1 0x40 MLOAD PUSH2 0x498 SWAP2 SWAP1 PUSH2 0x364A JUMP JUMPDEST PUSH1 0x40 MLOAD DUP1 SWAP2 SUB SWAP1 RETURN JUMPDEST CALLVALUE DUP1 ISZERO PUSH2 0x4AC JUMPI PUSH0 DUP1 REVERT JUMPDEST POP PUSH2 0x4C7 PUSH1 0x4 DUP1 CALLDATASIZE SUB DUP2 ADD SWAP1 PUSH2 0x4C2 SWAP2 SWAP1 PUSH2 0x3781 JUMP JUMPDEST PUSH2 0x1513 JUMP JUMPDEST STOP JUMPDEST CALLVALUE DUP1 ISZERO PUSH2 0x4D4 JUMPI PUSH0 DUP1 REVERT JUMPDEST POP PUSH2 0x4DD PUSH2 0x155A JUMP JUMPDEST STOP JUMPDEST CALLVALUE DUP1 ISZERO PUSH2 0x4EA JUMPI PUSH0 DUP1 REVERT JUMPDEST POP PUSH2 0x505 PUSH1 0x4 DUP1 CALLDATASIZE SUB DUP2 ADD SWAP1 PUSH2 0x500 SWAP2 SWAP1 PUSH2 0x36BF JUMP JUMPDEST PUSH2 0x16DE JUMP JUMPDEST PUSH1 0x40 MLOAD PUSH2 0x512 SWAP2 SWAP1 PUSH2 0x305E JUMP JUMPDEST PUSH1 0x40 MLOAD DUP1 SWAP2 SUB SWAP1 RETURN JUMPDEST CALLVALUE DUP1 ISZERO PUSH2 0x526 JUMPI PUSH0 DUP1 REVERT JUMPDEST POP PUSH2 0x52F PUSH2 0x174F JUMP JUMPDEST PUSH1 0x40 MLOAD PUSH2 0x53C SWAP2 SWAP1 PUSH2 0x364A JUMP JUMPDEST PUSH1 0x40 MLOAD DUP1 SWAP2 SUB SWAP1 RETURN JUMPDEST CALLVALUE DUP1 ISZERO PUSH2 0x550 JUMPI PUSH0 DUP1 REVERT JUMPDEST POP PUSH2 0x559 PUSH2 0x1755 JUMP JUMPDEST PUSH1 0x40 MLOAD PUSH2 0x566 SWAP2 SWAP1 PUSH2 0x305E JUMP JUMPDEST PUSH1 0x40 MLOAD DUP1 SWAP2 SUB SWAP1 RETURN JUMPDEST CALLVALUE DUP1 ISZERO PUSH2 0x57A JUMPI PUSH0 DUP1 REVERT JUMPDEST POP PUSH2 0x595 PUSH1 0x4 DUP1 CALLDATASIZE SUB DUP2 ADD SWAP1 PUSH2 0x590 SWAP2 SWAP1 PUSH2 0x37CA JUMP JUMPDEST PUSH2 0x1767 JUMP JUMPDEST PUSH1 0x40 MLOAD PUSH2 0x5A2 SWAP2 SWAP1 PUSH2 0x305E JUMP JUMPDEST PUSH1 0x40 MLOAD DUP1 SWAP2 SUB SWAP1 RETURN JUMPDEST CALLVALUE DUP1 ISZERO PUSH2 0x5B6 JUMPI PUSH0 DUP1 REVERT JUMPDEST POP PUSH2 0x5BF PUSH2 0x17F8 JUMP JUMPDEST PUSH1 0x40 MLOAD PUSH2 0x5CC SWAP2 SWAP1 PUSH2 0x388B JUMP JUMPDEST PUSH1 0x40 MLOAD DUP1 SWAP2 SUB SWAP1 RETURN JUMPDEST CALLVALUE DUP1 ISZERO PUSH2 0x5E0 JUMPI PUSH0 DUP1 REVERT JUMPDEST POP PUSH2 0x5E9 PUSH2 0x1831 JUMP JUMPDEST PUSH1 0x40 MLOAD PUSH2 0x5F6 SWAP2 SWAP1 PUSH2 0x364A JUMP JUMPDEST PUSH1 0x40 MLOAD DUP1 SWAP2 SUB SWAP1 RETURN JUMPDEST CALLVALUE DUP1 ISZERO PUSH2 0x60A JUMPI PUSH0 DUP1 REVERT JUMPDEST POP PUSH2 0x625 PUSH1 0x4 DUP1 CALLDATASIZE SUB DUP2 ADD SWAP1 PUSH2 0x620 SWAP2 SWAP1 PUSH2 0x3900 JUMP JUMPDEST PUSH2 0x1855 JUMP JUMPDEST PUSH1 0x40 MLOAD PUSH2 0x632 SWAP2 SWAP1 PUSH2 0x305E JUMP JUMPDEST PUSH1 0x40 MLOAD DUP1 SWAP2 SUB SWAP1 RETURN JUMPDEST PUSH2 0x655 PUSH1 0x4 DUP1 CALLDATASIZE SUB DUP2 ADD SWAP1 PUSH2 0x650 SWAP2 SWAP1 PUSH2 0x394B JUMP JUMPDEST PUSH2 0x19ED JUMP JUMPDEST PUSH1 0x40 MLOAD PUSH2 0x662 SWAP2 SWAP1 PUSH2 0x305E JUMP JUMPDEST PUSH1 0x40 MLOAD DUP1 SWAP2 SUB SWAP1 RETURN JUMPDEST CALLVALUE DUP1 ISZERO PUSH2 0x676 JUMPI PUSH0 DUP1 REVERT JUMPDEST POP PUSH2 0x691 PUSH1 0x4 DUP1 CALLDATASIZE SUB DUP2 ADD SWAP1 PUSH2 0x68C SWAP2 SWAP1 PUSH2 0x36BF JUMP JUMPDEST PUSH2 0x1A86 JUMP JUMPDEST STOP JUMPDEST CALLVALUE DUP1 ISZERO PUSH2 0x69E JUMPI PUSH0 DUP1 REVERT JUMPDEST POP PUSH2 0x6A7 PUSH2 0x1AA8 JUMP JUMPDEST PUSH1 0x40 MLOAD PUSH2 0x6B4 SWAP2 SWAP1 PUSH2 0x364A JUMP JUMPDEST PUSH1 0x40 MLOAD DUP1 SWAP2 SUB SWAP1 RETURN JUMPDEST CALLVALUE DUP1 ISZERO PUSH2 0x6C8 JUMPI PUSH0 DUP1 REVERT JUMPDEST POP PUSH2 0x6D1 PUSH2 0x1ACC JUMP JUMPDEST PUSH1 0x40 MLOAD PUSH2 0x6DE SWAP2 SWAP1 PUSH2 0x364A JUMP JUMPDEST PUSH1 0x40 MLOAD DUP1 SWAP2 SUB SWAP1 RETURN JUMPDEST CALLVALUE DUP1 ISZERO PUSH2 0x6F2 JUMPI PUSH0 DUP1 REVERT JUMPDEST POP PUSH2 0x70D PUSH1 0x4 DUP1 CALLDATASIZE SUB DUP2 ADD SWAP1 PUSH2 0x708 SWAP2 SWAP1 PUSH2 0x3610 JUMP JUMPDEST PUSH2 0x1AF0 JUMP JUMPDEST PUSH1 0x40 MLOAD PUSH2 0x71A SWAP2 SWAP1 PUSH2 0x39D0 JUMP JUMPDEST PUSH1 0x40 MLOAD DUP1 SWAP2 SUB SWAP1 RETURN JUMPDEST CALLVALUE DUP1 ISZERO PUSH2 0x72E JUMPI PUSH0 DUP1 REVERT JUMPDEST POP PUSH2 0x737 PUSH2 0x1B1F JUMP JUMPDEST PUSH1 0x40 MLOAD PUSH2 0x744 SWAP2 SWAP1 PUSH2 0x364A JUMP JUMPDEST PUSH1 0x40 MLOAD DUP1 SWAP2 SUB SWAP1 RETURN JUMPDEST PUSH0 PUSH32 0x7965DB0B00000000000000000000000000000000000000000000000000000000 PUSH28 0xFFFFFFFFFFFFFFFFFFFFFFFFFFFFFFFFFFFFFFFFFFFFFFFFFFFFFFFF NOT AND DUP3 PUSH28 0xFFFFFFFFFFFFFFFFFFFFFFFFFFFFFFFFFFFFFFFFFFFFFFFFFFFFFFFF NOT AND EQ DUP1 PUSH2 0x7BF JUMPI POP PUSH2 0x7BE DUP3 PUSH2 0x1B43 JUMP JUMPDEST JUMPDEST SWAP1 POP SWAP2 SWAP1 POP JUMP JUMPDEST PUSH0 PUSH32 0x5C9F8A1F8085E87C1CD1DBD0FC499F4B22698A6DFB10C34AEC0AA3E50FE0D6FF PUSH2 0x7F1 DUP2 PUSH2 0x1BAC JUMP JUMPDEST PUSH2 0x7FA DUP4 PUSH2 0x1BC0 JUMP JUMPDEST SWAP2 POP POP SWAP2 SWAP1 POP JUMP JUMPDEST PUSH0 PUSH32 0x5C9F8A1F8085E87C1CD1DBD0FC499F4B22698A6DFB10C34AEC0AA3E50FE0D6FF PUSH2 0x82D DUP2 PUSH2 0x1BAC JUMP JUMPDEST PUSH0 DUP1 PUSH0 DUP1 PUSH32 0x91252170D30EBDF6E8CEA4292A8E5081A5C77E065AA855C856AF6F3DD1F2F7BA DUP2 MSTORE PUSH1 0x20 ADD SWAP1 DUP2 MSTORE PUSH1 0x20 ADD PUSH0 KECCAK256 PUSH0 SWAP1 SLOAD SWAP1 PUSH2 0x100 EXP SWAP1 DIV PUSH20 0xFFFFFFFFFFFFFFFFFFFFFFFFFFFFFFFFFFFFFFFF AND PUSH20 0xFFFFFFFFFFFFFFFFFFFFFFFFFFFFFFFFFFFFFFFF AND DUP7 DUP7 PUSH1 0x40 MLOAD PUSH2 0x8A4 SWAP2 SWAP1 PUSH2 0x3A2D JUMP JUMPDEST PUSH0 PUSH1 0x40 MLOAD DUP1 DUP4 SUB DUP2 DUP6 DUP8 GAS CALL SWAP3 POP POP POP RETURNDATASIZE DUP1 PUSH0 DUP2 EQ PUSH2 0x8DE JUMPI PUSH1 0x40 MLOAD SWAP2 POP PUSH1 0x1F NOT PUSH1 0x3F RETURNDATASIZE ADD AND DUP3 ADD PUSH1 0x40 MSTORE RETURNDATASIZE DUP3 MSTORE RETURNDATASIZE PUSH0 PUSH1 0x20 DUP5 ADD RETURNDATACOPY PUSH2 0x8E3 JUMP JUMPDEST PUSH1 0x60 SWAP2 POP JUMPDEST POP SWAP2 POP SWAP2 POP DUP2 PUSH2 0x92A JUMPI DUP1 PUSH1 0x40 MLOAD PUSH32 0xE42DD8B600000000000000000000000000000000000000000000000000000000 DUP2 MSTORE PUSH1 0x4 ADD PUSH2 0x921 SWAP2 SWAP1 PUSH2 0x3A8B JUMP JUMPDEST PUSH1 0x40 MLOAD DUP1 SWAP2 SUB SWAP1 REVERT JUMPDEST PUSH1 0x1 SWAP4 POP POP POP POP SWAP3 SWAP2 POP POP JUMP JUMPDEST PUSH32 0x5C9F8A1F8085E87C1CD1DBD0FC499F4B22698A6DFB10C34AEC0AA3E50FE0D6FF PUSH2 0x961 DUP2 PUSH2 0x1BAC JUMP JUMPDEST PUSH2 0x96C DUP5 DUP5 DUP5 PUSH2 0x1CEC JUMP JUMPDEST POP POP POP POP JUMP JUMPDEST PUSH0 PUSH1 0x1 PUSH0 SWAP1 SLOAD SWAP1 PUSH2 0x100 EXP SWAP1 DIV PUSH1 0xFF AND ISZERO PUSH2 0x9C2 JUMPI PUSH1 0x40 MLOAD PUSH32 0x8C379A000000000000000000000000000000000000000000000000000000000 DUP2 MSTORE PUSH1 0x4 ADD PUSH2 0x9B9 SWAP1 PUSH2 0x3AF5 JUMP JUMPDEST PUSH1 0x40 MLOAD DUP1 SWAP2 SUB SWAP1 REVERT JUMPDEST PUSH2 0x9F6 PUSH32 0x9C7ABE1CC344A0C822ED019AA7E0C3C247359AA68F7DD45424189F65D496D679 PUSH2 0x9EF DUP7 PUSH2 0x1EF5 JUMP JUMPDEST DUP6 DUP6 PUSH2 0x1F61 JUMP JUMPDEST PUSH2 0xA35 JUMPI PUSH1 0x40 MLOAD PUSH32 0x8C379A000000000000000000000000000000000000000000000000000000000 DUP2 MSTORE PUSH1 0x4 ADD PUSH2 0xA2C SWAP1 PUSH2 0x3B5D JUMP JUMPDEST PUSH1 0x40 MLOAD DUP1 SWAP2 SUB SWAP1 REVERT JUMPDEST CALLER PUSH20 0xFFFFFFFFFFFFFFFFFFFFFFFFFFFFFFFFFFFFFFFF AND DUP5 PUSH1 0x20 ADD PUSH1 0x20 DUP2 ADD SWAP1 PUSH2 0xA5F SWAP2 SWAP1 PUSH2 0x3B7B JUMP JUMPDEST PUSH20 0xFFFFFFFFFFFFFFFFFFFFFFFFFFFFFFFFFFFFFFFF AND EQ PUSH2 0xAB5 JUMPI PUSH1 0x40 MLOAD PUSH32 0x8C379A000000000000000000000000000000000000000000000000000000000 DUP2 MSTORE PUSH1 0x4 ADD PUSH2 0xAAC SWAP1 PUSH2 0x3BF0 JUMP JUMPDEST PUSH1 0x40 MLOAD DUP1 SWAP2 SUB SWAP1 REVERT JUMPDEST TIMESTAMP DUP5 PUSH1 0xC0 ADD CALLDATALOAD LT PUSH2 0xAFB JUMPI PUSH1 0x40 MLOAD PUSH32 0x8C379A000000000000000000000000000000000000000000000000000000000 DUP2 MSTORE PUSH1 0x4 ADD PUSH2 0xAF2 SWAP1 PUSH2 0x3C58 JUMP JUMPDEST PUSH1 0x40 MLOAD DUP1 SWAP2 SUB SWAP1 REVERT JUMPDEST PUSH0 CALLVALUE SWAP1 POP PUSH0 PUSH20 0xFFFFFFFFFFFFFFFFFFFFFFFFFFFFFFFFFFFFFFFF AND DUP6 PUSH1 0x40 ADD PUSH1 0x20 DUP2 ADD SWAP1 PUSH2 0xB29 SWAP2 SWAP1 PUSH2 0x3B7B JUMP JUMPDEST PUSH20 0xFFFFFFFFFFFFFFFFFFFFFFFFFFFFFFFFFFFFFFFF AND SUB PUSH2 0xBA2 JUMPI CALLVALUE DUP6 PUSH1 0x60 ADD CALLDATALOAD GT ISZERO PUSH2 0xB8B JUMPI PUSH1 0x40 MLOAD PUSH32 0x8C379A000000000000000000000000000000000000000000000000000000000 DUP2 MSTORE PUSH1 0x4 ADD PUSH2 0xB82 SWAP1 PUSH2 0x3CC0 JUMP JUMPDEST PUSH1 0x40 MLOAD DUP1 SWAP2 SUB SWAP1 REVERT JUMPDEST DUP5 PUSH1 0x60 ADD CALLDATALOAD DUP2 PUSH2 0xB9B SWAP2 SWAP1 PUSH2 0x3D0B JUMP JUMPDEST SWAP1 POP PUSH2 0xDE0 JUMP JUMPDEST PUSH0 DUP6 PUSH1 0x40 ADD PUSH1 0x20 DUP2 ADD SWAP1 PUSH2 0xBB6 SWAP2 SWAP1 PUSH2 0x3B7B JUMP JUMPDEST PUSH20 0xFFFFFFFFFFFFFFFFFFFFFFFFFFFFFFFFFFFFFFFF AND PUSH4 0x70A08231 ADDRESS PUSH1 0x40 MLOAD DUP3 PUSH4 0xFFFFFFFF AND PUSH1 0xE0 SHL DUP2 MSTORE PUSH1 0x4 ADD PUSH2 0xBEE SWAP2 SWAP1 PUSH2 0x39D0 JUMP JUMPDEST PUSH1 0x20 PUSH1 0x40 MLOAD DUP1 DUP4 SUB DUP2 DUP7 GAS STATICCALL ISZERO DUP1 ISZERO PUSH2 0xC09 JUMPI RETURNDATASIZE PUSH0 DUP1 RETURNDATACOPY RETURNDATASIZE PUSH0 REVERT JUMPDEST POP POP POP POP PUSH1 0x40 MLOAD RETURNDATASIZE PUSH1 0x1F NOT PUSH1 0x1F DUP3 ADD AND DUP3 ADD DUP1 PUSH1 0x40 MSTORE POP DUP2 ADD SWAP1 PUSH2 0xC2D SWAP2 SWAP1 PUSH2 0x3D52 JUMP JUMPDEST SWAP1 POP DUP6 PUSH1 0x40 ADD PUSH1 0x20 DUP2 ADD SWAP1 PUSH2 0xC42 SWAP2 SWAP1 PUSH2 0x3B7B JUMP JUMPDEST PUSH20 0xFFFFFFFFFFFFFFFFFFFFFFFFFFFFFFFFFFFFFFFF AND PUSH4 0x23B872DD CALLER ADDRESS DUP10 PUSH1 0x60 ADD CALLDATALOAD PUSH1 0x40 MLOAD DUP5 PUSH4 0xFFFFFFFF AND PUSH1 0xE0 SHL DUP2 MSTORE PUSH1 0x4 ADD PUSH2 0xC82 SWAP4 SWAP3 SWAP2 SWAP1 PUSH2 0x3D8C JUMP JUMPDEST PUSH1 0x20 PUSH1 0x40 MLOAD DUP1 DUP4 SUB DUP2 PUSH0 DUP8 GAS CALL ISZERO DUP1 ISZERO PUSH2 0xC9E JUMPI RETURNDATASIZE PUSH0 DUP1 RETURNDATACOPY RETURNDATASIZE PUSH0 REVERT JUMPDEST POP POP POP POP PUSH1 0x40 MLOAD RETURNDATASIZE PUSH1 0x1F NOT PUSH1 0x1F DUP3 ADD AND DUP3 ADD DUP1 PUSH1 0x40 MSTORE POP DUP2 ADD SWAP1 PUSH2 0xCC2 SWAP2 SWAP1 PUSH2 0x3DD5 JUMP JUMPDEST SWAP3 POP DUP3 PUSH2 0xD04 JUMPI PUSH1 0x40 MLOAD PUSH32 0x8C379A000000000000000000000000000000000000000000000000000000000 DUP2 MSTORE PUSH1 0x4 ADD PUSH2 0xCFB SWAP1 PUSH2 0x3E4A JUMP JUMPDEST PUSH1 0x40 MLOAD DUP1 SWAP2 SUB SWAP1 REVERT JUMPDEST DUP6 PUSH1 0x40 ADD PUSH1 0x20 DUP2 ADD SWAP1 PUSH2 0xD17 SWAP2 SWAP1 PUSH2 0x3B7B JUMP JUMPDEST PUSH20 0xFFFFFFFFFFFFFFFFFFFFFFFFFFFFFFFFFFFFFFFF AND PUSH4 0x70A08231 ADDRESS PUSH1 0x40 MLOAD DUP3 PUSH4 0xFFFFFFFF AND PUSH1 0xE0 SHL DUP2 MSTORE PUSH1 0x4 ADD PUSH2 0xD4F SWAP2 SWAP1 PUSH2 0x39D0 JUMP JUMPDEST PUSH1 0x20 PUSH1 0x40 MLOAD DUP1 DUP4 SUB DUP2 DUP7 GAS STATICCALL ISZERO DUP1 ISZERO PUSH2 0xD6A JUMPI RETURNDATASIZE PUSH0 DUP1 RETURNDATACOPY RETURNDATASIZE PUSH0 REVERT JUMPDEST POP POP POP POP PUSH1 0x40 MLOAD RETURNDATASIZE PUSH1 0x1F NOT PUSH1 0x1F DUP3 ADD AND DUP3 ADD DUP1 PUSH1 0x40 MSTORE POP DUP2 ADD SWAP1 PUSH2 0xD8E SWAP2 SWAP1 PUSH2 0x3D52 JUMP JUMPDEST DUP7 PUSH1 0x60 ADD CALLDATALOAD DUP3 PUSH2 0xD9E SWAP2 SWAP1 PUSH2 0x3E68 JUMP JUMPDEST EQ PUSH2 0xDDE JUMPI PUSH1 0x40 MLOAD PUSH32 0x8C379A000000000000000000000000000000000000000000000000000000000 DUP2 MSTORE PUSH1 0x4 ADD PUSH2 0xDD5 SWAP1 PUSH2 0x3EE5 JUMP JUMPDEST PUSH1 0x40 MLOAD DUP1 SWAP2 SUB SWAP1 REVERT JUMPDEST POP JUMPDEST DUP5 PUSH1 0xA0 ADD CALLDATALOAD DUP6 PUSH1 0x80 ADD CALLDATALOAD PUSH2 0xDF4 SWAP2 SWAP1 PUSH2 0x3E68 JUMP JUMPDEST DUP2 EQ PUSH2 0xE35 JUMPI PUSH1 0x40 MLOAD PUSH32 0x8C379A000000000000000000000000000000000000000000000000000000000 DUP2 MSTORE PUSH1 0x4 ADD PUSH2 0xE2C SWAP1 PUSH2 0x3F4D JUMP JUMPDEST PUSH1 0x40 MLOAD DUP1 SWAP2 SUB SWAP1 REVERT JUMPDEST PUSH0 DUP1 PUSH32 0x3519CF5AEB70DA6112075D724F8FF68482F701927DF8EB30D337663E095ECE05 DUP2 MSTORE PUSH1 0x20 ADD SWAP1 DUP2 MSTORE PUSH1 0x20 ADD PUSH0 KECCAK256 PUSH0 SWAP1 SLOAD SWAP1 PUSH2 0x100 EXP SWAP1 DIV PUSH20 0xFFFFFFFFFFFFFFFFFFFFFFFFFFFFFFFFFFFFFFFF AND PUSH20 0xFFFFFFFFFFFFFFFFFFFFFFFFFFFFFFFFFFFFFFFF AND DUP6 PUSH1 0x80 ADD CALLDATALOAD PUSH1 0x40 MLOAD PUSH2 0xEAC SWAP1 PUSH2 0x3F8E JUMP JUMPDEST PUSH0 PUSH1 0x40 MLOAD DUP1 DUP4 SUB DUP2 DUP6 DUP8 GAS CALL SWAP3 POP POP POP RETURNDATASIZE DUP1 PUSH0 DUP2 EQ PUSH2 0xEE6 JUMPI PUSH1 0x40 MLOAD SWAP2 POP PUSH1 0x1F NOT PUSH1 0x3F RETURNDATASIZE ADD AND DUP3 ADD PUSH1 0x40 MSTORE RETURNDATASIZE DUP3 MSTORE RETURNDATASIZE PUSH0 PUSH1 0x20 DUP5 ADD RETURNDATACOPY PUSH2 0xEEB JUMP JUMPDEST PUSH1 0x60 SWAP2 POP JUMPDEST POP POP DUP1 SWAP3 POP POP DUP2 PUSH2 0xF31 JUMPI PUSH1 0x40 MLOAD PUSH32 0x8C379A000000000000000000000000000000000000000000000000000000000 DUP2 MSTORE PUSH1 0x4 ADD PUSH2 0xF28 SWAP1 PUSH2 0x3FEC JUMP JUMPDEST PUSH1 0x40 MLOAD DUP1 SWAP2 SUB SWAP1 REVERT JUMPDEST PUSH0 DUP1 PUSH32 0xBF552E6E0A367F565CA7B394EBA25A2010479EDA0873B6FC1B4CE9F00E7085A6 DUP2 MSTORE PUSH1 0x20 ADD SWAP1 DUP2 MSTORE PUSH1 0x20 ADD PUSH0 KECCAK256 PUSH0 SWAP1 SLOAD SWAP1 PUSH2 0x100 EXP SWAP1 DIV PUSH20 0xFFFFFFFFFFFFFFFFFFFFFFFFFFFFFFFFFFFFFFFF AND PUSH20 0xFFFFFFFFFFFFFFFFFFFFFFFFFFFFFFFFFFFFFFFF AND DUP6 PUSH1 0xA0 ADD CALLDATALOAD PUSH1 0x40 MLOAD PUSH2 0xFA8 SWAP1 PUSH2 0x3F8E JUMP JUMPDEST PUSH0 PUSH1 0x40 MLOAD DUP1 DUP4 SUB DUP2 DUP6 DUP8 GAS CALL SWAP3 POP POP POP RETURNDATASIZE DUP1 PUSH0 DUP2 EQ PUSH2 0xFE2 JUMPI PUSH1 0x40 MLOAD SWAP2 POP PUSH1 0x1F NOT PUSH1 0x3F RETURNDATASIZE ADD AND DUP3 ADD PUSH1 0x40 MSTORE RETURNDATASIZE DUP3 MSTORE RETURNDATASIZE PUSH0 PUSH1 0x20 DUP5 ADD RETURNDATACOPY PUSH2 0xFE7 JUMP JUMPDEST PUSH1 0x60 SWAP2 POP JUMPDEST POP POP DUP1 SWAP3 POP POP DUP2 PUSH2 0x102D JUMPI PUSH1 0x40 MLOAD PUSH32 0x8C379A000000000000000000000000000000000000000000000000000000000 DUP2 MSTORE PUSH1 0x4 ADD PUSH2 0x1024 SWAP1 PUSH2 0x4054 JUMP JUMPDEST PUSH1 0x40 MLOAD DUP1 SWAP2 SUB SWAP1 REVERT JUMPDEST PUSH32 0x21A8F676B027BD5C29778D376FB1EC3337E5119DA42EA969759F3187F4CDFBC DUP6 PUSH1 0x40 MLOAD PUSH2 0x105C SWAP2 SWAP1 PUSH2 0x4180 JUMP JUMPDEST PUSH1 0x40 MLOAD DUP1 SWAP2 SUB SWAP1 LOG1 POP SWAP4 SWAP3 POP POP POP JUMP JUMPDEST PUSH0 DUP1 PUSH2 0x1076 PUSH2 0x1FEF JUMP JUMPDEST SWAP1 POP DUP1 PUSH0 ADD PUSH0 DUP5 DUP2 MSTORE PUSH1 0x20 ADD SWAP1 DUP2 MSTORE PUSH1 0x20 ADD PUSH0 KECCAK256 PUSH1 0x1 ADD SLOAD SWAP2 POP POP SWAP2 SWAP1 POP JUMP JUMPDEST PUSH32 0x5C9F8A1F8085E87C1CD1DBD0FC499F4B22698A6DFB10C34AEC0AA3E50FE0D6FF DUP2 JUMP JUMPDEST PUSH0 PUSH32 0x5C9F8A1F8085E87C1CD1DBD0FC499F4B22698A6DFB10C34AEC0AA3E50FE0D6FF PUSH2 0x10E5 DUP2 PUSH2 0x1BAC JUMP JUMPDEST PUSH0 DUP4 PUSH1 0x80 ADD CALLDATALOAD DUP5 PUSH1 0x60 ADD CALLDATALOAD PUSH2 0x10FA SWAP2 SWAP1 PUSH2 0x3D0B JUMP JUMPDEST SWAP1 POP PUSH0 PUSH20 0xFFFFFFFFFFFFFFFFFFFFFFFFFFFFFFFFFFFFFFFF AND DUP5 PUSH1 0x20 ADD PUSH1 0x20 DUP2 ADD SWAP1 PUSH2 0x1126 SWAP2 SWAP1 PUSH2 0x3B7B JUMP JUMPDEST PUSH20 0xFFFFFFFFFFFFFFFFFFFFFFFFFFFFFFFFFFFFFFFF AND SUB PUSH2 0x1158 JUMPI DUP4 PUSH1 0x40 ADD CALLDATALOAD DUP2 PUSH2 0x1151 SWAP2 SWAP1 PUSH2 0x3E68 JUMP JUMPDEST SWAP1 POP PUSH2 0x123D JUMP JUMPDEST DUP4 PUSH1 0x20 ADD PUSH1 0x20 DUP2 ADD SWAP1 PUSH2 0x116B SWAP2 SWAP1 PUSH2 0x3B7B JUMP JUMPDEST PUSH20 0xFFFFFFFFFFFFFFFFFFFFFFFFFFFFFFFFFFFFFFFF AND PUSH4 0xA9059CBB DUP6 PUSH0 ADD PUSH1 0x20 DUP2 ADD SWAP1 PUSH2 0x1198 SWAP2 SWAP1 PUSH2 0x3B7B JUMP JUMPDEST DUP7 PUSH1 0x40 ADD CALLDATALOAD PUSH1 0x40 MLOAD DUP4 PUSH4 0xFFFFFFFF AND PUSH1 0xE0 SHL DUP2 MSTORE PUSH1 0x4 ADD PUSH2 0x11BA SWAP3 SWAP2 SWAP1 PUSH2 0x4199 JUMP JUMPDEST PUSH1 0x20 PUSH1 0x40 MLOAD DUP1 DUP4 SUB DUP2 PUSH0 DUP8 GAS CALL ISZERO DUP1 ISZERO PUSH2 0x11D6 JUMPI RETURNDATASIZE PUSH0 DUP1 RETURNDATACOPY RETURNDATASIZE PUSH0 REVERT JUMPDEST POP POP POP POP PUSH1 0x40 MLOAD RETURNDATASIZE PUSH1 0x1F NOT PUSH1 0x1F DUP3 ADD AND DUP3 ADD DUP1 PUSH1 0x40 MSTORE POP DUP2 ADD SWAP1 PUSH2 0x11FA SWAP2 SWAP1 PUSH2 0x3DD5 JUMP JUMPDEST SWAP3 POP DUP3 PUSH2 0x123C JUMPI PUSH1 0x40 MLOAD PUSH32 0x8C379A000000000000000000000000000000000000000000000000000000000 DUP2 MSTORE PUSH1 0x4 ADD PUSH2 0x1233 SWAP1 PUSH2 0x3E4A JUMP JUMPDEST PUSH1 0x40 MLOAD DUP1 SWAP2 SUB SWAP1 REVERT JUMPDEST JUMPDEST DUP4 PUSH0 ADD PUSH1 0x20 DUP2 ADD SWAP1 PUSH2 0x124F SWAP2 SWAP1 PUSH2 0x3B7B JUMP JUMPDEST PUSH20 0xFFFFFFFFFFFFFFFFFFFFFFFFFFFFFFFFFFFFFFFF AND DUP2 PUSH1 0x40 MLOAD PUSH2 0x1272 SWAP1 PUSH2 0x3F8E JUMP JUMPDEST PUSH0 PUSH1 0x40 MLOAD DUP1 DUP4 SUB DUP2 DUP6 DUP8 GAS CALL SWAP3 POP POP POP RETURNDATASIZE DUP1 PUSH0 DUP2 EQ PUSH2 0x12AC JUMPI PUSH1 0x40 MLOAD SWAP2 POP PUSH1 0x1F NOT PUSH1 0x3F RETURNDATASIZE ADD AND DUP3 ADD PUSH1 0x40 MSTORE RETURNDATASIZE DUP3 MSTORE RETURNDATASIZE PUSH0 PUSH1 0x20 DUP5 ADD RETURNDATACOPY PUSH2 0x12B1 JUMP JUMPDEST PUSH1 0x60 SWAP2 POP JUMPDEST POP POP DUP1 SWAP4 POP POP DUP3 PUSH2 0x12F7 JUMPI PUSH1 0x40 MLOAD PUSH32 0x8C379A000000000000000000000000000000000000000000000000000000000 DUP2 MSTORE PUSH1 0x4 ADD PUSH2 0x12EE SWAP1 PUSH2 0x420A JUMP JUMPDEST PUSH1 0x40 MLOAD DUP1 SWAP2 SUB SWAP1 REVERT JUMPDEST DUP5 PUSH32 0xE2CA2BF72BB8A110D86FE26850E80122EE62F39C11C263696106FB0BCEBBC944 DUP6 PUSH1 0x80 ADD CALLDATALOAD DUP7 PUSH1 0x40 MLOAD PUSH2 0x132D SWAP3 SWAP2 SWAP1 PUSH2 0x42B6 JUMP JUMPDEST PUSH1 0x40 MLOAD DUP1 SWAP2 SUB SWAP1 LOG2 POP POP SWAP3 SWAP2 POP POP JUMP JUMPDEST PUSH32 0x3519CF5AEB70DA6112075D724F8FF68482F701927DF8EB30D337663E095ECE05 DUP2 JUMP JUMPDEST PUSH2 0x136A DUP3 PUSH2 0x106C JUMP JUMPDEST PUSH2 0x1373 DUP2 PUSH2 0x1BAC JUMP JUMPDEST PUSH2 0x137D DUP4 DUP4 PUSH2 0x2016 JUMP JUMPDEST POP POP POP POP JUMP JUMPDEST PUSH2 0x138B PUSH2 0x210E JUMP JUMPDEST PUSH20 0xFFFFFFFFFFFFFFFFFFFFFFFFFFFFFFFFFFFFFFFF AND DUP2 PUSH20 0xFFFFFFFFFFFFFFFFFFFFFFFFFFFFFFFFFFFFFFFF AND EQ PUSH2 0x13EF JUMPI PUSH1 0x40 MLOAD PUSH32 0x6697B23200000000000000000000000000000000000000000000000000000000 DUP2 MSTORE PUSH1 0x4 ADD PUSH1 0x40 MLOAD DUP1 SWAP2 SUB SWAP1 REVERT JUMPDEST PUSH2 0x13F9 DUP3 DUP3 PUSH2 0x2115 JUMP JUMPDEST POP POP POP JUMP JUMPDEST PUSH2 0x1406 PUSH2 0x220D JUMP JUMPDEST PUSH2 0x140F DUP3 PUSH2 0x22F3 JUMP JUMPDEST PUSH2 0x1419 DUP3 DUP3 PUSH2 0x2303 JUMP JUMPDEST POP POP JUMP JUMPDEST PUSH32 0x19E84AF850D308F83CAFC054CED962BF340369700532ABE13C64A9B9176DAFCC DUP2 JUMP JUMPDEST PUSH32 0x7D4C95EBF98B3D0730A4B295F90CCF54047E768470D7C5E21916C87CD29A3249 PUSH2 0x146B DUP2 PUSH2 0x1BAC JUMP JUMPDEST DUP2 PUSH0 DUP1 DUP6 DUP2 MSTORE PUSH1 0x20 ADD SWAP1 DUP2 MSTORE PUSH1 0x20 ADD PUSH0 KECCAK256 PUSH0 PUSH2 0x100 EXP DUP2 SLOAD DUP2 PUSH20 0xFFFFFFFFFFFFFFFFFFFFFFFFFFFFFFFFFFFFFFFF MUL NOT AND SWAP1 DUP4 PUSH20 0xFFFFFFFFFFFFFFFFFFFFFFFFFFFFFFFFFFFFFFFF AND MUL OR SWAP1 SSTORE POP POP POP POP JUMP JUMPDEST PUSH0 PUSH2 0x14C7 PUSH2 0x2421 JUMP JUMPDEST PUSH32 0x360894A13BA1A3210667C828492DB98DCA3E2076CC3735A920A3CA505D382BBC PUSH0 SHL SWAP1 POP SWAP1 JUMP JUMPDEST PUSH32 0x88293327F82DEEEFE2207F437BFA0859226C07C40EBC93DADA7DADC53ECFBB1D DUP2 JUMP JUMPDEST PUSH32 0x5C9F8A1F8085E87C1CD1DBD0FC499F4B22698A6DFB10C34AEC0AA3E50FE0D6FF PUSH2 0x153D DUP2 PUSH2 0x1BAC JUMP JUMPDEST DUP2 PUSH1 0x1 PUSH0 PUSH2 0x100 EXP DUP2 SLOAD DUP2 PUSH1 0xFF MUL NOT AND SWAP1 DUP4 ISZERO ISZERO MUL OR SWAP1 SSTORE POP POP POP JUMP JUMPDEST PUSH0 PUSH2 0x1563 PUSH2 0x24A8 JUMP JUMPDEST SWAP1 POP PUSH0 DUP2 PUSH0 ADD PUSH1 0x8 SWAP1 SLOAD SWAP1 PUSH2 0x100 EXP SWAP1 DIV PUSH1 0xFF AND ISZERO SWAP1 POP PUSH0 DUP3 PUSH0 ADD PUSH0 SWAP1 SLOAD SWAP1 PUSH2 0x100 EXP SWAP1 DIV PUSH8 0xFFFFFFFFFFFFFFFF AND SWAP1 POP PUSH0 DUP1 DUP3 PUSH8 0xFFFFFFFFFFFFFFFF AND EQ DUP1 ISZERO PUSH2 0x15AB JUMPI POP DUP3 JUMPDEST SWAP1 POP PUSH0 PUSH1 0x1 DUP4 PUSH8 0xFFFFFFFFFFFFFFFF AND EQ DUP1 ISZERO PUSH2 0x15DE JUMPI POP PUSH0 ADDRESS PUSH20 0xFFFFFFFFFFFFFFFFFFFFFFFFFFFFFFFFFFFFFFFF AND EXTCODESIZE EQ JUMPDEST SWAP1 POP DUP2 ISZERO DUP1 ISZERO PUSH2 0x15EC JUMPI POP DUP1 ISZERO JUMPDEST ISZERO PUSH2 0x1623 JUMPI PUSH1 0x40 MLOAD PUSH32 0xF92EE8A900000000000000000000000000000000000000000000000000000000 DUP2 MSTORE PUSH1 0x4 ADD PUSH1 0x40 MLOAD DUP1 SWAP2 SUB SWAP1 REVERT JUMPDEST PUSH1 0x1 DUP6 PUSH0 ADD PUSH0 PUSH2 0x100 EXP DUP2 SLOAD DUP2 PUSH8 0xFFFFFFFFFFFFFFFF MUL NOT AND SWAP1 DUP4 PUSH8 0xFFFFFFFFFFFFFFFF AND MUL OR SWAP1 SSTORE POP DUP4 ISZERO PUSH2 0x1670 JUMPI PUSH1 0x1 DUP6 PUSH0 ADD PUSH1 0x8 PUSH2 0x100 EXP DUP2 SLOAD DUP2 PUSH1 0xFF MUL NOT AND SWAP1 DUP4 ISZERO ISZERO MUL OR SWAP1 SSTORE POP JUMPDEST PUSH2 0x167C PUSH0 DUP1 SHL CALLER PUSH2 0x2016 JUMP JUMPDEST POP DUP4 ISZERO PUSH2 0x16D7 JUMPI PUSH0 DUP6 PUSH0 ADD PUSH1 0x8 PUSH2 0x100 EXP DUP2 SLOAD DUP2 PUSH1 0xFF MUL NOT AND SWAP1 DUP4 ISZERO ISZERO MUL OR SWAP1 SSTORE POP PUSH32 0xC7F505B2F371AE2175EE4913F4499E1F2633A7B5936321EED1CDAEB6115181D2 PUSH1 0x1 PUSH1 0x40 MLOAD PUSH2 0x16CE SWAP2 SWAP1 PUSH2 0x431F JUMP JUMPDEST PUSH1 0x40 MLOAD DUP1 SWAP2 SUB SWAP1 LOG1 JUMPDEST POP POP POP POP POP JUMP JUMPDEST PUSH0 DUP1 PUSH2 0x16E8 PUSH2 0x1FEF JUMP JUMPDEST SWAP1 POP DUP1 PUSH0 ADD PUSH0 DUP6 DUP2 MSTORE PUSH1 0x20 ADD SWAP1 DUP2 MSTORE PUSH1 0x20 ADD PUSH0 KECCAK256 PUSH0 ADD PUSH0 DUP5 PUSH20 0xFFFFFFFFFFFFFFFFFFFFFFFFFFFFFFFFFFFFFFFF AND PUSH20 0xFFFFFFFFFFFFFFFFFFFFFFFFFFFFFFFFFFFFFFFF AND DUP2 MSTORE PUSH1 0x20 ADD SWAP1 DUP2 MSTORE PUSH1 0x20 ADD PUSH0 KECCAK256 PUSH0 SWAP1 SLOAD SWAP1 PUSH2 0x100 EXP SWAP1 DIV PUSH1 0xFF AND SWAP2 POP POP SWAP3 SWAP2 POP POP JUMP JUMPDEST PUSH0 DUP1 SHL DUP2 JUMP JUMPDEST PUSH1 0x1 PUSH0 SWAP1 SLOAD SWAP1 PUSH2 0x100 EXP SWAP1 DIV PUSH1 0xFF AND DUP2 JUMP JUMPDEST PUSH0 PUSH32 0x5C9F8A1F8085E87C1CD1DBD0FC499F4B22698A6DFB10C34AEC0AA3E50FE0D6FF PUSH2 0x1792 DUP2 PUSH2 0x1BAC JUMP JUMPDEST PUSH0 DUP4 DUP1 PUSH0 ADD SWAP1 PUSH2 0x17A2 SWAP2 SWAP1 PUSH2 0x4344 JUMP JUMPDEST SWAP1 POP GT PUSH2 0x17E4 JUMPI PUSH1 0x40 MLOAD PUSH32 0x8C379A000000000000000000000000000000000000000000000000000000000 DUP2 MSTORE PUSH1 0x4 ADD PUSH2 0x17DB SWAP1 PUSH2 0x43F0 JUMP JUMPDEST PUSH1 0x40 MLOAD DUP1 SWAP2 SUB SWAP1 REVERT JUMPDEST PUSH2 0x17ED DUP4 PUSH2 0x24CF JUMP JUMPDEST POP PUSH1 0x1 SWAP2 POP POP SWAP2 SWAP1 POP JUMP JUMPDEST PUSH1 0x40 MLOAD DUP1 PUSH1 0x40 ADD PUSH1 0x40 MSTORE DUP1 PUSH1 0x5 DUP2 MSTORE PUSH1 0x20 ADD PUSH32 0x352E302E30000000000000000000000000000000000000000000000000000000 DUP2 MSTORE POP DUP2 JUMP JUMPDEST PUSH32 0x9C7ABE1CC344A0C822ED019AA7E0C3C247359AA68F7DD45424189F65D496D679 DUP2 JUMP JUMPDEST PUSH0 PUSH32 0x5C9F8A1F8085E87C1CD1DBD0FC499F4B22698A6DFB10C34AEC0AA3E50FE0D6FF PUSH2 0x1880 DUP2 PUSH2 0x1BAC JUMP JUMPDEST PUSH0 JUMPDEST DUP5 DUP5 SWAP1 POP DUP2 LT ISZERO PUSH2 0x19E1 JUMPI PUSH0 DUP1 DUP7 DUP7 DUP5 DUP2 DUP2 LT PUSH2 0x18A2 JUMPI PUSH2 0x18A1 PUSH2 0x440E JUMP JUMPDEST JUMPDEST SWAP1 POP PUSH1 0x20 MUL DUP2 ADD SWAP1 PUSH2 0x18B4 SWAP2 SWAP1 PUSH2 0x443B JUMP JUMPDEST PUSH0 ADD PUSH1 0x20 DUP2 ADD SWAP1 PUSH2 0x18C5 SWAP2 SWAP1 PUSH2 0x3B7B JUMP JUMPDEST PUSH20 0xFFFFFFFFFFFFFFFFFFFFFFFFFFFFFFFFFFFFFFFF AND DUP8 DUP8 DUP6 DUP2 DUP2 LT PUSH2 0x18EE JUMPI PUSH2 0x18ED PUSH2 0x440E JUMP JUMPDEST JUMPDEST SWAP1 POP PUSH1 0x20 MUL DUP2 ADD SWAP1 PUSH2 0x1900 SWAP2 SWAP1 PUSH2 0x443B JUMP JUMPDEST PUSH1 0x20 ADD CALLDATALOAD DUP9 DUP9 DUP7 DUP2 DUP2 LT PUSH2 0x1917 JUMPI PUSH2 0x1916 PUSH2 0x440E JUMP JUMPDEST JUMPDEST SWAP1 POP PUSH1 0x20 MUL DUP2 ADD SWAP1 PUSH2 0x1929 SWAP2 SWAP1 PUSH2 0x443B JUMP JUMPDEST DUP1 PUSH1 0x40 ADD SWAP1 PUSH2 0x1938 SWAP2 SWAP1 PUSH2 0x4462 JUMP JUMPDEST PUSH1 0x40 MLOAD PUSH2 0x1946 SWAP3 SWAP2 SWAP1 PUSH2 0x44E8 JUMP JUMPDEST PUSH0 PUSH1 0x40 MLOAD DUP1 DUP4 SUB DUP2 DUP6 DUP8 GAS CALL SWAP3 POP POP POP RETURNDATASIZE DUP1 PUSH0 DUP2 EQ PUSH2 0x1980 JUMPI PUSH1 0x40 MLOAD SWAP2 POP PUSH1 0x1F NOT PUSH1 0x3F RETURNDATASIZE ADD AND DUP3 ADD PUSH1 0x40 MSTORE RETURNDATASIZE DUP3 MSTORE RETURNDATASIZE PUSH0 PUSH1 0x20 DUP5 ADD RETURNDATACOPY PUSH2 0x1985 JUMP JUMPDEST PUSH1 0x60 SWAP2 POP JUMPDEST POP SWAP2 POP SWAP2 POP DUP2 PUSH2 0x19CC JUMPI DUP1 PUSH1 0x40 MLOAD PUSH32 0x2B73BBCA00000000000000000000000000000000000000000000000000000000 DUP2 MSTORE PUSH1 0x4 ADD PUSH2 0x19C3 SWAP2 SWAP1 PUSH2 0x3A8B JUMP JUMPDEST PUSH1 0x40 MLOAD DUP1 SWAP2 SUB SWAP1 REVERT JUMPDEST POP POP DUP1 DUP1 PUSH2 0x19D9 SWAP1 PUSH2 0x4500 JUMP JUMPDEST SWAP2 POP POP PUSH2 0x1882 JUMP JUMPDEST POP PUSH1 0x1 SWAP2 POP POP SWAP3 SWAP2 POP POP JUMP JUMPDEST PUSH0 PUSH32 0x5C9F8A1F8085E87C1CD1DBD0FC499F4B22698A6DFB10C34AEC0AA3E50FE0D6FF PUSH2 0x1A18 DUP2 PUSH2 0x1BAC JUMP JUMPDEST PUSH0 DUP5 DUP1 PUSH0 ADD SWAP1 PUSH2 0x1A28 SWAP2 SWAP1 PUSH2 0x4344 JUMP JUMPDEST SWAP1 POP GT PUSH2 0x1A6A JUMPI PUSH1 0x40 MLOAD PUSH32 0x8C379A000000000000000000000000000000000000000000000000000000000 DUP2 MSTORE PUSH1 0x4 ADD PUSH2 0x1A61 SWAP1 PUSH2 0x43F0 JUMP JUMPDEST PUSH1 0x40 MLOAD DUP1 SWAP2 SUB SWAP1 REVERT JUMPDEST PUSH2 0x1A73 DUP5 PUSH2 0x24CF JUMP JUMPDEST POP PUSH2 0x1A7D DUP4 PUSH2 0x1BC0 JUMP JUMPDEST SWAP2 POP POP SWAP3 SWAP2 POP POP JUMP JUMPDEST PUSH2 0x1A8F DUP3 PUSH2 0x106C JUMP JUMPDEST PUSH2 0x1A98 DUP2 PUSH2 0x1BAC JUMP JUMPDEST PUSH2 0x1AA2 DUP4 DUP4 PUSH2 0x2115 JUMP JUMPDEST POP POP POP POP JUMP JUMPDEST PUSH32 0x91252170D30EBDF6E8CEA4292A8E5081A5C77E065AA855C856AF6F3DD1F2F7BA DUP2 JUMP JUMPDEST PUSH32 0xBF552E6E0A367F565CA7B394EBA25A2010479EDA0873B6FC1B4CE9F00E7085A6 DUP2 JUMP JUMPDEST PUSH0 PUSH1 0x20 MSTORE DUP1 PUSH0 MSTORE PUSH1 0x40 PUSH0 KECCAK256 PUSH0 SWAP2 POP SLOAD SWAP1 PUSH2 0x100 EXP SWAP1 DIV PUSH20 0xFFFFFFFFFFFFFFFFFFFFFFFFFFFFFFFFFFFFFFFF AND DUP2 JUMP JUMPDEST PUSH32 0x7D4C95EBF98B3D0730A4B295F90CCF54047E768470D7C5E21916C87CD29A3249 DUP2 JUMP JUMPDEST PUSH0 PUSH32 0x1FFC9A700000000000000000000000000000000000000000000000000000000 PUSH28 0xFFFFFFFFFFFFFFFFFFFFFFFFFFFFFFFFFFFFFFFFFFFFFFFFFFFFFFFF NOT AND DUP3 PUSH28 0xFFFFFFFFFFFFFFFFFFFFFFFFFFFFFFFFFFFFFFFFFFFFFFFFFFFFFFFF NOT AND EQ SWAP1 POP SWAP2 SWAP1 POP JUMP JUMPDEST PUSH2 0x1BBD DUP2 PUSH2 0x1BB8 PUSH2 0x210E JUMP JUMPDEST PUSH2 0x28A4 JUMP JUMPDEST POP JUMP JUMPDEST PUSH0 PUSH2 0x1C24 DUP3 PUSH2 0x100 ADD MLOAD PUSH0 DUP1 PUSH32 0x88293327F82DEEEFE2207F437BFA0859226C07C40EBC93DADA7DADC53ECFBB1D DUP2 MSTORE PUSH1 0x20 ADD SWAP1 DUP2 MSTORE PUSH1 0x20 ADD PUSH0 KECCAK256 PUSH0 SWAP1 SLOAD SWAP1 PUSH2 0x100 EXP SWAP1 DIV PUSH20 0xFFFFFFFFFFFFFFFFFFFFFFFFFFFFFFFFFFFFFFFF AND DUP5 PUSH1 0xC0 ADD MLOAD PUSH2 0x1CEC JUMP JUMPDEST PUSH0 DUP1 PUSH32 0x88293327F82DEEEFE2207F437BFA0859226C07C40EBC93DADA7DADC53ECFBB1D DUP2 MSTORE PUSH1 0x20 ADD SWAP1 DUP2 MSTORE PUSH1 0x20 ADD PUSH0 KECCAK256 PUSH0 SWAP1 SLOAD SWAP1 PUSH2 0x100 EXP SWAP1 DIV PUSH20 0xFFFFFFFFFFFFFFFFFFFFFFFFFFFFFFFFFFFFFFFF AND PUSH20 0xFFFFFFFFFFFFFFFFFFFFFFFFFFFFFFFFFFFFFFFF AND PUSH4 0x6B0E54E1 DUP4 PUSH1 0x80 ADD MLOAD PUSH1 0x20 ADD MLOAD DUP5 PUSH1 0x40 MLOAD DUP4 PUSH4 0xFFFFFFFF AND PUSH1 0xE0 SHL DUP2 MSTORE PUSH1 0x4 ADD PUSH2 0x1CB5 SWAP2 SWAP1 PUSH2 0x46DD JUMP JUMPDEST PUSH0 PUSH1 0x40 MLOAD DUP1 DUP4 SUB DUP2 DUP6 DUP9 DUP1 EXTCODESIZE ISZERO DUP1 ISZERO PUSH2 0x1CCC JUMPI PUSH0 DUP1 REVERT JUMPDEST POP GAS CALL ISZERO DUP1 ISZERO PUSH2 0x1CDE JUMPI RETURNDATASIZE PUSH0 DUP1 RETURNDATACOPY RETURNDATASIZE PUSH0 REVERT JUMPDEST POP POP POP POP POP PUSH1 0x1 SWAP1 POP SWAP2 SWAP1 POP JUMP JUMPDEST PUSH0 PUSH20 0xFFFFFFFFFFFFFFFFFFFFFFFFFFFFFFFFFFFFFFFF AND DUP3 PUSH20 0xFFFFFFFFFFFFFFFFFFFFFFFFFFFFFFFFFFFFFFFF AND SUB PUSH2 0x1D5A JUMPI PUSH1 0x40 MLOAD PUSH32 0x8C379A000000000000000000000000000000000000000000000000000000000 DUP2 MSTORE PUSH1 0x4 ADD PUSH2 0x1D51 SWAP1 PUSH2 0x4747 JUMP JUMPDEST PUSH1 0x40 MLOAD DUP1 SWAP2 SUB SWAP1 REVERT JUMPDEST PUSH0 PUSH20 0xFFFFFFFFFFFFFFFFFFFFFFFFFFFFFFFFFFFFFFFF AND DUP4 PUSH20 0xFFFFFFFFFFFFFFFFFFFFFFFFFFFFFFFFFFFFFFFF AND SUB ISZERO PUSH2 0x1EF0 JUMPI DUP1 DUP4 PUSH20 0xFFFFFFFFFFFFFFFFFFFFFFFFFFFFFFFFFFFFFFFF AND PUSH4 0xDD62ED3E ADDRESS DUP6 PUSH1 0x40 MLOAD DUP4 PUSH4 0xFFFFFFFF AND PUSH1 0xE0 SHL DUP2 MSTORE PUSH1 0x4 ADD PUSH2 0x1DCA SWAP3 SWAP2 SWAP1 PUSH2 0x4765 JUMP JUMPDEST PUSH1 0x20 PUSH1 0x40 MLOAD DUP1 DUP4 SUB DUP2 DUP7 GAS STATICCALL ISZERO DUP1 ISZERO PUSH2 0x1DE5 JUMPI RETURNDATASIZE PUSH0 DUP1 RETURNDATACOPY RETURNDATASIZE PUSH0 REVERT JUMPDEST POP POP POP POP PUSH1 0x40 MLOAD RETURNDATASIZE PUSH1 0x1F NOT PUSH1 0x1F DUP3 ADD AND DUP3 ADD DUP1 PUSH1 0x40 MSTORE POP DUP2 ADD SWAP1 PUSH2 0x1E09 SWAP2 SWAP1 PUSH2 0x3D52 JUMP JUMPDEST LT ISZERO PUSH2 0x1EEF JUMPI PUSH0 DUP4 PUSH20 0xFFFFFFFFFFFFFFFFFFFFFFFFFFFFFFFFFFFFFFFF AND PUSH4 0x95EA7B3 DUP5 PUSH32 0xFFFFFFFFFFFFFFFFFFFFFFFFFFFFFFFFFFFFFFFFFFFFFFFFFFFFFFFFFFFFFFFF PUSH1 0x40 MLOAD DUP4 PUSH4 0xFFFFFFFF AND PUSH1 0xE0 SHL DUP2 MSTORE PUSH1 0x4 ADD PUSH2 0x1E6B SWAP3 SWAP2 SWAP1 PUSH2 0x4199 JUMP JUMPDEST PUSH1 0x20 PUSH1 0x40 MLOAD DUP1 DUP4 SUB DUP2 PUSH0 DUP8 GAS CALL ISZERO DUP1 ISZERO PUSH2 0x1E87 JUMPI RETURNDATASIZE PUSH0 DUP1 RETURNDATACOPY RETURNDATASIZE PUSH0 REVERT JUMPDEST POP POP POP POP PUSH1 0x40 MLOAD RETURNDATASIZE PUSH1 0x1F NOT PUSH1 0x1F DUP3 ADD AND DUP3 ADD DUP1 PUSH1 0x40 MSTORE POP DUP2 ADD SWAP1 PUSH2 0x1EAB SWAP2 SWAP1 PUSH2 0x3DD5 JUMP JUMPDEST SWAP1 POP DUP1 PUSH2 0x1EED JUMPI PUSH1 0x40 MLOAD PUSH32 0x8C379A000000000000000000000000000000000000000000000000000000000 DUP2 MSTORE PUSH1 0x4 ADD PUSH2 0x1EE4 SWAP1 PUSH2 0x47D6 JUMP JUMPDEST PUSH1 0x40 MLOAD DUP1 SWAP2 SUB SWAP1 REVERT JUMPDEST POP JUMPDEST JUMPDEST POP POP POP JUMP JUMPDEST PUSH1 0x60 DUP2 PUSH0 ADD CALLDATALOAD DUP3 PUSH1 0x20 ADD PUSH1 0x20 DUP2 ADD SWAP1 PUSH2 0x1F0E SWAP2 SWAP1 PUSH2 0x3B7B JUMP JUMPDEST DUP4 PUSH1 0x40 ADD PUSH1 0x20 DUP2 ADD SWAP1 PUSH2 0x1F21 SWAP2 SWAP1 PUSH2 0x3B7B JUMP JUMPDEST DUP5 PUSH1 0x60 ADD CALLDATALOAD DUP6 PUSH1 0x80 ADD CALLDATALOAD DUP7 PUSH1 0xA0 ADD CALLDATALOAD DUP8 PUSH1 0xC0 ADD CALLDATALOAD PUSH1 0x40 MLOAD PUSH1 0x20 ADD PUSH2 0x1F4B SWAP8 SWAP7 SWAP6 SWAP5 SWAP4 SWAP3 SWAP2 SWAP1 PUSH2 0x4859 JUMP JUMPDEST PUSH1 0x40 MLOAD PUSH1 0x20 DUP2 DUP4 SUB SUB DUP2 MSTORE SWAP1 PUSH1 0x40 MSTORE SWAP1 POP SWAP2 SWAP1 POP JUMP JUMPDEST PUSH0 PUSH2 0x1FE5 DUP6 PUSH2 0x1FE0 DUP7 DUP1 MLOAD SWAP1 PUSH1 0x20 ADD KECCAK256 PUSH1 0x40 MLOAD PUSH1 0x20 ADD PUSH2 0x1F81 SWAP2 SWAP1 PUSH2 0x494D JUMP JUMPDEST PUSH1 0x40 MLOAD PUSH1 0x20 DUP2 DUP4 SUB SUB DUP2 MSTORE SWAP1 PUSH1 0x40 MSTORE DUP1 MLOAD SWAP1 PUSH1 0x20 ADD KECCAK256 DUP7 DUP7 DUP1 DUP1 PUSH1 0x1F ADD PUSH1 0x20 DUP1 SWAP2 DIV MUL PUSH1 0x20 ADD PUSH1 0x40 MLOAD SWAP1 DUP2 ADD PUSH1 0x40 MSTORE DUP1 SWAP4 SWAP3 SWAP2 SWAP1 DUP2 DUP2 MSTORE PUSH1 0x20 ADD DUP4 DUP4 DUP1 DUP3 DUP5 CALLDATACOPY PUSH0 DUP2 DUP5 ADD MSTORE PUSH1 0x1F NOT PUSH1 0x1F DUP3 ADD AND SWAP1 POP DUP1 DUP4 ADD SWAP3 POP POP POP POP POP POP POP PUSH2 0x28F5 JUMP JUMPDEST PUSH2 0x16DE JUMP JUMPDEST SWAP1 POP SWAP5 SWAP4 POP POP POP POP JUMP JUMPDEST PUSH0 PUSH32 0x2DD7BC7DEC4DCEEDDA775E58DD541E08A116C6C53815C0BD028192F7B626800 SWAP1 POP SWAP1 JUMP JUMPDEST PUSH0 DUP1 PUSH2 0x2020 PUSH2 0x1FEF JUMP JUMPDEST SWAP1 POP PUSH2 0x202C DUP5 DUP5 PUSH2 0x16DE JUMP JUMPDEST PUSH2 0x2103 JUMPI PUSH1 0x1 DUP2 PUSH0 ADD PUSH0 DUP7 DUP2 MSTORE PUSH1 0x20 ADD SWAP1 DUP2 MSTORE PUSH1 0x20 ADD PUSH0 KECCAK256 PUSH0 ADD PUSH0 DUP6 PUSH20 0xFFFFFFFFFFFFFFFFFFFFFFFFFFFFFFFFFFFFFFFF AND PUSH20 0xFFFFFFFFFFFFFFFFFFFFFFFFFFFFFFFFFFFFFFFF AND DUP2 MSTORE PUSH1 0x20 ADD SWAP1 DUP2 MSTORE PUSH1 0x20 ADD PUSH0 KECCAK256 PUSH0 PUSH2 0x100 EXP DUP2 SLOAD DUP2 PUSH1 0xFF MUL NOT AND SWAP1 DUP4 ISZERO ISZERO MUL OR SWAP1 SSTORE POP PUSH2 0x209F PUSH2 0x210E JUMP JUMPDEST PUSH20 0xFFFFFFFFFFFFFFFFFFFFFFFFFFFFFFFFFFFFFFFF AND DUP4 PUSH20 0xFFFFFFFFFFFFFFFFFFFFFFFFFFFFFFFFFFFFFFFF AND DUP6 PUSH32 0x2F8788117E7EFF1D82E926EC794901D17C78024A50270940304540A733656F0D PUSH1 0x40 MLOAD PUSH1 0x40 MLOAD DUP1 SWAP2 SUB SWAP1 LOG4 PUSH1 0x1 SWAP2 POP POP PUSH2 0x2108 JUMP JUMPDEST PUSH0 SWAP2 POP POP JUMPDEST SWAP3 SWAP2 POP POP JUMP JUMPDEST PUSH0 CALLER SWAP1 POP SWAP1 JUMP JUMPDEST PUSH0 DUP1 PUSH2 0x211F PUSH2 0x1FEF JUMP JUMPDEST SWAP1 POP PUSH2 0x212B DUP5 DUP5 PUSH2 0x16DE JUMP JUMPDEST ISZERO PUSH2 0x2202 JUMPI PUSH0 DUP2 PUSH0 ADD PUSH0 DUP7 DUP2 MSTORE PUSH1 0x20 ADD SWAP1 DUP2 MSTORE PUSH1 0x20 ADD PUSH0 KECCAK256 PUSH0 ADD PUSH0 DUP6 PUSH20 0xFFFFFFFFFFFFFFFFFFFFFFFFFFFFFFFFFFFFFFFF AND PUSH20 0xFFFFFFFFFFFFFFFFFFFFFFFFFFFFFFFFFFFFFFFF AND DUP2 MSTORE PUSH1 0x20 ADD SWAP1 DUP2 MSTORE PUSH1 0x20 ADD PUSH0 KECCAK256 PUSH0 PUSH2 0x100 EXP DUP2 SLOAD DUP2 PUSH1 0xFF MUL NOT AND SWAP1 DUP4 ISZERO ISZERO MUL OR SWAP1 SSTORE POP PUSH2 0x219E PUSH2 0x210E JUMP JUMPDEST PUSH20 0xFFFFFFFFFFFFFFFFFFFFFFFFFFFFFFFFFFFFFFFF AND DUP4 PUSH20 0xFFFFFFFFFFFFFFFFFFFFFFFFFFFFFFFFFFFFFFFF AND DUP6 PUSH32 0xF6391F5C32D9C69D2A47EA670B442974B53935D1EDC7FD64EB21E047A839171B PUSH1 0x40 MLOAD PUSH1 0x40 MLOAD DUP1 SWAP2 SUB SWAP1 LOG4 PUSH1 0x1 SWAP2 POP POP PUSH2 0x2207 JUMP JUMPDEST PUSH0 SWAP2 POP POP JUMPDEST SWAP3 SWAP2 POP POP JUMP JUMPDEST PUSH32 0x0 PUSH20 0xFFFFFFFFFFFFFFFFFFFFFFFFFFFFFFFFFFFFFFFF AND ADDRESS PUSH20 0xFFFFFFFFFFFFFFFFFFFFFFFFFFFFFFFFFFFFFFFF AND EQ DUP1 PUSH2 0x22BA JUMPI POP PUSH32 0x0 PUSH20 0xFFFFFFFFFFFFFFFFFFFFFFFFFFFFFFFFFFFFFFFF AND PUSH2 0x22A1 PUSH2 0x291F JUMP JUMPDEST PUSH20 0xFFFFFFFFFFFFFFFFFFFFFFFFFFFFFFFFFFFFFFFF AND EQ ISZERO JUMPDEST ISZERO PUSH2 0x22F1 JUMPI PUSH1 0x40 MLOAD PUSH32 0xE07C8DBA00000000000000000000000000000000000000000000000000000000 DUP2 MSTORE PUSH1 0x4 ADD PUSH1 0x40 MLOAD DUP1 SWAP2 SUB SWAP1 REVERT JUMPDEST JUMP JUMPDEST PUSH0 DUP1 SHL PUSH2 0x22FF DUP2 PUSH2 0x1BAC JUMP JUMPDEST POP POP JUMP JUMPDEST DUP2 PUSH20 0xFFFFFFFFFFFFFFFFFFFFFFFFFFFFFFFFFFFFFFFF AND PUSH4 0x52D1902D PUSH1 0x40 MLOAD DUP2 PUSH4 0xFFFFFFFF AND PUSH1 0xE0 SHL DUP2 MSTORE PUSH1 0x4 ADD PUSH1 0x20 PUSH1 0x40 MLOAD DUP1 DUP4 SUB DUP2 DUP7 GAS STATICCALL SWAP3 POP POP POP DUP1 ISZERO PUSH2 0x236B JUMPI POP PUSH1 0x40 MLOAD RETURNDATASIZE PUSH1 0x1F NOT PUSH1 0x1F DUP3 ADD AND DUP3 ADD DUP1 PUSH1 0x40 MSTORE POP DUP2 ADD SWAP1 PUSH2 0x2368 SWAP2 SWAP1 PUSH2 0x4986 JUMP JUMPDEST PUSH1 0x1 JUMPDEST PUSH2 0x23AC JUMPI DUP2 PUSH1 0x40 MLOAD PUSH32 0x4C9C8CE300000000000000000000000000000000000000000000000000000000 DUP2 MSTORE PUSH1 0x4 ADD PUSH2 0x23A3 SWAP2 SWAP1 PUSH2 0x39D0 JUMP JUMPDEST PUSH1 0x40 MLOAD DUP1 SWAP2 SUB SWAP1 REVERT JUMPDEST PUSH32 0x360894A13BA1A3210667C828492DB98DCA3E2076CC3735A920A3CA505D382BBC PUSH0 SHL DUP2 EQ PUSH2 0x2412 JUMPI DUP1 PUSH1 0x40 MLOAD PUSH32 0xAA1D49A400000000000000000000000000000000000000000000000000000000 DUP2 MSTORE PUSH1 0x4 ADD PUSH2 0x2409 SWAP2 SWAP1 PUSH2 0x364A JUMP JUMPDEST PUSH1 0x40 MLOAD DUP1 SWAP2 SUB SWAP1 REVERT JUMPDEST PUSH2 0x241C DUP4 DUP4 PUSH2 0x2972 JUMP JUMPDEST POP POP POP JUMP JUMPDEST PUSH32 0x0 PUSH20 0xFFFFFFFFFFFFFFFFFFFFFFFFFFFFFFFFFFFFFFFF AND ADDRESS PUSH20 0xFFFFFFFFFFFFFFFFFFFFFFFFFFFFFFFFFFFFFFFF AND EQ PUSH2 0x24A6 JUMPI PUSH1 0x40 MLOAD PUSH32 0xE07C8DBA00000000000000000000000000000000000000000000000000000000 DUP2 MSTORE PUSH1 0x4 ADD PUSH1 0x40 MLOAD DUP1 SWAP2 SUB SWAP1 REVERT JUMPDEST JUMP JUMPDEST PUSH0 PUSH32 0xF0C57E16840DF040F15088DC2F81FE391C3923BEC73E23A9662EFC9C229C6A00 SWAP1 POP SWAP1 JUMP JUMPDEST PUSH0 DUP1 DUP3 DUP1 PUSH0 ADD SWAP1 PUSH2 0x24E0 SWAP2 SWAP1 PUSH2 0x4344 JUMP JUMPDEST PUSH1 0x1 DUP6 DUP1 PUSH0 ADD SWAP1 PUSH2 0x24F1 SWAP2 SWAP1 PUSH2 0x4344 JUMP JUMPDEST SWAP1 POP PUSH2 0x24FD SWAP2 SWAP1 PUSH2 0x3D0B JUMP JUMPDEST DUP2 DUP2 LT PUSH2 0x250D JUMPI PUSH2 0x250C PUSH2 0x440E JUMP JUMPDEST JUMPDEST SWAP1 POP PUSH1 0x20 MUL DUP2 ADD SWAP1 PUSH2 0x251F SWAP2 SWAP1 PUSH2 0x49B1 JUMP JUMPDEST PUSH1 0x80 ADD PUSH1 0x20 DUP2 ADD SWAP1 PUSH2 0x2531 SWAP2 SWAP1 PUSH2 0x3B7B JUMP JUMPDEST SWAP1 POP PUSH0 PUSH2 0x2550 DUP3 DUP6 PUSH1 0x20 ADD PUSH1 0x20 DUP2 ADD SWAP1 PUSH2 0x254B SWAP2 SWAP1 PUSH2 0x3B7B JUMP JUMPDEST PUSH2 0x29E4 JUMP JUMPDEST SWAP1 POP PUSH0 JUMPDEST DUP5 DUP1 PUSH0 ADD SWAP1 PUSH2 0x2563 SWAP2 SWAP1 PUSH2 0x4344 JUMP JUMPDEST SWAP1 POP DUP2 LT ISZERO PUSH2 0x282C JUMPI PUSH2 0x2632 DUP6 DUP1 PUSH0 ADD SWAP1 PUSH2 0x257E SWAP2 SWAP1 PUSH2 0x4344 JUMP JUMPDEST DUP4 DUP2 DUP2 LT PUSH2 0x258F JUMPI PUSH2 0x258E PUSH2 0x440E JUMP JUMPDEST JUMPDEST SWAP1 POP PUSH1 0x20 MUL DUP2 ADD SWAP1 PUSH2 0x25A1 SWAP2 SWAP1 PUSH2 0x49B1 JUMP JUMPDEST PUSH1 0x40 ADD PUSH1 0x20 DUP2 ADD SWAP1 PUSH2 0x25B3 SWAP2 SWAP1 PUSH2 0x3B7B JUMP JUMPDEST DUP7 DUP1 PUSH0 ADD SWAP1 PUSH2 0x25C2 SWAP2 SWAP1 PUSH2 0x4344 JUMP JUMPDEST DUP5 DUP2 DUP2 LT PUSH2 0x25D3 JUMPI PUSH2 0x25D2 PUSH2 0x440E JUMP JUMPDEST JUMPDEST SWAP1 POP PUSH1 0x20 MUL DUP2 ADD SWAP1 PUSH2 0x25E5 SWAP2 SWAP1 PUSH2 0x49B1 JUMP JUMPDEST PUSH1 0x20 ADD PUSH1 0x20 DUP2 ADD SWAP1 PUSH2 0x25F7 SWAP2 SWAP1 PUSH2 0x3B7B JUMP JUMPDEST DUP8 DUP1 PUSH0 ADD SWAP1 PUSH2 0x2606 SWAP2 SWAP1 PUSH2 0x4344 JUMP JUMPDEST DUP6 DUP2 DUP2 LT PUSH2 0x2617 JUMPI PUSH2 0x2616 PUSH2 0x440E JUMP JUMPDEST JUMPDEST SWAP1 POP PUSH1 0x20 MUL DUP2 ADD SWAP1 PUSH2 0x2629 SWAP2 SWAP1 PUSH2 0x49B1 JUMP JUMPDEST PUSH1 0x60 ADD CALLDATALOAD PUSH2 0x1CEC JUMP JUMPDEST PUSH0 DUP1 DUP7 DUP1 PUSH0 ADD SWAP1 PUSH2 0x2643 SWAP2 SWAP1 PUSH2 0x4344 JUMP JUMPDEST DUP5 DUP2 DUP2 LT PUSH2 0x2654 JUMPI PUSH2 0x2653 PUSH2 0x440E JUMP JUMPDEST JUMPDEST SWAP1 POP PUSH1 0x20 MUL DUP2 ADD SWAP1 PUSH2 0x2666 SWAP2 SWAP1 PUSH2 0x49B1 JUMP JUMPDEST PUSH0 ADD PUSH1 0x20 DUP2 ADD SWAP1 PUSH2 0x2677 SWAP2 SWAP1 PUSH2 0x3B7B JUMP JUMPDEST PUSH20 0xFFFFFFFFFFFFFFFFFFFFFFFFFFFFFFFFFFFFFFFF AND PUSH0 PUSH20 0xFFFFFFFFFFFFFFFFFFFFFFFFFFFFFFFFFFFFFFFF AND DUP9 DUP1 PUSH0 ADD SWAP1 PUSH2 0x26B3 SWAP2 SWAP1 PUSH2 0x4344 JUMP JUMPDEST DUP7 DUP2 DUP2 LT PUSH2 0x26C4 JUMPI PUSH2 0x26C3 PUSH2 0x440E JUMP JUMPDEST JUMPDEST SWAP1 POP PUSH1 0x20 MUL DUP2 ADD SWAP1 PUSH2 0x26D6 SWAP2 SWAP1 PUSH2 0x49B1 JUMP JUMPDEST PUSH1 0x40 ADD PUSH1 0x20 DUP2 ADD SWAP1 PUSH2 0x26E8 SWAP2 SWAP1 PUSH2 0x3B7B JUMP JUMPDEST PUSH20 0xFFFFFFFFFFFFFFFFFFFFFFFFFFFFFFFFFFFFFFFF AND EQ PUSH2 0x2709 JUMPI PUSH0 PUSH2 0x2740 JUMP JUMPDEST DUP8 DUP1 PUSH0 ADD SWAP1 PUSH2 0x2718 SWAP2 SWAP1 PUSH2 0x4344 JUMP JUMPDEST DUP6 DUP2 DUP2 LT PUSH2 0x2729 JUMPI PUSH2 0x2728 PUSH2 0x440E JUMP JUMPDEST JUMPDEST SWAP1 POP PUSH1 0x20 MUL DUP2 ADD SWAP1 PUSH2 0x273B SWAP2 SWAP1 PUSH2 0x49B1 JUMP JUMPDEST PUSH1 0x60 ADD CALLDATALOAD JUMPDEST DUP9 DUP1 PUSH0 ADD SWAP1 PUSH2 0x274F SWAP2 SWAP1 PUSH2 0x4344 JUMP JUMPDEST DUP7 DUP2 DUP2 LT PUSH2 0x2760 JUMPI PUSH2 0x275F PUSH2 0x440E JUMP JUMPDEST JUMPDEST SWAP1 POP PUSH1 0x20 MUL DUP2 ADD SWAP1 PUSH2 0x2772 SWAP2 SWAP1 PUSH2 0x49B1 JUMP JUMPDEST DUP1 PUSH1 0xA0 ADD SWAP1 PUSH2 0x2781 SWAP2 SWAP1 PUSH2 0x4462 JUMP JUMPDEST PUSH1 0x40 MLOAD PUSH2 0x278F SWAP3 SWAP2 SWAP1 PUSH2 0x44E8 JUMP JUMPDEST PUSH0 PUSH1 0x40 MLOAD DUP1 DUP4 SUB DUP2 DUP6 DUP8 GAS CALL SWAP3 POP POP POP RETURNDATASIZE DUP1 PUSH0 DUP2 EQ PUSH2 0x27C9 JUMPI PUSH1 0x40 MLOAD SWAP2 POP PUSH1 0x1F NOT PUSH1 0x3F RETURNDATASIZE ADD AND DUP3 ADD PUSH1 0x40 MSTORE RETURNDATASIZE DUP3 MSTORE RETURNDATASIZE PUSH0 PUSH1 0x20 DUP5 ADD RETURNDATACOPY PUSH2 0x27CE JUMP JUMPDEST PUSH1 0x60 SWAP2 POP JUMPDEST POP SWAP2 POP SWAP2 POP DUP2 PUSH2 0x2817 JUMPI DUP3 DUP2 PUSH1 0x40 MLOAD PUSH32 0x69BCAEBA00000000000000000000000000000000000000000000000000000000 DUP2 MSTORE PUSH1 0x4 ADD PUSH2 0x280E SWAP3 SWAP2 SWAP1 PUSH2 0x49D8 JUMP JUMPDEST PUSH1 0x40 MLOAD DUP1 SWAP2 SUB SWAP1 REVERT JUMPDEST POP POP DUP1 DUP1 PUSH2 0x2824 SWAP1 PUSH2 0x4500 JUMP JUMPDEST SWAP2 POP POP PUSH2 0x2554 JUMP JUMPDEST POP DUP1 PUSH2 0x284A DUP4 DUP7 PUSH1 0x20 ADD PUSH1 0x20 DUP2 ADD SWAP1 PUSH2 0x2845 SWAP2 SWAP1 PUSH2 0x3B7B JUMP JUMPDEST PUSH2 0x29E4 JUMP JUMPDEST PUSH2 0x2854 SWAP2 SWAP1 PUSH2 0x3D0B JUMP JUMPDEST SWAP3 POP DUP4 PUSH1 0x40 ADD CALLDATALOAD DUP4 LT ISZERO PUSH2 0x289D JUMPI PUSH1 0x40 MLOAD PUSH32 0x8C379A000000000000000000000000000000000000000000000000000000000 DUP2 MSTORE PUSH1 0x4 ADD PUSH2 0x2894 SWAP1 PUSH2 0x4A50 JUMP JUMPDEST PUSH1 0x40 MLOAD DUP1 SWAP2 SUB SWAP1 REVERT JUMPDEST POP POP SWAP2 SWAP1 POP JUMP JUMPDEST PUSH2 0x28AE DUP3 DUP3 PUSH2 0x16DE JUMP JUMPDEST PUSH2 0x28F1 JUMPI DUP1 DUP3 PUSH1 0x40 MLOAD PUSH32 0xE2517D3F00000000000000000000000000000000000000000000000000000000 DUP2 MSTORE PUSH1 0x4 ADD PUSH2 0x28E8 SWAP3 SWAP2 SWAP1 PUSH2 0x4A6E JUMP JUMPDEST PUSH1 0x40 MLOAD DUP1 SWAP2 SUB SWAP1 REVERT JUMPDEST POP POP JUMP JUMPDEST PUSH0 DUP1 PUSH0 DUP1 PUSH2 0x2903 DUP7 DUP7 PUSH2 0x2AB6 JUMP JUMPDEST SWAP3 POP SWAP3 POP SWAP3 POP PUSH2 0x2913 DUP3 DUP3 PUSH2 0x2B0B JUMP JUMPDEST DUP3 SWAP4 POP POP POP POP SWAP3 SWAP2 POP POP JUMP JUMPDEST PUSH0 PUSH2 0x294B PUSH32 0x360894A13BA1A3210667C828492DB98DCA3E2076CC3735A920A3CA505D382BBC PUSH0 SHL PUSH2 0x2C6D JUMP JUMPDEST PUSH0 ADD PUSH0 SWAP1 SLOAD SWAP1 PUSH2 0x100 EXP SWAP1 DIV PUSH20 0xFFFFFFFFFFFFFFFFFFFFFFFFFFFFFFFFFFFFFFFF AND SWAP1 POP SWAP1 JUMP JUMPDEST PUSH2 0x297B DUP3 PUSH2 0x2C76 JUMP JUMPDEST DUP2 PUSH20 0xFFFFFFFFFFFFFFFFFFFFFFFFFFFFFFFFFFFFFFFF AND PUSH32 0xBC7CD75A20EE27FD9ADEBAB32041F755214DBC6BFFA90CC0225B39DA2E5C2D3B PUSH1 0x40 MLOAD PUSH1 0x40 MLOAD DUP1 SWAP2 SUB SWAP1 LOG2 PUSH0 DUP2 MLOAD GT ISZERO PUSH2 0x29D7 JUMPI PUSH2 0x29D1 DUP3 DUP3 PUSH2 0x2D3F JUMP JUMPDEST POP PUSH2 0x29E0 JUMP JUMPDEST PUSH2 0x29DF PUSH2 0x2DBF JUMP JUMPDEST JUMPDEST POP POP JUMP JUMPDEST PUSH0 DUP1 PUSH20 0xFFFFFFFFFFFFFFFFFFFFFFFFFFFFFFFFFFFFFFFF AND DUP4 PUSH20 0xFFFFFFFFFFFFFFFFFFFFFFFFFFFFFFFFFFFFFFFF AND EQ PUSH2 0x2A95 JUMPI DUP3 PUSH20 0xFFFFFFFFFFFFFFFFFFFFFFFFFFFFFFFFFFFFFFFF AND PUSH4 0x70A08231 DUP4 PUSH1 0x40 MLOAD DUP3 PUSH4 0xFFFFFFFF AND PUSH1 0xE0 SHL DUP2 MSTORE PUSH1 0x4 ADD PUSH2 0x2A51 SWAP2 SWAP1 PUSH2 0x39D0 JUMP JUMPDEST PUSH1 0x20 PUSH1 0x40 MLOAD DUP1 DUP4 SUB DUP2 DUP7 GAS STATICCALL ISZERO DUP1 ISZERO PUSH2 0x2A6C JUMPI RETURNDATASIZE PUSH0 DUP1 RETURNDATACOPY RETURNDATASIZE PUSH0 REVERT JUMPDEST POP POP POP POP PUSH1 0x40 MLOAD RETURNDATASIZE PUSH1 0x1F NOT PUSH1 0x1F DUP3 ADD AND DUP3 ADD DUP1 PUSH1 0x40 MSTORE POP DUP2 ADD SWAP1 PUSH2 0x2A90 SWAP2 SWAP1 PUSH2 0x3D52 JUMP JUMPDEST PUSH2 0x2AAE JUMP JUMPDEST DUP2 PUSH20 0xFFFFFFFFFFFFFFFFFFFFFFFFFFFFFFFFFFFFFFFF AND BALANCE JUMPDEST SWAP1 POP SWAP3 SWAP2 POP POP JUMP JUMPDEST PUSH0 DUP1 PUSH0 PUSH1 0x41 DUP5 MLOAD SUB PUSH2 0x2AF6 JUMPI PUSH0 DUP1 PUSH0 PUSH1 0x20 DUP8 ADD MLOAD SWAP3 POP PUSH1 0x40 DUP8 ADD MLOAD SWAP2 POP PUSH1 0x60 DUP8 ADD MLOAD PUSH0 BYTE SWAP1 POP PUSH2 0x2AE8 DUP9 DUP3 DUP6 DUP6 PUSH2 0x2DFB JUMP JUMPDEST SWAP6 POP SWAP6 POP SWAP6 POP POP POP POP PUSH2 0x2B04 JUMP JUMPDEST PUSH0 PUSH1 0x2 DUP6 MLOAD PUSH0 SHL SWAP3 POP SWAP3 POP SWAP3 POP JUMPDEST SWAP3 POP SWAP3 POP SWAP3 JUMP JUMPDEST PUSH0 PUSH1 0x3 DUP2 GT ISZERO PUSH2 0x2B1E JUMPI PUSH2 0x2B1D PUSH2 0x4A95 JUMP JUMPDEST JUMPDEST DUP3 PUSH1 0x3 DUP2 GT ISZERO PUSH2 0x2B31 JUMPI PUSH2 0x2B30 PUSH2 0x4A95 JUMP JUMPDEST JUMPDEST SUB ISZERO PUSH2 0x2C69 JUMPI PUSH1 0x1 PUSH1 0x3 DUP2 GT ISZERO PUSH2 0x2B4B JUMPI PUSH2 0x2B4A PUSH2 0x4A95 JUMP JUMPDEST JUMPDEST DUP3 PUSH1 0x3 DUP2 GT ISZERO PUSH2 0x2B5E JUMPI PUSH2 0x2B5D PUSH2 0x4A95 JUMP JUMPDEST JUMPDEST SUB PUSH2 0x2B95 JUMPI PUSH1 0x40 MLOAD PUSH32 0xF645EEDF00000000000000000000000000000000000000000000000000000000 DUP2 MSTORE PUSH1 0x4 ADD PUSH1 0x40 MLOAD DUP1 SWAP2 SUB SWAP1 REVERT JUMPDEST PUSH1 0x2 PUSH1 0x3 DUP2 GT ISZERO PUSH2 0x2BA9 JUMPI PUSH2 0x2BA8 PUSH2 0x4A95 JUMP JUMPDEST JUMPDEST DUP3 PUSH1 0x3 DUP2 GT ISZERO PUSH2 0x2BBC JUMPI PUSH2 0x2BBB PUSH2 0x4A95 JUMP JUMPDEST JUMPDEST SUB PUSH2 0x2C00 JUMPI DUP1 PUSH0 SHR PUSH1 0x40 MLOAD PUSH32 0xFCE698F700000000000000000000000000000000000000000000000000000000 DUP2 MSTORE PUSH1 0x4 ADD PUSH2 0x2BF7 SWAP2 SWAP1 PUSH2 0x4AC2 JUMP JUMPDEST PUSH1 0x40 MLOAD DUP1 SWAP2 SUB SWAP1 REVERT JUMPDEST PUSH1 0x3 DUP1 DUP2 GT ISZERO PUSH2 0x2C13 JUMPI PUSH2 0x2C12 PUSH2 0x4A95 JUMP JUMPDEST JUMPDEST DUP3 PUSH1 0x3 DUP2 GT ISZERO PUSH2 0x2C26 JUMPI PUSH2 0x2C25 PUSH2 0x4A95 JUMP JUMPDEST JUMPDEST SUB PUSH2 0x2C68 JUMPI DUP1 PUSH1 0x40 MLOAD PUSH32 0xD78BCE0C00000000000000000000000000000000000000000000000000000000 DUP2 MSTORE PUSH1 0x4 ADD PUSH2 0x2C5F SWAP2 SWAP1 PUSH2 0x364A JUMP JUMPDEST PUSH1 0x40 MLOAD DUP1 SWAP2 SUB SWAP1 REVERT JUMPDEST JUMPDEST POP POP JUMP JUMPDEST PUSH0 DUP2 SWAP1 POP SWAP2 SWAP1 POP JUMP JUMPDEST PUSH0 DUP2 PUSH20 0xFFFFFFFFFFFFFFFFFFFFFFFFFFFFFFFFFFFFFFFF AND EXTCODESIZE SUB PUSH2 0x2CD1 JUMPI DUP1 PUSH1 0x40 MLOAD PUSH32 0x4C9C8CE300000000000000000000000000000000000000000000000000000000 DUP2 MSTORE PUSH1 0x4 ADD PUSH2 0x2CC8 SWAP2 SWAP1 PUSH2 0x39D0 JUMP JUMPDEST PUSH1 0x40 MLOAD DUP1 SWAP2 SUB SWAP1 REVERT JUMPDEST DUP1 PUSH2 0x2CFD PUSH32 0x360894A13BA1A3210667C828492DB98DCA3E2076CC3735A920A3CA505D382BBC PUSH0 SHL PUSH2 0x2C6D JUMP JUMPDEST PUSH0 ADD PUSH0 PUSH2 0x100 EXP DUP2 SLOAD DUP2 PUSH20 0xFFFFFFFFFFFFFFFFFFFFFFFFFFFFFFFFFFFFFFFF MUL NOT AND SWAP1 DUP4 PUSH20 0xFFFFFFFFFFFFFFFFFFFFFFFFFFFFFFFFFFFFFFFF AND MUL OR SWAP1 SSTORE POP POP JUMP JUMPDEST PUSH1 0x60 PUSH0 DUP1 DUP5 PUSH20 0xFFFFFFFFFFFFFFFFFFFFFFFFFFFFFFFFFFFFFFFF AND DUP5 PUSH1 0x40 MLOAD PUSH2 0x2D68 SWAP2 SWAP1 PUSH2 0x3A2D JUMP JUMPDEST PUSH0 PUSH1 0x40 MLOAD DUP1 DUP4 SUB DUP2 DUP6 GAS DELEGATECALL SWAP2 POP POP RETURNDATASIZE DUP1 PUSH0 DUP2 EQ PUSH2 0x2DA0 JUMPI PUSH1 0x40 MLOAD SWAP2 POP PUSH1 0x1F NOT PUSH1 0x3F RETURNDATASIZE ADD AND DUP3 ADD PUSH1 0x40 MSTORE RETURNDATASIZE DUP3 MSTORE RETURNDATASIZE PUSH0 PUSH1 0x20 DUP5 ADD RETURNDATACOPY PUSH2 0x2DA5 JUMP JUMPDEST PUSH1 0x60 SWAP2 POP JUMPDEST POP SWAP2 POP SWAP2 POP PUSH2 0x2DB5 DUP6 DUP4 DUP4 PUSH2 0x2EE2 JUMP JUMPDEST SWAP3 POP POP POP SWAP3 SWAP2 POP POP JUMP JUMPDEST PUSH0 CALLVALUE GT ISZERO PUSH2 0x2DF9 JUMPI PUSH1 0x40 MLOAD PUSH32 0xB398979F00000000000000000000000000000000000000000000000000000000 DUP2 MSTORE PUSH1 0x4 ADD PUSH1 0x40 MLOAD DUP1 SWAP2 SUB SWAP1 REVERT JUMPDEST JUMP JUMPDEST PUSH0 DUP1 PUSH0 PUSH32 0x7FFFFFFFFFFFFFFFFFFFFFFFFFFFFFFF5D576E7357A4501DDFE92F46681B20A0 DUP5 PUSH0 SHR GT ISZERO PUSH2 0x2E37 JUMPI PUSH0 PUSH1 0x3 DUP6 SWAP3 POP SWAP3 POP SWAP3 POP PUSH2 0x2ED8 JUMP JUMPDEST PUSH0 PUSH1 0x1 DUP9 DUP9 DUP9 DUP9 PUSH1 0x40 MLOAD PUSH0 DUP2 MSTORE PUSH1 0x20 ADD PUSH1 0x40 MSTORE PUSH1 0x40 MLOAD PUSH2 0x2E5A SWAP5 SWAP4 SWAP3 SWAP2 SWAP1 PUSH2 0x4AF6 JUMP JUMPDEST PUSH1 0x20 PUSH1 0x40 MLOAD PUSH1 0x20 DUP2 SUB SWAP1 DUP1 DUP5 SUB SWAP1 DUP6 GAS STATICCALL ISZERO DUP1 ISZERO PUSH2 0x2E7A JUMPI RETURNDATASIZE PUSH0 DUP1 RETURNDATACOPY RETURNDATASIZE PUSH0 REVERT JUMPDEST POP POP POP PUSH1 0x20 PUSH1 0x40 MLOAD SUB MLOAD SWAP1 POP PUSH0 PUSH20 0xFFFFFFFFFFFFFFFFFFFFFFFFFFFFFFFFFFFFFFFF AND DUP2 PUSH20 0xFFFFFFFFFFFFFFFFFFFFFFFFFFFFFFFFFFFFFFFF AND SUB PUSH2 0x2ECB JUMPI PUSH0 PUSH1 0x1 PUSH0 DUP1 SHL SWAP4 POP SWAP4 POP SWAP4 POP POP PUSH2 0x2ED8 JUMP JUMPDEST DUP1 PUSH0 DUP1 PUSH0 SHL SWAP4 POP SWAP4 POP SWAP4 POP POP JUMPDEST SWAP5 POP SWAP5 POP SWAP5 SWAP2 POP POP JUMP JUMPDEST PUSH1 0x60 DUP3 PUSH2 0x2EF7 JUMPI PUSH2 0x2EF2 DUP3 PUSH2 0x2F6F JUMP JUMPDEST PUSH2 0x2F67 JUMP JUMPDEST PUSH0 DUP3 MLOAD EQ DUP1 ISZERO PUSH2 0x2F1D JUMPI POP PUSH0 DUP5 PUSH20 0xFFFFFFFFFFFFFFFFFFFFFFFFFFFFFFFFFFFFFFFF AND EXTCODESIZE EQ JUMPDEST ISZERO PUSH2 0x2F5F JUMPI DUP4 PUSH1 0x40 MLOAD PUSH32 0x9996B31500000000000000000000000000000000000000000000000000000000 DUP2 MSTORE PUSH1 0x4 ADD PUSH2 0x2F56 SWAP2 SWAP1 PUSH2 0x39D0 JUMP JUMPDEST PUSH1 0x40 MLOAD DUP1 SWAP2 SUB SWAP1 REVERT JUMPDEST DUP2 SWAP1 POP PUSH2 0x2F68 JUMP JUMPDEST JUMPDEST SWAP4 SWAP3 POP POP POP JUMP JUMPDEST PUSH0 DUP2 MLOAD GT ISZERO PUSH2 0x2F81 JUMPI DUP1 MLOAD DUP1 DUP3 PUSH1 0x20 ADD REVERT JUMPDEST PUSH1 0x40 MLOAD PUSH32 0x1425EA4200000000000000000000000000000000000000000000000000000000 DUP2 MSTORE PUSH1 0x4 ADD PUSH1 0x40 MLOAD DUP1 SWAP2 SUB SWAP1 REVERT JUMPDEST PUSH0 PUSH1 0x40 MLOAD SWAP1 POP SWAP1 JUMP JUMPDEST PUSH0 DUP1 REVERT JUMPDEST PUSH0 DUP1 REVERT JUMPDEST PUSH0 PUSH32 0xFFFFFFFF00000000000000000000000000000000000000000000000000000000 DUP3 AND SWAP1 POP SWAP2 SWAP1 POP JUMP JUMPDEST PUSH2 0x2FF8 DUP2 PUSH2 0x2FC4 JUMP JUMPDEST DUP2 EQ PUSH2 0x3002 JUMPI PUSH0 DUP1 REVERT JUMPDEST POP JUMP JUMPDEST PUSH0 DUP2 CALLDATALOAD SWAP1 POP PUSH2 0x3013 DUP2 PUSH2 0x2FEF JUMP JUMPDEST SWAP3 SWAP2 POP POP JUMP JUMPDEST PUSH0 PUSH1 0x20 DUP3 DUP5 SUB SLT ISZERO PUSH2 0x302E JUMPI PUSH2 0x302D PUSH2 0x2FBC JUMP JUMPDEST JUMPDEST PUSH0 PUSH2 0x303B DUP5 DUP3 DUP6 ADD PUSH2 0x3005 JUMP JUMPDEST SWAP2 POP POP SWAP3 SWAP2 POP POP JUMP JUMPDEST PUSH0 DUP2 ISZERO ISZERO SWAP1 POP SWAP2 SWAP1 POP JUMP JUMPDEST PUSH2 0x3058 DUP2 PUSH2 0x3044 JUMP JUMPDEST DUP3 MSTORE POP POP JUMP JUMPDEST PUSH0 PUSH1 0x20 DUP3 ADD SWAP1 POP PUSH2 0x3071 PUSH0 DUP4 ADD DUP5 PUSH2 0x304F JUMP JUMPDEST SWAP3 SWAP2 POP POP JUMP JUMPDEST PUSH0 DUP1 REVERT JUMPDEST PUSH0 PUSH1 0x1F NOT PUSH1 0x1F DUP4 ADD AND SWAP1 POP SWAP2 SWAP1 POP JUMP JUMPDEST PUSH32 0x4E487B7100000000000000000000000000000000000000000000000000000000 PUSH0 MSTORE PUSH1 0x41 PUSH1 0x4 MSTORE PUSH1 0x24 PUSH0 REVERT JUMPDEST PUSH2 0x30C1 DUP3 PUSH2 0x307B JUMP JUMPDEST DUP2 ADD DUP2 DUP2 LT PUSH8 0xFFFFFFFFFFFFFFFF DUP3 GT OR ISZERO PUSH2 0x30E0 JUMPI PUSH2 0x30DF PUSH2 0x308B JUMP JUMPDEST JUMPDEST DUP1 PUSH1 0x40 MSTORE POP POP POP JUMP JUMPDEST PUSH0 PUSH2 0x30F2 PUSH2 0x2FB3 JUMP JUMPDEST SWAP1 POP PUSH2 0x30FE DUP3 DUP3 PUSH2 0x30B8 JUMP JUMPDEST SWAP2 SWAP1 POP JUMP JUMPDEST PUSH0 DUP1 REVERT JUMPDEST PUSH0 PUSH20 0xFFFFFFFFFFFFFFFFFFFFFFFFFFFFFFFFFFFFFFFF DUP3 AND SWAP1 POP SWAP2 SWAP1 POP JUMP JUMPDEST PUSH0 PUSH2 0x3130 DUP3 PUSH2 0x3107 JUMP JUMPDEST SWAP1 POP SWAP2 SWAP1 POP JUMP JUMPDEST PUSH2 0x3140 DUP2 PUSH2 0x3126 JUMP JUMPDEST DUP2 EQ PUSH2 0x314A JUMPI PUSH0 DUP1 REVERT JUMPDEST POP JUMP JUMPDEST PUSH0 DUP2 CALLDATALOAD SWAP1 POP PUSH2 0x315B DUP2 PUSH2 0x3137 JUMP JUMPDEST SWAP3 SWAP2 POP POP JUMP JUMPDEST PUSH0 PUSH8 0xFFFFFFFFFFFFFFFF DUP3 AND SWAP1 POP SWAP2 SWAP1 POP JUMP JUMPDEST PUSH2 0x317D DUP2 PUSH2 0x3161 JUMP JUMPDEST DUP2 EQ PUSH2 0x3187 JUMPI PUSH0 DUP1 REVERT JUMPDEST POP JUMP JUMPDEST PUSH0 DUP2 CALLDATALOAD SWAP1 POP PUSH2 0x3198 DUP2 PUSH2 0x3174 JUMP JUMPDEST SWAP3 SWAP2 POP POP JUMP JUMPDEST PUSH0 DUP2 SWAP1 POP SWAP2 SWAP1 POP JUMP JUMPDEST PUSH2 0x31B0 DUP2 PUSH2 0x319E JUMP JUMPDEST DUP2 EQ PUSH2 0x31BA JUMPI PUSH0 DUP1 REVERT JUMPDEST POP JUMP JUMPDEST PUSH0 DUP2 CALLDATALOAD SWAP1 POP PUSH2 0x31CB DUP2 PUSH2 0x31A7 JUMP JUMPDEST SWAP3 SWAP2 POP POP JUMP JUMPDEST PUSH0 PUSH1 0x40 DUP3 DUP5 SUB SLT ISZERO PUSH2 0x31E6 JUMPI PUSH2 0x31E5 PUSH2 0x3077 JUMP JUMPDEST JUMPDEST PUSH2 0x31F0 PUSH1 0x40 PUSH2 0x30E9 JUMP JUMPDEST SWAP1 POP PUSH0 PUSH2 0x31FF DUP5 DUP3 DUP6 ADD PUSH2 0x314D JUMP JUMPDEST PUSH0 DUP4 ADD MSTORE POP PUSH1 0x20 PUSH2 0x3212 DUP5 DUP3 DUP6 ADD PUSH2 0x31BD JUMP JUMPDEST PUSH1 0x20 DUP4 ADD MSTORE POP SWAP3 SWAP2 POP POP JUMP JUMPDEST PUSH0 DUP2 SWAP1 POP SWAP2 SWAP1 POP JUMP JUMPDEST PUSH2 0x3230 DUP2 PUSH2 0x321E JUMP JUMPDEST DUP2 EQ PUSH2 0x323A JUMPI PUSH0 DUP1 REVERT JUMPDEST POP JUMP JUMPDEST PUSH0 DUP2 CALLDATALOAD SWAP1 POP PUSH2 0x324B DUP2 PUSH2 0x3227 JUMP JUMPDEST SWAP3 SWAP2 POP POP JUMP JUMPDEST PUSH0 DUP1 REVERT JUMPDEST PUSH0 DUP1 REVERT JUMPDEST PUSH0 PUSH8 0xFFFFFFFFFFFFFFFF DUP3 GT ISZERO PUSH2 0x3273 JUMPI PUSH2 0x3272 PUSH2 0x308B JUMP JUMPDEST JUMPDEST PUSH2 0x327C DUP3 PUSH2 0x307B JUMP JUMPDEST SWAP1 POP PUSH1 0x20 DUP2 ADD SWAP1 POP SWAP2 SWAP1 POP JUMP JUMPDEST DUP3 DUP2 DUP4 CALLDATACOPY PUSH0 DUP4 DUP4 ADD MSTORE POP POP POP JUMP JUMPDEST PUSH0 PUSH2 0x32A9 PUSH2 0x32A4 DUP5 PUSH2 0x3259 JUMP JUMPDEST PUSH2 0x30E9 JUMP JUMPDEST SWAP1 POP DUP3 DUP2 MSTORE PUSH1 0x20 DUP2 ADD DUP5 DUP5 DUP5 ADD GT ISZERO PUSH2 0x32C5 JUMPI PUSH2 0x32C4 PUSH2 0x3255 JUMP JUMPDEST JUMPDEST PUSH2 0x32D0 DUP5 DUP3 DUP6 PUSH2 0x3289 JUMP JUMPDEST POP SWAP4 SWAP3 POP POP POP JUMP JUMPDEST PUSH0 DUP3 PUSH1 0x1F DUP4 ADD SLT PUSH2 0x32EC JUMPI PUSH2 0x32EB PUSH2 0x3251 JUMP JUMPDEST JUMPDEST DUP2 CALLDATALOAD PUSH2 0x32FC DUP5 DUP3 PUSH1 0x20 DUP7 ADD PUSH2 0x3297 JUMP JUMPDEST SWAP2 POP POP SWAP3 SWAP2 POP POP JUMP JUMPDEST PUSH0 PUSH2 0x1C0 DUP3 DUP5 SUB SLT ISZERO PUSH2 0x331B JUMPI PUSH2 0x331A PUSH2 0x3077 JUMP JUMPDEST JUMPDEST PUSH2 0x3326 PUSH2 0x180 PUSH2 0x30E9 JUMP JUMPDEST SWAP1 POP PUSH0 PUSH2 0x3335 DUP5 DUP3 DUP6 ADD PUSH2 0x314D JUMP JUMPDEST PUSH0 DUP4 ADD MSTORE POP PUSH1 0x20 PUSH2 0x3348 DUP5 DUP3 DUP6 ADD PUSH2 0x318A JUMP JUMPDEST PUSH1 0x20 DUP4 ADD MSTORE POP PUSH1 0x40 PUSH2 0x335C DUP5 DUP3 DUP6 ADD PUSH2 0x314D JUMP JUMPDEST PUSH1 0x40 DUP4 ADD MSTORE POP PUSH1 0x60 PUSH2 0x3370 DUP5 DUP3 DUP6 ADD PUSH2 0x318A JUMP JUMPDEST PUSH1 0x60 DUP4 ADD MSTORE POP PUSH1 0x80 PUSH2 0x3384 DUP5 DUP3 DUP6 ADD PUSH2 0x31D1 JUMP JUMPDEST PUSH1 0x80 DUP4 ADD MSTORE POP PUSH1 0xC0 PUSH2 0x3398 DUP5 DUP3 DUP6 ADD PUSH2 0x31D1 JUMP JUMPDEST PUSH1 0xA0 DUP4 ADD MSTORE POP PUSH2 0x100 PUSH2 0x33AD DUP5 DUP3 DUP6 ADD PUSH2 0x31BD JUMP JUMPDEST PUSH1 0xC0 DUP4 ADD MSTORE POP PUSH2 0x120 PUSH2 0x33C2 DUP5 DUP3 DUP6 ADD PUSH2 0x31BD JUMP JUMPDEST PUSH1 0xE0 DUP4 ADD MSTORE POP PUSH2 0x140 PUSH2 0x33D7 DUP5 DUP3 DUP6 ADD PUSH2 0x314D JUMP JUMPDEST PUSH2 0x100 DUP4 ADD MSTORE POP PUSH2 0x160 PUSH2 0x33ED DUP5 DUP3 DUP6 ADD PUSH2 0x323D JUMP JUMPDEST PUSH2 0x120 DUP4 ADD MSTORE POP PUSH2 0x180 PUSH2 0x3403 DUP5 DUP3 DUP6 ADD PUSH2 0x314D JUMP JUMPDEST PUSH2 0x140 DUP4 ADD MSTORE POP PUSH2 0x1A0 DUP3 ADD CALLDATALOAD PUSH8 0xFFFFFFFFFFFFFFFF DUP2 GT ISZERO PUSH2 0x3429 JUMPI PUSH2 0x3428 PUSH2 0x3103 JUMP JUMPDEST JUMPDEST PUSH2 0x3435 DUP5 DUP3 DUP6 ADD PUSH2 0x32D8 JUMP JUMPDEST PUSH2 0x160 DUP4 ADD MSTORE POP SWAP3 SWAP2 POP POP JUMP JUMPDEST PUSH0 PUSH1 0x20 DUP3 DUP5 SUB SLT ISZERO PUSH2 0x3457 JUMPI PUSH2 0x3456 PUSH2 0x2FBC JUMP JUMPDEST JUMPDEST PUSH0 DUP3 ADD CALLDATALOAD PUSH8 0xFFFFFFFFFFFFFFFF DUP2 GT ISZERO PUSH2 0x3474 JUMPI PUSH2 0x3473 PUSH2 0x2FC0 JUMP JUMPDEST JUMPDEST PUSH2 0x3480 DUP5 DUP3 DUP6 ADD PUSH2 0x3305 JUMP JUMPDEST SWAP2 POP POP SWAP3 SWAP2 POP POP JUMP JUMPDEST PUSH0 DUP1 PUSH1 0x40 DUP4 DUP6 SUB SLT ISZERO PUSH2 0x349F JUMPI PUSH2 0x349E PUSH2 0x2FBC JUMP JUMPDEST JUMPDEST PUSH0 PUSH2 0x34AC DUP6 DUP3 DUP7 ADD PUSH2 0x31BD JUMP JUMPDEST SWAP3 POP POP PUSH1 0x20 DUP4 ADD CALLDATALOAD PUSH8 0xFFFFFFFFFFFFFFFF DUP2 GT ISZERO PUSH2 0x34CD JUMPI PUSH2 0x34CC PUSH2 0x2FC0 JUMP JUMPDEST JUMPDEST PUSH2 0x34D9 DUP6 DUP3 DUP7 ADD PUSH2 0x32D8 JUMP JUMPDEST SWAP2 POP POP SWAP3 POP SWAP3 SWAP1 POP JUMP JUMPDEST PUSH0 DUP1 PUSH0 PUSH1 0x60 DUP5 DUP7 SUB SLT ISZERO PUSH2 0x34FA JUMPI PUSH2 0x34F9 PUSH2 0x2FBC JUMP JUMPDEST JUMPDEST PUSH0 PUSH2 0x3507 DUP7 DUP3 DUP8 ADD PUSH2 0x314D JUMP JUMPDEST SWAP4 POP POP PUSH1 0x20 PUSH2 0x3518 DUP7 DUP3 DUP8 ADD PUSH2 0x314D JUMP JUMPDEST SWAP3 POP POP PUSH1 0x40 PUSH2 0x3529 DUP7 DUP3 DUP8 ADD PUSH2 0x31BD JUMP JUMPDEST SWAP2 POP POP SWAP3 POP SWAP3 POP SWAP3 JUMP JUMPDEST PUSH0 DUP1 REVERT JUMPDEST PUSH0 PUSH1 0xE0 DUP3 DUP5 SUB SLT ISZERO PUSH2 0x354C JUMPI PUSH2 0x354B PUSH2 0x3533 JUMP JUMPDEST JUMPDEST DUP2 SWAP1 POP SWAP3 SWAP2 POP POP JUMP JUMPDEST PUSH0 DUP1 REVERT JUMPDEST PUSH0 DUP1 REVERT JUMPDEST PUSH0 DUP1 DUP4 PUSH1 0x1F DUP5 ADD SLT PUSH2 0x3572 JUMPI PUSH2 0x3571 PUSH2 0x3251 JUMP JUMPDEST JUMPDEST DUP3 CALLDATALOAD SWAP1 POP PUSH8 0xFFFFFFFFFFFFFFFF DUP2 GT ISZERO PUSH2 0x358F JUMPI PUSH2 0x358E PUSH2 0x3555 JUMP JUMPDEST JUMPDEST PUSH1 0x20 DUP4 ADD SWAP2 POP DUP4 PUSH1 0x1 DUP3 MUL DUP4 ADD GT ISZERO PUSH2 0x35AB JUMPI PUSH2 0x35AA PUSH2 0x3559 JUMP JUMPDEST JUMPDEST SWAP3 POP SWAP3 SWAP1 POP JUMP JUMPDEST PUSH0 DUP1 PUSH0 PUSH2 0x100 DUP5 DUP7 SUB SLT ISZERO PUSH2 0x35CA JUMPI PUSH2 0x35C9 PUSH2 0x2FBC JUMP JUMPDEST JUMPDEST PUSH0 PUSH2 0x35D7 DUP7 DUP3 DUP8 ADD PUSH2 0x3537 JUMP JUMPDEST SWAP4 POP POP PUSH1 0xE0 DUP5 ADD CALLDATALOAD PUSH8 0xFFFFFFFFFFFFFFFF DUP2 GT ISZERO PUSH2 0x35F8 JUMPI PUSH2 0x35F7 PUSH2 0x2FC0 JUMP JUMPDEST JUMPDEST PUSH2 0x3604 DUP7 DUP3 DUP8 ADD PUSH2 0x355D JUMP JUMPDEST SWAP3 POP SWAP3 POP POP SWAP3 POP SWAP3 POP SWAP3 JUMP JUMPDEST PUSH0 PUSH1 0x20 DUP3 DUP5 SUB SLT ISZERO PUSH2 0x3625 JUMPI PUSH2 0x3624 PUSH2 0x2FBC JUMP JUMPDEST JUMPDEST PUSH0 PUSH2 0x3632 DUP5 DUP3 DUP6 ADD PUSH2 0x323D JUMP JUMPDEST SWAP2 POP POP SWAP3 SWAP2 POP POP JUMP JUMPDEST PUSH2 0x3644 DUP2 PUSH2 0x321E JUMP JUMPDEST DUP3 MSTORE POP POP JUMP JUMPDEST PUSH0 PUSH1 0x20 DUP3 ADD SWAP1 POP PUSH2 0x365D PUSH0 DUP4 ADD DUP5 PUSH2 0x363B JUMP JUMPDEST SWAP3 SWAP2 POP POP JUMP JUMPDEST PUSH0 PUSH1 0xA0 DUP3 DUP5 SUB SLT ISZERO PUSH2 0x3678 JUMPI PUSH2 0x3677 PUSH2 0x3533 JUMP JUMPDEST JUMPDEST DUP2 SWAP1 POP SWAP3 SWAP2 POP POP JUMP JUMPDEST PUSH0 DUP1 PUSH1 0xC0 DUP4 DUP6 SUB SLT ISZERO PUSH2 0x3697 JUMPI PUSH2 0x3696 PUSH2 0x2FBC JUMP JUMPDEST JUMPDEST PUSH0 PUSH2 0x36A4 DUP6 DUP3 DUP7 ADD PUSH2 0x31BD JUMP JUMPDEST SWAP3 POP POP PUSH1 0x20 PUSH2 0x36B5 DUP6 DUP3 DUP7 ADD PUSH2 0x3663 JUMP JUMPDEST SWAP2 POP POP SWAP3 POP SWAP3 SWAP1 POP JUMP JUMPDEST PUSH0 DUP1 PUSH1 0x40 DUP4 DUP6 SUB SLT ISZERO PUSH2 0x36D5 JUMPI PUSH2 0x36D4 PUSH2 0x2FBC JUMP JUMPDEST JUMPDEST PUSH0 PUSH2 0x36E2 DUP6 DUP3 DUP7 ADD PUSH2 0x323D JUMP JUMPDEST SWAP3 POP POP PUSH1 0x20 PUSH2 0x36F3 DUP6 DUP3 DUP7 ADD PUSH2 0x314D JUMP JUMPDEST SWAP2 POP POP SWAP3 POP SWAP3 SWAP1 POP JUMP JUMPDEST PUSH0 DUP1 PUSH1 0x40 DUP4 DUP6 SUB SLT ISZERO PUSH2 0x3713 JUMPI PUSH2 0x3712 PUSH2 0x2FBC JUMP JUMPDEST JUMPDEST PUSH0 PUSH2 0x3720 DUP6 DUP3 DUP7 ADD PUSH2 0x314D JUMP JUMPDEST SWAP3 POP POP PUSH1 0x20 DUP4 ADD CALLDATALOAD PUSH8 0xFFFFFFFFFFFFFFFF DUP2 GT ISZERO PUSH2 0x3741 JUMPI PUSH2 0x3740 PUSH2 0x2FC0 JUMP JUMPDEST JUMPDEST PUSH2 0x374D DUP6 DUP3 DUP7 ADD PUSH2 0x32D8 JUMP JUMPDEST SWAP2 POP POP SWAP3 POP SWAP3 SWAP1 POP JUMP JUMPDEST PUSH2 0x3760 DUP2 PUSH2 0x3044 JUMP JUMPDEST DUP2 EQ PUSH2 0x376A JUMPI PUSH0 DUP1 REVERT JUMPDEST POP JUMP JUMPDEST PUSH0 DUP2 CALLDATALOAD SWAP1 POP PUSH2 0x377B DUP2 PUSH2 0x3757 JUMP JUMPDEST SWAP3 SWAP2 POP POP JUMP JUMPDEST PUSH0 PUSH1 0x20 DUP3 DUP5 SUB SLT ISZERO PUSH2 0x3796 JUMPI PUSH2 0x3795 PUSH2 0x2FBC JUMP JUMPDEST JUMPDEST PUSH0 PUSH2 0x37A3 DUP5 DUP3 DUP6 ADD PUSH2 0x376D JUMP JUMPDEST SWAP2 POP POP SWAP3 SWAP2 POP POP JUMP JUMPDEST PUSH0 PUSH1 0x60 DUP3 DUP5 SUB SLT ISZERO PUSH2 0x37C1 JUMPI PUSH2 0x37C0 PUSH2 0x3533 JUMP JUMPDEST JUMPDEST DUP2 SWAP1 POP SWAP3 SWAP2 POP POP JUMP JUMPDEST PUSH0 PUSH1 0x20 DUP3 DUP5 SUB SLT ISZERO PUSH2 0x37DF JUMPI PUSH2 0x37DE PUSH2 0x2FBC JUMP JUMPDEST JUMPDEST PUSH0 DUP3 ADD CALLDATALOAD PUSH8 0xFFFFFFFFFFFFFFFF DUP2 GT ISZERO PUSH2 0x37FC JUMPI PUSH2 0x37FB PUSH2 0x2FC0 JUMP JUMPDEST JUMPDEST PUSH2 0x3808 DUP5 DUP3 DUP6 ADD PUSH2 0x37AC JUMP JUMPDEST SWAP2 POP POP SWAP3 SWAP2 POP POP JUMP JUMPDEST PUSH0 DUP2 MLOAD SWAP1 POP SWAP2 SWAP1 POP JUMP JUMPDEST PUSH0 DUP3 DUP3 MSTORE PUSH1 0x20 DUP3 ADD SWAP1 POP SWAP3 SWAP2 POP POP JUMP JUMPDEST PUSH0 JUMPDEST DUP4 DUP2 LT ISZERO PUSH2 0x3848 JUMPI DUP1 DUP3 ADD MLOAD DUP2 DUP5 ADD MSTORE PUSH1 0x20 DUP2 ADD SWAP1 POP PUSH2 0x382D JUMP JUMPDEST PUSH0 DUP5 DUP5 ADD MSTORE POP POP POP POP JUMP JUMPDEST PUSH0 PUSH2 0x385D DUP3 PUSH2 0x3811 JUMP JUMPDEST PUSH2 0x3867 DUP2 DUP6 PUSH2 0x381B JUMP JUMPDEST SWAP4 POP PUSH2 0x3877 DUP2 DUP6 PUSH1 0x20 DUP7 ADD PUSH2 0x382B JUMP JUMPDEST PUSH2 0x3880 DUP2 PUSH2 0x307B JUMP JUMPDEST DUP5 ADD SWAP2 POP POP SWAP3 SWAP2 POP POP JUMP JUMPDEST PUSH0 PUSH1 0x20 DUP3 ADD SWAP1 POP DUP2 DUP2 SUB PUSH0 DUP4 ADD MSTORE PUSH2 0x38A3 DUP2 DUP5 PUSH2 0x3853 JUMP JUMPDEST SWAP1 POP SWAP3 SWAP2 POP POP JUMP JUMPDEST PUSH0 DUP1 DUP4 PUSH1 0x1F DUP5 ADD SLT PUSH2 0x38C0 JUMPI PUSH2 0x38BF PUSH2 0x3251 JUMP JUMPDEST JUMPDEST DUP3 CALLDATALOAD SWAP1 POP PUSH8 0xFFFFFFFFFFFFFFFF DUP2 GT ISZERO PUSH2 0x38DD JUMPI PUSH2 0x38DC PUSH2 0x3555 JUMP JUMPDEST JUMPDEST PUSH1 0x20 DUP4 ADD SWAP2 POP DUP4 PUSH1 0x20 DUP3 MUL DUP4 ADD GT ISZERO PUSH2 0x38F9 JUMPI PUSH2 0x38F8 PUSH2 0x3559 JUMP JUMPDEST JUMPDEST SWAP3 POP SWAP3 SWAP1 POP JUMP JUMPDEST PUSH0 DUP1 PUSH1 0x20 DUP4 DUP6 SUB SLT ISZERO PUSH2 0x3916 JUMPI PUSH2 0x3915 PUSH2 0x2FBC JUMP JUMPDEST JUMPDEST PUSH0 DUP4 ADD CALLDATALOAD PUSH8 0xFFFFFFFFFFFFFFFF DUP2 GT ISZERO PUSH2 0x3933 JUMPI PUSH2 0x3932 PUSH2 0x2FC0 JUMP JUMPDEST JUMPDEST PUSH2 0x393F DUP6 DUP3 DUP7 ADD PUSH2 0x38AB JUMP JUMPDEST SWAP3 POP SWAP3 POP POP SWAP3 POP SWAP3 SWAP1 POP JUMP JUMPDEST PUSH0 DUP1 PUSH1 0x40 DUP4 DUP6 SUB SLT ISZERO PUSH2 0x3961 JUMPI PUSH2 0x3960 PUSH2 0x2FBC JUMP JUMPDEST JUMPDEST PUSH0 DUP4 ADD CALLDATALOAD PUSH8 0xFFFFFFFFFFFFFFFF DUP2 GT ISZERO PUSH2 0x397E JUMPI PUSH2 0x397D PUSH2 0x2FC0 JUMP JUMPDEST JUMPDEST PUSH2 0x398A DUP6 DUP3 DUP7 ADD PUSH2 0x37AC JUMP JUMPDEST SWAP3 POP POP PUSH1 0x20 DUP4 ADD CALLDATALOAD PUSH8 0xFFFFFFFFFFFFFFFF DUP2 GT ISZERO PUSH2 0x39AB JUMPI PUSH2 0x39AA PUSH2 0x2FC0 JUMP JUMPDEST JUMPDEST PUSH2 0x39B7 DUP6 DUP3 DUP7 ADD PUSH2 0x3305 JUMP JUMPDEST SWAP2 POP POP SWAP3 POP SWAP3 SWAP1 POP JUMP JUMPDEST PUSH2 0x39CA DUP2 PUSH2 0x3126 JUMP JUMPDEST DUP3 MSTORE POP POP JUMP JUMPDEST PUSH0 PUSH1 0x20 DUP3 ADD SWAP1 POP PUSH2 0x39E3 PUSH0 DUP4 ADD DUP5 PUSH2 0x39C1 JUMP JUMPDEST SWAP3 SWAP2 POP POP JUMP JUMPDEST PUSH0 DUP2 MLOAD SWAP1 POP SWAP2 SWAP1 POP JUMP JUMPDEST PUSH0 DUP2 SWAP1 POP SWAP3 SWAP2 POP POP JUMP JUMPDEST PUSH0 PUSH2 0x3A07 DUP3 PUSH2 0x39E9 JUMP JUMPDEST PUSH2 0x3A11 DUP2 DUP6 PUSH2 0x39F3 JUMP JUMPDEST SWAP4 POP PUSH2 0x3A21 DUP2 DUP6 PUSH1 0x20 DUP7 ADD PUSH2 0x382B JUMP JUMPDEST DUP1 DUP5 ADD SWAP2 POP POP SWAP3 SWAP2 POP POP JUMP JUMPDEST PUSH0 PUSH2 0x3A38 DUP3 DUP5 PUSH2 0x39FD JUMP JUMPDEST SWAP2 POP DUP2 SWAP1 POP SWAP3 SWAP2 POP POP JUMP JUMPDEST PUSH0 DUP3 DUP3 MSTORE PUSH1 0x20 DUP3 ADD SWAP1 POP SWAP3 SWAP2 POP POP JUMP JUMPDEST PUSH0 PUSH2 0x3A5D DUP3 PUSH2 0x39E9 JUMP JUMPDEST PUSH2 0x3A67 DUP2 DUP6 PUSH2 0x3A43 JUMP JUMPDEST SWAP4 POP PUSH2 0x3A77 DUP2 DUP6 PUSH1 0x20 DUP7 ADD PUSH2 0x382B JUMP JUMPDEST PUSH2 0x3A80 DUP2 PUSH2 0x307B JUMP JUMPDEST DUP5 ADD SWAP2 POP POP SWAP3 SWAP2 POP POP JUMP JUMPDEST PUSH0 PUSH1 0x20 DUP3 ADD SWAP1 POP DUP2 DUP2 SUB PUSH0 DUP4 ADD MSTORE PUSH2 0x3AA3 DUP2 DUP5 PUSH2 0x3A53 JUMP JUMPDEST SWAP1 POP SWAP3 SWAP2 POP POP JUMP JUMPDEST PUSH32 0x5365727669636520756E617661696C61626C6500000000000000000000000000 PUSH0 DUP3 ADD MSTORE POP JUMP JUMPDEST PUSH0 PUSH2 0x3ADF PUSH1 0x13 DUP4 PUSH2 0x381B JUMP JUMPDEST SWAP2 POP PUSH2 0x3AEA DUP3 PUSH2 0x3AAB JUMP JUMPDEST PUSH1 0x20 DUP3 ADD SWAP1 POP SWAP2 SWAP1 POP JUMP JUMPDEST PUSH0 PUSH1 0x20 DUP3 ADD SWAP1 POP DUP2 DUP2 SUB PUSH0 DUP4 ADD MSTORE PUSH2 0x3B0C DUP2 PUSH2 0x3AD3 JUMP JUMPDEST SWAP1 POP SWAP2 SWAP1 POP JUMP JUMPDEST PUSH32 0x496E76616C6964207369676E6174757265000000000000000000000000000000 PUSH0 DUP3 ADD MSTORE POP JUMP JUMPDEST PUSH0 PUSH2 0x3B47 PUSH1 0x11 DUP4 PUSH2 0x381B JUMP JUMPDEST SWAP2 POP PUSH2 0x3B52 DUP3 PUSH2 0x3B13 JUMP JUMPDEST PUSH1 0x20 DUP3 ADD SWAP1 POP SWAP2 SWAP1 POP JUMP JUMPDEST PUSH0 PUSH1 0x20 DUP3 ADD SWAP1 POP DUP2 DUP2 SUB PUSH0 DUP4 ADD MSTORE PUSH2 0x3B74 DUP2 PUSH2 0x3B3B JUMP JUMPDEST SWAP1 POP SWAP2 SWAP1 POP JUMP JUMPDEST PUSH0 PUSH1 0x20 DUP3 DUP5 SUB SLT ISZERO PUSH2 0x3B90 JUMPI PUSH2 0x3B8F PUSH2 0x2FBC JUMP JUMPDEST JUMPDEST PUSH0 PUSH2 0x3B9D DUP5 DUP3 DUP6 ADD PUSH2 0x314D JUMP JUMPDEST SWAP2 POP POP SWAP3 SWAP2 POP POP JUMP JUMPDEST PUSH32 0x496E76616C6964207469636B6574000000000000000000000000000000000000 PUSH0 DUP3 ADD MSTORE POP JUMP JUMPDEST PUSH0 PUSH2 0x3BDA PUSH1 0xE DUP4 PUSH2 0x381B JUMP JUMPDEST SWAP2 POP PUSH2 0x3BE5 DUP3 PUSH2 0x3BA6 JUMP JUMPDEST PUSH1 0x20 DUP3 ADD SWAP1 POP SWAP2 SWAP1 POP JUMP JUMPDEST PUSH0 PUSH1 0x20 DUP3 ADD SWAP1 POP DUP2 DUP2 SUB PUSH0 DUP4 ADD MSTORE PUSH2 0x3C07 DUP2 PUSH2 0x3BCE JUMP JUMPDEST SWAP1 POP SWAP2 SWAP1 POP JUMP JUMPDEST PUSH32 0x4F75746461746564207469636B65740000000000000000000000000000000000 PUSH0 DUP3 ADD MSTORE POP JUMP JUMPDEST PUSH0 PUSH2 0x3C42 PUSH1 0xF DUP4 PUSH2 0x381B JUMP JUMPDEST SWAP2 POP PUSH2 0x3C4D DUP3 PUSH2 0x3C0E JUMP JUMPDEST PUSH1 0x20 DUP3 ADD SWAP1 POP SWAP2 SWAP1 POP JUMP JUMPDEST PUSH0 PUSH1 0x20 DUP3 ADD SWAP1 POP DUP2 DUP2 SUB PUSH0 DUP4 ADD MSTORE PUSH2 0x3C6F DUP2 PUSH2 0x3C36 JUMP JUMPDEST SWAP1 POP SWAP2 SWAP1 POP JUMP JUMPDEST PUSH32 0x496E73756666696369656E742076616C75650000000000000000000000000000 PUSH0 DUP3 ADD MSTORE POP JUMP JUMPDEST PUSH0 PUSH2 0x3CAA PUSH1 0x12 DUP4 PUSH2 0x381B JUMP JUMPDEST SWAP2 POP PUSH2 0x3CB5 DUP3 PUSH2 0x3C76 JUMP JUMPDEST PUSH1 0x20 DUP3 ADD SWAP1 POP SWAP2 SWAP1 POP JUMP JUMPDEST PUSH0 PUSH1 0x20 DUP3 ADD SWAP1 POP DUP2 DUP2 SUB PUSH0 DUP4 ADD MSTORE PUSH2 0x3CD7 DUP2 PUSH2 0x3C9E JUMP JUMPDEST SWAP1 POP SWAP2 SWAP1 POP JUMP JUMPDEST PUSH32 0x4E487B7100000000000000000000000000000000000000000000000000000000 PUSH0 MSTORE PUSH1 0x11 PUSH1 0x4 MSTORE PUSH1 0x24 PUSH0 REVERT JUMPDEST PUSH0 PUSH2 0x3D15 DUP3 PUSH2 0x319E JUMP JUMPDEST SWAP2 POP PUSH2 0x3D20 DUP4 PUSH2 0x319E JUMP JUMPDEST SWAP3 POP DUP3 DUP3 SUB SWAP1 POP DUP2 DUP2 GT ISZERO PUSH2 0x3D38 JUMPI PUSH2 0x3D37 PUSH2 0x3CDE JUMP JUMPDEST JUMPDEST SWAP3 SWAP2 POP POP JUMP JUMPDEST PUSH0 DUP2 MLOAD SWAP1 POP PUSH2 0x3D4C DUP2 PUSH2 0x31A7 JUMP JUMPDEST SWAP3 SWAP2 POP POP JUMP JUMPDEST PUSH0 PUSH1 0x20 DUP3 DUP5 SUB SLT ISZERO PUSH2 0x3D67 JUMPI PUSH2 0x3D66 PUSH2 0x2FBC JUMP JUMPDEST JUMPDEST PUSH0 PUSH2 0x3D74 DUP5 DUP3 DUP6 ADD PUSH2 0x3D3E JUMP JUMPDEST SWAP2 POP POP SWAP3 SWAP2 POP POP JUMP JUMPDEST PUSH2 0x3D86 DUP2 PUSH2 0x319E JUMP JUMPDEST DUP3 MSTORE POP POP JUMP JUMPDEST PUSH0 PUSH1 0x60 DUP3 ADD SWAP1 POP PUSH2 0x3D9F PUSH0 DUP4 ADD DUP7 PUSH2 0x39C1 JUMP JUMPDEST PUSH2 0x3DAC PUSH1 0x20 DUP4 ADD DUP6 PUSH2 0x39C1 JUMP JUMPDEST PUSH2 0x3DB9 PUSH1 0x40 DUP4 ADD DUP5 PUSH2 0x3D7D JUMP JUMPDEST SWAP5 SWAP4 POP POP POP POP JUMP JUMPDEST PUSH0 DUP2 MLOAD SWAP1 POP PUSH2 0x3DCF DUP2 PUSH2 0x3757 JUMP JUMPDEST SWAP3 SWAP2 POP POP JUMP JUMPDEST PUSH0 PUSH1 0x20 DUP3 DUP5 SUB SLT ISZERO PUSH2 0x3DEA JUMPI PUSH2 0x3DE9 PUSH2 0x2FBC JUMP JUMPDEST JUMPDEST PUSH0 PUSH2 0x3DF7 DUP5 DUP3 DUP6 ADD PUSH2 0x3DC1 JUMP JUMPDEST SWAP2 POP POP SWAP3 SWAP2 POP POP JUMP JUMPDEST PUSH32 0x4661696C656420746F207472616E736665722061737365740000000000000000 PUSH0 DUP3 ADD MSTORE POP JUMP JUMPDEST PUSH0 PUSH2 0x3E34 PUSH1 0x18 DUP4 PUSH2 0x381B JUMP JUMPDEST SWAP2 POP PUSH2 0x3E3F DUP3 PUSH2 0x3E00 JUMP JUMPDEST PUSH1 0x20 DUP3 ADD SWAP1 POP SWAP2 SWAP1 POP JUMP JUMPDEST PUSH0 PUSH1 0x20 DUP3 ADD SWAP1 POP DUP2 DUP2 SUB PUSH0 DUP4 ADD MSTORE PUSH2 0x3E61 DUP2 PUSH2 0x3E28 JUMP JUMPDEST SWAP1 POP SWAP2 SWAP1 POP JUMP JUMPDEST PUSH0 PUSH2 0x3E72 DUP3 PUSH2 0x319E JUMP JUMPDEST SWAP2 POP PUSH2 0x3E7D DUP4 PUSH2 0x319E JUMP JUMPDEST SWAP3 POP DUP3 DUP3 ADD SWAP1 POP DUP1 DUP3 GT ISZERO PUSH2 0x3E95 JUMPI PUSH2 0x3E94 PUSH2 0x3CDE JUMP JUMPDEST JUMPDEST SWAP3 SWAP2 POP POP JUMP JUMPDEST PUSH32 0x5472616E73666572206572726F72000000000000000000000000000000000000 PUSH0 DUP3 ADD MSTORE POP JUMP JUMPDEST PUSH0 PUSH2 0x3ECF PUSH1 0xE DUP4 PUSH2 0x381B JUMP JUMPDEST SWAP2 POP PUSH2 0x3EDA DUP3 PUSH2 0x3E9B JUMP JUMPDEST PUSH1 0x20 DUP3 ADD SWAP1 POP SWAP2 SWAP1 POP JUMP JUMPDEST PUSH0 PUSH1 0x20 DUP3 ADD SWAP1 POP DUP2 DUP2 SUB PUSH0 DUP4 ADD MSTORE PUSH2 0x3EFC DUP2 PUSH2 0x3EC3 JUMP JUMPDEST SWAP1 POP SWAP2 SWAP1 POP JUMP JUMPDEST PUSH32 0x496E636F72726563742066656500000000000000000000000000000000000000 PUSH0 DUP3 ADD MSTORE POP JUMP JUMPDEST PUSH0 PUSH2 0x3F37 PUSH1 0xD DUP4 PUSH2 0x381B JUMP JUMPDEST SWAP2 POP PUSH2 0x3F42 DUP3 PUSH2 0x3F03 JUMP JUMPDEST PUSH1 0x20 DUP3 ADD SWAP1 POP SWAP2 SWAP1 POP JUMP JUMPDEST PUSH0 PUSH1 0x20 DUP3 ADD SWAP1 POP DUP2 DUP2 SUB PUSH0 DUP4 ADD MSTORE PUSH2 0x3F64 DUP2 PUSH2 0x3F2B JUMP JUMPDEST SWAP1 POP SWAP2 SWAP1 POP JUMP JUMPDEST POP JUMP JUMPDEST PUSH0 PUSH2 0x3F79 PUSH0 DUP4 PUSH2 0x39F3 JUMP JUMPDEST SWAP2 POP PUSH2 0x3F84 DUP3 PUSH2 0x3F6B JUMP JUMPDEST PUSH0 DUP3 ADD SWAP1 POP SWAP2 SWAP1 POP JUMP JUMPDEST PUSH0 PUSH2 0x3F98 DUP3 PUSH2 0x3F6E JUMP JUMPDEST SWAP2 POP DUP2 SWAP1 POP SWAP2 SWAP1 POP JUMP JUMPDEST PUSH32 0x4661696C656420746F20736176652076616C7574000000000000000000000000 PUSH0 DUP3 ADD MSTORE POP JUMP JUMPDEST PUSH0 PUSH2 0x3FD6 PUSH1 0x14 DUP4 PUSH2 0x381B JUMP JUMPDEST SWAP2 POP PUSH2 0x3FE1 DUP3 PUSH2 0x3FA2 JUMP JUMPDEST PUSH1 0x20 DUP3 ADD SWAP1 POP SWAP2 SWAP1 POP JUMP JUMPDEST PUSH0 PUSH1 0x20 DUP3 ADD SWAP1 POP DUP2 DUP2 SUB PUSH0 DUP4 ADD MSTORE PUSH2 0x4003 DUP2 PUSH2 0x3FCA JUMP JUMPDEST SWAP1 POP SWAP2 SWAP1 POP JUMP JUMPDEST PUSH32 0x4661696C656420746F2073617665206275666665720000000000000000000000 PUSH0 DUP3 ADD MSTORE POP JUMP JUMPDEST PUSH0 PUSH2 0x403E PUSH1 0x15 DUP4 PUSH2 0x381B JUMP JUMPDEST SWAP2 POP PUSH2 0x4049 DUP3 PUSH2 0x400A JUMP JUMPDEST PUSH1 0x20 DUP3 ADD SWAP1 POP SWAP2 SWAP1 POP JUMP JUMPDEST PUSH0 PUSH1 0x20 DUP3 ADD SWAP1 POP DUP2 DUP2 SUB PUSH0 DUP4 ADD MSTORE PUSH2 0x406B DUP2 PUSH2 0x4032 JUMP JUMPDEST SWAP1 POP SWAP2 SWAP1 POP JUMP JUMPDEST PUSH0 PUSH2 0x4080 PUSH1 0x20 DUP5 ADD DUP5 PUSH2 0x31BD JUMP JUMPDEST SWAP1 POP SWAP3 SWAP2 POP POP JUMP JUMPDEST PUSH2 0x4091 DUP2 PUSH2 0x319E JUMP JUMPDEST DUP3 MSTORE POP POP JUMP JUMPDEST PUSH0 PUSH2 0x40A5 PUSH1 0x20 DUP5 ADD DUP5 PUSH2 0x314D JUMP JUMPDEST SWAP1 POP SWAP3 SWAP2 POP POP JUMP JUMPDEST PUSH2 0x40B6 DUP2 PUSH2 0x3126 JUMP JUMPDEST DUP3 MSTORE POP POP JUMP JUMPDEST PUSH1 0xE0 DUP3 ADD PUSH2 0x40CC PUSH0 DUP4 ADD DUP4 PUSH2 0x4072 JUMP JUMPDEST PUSH2 0x40D8 PUSH0 DUP6 ADD DUP3 PUSH2 0x4088 JUMP JUMPDEST POP PUSH2 0x40E6 PUSH1 0x20 DUP4 ADD DUP4 PUSH2 0x4097 JUMP JUMPDEST PUSH2 0x40F3 PUSH1 0x20 DUP6 ADD DUP3 PUSH2 0x40AD JUMP JUMPDEST POP PUSH2 0x4101 PUSH1 0x40 DUP4 ADD DUP4 PUSH2 0x4097 JUMP JUMPDEST PUSH2 0x410E PUSH1 0x40 DUP6 ADD DUP3 PUSH2 0x40AD JUMP JUMPDEST POP PUSH2 0x411C PUSH1 0x60 DUP4 ADD DUP4 PUSH2 0x4072 JUMP JUMPDEST PUSH2 0x4129 PUSH1 0x60 DUP6 ADD DUP3 PUSH2 0x4088 JUMP JUMPDEST POP PUSH2 0x4137 PUSH1 0x80 DUP4 ADD DUP4 PUSH2 0x4072 JUMP JUMPDEST PUSH2 0x4144 PUSH1 0x80 DUP6 ADD DUP3 PUSH2 0x4088 JUMP JUMPDEST POP PUSH2 0x4152 PUSH1 0xA0 DUP4 ADD DUP4 PUSH2 0x4072 JUMP JUMPDEST PUSH2 0x415F PUSH1 0xA0 DUP6 ADD DUP3 PUSH2 0x4088 JUMP JUMPDEST POP PUSH2 0x416D PUSH1 0xC0 DUP4 ADD DUP4 PUSH2 0x4072 JUMP JUMPDEST PUSH2 0x417A PUSH1 0xC0 DUP6 ADD DUP3 PUSH2 0x4088 JUMP JUMPDEST POP POP POP POP JUMP JUMPDEST PUSH0 PUSH1 0xE0 DUP3 ADD SWAP1 POP PUSH2 0x4193 PUSH0 DUP4 ADD DUP5 PUSH2 0x40BC JUMP JUMPDEST SWAP3 SWAP2 POP POP JUMP JUMPDEST PUSH0 PUSH1 0x40 DUP3 ADD SWAP1 POP PUSH2 0x41AC PUSH0 DUP4 ADD DUP6 PUSH2 0x39C1 JUMP JUMPDEST PUSH2 0x41B9 PUSH1 0x20 DUP4 ADD DUP5 PUSH2 0x3D7D JUMP JUMPDEST SWAP4 SWAP3 POP POP POP JUMP JUMPDEST PUSH32 0x4661696C656420746F207472616E73666572206E617469766500000000000000 PUSH0 DUP3 ADD MSTORE POP JUMP JUMPDEST PUSH0 PUSH2 0x41F4 PUSH1 0x19 DUP4 PUSH2 0x381B JUMP JUMPDEST SWAP2 POP PUSH2 0x41FF DUP3 PUSH2 0x41C0 JUMP JUMPDEST PUSH1 0x20 DUP3 ADD SWAP1 POP SWAP2 SWAP1 POP JUMP JUMPDEST PUSH0 PUSH1 0x20 DUP3 ADD SWAP1 POP DUP2 DUP2 SUB PUSH0 DUP4 ADD MSTORE PUSH2 0x4221 DUP2 PUSH2 0x41E8 JUMP JUMPDEST SWAP1 POP SWAP2 SWAP1 POP JUMP JUMPDEST PUSH1 0xA0 DUP3 ADD PUSH2 0x4238 PUSH0 DUP4 ADD DUP4 PUSH2 0x4097 JUMP JUMPDEST PUSH2 0x4244 PUSH0 DUP6 ADD DUP3 PUSH2 0x40AD JUMP JUMPDEST POP PUSH2 0x4252 PUSH1 0x20 DUP4 ADD DUP4 PUSH2 0x4097 JUMP JUMPDEST PUSH2 0x425F PUSH1 0x20 DUP6 ADD DUP3 PUSH2 0x40AD JUMP JUMPDEST POP PUSH2 0x426D PUSH1 0x40 DUP4 ADD DUP4 PUSH2 0x4072 JUMP JUMPDEST PUSH2 0x427A PUSH1 0x40 DUP6 ADD DUP3 PUSH2 0x4088 JUMP JUMPDEST POP PUSH2 0x4288 PUSH1 0x60 DUP4 ADD DUP4 PUSH2 0x4072 JUMP JUMPDEST PUSH2 0x4295 PUSH1 0x60 DUP6 ADD DUP3 PUSH2 0x4088 JUMP JUMPDEST POP PUSH2 0x42A3 PUSH1 0x80 DUP4 ADD DUP4 PUSH2 0x4072 JUMP JUMPDEST PUSH2 0x42B0 PUSH1 0x80 DUP6 ADD DUP3 PUSH2 0x4088 JUMP JUMPDEST POP POP POP POP JUMP JUMPDEST PUSH0 PUSH1 0xC0 DUP3 ADD SWAP1 POP PUSH2 0x42C9 PUSH0 DUP4 ADD DUP6 PUSH2 0x3D7D JUMP JUMPDEST PUSH2 0x42D6 PUSH1 0x20 DUP4 ADD DUP5 PUSH2 0x4228 JUMP JUMPDEST SWAP4 SWAP3 POP POP POP JUMP JUMPDEST PUSH0 DUP2 SWAP1 POP SWAP2 SWAP1 POP JUMP JUMPDEST PUSH0 DUP2 SWAP1 POP SWAP2 SWAP1 POP JUMP JUMPDEST PUSH0 PUSH2 0x4309 PUSH2 0x4304 PUSH2 0x42FF DUP5 PUSH2 0x42DD JUMP JUMPDEST PUSH2 0x42E6 JUMP JUMPDEST PUSH2 0x3161 JUMP JUMPDEST SWAP1 POP SWAP2 SWAP1 POP JUMP JUMPDEST PUSH2 0x4319 DUP2 PUSH2 0x42EF JUMP JUMPDEST DUP3 MSTORE POP POP JUMP JUMPDEST PUSH0 PUSH1 0x20 DUP3 ADD SWAP1 POP PUSH2 0x4332 PUSH0 DUP4 ADD DUP5 PUSH2 0x4310 JUMP JUMPDEST SWAP3 SWAP2 POP POP JUMP JUMPDEST PUSH0 DUP1 REVERT JUMPDEST PUSH0 DUP1 REVERT JUMPDEST PUSH0 DUP1 REVERT JUMPDEST PUSH0 DUP1 DUP4 CALLDATALOAD PUSH1 0x1 PUSH1 0x20 SUB DUP5 CALLDATASIZE SUB SUB DUP2 SLT PUSH2 0x4360 JUMPI PUSH2 0x435F PUSH2 0x4338 JUMP JUMPDEST JUMPDEST DUP1 DUP5 ADD SWAP3 POP DUP3 CALLDATALOAD SWAP2 POP PUSH8 0xFFFFFFFFFFFFFFFF DUP3 GT ISZERO PUSH2 0x4382 JUMPI PUSH2 0x4381 PUSH2 0x433C JUMP JUMPDEST JUMPDEST PUSH1 0x20 DUP4 ADD SWAP3 POP PUSH1 0x20 DUP3 MUL CALLDATASIZE SUB DUP4 SGT ISZERO PUSH2 0x439E JUMPI PUSH2 0x439D PUSH2 0x4340 JUMP JUMPDEST JUMPDEST POP SWAP3 POP SWAP3 SWAP1 POP JUMP JUMPDEST PUSH32 0x53776170206C656E677468206973207A65726F00000000000000000000000000 PUSH0 DUP3 ADD MSTORE POP JUMP JUMPDEST PUSH0 PUSH2 0x43DA PUSH1 0x13 DUP4 PUSH2 0x381B JUMP JUMPDEST SWAP2 POP PUSH2 0x43E5 DUP3 PUSH2 0x43A6 JUMP JUMPDEST PUSH1 0x20 DUP3 ADD SWAP1 POP SWAP2 SWAP1 POP JUMP JUMPDEST PUSH0 PUSH1 0x20 DUP3 ADD SWAP1 POP DUP2 DUP2 SUB PUSH0 DUP4 ADD MSTORE PUSH2 0x4407 DUP2 PUSH2 0x43CE JUMP JUMPDEST SWAP1 POP SWAP2 SWAP1 POP JUMP JUMPDEST PUSH32 0x4E487B7100000000000000000000000000000000000000000000000000000000 PUSH0 MSTORE PUSH1 0x32 PUSH1 0x4 MSTORE PUSH1 0x24 PUSH0 REVERT JUMPDEST PUSH0 DUP3 CALLDATALOAD PUSH1 0x1 PUSH1 0x60 SUB DUP4 CALLDATASIZE SUB SUB DUP2 SLT PUSH2 0x4456 JUMPI PUSH2 0x4455 PUSH2 0x4338 JUMP JUMPDEST JUMPDEST DUP1 DUP4 ADD SWAP2 POP POP SWAP3 SWAP2 POP POP JUMP JUMPDEST PUSH0 DUP1 DUP4 CALLDATALOAD PUSH1 0x1 PUSH1 0x20 SUB DUP5 CALLDATASIZE SUB SUB DUP2 SLT PUSH2 0x447E JUMPI PUSH2 0x447D PUSH2 0x4338 JUMP JUMPDEST JUMPDEST DUP1 DUP5 ADD SWAP3 POP DUP3 CALLDATALOAD SWAP2 POP PUSH8 0xFFFFFFFFFFFFFFFF DUP3 GT ISZERO PUSH2 0x44A0 JUMPI PUSH2 0x449F PUSH2 0x433C JUMP JUMPDEST JUMPDEST PUSH1 0x20 DUP4 ADD SWAP3 POP PUSH1 0x1 DUP3 MUL CALLDATASIZE SUB DUP4 SGT ISZERO PUSH2 0x44BC JUMPI PUSH2 0x44BB PUSH2 0x4340 JUMP JUMPDEST JUMPDEST POP SWAP3 POP SWAP3 SWAP1 POP JUMP JUMPDEST PUSH0 PUSH2 0x44CF DUP4 DUP6 PUSH2 0x39F3 JUMP JUMPDEST SWAP4 POP PUSH2 0x44DC DUP4 DUP6 DUP5 PUSH2 0x3289 JUMP JUMPDEST DUP3 DUP5 ADD SWAP1 POP SWAP4 SWAP3 POP POP POP JUMP JUMPDEST PUSH0 PUSH2 0x44F4 DUP3 DUP5 DUP7 PUSH2 0x44C4 JUMP JUMPDEST SWAP2 POP DUP2 SWAP1 POP SWAP4 SWAP3 POP POP POP JUMP JUMPDEST PUSH0 PUSH2 0x450A DUP3 PUSH2 0x319E JUMP JUMPDEST SWAP2 POP PUSH32 0xFFFFFFFFFFFFFFFFFFFFFFFFFFFFFFFFFFFFFFFFFFFFFFFFFFFFFFFFFFFFFFFF DUP3 SUB PUSH2 0x453C JUMPI PUSH2 0x453B PUSH2 0x3CDE JUMP JUMPDEST JUMPDEST PUSH1 0x1 DUP3 ADD SWAP1 POP SWAP2 SWAP1 POP JUMP JUMPDEST PUSH2 0x4550 DUP2 PUSH2 0x3161 JUMP JUMPDEST DUP3 MSTORE POP POP JUMP JUMPDEST PUSH1 0x40 DUP3 ADD PUSH0 DUP3 ADD MLOAD PUSH2 0x456A PUSH0 DUP6 ADD DUP3 PUSH2 0x40AD JUMP JUMPDEST POP PUSH1 0x20 DUP3 ADD MLOAD PUSH2 0x457D PUSH1 0x20 DUP6 ADD DUP3 PUSH2 0x4088 JUMP JUMPDEST POP POP POP POP JUMP JUMPDEST PUSH2 0x458C DUP2 PUSH2 0x321E JUMP JUMPDEST DUP3 MSTORE POP POP JUMP JUMPDEST PUSH0 DUP3 DUP3 MSTORE PUSH1 0x20 DUP3 ADD SWAP1 POP SWAP3 SWAP2 POP POP JUMP JUMPDEST PUSH0 PUSH2 0x45AC DUP3 PUSH2 0x39E9 JUMP JUMPDEST PUSH2 0x45B6 DUP2 DUP6 PUSH2 0x4592 JUMP JUMPDEST SWAP4 POP PUSH2 0x45C6 DUP2 DUP6 PUSH1 0x20 DUP7 ADD PUSH2 0x382B JUMP JUMPDEST PUSH2 0x45CF DUP2 PUSH2 0x307B JUMP JUMPDEST DUP5 ADD SWAP2 POP POP SWAP3 SWAP2 POP POP JUMP JUMPDEST PUSH0 PUSH2 0x1C0 DUP4 ADD PUSH0 DUP4 ADD MLOAD PUSH2 0x45F0 PUSH0 DUP7 ADD DUP3 PUSH2 0x40AD JUMP JUMPDEST POP PUSH1 0x20 DUP4 ADD MLOAD PUSH2 0x4603 PUSH1 0x20 DUP7 ADD DUP3 PUSH2 0x4547 JUMP JUMPDEST POP PUSH1 0x40 DUP4 ADD MLOAD PUSH2 0x4616 PUSH1 0x40 DUP7 ADD DUP3 PUSH2 0x40AD JUMP JUMPDEST POP PUSH1 0x60 DUP4 ADD MLOAD PUSH2 0x4629 PUSH1 0x60 DUP7 ADD DUP3 PUSH2 0x4547 JUMP JUMPDEST POP PUSH1 0x80 DUP4 ADD MLOAD PUSH2 0x463C PUSH1 0x80 DUP7 ADD DUP3 PUSH2 0x4556 JUMP JUMPDEST POP PUSH1 0xA0 DUP4 ADD MLOAD PUSH2 0x464F PUSH1 0xC0 DUP7 ADD DUP3 PUSH2 0x4556 JUMP JUMPDEST POP PUSH1 0xC0 DUP4 ADD MLOAD PUSH2 0x4663 PUSH2 0x100 DUP7 ADD DUP3 PUSH2 0x4088 JUMP JUMPDEST POP PUSH1 0xE0 DUP4 ADD MLOAD PUSH2 0x4677 PUSH2 0x120 DUP7 ADD DUP3 PUSH2 0x4088 JUMP JUMPDEST POP PUSH2 0x100 DUP4 ADD MLOAD PUSH2 0x468C PUSH2 0x140 DUP7 ADD DUP3 PUSH2 0x40AD JUMP JUMPDEST POP PUSH2 0x120 DUP4 ADD MLOAD PUSH2 0x46A1 PUSH2 0x160 DUP7 ADD DUP3 PUSH2 0x4583 JUMP JUMPDEST POP PUSH2 0x140 DUP4 ADD MLOAD PUSH2 0x46B6 PUSH2 0x180 DUP7 ADD DUP3 PUSH2 0x40AD JUMP JUMPDEST POP PUSH2 0x160 DUP4 ADD MLOAD DUP5 DUP3 SUB PUSH2 0x1A0 DUP7 ADD MSTORE PUSH2 0x46D0 DUP3 DUP3 PUSH2 0x45A2 JUMP JUMPDEST SWAP2 POP POP DUP1 SWAP2 POP POP SWAP3 SWAP2 POP POP JUMP JUMPDEST PUSH0 PUSH1 0x20 DUP3 ADD SWAP1 POP DUP2 DUP2 SUB PUSH0 DUP4 ADD MSTORE PUSH2 0x46F5 DUP2 DUP5 PUSH2 0x45DA JUMP JUMPDEST SWAP1 POP SWAP3 SWAP2 POP POP JUMP JUMPDEST PUSH32 0x5A65726F4164647265737320697320676976656E000000000000000000000000 PUSH0 DUP3 ADD MSTORE POP JUMP JUMPDEST PUSH0 PUSH2 0x4731 PUSH1 0x14 DUP4 PUSH2 0x381B JUMP JUMPDEST SWAP2 POP PUSH2 0x473C DUP3 PUSH2 0x46FD JUMP JUMPDEST PUSH1 0x20 DUP3 ADD SWAP1 POP SWAP2 SWAP1 POP JUMP JUMPDEST PUSH0 PUSH1 0x20 DUP3 ADD SWAP1 POP DUP2 DUP2 SUB PUSH0 DUP4 ADD MSTORE PUSH2 0x475E DUP2 PUSH2 0x4725 JUMP JUMPDEST SWAP1 POP SWAP2 SWAP1 POP JUMP JUMPDEST PUSH0 PUSH1 0x40 DUP3 ADD SWAP1 POP PUSH2 0x4778 PUSH0 DUP4 ADD DUP6 PUSH2 0x39C1 JUMP JUMPDEST PUSH2 0x4785 PUSH1 0x20 DUP4 ADD DUP5 PUSH2 0x39C1 JUMP JUMPDEST SWAP4 SWAP3 POP POP POP JUMP JUMPDEST PUSH32 0x417070726F7665206661696C6564000000000000000000000000000000000000 PUSH0 DUP3 ADD MSTORE POP JUMP JUMPDEST PUSH0 PUSH2 0x47C0 PUSH1 0xE DUP4 PUSH2 0x381B JUMP JUMPDEST SWAP2 POP PUSH2 0x47CB DUP3 PUSH2 0x478C JUMP JUMPDEST PUSH1 0x20 DUP3 ADD SWAP1 POP SWAP2 SWAP1 POP JUMP JUMPDEST PUSH0 PUSH1 0x20 DUP3 ADD SWAP1 POP DUP2 DUP2 SUB PUSH0 DUP4 ADD MSTORE PUSH2 0x47ED DUP2 PUSH2 0x47B4 JUMP JUMPDEST SWAP1 POP SWAP2 SWAP1 POP JUMP JUMPDEST PUSH0 DUP2 SWAP1 POP SWAP2 SWAP1 POP JUMP JUMPDEST PUSH2 0x480E PUSH2 0x4809 DUP3 PUSH2 0x319E JUMP JUMPDEST PUSH2 0x47F4 JUMP JUMPDEST DUP3 MSTORE POP POP JUMP JUMPDEST PUSH0 DUP2 PUSH1 0x60 SHL SWAP1 POP SWAP2 SWAP1 POP JUMP JUMPDEST PUSH0 PUSH2 0x482A DUP3 PUSH2 0x4814 JUMP JUMPDEST SWAP1 POP SWAP2 SWAP1 POP JUMP JUMPDEST PUSH0 PUSH2 0x483B DUP3 PUSH2 0x4820 JUMP JUMPDEST SWAP1 POP SWAP2 SWAP1 POP JUMP JUMPDEST PUSH2 0x4853 PUSH2 0x484E DUP3 PUSH2 0x3126 JUMP JUMPDEST PUSH2 0x4831 JUMP JUMPDEST DUP3 MSTORE POP POP JUMP JUMPDEST PUSH0 PUSH2 0x4864 DUP3 DUP11 PUSH2 0x47FD JUMP JUMPDEST PUSH1 0x20 DUP3 ADD SWAP2 POP PUSH2 0x4874 DUP3 DUP10 PUSH2 0x4842 JUMP JUMPDEST PUSH1 0x14 DUP3 ADD SWAP2 POP PUSH2 0x4884 DUP3 DUP9 PUSH2 0x4842 JUMP JUMPDEST PUSH1 0x14 DUP3 ADD SWAP2 POP PUSH2 0x4894 DUP3 DUP8 PUSH2 0x47FD JUMP JUMPDEST PUSH1 0x20 DUP3 ADD SWAP2 POP PUSH2 0x48A4 DUP3 DUP7 PUSH2 0x47FD JUMP JUMPDEST PUSH1 0x20 DUP3 ADD SWAP2 POP PUSH2 0x48B4 DUP3 DUP6 PUSH2 0x47FD JUMP JUMPDEST PUSH1 0x20 DUP3 ADD SWAP2 POP PUSH2 0x48C4 DUP3 DUP5 PUSH2 0x47FD JUMP JUMPDEST PUSH1 0x20 DUP3 ADD SWAP2 POP DUP2 SWAP1 POP SWAP9 SWAP8 POP POP POP POP POP POP POP POP JUMP JUMPDEST PUSH0 DUP2 SWAP1 POP SWAP3 SWAP2 POP POP JUMP JUMPDEST PUSH32 0x19457468657265756D205369676E6564204D6573736167653A0A333200000000 PUSH0 DUP3 ADD MSTORE POP JUMP JUMPDEST PUSH0 PUSH2 0x4917 PUSH1 0x1C DUP4 PUSH2 0x48D9 JUMP JUMPDEST SWAP2 POP PUSH2 0x4922 DUP3 PUSH2 0x48E3 JUMP JUMPDEST PUSH1 0x1C DUP3 ADD SWAP1 POP SWAP2 SWAP1 POP JUMP JUMPDEST PUSH0 DUP2 SWAP1 POP SWAP2 SWAP1 POP JUMP JUMPDEST PUSH2 0x4947 PUSH2 0x4942 DUP3 PUSH2 0x321E JUMP JUMPDEST PUSH2 0x492D JUMP JUMPDEST DUP3 MSTORE POP POP JUMP JUMPDEST PUSH0 PUSH2 0x4957 DUP3 PUSH2 0x490B JUMP JUMPDEST SWAP2 POP PUSH2 0x4963 DUP3 DUP5 PUSH2 0x4936 JUMP JUMPDEST PUSH1 0x20 DUP3 ADD SWAP2 POP DUP2 SWAP1 POP SWAP3 SWAP2 POP POP JUMP JUMPDEST PUSH0 DUP2 MLOAD SWAP1 POP PUSH2 0x4980 DUP2 PUSH2 0x3227 JUMP JUMPDEST SWAP3 SWAP2 POP POP JUMP JUMPDEST PUSH0 PUSH1 0x20 DUP3 DUP5 SUB SLT ISZERO PUSH2 0x499B JUMPI PUSH2 0x499A PUSH2 0x2FBC JUMP JUMPDEST JUMPDEST PUSH0 PUSH2 0x49A8 DUP5 DUP3 DUP6 ADD PUSH2 0x4972 JUMP JUMPDEST SWAP2 POP POP SWAP3 SWAP2 POP POP JUMP JUMPDEST PUSH0 DUP3 CALLDATALOAD PUSH1 0x1 PUSH1 0xE0 SUB DUP4 CALLDATASIZE SUB SUB DUP2 SLT PUSH2 0x49CC JUMPI PUSH2 0x49CB PUSH2 0x4338 JUMP JUMPDEST JUMPDEST DUP1 DUP4 ADD SWAP2 POP POP SWAP3 SWAP2 POP POP JUMP JUMPDEST PUSH0 PUSH1 0x40 DUP3 ADD SWAP1 POP PUSH2 0x49EB PUSH0 DUP4 ADD DUP6 PUSH2 0x3D7D JUMP JUMPDEST DUP2 DUP2 SUB PUSH1 0x20 DUP4 ADD MSTORE PUSH2 0x49FD DUP2 DUP5 PUSH2 0x3A53 JUMP JUMPDEST SWAP1 POP SWAP4 SWAP3 POP POP POP JUMP JUMPDEST PUSH32 0x496E73756666696369656E74206F757470757400000000000000000000000000 PUSH0 DUP3 ADD MSTORE POP JUMP JUMPDEST PUSH0 PUSH2 0x4A3A PUSH1 0x13 DUP4 PUSH2 0x381B JUMP JUMPDEST SWAP2 POP PUSH2 0x4A45 DUP3 PUSH2 0x4A06 JUMP JUMPDEST PUSH1 0x20 DUP3 ADD SWAP1 POP SWAP2 SWAP1 POP JUMP JUMPDEST PUSH0 PUSH1 0x20 DUP3 ADD SWAP1 POP DUP2 DUP2 SUB PUSH0 DUP4 ADD MSTORE PUSH2 0x4A67 DUP2 PUSH2 0x4A2E JUMP JUMPDEST SWAP1 POP SWAP2 SWAP1 POP JUMP JUMPDEST PUSH0 PUSH1 0x40 DUP3 ADD SWAP1 POP PUSH2 0x4A81 PUSH0 DUP4 ADD DUP6 PUSH2 0x39C1 JUMP JUMPDEST PUSH2 0x4A8E PUSH1 0x20 DUP4 ADD DUP5 PUSH2 0x363B JUMP JUMPDEST SWAP4 SWAP3 POP POP POP JUMP JUMPDEST PUSH32 0x4E487B7100000000000000000000000000000000000000000000000000000000 PUSH0 MSTORE PUSH1 0x21 PUSH1 0x4 MSTORE PUSH1 0x24 PUSH0 REVERT JUMPDEST PUSH0 PUSH1 0x20 DUP3 ADD SWAP1 POP PUSH2 0x4AD5 PUSH0 DUP4 ADD DUP5 PUSH2 0x3D7D JUMP JUMPDEST SWAP3 SWAP2 POP POP JUMP JUMPDEST PUSH0 PUSH1 0xFF DUP3 AND SWAP1 POP SWAP2 SWAP1 POP JUMP JUMPDEST PUSH2 0x4AF0 DUP2 PUSH2 0x4ADB JUMP JUMPDEST DUP3 MSTORE POP POP JUMP JUMPDEST PUSH0 PUSH1 0x80 DUP3 ADD SWAP1 POP PUSH2 0x4B09 PUSH0 DUP4 ADD DUP8 PUSH2 0x363B JUMP JUMPDEST PUSH2 0x4B16 PUSH1 0x20 DUP4 ADD DUP7 PUSH2 0x4AE7 JUMP JUMPDEST PUSH2 0x4B23 PUSH1 0x40 DUP4 ADD DUP6 PUSH2 0x363B JUMP JUMPDEST PUSH2 0x4B30 PUSH1 0x60 DUP4 ADD DUP5 PUSH2 0x363B JUMP JUMPDEST SWAP6 SWAP5 POP POP POP POP POP JUMP INVALID LOG2 PUSH5 0x6970667358 0x22 SLT KECCAK256 0x2E MUL PUSH23 0x2ADA47DC2967A916200D14161373B2CC50DC2FA6FFF8A8 0xAC 0xBC DUP3 EXTCODEHASH PUSH10 0xD564736F6C6343000814 STOP CALLER "
		},
		"gasEstimates": {
			"creation": {
				"codeDepositCost": "3862200",
				"executionCost": "infinite",
				"totalCost": "infinite"
			},
			"external": {
				"AGGREGATOR_LIFI()": "369",
				"BRIDGE_UNABRIDGE()": "371",
				"DEFAULT_ADMIN_ROLE()": "375",
				"MUDSKIPPER_BUFFER()": "391",
				"MUDSKIPPER_MANAGER()": "435",
				"MUDSKIPPER_RESERVE()": "392",
				"MUDSKIPPER_VAULT()": "393",
				"TICKET_PUBLISHER()": "370",
				"TX_RELAYER()": "437",
				"UPGRADE_INTERFACE_VERSION()": "infinite",
				"addressRegistry(bytes32)": "2914",
				"approveMax(address,address,uint256)": "infinite",
				"bridgeViaLiFi(uint256,bytes)": "infinite",
				"bridgeViaUnaBridge((address,uint64,address,uint64,(address,uint256),(address,uint256),uint256,uint256,address,bytes32,address,bytes))": "infinite",
				"callArbitrary((address,uint256,bytes)[])": "infinite",
				"circuitBreaker(bool)": "27262",
				"denyRequest()": "2533",
				"getRoleAdmin(bytes32)": "infinite",
				"grantRole(bytes32,address)": "infinite",
				"hasRole(bytes32,address)": "3286",
				"initialize()": "infinite",
				"proxiableUUID()": "infinite",
				"rejectTransfer(uint256,(address,address,uint256,uint256,uint256))": "infinite",
				"renounceRole(bytes32,address)": "infinite",
				"requestTransfer((uint256,address,address,uint256,uint256,uint256,uint256),bytes)": "infinite",
				"revokeRole(bytes32,address)": "infinite",
				"supportsInterface(bytes4)": "764",
				"swap(((address,address,address,uint256,address,bytes,bool)[],address,uint256))": "infinite",
				"swapAndUnaBridge(((address,address,address,uint256,address,bytes,bool)[],address,uint256),(address,uint64,address,uint64,(address,uint256),(address,uint256),uint256,uint256,address,bytes32,address,bytes))": "infinite",
				"upgradeToAndCall(address,bytes)": "infinite",
				"writeRegistry(bytes32,address)": "infinite"
			},
			"internal": {
				"_approveMax(address,address,uint256)": "infinite",
				"_authorizeUpgrade(address)": "infinite",
				"_bridgeViaUnaBridge(struct UnaTypes.ExitERC20 memory)": "infinite",
				"_getBalance(address,address)": "infinite",
				"_serializeTicket(struct IMudskipper.RequestTicket calldata)": "infinite",
				"_swap(struct IMudskipper.SwapRequest calldata)": "infinite",
				"_validateSignature(bytes32,bytes memory,bytes calldata)": "infinite"
			}
		},
		"methodIdentifiers": {
			"AGGREGATOR_LIFI()": "dab5bb8f",
			"BRIDGE_UNABRIDGE()": "609ab6ec",
			"DEFAULT_ADMIN_ROLE()": "a217fddf",
			"MUDSKIPPER_BUFFER()": "db404538",
			"MUDSKIPPER_MANAGER()": "ffb77395",
			"MUDSKIPPER_RESERVE()": "50bb43fe",
			"MUDSKIPPER_VAULT()": "2bca2a83",
			"TICKET_PUBLISHER()": "b0079683",
			"TX_RELAYER()": "25d91df4",
			"UPGRADE_INTERFACE_VERSION()": "ad3cb1cc",
			"addressRegistry(bytes32)": "ef4dd55d",
			"approveMax(address,address,uint256)": "16fb0943",
			"bridgeViaLiFi(uint256,bytes)": "145ba058",
			"bridgeViaUnaBridge((address,uint64,address,uint64,(address,uint256),(address,uint256),uint256,uint256,address,bytes32,address,bytes))": "085b21d1",
			"callArbitrary((address,uint256,bytes)[])": "bc53bba9",
			"circuitBreaker(bool)": "80fe39c8",
			"denyRequest()": "a4a44a22",
			"getRoleAdmin(bytes32)": "248a9ca3",
			"grantRole(bytes32,address)": "2f2ff15d",
			"hasRole(bytes32,address)": "91d14854",
			"initialize()": "8129fc1c",
			"proxiableUUID()": "52d1902d",
			"rejectTransfer(uint256,(address,address,uint256,uint256,uint256))": "2b432c39",
			"renounceRole(bytes32,address)": "36568abe",
			"requestTransfer((uint256,address,address,uint256,uint256,uint256,uint256),bytes)": "1c3f6eab",
			"revokeRole(bytes32,address)": "d547741f",
			"supportsInterface(bytes4)": "01ffc9a7",
			"swap(((address,address,address,uint256,address,bytes,bool)[],address,uint256))": "ab995411",
			"swapAndUnaBridge(((address,address,address,uint256,address,bytes,bool)[],address,uint256),(address,uint64,address,uint64,(address,uint256),(address,uint256),uint256,uint256,address,bytes32,address,bytes))": "d36791dc",
			"upgradeToAndCall(address,bytes)": "4f1ef286",
			"writeRegistry(bytes32,address)": "50d336ed"
		}
	},
	"abi": [
		{
			"inputs": [],
			"stateMutability": "nonpayable",
			"type": "constructor"
		},
		{
			"inputs": [],
			"name": "AccessControlBadConfirmation",
			"type": "error"
		},
		{
			"inputs": [
				{
					"internalType": "address",
					"name": "account",
					"type": "address"
				},
				{
					"internalType": "bytes32",
					"name": "neededRole",
					"type": "bytes32"
				}
			],
			"name": "AccessControlUnauthorizedAccount",
			"type": "error"
		},
		{
			"inputs": [
				{
					"internalType": "address",
					"name": "target",
					"type": "address"
				}
			],
			"name": "AddressEmptyCode",
			"type": "error"
		},
		{
			"inputs": [],
			"name": "ECDSAInvalidSignature",
			"type": "error"
		},
		{
			"inputs": [
				{
					"internalType": "uint256",
					"name": "length",
					"type": "uint256"
				}
			],
			"name": "ECDSAInvalidSignatureLength",
			"type": "error"
		},
		{
			"inputs": [
				{
					"internalType": "bytes32",
					"name": "s",
					"type": "bytes32"
				}
			],
			"name": "ECDSAInvalidSignatureS",
			"type": "error"
		},
		{
			"inputs": [
				{
					"internalType": "address",
					"name": "implementation",
					"type": "address"
				}
			],
			"name": "ERC1967InvalidImplementation",
			"type": "error"
		},
		{
			"inputs": [],
			"name": "ERC1967NonPayable",
			"type": "error"
		},
		{
			"inputs": [],
			"name": "FailedInnerCall",
			"type": "error"
		},
		{
			"inputs": [],
			"name": "InvalidInitialization",
			"type": "error"
		},
		{
			"inputs": [
				{
					"internalType": "bytes",
					"name": "reason",
					"type": "bytes"
				}
			],
			"name": "LiFiFailed",
			"type": "error"
		},
		{
			"inputs": [
				{
					"internalType": "bytes",
					"name": "reason",
					"type": "bytes"
				}
			],
			"name": "LowlevelError",
			"type": "error"
		},
		{
			"inputs": [],
			"name": "NotInitializing",
			"type": "error"
		},
		{
			"inputs": [
				{
					"internalType": "uint256",
					"name": "failedIndex",
					"type": "uint256"
				},
				{
					"internalType": "bytes",
					"name": "reason",
					"type": "bytes"
				}
			],
			"name": "SwapFailed",
			"type": "error"
		},
		{
			"inputs": [],
			"name": "UUPSUnauthorizedCallContext",
			"type": "error"
		},
		{
			"inputs": [
				{
					"internalType": "bytes32",
					"name": "slot",
					"type": "bytes32"
				}
			],
			"name": "UUPSUnsupportedProxiableUUID",
			"type": "error"
		},
		{
			"anonymous": false,
			"inputs": [
				{
					"indexed": false,
					"internalType": "uint64",
					"name": "version",
					"type": "uint64"
				}
			],
			"name": "Initialized",
			"type": "event"
		},
		{
			"anonymous": false,
			"inputs": [
				{
					"indexed": true,
					"internalType": "bytes32",
					"name": "role",
					"type": "bytes32"
				},
				{
					"indexed": true,
					"internalType": "bytes32",
					"name": "previousAdminRole",
					"type": "bytes32"
				},
				{
					"indexed": true,
					"internalType": "bytes32",
					"name": "newAdminRole",
					"type": "bytes32"
				}
			],
			"name": "RoleAdminChanged",
			"type": "event"
		},
		{
			"anonymous": false,
			"inputs": [
				{
					"indexed": true,
					"internalType": "bytes32",
					"name": "role",
					"type": "bytes32"
				},
				{
					"indexed": true,
					"internalType": "address",
					"name": "account",
					"type": "address"
				},
				{
					"indexed": true,
					"internalType": "address",
					"name": "sender",
					"type": "address"
				}
			],
			"name": "RoleGranted",
			"type": "event"
		},
		{
			"anonymous": false,
			"inputs": [
				{
					"indexed": true,
					"internalType": "bytes32",
					"name": "role",
					"type": "bytes32"
				},
				{
					"indexed": true,
					"internalType": "address",
					"name": "account",
					"type": "address"
				},
				{
					"indexed": true,
					"internalType": "address",
					"name": "sender",
					"type": "address"
				}
			],
			"name": "RoleRevoked",
			"type": "event"
		},
		{
			"anonymous": false,
			"inputs": [
				{
					"indexed": true,
					"internalType": "uint256",
					"name": "ticketID",
					"type": "uint256"
				},
				{
					"indexed": false,
					"internalType": "uint256",
					"name": "revertFee",
					"type": "uint256"
				},
				{
					"components": [
						{
							"internalType": "address",
							"name": "requester",
							"type": "address"
						},
						{
							"internalType": "address",
							"name": "asset",
							"type": "address"
						},
						{
							"internalType": "uint256",
							"name": "quantity",
							"type": "uint256"
						},
						{
							"internalType": "uint256",
							"name": "collectedFee",
							"type": "uint256"
						},
						{
							"internalType": "uint256",
							"name": "revertFee",
							"type": "uint256"
						}
					],
					"indexed": false,
					"internalType": "struct IMudskipper.Deposit",
					"name": "returnedDeposit",
					"type": "tuple"
				}
			],
			"name": "TransferRejected",
			"type": "event"
		},
		{
			"anonymous": false,
			"inputs": [
				{
					"components": [
						{
							"internalType": "uint256",
							"name": "id",
							"type": "uint256"
						},
						{
							"internalType": "address",
							"name": "sender",
							"type": "address"
						},
						{
							"internalType": "address",
							"name": "asset",
							"type": "address"
						},
						{
							"internalType": "uint256",
							"name": "quantity",
							"type": "uint256"
						},
						{
							"internalType": "uint256",
							"name": "fee",
							"type": "uint256"
						},
						{
							"internalType": "uint256",
							"name": "funding",
							"type": "uint256"
						},
						{
							"internalType": "uint256",
							"name": "deadline",
							"type": "uint256"
						}
					],
					"indexed": false,
					"internalType": "struct IMudskipper.RequestTicket",
					"name": "ticket",
					"type": "tuple"
				}
			],
			"name": "TransferRequested",
			"type": "event"
		},
		{
			"anonymous": false,
			"inputs": [
				{
					"indexed": true,
					"internalType": "address",
					"name": "implementation",
					"type": "address"
				}
			],
			"name": "Upgraded",
			"type": "event"
		},
		{
			"inputs": [],
			"name": "AGGREGATOR_LIFI",
			"outputs": [
				{
					"internalType": "bytes32",
					"name": "",
					"type": "bytes32"
				}
			],
			"stateMutability": "view",
			"type": "function"
		},
		{
			"inputs": [],
			"name": "BRIDGE_UNABRIDGE",
			"outputs": [
				{
					"internalType": "bytes32",
					"name": "",
					"type": "bytes32"
				}
			],
			"stateMutability": "view",
			"type": "function"
		},
		{
			"inputs": [],
			"name": "DEFAULT_ADMIN_ROLE",
			"outputs": [
				{
					"internalType": "bytes32",
					"name": "",
					"type": "bytes32"
				}
			],
			"stateMutability": "view",
			"type": "function"
		},
		{
			"inputs": [],
			"name": "MUDSKIPPER_BUFFER",
			"outputs": [
				{
					"internalType": "bytes32",
					"name": "",
					"type": "bytes32"
				}
			],
			"stateMutability": "view",
			"type": "function"
		},
		{
			"inputs": [],
			"name": "MUDSKIPPER_MANAGER",
			"outputs": [
				{
					"internalType": "bytes32",
					"name": "",
					"type": "bytes32"
				}
			],
			"stateMutability": "view",
			"type": "function"
		},
		{
			"inputs": [],
			"name": "MUDSKIPPER_RESERVE",
			"outputs": [
				{
					"internalType": "bytes32",
					"name": "",
					"type": "bytes32"
				}
			],
			"stateMutability": "view",
			"type": "function"
		},
		{
			"inputs": [],
			"name": "MUDSKIPPER_VAULT",
			"outputs": [
				{
					"internalType": "bytes32",
					"name": "",
					"type": "bytes32"
				}
			],
			"stateMutability": "view",
			"type": "function"
		},
		{
			"inputs": [],
			"name": "TICKET_PUBLISHER",
			"outputs": [
				{
					"internalType": "bytes32",
					"name": "",
					"type": "bytes32"
				}
			],
			"stateMutability": "view",
			"type": "function"
		},
		{
			"inputs": [],
			"name": "TX_RELAYER",
			"outputs": [
				{
					"internalType": "bytes32",
					"name": "",
					"type": "bytes32"
				}
			],
			"stateMutability": "view",
			"type": "function"
		},
		{
			"inputs": [],
			"name": "UPGRADE_INTERFACE_VERSION",
			"outputs": [
				{
					"internalType": "string",
					"name": "",
					"type": "string"
				}
			],
			"stateMutability": "view",
			"type": "function"
		},
		{
			"inputs": [
				{
					"internalType": "bytes32",
					"name": "",
					"type": "bytes32"
				}
			],
			"name": "addressRegistry",
			"outputs": [
				{
					"internalType": "address",
					"name": "",
					"type": "address"
				}
			],
			"stateMutability": "view",
			"type": "function"
		},
		{
			"inputs": [
				{
					"internalType": "address",
					"name": "token",
					"type": "address"
				},
				{
					"internalType": "address",
					"name": "to",
					"type": "address"
				},
				{
					"internalType": "uint256",
					"name": "min",
					"type": "uint256"
				}
			],
			"name": "approveMax",
			"outputs": [],
			"stateMutability": "nonpayable",
			"type": "function"
		},
		{
			"inputs": [
				{
					"internalType": "uint256",
					"name": "value",
					"type": "uint256"
				},
				{
					"internalType": "bytes",
					"name": "data",
					"type": "bytes"
				}
			],
			"name": "bridgeViaLiFi",
			"outputs": [
				{
					"internalType": "bool",
					"name": "",
					"type": "bool"
				}
			],
			"stateMutability": "payable",
			"type": "function"
		},
		{
			"inputs": [
				{
					"components": [
						{
							"internalType": "address",
							"name": "from",
							"type": "address"
						},
						{
							"internalType": "uint64",
							"name": "dstChain",
							"type": "uint64"
						},
						{
							"internalType": "address",
							"name": "to",
							"type": "address"
						},
						{
							"internalType": "uint64",
							"name": "gasLimit",
							"type": "uint64"
						},
						{
							"components": [
								{
									"internalType": "address",
									"name": "token",
									"type": "address"
								},
								{
									"internalType": "uint256",
									"name": "amount",
									"type": "uint256"
								}
							],
							"internalType": "struct Client.EVMTokenAmount",
							"name": "ccipFeeTokenAmountForCurrChain",
							"type": "tuple"
						},
						{
							"components": [
								{
									"internalType": "address",
									"name": "token",
									"type": "address"
								},
								{
									"internalType": "uint256",
									"name": "amount",
									"type": "uint256"
								}
							],
							"internalType": "struct Client.EVMTokenAmount",
							"name": "ccipFeeTokenAmountForNextChain",
							"type": "tuple"
						},
						{
							"internalType": "uint256",
							"name": "totalAmount",
							"type": "uint256"
						},
						{
							"internalType": "uint256",
							"name": "bridgedAmount",
							"type": "uint256"
						},
						{
							"internalType": "address",
							"name": "srcToken",
							"type": "address"
						},
						{
							"internalType": "bytes32",
							"name": "metaHash",
							"type": "bytes32"
						},
						{
							"internalType": "address",
							"name": "contractAddress",
							"type": "address"
						},
						{
							"internalType": "bytes",
							"name": "inputs",
							"type": "bytes"
						}
					],
					"internalType": "struct UnaTypes.ExitERC20",
					"name": "unaBridgeCalldata",
					"type": "tuple"
				}
			],
			"name": "bridgeViaUnaBridge",
			"outputs": [
				{
					"internalType": "bool",
					"name": "success",
					"type": "bool"
				}
			],
			"stateMutability": "payable",
			"type": "function"
		},
		{
			"inputs": [
				{
					"components": [
						{
							"internalType": "address",
							"name": "to",
							"type": "address"
						},
						{
							"internalType": "uint256",
							"name": "value",
							"type": "uint256"
						},
						{
							"internalType": "bytes",
							"name": "data",
							"type": "bytes"
						}
					],
					"internalType": "struct IMudskipper.Tx[]",
					"name": "txs",
					"type": "tuple[]"
				}
			],
			"name": "callArbitrary",
			"outputs": [
				{
					"internalType": "bool",
					"name": "",
					"type": "bool"
				}
			],
			"stateMutability": "nonpayable",
			"type": "function"
		},
		{
			"inputs": [
				{
					"internalType": "bool",
					"name": "_break",
					"type": "bool"
				}
			],
			"name": "circuitBreaker",
			"outputs": [],
			"stateMutability": "nonpayable",
			"type": "function"
		},
		{
			"inputs": [],
			"name": "denyRequest",
			"outputs": [
				{
					"internalType": "bool",
					"name": "",
					"type": "bool"
				}
			],
			"stateMutability": "view",
			"type": "function"
		},
		{
			"inputs": [
				{
					"internalType": "bytes32",
					"name": "role",
					"type": "bytes32"
				}
			],
			"name": "getRoleAdmin",
			"outputs": [
				{
					"internalType": "bytes32",
					"name": "",
					"type": "bytes32"
				}
			],
			"stateMutability": "view",
			"type": "function"
		},
		{
			"inputs": [
				{
					"internalType": "bytes32",
					"name": "role",
					"type": "bytes32"
				},
				{
					"internalType": "address",
					"name": "account",
					"type": "address"
				}
			],
			"name": "grantRole",
			"outputs": [],
			"stateMutability": "nonpayable",
			"type": "function"
		},
		{
			"inputs": [
				{
					"internalType": "bytes32",
					"name": "role",
					"type": "bytes32"
				},
				{
					"internalType": "address",
					"name": "account",
					"type": "address"
				}
			],
			"name": "hasRole",
			"outputs": [
				{
					"internalType": "bool",
					"name": "",
					"type": "bool"
				}
			],
			"stateMutability": "view",
			"type": "function"
		},
		{
			"inputs": [],
			"name": "initialize",
			"outputs": [],
			"stateMutability": "nonpayable",
			"type": "function"
		},
		{
			"inputs": [],
			"name": "proxiableUUID",
			"outputs": [
				{
					"internalType": "bytes32",
					"name": "",
					"type": "bytes32"
				}
			],
			"stateMutability": "view",
			"type": "function"
		},
		{
			"inputs": [
				{
					"internalType": "uint256",
					"name": "ticketID",
					"type": "uint256"
				},
				{
					"components": [
						{
							"internalType": "address",
							"name": "requester",
							"type": "address"
						},
						{
							"internalType": "address",
							"name": "asset",
							"type": "address"
						},
						{
							"internalType": "uint256",
							"name": "quantity",
							"type": "uint256"
						},
						{
							"internalType": "uint256",
							"name": "collectedFee",
							"type": "uint256"
						},
						{
							"internalType": "uint256",
							"name": "revertFee",
							"type": "uint256"
						}
					],
					"internalType": "struct IMudskipper.Deposit",
					"name": "deposit",
					"type": "tuple"
				}
			],
			"name": "rejectTransfer",
			"outputs": [
				{
					"internalType": "bool",
					"name": "success",
					"type": "bool"
				}
			],
			"stateMutability": "payable",
			"type": "function"
		},
		{
			"inputs": [
				{
					"internalType": "bytes32",
					"name": "role",
					"type": "bytes32"
				},
				{
					"internalType": "address",
					"name": "callerConfirmation",
					"type": "address"
				}
			],
			"name": "renounceRole",
			"outputs": [],
			"stateMutability": "nonpayable",
			"type": "function"
		},
		{
			"inputs": [
				{
					"components": [
						{
							"internalType": "uint256",
							"name": "id",
							"type": "uint256"
						},
						{
							"internalType": "address",
							"name": "sender",
							"type": "address"
						},
						{
							"internalType": "address",
							"name": "asset",
							"type": "address"
						},
						{
							"internalType": "uint256",
							"name": "quantity",
							"type": "uint256"
						},
						{
							"internalType": "uint256",
							"name": "fee",
							"type": "uint256"
						},
						{
							"internalType": "uint256",
							"name": "funding",
							"type": "uint256"
						},
						{
							"internalType": "uint256",
							"name": "deadline",
							"type": "uint256"
						}
					],
					"internalType": "struct IMudskipper.RequestTicket",
					"name": "ticket",
					"type": "tuple"
				},
				{
					"internalType": "bytes",
					"name": "signature",
					"type": "bytes"
				}
			],
			"name": "requestTransfer",
			"outputs": [
				{
					"internalType": "bool",
					"name": "success",
					"type": "bool"
				}
			],
			"stateMutability": "payable",
			"type": "function"
		},
		{
			"inputs": [
				{
					"internalType": "bytes32",
					"name": "role",
					"type": "bytes32"
				},
				{
					"internalType": "address",
					"name": "account",
					"type": "address"
				}
			],
			"name": "revokeRole",
			"outputs": [],
			"stateMutability": "nonpayable",
			"type": "function"
		},
		{
			"inputs": [
				{
					"internalType": "bytes4",
					"name": "interfaceId",
					"type": "bytes4"
				}
			],
			"name": "supportsInterface",
			"outputs": [
				{
					"internalType": "bool",
					"name": "",
					"type": "bool"
				}
			],
			"stateMutability": "view",
			"type": "function"
		},
		{
			"inputs": [
				{
					"components": [
						{
							"components": [
								{
									"internalType": "address",
									"name": "callTo",
									"type": "address"
								},
								{
									"internalType": "address",
									"name": "approveTo",
									"type": "address"
								},
								{
									"internalType": "address",
									"name": "fromAsset",
									"type": "address"
								},
								{
									"internalType": "uint256",
									"name": "fromQuantity",
									"type": "uint256"
								},
								{
									"internalType": "address",
									"name": "toAsset",
									"type": "address"
								},
								{
									"internalType": "bytes",
									"name": "callData",
									"type": "bytes"
								},
								{
									"internalType": "bool",
									"name": "requiresDeposit",
									"type": "bool"
								}
							],
							"internalType": "struct IMudskipper.SwapData[]",
							"name": "swapData",
							"type": "tuple[]"
						},
						{
							"internalType": "address",
							"name": "recipient",
							"type": "address"
						},
						{
							"internalType": "uint256",
							"name": "minOutput",
							"type": "uint256"
						}
					],
					"internalType": "struct IMudskipper.SwapRequest",
					"name": "swapRequest",
					"type": "tuple"
				}
			],
			"name": "swap",
			"outputs": [
				{
					"internalType": "bool",
					"name": "success",
					"type": "bool"
				}
			],
			"stateMutability": "nonpayable",
			"type": "function"
		},
		{
			"inputs": [
				{
					"components": [
						{
							"components": [
								{
									"internalType": "address",
									"name": "callTo",
									"type": "address"
								},
								{
									"internalType": "address",
									"name": "approveTo",
									"type": "address"
								},
								{
									"internalType": "address",
									"name": "fromAsset",
									"type": "address"
								},
								{
									"internalType": "uint256",
									"name": "fromQuantity",
									"type": "uint256"
								},
								{
									"internalType": "address",
									"name": "toAsset",
									"type": "address"
								},
								{
									"internalType": "bytes",
									"name": "callData",
									"type": "bytes"
								},
								{
									"internalType": "bool",
									"name": "requiresDeposit",
									"type": "bool"
								}
							],
							"internalType": "struct IMudskipper.SwapData[]",
							"name": "swapData",
							"type": "tuple[]"
						},
						{
							"internalType": "address",
							"name": "recipient",
							"type": "address"
						},
						{
							"internalType": "uint256",
							"name": "minOutput",
							"type": "uint256"
						}
					],
					"internalType": "struct IMudskipper.SwapRequest",
					"name": "swapRequest",
					"type": "tuple"
				},
				{
					"components": [
						{
							"internalType": "address",
							"name": "from",
							"type": "address"
						},
						{
							"internalType": "uint64",
							"name": "dstChain",
							"type": "uint64"
						},
						{
							"internalType": "address",
							"name": "to",
							"type": "address"
						},
						{
							"internalType": "uint64",
							"name": "gasLimit",
							"type": "uint64"
						},
						{
							"components": [
								{
									"internalType": "address",
									"name": "token",
									"type": "address"
								},
								{
									"internalType": "uint256",
									"name": "amount",
									"type": "uint256"
								}
							],
							"internalType": "struct Client.EVMTokenAmount",
							"name": "ccipFeeTokenAmountForCurrChain",
							"type": "tuple"
						},
						{
							"components": [
								{
									"internalType": "address",
									"name": "token",
									"type": "address"
								},
								{
									"internalType": "uint256",
									"name": "amount",
									"type": "uint256"
								}
							],
							"internalType": "struct Client.EVMTokenAmount",
							"name": "ccipFeeTokenAmountForNextChain",
							"type": "tuple"
						},
						{
							"internalType": "uint256",
							"name": "totalAmount",
							"type": "uint256"
						},
						{
							"internalType": "uint256",
							"name": "bridgedAmount",
							"type": "uint256"
						},
						{
							"internalType": "address",
							"name": "srcToken",
							"type": "address"
						},
						{
							"internalType": "bytes32",
							"name": "metaHash",
							"type": "bytes32"
						},
						{
							"internalType": "address",
							"name": "contractAddress",
							"type": "address"
						},
						{
							"internalType": "bytes",
							"name": "inputs",
							"type": "bytes"
						}
					],
					"internalType": "struct UnaTypes.ExitERC20",
					"name": "unaBridgeCalldata",
					"type": "tuple"
				}
			],
			"name": "swapAndUnaBridge",
			"outputs": [
				{
					"internalType": "bool",
					"name": "success",
					"type": "bool"
				}
			],
			"stateMutability": "payable",
			"type": "function"
		},
		{
			"inputs": [
				{
					"internalType": "address",
					"name": "newImplementation",
					"type": "address"
				},
				{
					"internalType": "bytes",
					"name": "data",
					"type": "bytes"
				}
			],
			"name": "upgradeToAndCall",
			"outputs": [],
			"stateMutability": "payable",
			"type": "function"
		},
		{
			"inputs": [
				{
					"internalType": "bytes32",
					"name": "key",
					"type": "bytes32"
				},
				{
					"internalType": "address",
					"name": "addr",
					"type": "address"
				}
			],
			"name": "writeRegistry",
			"outputs": [],
			"stateMutability": "nonpayable",
			"type": "function"
		}
	]
}