{
	"data": {
		"bytecode": {
			"linkReferences": {},
			"object": "60a06040523073ffffffffffffffffffffffffffffffffffffffff1660809073ffffffffffffffffffffffffffffffffffffffff1681525034801562000043575f80fd5b50620000546200005a60201b60201c565b620001c4565b5f6200006b6200015e60201b60201c565b9050805f0160089054906101000a900460ff1615620000b6576040517ff92ee8a900000000000000000000000000000000000000000000000000000000815260040160405180910390fd5b67ffffffffffffffff8016815f015f9054906101000a900467ffffffffffffffff1667ffffffffffffffff16146200015b5767ffffffffffffffff815f015f6101000a81548167ffffffffffffffff021916908367ffffffffffffffff1602179055507fc7f505b2f371ae2175ee4913f4499e1f2633a7b5936321eed1cdaeb6115181d267ffffffffffffffff604051620001529190620001a9565b60405180910390a15b50565b5f7ff0c57e16840df040f15088dc2f81fe391c3923bec73e23a9662efc9c229c6a00905090565b5f67ffffffffffffffff82169050919050565b620001a38162000185565b82525050565b5f602082019050620001be5f83018462000198565b92915050565b608051614968620001eb5f395f81816124a0015281816124f501526126b401526149685ff3fe6080604052600436106101d7575f3560e01c806350d336ed11610101578063ad3cb1cc11610094578063dab5bb8f11610063578063dab5bb8f146106c3578063db404538146106ed578063ef4dd55d14610717578063ffb7739514610753576101d7565b8063ad3cb1cc1461060b578063b007968314610635578063bc53bba91461065f578063d547741f1461069b576101d7565b80638129fc1c116100d05780638129fc1c1461056557806391d148541461057b578063a217fddf146105b7578063a4a44a22146105e1576101d7565b806350d336ed146104c157806352d1902d146104e9578063609ab6ec1461051357806380fe39c81461053d576101d7565b80632b432c39116101795780633956b553116101485780633956b55314610403578063430cf9c21461043f5780634f1ef2861461047b57806350bb43fe14610497576101d7565b80632b432c391461034d5780632bca2a83146103895780632f2ff15d146103b357806336568abe146103db576101d7565b8063145ba058116101b5578063145ba0581461028357806316fb0943146102bf578063248a9ca3146102e757806325d91df414610323576101d7565b806301ffc9a7146101db578063085b21d11461021757806309d9010414610253575b5f80fd5b3480156101e6575f80fd5b5061020160048036038101906101fc9190612ed5565b61077d565b60405161020e9190612f1a565b60405180910390f35b348015610222575f80fd5b5061023d600480360381019061023891906132fe565b6107f6565b60405161024a9190612f1a565b60405180910390f35b61026d600480360381019061026891906133c4565b610832565b60405161027a9190612f1a565b60405180910390f35b34801561028e575f80fd5b506102a960048036038101906102a49190613421565b610ee5565b6040516102b69190612f1a565b60405180910390f35b3480156102ca575f80fd5b506102e560048036038101906102e0919061347b565b611011565b005b3480156102f2575f80fd5b5061030d600480360381019061030891906134cb565b61104c565b60405161031a9190613505565b60405180910390f35b34801561032e575f80fd5b50610337611076565b6040516103449190613505565b60405180910390f35b348015610358575f80fd5b50610373600480360381019061036e919061353c565b61109a565b6040516103809190612f1a565b60405180910390f35b348015610394575f80fd5b5061039d6112dd565b6040516103aa9190613505565b60405180910390f35b3480156103be575f80fd5b506103d960048036038101906103d4919061357a565b611301565b005b3480156103e6575f80fd5b5061040160048036038101906103fc919061357a565b611323565b005b34801561040e575f80fd5b50610429600480360381019061042491906135d6565b61139e565b6040516104369190612f1a565b60405180910390f35b34801561044a575f80fd5b506104656004803603810190610460919061364c565b611437565b6040516104729190612f1a565b60405180910390f35b61049560048036038101906104909190613693565b6114c8565b005b3480156104a2575f80fd5b506104ab6114e7565b6040516104b89190613505565b60405180910390f35b3480156104cc575f80fd5b506104e760048036038101906104e2919061357a565b61150b565b005b3480156104f4575f80fd5b506104fd611588565b60405161050a9190613505565b60405180910390f35b34801561051e575f80fd5b506105276115b9565b6040516105349190613505565b60405180910390f35b348015610548575f80fd5b50610563600480360381019061055e9190613717565b6115dd565b005b348015610570575f80fd5b50610579611624565b005b348015610586575f80fd5b506105a1600480360381019061059c919061357a565b6117a8565b6040516105ae9190612f1a565b60405180910390f35b3480156105c2575f80fd5b506105cb611819565b6040516105d89190613505565b60405180910390f35b3480156105ec575f80fd5b506105f561181f565b6040516106029190612f1a565b60405180910390f35b348015610616575f80fd5b5061061f611831565b60405161062c91906137bc565b60405180910390f35b348015610640575f80fd5b5061064961186a565b6040516106569190613505565b60405180910390f35b34801561066a575f80fd5b5061068560048036038101906106809190613831565b61188e565b6040516106929190612f1a565b60405180910390f35b3480156106a6575f80fd5b506106c160048036038101906106bc919061357a565b611a1d565b005b3480156106ce575f80fd5b506106d7611a3f565b6040516106e49190613505565b60405180910390f35b3480156106f8575f80fd5b50610701611a63565b60405161070e9190613505565b60405180910390f35b348015610722575f80fd5b5061073d600480360381019061073891906134cb565b611a87565b60405161074a919061388b565b60405180910390f35b34801561075e575f80fd5b50610767611ab6565b6040516107749190613505565b60405180910390f35b5f7f7965db0b000000000000000000000000000000000000000000000000000000007bffffffffffffffffffffffffffffffffffffffffffffffffffffffff1916827bffffffffffffffffffffffffffffffffffffffffffffffffffffffff191614806107ef57506107ee82611ada565b5b9050919050565b5f7f5c9f8a1f8085e87c1cd1dbd0fc499f4b22698a6dfb10c34aec0aa3e50fe0d6ff61082181611b43565b61082a83611b57565b915050919050565b5f60015f9054906101000a900460ff1615610882576040517f08c379a0000000000000000000000000000000000000000000000000000000008152600401610879906138ee565b60405180910390fd5b6108b67f9c7abe1cc344a0c822ed019aa7e0c3c247359aa68f7dd45424189f65d496d6796108af86611c79565b8585611cdf565b6108f5576040517f08c379a00000000000000000000000000000000000000000000000000000000081526004016108ec90613956565b60405180910390fd5b3373ffffffffffffffffffffffffffffffffffffffff1684602001602081019061091f9190613974565b73ffffffffffffffffffffffffffffffffffffffff1614610975576040517f08c379a000000000000000000000000000000000000000000000000000000000815260040161096c906139e9565b60405180910390fd5b5f3490505f73ffffffffffffffffffffffffffffffffffffffff168560400160208101906109a39190613974565b73ffffffffffffffffffffffffffffffffffffffff1603610a1b5734856060013510610a04576040517f08c379a00000000000000000000000000000000000000000000000000000000081526004016109fb90613a51565b60405180910390fd5b846060013581610a149190613a9c565b9050610c59565b5f856040016020810190610a2f9190613974565b73ffffffffffffffffffffffffffffffffffffffff166370a08231306040518263ffffffff1660e01b8152600401610a67919061388b565b602060405180830381865afa158015610a82573d5f803e3d5ffd5b505050506040513d601f19601f82011682018060405250810190610aa69190613ae3565b9050856040016020810190610abb9190613974565b73ffffffffffffffffffffffffffffffffffffffff166323b872dd333089606001356040518463ffffffff1660e01b8152600401610afb93929190613b1d565b6020604051808303815f875af1158015610b17573d5f803e3d5ffd5b505050506040513d601f19601f82011682018060405250810190610b3b9190613b66565b925082610b7d576040517f08c379a0000000000000000000000000000000000000000000000000000000008152600401610b7490613bdb565b60405180910390fd5b856040016020810190610b909190613974565b73ffffffffffffffffffffffffffffffffffffffff166370a08231306040518263ffffffff1660e01b8152600401610bc8919061388b565b602060405180830381865afa158015610be3573d5f803e3d5ffd5b505050506040513d601f19601f82011682018060405250810190610c079190613ae3565b866060013582610c179190613bf9565b14610c57576040517f08c379a0000000000000000000000000000000000000000000000000000000008152600401610c4e90613c76565b60405180910390fd5b505b8460a001358560800135610c6d9190613bf9565b8114610cae576040517f08c379a0000000000000000000000000000000000000000000000000000000008152600401610ca590613cde565b60405180910390fd5b5f807f3519cf5aeb70da6112075d724f8ff68482f701927df8eb30d337663e095ece0581526020019081526020015f205f9054906101000a900473ffffffffffffffffffffffffffffffffffffffff1673ffffffffffffffffffffffffffffffffffffffff168560800135604051610d2590613d29565b5f6040518083038185875af1925050503d805f8114610d5f576040519150601f19603f3d011682016040523d82523d5f602084013e610d64565b606091505b50508092505081610daa576040517f08c379a0000000000000000000000000000000000000000000000000000000008152600401610da190613d87565b60405180910390fd5b5f807fbf552e6e0a367f565ca7b394eba25a2010479eda0873b6fc1b4ce9f00e7085a681526020019081526020015f205f9054906101000a900473ffffffffffffffffffffffffffffffffffffffff1673ffffffffffffffffffffffffffffffffffffffff168560a00135604051610e2190613d29565b5f6040518083038185875af1925050503d805f8114610e5b576040519150601f19603f3d011682016040523d82523d5f602084013e610e60565b606091505b50508092505081610ea6576040517f08c379a0000000000000000000000000000000000000000000000000000000008152600401610e9d90613def565b60405180910390fd5b7f77f9cbd78986fd540d098ddfa28c2c574e12d43fa6400831280da990a364e15b85604051610ed59190613f00565b60405180910390a1509392505050565b5f7f5c9f8a1f8085e87c1cd1dbd0fc499f4b22698a6dfb10c34aec0aa3e50fe0d6ff610f1081611b43565b5f807f91252170d30ebdf6e8cea4292a8e5081a5c77e065aa855c856af6f3dd1f2f7ba81526020019081526020015f205f9054906101000a900473ffffffffffffffffffffffffffffffffffffffff1673ffffffffffffffffffffffffffffffffffffffff168484604051610f859190613f53565b5f6040518083038185875af1925050503d805f8114610fbf576040519150601f19603f3d011682016040523d82523d5f602084013e610fc4565b606091505b5050809250508161100a576040517f08c379a000000000000000000000000000000000000000000000000000000000815260040161100190613fb3565b60405180910390fd5b5092915050565b7f5c9f8a1f8085e87c1cd1dbd0fc499f4b22698a6dfb10c34aec0aa3e50fe0d6ff61103b81611b43565b611046848484611d6d565b50505050565b5f80611056611ed3565b9050805f015f8481526020019081526020015f2060010154915050919050565b7f5c9f8a1f8085e87c1cd1dbd0fc499f4b22698a6dfb10c34aec0aa3e50fe0d6ff81565b5f7f5c9f8a1f8085e87c1cd1dbd0fc499f4b22698a6dfb10c34aec0aa3e50fe0d6ff6110c581611b43565b5f836080013584606001356110da9190613a9c565b90505f73ffffffffffffffffffffffffffffffffffffffff168460200160208101906111069190613974565b73ffffffffffffffffffffffffffffffffffffffff1603611138578360400135816111319190613bf9565b905061121d565b83602001602081019061114b9190613974565b73ffffffffffffffffffffffffffffffffffffffff1663a9059cbb855f0160208101906111789190613974565b86604001356040518363ffffffff1660e01b815260040161119a929190613fd1565b6020604051808303815f875af11580156111b6573d5f803e3d5ffd5b505050506040513d601f19601f820116820180604052508101906111da9190613b66565b92508261121c576040517f08c379a000000000000000000000000000000000000000000000000000000000815260040161121390613bdb565b60405180910390fd5b5b835f01602081019061122f9190613974565b73ffffffffffffffffffffffffffffffffffffffff168160405161125290613d29565b5f6040518083038185875af1925050503d805f811461128c576040519150601f19603f3d011682016040523d82523d5f602084013e611291565b606091505b505080935050847fe2ca2bf72bb8a110d86fe26850e80122ee62f39c11c263696106fb0bcebbc9448560800135866040516112cd929190614086565b60405180910390a2505092915050565b7f3519cf5aeb70da6112075d724f8ff68482f701927df8eb30d337663e095ece0581565b61130a8261104c565b61131381611b43565b61131d8383611efa565b50505050565b61132b611ff2565b73ffffffffffffffffffffffffffffffffffffffff168173ffffffffffffffffffffffffffffffffffffffff161461138f576040517f6697b23200000000000000000000000000000000000000000000000000000000815260040160405180910390fd5b6113998282611ff9565b505050565b5f7f5c9f8a1f8085e87c1cd1dbd0fc499f4b22698a6dfb10c34aec0aa3e50fe0d6ff6113c981611b43565b5f84805f01906113d991906140b9565b90501161141b576040517f08c379a000000000000000000000000000000000000000000000000000000000815260040161141290614165565b60405180910390fd5b611424846120f1565b5061142e83611b57565b91505092915050565b5f7f5c9f8a1f8085e87c1cd1dbd0fc499f4b22698a6dfb10c34aec0aa3e50fe0d6ff61146281611b43565b5f83805f019061147291906140b9565b9050116114b4576040517f08c379a00000000000000000000000000000000000000000000000000000000081526004016114ab90614165565b60405180910390fd5b6114bd836120f1565b506001915050919050565b6114d061249e565b6114d982612584565b6114e38282612594565b5050565b7f19e84af850d308f83cafc054ced962bf340369700532abe13c64a9b9176dafcc81565b7f7d4c95ebf98b3d0730a4b295f90ccf54047e768470d7c5e21916c87cd29a324961153581611b43565b815f808581526020019081526020015f205f6101000a81548173ffffffffffffffffffffffffffffffffffffffff021916908373ffffffffffffffffffffffffffffffffffffffff160217905550505050565b5f6115916126b2565b7f360894a13ba1a3210667c828492db98dca3e2076cc3735a920a3ca505d382bbc5f1b905090565b7f88293327f82deeefe2207f437bfa0859226c07c40ebc93dada7dadc53ecfbb1d81565b7f5c9f8a1f8085e87c1cd1dbd0fc499f4b22698a6dfb10c34aec0aa3e50fe0d6ff61160781611b43565b8160015f6101000a81548160ff0219169083151502179055505050565b5f61162d612739565b90505f815f0160089054906101000a900460ff161590505f825f015f9054906101000a900467ffffffffffffffff1690505f808267ffffffffffffffff161480156116755750825b90505f60018367ffffffffffffffff161480156116a857505f3073ffffffffffffffffffffffffffffffffffffffff163b145b9050811580156116b6575080155b156116ed576040517ff92ee8a900000000000000000000000000000000000000000000000000000000815260040160405180910390fd5b6001855f015f6101000a81548167ffffffffffffffff021916908367ffffffffffffffff160217905550831561173a576001855f0160086101000a81548160ff0219169083151502179055505b6117465f801b33611efa565b5083156117a1575f855f0160086101000a81548160ff0219169083151502179055507fc7f505b2f371ae2175ee4913f4499e1f2633a7b5936321eed1cdaeb6115181d2600160405161179891906141c5565b60405180910390a15b5050505050565b5f806117b2611ed3565b9050805f015f8581526020019081526020015f205f015f8473ffffffffffffffffffffffffffffffffffffffff1673ffffffffffffffffffffffffffffffffffffffff1681526020019081526020015f205f9054906101000a900460ff1691505092915050565b5f801b81565b60015f9054906101000a900460ff1681565b6040518060400160405280600581526020017f352e302e3000000000000000000000000000000000000000000000000000000081525081565b7f9c7abe1cc344a0c822ed019aa7e0c3c247359aa68f7dd45424189f65d496d67981565b5f7f5c9f8a1f8085e87c1cd1dbd0fc499f4b22698a6dfb10c34aec0aa3e50fe0d6ff6118b981611b43565b5f5b84849050811015611a15578484828181106118d9576118d86141de565b5b90506020028101906118eb919061420b565b5f0160208101906118fc9190613974565b73ffffffffffffffffffffffffffffffffffffffff16858583818110611925576119246141de565b5b9050602002810190611937919061420b565b6020013586868481811061194e5761194d6141de565b5b9050602002810190611960919061420b565b806040019061196f9190614232565b60405161197d9291906142b8565b5f6040518083038185875af1925050503d805f81146119b7576040519150601f19603f3d011682016040523d82523d5f602084013e6119bc565b606091505b50508093505082611a02576040517f08c379a00000000000000000000000000000000000000000000000000000000081526004016119f99061431a565b60405180910390fd5b8080611a0d90614338565b9150506118bb565b505092915050565b611a268261104c565b611a2f81611b43565b611a398383611ff9565b50505050565b7f91252170d30ebdf6e8cea4292a8e5081a5c77e065aa855c856af6f3dd1f2f7ba81565b7fbf552e6e0a367f565ca7b394eba25a2010479eda0873b6fc1b4ce9f00e7085a681565b5f602052805f5260405f205f915054906101000a900473ffffffffffffffffffffffffffffffffffffffff1681565b7f7d4c95ebf98b3d0730a4b295f90ccf54047e768470d7c5e21916c87cd29a324981565b5f7f01ffc9a7000000000000000000000000000000000000000000000000000000007bffffffffffffffffffffffffffffffffffffffffffffffffffffffff1916827bffffffffffffffffffffffffffffffffffffffffffffffffffffffff1916149050919050565b611b5481611b4f611ff2565b612760565b50565b5f611bbb8261010001515f807f88293327f82deeefe2207f437bfa0859226c07c40ebc93dada7dadc53ecfbb1d81526020019081526020015f205f9054906101000a900473ffffffffffffffffffffffffffffffffffffffff168460c00151611d6d565b5f807f88293327f82deeefe2207f437bfa0859226c07c40ebc93dada7dadc53ecfbb1d81526020019081526020015f205f9054906101000a900473ffffffffffffffffffffffffffffffffffffffff1673ffffffffffffffffffffffffffffffffffffffff16636b0e54e1836040518263ffffffff1660e01b8152600401611c439190614515565b5f604051808303815f87803b158015611c5a575f80fd5b505af1158015611c6c573d5f803e3d5ffd5b5050505060019050919050565b6060815f0135826020016020810190611c929190613974565b836040016020810190611ca59190613974565b846060013585608001358660a00135604051602001611cc99695949392919061459a565b6040516020818303038152906040529050919050565b5f611d6385611d5e8680519060200120604051602001611cff919061467d565b6040516020818303038152906040528051906020012086868080601f0160208091040260200160405190810160405280939291908181526020018383808284375f81840152601f19601f820116905080830192505050505050506127b1565b6117a8565b9050949350505050565b808373ffffffffffffffffffffffffffffffffffffffff1663dd62ed3e30856040518363ffffffff1660e01b8152600401611da99291906146a2565b602060405180830381865afa158015611dc4573d5f803e3d5ffd5b505050506040513d601f19601f82011682018060405250810190611de89190613ae3565b1015611ece575f8373ffffffffffffffffffffffffffffffffffffffff1663095ea7b3847fffffffffffffffffffffffffffffffffffffffffffffffffffffffffffffffff6040518363ffffffff1660e01b8152600401611e4a929190613fd1565b6020604051808303815f875af1158015611e66573d5f803e3d5ffd5b505050506040513d601f19601f82011682018060405250810190611e8a9190613b66565b905080611ecc576040517f08c379a0000000000000000000000000000000000000000000000000000000008152600401611ec390614713565b60405180910390fd5b505b505050565b5f7f02dd7bc7dec4dceedda775e58dd541e08a116c6c53815c0bd028192f7b626800905090565b5f80611f04611ed3565b9050611f1084846117a8565b611fe7576001815f015f8681526020019081526020015f205f015f8573ffffffffffffffffffffffffffffffffffffffff1673ffffffffffffffffffffffffffffffffffffffff1681526020019081526020015f205f6101000a81548160ff021916908315150217905550611f83611ff2565b73ffffffffffffffffffffffffffffffffffffffff168373ffffffffffffffffffffffffffffffffffffffff16857f2f8788117e7eff1d82e926ec794901d17c78024a50270940304540a733656f0d60405160405180910390a46001915050611fec565b5f9150505b92915050565b5f33905090565b5f80612003611ed3565b905061200f84846117a8565b156120e6575f815f015f8681526020019081526020015f205f015f8573ffffffffffffffffffffffffffffffffffffffff1673ffffffffffffffffffffffffffffffffffffffff1681526020019081526020015f205f6101000a81548160ff021916908315150217905550612082611ff2565b73ffffffffffffffffffffffffffffffffffffffff168373ffffffffffffffffffffffffffffffffffffffff16857ff6391f5c32d9c69d2a47ea670b442974b53935d1edc7fd64eb21e047a839171b60405160405180910390a460019150506120eb565b5f9150505b92915050565b5f8082805f019061210291906140b9565b600185805f019061211391906140b9565b905061211f9190613a9c565b81811061212f5761212e6141de565b5b90506020028101906121419190614731565b60800160208101906121539190613974565b90505f61216082306127db565b90505f5b84805f019061217391906140b9565b90508110156124385761224285805f019061218e91906140b9565b8381811061219f5761219e6141de565b5b90506020028101906121b19190614731565b60400160208101906121c39190613974565b86805f01906121d291906140b9565b848181106121e3576121e26141de565b5b90506020028101906121f59190614731565b60200160208101906122079190613974565b87805f019061221691906140b9565b85818110612227576122266141de565b5b90506020028101906122399190614731565b60600135611d6d565b5f8086805f019061225391906140b9565b84818110612264576122636141de565b5b90506020028101906122769190614731565b5f0160208101906122879190613974565b73ffffffffffffffffffffffffffffffffffffffff165f73ffffffffffffffffffffffffffffffffffffffff1688805f01906122c391906140b9565b868181106122d4576122d36141de565b5b90506020028101906122e69190614731565b60400160208101906122f89190613974565b73ffffffffffffffffffffffffffffffffffffffff1614612319575f612350565b87805f019061232891906140b9565b85818110612339576123386141de565b5b905060200281019061234b9190614731565b606001355b88805f019061235f91906140b9565b868181106123705761236f6141de565b5b90506020028101906123829190614731565b8060a001906123919190614232565b60405161239f9291906142b8565b5f6040518083038185875af1925050503d805f81146123d9576040519150601f19603f3d011682016040523d82523d5f602084013e6123de565b606091505b509150915081612423576040517f08c379a000000000000000000000000000000000000000000000000000000000815260040161241a906147a2565b60405180910390fd5b5050808061243090614338565b915050612164565b508061244483306127db565b61244e9190613a9c565b92508360200135831015612497576040517f08c379a000000000000000000000000000000000000000000000000000000000815260040161248e9061480a565b60405180910390fd5b5050919050565b7f000000000000000000000000000000000000000000000000000000000000000073ffffffffffffffffffffffffffffffffffffffff163073ffffffffffffffffffffffffffffffffffffffff16148061254b57507f000000000000000000000000000000000000000000000000000000000000000073ffffffffffffffffffffffffffffffffffffffff166125326128ad565b73ffffffffffffffffffffffffffffffffffffffff1614155b15612582576040517fe07c8dba00000000000000000000000000000000000000000000000000000000815260040160405180910390fd5b565b5f801b61259081611b43565b5050565b8173ffffffffffffffffffffffffffffffffffffffff166352d1902d6040518163ffffffff1660e01b8152600401602060405180830381865afa9250505080156125fc57506040513d601f19601f820116820180604052508101906125f9919061483c565b60015b61263d57816040517f4c9c8ce3000000000000000000000000000000000000000000000000000000008152600401612634919061388b565b60405180910390fd5b7f360894a13ba1a3210667c828492db98dca3e2076cc3735a920a3ca505d382bbc5f1b81146126a357806040517faa1d49a400000000000000000000000000000000000000000000000000000000815260040161269a9190613505565b60405180910390fd5b6126ad8383612900565b505050565b7f000000000000000000000000000000000000000000000000000000000000000073ffffffffffffffffffffffffffffffffffffffff163073ffffffffffffffffffffffffffffffffffffffff1614612737576040517fe07c8dba00000000000000000000000000000000000000000000000000000000815260040160405180910390fd5b565b5f7ff0c57e16840df040f15088dc2f81fe391c3923bec73e23a9662efc9c229c6a00905090565b61276a82826117a8565b6127ad5780826040517fe2517d3f0000000000000000000000000000000000000000000000000000000081526004016127a4929190614867565b60405180910390fd5b5050565b5f805f806127bf8686612972565b9250925092506127cf82826129c7565b82935050505092915050565b5f8073ffffffffffffffffffffffffffffffffffffffff168373ffffffffffffffffffffffffffffffffffffffff161461288c578273ffffffffffffffffffffffffffffffffffffffff166370a08231836040518263ffffffff1660e01b8152600401612848919061388b565b602060405180830381865afa158015612863573d5f803e3d5ffd5b505050506040513d601f19601f820116820180604052508101906128879190613ae3565b6128a5565b8173ffffffffffffffffffffffffffffffffffffffff16315b905092915050565b5f6128d97f360894a13ba1a3210667c828492db98dca3e2076cc3735a920a3ca505d382bbc5f1b612b29565b5f015f9054906101000a900473ffffffffffffffffffffffffffffffffffffffff16905090565b61290982612b32565b8173ffffffffffffffffffffffffffffffffffffffff167fbc7cd75a20ee27fd9adebab32041f755214dbc6bffa90cc0225b39da2e5c2d3b60405160405180910390a25f815111156129655761295f8282612bfb565b5061296e565b61296d612c7b565b5b5050565b5f805f60418451036129b2575f805f602087015192506040870151915060608701515f1a90506129a488828585612cb7565b9550955095505050506129c0565b5f600285515f1b9250925092505b9250925092565b5f60038111156129da576129d961488e565b5b8260038111156129ed576129ec61488e565b5b0315612b255760016003811115612a0757612a0661488e565b5b826003811115612a1a57612a1961488e565b5b03612a51576040517ff645eedf00000000000000000000000000000000000000000000000000000000815260040160405180910390fd5b60026003811115612a6557612a6461488e565b5b826003811115612a7857612a7761488e565b5b03612abc57805f1c6040517ffce698f7000000000000000000000000000000000000000000000000000000008152600401612ab391906148bb565b60405180910390fd5b600380811115612acf57612ace61488e565b5b826003811115612ae257612ae161488e565b5b03612b2457806040517fd78bce0c000000000000000000000000000000000000000000000000000000008152600401612b1b9190613505565b60405180910390fd5b5b5050565b5f819050919050565b5f8173ffffffffffffffffffffffffffffffffffffffff163b03612b8d57806040517f4c9c8ce3000000000000000000000000000000000000000000000000000000008152600401612b84919061388b565b60405180910390fd5b80612bb97f360894a13ba1a3210667c828492db98dca3e2076cc3735a920a3ca505d382bbc5f1b612b29565b5f015f6101000a81548173ffffffffffffffffffffffffffffffffffffffff021916908373ffffffffffffffffffffffffffffffffffffffff16021790555050565b60605f808473ffffffffffffffffffffffffffffffffffffffff1684604051612c249190613f53565b5f60405180830381855af49150503d805f8114612c5c576040519150601f19603f3d011682016040523d82523d5f602084013e612c61565b606091505b5091509150612c71858383612d9e565b9250505092915050565b5f341115612cb5576040517fb398979f00000000000000000000000000000000000000000000000000000000815260040160405180910390fd5b565b5f805f7f7fffffffffffffffffffffffffffffff5d576e7357a4501ddfe92f46681b20a0845f1c1115612cf3575f600385925092509250612d94565b5f6001888888886040515f8152602001604052604051612d1694939291906148ef565b6020604051602081039080840390855afa158015612d36573d5f803e3d5ffd5b5050506020604051035190505f73ffffffffffffffffffffffffffffffffffffffff168173ffffffffffffffffffffffffffffffffffffffff1603612d87575f60015f801b93509350935050612d94565b805f805f1b935093509350505b9450945094915050565b606082612db357612dae82612e2b565b612e23565b5f8251148015612dd957505f8473ffffffffffffffffffffffffffffffffffffffff163b145b15612e1b57836040517f9996b315000000000000000000000000000000000000000000000000000000008152600401612e12919061388b565b60405180910390fd5b819050612e24565b5b9392505050565b5f81511115612e3d5780518082602001fd5b6040517f1425ea4200000000000000000000000000000000000000000000000000000000815260040160405180910390fd5b5f604051905090565b5f80fd5b5f80fd5b5f7fffffffff0000000000000000000000000000000000000000000000000000000082169050919050565b612eb481612e80565b8114612ebe575f80fd5b50565b5f81359050612ecf81612eab565b92915050565b5f60208284031215612eea57612ee9612e78565b5b5f612ef784828501612ec1565b91505092915050565b5f8115159050919050565b612f1481612f00565b82525050565b5f602082019050612f2d5f830184612f0b565b92915050565b5f80fd5b5f601f19601f8301169050919050565b7f4e487b71000000000000000000000000000000000000000000000000000000005f52604160045260245ffd5b612f7d82612f37565b810181811067ffffffffffffffff82111715612f9c57612f9b612f47565b5b80604052505050565b5f612fae612e6f565b9050612fba8282612f74565b919050565b5f80fd5b5f73ffffffffffffffffffffffffffffffffffffffff82169050919050565b5f612fec82612fc3565b9050919050565b612ffc81612fe2565b8114613006575f80fd5b50565b5f8135905061301781612ff3565b92915050565b5f67ffffffffffffffff82169050919050565b6130398161301d565b8114613043575f80fd5b50565b5f8135905061305481613030565b92915050565b5f819050919050565b61306c8161305a565b8114613076575f80fd5b50565b5f8135905061308781613063565b92915050565b5f604082840312156130a2576130a1612f33565b5b6130ac6040612fa5565b90505f6130bb84828501613009565b5f8301525060206130ce84828501613079565b60208301525092915050565b5f819050919050565b6130ec816130da565b81146130f6575f80fd5b50565b5f81359050613107816130e3565b92915050565b5f80fd5b5f80fd5b5f67ffffffffffffffff82111561312f5761312e612f47565b5b61313882612f37565b9050602081019050919050565b828183375f83830152505050565b5f61316561316084613115565b612fa5565b90508281526020810184848401111561318157613180613111565b5b61318c848285613145565b509392505050565b5f82601f8301126131a8576131a761310d565b5b81356131b8848260208601613153565b91505092915050565b5f6101c082840312156131d7576131d6612f33565b5b6131e2610180612fa5565b90505f6131f184828501613009565b5f83015250602061320484828501613046565b602083015250604061321884828501613009565b604083015250606061322c84828501613046565b60608301525060806132408482850161308d565b60808301525060c06132548482850161308d565b60a08301525061010061326984828501613079565b60c08301525061012061327e84828501613079565b60e08301525061014061329384828501613009565b610100830152506101606132a9848285016130f9565b610120830152506101806132bf84828501613009565b610140830152506101a082013567ffffffffffffffff8111156132e5576132e4612fbf565b5b6132f184828501613194565b6101608301525092915050565b5f6020828403121561331357613312612e78565b5b5f82013567ffffffffffffffff8111156133305761332f612e7c565b5b61333c848285016131c1565b91505092915050565b5f80fd5b5f60c0828403121561335e5761335d613345565b5b81905092915050565b5f80fd5b5f80fd5b5f8083601f8401126133845761338361310d565b5b8235905067ffffffffffffffff8111156133a1576133a0613367565b5b6020830191508360018202830111156133bd576133bc61336b565b5b9250929050565b5f805f60e084860312156133db576133da612e78565b5b5f6133e886828701613349565b93505060c084013567ffffffffffffffff81111561340957613408612e7c565b5b6134158682870161336f565b92509250509250925092565b5f806040838503121561343757613436612e78565b5b5f61344485828601613079565b925050602083013567ffffffffffffffff81111561346557613464612e7c565b5b61347185828601613194565b9150509250929050565b5f805f6060848603121561349257613491612e78565b5b5f61349f86828701613009565b93505060206134b086828701613009565b92505060406134c186828701613079565b9150509250925092565b5f602082840312156134e0576134df612e78565b5b5f6134ed848285016130f9565b91505092915050565b6134ff816130da565b82525050565b5f6020820190506135185f8301846134f6565b92915050565b5f60a0828403121561353357613532613345565b5b81905092915050565b5f8060c0838503121561355257613551612e78565b5b5f61355f85828601613079565b92505060206135708582860161351e565b9150509250929050565b5f80604083850312156135905761358f612e78565b5b5f61359d858286016130f9565b92505060206135ae85828601613009565b9150509250929050565b5f604082840312156135cd576135cc613345565b5b81905092915050565b5f80604083850312156135ec576135eb612e78565b5b5f83013567ffffffffffffffff81111561360957613608612e7c565b5b613615858286016135b8565b925050602083013567ffffffffffffffff81111561363657613635612e7c565b5b613642858286016131c1565b9150509250929050565b5f6020828403121561366157613660612e78565b5b5f82013567ffffffffffffffff81111561367e5761367d612e7c565b5b61368a848285016135b8565b91505092915050565b5f80604083850312156136a9576136a8612e78565b5b5f6136b685828601613009565b925050602083013567ffffffffffffffff8111156136d7576136d6612e7c565b5b6136e385828601613194565b9150509250929050565b6136f681612f00565b8114613700575f80fd5b50565b5f81359050613711816136ed565b92915050565b5f6020828403121561372c5761372b612e78565b5b5f61373984828501613703565b91505092915050565b5f81519050919050565b5f82825260208201905092915050565b5f5b8381101561377957808201518184015260208101905061375e565b5f8484015250505050565b5f61378e82613742565b613798818561374c565b93506137a881856020860161375c565b6137b181612f37565b840191505092915050565b5f6020820190508181035f8301526137d48184613784565b905092915050565b5f8083601f8401126137f1576137f061310d565b5b8235905067ffffffffffffffff81111561380e5761380d613367565b5b60208301915083602082028301111561382a5761382961336b565b5b9250929050565b5f806020838503121561384757613846612e78565b5b5f83013567ffffffffffffffff81111561386457613863612e7c565b5b613870858286016137dc565b92509250509250929050565b61388581612fe2565b82525050565b5f60208201905061389e5f83018461387c565b92915050565b7f5365727669636520756e617661696c61626c65000000000000000000000000005f82015250565b5f6138d860138361374c565b91506138e3826138a4565b602082019050919050565b5f6020820190508181035f830152613905816138cc565b9050919050565b7f496e76616c6964207369676e61747572650000000000000000000000000000005f82015250565b5f61394060118361374c565b915061394b8261390c565b602082019050919050565b5f6020820190508181035f83015261396d81613934565b9050919050565b5f6020828403121561398957613988612e78565b5b5f61399684828501613009565b91505092915050565b7f496e76616c6964207469636b65740000000000000000000000000000000000005f82015250565b5f6139d3600e8361374c565b91506139de8261399f565b602082019050919050565b5f6020820190508181035f830152613a00816139c7565b9050919050565b7f496e73756666696369656e742076616c756500000000000000000000000000005f82015250565b5f613a3b60128361374c565b9150613a4682613a07565b602082019050919050565b5f6020820190508181035f830152613a6881613a2f565b9050919050565b7f4e487b71000000000000000000000000000000000000000000000000000000005f52601160045260245ffd5b5f613aa68261305a565b9150613ab18361305a565b9250828203905081811115613ac957613ac8613a6f565b5b92915050565b5f81519050613add81613063565b92915050565b5f60208284031215613af857613af7612e78565b5b5f613b0584828501613acf565b91505092915050565b613b178161305a565b82525050565b5f606082019050613b305f83018661387c565b613b3d602083018561387c565b613b4a6040830184613b0e565b949350505050565b5f81519050613b60816136ed565b92915050565b5f60208284031215613b7b57613b7a612e78565b5b5f613b8884828501613b52565b91505092915050565b7f4661696c656420746f207472616e7366657220617373657400000000000000005f82015250565b5f613bc560188361374c565b9150613bd082613b91565b602082019050919050565b5f6020820190508181035f830152613bf281613bb9565b9050919050565b5f613c038261305a565b9150613c0e8361305a565b9250828201905080821115613c2657613c25613a6f565b5b92915050565b7f5472616e73666572206572726f720000000000000000000000000000000000005f82015250565b5f613c60600e8361374c565b9150613c6b82613c2c565b602082019050919050565b5f6020820190508181035f830152613c8d81613c54565b9050919050565b7f496e636f727265637420666565000000000000000000000000000000000000005f82015250565b5f613cc8600d8361374c565b9150613cd382613c94565b602082019050919050565b5f6020820190508181035f830152613cf581613cbc565b9050919050565b5f81905092915050565b50565b5f613d145f83613cfc565b9150613d1f82613d06565b5f82019050919050565b5f613d3382613d09565b9150819050919050565b7f4661696c656420746f20736176652076616c75740000000000000000000000005f82015250565b5f613d7160148361374c565b9150613d7c82613d3d565b602082019050919050565b5f6020820190508181035f830152613d9e81613d65565b9050919050565b7f4661696c656420746f20736176652062756666657200000000000000000000005f82015250565b5f613dd960158361374c565b9150613de482613da5565b602082019050919050565b5f6020820190508181035f830152613e0681613dcd565b9050919050565b5f613e1b6020840184613079565b905092915050565b613e2c8161305a565b82525050565b5f613e406020840184613009565b905092915050565b613e5181612fe2565b82525050565b60c08201613e675f830183613e0d565b613e735f850182613e23565b50613e816020830183613e32565b613e8e6020850182613e48565b50613e9c6040830183613e32565b613ea96040850182613e48565b50613eb76060830183613e0d565b613ec46060850182613e23565b50613ed26080830183613e0d565b613edf6080850182613e23565b50613eed60a0830183613e0d565b613efa60a0850182613e23565b50505050565b5f60c082019050613f135f830184613e57565b92915050565b5f81519050919050565b5f613f2d82613f19565b613f378185613cfc565b9350613f4781856020860161375c565b80840191505092915050565b5f613f5e8284613f23565b915081905092915050565b7f427269646765206661696c6564000000000000000000000000000000000000005f82015250565b5f613f9d600d8361374c565b9150613fa882613f69565b602082019050919050565b5f6020820190508181035f830152613fca81613f91565b9050919050565b5f604082019050613fe45f83018561387c565b613ff16020830184613b0e565b9392505050565b60a082016140085f830183613e32565b6140145f850182613e48565b506140226020830183613e32565b61402f6020850182613e48565b5061403d6040830183613e0d565b61404a6040850182613e23565b506140586060830183613e0d565b6140656060850182613e23565b506140736080830183613e0d565b6140806080850182613e23565b50505050565b5f60c0820190506140995f830185613b0e565b6140a66020830184613ff8565b9392505050565b5f80fd5b5f80fd5b5f80fd5b5f80833560016020038436030381126140d5576140d46140ad565b5b80840192508235915067ffffffffffffffff8211156140f7576140f66140b1565b5b602083019250602082023603831315614113576141126140b5565b5b509250929050565b7f53776170206c656e677468206973207a65726f000000000000000000000000005f82015250565b5f61414f60138361374c565b915061415a8261411b565b602082019050919050565b5f6020820190508181035f83015261417c81614143565b9050919050565b5f819050919050565b5f819050919050565b5f6141af6141aa6141a584614183565b61418c565b61301d565b9050919050565b6141bf81614195565b82525050565b5f6020820190506141d85f8301846141b6565b92915050565b7f4e487b71000000000000000000000000000000000000000000000000000000005f52603260045260245ffd5b5f82356001606003833603038112614226576142256140ad565b5b80830191505092915050565b5f808335600160200384360303811261424e5761424d6140ad565b5b80840192508235915067ffffffffffffffff8211156142705761426f6140b1565b5b60208301925060018202360383131561428c5761428b6140b5565b5b509250929050565b5f61429f8385613cfc565b93506142ac838584613145565b82840190509392505050565b5f6142c4828486614294565b91508190509392505050565b7f43616c6c206661696c65640000000000000000000000000000000000000000005f82015250565b5f614304600b8361374c565b915061430f826142d0565b602082019050919050565b5f6020820190508181035f830152614331816142f8565b9050919050565b5f6143428261305a565b91507fffffffffffffffffffffffffffffffffffffffffffffffffffffffffffffffff820361437457614373613a6f565b5b600182019050919050565b6143888161301d565b82525050565b604082015f8201516143a25f850182613e48565b5060208201516143b56020850182613e23565b50505050565b6143c4816130da565b82525050565b5f82825260208201905092915050565b5f6143e482613f19565b6143ee81856143ca565b93506143fe81856020860161375c565b61440781612f37565b840191505092915050565b5f6101c083015f8301516144285f860182613e48565b50602083015161443b602086018261437f565b50604083015161444e6040860182613e48565b506060830151614461606086018261437f565b506080830151614474608086018261438e565b5060a083015161448760c086018261438e565b5060c083015161449b610100860182613e23565b5060e08301516144af610120860182613e23565b506101008301516144c4610140860182613e48565b506101208301516144d96101608601826143bb565b506101408301516144ee610180860182613e48565b506101608301518482036101a086015261450882826143da565b9150508091505092915050565b5f6020820190508181035f83015261452d8184614412565b905092915050565b5f819050919050565b61454f61454a8261305a565b614535565b82525050565b5f8160601b9050919050565b5f61456b82614555565b9050919050565b5f61457c82614561565b9050919050565b61459461458f82612fe2565b614572565b82525050565b5f6145a5828961453e565b6020820191506145b58288614583565b6014820191506145c58287614583565b6014820191506145d5828661453e565b6020820191506145e5828561453e565b6020820191506145f5828461453e565b602082019150819050979650505050505050565b5f81905092915050565b7f19457468657265756d205369676e6564204d6573736167653a0a3332000000005f82015250565b5f614647601c83614609565b915061465282614613565b601c82019050919050565b5f819050919050565b614677614672826130da565b61465d565b82525050565b5f6146878261463b565b91506146938284614666565b60208201915081905092915050565b5f6040820190506146b55f83018561387c565b6146c2602083018461387c565b9392505050565b7f417070726f7665206661696c65640000000000000000000000000000000000005f82015250565b5f6146fd600e8361374c565b9150614708826146c9565b602082019050919050565b5f6020820190508181035f83015261472a816146f1565b9050919050565b5f8235600160e00383360303811261474c5761474b6140ad565b5b80830191505092915050565b7f53776170206661696c65640000000000000000000000000000000000000000005f82015250565b5f61478c600b8361374c565b915061479782614758565b602082019050919050565b5f6020820190508181035f8301526147b981614780565b9050919050565b7f496e73756666696369656e74206f7574707574000000000000000000000000005f82015250565b5f6147f460138361374c565b91506147ff826147c0565b602082019050919050565b5f6020820190508181035f830152614821816147e8565b9050919050565b5f81519050614836816130e3565b92915050565b5f6020828403121561485157614850612e78565b5b5f61485e84828501614828565b91505092915050565b5f60408201905061487a5f83018561387c565b61488760208301846134f6565b9392505050565b7f4e487b71000000000000000000000000000000000000000000000000000000005f52602160045260245ffd5b5f6020820190506148ce5f830184613b0e565b92915050565b5f60ff82169050919050565b6148e9816148d4565b82525050565b5f6080820190506149025f8301876134f6565b61490f60208301866148e0565b61491c60408301856134f6565b61492960608301846134f6565b9594505050505056fea264697066735822122061536f9e52be66f5d671f0272e41bff3f8464e985830070d989fd47b456a7a5764736f6c63430008140033",
			"opcodes": "PUSH1 0xA0 PUSH1 0x40 MSTORE ADDRESS PUSH20 0xFFFFFFFFFFFFFFFFFFFFFFFFFFFFFFFFFFFFFFFF AND PUSH1 0x80 SWAP1 PUSH20 0xFFFFFFFFFFFFFFFFFFFFFFFFFFFFFFFFFFFFFFFF AND DUP2 MSTORE POP CALLVALUE DUP1 ISZERO PUSH3 0x43 JUMPI PUSH0 DUP1 REVERT JUMPDEST POP PUSH3 0x54 PUSH3 0x5A PUSH1 0x20 SHL PUSH1 0x20 SHR JUMP JUMPDEST PUSH3 0x1C4 JUMP JUMPDEST PUSH0 PUSH3 0x6B PUSH3 0x15E PUSH1 0x20 SHL PUSH1 0x20 SHR JUMP JUMPDEST SWAP1 POP DUP1 PUSH0 ADD PUSH1 0x8 SWAP1 SLOAD SWAP1 PUSH2 0x100 EXP SWAP1 DIV PUSH1 0xFF AND ISZERO PUSH3 0xB6 JUMPI PUSH1 0x40 MLOAD PUSH32 0xF92EE8A900000000000000000000000000000000000000000000000000000000 DUP2 MSTORE PUSH1 0x4 ADD PUSH1 0x40 MLOAD DUP1 SWAP2 SUB SWAP1 REVERT JUMPDEST PUSH8 0xFFFFFFFFFFFFFFFF DUP1 AND DUP2 PUSH0 ADD PUSH0 SWAP1 SLOAD SWAP1 PUSH2 0x100 EXP SWAP1 DIV PUSH8 0xFFFFFFFFFFFFFFFF AND PUSH8 0xFFFFFFFFFFFFFFFF AND EQ PUSH3 0x15B JUMPI PUSH8 0xFFFFFFFFFFFFFFFF DUP2 PUSH0 ADD PUSH0 PUSH2 0x100 EXP DUP2 SLOAD DUP2 PUSH8 0xFFFFFFFFFFFFFFFF MUL NOT AND SWAP1 DUP4 PUSH8 0xFFFFFFFFFFFFFFFF AND MUL OR SWAP1 SSTORE POP PUSH32 0xC7F505B2F371AE2175EE4913F4499E1F2633A7B5936321EED1CDAEB6115181D2 PUSH8 0xFFFFFFFFFFFFFFFF PUSH1 0x40 MLOAD PUSH3 0x152 SWAP2 SWAP1 PUSH3 0x1A9 JUMP JUMPDEST PUSH1 0x40 MLOAD DUP1 SWAP2 SUB SWAP1 LOG1 JUMPDEST POP JUMP JUMPDEST PUSH0 PUSH32 0xF0C57E16840DF040F15088DC2F81FE391C3923BEC73E23A9662EFC9C229C6A00 SWAP1 POP SWAP1 JUMP JUMPDEST PUSH0 PUSH8 0xFFFFFFFFFFFFFFFF DUP3 AND SWAP1 POP SWAP2 SWAP1 POP JUMP JUMPDEST PUSH3 0x1A3 DUP2 PUSH3 0x185 JUMP JUMPDEST DUP3 MSTORE POP POP JUMP JUMPDEST PUSH0 PUSH1 0x20 DUP3 ADD SWAP1 POP PUSH3 0x1BE PUSH0 DUP4 ADD DUP5 PUSH3 0x198 JUMP JUMPDEST SWAP3 SWAP2 POP POP JUMP JUMPDEST PUSH1 0x80 MLOAD PUSH2 0x4968 PUSH3 0x1EB PUSH0 CODECOPY PUSH0 DUP2 DUP2 PUSH2 0x24A0 ADD MSTORE DUP2 DUP2 PUSH2 0x24F5 ADD MSTORE PUSH2 0x26B4 ADD MSTORE PUSH2 0x4968 PUSH0 RETURN INVALID PUSH1 0x80 PUSH1 0x40 MSTORE PUSH1 0x4 CALLDATASIZE LT PUSH2 0x1D7 JUMPI PUSH0 CALLDATALOAD PUSH1 0xE0 SHR DUP1 PUSH4 0x50D336ED GT PUSH2 0x101 JUMPI DUP1 PUSH4 0xAD3CB1CC GT PUSH2 0x94 JUMPI DUP1 PUSH4 0xDAB5BB8F GT PUSH2 0x63 JUMPI DUP1 PUSH4 0xDAB5BB8F EQ PUSH2 0x6C3 JUMPI DUP1 PUSH4 0xDB404538 EQ PUSH2 0x6ED JUMPI DUP1 PUSH4 0xEF4DD55D EQ PUSH2 0x717 JUMPI DUP1 PUSH4 0xFFB77395 EQ PUSH2 0x753 JUMPI PUSH2 0x1D7 JUMP JUMPDEST DUP1 PUSH4 0xAD3CB1CC EQ PUSH2 0x60B JUMPI DUP1 PUSH4 0xB0079683 EQ PUSH2 0x635 JUMPI DUP1 PUSH4 0xBC53BBA9 EQ PUSH2 0x65F JUMPI DUP1 PUSH4 0xD547741F EQ PUSH2 0x69B JUMPI PUSH2 0x1D7 JUMP JUMPDEST DUP1 PUSH4 0x8129FC1C GT PUSH2 0xD0 JUMPI DUP1 PUSH4 0x8129FC1C EQ PUSH2 0x565 JUMPI DUP1 PUSH4 0x91D14854 EQ PUSH2 0x57B JUMPI DUP1 PUSH4 0xA217FDDF EQ PUSH2 0x5B7 JUMPI DUP1 PUSH4 0xA4A44A22 EQ PUSH2 0x5E1 JUMPI PUSH2 0x1D7 JUMP JUMPDEST DUP1 PUSH4 0x50D336ED EQ PUSH2 0x4C1 JUMPI DUP1 PUSH4 0x52D1902D EQ PUSH2 0x4E9 JUMPI DUP1 PUSH4 0x609AB6EC EQ PUSH2 0x513 JUMPI DUP1 PUSH4 0x80FE39C8 EQ PUSH2 0x53D JUMPI PUSH2 0x1D7 JUMP JUMPDEST DUP1 PUSH4 0x2B432C39 GT PUSH2 0x179 JUMPI DUP1 PUSH4 0x3956B553 GT PUSH2 0x148 JUMPI DUP1 PUSH4 0x3956B553 EQ PUSH2 0x403 JUMPI DUP1 PUSH4 0x430CF9C2 EQ PUSH2 0x43F JUMPI DUP1 PUSH4 0x4F1EF286 EQ PUSH2 0x47B JUMPI DUP1 PUSH4 0x50BB43FE EQ PUSH2 0x497 JUMPI PUSH2 0x1D7 JUMP JUMPDEST DUP1 PUSH4 0x2B432C39 EQ PUSH2 0x34D JUMPI DUP1 PUSH4 0x2BCA2A83 EQ PUSH2 0x389 JUMPI DUP1 PUSH4 0x2F2FF15D EQ PUSH2 0x3B3 JUMPI DUP1 PUSH4 0x36568ABE EQ PUSH2 0x3DB JUMPI PUSH2 0x1D7 JUMP JUMPDEST DUP1 PUSH4 0x145BA058 GT PUSH2 0x1B5 JUMPI DUP1 PUSH4 0x145BA058 EQ PUSH2 0x283 JUMPI DUP1 PUSH4 0x16FB0943 EQ PUSH2 0x2BF JUMPI DUP1 PUSH4 0x248A9CA3 EQ PUSH2 0x2E7 JUMPI DUP1 PUSH4 0x25D91DF4 EQ PUSH2 0x323 JUMPI PUSH2 0x1D7 JUMP JUMPDEST DUP1 PUSH4 0x1FFC9A7 EQ PUSH2 0x1DB JUMPI DUP1 PUSH4 0x85B21D1 EQ PUSH2 0x217 JUMPI DUP1 PUSH4 0x9D90104 EQ PUSH2 0x253 JUMPI JUMPDEST PUSH0 DUP1 REVERT JUMPDEST CALLVALUE DUP1 ISZERO PUSH2 0x1E6 JUMPI PUSH0 DUP1 REVERT JUMPDEST POP PUSH2 0x201 PUSH1 0x4 DUP1 CALLDATASIZE SUB DUP2 ADD SWAP1 PUSH2 0x1FC SWAP2 SWAP1 PUSH2 0x2ED5 JUMP JUMPDEST PUSH2 0x77D JUMP JUMPDEST PUSH1 0x40 MLOAD PUSH2 0x20E SWAP2 SWAP1 PUSH2 0x2F1A JUMP JUMPDEST PUSH1 0x40 MLOAD DUP1 SWAP2 SUB SWAP1 RETURN JUMPDEST CALLVALUE DUP1 ISZERO PUSH2 0x222 JUMPI PUSH0 DUP1 REVERT JUMPDEST POP PUSH2 0x23D PUSH1 0x4 DUP1 CALLDATASIZE SUB DUP2 ADD SWAP1 PUSH2 0x238 SWAP2 SWAP1 PUSH2 0x32FE JUMP JUMPDEST PUSH2 0x7F6 JUMP JUMPDEST PUSH1 0x40 MLOAD PUSH2 0x24A SWAP2 SWAP1 PUSH2 0x2F1A JUMP JUMPDEST PUSH1 0x40 MLOAD DUP1 SWAP2 SUB SWAP1 RETURN JUMPDEST PUSH2 0x26D PUSH1 0x4 DUP1 CALLDATASIZE SUB DUP2 ADD SWAP1 PUSH2 0x268 SWAP2 SWAP1 PUSH2 0x33C4 JUMP JUMPDEST PUSH2 0x832 JUMP JUMPDEST PUSH1 0x40 MLOAD PUSH2 0x27A SWAP2 SWAP1 PUSH2 0x2F1A JUMP JUMPDEST PUSH1 0x40 MLOAD DUP1 SWAP2 SUB SWAP1 RETURN JUMPDEST CALLVALUE DUP1 ISZERO PUSH2 0x28E JUMPI PUSH0 DUP1 REVERT JUMPDEST POP PUSH2 0x2A9 PUSH1 0x4 DUP1 CALLDATASIZE SUB DUP2 ADD SWAP1 PUSH2 0x2A4 SWAP2 SWAP1 PUSH2 0x3421 JUMP JUMPDEST PUSH2 0xEE5 JUMP JUMPDEST PUSH1 0x40 MLOAD PUSH2 0x2B6 SWAP2 SWAP1 PUSH2 0x2F1A JUMP JUMPDEST PUSH1 0x40 MLOAD DUP1 SWAP2 SUB SWAP1 RETURN JUMPDEST CALLVALUE DUP1 ISZERO PUSH2 0x2CA JUMPI PUSH0 DUP1 REVERT JUMPDEST POP PUSH2 0x2E5 PUSH1 0x4 DUP1 CALLDATASIZE SUB DUP2 ADD SWAP1 PUSH2 0x2E0 SWAP2 SWAP1 PUSH2 0x347B JUMP JUMPDEST PUSH2 0x1011 JUMP JUMPDEST STOP JUMPDEST CALLVALUE DUP1 ISZERO PUSH2 0x2F2 JUMPI PUSH0 DUP1 REVERT JUMPDEST POP PUSH2 0x30D PUSH1 0x4 DUP1 CALLDATASIZE SUB DUP2 ADD SWAP1 PUSH2 0x308 SWAP2 SWAP1 PUSH2 0x34CB JUMP JUMPDEST PUSH2 0x104C JUMP JUMPDEST PUSH1 0x40 MLOAD PUSH2 0x31A SWAP2 SWAP1 PUSH2 0x3505 JUMP JUMPDEST PUSH1 0x40 MLOAD DUP1 SWAP2 SUB SWAP1 RETURN JUMPDEST CALLVALUE DUP1 ISZERO PUSH2 0x32E JUMPI PUSH0 DUP1 REVERT JUMPDEST POP PUSH2 0x337 PUSH2 0x1076 JUMP JUMPDEST PUSH1 0x40 MLOAD PUSH2 0x344 SWAP2 SWAP1 PUSH2 0x3505 JUMP JUMPDEST PUSH1 0x40 MLOAD DUP1 SWAP2 SUB SWAP1 RETURN JUMPDEST CALLVALUE DUP1 ISZERO PUSH2 0x358 JUMPI PUSH0 DUP1 REVERT JUMPDEST POP PUSH2 0x373 PUSH1 0x4 DUP1 CALLDATASIZE SUB DUP2 ADD SWAP1 PUSH2 0x36E SWAP2 SWAP1 PUSH2 0x353C JUMP JUMPDEST PUSH2 0x109A JUMP JUMPDEST PUSH1 0x40 MLOAD PUSH2 0x380 SWAP2 SWAP1 PUSH2 0x2F1A JUMP JUMPDEST PUSH1 0x40 MLOAD DUP1 SWAP2 SUB SWAP1 RETURN JUMPDEST CALLVALUE DUP1 ISZERO PUSH2 0x394 JUMPI PUSH0 DUP1 REVERT JUMPDEST POP PUSH2 0x39D PUSH2 0x12DD JUMP JUMPDEST PUSH1 0x40 MLOAD PUSH2 0x3AA SWAP2 SWAP1 PUSH2 0x3505 JUMP JUMPDEST PUSH1 0x40 MLOAD DUP1 SWAP2 SUB SWAP1 RETURN JUMPDEST CALLVALUE DUP1 ISZERO PUSH2 0x3BE JUMPI PUSH0 DUP1 REVERT JUMPDEST POP PUSH2 0x3D9 PUSH1 0x4 DUP1 CALLDATASIZE SUB DUP2 ADD SWAP1 PUSH2 0x3D4 SWAP2 SWAP1 PUSH2 0x357A JUMP JUMPDEST PUSH2 0x1301 JUMP JUMPDEST STOP JUMPDEST CALLVALUE DUP1 ISZERO PUSH2 0x3E6 JUMPI PUSH0 DUP1 REVERT JUMPDEST POP PUSH2 0x401 PUSH1 0x4 DUP1 CALLDATASIZE SUB DUP2 ADD SWAP1 PUSH2 0x3FC SWAP2 SWAP1 PUSH2 0x357A JUMP JUMPDEST PUSH2 0x1323 JUMP JUMPDEST STOP JUMPDEST CALLVALUE DUP1 ISZERO PUSH2 0x40E JUMPI PUSH0 DUP1 REVERT JUMPDEST POP PUSH2 0x429 PUSH1 0x4 DUP1 CALLDATASIZE SUB DUP2 ADD SWAP1 PUSH2 0x424 SWAP2 SWAP1 PUSH2 0x35D6 JUMP JUMPDEST PUSH2 0x139E JUMP JUMPDEST PUSH1 0x40 MLOAD PUSH2 0x436 SWAP2 SWAP1 PUSH2 0x2F1A JUMP JUMPDEST PUSH1 0x40 MLOAD DUP1 SWAP2 SUB SWAP1 RETURN JUMPDEST CALLVALUE DUP1 ISZERO PUSH2 0x44A JUMPI PUSH0 DUP1 REVERT JUMPDEST POP PUSH2 0x465 PUSH1 0x4 DUP1 CALLDATASIZE SUB DUP2 ADD SWAP1 PUSH2 0x460 SWAP2 SWAP1 PUSH2 0x364C JUMP JUMPDEST PUSH2 0x1437 JUMP JUMPDEST PUSH1 0x40 MLOAD PUSH2 0x472 SWAP2 SWAP1 PUSH2 0x2F1A JUMP JUMPDEST PUSH1 0x40 MLOAD DUP1 SWAP2 SUB SWAP1 RETURN JUMPDEST PUSH2 0x495 PUSH1 0x4 DUP1 CALLDATASIZE SUB DUP2 ADD SWAP1 PUSH2 0x490 SWAP2 SWAP1 PUSH2 0x3693 JUMP JUMPDEST PUSH2 0x14C8 JUMP JUMPDEST STOP JUMPDEST CALLVALUE DUP1 ISZERO PUSH2 0x4A2 JUMPI PUSH0 DUP1 REVERT JUMPDEST POP PUSH2 0x4AB PUSH2 0x14E7 JUMP JUMPDEST PUSH1 0x40 MLOAD PUSH2 0x4B8 SWAP2 SWAP1 PUSH2 0x3505 JUMP JUMPDEST PUSH1 0x40 MLOAD DUP1 SWAP2 SUB SWAP1 RETURN JUMPDEST CALLVALUE DUP1 ISZERO PUSH2 0x4CC JUMPI PUSH0 DUP1 REVERT JUMPDEST POP PUSH2 0x4E7 PUSH1 0x4 DUP1 CALLDATASIZE SUB DUP2 ADD SWAP1 PUSH2 0x4E2 SWAP2 SWAP1 PUSH2 0x357A JUMP JUMPDEST PUSH2 0x150B JUMP JUMPDEST STOP JUMPDEST CALLVALUE DUP1 ISZERO PUSH2 0x4F4 JUMPI PUSH0 DUP1 REVERT JUMPDEST POP PUSH2 0x4FD PUSH2 0x1588 JUMP JUMPDEST PUSH1 0x40 MLOAD PUSH2 0x50A SWAP2 SWAP1 PUSH2 0x3505 JUMP JUMPDEST PUSH1 0x40 MLOAD DUP1 SWAP2 SUB SWAP1 RETURN JUMPDEST CALLVALUE DUP1 ISZERO PUSH2 0x51E JUMPI PUSH0 DUP1 REVERT JUMPDEST POP PUSH2 0x527 PUSH2 0x15B9 JUMP JUMPDEST PUSH1 0x40 MLOAD PUSH2 0x534 SWAP2 SWAP1 PUSH2 0x3505 JUMP JUMPDEST PUSH1 0x40 MLOAD DUP1 SWAP2 SUB SWAP1 RETURN JUMPDEST CALLVALUE DUP1 ISZERO PUSH2 0x548 JUMPI PUSH0 DUP1 REVERT JUMPDEST POP PUSH2 0x563 PUSH1 0x4 DUP1 CALLDATASIZE SUB DUP2 ADD SWAP1 PUSH2 0x55E SWAP2 SWAP1 PUSH2 0x3717 JUMP JUMPDEST PUSH2 0x15DD JUMP JUMPDEST STOP JUMPDEST CALLVALUE DUP1 ISZERO PUSH2 0x570 JUMPI PUSH0 DUP1 REVERT JUMPDEST POP PUSH2 0x579 PUSH2 0x1624 JUMP JUMPDEST STOP JUMPDEST CALLVALUE DUP1 ISZERO PUSH2 0x586 JUMPI PUSH0 DUP1 REVERT JUMPDEST POP PUSH2 0x5A1 PUSH1 0x4 DUP1 CALLDATASIZE SUB DUP2 ADD SWAP1 PUSH2 0x59C SWAP2 SWAP1 PUSH2 0x357A JUMP JUMPDEST PUSH2 0x17A8 JUMP JUMPDEST PUSH1 0x40 MLOAD PUSH2 0x5AE SWAP2 SWAP1 PUSH2 0x2F1A JUMP JUMPDEST PUSH1 0x40 MLOAD DUP1 SWAP2 SUB SWAP1 RETURN JUMPDEST CALLVALUE DUP1 ISZERO PUSH2 0x5C2 JUMPI PUSH0 DUP1 REVERT JUMPDEST POP PUSH2 0x5CB PUSH2 0x1819 JUMP JUMPDEST PUSH1 0x40 MLOAD PUSH2 0x5D8 SWAP2 SWAP1 PUSH2 0x3505 JUMP JUMPDEST PUSH1 0x40 MLOAD DUP1 SWAP2 SUB SWAP1 RETURN JUMPDEST CALLVALUE DUP1 ISZERO PUSH2 0x5EC JUMPI PUSH0 DUP1 REVERT JUMPDEST POP PUSH2 0x5F5 PUSH2 0x181F JUMP JUMPDEST PUSH1 0x40 MLOAD PUSH2 0x602 SWAP2 SWAP1 PUSH2 0x2F1A JUMP JUMPDEST PUSH1 0x40 MLOAD DUP1 SWAP2 SUB SWAP1 RETURN JUMPDEST CALLVALUE DUP1 ISZERO PUSH2 0x616 JUMPI PUSH0 DUP1 REVERT JUMPDEST POP PUSH2 0x61F PUSH2 0x1831 JUMP JUMPDEST PUSH1 0x40 MLOAD PUSH2 0x62C SWAP2 SWAP1 PUSH2 0x37BC JUMP JUMPDEST PUSH1 0x40 MLOAD DUP1 SWAP2 SUB SWAP1 RETURN JUMPDEST CALLVALUE DUP1 ISZERO PUSH2 0x640 JUMPI PUSH0 DUP1 REVERT JUMPDEST POP PUSH2 0x649 PUSH2 0x186A JUMP JUMPDEST PUSH1 0x40 MLOAD PUSH2 0x656 SWAP2 SWAP1 PUSH2 0x3505 JUMP JUMPDEST PUSH1 0x40 MLOAD DUP1 SWAP2 SUB SWAP1 RETURN JUMPDEST CALLVALUE DUP1 ISZERO PUSH2 0x66A JUMPI PUSH0 DUP1 REVERT JUMPDEST POP PUSH2 0x685 PUSH1 0x4 DUP1 CALLDATASIZE SUB DUP2 ADD SWAP1 PUSH2 0x680 SWAP2 SWAP1 PUSH2 0x3831 JUMP JUMPDEST PUSH2 0x188E JUMP JUMPDEST PUSH1 0x40 MLOAD PUSH2 0x692 SWAP2 SWAP1 PUSH2 0x2F1A JUMP JUMPDEST PUSH1 0x40 MLOAD DUP1 SWAP2 SUB SWAP1 RETURN JUMPDEST CALLVALUE DUP1 ISZERO PUSH2 0x6A6 JUMPI PUSH0 DUP1 REVERT JUMPDEST POP PUSH2 0x6C1 PUSH1 0x4 DUP1 CALLDATASIZE SUB DUP2 ADD SWAP1 PUSH2 0x6BC SWAP2 SWAP1 PUSH2 0x357A JUMP JUMPDEST PUSH2 0x1A1D JUMP JUMPDEST STOP JUMPDEST CALLVALUE DUP1 ISZERO PUSH2 0x6CE JUMPI PUSH0 DUP1 REVERT JUMPDEST POP PUSH2 0x6D7 PUSH2 0x1A3F JUMP JUMPDEST PUSH1 0x40 MLOAD PUSH2 0x6E4 SWAP2 SWAP1 PUSH2 0x3505 JUMP JUMPDEST PUSH1 0x40 MLOAD DUP1 SWAP2 SUB SWAP1 RETURN JUMPDEST CALLVALUE DUP1 ISZERO PUSH2 0x6F8 JUMPI PUSH0 DUP1 REVERT JUMPDEST POP PUSH2 0x701 PUSH2 0x1A63 JUMP JUMPDEST PUSH1 0x40 MLOAD PUSH2 0x70E SWAP2 SWAP1 PUSH2 0x3505 JUMP JUMPDEST PUSH1 0x40 MLOAD DUP1 SWAP2 SUB SWAP1 RETURN JUMPDEST CALLVALUE DUP1 ISZERO PUSH2 0x722 JUMPI PUSH0 DUP1 REVERT JUMPDEST POP PUSH2 0x73D PUSH1 0x4 DUP1 CALLDATASIZE SUB DUP2 ADD SWAP1 PUSH2 0x738 SWAP2 SWAP1 PUSH2 0x34CB JUMP JUMPDEST PUSH2 0x1A87 JUMP JUMPDEST PUSH1 0x40 MLOAD PUSH2 0x74A SWAP2 SWAP1 PUSH2 0x388B JUMP JUMPDEST PUSH1 0x40 MLOAD DUP1 SWAP2 SUB SWAP1 RETURN JUMPDEST CALLVALUE DUP1 ISZERO PUSH2 0x75E JUMPI PUSH0 DUP1 REVERT JUMPDEST POP PUSH2 0x767 PUSH2 0x1AB6 JUMP JUMPDEST PUSH1 0x40 MLOAD PUSH2 0x774 SWAP2 SWAP1 PUSH2 0x3505 JUMP JUMPDEST PUSH1 0x40 MLOAD DUP1 SWAP2 SUB SWAP1 RETURN JUMPDEST PUSH0 PUSH32 0x7965DB0B00000000000000000000000000000000000000000000000000000000 PUSH28 0xFFFFFFFFFFFFFFFFFFFFFFFFFFFFFFFFFFFFFFFFFFFFFFFFFFFFFFFF NOT AND DUP3 PUSH28 0xFFFFFFFFFFFFFFFFFFFFFFFFFFFFFFFFFFFFFFFFFFFFFFFFFFFFFFFF NOT AND EQ DUP1 PUSH2 0x7EF JUMPI POP PUSH2 0x7EE DUP3 PUSH2 0x1ADA JUMP JUMPDEST JUMPDEST SWAP1 POP SWAP2 SWAP1 POP JUMP JUMPDEST PUSH0 PUSH32 0x5C9F8A1F8085E87C1CD1DBD0FC499F4B22698A6DFB10C34AEC0AA3E50FE0D6FF PUSH2 0x821 DUP2 PUSH2 0x1B43 JUMP JUMPDEST PUSH2 0x82A DUP4 PUSH2 0x1B57 JUMP JUMPDEST SWAP2 POP POP SWAP2 SWAP1 POP JUMP JUMPDEST PUSH0 PUSH1 0x1 PUSH0 SWAP1 SLOAD SWAP1 PUSH2 0x100 EXP SWAP1 DIV PUSH1 0xFF AND ISZERO PUSH2 0x882 JUMPI PUSH1 0x40 MLOAD PUSH32 0x8C379A000000000000000000000000000000000000000000000000000000000 DUP2 MSTORE PUSH1 0x4 ADD PUSH2 0x879 SWAP1 PUSH2 0x38EE JUMP JUMPDEST PUSH1 0x40 MLOAD DUP1 SWAP2 SUB SWAP1 REVERT JUMPDEST PUSH2 0x8B6 PUSH32 0x9C7ABE1CC344A0C822ED019AA7E0C3C247359AA68F7DD45424189F65D496D679 PUSH2 0x8AF DUP7 PUSH2 0x1C79 JUMP JUMPDEST DUP6 DUP6 PUSH2 0x1CDF JUMP JUMPDEST PUSH2 0x8F5 JUMPI PUSH1 0x40 MLOAD PUSH32 0x8C379A000000000000000000000000000000000000000000000000000000000 DUP2 MSTORE PUSH1 0x4 ADD PUSH2 0x8EC SWAP1 PUSH2 0x3956 JUMP JUMPDEST PUSH1 0x40 MLOAD DUP1 SWAP2 SUB SWAP1 REVERT JUMPDEST CALLER PUSH20 0xFFFFFFFFFFFFFFFFFFFFFFFFFFFFFFFFFFFFFFFF AND DUP5 PUSH1 0x20 ADD PUSH1 0x20 DUP2 ADD SWAP1 PUSH2 0x91F SWAP2 SWAP1 PUSH2 0x3974 JUMP JUMPDEST PUSH20 0xFFFFFFFFFFFFFFFFFFFFFFFFFFFFFFFFFFFFFFFF AND EQ PUSH2 0x975 JUMPI PUSH1 0x40 MLOAD PUSH32 0x8C379A000000000000000000000000000000000000000000000000000000000 DUP2 MSTORE PUSH1 0x4 ADD PUSH2 0x96C SWAP1 PUSH2 0x39E9 JUMP JUMPDEST PUSH1 0x40 MLOAD DUP1 SWAP2 SUB SWAP1 REVERT JUMPDEST PUSH0 CALLVALUE SWAP1 POP PUSH0 PUSH20 0xFFFFFFFFFFFFFFFFFFFFFFFFFFFFFFFFFFFFFFFF AND DUP6 PUSH1 0x40 ADD PUSH1 0x20 DUP2 ADD SWAP1 PUSH2 0x9A3 SWAP2 SWAP1 PUSH2 0x3974 JUMP JUMPDEST PUSH20 0xFFFFFFFFFFFFFFFFFFFFFFFFFFFFFFFFFFFFFFFF AND SUB PUSH2 0xA1B JUMPI CALLVALUE DUP6 PUSH1 0x60 ADD CALLDATALOAD LT PUSH2 0xA04 JUMPI PUSH1 0x40 MLOAD PUSH32 0x8C379A000000000000000000000000000000000000000000000000000000000 DUP2 MSTORE PUSH1 0x4 ADD PUSH2 0x9FB SWAP1 PUSH2 0x3A51 JUMP JUMPDEST PUSH1 0x40 MLOAD DUP1 SWAP2 SUB SWAP1 REVERT JUMPDEST DUP5 PUSH1 0x60 ADD CALLDATALOAD DUP2 PUSH2 0xA14 SWAP2 SWAP1 PUSH2 0x3A9C JUMP JUMPDEST SWAP1 POP PUSH2 0xC59 JUMP JUMPDEST PUSH0 DUP6 PUSH1 0x40 ADD PUSH1 0x20 DUP2 ADD SWAP1 PUSH2 0xA2F SWAP2 SWAP1 PUSH2 0x3974 JUMP JUMPDEST PUSH20 0xFFFFFFFFFFFFFFFFFFFFFFFFFFFFFFFFFFFFFFFF AND PUSH4 0x70A08231 ADDRESS PUSH1 0x40 MLOAD DUP3 PUSH4 0xFFFFFFFF AND PUSH1 0xE0 SHL DUP2 MSTORE PUSH1 0x4 ADD PUSH2 0xA67 SWAP2 SWAP1 PUSH2 0x388B JUMP JUMPDEST PUSH1 0x20 PUSH1 0x40 MLOAD DUP1 DUP4 SUB DUP2 DUP7 GAS STATICCALL ISZERO DUP1 ISZERO PUSH2 0xA82 JUMPI RETURNDATASIZE PUSH0 DUP1 RETURNDATACOPY RETURNDATASIZE PUSH0 REVERT JUMPDEST POP POP POP POP PUSH1 0x40 MLOAD RETURNDATASIZE PUSH1 0x1F NOT PUSH1 0x1F DUP3 ADD AND DUP3 ADD DUP1 PUSH1 0x40 MSTORE POP DUP2 ADD SWAP1 PUSH2 0xAA6 SWAP2 SWAP1 PUSH2 0x3AE3 JUMP JUMPDEST SWAP1 POP DUP6 PUSH1 0x40 ADD PUSH1 0x20 DUP2 ADD SWAP1 PUSH2 0xABB SWAP2 SWAP1 PUSH2 0x3974 JUMP JUMPDEST PUSH20 0xFFFFFFFFFFFFFFFFFFFFFFFFFFFFFFFFFFFFFFFF AND PUSH4 0x23B872DD CALLER ADDRESS DUP10 PUSH1 0x60 ADD CALLDATALOAD PUSH1 0x40 MLOAD DUP5 PUSH4 0xFFFFFFFF AND PUSH1 0xE0 SHL DUP2 MSTORE PUSH1 0x4 ADD PUSH2 0xAFB SWAP4 SWAP3 SWAP2 SWAP1 PUSH2 0x3B1D JUMP JUMPDEST PUSH1 0x20 PUSH1 0x40 MLOAD DUP1 DUP4 SUB DUP2 PUSH0 DUP8 GAS CALL ISZERO DUP1 ISZERO PUSH2 0xB17 JUMPI RETURNDATASIZE PUSH0 DUP1 RETURNDATACOPY RETURNDATASIZE PUSH0 REVERT JUMPDEST POP POP POP POP PUSH1 0x40 MLOAD RETURNDATASIZE PUSH1 0x1F NOT PUSH1 0x1F DUP3 ADD AND DUP3 ADD DUP1 PUSH1 0x40 MSTORE POP DUP2 ADD SWAP1 PUSH2 0xB3B SWAP2 SWAP1 PUSH2 0x3B66 JUMP JUMPDEST SWAP3 POP DUP3 PUSH2 0xB7D JUMPI PUSH1 0x40 MLOAD PUSH32 0x8C379A000000000000000000000000000000000000000000000000000000000 DUP2 MSTORE PUSH1 0x4 ADD PUSH2 0xB74 SWAP1 PUSH2 0x3BDB JUMP JUMPDEST PUSH1 0x40 MLOAD DUP1 SWAP2 SUB SWAP1 REVERT JUMPDEST DUP6 PUSH1 0x40 ADD PUSH1 0x20 DUP2 ADD SWAP1 PUSH2 0xB90 SWAP2 SWAP1 PUSH2 0x3974 JUMP JUMPDEST PUSH20 0xFFFFFFFFFFFFFFFFFFFFFFFFFFFFFFFFFFFFFFFF AND PUSH4 0x70A08231 ADDRESS PUSH1 0x40 MLOAD DUP3 PUSH4 0xFFFFFFFF AND PUSH1 0xE0 SHL DUP2 MSTORE PUSH1 0x4 ADD PUSH2 0xBC8 SWAP2 SWAP1 PUSH2 0x388B JUMP JUMPDEST PUSH1 0x20 PUSH1 0x40 MLOAD DUP1 DUP4 SUB DUP2 DUP7 GAS STATICCALL ISZERO DUP1 ISZERO PUSH2 0xBE3 JUMPI RETURNDATASIZE PUSH0 DUP1 RETURNDATACOPY RETURNDATASIZE PUSH0 REVERT JUMPDEST POP POP POP POP PUSH1 0x40 MLOAD RETURNDATASIZE PUSH1 0x1F NOT PUSH1 0x1F DUP3 ADD AND DUP3 ADD DUP1 PUSH1 0x40 MSTORE POP DUP2 ADD SWAP1 PUSH2 0xC07 SWAP2 SWAP1 PUSH2 0x3AE3 JUMP JUMPDEST DUP7 PUSH1 0x60 ADD CALLDATALOAD DUP3 PUSH2 0xC17 SWAP2 SWAP1 PUSH2 0x3BF9 JUMP JUMPDEST EQ PUSH2 0xC57 JUMPI PUSH1 0x40 MLOAD PUSH32 0x8C379A000000000000000000000000000000000000000000000000000000000 DUP2 MSTORE PUSH1 0x4 ADD PUSH2 0xC4E SWAP1 PUSH2 0x3C76 JUMP JUMPDEST PUSH1 0x40 MLOAD DUP1 SWAP2 SUB SWAP1 REVERT JUMPDEST POP JUMPDEST DUP5 PUSH1 0xA0 ADD CALLDATALOAD DUP6 PUSH1 0x80 ADD CALLDATALOAD PUSH2 0xC6D SWAP2 SWAP1 PUSH2 0x3BF9 JUMP JUMPDEST DUP2 EQ PUSH2 0xCAE JUMPI PUSH1 0x40 MLOAD PUSH32 0x8C379A000000000000000000000000000000000000000000000000000000000 DUP2 MSTORE PUSH1 0x4 ADD PUSH2 0xCA5 SWAP1 PUSH2 0x3CDE JUMP JUMPDEST PUSH1 0x40 MLOAD DUP1 SWAP2 SUB SWAP1 REVERT JUMPDEST PUSH0 DUP1 PUSH32 0x3519CF5AEB70DA6112075D724F8FF68482F701927DF8EB30D337663E095ECE05 DUP2 MSTORE PUSH1 0x20 ADD SWAP1 DUP2 MSTORE PUSH1 0x20 ADD PUSH0 KECCAK256 PUSH0 SWAP1 SLOAD SWAP1 PUSH2 0x100 EXP SWAP1 DIV PUSH20 0xFFFFFFFFFFFFFFFFFFFFFFFFFFFFFFFFFFFFFFFF AND PUSH20 0xFFFFFFFFFFFFFFFFFFFFFFFFFFFFFFFFFFFFFFFF AND DUP6 PUSH1 0x80 ADD CALLDATALOAD PUSH1 0x40 MLOAD PUSH2 0xD25 SWAP1 PUSH2 0x3D29 JUMP JUMPDEST PUSH0 PUSH1 0x40 MLOAD DUP1 DUP4 SUB DUP2 DUP6 DUP8 GAS CALL SWAP3 POP POP POP RETURNDATASIZE DUP1 PUSH0 DUP2 EQ PUSH2 0xD5F JUMPI PUSH1 0x40 MLOAD SWAP2 POP PUSH1 0x1F NOT PUSH1 0x3F RETURNDATASIZE ADD AND DUP3 ADD PUSH1 0x40 MSTORE RETURNDATASIZE DUP3 MSTORE RETURNDATASIZE PUSH0 PUSH1 0x20 DUP5 ADD RETURNDATACOPY PUSH2 0xD64 JUMP JUMPDEST PUSH1 0x60 SWAP2 POP JUMPDEST POP POP DUP1 SWAP3 POP POP DUP2 PUSH2 0xDAA JUMPI PUSH1 0x40 MLOAD PUSH32 0x8C379A000000000000000000000000000000000000000000000000000000000 DUP2 MSTORE PUSH1 0x4 ADD PUSH2 0xDA1 SWAP1 PUSH2 0x3D87 JUMP JUMPDEST PUSH1 0x40 MLOAD DUP1 SWAP2 SUB SWAP1 REVERT JUMPDEST PUSH0 DUP1 PUSH32 0xBF552E6E0A367F565CA7B394EBA25A2010479EDA0873B6FC1B4CE9F00E7085A6 DUP2 MSTORE PUSH1 0x20 ADD SWAP1 DUP2 MSTORE PUSH1 0x20 ADD PUSH0 KECCAK256 PUSH0 SWAP1 SLOAD SWAP1 PUSH2 0x100 EXP SWAP1 DIV PUSH20 0xFFFFFFFFFFFFFFFFFFFFFFFFFFFFFFFFFFFFFFFF AND PUSH20 0xFFFFFFFFFFFFFFFFFFFFFFFFFFFFFFFFFFFFFFFF AND DUP6 PUSH1 0xA0 ADD CALLDATALOAD PUSH1 0x40 MLOAD PUSH2 0xE21 SWAP1 PUSH2 0x3D29 JUMP JUMPDEST PUSH0 PUSH1 0x40 MLOAD DUP1 DUP4 SUB DUP2 DUP6 DUP8 GAS CALL SWAP3 POP POP POP RETURNDATASIZE DUP1 PUSH0 DUP2 EQ PUSH2 0xE5B JUMPI PUSH1 0x40 MLOAD SWAP2 POP PUSH1 0x1F NOT PUSH1 0x3F RETURNDATASIZE ADD AND DUP3 ADD PUSH1 0x40 MSTORE RETURNDATASIZE DUP3 MSTORE RETURNDATASIZE PUSH0 PUSH1 0x20 DUP5 ADD RETURNDATACOPY PUSH2 0xE60 JUMP JUMPDEST PUSH1 0x60 SWAP2 POP JUMPDEST POP POP DUP1 SWAP3 POP POP DUP2 PUSH2 0xEA6 JUMPI PUSH1 0x40 MLOAD PUSH32 0x8C379A000000000000000000000000000000000000000000000000000000000 DUP2 MSTORE PUSH1 0x4 ADD PUSH2 0xE9D SWAP1 PUSH2 0x3DEF JUMP JUMPDEST PUSH1 0x40 MLOAD DUP1 SWAP2 SUB SWAP1 REVERT JUMPDEST PUSH32 0x77F9CBD78986FD540D098DDFA28C2C574E12D43FA6400831280DA990A364E15B DUP6 PUSH1 0x40 MLOAD PUSH2 0xED5 SWAP2 SWAP1 PUSH2 0x3F00 JUMP JUMPDEST PUSH1 0x40 MLOAD DUP1 SWAP2 SUB SWAP1 LOG1 POP SWAP4 SWAP3 POP POP POP JUMP JUMPDEST PUSH0 PUSH32 0x5C9F8A1F8085E87C1CD1DBD0FC499F4B22698A6DFB10C34AEC0AA3E50FE0D6FF PUSH2 0xF10 DUP2 PUSH2 0x1B43 JUMP JUMPDEST PUSH0 DUP1 PUSH32 0x91252170D30EBDF6E8CEA4292A8E5081A5C77E065AA855C856AF6F3DD1F2F7BA DUP2 MSTORE PUSH1 0x20 ADD SWAP1 DUP2 MSTORE PUSH1 0x20 ADD PUSH0 KECCAK256 PUSH0 SWAP1 SLOAD SWAP1 PUSH2 0x100 EXP SWAP1 DIV PUSH20 0xFFFFFFFFFFFFFFFFFFFFFFFFFFFFFFFFFFFFFFFF AND PUSH20 0xFFFFFFFFFFFFFFFFFFFFFFFFFFFFFFFFFFFFFFFF AND DUP5 DUP5 PUSH1 0x40 MLOAD PUSH2 0xF85 SWAP2 SWAP1 PUSH2 0x3F53 JUMP JUMPDEST PUSH0 PUSH1 0x40 MLOAD DUP1 DUP4 SUB DUP2 DUP6 DUP8 GAS CALL SWAP3 POP POP POP RETURNDATASIZE DUP1 PUSH0 DUP2 EQ PUSH2 0xFBF JUMPI PUSH1 0x40 MLOAD SWAP2 POP PUSH1 0x1F NOT PUSH1 0x3F RETURNDATASIZE ADD AND DUP3 ADD PUSH1 0x40 MSTORE RETURNDATASIZE DUP3 MSTORE RETURNDATASIZE PUSH0 PUSH1 0x20 DUP5 ADD RETURNDATACOPY PUSH2 0xFC4 JUMP JUMPDEST PUSH1 0x60 SWAP2 POP JUMPDEST POP POP DUP1 SWAP3 POP POP DUP2 PUSH2 0x100A JUMPI PUSH1 0x40 MLOAD PUSH32 0x8C379A000000000000000000000000000000000000000000000000000000000 DUP2 MSTORE PUSH1 0x4 ADD PUSH2 0x1001 SWAP1 PUSH2 0x3FB3 JUMP JUMPDEST PUSH1 0x40 MLOAD DUP1 SWAP2 SUB SWAP1 REVERT JUMPDEST POP SWAP3 SWAP2 POP POP JUMP JUMPDEST PUSH32 0x5C9F8A1F8085E87C1CD1DBD0FC499F4B22698A6DFB10C34AEC0AA3E50FE0D6FF PUSH2 0x103B DUP2 PUSH2 0x1B43 JUMP JUMPDEST PUSH2 0x1046 DUP5 DUP5 DUP5 PUSH2 0x1D6D JUMP JUMPDEST POP POP POP POP JUMP JUMPDEST PUSH0 DUP1 PUSH2 0x1056 PUSH2 0x1ED3 JUMP JUMPDEST SWAP1 POP DUP1 PUSH0 ADD PUSH0 DUP5 DUP2 MSTORE PUSH1 0x20 ADD SWAP1 DUP2 MSTORE PUSH1 0x20 ADD PUSH0 KECCAK256 PUSH1 0x1 ADD SLOAD SWAP2 POP POP SWAP2 SWAP1 POP JUMP JUMPDEST PUSH32 0x5C9F8A1F8085E87C1CD1DBD0FC499F4B22698A6DFB10C34AEC0AA3E50FE0D6FF DUP2 JUMP JUMPDEST PUSH0 PUSH32 0x5C9F8A1F8085E87C1CD1DBD0FC499F4B22698A6DFB10C34AEC0AA3E50FE0D6FF PUSH2 0x10C5 DUP2 PUSH2 0x1B43 JUMP JUMPDEST PUSH0 DUP4 PUSH1 0x80 ADD CALLDATALOAD DUP5 PUSH1 0x60 ADD CALLDATALOAD PUSH2 0x10DA SWAP2 SWAP1 PUSH2 0x3A9C JUMP JUMPDEST SWAP1 POP PUSH0 PUSH20 0xFFFFFFFFFFFFFFFFFFFFFFFFFFFFFFFFFFFFFFFF AND DUP5 PUSH1 0x20 ADD PUSH1 0x20 DUP2 ADD SWAP1 PUSH2 0x1106 SWAP2 SWAP1 PUSH2 0x3974 JUMP JUMPDEST PUSH20 0xFFFFFFFFFFFFFFFFFFFFFFFFFFFFFFFFFFFFFFFF AND SUB PUSH2 0x1138 JUMPI DUP4 PUSH1 0x40 ADD CALLDATALOAD DUP2 PUSH2 0x1131 SWAP2 SWAP1 PUSH2 0x3BF9 JUMP JUMPDEST SWAP1 POP PUSH2 0x121D JUMP JUMPDEST DUP4 PUSH1 0x20 ADD PUSH1 0x20 DUP2 ADD SWAP1 PUSH2 0x114B SWAP2 SWAP1 PUSH2 0x3974 JUMP JUMPDEST PUSH20 0xFFFFFFFFFFFFFFFFFFFFFFFFFFFFFFFFFFFFFFFF AND PUSH4 0xA9059CBB DUP6 PUSH0 ADD PUSH1 0x20 DUP2 ADD SWAP1 PUSH2 0x1178 SWAP2 SWAP1 PUSH2 0x3974 JUMP JUMPDEST DUP7 PUSH1 0x40 ADD CALLDATALOAD PUSH1 0x40 MLOAD DUP4 PUSH4 0xFFFFFFFF AND PUSH1 0xE0 SHL DUP2 MSTORE PUSH1 0x4 ADD PUSH2 0x119A SWAP3 SWAP2 SWAP1 PUSH2 0x3FD1 JUMP JUMPDEST PUSH1 0x20 PUSH1 0x40 MLOAD DUP1 DUP4 SUB DUP2 PUSH0 DUP8 GAS CALL ISZERO DUP1 ISZERO PUSH2 0x11B6 JUMPI RETURNDATASIZE PUSH0 DUP1 RETURNDATACOPY RETURNDATASIZE PUSH0 REVERT JUMPDEST POP POP POP POP PUSH1 0x40 MLOAD RETURNDATASIZE PUSH1 0x1F NOT PUSH1 0x1F DUP3 ADD AND DUP3 ADD DUP1 PUSH1 0x40 MSTORE POP DUP2 ADD SWAP1 PUSH2 0x11DA SWAP2 SWAP1 PUSH2 0x3B66 JUMP JUMPDEST SWAP3 POP DUP3 PUSH2 0x121C JUMPI PUSH1 0x40 MLOAD PUSH32 0x8C379A000000000000000000000000000000000000000000000000000000000 DUP2 MSTORE PUSH1 0x4 ADD PUSH2 0x1213 SWAP1 PUSH2 0x3BDB JUMP JUMPDEST PUSH1 0x40 MLOAD DUP1 SWAP2 SUB SWAP1 REVERT JUMPDEST JUMPDEST DUP4 PUSH0 ADD PUSH1 0x20 DUP2 ADD SWAP1 PUSH2 0x122F SWAP2 SWAP1 PUSH2 0x3974 JUMP JUMPDEST PUSH20 0xFFFFFFFFFFFFFFFFFFFFFFFFFFFFFFFFFFFFFFFF AND DUP2 PUSH1 0x40 MLOAD PUSH2 0x1252 SWAP1 PUSH2 0x3D29 JUMP JUMPDEST PUSH0 PUSH1 0x40 MLOAD DUP1 DUP4 SUB DUP2 DUP6 DUP8 GAS CALL SWAP3 POP POP POP RETURNDATASIZE DUP1 PUSH0 DUP2 EQ PUSH2 0x128C JUMPI PUSH1 0x40 MLOAD SWAP2 POP PUSH1 0x1F NOT PUSH1 0x3F RETURNDATASIZE ADD AND DUP3 ADD PUSH1 0x40 MSTORE RETURNDATASIZE DUP3 MSTORE RETURNDATASIZE PUSH0 PUSH1 0x20 DUP5 ADD RETURNDATACOPY PUSH2 0x1291 JUMP JUMPDEST PUSH1 0x60 SWAP2 POP JUMPDEST POP POP DUP1 SWAP4 POP POP DUP5 PUSH32 0xE2CA2BF72BB8A110D86FE26850E80122EE62F39C11C263696106FB0BCEBBC944 DUP6 PUSH1 0x80 ADD CALLDATALOAD DUP7 PUSH1 0x40 MLOAD PUSH2 0x12CD SWAP3 SWAP2 SWAP1 PUSH2 0x4086 JUMP JUMPDEST PUSH1 0x40 MLOAD DUP1 SWAP2 SUB SWAP1 LOG2 POP POP SWAP3 SWAP2 POP POP JUMP JUMPDEST PUSH32 0x3519CF5AEB70DA6112075D724F8FF68482F701927DF8EB30D337663E095ECE05 DUP2 JUMP JUMPDEST PUSH2 0x130A DUP3 PUSH2 0x104C JUMP JUMPDEST PUSH2 0x1313 DUP2 PUSH2 0x1B43 JUMP JUMPDEST PUSH2 0x131D DUP4 DUP4 PUSH2 0x1EFA JUMP JUMPDEST POP POP POP POP JUMP JUMPDEST PUSH2 0x132B PUSH2 0x1FF2 JUMP JUMPDEST PUSH20 0xFFFFFFFFFFFFFFFFFFFFFFFFFFFFFFFFFFFFFFFF AND DUP2 PUSH20 0xFFFFFFFFFFFFFFFFFFFFFFFFFFFFFFFFFFFFFFFF AND EQ PUSH2 0x138F JUMPI PUSH1 0x40 MLOAD PUSH32 0x6697B23200000000000000000000000000000000000000000000000000000000 DUP2 MSTORE PUSH1 0x4 ADD PUSH1 0x40 MLOAD DUP1 SWAP2 SUB SWAP1 REVERT JUMPDEST PUSH2 0x1399 DUP3 DUP3 PUSH2 0x1FF9 JUMP JUMPDEST POP POP POP JUMP JUMPDEST PUSH0 PUSH32 0x5C9F8A1F8085E87C1CD1DBD0FC499F4B22698A6DFB10C34AEC0AA3E50FE0D6FF PUSH2 0x13C9 DUP2 PUSH2 0x1B43 JUMP JUMPDEST PUSH0 DUP5 DUP1 PUSH0 ADD SWAP1 PUSH2 0x13D9 SWAP2 SWAP1 PUSH2 0x40B9 JUMP JUMPDEST SWAP1 POP GT PUSH2 0x141B JUMPI PUSH1 0x40 MLOAD PUSH32 0x8C379A000000000000000000000000000000000000000000000000000000000 DUP2 MSTORE PUSH1 0x4 ADD PUSH2 0x1412 SWAP1 PUSH2 0x4165 JUMP JUMPDEST PUSH1 0x40 MLOAD DUP1 SWAP2 SUB SWAP1 REVERT JUMPDEST PUSH2 0x1424 DUP5 PUSH2 0x20F1 JUMP JUMPDEST POP PUSH2 0x142E DUP4 PUSH2 0x1B57 JUMP JUMPDEST SWAP2 POP POP SWAP3 SWAP2 POP POP JUMP JUMPDEST PUSH0 PUSH32 0x5C9F8A1F8085E87C1CD1DBD0FC499F4B22698A6DFB10C34AEC0AA3E50FE0D6FF PUSH2 0x1462 DUP2 PUSH2 0x1B43 JUMP JUMPDEST PUSH0 DUP4 DUP1 PUSH0 ADD SWAP1 PUSH2 0x1472 SWAP2 SWAP1 PUSH2 0x40B9 JUMP JUMPDEST SWAP1 POP GT PUSH2 0x14B4 JUMPI PUSH1 0x40 MLOAD PUSH32 0x8C379A000000000000000000000000000000000000000000000000000000000 DUP2 MSTORE PUSH1 0x4 ADD PUSH2 0x14AB SWAP1 PUSH2 0x4165 JUMP JUMPDEST PUSH1 0x40 MLOAD DUP1 SWAP2 SUB SWAP1 REVERT JUMPDEST PUSH2 0x14BD DUP4 PUSH2 0x20F1 JUMP JUMPDEST POP PUSH1 0x1 SWAP2 POP POP SWAP2 SWAP1 POP JUMP JUMPDEST PUSH2 0x14D0 PUSH2 0x249E JUMP JUMPDEST PUSH2 0x14D9 DUP3 PUSH2 0x2584 JUMP JUMPDEST PUSH2 0x14E3 DUP3 DUP3 PUSH2 0x2594 JUMP JUMPDEST POP POP JUMP JUMPDEST PUSH32 0x19E84AF850D308F83CAFC054CED962BF340369700532ABE13C64A9B9176DAFCC DUP2 JUMP JUMPDEST PUSH32 0x7D4C95EBF98B3D0730A4B295F90CCF54047E768470D7C5E21916C87CD29A3249 PUSH2 0x1535 DUP2 PUSH2 0x1B43 JUMP JUMPDEST DUP2 PUSH0 DUP1 DUP6 DUP2 MSTORE PUSH1 0x20 ADD SWAP1 DUP2 MSTORE PUSH1 0x20 ADD PUSH0 KECCAK256 PUSH0 PUSH2 0x100 EXP DUP2 SLOAD DUP2 PUSH20 0xFFFFFFFFFFFFFFFFFFFFFFFFFFFFFFFFFFFFFFFF MUL NOT AND SWAP1 DUP4 PUSH20 0xFFFFFFFFFFFFFFFFFFFFFFFFFFFFFFFFFFFFFFFF AND MUL OR SWAP1 SSTORE POP POP POP POP JUMP JUMPDEST PUSH0 PUSH2 0x1591 PUSH2 0x26B2 JUMP JUMPDEST PUSH32 0x360894A13BA1A3210667C828492DB98DCA3E2076CC3735A920A3CA505D382BBC PUSH0 SHL SWAP1 POP SWAP1 JUMP JUMPDEST PUSH32 0x88293327F82DEEEFE2207F437BFA0859226C07C40EBC93DADA7DADC53ECFBB1D DUP2 JUMP JUMPDEST PUSH32 0x5C9F8A1F8085E87C1CD1DBD0FC499F4B22698A6DFB10C34AEC0AA3E50FE0D6FF PUSH2 0x1607 DUP2 PUSH2 0x1B43 JUMP JUMPDEST DUP2 PUSH1 0x1 PUSH0 PUSH2 0x100 EXP DUP2 SLOAD DUP2 PUSH1 0xFF MUL NOT AND SWAP1 DUP4 ISZERO ISZERO MUL OR SWAP1 SSTORE POP POP POP JUMP JUMPDEST PUSH0 PUSH2 0x162D PUSH2 0x2739 JUMP JUMPDEST SWAP1 POP PUSH0 DUP2 PUSH0 ADD PUSH1 0x8 SWAP1 SLOAD SWAP1 PUSH2 0x100 EXP SWAP1 DIV PUSH1 0xFF AND ISZERO SWAP1 POP PUSH0 DUP3 PUSH0 ADD PUSH0 SWAP1 SLOAD SWAP1 PUSH2 0x100 EXP SWAP1 DIV PUSH8 0xFFFFFFFFFFFFFFFF AND SWAP1 POP PUSH0 DUP1 DUP3 PUSH8 0xFFFFFFFFFFFFFFFF AND EQ DUP1 ISZERO PUSH2 0x1675 JUMPI POP DUP3 JUMPDEST SWAP1 POP PUSH0 PUSH1 0x1 DUP4 PUSH8 0xFFFFFFFFFFFFFFFF AND EQ DUP1 ISZERO PUSH2 0x16A8 JUMPI POP PUSH0 ADDRESS PUSH20 0xFFFFFFFFFFFFFFFFFFFFFFFFFFFFFFFFFFFFFFFF AND EXTCODESIZE EQ JUMPDEST SWAP1 POP DUP2 ISZERO DUP1 ISZERO PUSH2 0x16B6 JUMPI POP DUP1 ISZERO JUMPDEST ISZERO PUSH2 0x16ED JUMPI PUSH1 0x40 MLOAD PUSH32 0xF92EE8A900000000000000000000000000000000000000000000000000000000 DUP2 MSTORE PUSH1 0x4 ADD PUSH1 0x40 MLOAD DUP1 SWAP2 SUB SWAP1 REVERT JUMPDEST PUSH1 0x1 DUP6 PUSH0 ADD PUSH0 PUSH2 0x100 EXP DUP2 SLOAD DUP2 PUSH8 0xFFFFFFFFFFFFFFFF MUL NOT AND SWAP1 DUP4 PUSH8 0xFFFFFFFFFFFFFFFF AND MUL OR SWAP1 SSTORE POP DUP4 ISZERO PUSH2 0x173A JUMPI PUSH1 0x1 DUP6 PUSH0 ADD PUSH1 0x8 PUSH2 0x100 EXP DUP2 SLOAD DUP2 PUSH1 0xFF MUL NOT AND SWAP1 DUP4 ISZERO ISZERO MUL OR SWAP1 SSTORE POP JUMPDEST PUSH2 0x1746 PUSH0 DUP1 SHL CALLER PUSH2 0x1EFA JUMP JUMPDEST POP DUP4 ISZERO PUSH2 0x17A1 JUMPI PUSH0 DUP6 PUSH0 ADD PUSH1 0x8 PUSH2 0x100 EXP DUP2 SLOAD DUP2 PUSH1 0xFF MUL NOT AND SWAP1 DUP4 ISZERO ISZERO MUL OR SWAP1 SSTORE POP PUSH32 0xC7F505B2F371AE2175EE4913F4499E1F2633A7B5936321EED1CDAEB6115181D2 PUSH1 0x1 PUSH1 0x40 MLOAD PUSH2 0x1798 SWAP2 SWAP1 PUSH2 0x41C5 JUMP JUMPDEST PUSH1 0x40 MLOAD DUP1 SWAP2 SUB SWAP1 LOG1 JUMPDEST POP POP POP POP POP JUMP JUMPDEST PUSH0 DUP1 PUSH2 0x17B2 PUSH2 0x1ED3 JUMP JUMPDEST SWAP1 POP DUP1 PUSH0 ADD PUSH0 DUP6 DUP2 MSTORE PUSH1 0x20 ADD SWAP1 DUP2 MSTORE PUSH1 0x20 ADD PUSH0 KECCAK256 PUSH0 ADD PUSH0 DUP5 PUSH20 0xFFFFFFFFFFFFFFFFFFFFFFFFFFFFFFFFFFFFFFFF AND PUSH20 0xFFFFFFFFFFFFFFFFFFFFFFFFFFFFFFFFFFFFFFFF AND DUP2 MSTORE PUSH1 0x20 ADD SWAP1 DUP2 MSTORE PUSH1 0x20 ADD PUSH0 KECCAK256 PUSH0 SWAP1 SLOAD SWAP1 PUSH2 0x100 EXP SWAP1 DIV PUSH1 0xFF AND SWAP2 POP POP SWAP3 SWAP2 POP POP JUMP JUMPDEST PUSH0 DUP1 SHL DUP2 JUMP JUMPDEST PUSH1 0x1 PUSH0 SWAP1 SLOAD SWAP1 PUSH2 0x100 EXP SWAP1 DIV PUSH1 0xFF AND DUP2 JUMP JUMPDEST PUSH1 0x40 MLOAD DUP1 PUSH1 0x40 ADD PUSH1 0x40 MSTORE DUP1 PUSH1 0x5 DUP2 MSTORE PUSH1 0x20 ADD PUSH32 0x352E302E30000000000000000000000000000000000000000000000000000000 DUP2 MSTORE POP DUP2 JUMP JUMPDEST PUSH32 0x9C7ABE1CC344A0C822ED019AA7E0C3C247359AA68F7DD45424189F65D496D679 DUP2 JUMP JUMPDEST PUSH0 PUSH32 0x5C9F8A1F8085E87C1CD1DBD0FC499F4B22698A6DFB10C34AEC0AA3E50FE0D6FF PUSH2 0x18B9 DUP2 PUSH2 0x1B43 JUMP JUMPDEST PUSH0 JUMPDEST DUP5 DUP5 SWAP1 POP DUP2 LT ISZERO PUSH2 0x1A15 JUMPI DUP5 DUP5 DUP3 DUP2 DUP2 LT PUSH2 0x18D9 JUMPI PUSH2 0x18D8 PUSH2 0x41DE JUMP JUMPDEST JUMPDEST SWAP1 POP PUSH1 0x20 MUL DUP2 ADD SWAP1 PUSH2 0x18EB SWAP2 SWAP1 PUSH2 0x420B JUMP JUMPDEST PUSH0 ADD PUSH1 0x20 DUP2 ADD SWAP1 PUSH2 0x18FC SWAP2 SWAP1 PUSH2 0x3974 JUMP JUMPDEST PUSH20 0xFFFFFFFFFFFFFFFFFFFFFFFFFFFFFFFFFFFFFFFF AND DUP6 DUP6 DUP4 DUP2 DUP2 LT PUSH2 0x1925 JUMPI PUSH2 0x1924 PUSH2 0x41DE JUMP JUMPDEST JUMPDEST SWAP1 POP PUSH1 0x20 MUL DUP2 ADD SWAP1 PUSH2 0x1937 SWAP2 SWAP1 PUSH2 0x420B JUMP JUMPDEST PUSH1 0x20 ADD CALLDATALOAD DUP7 DUP7 DUP5 DUP2 DUP2 LT PUSH2 0x194E JUMPI PUSH2 0x194D PUSH2 0x41DE JUMP JUMPDEST JUMPDEST SWAP1 POP PUSH1 0x20 MUL DUP2 ADD SWAP1 PUSH2 0x1960 SWAP2 SWAP1 PUSH2 0x420B JUMP JUMPDEST DUP1 PUSH1 0x40 ADD SWAP1 PUSH2 0x196F SWAP2 SWAP1 PUSH2 0x4232 JUMP JUMPDEST PUSH1 0x40 MLOAD PUSH2 0x197D SWAP3 SWAP2 SWAP1 PUSH2 0x42B8 JUMP JUMPDEST PUSH0 PUSH1 0x40 MLOAD DUP1 DUP4 SUB DUP2 DUP6 DUP8 GAS CALL SWAP3 POP POP POP RETURNDATASIZE DUP1 PUSH0 DUP2 EQ PUSH2 0x19B7 JUMPI PUSH1 0x40 MLOAD SWAP2 POP PUSH1 0x1F NOT PUSH1 0x3F RETURNDATASIZE ADD AND DUP3 ADD PUSH1 0x40 MSTORE RETURNDATASIZE DUP3 MSTORE RETURNDATASIZE PUSH0 PUSH1 0x20 DUP5 ADD RETURNDATACOPY PUSH2 0x19BC JUMP JUMPDEST PUSH1 0x60 SWAP2 POP JUMPDEST POP POP DUP1 SWAP4 POP POP DUP3 PUSH2 0x1A02 JUMPI PUSH1 0x40 MLOAD PUSH32 0x8C379A000000000000000000000000000000000000000000000000000000000 DUP2 MSTORE PUSH1 0x4 ADD PUSH2 0x19F9 SWAP1 PUSH2 0x431A JUMP JUMPDEST PUSH1 0x40 MLOAD DUP1 SWAP2 SUB SWAP1 REVERT JUMPDEST DUP1 DUP1 PUSH2 0x1A0D SWAP1 PUSH2 0x4338 JUMP JUMPDEST SWAP2 POP POP PUSH2 0x18BB JUMP JUMPDEST POP POP SWAP3 SWAP2 POP POP JUMP JUMPDEST PUSH2 0x1A26 DUP3 PUSH2 0x104C JUMP JUMPDEST PUSH2 0x1A2F DUP2 PUSH2 0x1B43 JUMP JUMPDEST PUSH2 0x1A39 DUP4 DUP4 PUSH2 0x1FF9 JUMP JUMPDEST POP POP POP POP JUMP JUMPDEST PUSH32 0x91252170D30EBDF6E8CEA4292A8E5081A5C77E065AA855C856AF6F3DD1F2F7BA DUP2 JUMP JUMPDEST PUSH32 0xBF552E6E0A367F565CA7B394EBA25A2010479EDA0873B6FC1B4CE9F00E7085A6 DUP2 JUMP JUMPDEST PUSH0 PUSH1 0x20 MSTORE DUP1 PUSH0 MSTORE PUSH1 0x40 PUSH0 KECCAK256 PUSH0 SWAP2 POP SLOAD SWAP1 PUSH2 0x100 EXP SWAP1 DIV PUSH20 0xFFFFFFFFFFFFFFFFFFFFFFFFFFFFFFFFFFFFFFFF AND DUP2 JUMP JUMPDEST PUSH32 0x7D4C95EBF98B3D0730A4B295F90CCF54047E768470D7C5E21916C87CD29A3249 DUP2 JUMP JUMPDEST PUSH0 PUSH32 0x1FFC9A700000000000000000000000000000000000000000000000000000000 PUSH28 0xFFFFFFFFFFFFFFFFFFFFFFFFFFFFFFFFFFFFFFFFFFFFFFFFFFFFFFFF NOT AND DUP3 PUSH28 0xFFFFFFFFFFFFFFFFFFFFFFFFFFFFFFFFFFFFFFFFFFFFFFFFFFFFFFFF NOT AND EQ SWAP1 POP SWAP2 SWAP1 POP JUMP JUMPDEST PUSH2 0x1B54 DUP2 PUSH2 0x1B4F PUSH2 0x1FF2 JUMP JUMPDEST PUSH2 0x2760 JUMP JUMPDEST POP JUMP JUMPDEST PUSH0 PUSH2 0x1BBB DUP3 PUSH2 0x100 ADD MLOAD PUSH0 DUP1 PUSH32 0x88293327F82DEEEFE2207F437BFA0859226C07C40EBC93DADA7DADC53ECFBB1D DUP2 MSTORE PUSH1 0x20 ADD SWAP1 DUP2 MSTORE PUSH1 0x20 ADD PUSH0 KECCAK256 PUSH0 SWAP1 SLOAD SWAP1 PUSH2 0x100 EXP SWAP1 DIV PUSH20 0xFFFFFFFFFFFFFFFFFFFFFFFFFFFFFFFFFFFFFFFF AND DUP5 PUSH1 0xC0 ADD MLOAD PUSH2 0x1D6D JUMP JUMPDEST PUSH0 DUP1 PUSH32 0x88293327F82DEEEFE2207F437BFA0859226C07C40EBC93DADA7DADC53ECFBB1D DUP2 MSTORE PUSH1 0x20 ADD SWAP1 DUP2 MSTORE PUSH1 0x20 ADD PUSH0 KECCAK256 PUSH0 SWAP1 SLOAD SWAP1 PUSH2 0x100 EXP SWAP1 DIV PUSH20 0xFFFFFFFFFFFFFFFFFFFFFFFFFFFFFFFFFFFFFFFF AND PUSH20 0xFFFFFFFFFFFFFFFFFFFFFFFFFFFFFFFFFFFFFFFF AND PUSH4 0x6B0E54E1 DUP4 PUSH1 0x40 MLOAD DUP3 PUSH4 0xFFFFFFFF AND PUSH1 0xE0 SHL DUP2 MSTORE PUSH1 0x4 ADD PUSH2 0x1C43 SWAP2 SWAP1 PUSH2 0x4515 JUMP JUMPDEST PUSH0 PUSH1 0x40 MLOAD DUP1 DUP4 SUB DUP2 PUSH0 DUP8 DUP1 EXTCODESIZE ISZERO DUP1 ISZERO PUSH2 0x1C5A JUMPI PUSH0 DUP1 REVERT JUMPDEST POP GAS CALL ISZERO DUP1 ISZERO PUSH2 0x1C6C JUMPI RETURNDATASIZE PUSH0 DUP1 RETURNDATACOPY RETURNDATASIZE PUSH0 REVERT JUMPDEST POP POP POP POP PUSH1 0x1 SWAP1 POP SWAP2 SWAP1 POP JUMP JUMPDEST PUSH1 0x60 DUP2 PUSH0 ADD CALLDATALOAD DUP3 PUSH1 0x20 ADD PUSH1 0x20 DUP2 ADD SWAP1 PUSH2 0x1C92 SWAP2 SWAP1 PUSH2 0x3974 JUMP JUMPDEST DUP4 PUSH1 0x40 ADD PUSH1 0x20 DUP2 ADD SWAP1 PUSH2 0x1CA5 SWAP2 SWAP1 PUSH2 0x3974 JUMP JUMPDEST DUP5 PUSH1 0x60 ADD CALLDATALOAD DUP6 PUSH1 0x80 ADD CALLDATALOAD DUP7 PUSH1 0xA0 ADD CALLDATALOAD PUSH1 0x40 MLOAD PUSH1 0x20 ADD PUSH2 0x1CC9 SWAP7 SWAP6 SWAP5 SWAP4 SWAP3 SWAP2 SWAP1 PUSH2 0x459A JUMP JUMPDEST PUSH1 0x40 MLOAD PUSH1 0x20 DUP2 DUP4 SUB SUB DUP2 MSTORE SWAP1 PUSH1 0x40 MSTORE SWAP1 POP SWAP2 SWAP1 POP JUMP JUMPDEST PUSH0 PUSH2 0x1D63 DUP6 PUSH2 0x1D5E DUP7 DUP1 MLOAD SWAP1 PUSH1 0x20 ADD KECCAK256 PUSH1 0x40 MLOAD PUSH1 0x20 ADD PUSH2 0x1CFF SWAP2 SWAP1 PUSH2 0x467D JUMP JUMPDEST PUSH1 0x40 MLOAD PUSH1 0x20 DUP2 DUP4 SUB SUB DUP2 MSTORE SWAP1 PUSH1 0x40 MSTORE DUP1 MLOAD SWAP1 PUSH1 0x20 ADD KECCAK256 DUP7 DUP7 DUP1 DUP1 PUSH1 0x1F ADD PUSH1 0x20 DUP1 SWAP2 DIV MUL PUSH1 0x20 ADD PUSH1 0x40 MLOAD SWAP1 DUP2 ADD PUSH1 0x40 MSTORE DUP1 SWAP4 SWAP3 SWAP2 SWAP1 DUP2 DUP2 MSTORE PUSH1 0x20 ADD DUP4 DUP4 DUP1 DUP3 DUP5 CALLDATACOPY PUSH0 DUP2 DUP5 ADD MSTORE PUSH1 0x1F NOT PUSH1 0x1F DUP3 ADD AND SWAP1 POP DUP1 DUP4 ADD SWAP3 POP POP POP POP POP POP POP PUSH2 0x27B1 JUMP JUMPDEST PUSH2 0x17A8 JUMP JUMPDEST SWAP1 POP SWAP5 SWAP4 POP POP POP POP JUMP JUMPDEST DUP1 DUP4 PUSH20 0xFFFFFFFFFFFFFFFFFFFFFFFFFFFFFFFFFFFFFFFF AND PUSH4 0xDD62ED3E ADDRESS DUP6 PUSH1 0x40 MLOAD DUP4 PUSH4 0xFFFFFFFF AND PUSH1 0xE0 SHL DUP2 MSTORE PUSH1 0x4 ADD PUSH2 0x1DA9 SWAP3 SWAP2 SWAP1 PUSH2 0x46A2 JUMP JUMPDEST PUSH1 0x20 PUSH1 0x40 MLOAD DUP1 DUP4 SUB DUP2 DUP7 GAS STATICCALL ISZERO DUP1 ISZERO PUSH2 0x1DC4 JUMPI RETURNDATASIZE PUSH0 DUP1 RETURNDATACOPY RETURNDATASIZE PUSH0 REVERT JUMPDEST POP POP POP POP PUSH1 0x40 MLOAD RETURNDATASIZE PUSH1 0x1F NOT PUSH1 0x1F DUP3 ADD AND DUP3 ADD DUP1 PUSH1 0x40 MSTORE POP DUP2 ADD SWAP1 PUSH2 0x1DE8 SWAP2 SWAP1 PUSH2 0x3AE3 JUMP JUMPDEST LT ISZERO PUSH2 0x1ECE JUMPI PUSH0 DUP4 PUSH20 0xFFFFFFFFFFFFFFFFFFFFFFFFFFFFFFFFFFFFFFFF AND PUSH4 0x95EA7B3 DUP5 PUSH32 0xFFFFFFFFFFFFFFFFFFFFFFFFFFFFFFFFFFFFFFFFFFFFFFFFFFFFFFFFFFFFFFFF PUSH1 0x40 MLOAD DUP4 PUSH4 0xFFFFFFFF AND PUSH1 0xE0 SHL DUP2 MSTORE PUSH1 0x4 ADD PUSH2 0x1E4A SWAP3 SWAP2 SWAP1 PUSH2 0x3FD1 JUMP JUMPDEST PUSH1 0x20 PUSH1 0x40 MLOAD DUP1 DUP4 SUB DUP2 PUSH0 DUP8 GAS CALL ISZERO DUP1 ISZERO PUSH2 0x1E66 JUMPI RETURNDATASIZE PUSH0 DUP1 RETURNDATACOPY RETURNDATASIZE PUSH0 REVERT JUMPDEST POP POP POP POP PUSH1 0x40 MLOAD RETURNDATASIZE PUSH1 0x1F NOT PUSH1 0x1F DUP3 ADD AND DUP3 ADD DUP1 PUSH1 0x40 MSTORE POP DUP2 ADD SWAP1 PUSH2 0x1E8A SWAP2 SWAP1 PUSH2 0x3B66 JUMP JUMPDEST SWAP1 POP DUP1 PUSH2 0x1ECC JUMPI PUSH1 0x40 MLOAD PUSH32 0x8C379A000000000000000000000000000000000000000000000000000000000 DUP2 MSTORE PUSH1 0x4 ADD PUSH2 0x1EC3 SWAP1 PUSH2 0x4713 JUMP JUMPDEST PUSH1 0x40 MLOAD DUP1 SWAP2 SUB SWAP1 REVERT JUMPDEST POP JUMPDEST POP POP POP JUMP JUMPDEST PUSH0 PUSH32 0x2DD7BC7DEC4DCEEDDA775E58DD541E08A116C6C53815C0BD028192F7B626800 SWAP1 POP SWAP1 JUMP JUMPDEST PUSH0 DUP1 PUSH2 0x1F04 PUSH2 0x1ED3 JUMP JUMPDEST SWAP1 POP PUSH2 0x1F10 DUP5 DUP5 PUSH2 0x17A8 JUMP JUMPDEST PUSH2 0x1FE7 JUMPI PUSH1 0x1 DUP2 PUSH0 ADD PUSH0 DUP7 DUP2 MSTORE PUSH1 0x20 ADD SWAP1 DUP2 MSTORE PUSH1 0x20 ADD PUSH0 KECCAK256 PUSH0 ADD PUSH0 DUP6 PUSH20 0xFFFFFFFFFFFFFFFFFFFFFFFFFFFFFFFFFFFFFFFF AND PUSH20 0xFFFFFFFFFFFFFFFFFFFFFFFFFFFFFFFFFFFFFFFF AND DUP2 MSTORE PUSH1 0x20 ADD SWAP1 DUP2 MSTORE PUSH1 0x20 ADD PUSH0 KECCAK256 PUSH0 PUSH2 0x100 EXP DUP2 SLOAD DUP2 PUSH1 0xFF MUL NOT AND SWAP1 DUP4 ISZERO ISZERO MUL OR SWAP1 SSTORE POP PUSH2 0x1F83 PUSH2 0x1FF2 JUMP JUMPDEST PUSH20 0xFFFFFFFFFFFFFFFFFFFFFFFFFFFFFFFFFFFFFFFF AND DUP4 PUSH20 0xFFFFFFFFFFFFFFFFFFFFFFFFFFFFFFFFFFFFFFFF AND DUP6 PUSH32 0x2F8788117E7EFF1D82E926EC794901D17C78024A50270940304540A733656F0D PUSH1 0x40 MLOAD PUSH1 0x40 MLOAD DUP1 SWAP2 SUB SWAP1 LOG4 PUSH1 0x1 SWAP2 POP POP PUSH2 0x1FEC JUMP JUMPDEST PUSH0 SWAP2 POP POP JUMPDEST SWAP3 SWAP2 POP POP JUMP JUMPDEST PUSH0 CALLER SWAP1 POP SWAP1 JUMP JUMPDEST PUSH0 DUP1 PUSH2 0x2003 PUSH2 0x1ED3 JUMP JUMPDEST SWAP1 POP PUSH2 0x200F DUP5 DUP5 PUSH2 0x17A8 JUMP JUMPDEST ISZERO PUSH2 0x20E6 JUMPI PUSH0 DUP2 PUSH0 ADD PUSH0 DUP7 DUP2 MSTORE PUSH1 0x20 ADD SWAP1 DUP2 MSTORE PUSH1 0x20 ADD PUSH0 KECCAK256 PUSH0 ADD PUSH0 DUP6 PUSH20 0xFFFFFFFFFFFFFFFFFFFFFFFFFFFFFFFFFFFFFFFF AND PUSH20 0xFFFFFFFFFFFFFFFFFFFFFFFFFFFFFFFFFFFFFFFF AND DUP2 MSTORE PUSH1 0x20 ADD SWAP1 DUP2 MSTORE PUSH1 0x20 ADD PUSH0 KECCAK256 PUSH0 PUSH2 0x100 EXP DUP2 SLOAD DUP2 PUSH1 0xFF MUL NOT AND SWAP1 DUP4 ISZERO ISZERO MUL OR SWAP1 SSTORE POP PUSH2 0x2082 PUSH2 0x1FF2 JUMP JUMPDEST PUSH20 0xFFFFFFFFFFFFFFFFFFFFFFFFFFFFFFFFFFFFFFFF AND DUP4 PUSH20 0xFFFFFFFFFFFFFFFFFFFFFFFFFFFFFFFFFFFFFFFF AND DUP6 PUSH32 0xF6391F5C32D9C69D2A47EA670B442974B53935D1EDC7FD64EB21E047A839171B PUSH1 0x40 MLOAD PUSH1 0x40 MLOAD DUP1 SWAP2 SUB SWAP1 LOG4 PUSH1 0x1 SWAP2 POP POP PUSH2 0x20EB JUMP JUMPDEST PUSH0 SWAP2 POP POP JUMPDEST SWAP3 SWAP2 POP POP JUMP JUMPDEST PUSH0 DUP1 DUP3 DUP1 PUSH0 ADD SWAP1 PUSH2 0x2102 SWAP2 SWAP1 PUSH2 0x40B9 JUMP JUMPDEST PUSH1 0x1 DUP6 DUP1 PUSH0 ADD SWAP1 PUSH2 0x2113 SWAP2 SWAP1 PUSH2 0x40B9 JUMP JUMPDEST SWAP1 POP PUSH2 0x211F SWAP2 SWAP1 PUSH2 0x3A9C JUMP JUMPDEST DUP2 DUP2 LT PUSH2 0x212F JUMPI PUSH2 0x212E PUSH2 0x41DE JUMP JUMPDEST JUMPDEST SWAP1 POP PUSH1 0x20 MUL DUP2 ADD SWAP1 PUSH2 0x2141 SWAP2 SWAP1 PUSH2 0x4731 JUMP JUMPDEST PUSH1 0x80 ADD PUSH1 0x20 DUP2 ADD SWAP1 PUSH2 0x2153 SWAP2 SWAP1 PUSH2 0x3974 JUMP JUMPDEST SWAP1 POP PUSH0 PUSH2 0x2160 DUP3 ADDRESS PUSH2 0x27DB JUMP JUMPDEST SWAP1 POP PUSH0 JUMPDEST DUP5 DUP1 PUSH0 ADD SWAP1 PUSH2 0x2173 SWAP2 SWAP1 PUSH2 0x40B9 JUMP JUMPDEST SWAP1 POP DUP2 LT ISZERO PUSH2 0x2438 JUMPI PUSH2 0x2242 DUP6 DUP1 PUSH0 ADD SWAP1 PUSH2 0x218E SWAP2 SWAP1 PUSH2 0x40B9 JUMP JUMPDEST DUP4 DUP2 DUP2 LT PUSH2 0x219F JUMPI PUSH2 0x219E PUSH2 0x41DE JUMP JUMPDEST JUMPDEST SWAP1 POP PUSH1 0x20 MUL DUP2 ADD SWAP1 PUSH2 0x21B1 SWAP2 SWAP1 PUSH2 0x4731 JUMP JUMPDEST PUSH1 0x40 ADD PUSH1 0x20 DUP2 ADD SWAP1 PUSH2 0x21C3 SWAP2 SWAP1 PUSH2 0x3974 JUMP JUMPDEST DUP7 DUP1 PUSH0 ADD SWAP1 PUSH2 0x21D2 SWAP2 SWAP1 PUSH2 0x40B9 JUMP JUMPDEST DUP5 DUP2 DUP2 LT PUSH2 0x21E3 JUMPI PUSH2 0x21E2 PUSH2 0x41DE JUMP JUMPDEST JUMPDEST SWAP1 POP PUSH1 0x20 MUL DUP2 ADD SWAP1 PUSH2 0x21F5 SWAP2 SWAP1 PUSH2 0x4731 JUMP JUMPDEST PUSH1 0x20 ADD PUSH1 0x20 DUP2 ADD SWAP1 PUSH2 0x2207 SWAP2 SWAP1 PUSH2 0x3974 JUMP JUMPDEST DUP8 DUP1 PUSH0 ADD SWAP1 PUSH2 0x2216 SWAP2 SWAP1 PUSH2 0x40B9 JUMP JUMPDEST DUP6 DUP2 DUP2 LT PUSH2 0x2227 JUMPI PUSH2 0x2226 PUSH2 0x41DE JUMP JUMPDEST JUMPDEST SWAP1 POP PUSH1 0x20 MUL DUP2 ADD SWAP1 PUSH2 0x2239 SWAP2 SWAP1 PUSH2 0x4731 JUMP JUMPDEST PUSH1 0x60 ADD CALLDATALOAD PUSH2 0x1D6D JUMP JUMPDEST PUSH0 DUP1 DUP7 DUP1 PUSH0 ADD SWAP1 PUSH2 0x2253 SWAP2 SWAP1 PUSH2 0x40B9 JUMP JUMPDEST DUP5 DUP2 DUP2 LT PUSH2 0x2264 JUMPI PUSH2 0x2263 PUSH2 0x41DE JUMP JUMPDEST JUMPDEST SWAP1 POP PUSH1 0x20 MUL DUP2 ADD SWAP1 PUSH2 0x2276 SWAP2 SWAP1 PUSH2 0x4731 JUMP JUMPDEST PUSH0 ADD PUSH1 0x20 DUP2 ADD SWAP1 PUSH2 0x2287 SWAP2 SWAP1 PUSH2 0x3974 JUMP JUMPDEST PUSH20 0xFFFFFFFFFFFFFFFFFFFFFFFFFFFFFFFFFFFFFFFF AND PUSH0 PUSH20 0xFFFFFFFFFFFFFFFFFFFFFFFFFFFFFFFFFFFFFFFF AND DUP9 DUP1 PUSH0 ADD SWAP1 PUSH2 0x22C3 SWAP2 SWAP1 PUSH2 0x40B9 JUMP JUMPDEST DUP7 DUP2 DUP2 LT PUSH2 0x22D4 JUMPI PUSH2 0x22D3 PUSH2 0x41DE JUMP JUMPDEST JUMPDEST SWAP1 POP PUSH1 0x20 MUL DUP2 ADD SWAP1 PUSH2 0x22E6 SWAP2 SWAP1 PUSH2 0x4731 JUMP JUMPDEST PUSH1 0x40 ADD PUSH1 0x20 DUP2 ADD SWAP1 PUSH2 0x22F8 SWAP2 SWAP1 PUSH2 0x3974 JUMP JUMPDEST PUSH20 0xFFFFFFFFFFFFFFFFFFFFFFFFFFFFFFFFFFFFFFFF AND EQ PUSH2 0x2319 JUMPI PUSH0 PUSH2 0x2350 JUMP JUMPDEST DUP8 DUP1 PUSH0 ADD SWAP1 PUSH2 0x2328 SWAP2 SWAP1 PUSH2 0x40B9 JUMP JUMPDEST DUP6 DUP2 DUP2 LT PUSH2 0x2339 JUMPI PUSH2 0x2338 PUSH2 0x41DE JUMP JUMPDEST JUMPDEST SWAP1 POP PUSH1 0x20 MUL DUP2 ADD SWAP1 PUSH2 0x234B SWAP2 SWAP1 PUSH2 0x4731 JUMP JUMPDEST PUSH1 0x60 ADD CALLDATALOAD JUMPDEST DUP9 DUP1 PUSH0 ADD SWAP1 PUSH2 0x235F SWAP2 SWAP1 PUSH2 0x40B9 JUMP JUMPDEST DUP7 DUP2 DUP2 LT PUSH2 0x2370 JUMPI PUSH2 0x236F PUSH2 0x41DE JUMP JUMPDEST JUMPDEST SWAP1 POP PUSH1 0x20 MUL DUP2 ADD SWAP1 PUSH2 0x2382 SWAP2 SWAP1 PUSH2 0x4731 JUMP JUMPDEST DUP1 PUSH1 0xA0 ADD SWAP1 PUSH2 0x2391 SWAP2 SWAP1 PUSH2 0x4232 JUMP JUMPDEST PUSH1 0x40 MLOAD PUSH2 0x239F SWAP3 SWAP2 SWAP1 PUSH2 0x42B8 JUMP JUMPDEST PUSH0 PUSH1 0x40 MLOAD DUP1 DUP4 SUB DUP2 DUP6 DUP8 GAS CALL SWAP3 POP POP POP RETURNDATASIZE DUP1 PUSH0 DUP2 EQ PUSH2 0x23D9 JUMPI PUSH1 0x40 MLOAD SWAP2 POP PUSH1 0x1F NOT PUSH1 0x3F RETURNDATASIZE ADD AND DUP3 ADD PUSH1 0x40 MSTORE RETURNDATASIZE DUP3 MSTORE RETURNDATASIZE PUSH0 PUSH1 0x20 DUP5 ADD RETURNDATACOPY PUSH2 0x23DE JUMP JUMPDEST PUSH1 0x60 SWAP2 POP JUMPDEST POP SWAP2 POP SWAP2 POP DUP2 PUSH2 0x2423 JUMPI PUSH1 0x40 MLOAD PUSH32 0x8C379A000000000000000000000000000000000000000000000000000000000 DUP2 MSTORE PUSH1 0x4 ADD PUSH2 0x241A SWAP1 PUSH2 0x47A2 JUMP JUMPDEST PUSH1 0x40 MLOAD DUP1 SWAP2 SUB SWAP1 REVERT JUMPDEST POP POP DUP1 DUP1 PUSH2 0x2430 SWAP1 PUSH2 0x4338 JUMP JUMPDEST SWAP2 POP POP PUSH2 0x2164 JUMP JUMPDEST POP DUP1 PUSH2 0x2444 DUP4 ADDRESS PUSH2 0x27DB JUMP JUMPDEST PUSH2 0x244E SWAP2 SWAP1 PUSH2 0x3A9C JUMP JUMPDEST SWAP3 POP DUP4 PUSH1 0x20 ADD CALLDATALOAD DUP4 LT ISZERO PUSH2 0x2497 JUMPI PUSH1 0x40 MLOAD PUSH32 0x8C379A000000000000000000000000000000000000000000000000000000000 DUP2 MSTORE PUSH1 0x4 ADD PUSH2 0x248E SWAP1 PUSH2 0x480A JUMP JUMPDEST PUSH1 0x40 MLOAD DUP1 SWAP2 SUB SWAP1 REVERT JUMPDEST POP POP SWAP2 SWAP1 POP JUMP JUMPDEST PUSH32 0x0 PUSH20 0xFFFFFFFFFFFFFFFFFFFFFFFFFFFFFFFFFFFFFFFF AND ADDRESS PUSH20 0xFFFFFFFFFFFFFFFFFFFFFFFFFFFFFFFFFFFFFFFF AND EQ DUP1 PUSH2 0x254B JUMPI POP PUSH32 0x0 PUSH20 0xFFFFFFFFFFFFFFFFFFFFFFFFFFFFFFFFFFFFFFFF AND PUSH2 0x2532 PUSH2 0x28AD JUMP JUMPDEST PUSH20 0xFFFFFFFFFFFFFFFFFFFFFFFFFFFFFFFFFFFFFFFF AND EQ ISZERO JUMPDEST ISZERO PUSH2 0x2582 JUMPI PUSH1 0x40 MLOAD PUSH32 0xE07C8DBA00000000000000000000000000000000000000000000000000000000 DUP2 MSTORE PUSH1 0x4 ADD PUSH1 0x40 MLOAD DUP1 SWAP2 SUB SWAP1 REVERT JUMPDEST JUMP JUMPDEST PUSH0 DUP1 SHL PUSH2 0x2590 DUP2 PUSH2 0x1B43 JUMP JUMPDEST POP POP JUMP JUMPDEST DUP2 PUSH20 0xFFFFFFFFFFFFFFFFFFFFFFFFFFFFFFFFFFFFFFFF AND PUSH4 0x52D1902D PUSH1 0x40 MLOAD DUP2 PUSH4 0xFFFFFFFF AND PUSH1 0xE0 SHL DUP2 MSTORE PUSH1 0x4 ADD PUSH1 0x20 PUSH1 0x40 MLOAD DUP1 DUP4 SUB DUP2 DUP7 GAS STATICCALL SWAP3 POP POP POP DUP1 ISZERO PUSH2 0x25FC JUMPI POP PUSH1 0x40 MLOAD RETURNDATASIZE PUSH1 0x1F NOT PUSH1 0x1F DUP3 ADD AND DUP3 ADD DUP1 PUSH1 0x40 MSTORE POP DUP2 ADD SWAP1 PUSH2 0x25F9 SWAP2 SWAP1 PUSH2 0x483C JUMP JUMPDEST PUSH1 0x1 JUMPDEST PUSH2 0x263D JUMPI DUP2 PUSH1 0x40 MLOAD PUSH32 0x4C9C8CE300000000000000000000000000000000000000000000000000000000 DUP2 MSTORE PUSH1 0x4 ADD PUSH2 0x2634 SWAP2 SWAP1 PUSH2 0x388B JUMP JUMPDEST PUSH1 0x40 MLOAD DUP1 SWAP2 SUB SWAP1 REVERT JUMPDEST PUSH32 0x360894A13BA1A3210667C828492DB98DCA3E2076CC3735A920A3CA505D382BBC PUSH0 SHL DUP2 EQ PUSH2 0x26A3 JUMPI DUP1 PUSH1 0x40 MLOAD PUSH32 0xAA1D49A400000000000000000000000000000000000000000000000000000000 DUP2 MSTORE PUSH1 0x4 ADD PUSH2 0x269A SWAP2 SWAP1 PUSH2 0x3505 JUMP JUMPDEST PUSH1 0x40 MLOAD DUP1 SWAP2 SUB SWAP1 REVERT JUMPDEST PUSH2 0x26AD DUP4 DUP4 PUSH2 0x2900 JUMP JUMPDEST POP POP POP JUMP JUMPDEST PUSH32 0x0 PUSH20 0xFFFFFFFFFFFFFFFFFFFFFFFFFFFFFFFFFFFFFFFF AND ADDRESS PUSH20 0xFFFFFFFFFFFFFFFFFFFFFFFFFFFFFFFFFFFFFFFF AND EQ PUSH2 0x2737 JUMPI PUSH1 0x40 MLOAD PUSH32 0xE07C8DBA00000000000000000000000000000000000000000000000000000000 DUP2 MSTORE PUSH1 0x4 ADD PUSH1 0x40 MLOAD DUP1 SWAP2 SUB SWAP1 REVERT JUMPDEST JUMP JUMPDEST PUSH0 PUSH32 0xF0C57E16840DF040F15088DC2F81FE391C3923BEC73E23A9662EFC9C229C6A00 SWAP1 POP SWAP1 JUMP JUMPDEST PUSH2 0x276A DUP3 DUP3 PUSH2 0x17A8 JUMP JUMPDEST PUSH2 0x27AD JUMPI DUP1 DUP3 PUSH1 0x40 MLOAD PUSH32 0xE2517D3F00000000000000000000000000000000000000000000000000000000 DUP2 MSTORE PUSH1 0x4 ADD PUSH2 0x27A4 SWAP3 SWAP2 SWAP1 PUSH2 0x4867 JUMP JUMPDEST PUSH1 0x40 MLOAD DUP1 SWAP2 SUB SWAP1 REVERT JUMPDEST POP POP JUMP JUMPDEST PUSH0 DUP1 PUSH0 DUP1 PUSH2 0x27BF DUP7 DUP7 PUSH2 0x2972 JUMP JUMPDEST SWAP3 POP SWAP3 POP SWAP3 POP PUSH2 0x27CF DUP3 DUP3 PUSH2 0x29C7 JUMP JUMPDEST DUP3 SWAP4 POP POP POP POP SWAP3 SWAP2 POP POP JUMP JUMPDEST PUSH0 DUP1 PUSH20 0xFFFFFFFFFFFFFFFFFFFFFFFFFFFFFFFFFFFFFFFF AND DUP4 PUSH20 0xFFFFFFFFFFFFFFFFFFFFFFFFFFFFFFFFFFFFFFFF AND EQ PUSH2 0x288C JUMPI DUP3 PUSH20 0xFFFFFFFFFFFFFFFFFFFFFFFFFFFFFFFFFFFFFFFF AND PUSH4 0x70A08231 DUP4 PUSH1 0x40 MLOAD DUP3 PUSH4 0xFFFFFFFF AND PUSH1 0xE0 SHL DUP2 MSTORE PUSH1 0x4 ADD PUSH2 0x2848 SWAP2 SWAP1 PUSH2 0x388B JUMP JUMPDEST PUSH1 0x20 PUSH1 0x40 MLOAD DUP1 DUP4 SUB DUP2 DUP7 GAS STATICCALL ISZERO DUP1 ISZERO PUSH2 0x2863 JUMPI RETURNDATASIZE PUSH0 DUP1 RETURNDATACOPY RETURNDATASIZE PUSH0 REVERT JUMPDEST POP POP POP POP PUSH1 0x40 MLOAD RETURNDATASIZE PUSH1 0x1F NOT PUSH1 0x1F DUP3 ADD AND DUP3 ADD DUP1 PUSH1 0x40 MSTORE POP DUP2 ADD SWAP1 PUSH2 0x2887 SWAP2 SWAP1 PUSH2 0x3AE3 JUMP JUMPDEST PUSH2 0x28A5 JUMP JUMPDEST DUP2 PUSH20 0xFFFFFFFFFFFFFFFFFFFFFFFFFFFFFFFFFFFFFFFF AND BALANCE JUMPDEST SWAP1 POP SWAP3 SWAP2 POP POP JUMP JUMPDEST PUSH0 PUSH2 0x28D9 PUSH32 0x360894A13BA1A3210667C828492DB98DCA3E2076CC3735A920A3CA505D382BBC PUSH0 SHL PUSH2 0x2B29 JUMP JUMPDEST PUSH0 ADD PUSH0 SWAP1 SLOAD SWAP1 PUSH2 0x100 EXP SWAP1 DIV PUSH20 0xFFFFFFFFFFFFFFFFFFFFFFFFFFFFFFFFFFFFFFFF AND SWAP1 POP SWAP1 JUMP JUMPDEST PUSH2 0x2909 DUP3 PUSH2 0x2B32 JUMP JUMPDEST DUP2 PUSH20 0xFFFFFFFFFFFFFFFFFFFFFFFFFFFFFFFFFFFFFFFF AND PUSH32 0xBC7CD75A20EE27FD9ADEBAB32041F755214DBC6BFFA90CC0225B39DA2E5C2D3B PUSH1 0x40 MLOAD PUSH1 0x40 MLOAD DUP1 SWAP2 SUB SWAP1 LOG2 PUSH0 DUP2 MLOAD GT ISZERO PUSH2 0x2965 JUMPI PUSH2 0x295F DUP3 DUP3 PUSH2 0x2BFB JUMP JUMPDEST POP PUSH2 0x296E JUMP JUMPDEST PUSH2 0x296D PUSH2 0x2C7B JUMP JUMPDEST JUMPDEST POP POP JUMP JUMPDEST PUSH0 DUP1 PUSH0 PUSH1 0x41 DUP5 MLOAD SUB PUSH2 0x29B2 JUMPI PUSH0 DUP1 PUSH0 PUSH1 0x20 DUP8 ADD MLOAD SWAP3 POP PUSH1 0x40 DUP8 ADD MLOAD SWAP2 POP PUSH1 0x60 DUP8 ADD MLOAD PUSH0 BYTE SWAP1 POP PUSH2 0x29A4 DUP9 DUP3 DUP6 DUP6 PUSH2 0x2CB7 JUMP JUMPDEST SWAP6 POP SWAP6 POP SWAP6 POP POP POP POP PUSH2 0x29C0 JUMP JUMPDEST PUSH0 PUSH1 0x2 DUP6 MLOAD PUSH0 SHL SWAP3 POP SWAP3 POP SWAP3 POP JUMPDEST SWAP3 POP SWAP3 POP SWAP3 JUMP JUMPDEST PUSH0 PUSH1 0x3 DUP2 GT ISZERO PUSH2 0x29DA JUMPI PUSH2 0x29D9 PUSH2 0x488E JUMP JUMPDEST JUMPDEST DUP3 PUSH1 0x3 DUP2 GT ISZERO PUSH2 0x29ED JUMPI PUSH2 0x29EC PUSH2 0x488E JUMP JUMPDEST JUMPDEST SUB ISZERO PUSH2 0x2B25 JUMPI PUSH1 0x1 PUSH1 0x3 DUP2 GT ISZERO PUSH2 0x2A07 JUMPI PUSH2 0x2A06 PUSH2 0x488E JUMP JUMPDEST JUMPDEST DUP3 PUSH1 0x3 DUP2 GT ISZERO PUSH2 0x2A1A JUMPI PUSH2 0x2A19 PUSH2 0x488E JUMP JUMPDEST JUMPDEST SUB PUSH2 0x2A51 JUMPI PUSH1 0x40 MLOAD PUSH32 0xF645EEDF00000000000000000000000000000000000000000000000000000000 DUP2 MSTORE PUSH1 0x4 ADD PUSH1 0x40 MLOAD DUP1 SWAP2 SUB SWAP1 REVERT JUMPDEST PUSH1 0x2 PUSH1 0x3 DUP2 GT ISZERO PUSH2 0x2A65 JUMPI PUSH2 0x2A64 PUSH2 0x488E JUMP JUMPDEST JUMPDEST DUP3 PUSH1 0x3 DUP2 GT ISZERO PUSH2 0x2A78 JUMPI PUSH2 0x2A77 PUSH2 0x488E JUMP JUMPDEST JUMPDEST SUB PUSH2 0x2ABC JUMPI DUP1 PUSH0 SHR PUSH1 0x40 MLOAD PUSH32 0xFCE698F700000000000000000000000000000000000000000000000000000000 DUP2 MSTORE PUSH1 0x4 ADD PUSH2 0x2AB3 SWAP2 SWAP1 PUSH2 0x48BB JUMP JUMPDEST PUSH1 0x40 MLOAD DUP1 SWAP2 SUB SWAP1 REVERT JUMPDEST PUSH1 0x3 DUP1 DUP2 GT ISZERO PUSH2 0x2ACF JUMPI PUSH2 0x2ACE PUSH2 0x488E JUMP JUMPDEST JUMPDEST DUP3 PUSH1 0x3 DUP2 GT ISZERO PUSH2 0x2AE2 JUMPI PUSH2 0x2AE1 PUSH2 0x488E JUMP JUMPDEST JUMPDEST SUB PUSH2 0x2B24 JUMPI DUP1 PUSH1 0x40 MLOAD PUSH32 0xD78BCE0C00000000000000000000000000000000000000000000000000000000 DUP2 MSTORE PUSH1 0x4 ADD PUSH2 0x2B1B SWAP2 SWAP1 PUSH2 0x3505 JUMP JUMPDEST PUSH1 0x40 MLOAD DUP1 SWAP2 SUB SWAP1 REVERT JUMPDEST JUMPDEST POP POP JUMP JUMPDEST PUSH0 DUP2 SWAP1 POP SWAP2 SWAP1 POP JUMP JUMPDEST PUSH0 DUP2 PUSH20 0xFFFFFFFFFFFFFFFFFFFFFFFFFFFFFFFFFFFFFFFF AND EXTCODESIZE SUB PUSH2 0x2B8D JUMPI DUP1 PUSH1 0x40 MLOAD PUSH32 0x4C9C8CE300000000000000000000000000000000000000000000000000000000 DUP2 MSTORE PUSH1 0x4 ADD PUSH2 0x2B84 SWAP2 SWAP1 PUSH2 0x388B JUMP JUMPDEST PUSH1 0x40 MLOAD DUP1 SWAP2 SUB SWAP1 REVERT JUMPDEST DUP1 PUSH2 0x2BB9 PUSH32 0x360894A13BA1A3210667C828492DB98DCA3E2076CC3735A920A3CA505D382BBC PUSH0 SHL PUSH2 0x2B29 JUMP JUMPDEST PUSH0 ADD PUSH0 PUSH2 0x100 EXP DUP2 SLOAD DUP2 PUSH20 0xFFFFFFFFFFFFFFFFFFFFFFFFFFFFFFFFFFFFFFFF MUL NOT AND SWAP1 DUP4 PUSH20 0xFFFFFFFFFFFFFFFFFFFFFFFFFFFFFFFFFFFFFFFF AND MUL OR SWAP1 SSTORE POP POP JUMP JUMPDEST PUSH1 0x60 PUSH0 DUP1 DUP5 PUSH20 0xFFFFFFFFFFFFFFFFFFFFFFFFFFFFFFFFFFFFFFFF AND DUP5 PUSH1 0x40 MLOAD PUSH2 0x2C24 SWAP2 SWAP1 PUSH2 0x3F53 JUMP JUMPDEST PUSH0 PUSH1 0x40 MLOAD DUP1 DUP4 SUB DUP2 DUP6 GAS DELEGATECALL SWAP2 POP POP RETURNDATASIZE DUP1 PUSH0 DUP2 EQ PUSH2 0x2C5C JUMPI PUSH1 0x40 MLOAD SWAP2 POP PUSH1 0x1F NOT PUSH1 0x3F RETURNDATASIZE ADD AND DUP3 ADD PUSH1 0x40 MSTORE RETURNDATASIZE DUP3 MSTORE RETURNDATASIZE PUSH0 PUSH1 0x20 DUP5 ADD RETURNDATACOPY PUSH2 0x2C61 JUMP JUMPDEST PUSH1 0x60 SWAP2 POP JUMPDEST POP SWAP2 POP SWAP2 POP PUSH2 0x2C71 DUP6 DUP4 DUP4 PUSH2 0x2D9E JUMP JUMPDEST SWAP3 POP POP POP SWAP3 SWAP2 POP POP JUMP JUMPDEST PUSH0 CALLVALUE GT ISZERO PUSH2 0x2CB5 JUMPI PUSH1 0x40 MLOAD PUSH32 0xB398979F00000000000000000000000000000000000000000000000000000000 DUP2 MSTORE PUSH1 0x4 ADD PUSH1 0x40 MLOAD DUP1 SWAP2 SUB SWAP1 REVERT JUMPDEST JUMP JUMPDEST PUSH0 DUP1 PUSH0 PUSH32 0x7FFFFFFFFFFFFFFFFFFFFFFFFFFFFFFF5D576E7357A4501DDFE92F46681B20A0 DUP5 PUSH0 SHR GT ISZERO PUSH2 0x2CF3 JUMPI PUSH0 PUSH1 0x3 DUP6 SWAP3 POP SWAP3 POP SWAP3 POP PUSH2 0x2D94 JUMP JUMPDEST PUSH0 PUSH1 0x1 DUP9 DUP9 DUP9 DUP9 PUSH1 0x40 MLOAD PUSH0 DUP2 MSTORE PUSH1 0x20 ADD PUSH1 0x40 MSTORE PUSH1 0x40 MLOAD PUSH2 0x2D16 SWAP5 SWAP4 SWAP3 SWAP2 SWAP1 PUSH2 0x48EF JUMP JUMPDEST PUSH1 0x20 PUSH1 0x40 MLOAD PUSH1 0x20 DUP2 SUB SWAP1 DUP1 DUP5 SUB SWAP1 DUP6 GAS STATICCALL ISZERO DUP1 ISZERO PUSH2 0x2D36 JUMPI RETURNDATASIZE PUSH0 DUP1 RETURNDATACOPY RETURNDATASIZE PUSH0 REVERT JUMPDEST POP POP POP PUSH1 0x20 PUSH1 0x40 MLOAD SUB MLOAD SWAP1 POP PUSH0 PUSH20 0xFFFFFFFFFFFFFFFFFFFFFFFFFFFFFFFFFFFFFFFF AND DUP2 PUSH20 0xFFFFFFFFFFFFFFFFFFFFFFFFFFFFFFFFFFFFFFFF AND SUB PUSH2 0x2D87 JUMPI PUSH0 PUSH1 0x1 PUSH0 DUP1 SHL SWAP4 POP SWAP4 POP SWAP4 POP POP PUSH2 0x2D94 JUMP JUMPDEST DUP1 PUSH0 DUP1 PUSH0 SHL SWAP4 POP SWAP4 POP SWAP4 POP POP JUMPDEST SWAP5 POP SWAP5 POP SWAP5 SWAP2 POP POP JUMP JUMPDEST PUSH1 0x60 DUP3 PUSH2 0x2DB3 JUMPI PUSH2 0x2DAE DUP3 PUSH2 0x2E2B JUMP JUMPDEST PUSH2 0x2E23 JUMP JUMPDEST PUSH0 DUP3 MLOAD EQ DUP1 ISZERO PUSH2 0x2DD9 JUMPI POP PUSH0 DUP5 PUSH20 0xFFFFFFFFFFFFFFFFFFFFFFFFFFFFFFFFFFFFFFFF AND EXTCODESIZE EQ JUMPDEST ISZERO PUSH2 0x2E1B JUMPI DUP4 PUSH1 0x40 MLOAD PUSH32 0x9996B31500000000000000000000000000000000000000000000000000000000 DUP2 MSTORE PUSH1 0x4 ADD PUSH2 0x2E12 SWAP2 SWAP1 PUSH2 0x388B JUMP JUMPDEST PUSH1 0x40 MLOAD DUP1 SWAP2 SUB SWAP1 REVERT JUMPDEST DUP2 SWAP1 POP PUSH2 0x2E24 JUMP JUMPDEST JUMPDEST SWAP4 SWAP3 POP POP POP JUMP JUMPDEST PUSH0 DUP2 MLOAD GT ISZERO PUSH2 0x2E3D JUMPI DUP1 MLOAD DUP1 DUP3 PUSH1 0x20 ADD REVERT JUMPDEST PUSH1 0x40 MLOAD PUSH32 0x1425EA4200000000000000000000000000000000000000000000000000000000 DUP2 MSTORE PUSH1 0x4 ADD PUSH1 0x40 MLOAD DUP1 SWAP2 SUB SWAP1 REVERT JUMPDEST PUSH0 PUSH1 0x40 MLOAD SWAP1 POP SWAP1 JUMP JUMPDEST PUSH0 DUP1 REVERT JUMPDEST PUSH0 DUP1 REVERT JUMPDEST PUSH0 PUSH32 0xFFFFFFFF00000000000000000000000000000000000000000000000000000000 DUP3 AND SWAP1 POP SWAP2 SWAP1 POP JUMP JUMPDEST PUSH2 0x2EB4 DUP2 PUSH2 0x2E80 JUMP JUMPDEST DUP2 EQ PUSH2 0x2EBE JUMPI PUSH0 DUP1 REVERT JUMPDEST POP JUMP JUMPDEST PUSH0 DUP2 CALLDATALOAD SWAP1 POP PUSH2 0x2ECF DUP2 PUSH2 0x2EAB JUMP JUMPDEST SWAP3 SWAP2 POP POP JUMP JUMPDEST PUSH0 PUSH1 0x20 DUP3 DUP5 SUB SLT ISZERO PUSH2 0x2EEA JUMPI PUSH2 0x2EE9 PUSH2 0x2E78 JUMP JUMPDEST JUMPDEST PUSH0 PUSH2 0x2EF7 DUP5 DUP3 DUP6 ADD PUSH2 0x2EC1 JUMP JUMPDEST SWAP2 POP POP SWAP3 SWAP2 POP POP JUMP JUMPDEST PUSH0 DUP2 ISZERO ISZERO SWAP1 POP SWAP2 SWAP1 POP JUMP JUMPDEST PUSH2 0x2F14 DUP2 PUSH2 0x2F00 JUMP JUMPDEST DUP3 MSTORE POP POP JUMP JUMPDEST PUSH0 PUSH1 0x20 DUP3 ADD SWAP1 POP PUSH2 0x2F2D PUSH0 DUP4 ADD DUP5 PUSH2 0x2F0B JUMP JUMPDEST SWAP3 SWAP2 POP POP JUMP JUMPDEST PUSH0 DUP1 REVERT JUMPDEST PUSH0 PUSH1 0x1F NOT PUSH1 0x1F DUP4 ADD AND SWAP1 POP SWAP2 SWAP1 POP JUMP JUMPDEST PUSH32 0x4E487B7100000000000000000000000000000000000000000000000000000000 PUSH0 MSTORE PUSH1 0x41 PUSH1 0x4 MSTORE PUSH1 0x24 PUSH0 REVERT JUMPDEST PUSH2 0x2F7D DUP3 PUSH2 0x2F37 JUMP JUMPDEST DUP2 ADD DUP2 DUP2 LT PUSH8 0xFFFFFFFFFFFFFFFF DUP3 GT OR ISZERO PUSH2 0x2F9C JUMPI PUSH2 0x2F9B PUSH2 0x2F47 JUMP JUMPDEST JUMPDEST DUP1 PUSH1 0x40 MSTORE POP POP POP JUMP JUMPDEST PUSH0 PUSH2 0x2FAE PUSH2 0x2E6F JUMP JUMPDEST SWAP1 POP PUSH2 0x2FBA DUP3 DUP3 PUSH2 0x2F74 JUMP JUMPDEST SWAP2 SWAP1 POP JUMP JUMPDEST PUSH0 DUP1 REVERT JUMPDEST PUSH0 PUSH20 0xFFFFFFFFFFFFFFFFFFFFFFFFFFFFFFFFFFFFFFFF DUP3 AND SWAP1 POP SWAP2 SWAP1 POP JUMP JUMPDEST PUSH0 PUSH2 0x2FEC DUP3 PUSH2 0x2FC3 JUMP JUMPDEST SWAP1 POP SWAP2 SWAP1 POP JUMP JUMPDEST PUSH2 0x2FFC DUP2 PUSH2 0x2FE2 JUMP JUMPDEST DUP2 EQ PUSH2 0x3006 JUMPI PUSH0 DUP1 REVERT JUMPDEST POP JUMP JUMPDEST PUSH0 DUP2 CALLDATALOAD SWAP1 POP PUSH2 0x3017 DUP2 PUSH2 0x2FF3 JUMP JUMPDEST SWAP3 SWAP2 POP POP JUMP JUMPDEST PUSH0 PUSH8 0xFFFFFFFFFFFFFFFF DUP3 AND SWAP1 POP SWAP2 SWAP1 POP JUMP JUMPDEST PUSH2 0x3039 DUP2 PUSH2 0x301D JUMP JUMPDEST DUP2 EQ PUSH2 0x3043 JUMPI PUSH0 DUP1 REVERT JUMPDEST POP JUMP JUMPDEST PUSH0 DUP2 CALLDATALOAD SWAP1 POP PUSH2 0x3054 DUP2 PUSH2 0x3030 JUMP JUMPDEST SWAP3 SWAP2 POP POP JUMP JUMPDEST PUSH0 DUP2 SWAP1 POP SWAP2 SWAP1 POP JUMP JUMPDEST PUSH2 0x306C DUP2 PUSH2 0x305A JUMP JUMPDEST DUP2 EQ PUSH2 0x3076 JUMPI PUSH0 DUP1 REVERT JUMPDEST POP JUMP JUMPDEST PUSH0 DUP2 CALLDATALOAD SWAP1 POP PUSH2 0x3087 DUP2 PUSH2 0x3063 JUMP JUMPDEST SWAP3 SWAP2 POP POP JUMP JUMPDEST PUSH0 PUSH1 0x40 DUP3 DUP5 SUB SLT ISZERO PUSH2 0x30A2 JUMPI PUSH2 0x30A1 PUSH2 0x2F33 JUMP JUMPDEST JUMPDEST PUSH2 0x30AC PUSH1 0x40 PUSH2 0x2FA5 JUMP JUMPDEST SWAP1 POP PUSH0 PUSH2 0x30BB DUP5 DUP3 DUP6 ADD PUSH2 0x3009 JUMP JUMPDEST PUSH0 DUP4 ADD MSTORE POP PUSH1 0x20 PUSH2 0x30CE DUP5 DUP3 DUP6 ADD PUSH2 0x3079 JUMP JUMPDEST PUSH1 0x20 DUP4 ADD MSTORE POP SWAP3 SWAP2 POP POP JUMP JUMPDEST PUSH0 DUP2 SWAP1 POP SWAP2 SWAP1 POP JUMP JUMPDEST PUSH2 0x30EC DUP2 PUSH2 0x30DA JUMP JUMPDEST DUP2 EQ PUSH2 0x30F6 JUMPI PUSH0 DUP1 REVERT JUMPDEST POP JUMP JUMPDEST PUSH0 DUP2 CALLDATALOAD SWAP1 POP PUSH2 0x3107 DUP2 PUSH2 0x30E3 JUMP JUMPDEST SWAP3 SWAP2 POP POP JUMP JUMPDEST PUSH0 DUP1 REVERT JUMPDEST PUSH0 DUP1 REVERT JUMPDEST PUSH0 PUSH8 0xFFFFFFFFFFFFFFFF DUP3 GT ISZERO PUSH2 0x312F JUMPI PUSH2 0x312E PUSH2 0x2F47 JUMP JUMPDEST JUMPDEST PUSH2 0x3138 DUP3 PUSH2 0x2F37 JUMP JUMPDEST SWAP1 POP PUSH1 0x20 DUP2 ADD SWAP1 POP SWAP2 SWAP1 POP JUMP JUMPDEST DUP3 DUP2 DUP4 CALLDATACOPY PUSH0 DUP4 DUP4 ADD MSTORE POP POP POP JUMP JUMPDEST PUSH0 PUSH2 0x3165 PUSH2 0x3160 DUP5 PUSH2 0x3115 JUMP JUMPDEST PUSH2 0x2FA5 JUMP JUMPDEST SWAP1 POP DUP3 DUP2 MSTORE PUSH1 0x20 DUP2 ADD DUP5 DUP5 DUP5 ADD GT ISZERO PUSH2 0x3181 JUMPI PUSH2 0x3180 PUSH2 0x3111 JUMP JUMPDEST JUMPDEST PUSH2 0x318C DUP5 DUP3 DUP6 PUSH2 0x3145 JUMP JUMPDEST POP SWAP4 SWAP3 POP POP POP JUMP JUMPDEST PUSH0 DUP3 PUSH1 0x1F DUP4 ADD SLT PUSH2 0x31A8 JUMPI PUSH2 0x31A7 PUSH2 0x310D JUMP JUMPDEST JUMPDEST DUP2 CALLDATALOAD PUSH2 0x31B8 DUP5 DUP3 PUSH1 0x20 DUP7 ADD PUSH2 0x3153 JUMP JUMPDEST SWAP2 POP POP SWAP3 SWAP2 POP POP JUMP JUMPDEST PUSH0 PUSH2 0x1C0 DUP3 DUP5 SUB SLT ISZERO PUSH2 0x31D7 JUMPI PUSH2 0x31D6 PUSH2 0x2F33 JUMP JUMPDEST JUMPDEST PUSH2 0x31E2 PUSH2 0x180 PUSH2 0x2FA5 JUMP JUMPDEST SWAP1 POP PUSH0 PUSH2 0x31F1 DUP5 DUP3 DUP6 ADD PUSH2 0x3009 JUMP JUMPDEST PUSH0 DUP4 ADD MSTORE POP PUSH1 0x20 PUSH2 0x3204 DUP5 DUP3 DUP6 ADD PUSH2 0x3046 JUMP JUMPDEST PUSH1 0x20 DUP4 ADD MSTORE POP PUSH1 0x40 PUSH2 0x3218 DUP5 DUP3 DUP6 ADD PUSH2 0x3009 JUMP JUMPDEST PUSH1 0x40 DUP4 ADD MSTORE POP PUSH1 0x60 PUSH2 0x322C DUP5 DUP3 DUP6 ADD PUSH2 0x3046 JUMP JUMPDEST PUSH1 0x60 DUP4 ADD MSTORE POP PUSH1 0x80 PUSH2 0x3240 DUP5 DUP3 DUP6 ADD PUSH2 0x308D JUMP JUMPDEST PUSH1 0x80 DUP4 ADD MSTORE POP PUSH1 0xC0 PUSH2 0x3254 DUP5 DUP3 DUP6 ADD PUSH2 0x308D JUMP JUMPDEST PUSH1 0xA0 DUP4 ADD MSTORE POP PUSH2 0x100 PUSH2 0x3269 DUP5 DUP3 DUP6 ADD PUSH2 0x3079 JUMP JUMPDEST PUSH1 0xC0 DUP4 ADD MSTORE POP PUSH2 0x120 PUSH2 0x327E DUP5 DUP3 DUP6 ADD PUSH2 0x3079 JUMP JUMPDEST PUSH1 0xE0 DUP4 ADD MSTORE POP PUSH2 0x140 PUSH2 0x3293 DUP5 DUP3 DUP6 ADD PUSH2 0x3009 JUMP JUMPDEST PUSH2 0x100 DUP4 ADD MSTORE POP PUSH2 0x160 PUSH2 0x32A9 DUP5 DUP3 DUP6 ADD PUSH2 0x30F9 JUMP JUMPDEST PUSH2 0x120 DUP4 ADD MSTORE POP PUSH2 0x180 PUSH2 0x32BF DUP5 DUP3 DUP6 ADD PUSH2 0x3009 JUMP JUMPDEST PUSH2 0x140 DUP4 ADD MSTORE POP PUSH2 0x1A0 DUP3 ADD CALLDATALOAD PUSH8 0xFFFFFFFFFFFFFFFF DUP2 GT ISZERO PUSH2 0x32E5 JUMPI PUSH2 0x32E4 PUSH2 0x2FBF JUMP JUMPDEST JUMPDEST PUSH2 0x32F1 DUP5 DUP3 DUP6 ADD PUSH2 0x3194 JUMP JUMPDEST PUSH2 0x160 DUP4 ADD MSTORE POP SWAP3 SWAP2 POP POP JUMP JUMPDEST PUSH0 PUSH1 0x20 DUP3 DUP5 SUB SLT ISZERO PUSH2 0x3313 JUMPI PUSH2 0x3312 PUSH2 0x2E78 JUMP JUMPDEST JUMPDEST PUSH0 DUP3 ADD CALLDATALOAD PUSH8 0xFFFFFFFFFFFFFFFF DUP2 GT ISZERO PUSH2 0x3330 JUMPI PUSH2 0x332F PUSH2 0x2E7C JUMP JUMPDEST JUMPDEST PUSH2 0x333C DUP5 DUP3 DUP6 ADD PUSH2 0x31C1 JUMP JUMPDEST SWAP2 POP POP SWAP3 SWAP2 POP POP JUMP JUMPDEST PUSH0 DUP1 REVERT JUMPDEST PUSH0 PUSH1 0xC0 DUP3 DUP5 SUB SLT ISZERO PUSH2 0x335E JUMPI PUSH2 0x335D PUSH2 0x3345 JUMP JUMPDEST JUMPDEST DUP2 SWAP1 POP SWAP3 SWAP2 POP POP JUMP JUMPDEST PUSH0 DUP1 REVERT JUMPDEST PUSH0 DUP1 REVERT JUMPDEST PUSH0 DUP1 DUP4 PUSH1 0x1F DUP5 ADD SLT PUSH2 0x3384 JUMPI PUSH2 0x3383 PUSH2 0x310D JUMP JUMPDEST JUMPDEST DUP3 CALLDATALOAD SWAP1 POP PUSH8 0xFFFFFFFFFFFFFFFF DUP2 GT ISZERO PUSH2 0x33A1 JUMPI PUSH2 0x33A0 PUSH2 0x3367 JUMP JUMPDEST JUMPDEST PUSH1 0x20 DUP4 ADD SWAP2 POP DUP4 PUSH1 0x1 DUP3 MUL DUP4 ADD GT ISZERO PUSH2 0x33BD JUMPI PUSH2 0x33BC PUSH2 0x336B JUMP JUMPDEST JUMPDEST SWAP3 POP SWAP3 SWAP1 POP JUMP JUMPDEST PUSH0 DUP1 PUSH0 PUSH1 0xE0 DUP5 DUP7 SUB SLT ISZERO PUSH2 0x33DB JUMPI PUSH2 0x33DA PUSH2 0x2E78 JUMP JUMPDEST JUMPDEST PUSH0 PUSH2 0x33E8 DUP7 DUP3 DUP8 ADD PUSH2 0x3349 JUMP JUMPDEST SWAP4 POP POP PUSH1 0xC0 DUP5 ADD CALLDATALOAD PUSH8 0xFFFFFFFFFFFFFFFF DUP2 GT ISZERO PUSH2 0x3409 JUMPI PUSH2 0x3408 PUSH2 0x2E7C JUMP JUMPDEST JUMPDEST PUSH2 0x3415 DUP7 DUP3 DUP8 ADD PUSH2 0x336F JUMP JUMPDEST SWAP3 POP SWAP3 POP POP SWAP3 POP SWAP3 POP SWAP3 JUMP JUMPDEST PUSH0 DUP1 PUSH1 0x40 DUP4 DUP6 SUB SLT ISZERO PUSH2 0x3437 JUMPI PUSH2 0x3436 PUSH2 0x2E78 JUMP JUMPDEST JUMPDEST PUSH0 PUSH2 0x3444 DUP6 DUP3 DUP7 ADD PUSH2 0x3079 JUMP JUMPDEST SWAP3 POP POP PUSH1 0x20 DUP4 ADD CALLDATALOAD PUSH8 0xFFFFFFFFFFFFFFFF DUP2 GT ISZERO PUSH2 0x3465 JUMPI PUSH2 0x3464 PUSH2 0x2E7C JUMP JUMPDEST JUMPDEST PUSH2 0x3471 DUP6 DUP3 DUP7 ADD PUSH2 0x3194 JUMP JUMPDEST SWAP2 POP POP SWAP3 POP SWAP3 SWAP1 POP JUMP JUMPDEST PUSH0 DUP1 PUSH0 PUSH1 0x60 DUP5 DUP7 SUB SLT ISZERO PUSH2 0x3492 JUMPI PUSH2 0x3491 PUSH2 0x2E78 JUMP JUMPDEST JUMPDEST PUSH0 PUSH2 0x349F DUP7 DUP3 DUP8 ADD PUSH2 0x3009 JUMP JUMPDEST SWAP4 POP POP PUSH1 0x20 PUSH2 0x34B0 DUP7 DUP3 DUP8 ADD PUSH2 0x3009 JUMP JUMPDEST SWAP3 POP POP PUSH1 0x40 PUSH2 0x34C1 DUP7 DUP3 DUP8 ADD PUSH2 0x3079 JUMP JUMPDEST SWAP2 POP POP SWAP3 POP SWAP3 POP SWAP3 JUMP JUMPDEST PUSH0 PUSH1 0x20 DUP3 DUP5 SUB SLT ISZERO PUSH2 0x34E0 JUMPI PUSH2 0x34DF PUSH2 0x2E78 JUMP JUMPDEST JUMPDEST PUSH0 PUSH2 0x34ED DUP5 DUP3 DUP6 ADD PUSH2 0x30F9 JUMP JUMPDEST SWAP2 POP POP SWAP3 SWAP2 POP POP JUMP JUMPDEST PUSH2 0x34FF DUP2 PUSH2 0x30DA JUMP JUMPDEST DUP3 MSTORE POP POP JUMP JUMPDEST PUSH0 PUSH1 0x20 DUP3 ADD SWAP1 POP PUSH2 0x3518 PUSH0 DUP4 ADD DUP5 PUSH2 0x34F6 JUMP JUMPDEST SWAP3 SWAP2 POP POP JUMP JUMPDEST PUSH0 PUSH1 0xA0 DUP3 DUP5 SUB SLT ISZERO PUSH2 0x3533 JUMPI PUSH2 0x3532 PUSH2 0x3345 JUMP JUMPDEST JUMPDEST DUP2 SWAP1 POP SWAP3 SWAP2 POP POP JUMP JUMPDEST PUSH0 DUP1 PUSH1 0xC0 DUP4 DUP6 SUB SLT ISZERO PUSH2 0x3552 JUMPI PUSH2 0x3551 PUSH2 0x2E78 JUMP JUMPDEST JUMPDEST PUSH0 PUSH2 0x355F DUP6 DUP3 DUP7 ADD PUSH2 0x3079 JUMP JUMPDEST SWAP3 POP POP PUSH1 0x20 PUSH2 0x3570 DUP6 DUP3 DUP7 ADD PUSH2 0x351E JUMP JUMPDEST SWAP2 POP POP SWAP3 POP SWAP3 SWAP1 POP JUMP JUMPDEST PUSH0 DUP1 PUSH1 0x40 DUP4 DUP6 SUB SLT ISZERO PUSH2 0x3590 JUMPI PUSH2 0x358F PUSH2 0x2E78 JUMP JUMPDEST JUMPDEST PUSH0 PUSH2 0x359D DUP6 DUP3 DUP7 ADD PUSH2 0x30F9 JUMP JUMPDEST SWAP3 POP POP PUSH1 0x20 PUSH2 0x35AE DUP6 DUP3 DUP7 ADD PUSH2 0x3009 JUMP JUMPDEST SWAP2 POP POP SWAP3 POP SWAP3 SWAP1 POP JUMP JUMPDEST PUSH0 PUSH1 0x40 DUP3 DUP5 SUB SLT ISZERO PUSH2 0x35CD JUMPI PUSH2 0x35CC PUSH2 0x3345 JUMP JUMPDEST JUMPDEST DUP2 SWAP1 POP SWAP3 SWAP2 POP POP JUMP JUMPDEST PUSH0 DUP1 PUSH1 0x40 DUP4 DUP6 SUB SLT ISZERO PUSH2 0x35EC JUMPI PUSH2 0x35EB PUSH2 0x2E78 JUMP JUMPDEST JUMPDEST PUSH0 DUP4 ADD CALLDATALOAD PUSH8 0xFFFFFFFFFFFFFFFF DUP2 GT ISZERO PUSH2 0x3609 JUMPI PUSH2 0x3608 PUSH2 0x2E7C JUMP JUMPDEST JUMPDEST PUSH2 0x3615 DUP6 DUP3 DUP7 ADD PUSH2 0x35B8 JUMP JUMPDEST SWAP3 POP POP PUSH1 0x20 DUP4 ADD CALLDATALOAD PUSH8 0xFFFFFFFFFFFFFFFF DUP2 GT ISZERO PUSH2 0x3636 JUMPI PUSH2 0x3635 PUSH2 0x2E7C JUMP JUMPDEST JUMPDEST PUSH2 0x3642 DUP6 DUP3 DUP7 ADD PUSH2 0x31C1 JUMP JUMPDEST SWAP2 POP POP SWAP3 POP SWAP3 SWAP1 POP JUMP JUMPDEST PUSH0 PUSH1 0x20 DUP3 DUP5 SUB SLT ISZERO PUSH2 0x3661 JUMPI PUSH2 0x3660 PUSH2 0x2E78 JUMP JUMPDEST JUMPDEST PUSH0 DUP3 ADD CALLDATALOAD PUSH8 0xFFFFFFFFFFFFFFFF DUP2 GT ISZERO PUSH2 0x367E JUMPI PUSH2 0x367D PUSH2 0x2E7C JUMP JUMPDEST JUMPDEST PUSH2 0x368A DUP5 DUP3 DUP6 ADD PUSH2 0x35B8 JUMP JUMPDEST SWAP2 POP POP SWAP3 SWAP2 POP POP JUMP JUMPDEST PUSH0 DUP1 PUSH1 0x40 DUP4 DUP6 SUB SLT ISZERO PUSH2 0x36A9 JUMPI PUSH2 0x36A8 PUSH2 0x2E78 JUMP JUMPDEST JUMPDEST PUSH0 PUSH2 0x36B6 DUP6 DUP3 DUP7 ADD PUSH2 0x3009 JUMP JUMPDEST SWAP3 POP POP PUSH1 0x20 DUP4 ADD CALLDATALOAD PUSH8 0xFFFFFFFFFFFFFFFF DUP2 GT ISZERO PUSH2 0x36D7 JUMPI PUSH2 0x36D6 PUSH2 0x2E7C JUMP JUMPDEST JUMPDEST PUSH2 0x36E3 DUP6 DUP3 DUP7 ADD PUSH2 0x3194 JUMP JUMPDEST SWAP2 POP POP SWAP3 POP SWAP3 SWAP1 POP JUMP JUMPDEST PUSH2 0x36F6 DUP2 PUSH2 0x2F00 JUMP JUMPDEST DUP2 EQ PUSH2 0x3700 JUMPI PUSH0 DUP1 REVERT JUMPDEST POP JUMP JUMPDEST PUSH0 DUP2 CALLDATALOAD SWAP1 POP PUSH2 0x3711 DUP2 PUSH2 0x36ED JUMP JUMPDEST SWAP3 SWAP2 POP POP JUMP JUMPDEST PUSH0 PUSH1 0x20 DUP3 DUP5 SUB SLT ISZERO PUSH2 0x372C JUMPI PUSH2 0x372B PUSH2 0x2E78 JUMP JUMPDEST JUMPDEST PUSH0 PUSH2 0x3739 DUP5 DUP3 DUP6 ADD PUSH2 0x3703 JUMP JUMPDEST SWAP2 POP POP SWAP3 SWAP2 POP POP JUMP JUMPDEST PUSH0 DUP2 MLOAD SWAP1 POP SWAP2 SWAP1 POP JUMP JUMPDEST PUSH0 DUP3 DUP3 MSTORE PUSH1 0x20 DUP3 ADD SWAP1 POP SWAP3 SWAP2 POP POP JUMP JUMPDEST PUSH0 JUMPDEST DUP4 DUP2 LT ISZERO PUSH2 0x3779 JUMPI DUP1 DUP3 ADD MLOAD DUP2 DUP5 ADD MSTORE PUSH1 0x20 DUP2 ADD SWAP1 POP PUSH2 0x375E JUMP JUMPDEST PUSH0 DUP5 DUP5 ADD MSTORE POP POP POP POP JUMP JUMPDEST PUSH0 PUSH2 0x378E DUP3 PUSH2 0x3742 JUMP JUMPDEST PUSH2 0x3798 DUP2 DUP6 PUSH2 0x374C JUMP JUMPDEST SWAP4 POP PUSH2 0x37A8 DUP2 DUP6 PUSH1 0x20 DUP7 ADD PUSH2 0x375C JUMP JUMPDEST PUSH2 0x37B1 DUP2 PUSH2 0x2F37 JUMP JUMPDEST DUP5 ADD SWAP2 POP POP SWAP3 SWAP2 POP POP JUMP JUMPDEST PUSH0 PUSH1 0x20 DUP3 ADD SWAP1 POP DUP2 DUP2 SUB PUSH0 DUP4 ADD MSTORE PUSH2 0x37D4 DUP2 DUP5 PUSH2 0x3784 JUMP JUMPDEST SWAP1 POP SWAP3 SWAP2 POP POP JUMP JUMPDEST PUSH0 DUP1 DUP4 PUSH1 0x1F DUP5 ADD SLT PUSH2 0x37F1 JUMPI PUSH2 0x37F0 PUSH2 0x310D JUMP JUMPDEST JUMPDEST DUP3 CALLDATALOAD SWAP1 POP PUSH8 0xFFFFFFFFFFFFFFFF DUP2 GT ISZERO PUSH2 0x380E JUMPI PUSH2 0x380D PUSH2 0x3367 JUMP JUMPDEST JUMPDEST PUSH1 0x20 DUP4 ADD SWAP2 POP DUP4 PUSH1 0x20 DUP3 MUL DUP4 ADD GT ISZERO PUSH2 0x382A JUMPI PUSH2 0x3829 PUSH2 0x336B JUMP JUMPDEST JUMPDEST SWAP3 POP SWAP3 SWAP1 POP JUMP JUMPDEST PUSH0 DUP1 PUSH1 0x20 DUP4 DUP6 SUB SLT ISZERO PUSH2 0x3847 JUMPI PUSH2 0x3846 PUSH2 0x2E78 JUMP JUMPDEST JUMPDEST PUSH0 DUP4 ADD CALLDATALOAD PUSH8 0xFFFFFFFFFFFFFFFF DUP2 GT ISZERO PUSH2 0x3864 JUMPI PUSH2 0x3863 PUSH2 0x2E7C JUMP JUMPDEST JUMPDEST PUSH2 0x3870 DUP6 DUP3 DUP7 ADD PUSH2 0x37DC JUMP JUMPDEST SWAP3 POP SWAP3 POP POP SWAP3 POP SWAP3 SWAP1 POP JUMP JUMPDEST PUSH2 0x3885 DUP2 PUSH2 0x2FE2 JUMP JUMPDEST DUP3 MSTORE POP POP JUMP JUMPDEST PUSH0 PUSH1 0x20 DUP3 ADD SWAP1 POP PUSH2 0x389E PUSH0 DUP4 ADD DUP5 PUSH2 0x387C JUMP JUMPDEST SWAP3 SWAP2 POP POP JUMP JUMPDEST PUSH32 0x5365727669636520756E617661696C61626C6500000000000000000000000000 PUSH0 DUP3 ADD MSTORE POP JUMP JUMPDEST PUSH0 PUSH2 0x38D8 PUSH1 0x13 DUP4 PUSH2 0x374C JUMP JUMPDEST SWAP2 POP PUSH2 0x38E3 DUP3 PUSH2 0x38A4 JUMP JUMPDEST PUSH1 0x20 DUP3 ADD SWAP1 POP SWAP2 SWAP1 POP JUMP JUMPDEST PUSH0 PUSH1 0x20 DUP3 ADD SWAP1 POP DUP2 DUP2 SUB PUSH0 DUP4 ADD MSTORE PUSH2 0x3905 DUP2 PUSH2 0x38CC JUMP JUMPDEST SWAP1 POP SWAP2 SWAP1 POP JUMP JUMPDEST PUSH32 0x496E76616C6964207369676E6174757265000000000000000000000000000000 PUSH0 DUP3 ADD MSTORE POP JUMP JUMPDEST PUSH0 PUSH2 0x3940 PUSH1 0x11 DUP4 PUSH2 0x374C JUMP JUMPDEST SWAP2 POP PUSH2 0x394B DUP3 PUSH2 0x390C JUMP JUMPDEST PUSH1 0x20 DUP3 ADD SWAP1 POP SWAP2 SWAP1 POP JUMP JUMPDEST PUSH0 PUSH1 0x20 DUP3 ADD SWAP1 POP DUP2 DUP2 SUB PUSH0 DUP4 ADD MSTORE PUSH2 0x396D DUP2 PUSH2 0x3934 JUMP JUMPDEST SWAP1 POP SWAP2 SWAP1 POP JUMP JUMPDEST PUSH0 PUSH1 0x20 DUP3 DUP5 SUB SLT ISZERO PUSH2 0x3989 JUMPI PUSH2 0x3988 PUSH2 0x2E78 JUMP JUMPDEST JUMPDEST PUSH0 PUSH2 0x3996 DUP5 DUP3 DUP6 ADD PUSH2 0x3009 JUMP JUMPDEST SWAP2 POP POP SWAP3 SWAP2 POP POP JUMP JUMPDEST PUSH32 0x496E76616C6964207469636B6574000000000000000000000000000000000000 PUSH0 DUP3 ADD MSTORE POP JUMP JUMPDEST PUSH0 PUSH2 0x39D3 PUSH1 0xE DUP4 PUSH2 0x374C JUMP JUMPDEST SWAP2 POP PUSH2 0x39DE DUP3 PUSH2 0x399F JUMP JUMPDEST PUSH1 0x20 DUP3 ADD SWAP1 POP SWAP2 SWAP1 POP JUMP JUMPDEST PUSH0 PUSH1 0x20 DUP3 ADD SWAP1 POP DUP2 DUP2 SUB PUSH0 DUP4 ADD MSTORE PUSH2 0x3A00 DUP2 PUSH2 0x39C7 JUMP JUMPDEST SWAP1 POP SWAP2 SWAP1 POP JUMP JUMPDEST PUSH32 0x496E73756666696369656E742076616C75650000000000000000000000000000 PUSH0 DUP3 ADD MSTORE POP JUMP JUMPDEST PUSH0 PUSH2 0x3A3B PUSH1 0x12 DUP4 PUSH2 0x374C JUMP JUMPDEST SWAP2 POP PUSH2 0x3A46 DUP3 PUSH2 0x3A07 JUMP JUMPDEST PUSH1 0x20 DUP3 ADD SWAP1 POP SWAP2 SWAP1 POP JUMP JUMPDEST PUSH0 PUSH1 0x20 DUP3 ADD SWAP1 POP DUP2 DUP2 SUB PUSH0 DUP4 ADD MSTORE PUSH2 0x3A68 DUP2 PUSH2 0x3A2F JUMP JUMPDEST SWAP1 POP SWAP2 SWAP1 POP JUMP JUMPDEST PUSH32 0x4E487B7100000000000000000000000000000000000000000000000000000000 PUSH0 MSTORE PUSH1 0x11 PUSH1 0x4 MSTORE PUSH1 0x24 PUSH0 REVERT JUMPDEST PUSH0 PUSH2 0x3AA6 DUP3 PUSH2 0x305A JUMP JUMPDEST SWAP2 POP PUSH2 0x3AB1 DUP4 PUSH2 0x305A JUMP JUMPDEST SWAP3 POP DUP3 DUP3 SUB SWAP1 POP DUP2 DUP2 GT ISZERO PUSH2 0x3AC9 JUMPI PUSH2 0x3AC8 PUSH2 0x3A6F JUMP JUMPDEST JUMPDEST SWAP3 SWAP2 POP POP JUMP JUMPDEST PUSH0 DUP2 MLOAD SWAP1 POP PUSH2 0x3ADD DUP2 PUSH2 0x3063 JUMP JUMPDEST SWAP3 SWAP2 POP POP JUMP JUMPDEST PUSH0 PUSH1 0x20 DUP3 DUP5 SUB SLT ISZERO PUSH2 0x3AF8 JUMPI PUSH2 0x3AF7 PUSH2 0x2E78 JUMP JUMPDEST JUMPDEST PUSH0 PUSH2 0x3B05 DUP5 DUP3 DUP6 ADD PUSH2 0x3ACF JUMP JUMPDEST SWAP2 POP POP SWAP3 SWAP2 POP POP JUMP JUMPDEST PUSH2 0x3B17 DUP2 PUSH2 0x305A JUMP JUMPDEST DUP3 MSTORE POP POP JUMP JUMPDEST PUSH0 PUSH1 0x60 DUP3 ADD SWAP1 POP PUSH2 0x3B30 PUSH0 DUP4 ADD DUP7 PUSH2 0x387C JUMP JUMPDEST PUSH2 0x3B3D PUSH1 0x20 DUP4 ADD DUP6 PUSH2 0x387C JUMP JUMPDEST PUSH2 0x3B4A PUSH1 0x40 DUP4 ADD DUP5 PUSH2 0x3B0E JUMP JUMPDEST SWAP5 SWAP4 POP POP POP POP JUMP JUMPDEST PUSH0 DUP2 MLOAD SWAP1 POP PUSH2 0x3B60 DUP2 PUSH2 0x36ED JUMP JUMPDEST SWAP3 SWAP2 POP POP JUMP JUMPDEST PUSH0 PUSH1 0x20 DUP3 DUP5 SUB SLT ISZERO PUSH2 0x3B7B JUMPI PUSH2 0x3B7A PUSH2 0x2E78 JUMP JUMPDEST JUMPDEST PUSH0 PUSH2 0x3B88 DUP5 DUP3 DUP6 ADD PUSH2 0x3B52 JUMP JUMPDEST SWAP2 POP POP SWAP3 SWAP2 POP POP JUMP JUMPDEST PUSH32 0x4661696C656420746F207472616E736665722061737365740000000000000000 PUSH0 DUP3 ADD MSTORE POP JUMP JUMPDEST PUSH0 PUSH2 0x3BC5 PUSH1 0x18 DUP4 PUSH2 0x374C JUMP JUMPDEST SWAP2 POP PUSH2 0x3BD0 DUP3 PUSH2 0x3B91 JUMP JUMPDEST PUSH1 0x20 DUP3 ADD SWAP1 POP SWAP2 SWAP1 POP JUMP JUMPDEST PUSH0 PUSH1 0x20 DUP3 ADD SWAP1 POP DUP2 DUP2 SUB PUSH0 DUP4 ADD MSTORE PUSH2 0x3BF2 DUP2 PUSH2 0x3BB9 JUMP JUMPDEST SWAP1 POP SWAP2 SWAP1 POP JUMP JUMPDEST PUSH0 PUSH2 0x3C03 DUP3 PUSH2 0x305A JUMP JUMPDEST SWAP2 POP PUSH2 0x3C0E DUP4 PUSH2 0x305A JUMP JUMPDEST SWAP3 POP DUP3 DUP3 ADD SWAP1 POP DUP1 DUP3 GT ISZERO PUSH2 0x3C26 JUMPI PUSH2 0x3C25 PUSH2 0x3A6F JUMP JUMPDEST JUMPDEST SWAP3 SWAP2 POP POP JUMP JUMPDEST PUSH32 0x5472616E73666572206572726F72000000000000000000000000000000000000 PUSH0 DUP3 ADD MSTORE POP JUMP JUMPDEST PUSH0 PUSH2 0x3C60 PUSH1 0xE DUP4 PUSH2 0x374C JUMP JUMPDEST SWAP2 POP PUSH2 0x3C6B DUP3 PUSH2 0x3C2C JUMP JUMPDEST PUSH1 0x20 DUP3 ADD SWAP1 POP SWAP2 SWAP1 POP JUMP JUMPDEST PUSH0 PUSH1 0x20 DUP3 ADD SWAP1 POP DUP2 DUP2 SUB PUSH0 DUP4 ADD MSTORE PUSH2 0x3C8D DUP2 PUSH2 0x3C54 JUMP JUMPDEST SWAP1 POP SWAP2 SWAP1 POP JUMP JUMPDEST PUSH32 0x496E636F72726563742066656500000000000000000000000000000000000000 PUSH0 DUP3 ADD MSTORE POP JUMP JUMPDEST PUSH0 PUSH2 0x3CC8 PUSH1 0xD DUP4 PUSH2 0x374C JUMP JUMPDEST SWAP2 POP PUSH2 0x3CD3 DUP3 PUSH2 0x3C94 JUMP JUMPDEST PUSH1 0x20 DUP3 ADD SWAP1 POP SWAP2 SWAP1 POP JUMP JUMPDEST PUSH0 PUSH1 0x20 DUP3 ADD SWAP1 POP DUP2 DUP2 SUB PUSH0 DUP4 ADD MSTORE PUSH2 0x3CF5 DUP2 PUSH2 0x3CBC JUMP JUMPDEST SWAP1 POP SWAP2 SWAP1 POP JUMP JUMPDEST PUSH0 DUP2 SWAP1 POP SWAP3 SWAP2 POP POP JUMP JUMPDEST POP JUMP JUMPDEST PUSH0 PUSH2 0x3D14 PUSH0 DUP4 PUSH2 0x3CFC JUMP JUMPDEST SWAP2 POP PUSH2 0x3D1F DUP3 PUSH2 0x3D06 JUMP JUMPDEST PUSH0 DUP3 ADD SWAP1 POP SWAP2 SWAP1 POP JUMP JUMPDEST PUSH0 PUSH2 0x3D33 DUP3 PUSH2 0x3D09 JUMP JUMPDEST SWAP2 POP DUP2 SWAP1 POP SWAP2 SWAP1 POP JUMP JUMPDEST PUSH32 0x4661696C656420746F20736176652076616C7574000000000000000000000000 PUSH0 DUP3 ADD MSTORE POP JUMP JUMPDEST PUSH0 PUSH2 0x3D71 PUSH1 0x14 DUP4 PUSH2 0x374C JUMP JUMPDEST SWAP2 POP PUSH2 0x3D7C DUP3 PUSH2 0x3D3D JUMP JUMPDEST PUSH1 0x20 DUP3 ADD SWAP1 POP SWAP2 SWAP1 POP JUMP JUMPDEST PUSH0 PUSH1 0x20 DUP3 ADD SWAP1 POP DUP2 DUP2 SUB PUSH0 DUP4 ADD MSTORE PUSH2 0x3D9E DUP2 PUSH2 0x3D65 JUMP JUMPDEST SWAP1 POP SWAP2 SWAP1 POP JUMP JUMPDEST PUSH32 0x4661696C656420746F2073617665206275666665720000000000000000000000 PUSH0 DUP3 ADD MSTORE POP JUMP JUMPDEST PUSH0 PUSH2 0x3DD9 PUSH1 0x15 DUP4 PUSH2 0x374C JUMP JUMPDEST SWAP2 POP PUSH2 0x3DE4 DUP3 PUSH2 0x3DA5 JUMP JUMPDEST PUSH1 0x20 DUP3 ADD SWAP1 POP SWAP2 SWAP1 POP JUMP JUMPDEST PUSH0 PUSH1 0x20 DUP3 ADD SWAP1 POP DUP2 DUP2 SUB PUSH0 DUP4 ADD MSTORE PUSH2 0x3E06 DUP2 PUSH2 0x3DCD JUMP JUMPDEST SWAP1 POP SWAP2 SWAP1 POP JUMP JUMPDEST PUSH0 PUSH2 0x3E1B PUSH1 0x20 DUP5 ADD DUP5 PUSH2 0x3079 JUMP JUMPDEST SWAP1 POP SWAP3 SWAP2 POP POP JUMP JUMPDEST PUSH2 0x3E2C DUP2 PUSH2 0x305A JUMP JUMPDEST DUP3 MSTORE POP POP JUMP JUMPDEST PUSH0 PUSH2 0x3E40 PUSH1 0x20 DUP5 ADD DUP5 PUSH2 0x3009 JUMP JUMPDEST SWAP1 POP SWAP3 SWAP2 POP POP JUMP JUMPDEST PUSH2 0x3E51 DUP2 PUSH2 0x2FE2 JUMP JUMPDEST DUP3 MSTORE POP POP JUMP JUMPDEST PUSH1 0xC0 DUP3 ADD PUSH2 0x3E67 PUSH0 DUP4 ADD DUP4 PUSH2 0x3E0D JUMP JUMPDEST PUSH2 0x3E73 PUSH0 DUP6 ADD DUP3 PUSH2 0x3E23 JUMP JUMPDEST POP PUSH2 0x3E81 PUSH1 0x20 DUP4 ADD DUP4 PUSH2 0x3E32 JUMP JUMPDEST PUSH2 0x3E8E PUSH1 0x20 DUP6 ADD DUP3 PUSH2 0x3E48 JUMP JUMPDEST POP PUSH2 0x3E9C PUSH1 0x40 DUP4 ADD DUP4 PUSH2 0x3E32 JUMP JUMPDEST PUSH2 0x3EA9 PUSH1 0x40 DUP6 ADD DUP3 PUSH2 0x3E48 JUMP JUMPDEST POP PUSH2 0x3EB7 PUSH1 0x60 DUP4 ADD DUP4 PUSH2 0x3E0D JUMP JUMPDEST PUSH2 0x3EC4 PUSH1 0x60 DUP6 ADD DUP3 PUSH2 0x3E23 JUMP JUMPDEST POP PUSH2 0x3ED2 PUSH1 0x80 DUP4 ADD DUP4 PUSH2 0x3E0D JUMP JUMPDEST PUSH2 0x3EDF PUSH1 0x80 DUP6 ADD DUP3 PUSH2 0x3E23 JUMP JUMPDEST POP PUSH2 0x3EED PUSH1 0xA0 DUP4 ADD DUP4 PUSH2 0x3E0D JUMP JUMPDEST PUSH2 0x3EFA PUSH1 0xA0 DUP6 ADD DUP3 PUSH2 0x3E23 JUMP JUMPDEST POP POP POP POP JUMP JUMPDEST PUSH0 PUSH1 0xC0 DUP3 ADD SWAP1 POP PUSH2 0x3F13 PUSH0 DUP4 ADD DUP5 PUSH2 0x3E57 JUMP JUMPDEST SWAP3 SWAP2 POP POP JUMP JUMPDEST PUSH0 DUP2 MLOAD SWAP1 POP SWAP2 SWAP1 POP JUMP JUMPDEST PUSH0 PUSH2 0x3F2D DUP3 PUSH2 0x3F19 JUMP JUMPDEST PUSH2 0x3F37 DUP2 DUP6 PUSH2 0x3CFC JUMP JUMPDEST SWAP4 POP PUSH2 0x3F47 DUP2 DUP6 PUSH1 0x20 DUP7 ADD PUSH2 0x375C JUMP JUMPDEST DUP1 DUP5 ADD SWAP2 POP POP SWAP3 SWAP2 POP POP JUMP JUMPDEST PUSH0 PUSH2 0x3F5E DUP3 DUP5 PUSH2 0x3F23 JUMP JUMPDEST SWAP2 POP DUP2 SWAP1 POP SWAP3 SWAP2 POP POP JUMP JUMPDEST PUSH32 0x427269646765206661696C656400000000000000000000000000000000000000 PUSH0 DUP3 ADD MSTORE POP JUMP JUMPDEST PUSH0 PUSH2 0x3F9D PUSH1 0xD DUP4 PUSH2 0x374C JUMP JUMPDEST SWAP2 POP PUSH2 0x3FA8 DUP3 PUSH2 0x3F69 JUMP JUMPDEST PUSH1 0x20 DUP3 ADD SWAP1 POP SWAP2 SWAP1 POP JUMP JUMPDEST PUSH0 PUSH1 0x20 DUP3 ADD SWAP1 POP DUP2 DUP2 SUB PUSH0 DUP4 ADD MSTORE PUSH2 0x3FCA DUP2 PUSH2 0x3F91 JUMP JUMPDEST SWAP1 POP SWAP2 SWAP1 POP JUMP JUMPDEST PUSH0 PUSH1 0x40 DUP3 ADD SWAP1 POP PUSH2 0x3FE4 PUSH0 DUP4 ADD DUP6 PUSH2 0x387C JUMP JUMPDEST PUSH2 0x3FF1 PUSH1 0x20 DUP4 ADD DUP5 PUSH2 0x3B0E JUMP JUMPDEST SWAP4 SWAP3 POP POP POP JUMP JUMPDEST PUSH1 0xA0 DUP3 ADD PUSH2 0x4008 PUSH0 DUP4 ADD DUP4 PUSH2 0x3E32 JUMP JUMPDEST PUSH2 0x4014 PUSH0 DUP6 ADD DUP3 PUSH2 0x3E48 JUMP JUMPDEST POP PUSH2 0x4022 PUSH1 0x20 DUP4 ADD DUP4 PUSH2 0x3E32 JUMP JUMPDEST PUSH2 0x402F PUSH1 0x20 DUP6 ADD DUP3 PUSH2 0x3E48 JUMP JUMPDEST POP PUSH2 0x403D PUSH1 0x40 DUP4 ADD DUP4 PUSH2 0x3E0D JUMP JUMPDEST PUSH2 0x404A PUSH1 0x40 DUP6 ADD DUP3 PUSH2 0x3E23 JUMP JUMPDEST POP PUSH2 0x4058 PUSH1 0x60 DUP4 ADD DUP4 PUSH2 0x3E0D JUMP JUMPDEST PUSH2 0x4065 PUSH1 0x60 DUP6 ADD DUP3 PUSH2 0x3E23 JUMP JUMPDEST POP PUSH2 0x4073 PUSH1 0x80 DUP4 ADD DUP4 PUSH2 0x3E0D JUMP JUMPDEST PUSH2 0x4080 PUSH1 0x80 DUP6 ADD DUP3 PUSH2 0x3E23 JUMP JUMPDEST POP POP POP POP JUMP JUMPDEST PUSH0 PUSH1 0xC0 DUP3 ADD SWAP1 POP PUSH2 0x4099 PUSH0 DUP4 ADD DUP6 PUSH2 0x3B0E JUMP JUMPDEST PUSH2 0x40A6 PUSH1 0x20 DUP4 ADD DUP5 PUSH2 0x3FF8 JUMP JUMPDEST SWAP4 SWAP3 POP POP POP JUMP JUMPDEST PUSH0 DUP1 REVERT JUMPDEST PUSH0 DUP1 REVERT JUMPDEST PUSH0 DUP1 REVERT JUMPDEST PUSH0 DUP1 DUP4 CALLDATALOAD PUSH1 0x1 PUSH1 0x20 SUB DUP5 CALLDATASIZE SUB SUB DUP2 SLT PUSH2 0x40D5 JUMPI PUSH2 0x40D4 PUSH2 0x40AD JUMP JUMPDEST JUMPDEST DUP1 DUP5 ADD SWAP3 POP DUP3 CALLDATALOAD SWAP2 POP PUSH8 0xFFFFFFFFFFFFFFFF DUP3 GT ISZERO PUSH2 0x40F7 JUMPI PUSH2 0x40F6 PUSH2 0x40B1 JUMP JUMPDEST JUMPDEST PUSH1 0x20 DUP4 ADD SWAP3 POP PUSH1 0x20 DUP3 MUL CALLDATASIZE SUB DUP4 SGT ISZERO PUSH2 0x4113 JUMPI PUSH2 0x4112 PUSH2 0x40B5 JUMP JUMPDEST JUMPDEST POP SWAP3 POP SWAP3 SWAP1 POP JUMP JUMPDEST PUSH32 0x53776170206C656E677468206973207A65726F00000000000000000000000000 PUSH0 DUP3 ADD MSTORE POP JUMP JUMPDEST PUSH0 PUSH2 0x414F PUSH1 0x13 DUP4 PUSH2 0x374C JUMP JUMPDEST SWAP2 POP PUSH2 0x415A DUP3 PUSH2 0x411B JUMP JUMPDEST PUSH1 0x20 DUP3 ADD SWAP1 POP SWAP2 SWAP1 POP JUMP JUMPDEST PUSH0 PUSH1 0x20 DUP3 ADD SWAP1 POP DUP2 DUP2 SUB PUSH0 DUP4 ADD MSTORE PUSH2 0x417C DUP2 PUSH2 0x4143 JUMP JUMPDEST SWAP1 POP SWAP2 SWAP1 POP JUMP JUMPDEST PUSH0 DUP2 SWAP1 POP SWAP2 SWAP1 POP JUMP JUMPDEST PUSH0 DUP2 SWAP1 POP SWAP2 SWAP1 POP JUMP JUMPDEST PUSH0 PUSH2 0x41AF PUSH2 0x41AA PUSH2 0x41A5 DUP5 PUSH2 0x4183 JUMP JUMPDEST PUSH2 0x418C JUMP JUMPDEST PUSH2 0x301D JUMP JUMPDEST SWAP1 POP SWAP2 SWAP1 POP JUMP JUMPDEST PUSH2 0x41BF DUP2 PUSH2 0x4195 JUMP JUMPDEST DUP3 MSTORE POP POP JUMP JUMPDEST PUSH0 PUSH1 0x20 DUP3 ADD SWAP1 POP PUSH2 0x41D8 PUSH0 DUP4 ADD DUP5 PUSH2 0x41B6 JUMP JUMPDEST SWAP3 SWAP2 POP POP JUMP JUMPDEST PUSH32 0x4E487B7100000000000000000000000000000000000000000000000000000000 PUSH0 MSTORE PUSH1 0x32 PUSH1 0x4 MSTORE PUSH1 0x24 PUSH0 REVERT JUMPDEST PUSH0 DUP3 CALLDATALOAD PUSH1 0x1 PUSH1 0x60 SUB DUP4 CALLDATASIZE SUB SUB DUP2 SLT PUSH2 0x4226 JUMPI PUSH2 0x4225 PUSH2 0x40AD JUMP JUMPDEST JUMPDEST DUP1 DUP4 ADD SWAP2 POP POP SWAP3 SWAP2 POP POP JUMP JUMPDEST PUSH0 DUP1 DUP4 CALLDATALOAD PUSH1 0x1 PUSH1 0x20 SUB DUP5 CALLDATASIZE SUB SUB DUP2 SLT PUSH2 0x424E JUMPI PUSH2 0x424D PUSH2 0x40AD JUMP JUMPDEST JUMPDEST DUP1 DUP5 ADD SWAP3 POP DUP3 CALLDATALOAD SWAP2 POP PUSH8 0xFFFFFFFFFFFFFFFF DUP3 GT ISZERO PUSH2 0x4270 JUMPI PUSH2 0x426F PUSH2 0x40B1 JUMP JUMPDEST JUMPDEST PUSH1 0x20 DUP4 ADD SWAP3 POP PUSH1 0x1 DUP3 MUL CALLDATASIZE SUB DUP4 SGT ISZERO PUSH2 0x428C JUMPI PUSH2 0x428B PUSH2 0x40B5 JUMP JUMPDEST JUMPDEST POP SWAP3 POP SWAP3 SWAP1 POP JUMP JUMPDEST PUSH0 PUSH2 0x429F DUP4 DUP6 PUSH2 0x3CFC JUMP JUMPDEST SWAP4 POP PUSH2 0x42AC DUP4 DUP6 DUP5 PUSH2 0x3145 JUMP JUMPDEST DUP3 DUP5 ADD SWAP1 POP SWAP4 SWAP3 POP POP POP JUMP JUMPDEST PUSH0 PUSH2 0x42C4 DUP3 DUP5 DUP7 PUSH2 0x4294 JUMP JUMPDEST SWAP2 POP DUP2 SWAP1 POP SWAP4 SWAP3 POP POP POP JUMP JUMPDEST PUSH32 0x43616C6C206661696C6564000000000000000000000000000000000000000000 PUSH0 DUP3 ADD MSTORE POP JUMP JUMPDEST PUSH0 PUSH2 0x4304 PUSH1 0xB DUP4 PUSH2 0x374C JUMP JUMPDEST SWAP2 POP PUSH2 0x430F DUP3 PUSH2 0x42D0 JUMP JUMPDEST PUSH1 0x20 DUP3 ADD SWAP1 POP SWAP2 SWAP1 POP JUMP JUMPDEST PUSH0 PUSH1 0x20 DUP3 ADD SWAP1 POP DUP2 DUP2 SUB PUSH0 DUP4 ADD MSTORE PUSH2 0x4331 DUP2 PUSH2 0x42F8 JUMP JUMPDEST SWAP1 POP SWAP2 SWAP1 POP JUMP JUMPDEST PUSH0 PUSH2 0x4342 DUP3 PUSH2 0x305A JUMP JUMPDEST SWAP2 POP PUSH32 0xFFFFFFFFFFFFFFFFFFFFFFFFFFFFFFFFFFFFFFFFFFFFFFFFFFFFFFFFFFFFFFFF DUP3 SUB PUSH2 0x4374 JUMPI PUSH2 0x4373 PUSH2 0x3A6F JUMP JUMPDEST JUMPDEST PUSH1 0x1 DUP3 ADD SWAP1 POP SWAP2 SWAP1 POP JUMP JUMPDEST PUSH2 0x4388 DUP2 PUSH2 0x301D JUMP JUMPDEST DUP3 MSTORE POP POP JUMP JUMPDEST PUSH1 0x40 DUP3 ADD PUSH0 DUP3 ADD MLOAD PUSH2 0x43A2 PUSH0 DUP6 ADD DUP3 PUSH2 0x3E48 JUMP JUMPDEST POP PUSH1 0x20 DUP3 ADD MLOAD PUSH2 0x43B5 PUSH1 0x20 DUP6 ADD DUP3 PUSH2 0x3E23 JUMP JUMPDEST POP POP POP POP JUMP JUMPDEST PUSH2 0x43C4 DUP2 PUSH2 0x30DA JUMP JUMPDEST DUP3 MSTORE POP POP JUMP JUMPDEST PUSH0 DUP3 DUP3 MSTORE PUSH1 0x20 DUP3 ADD SWAP1 POP SWAP3 SWAP2 POP POP JUMP JUMPDEST PUSH0 PUSH2 0x43E4 DUP3 PUSH2 0x3F19 JUMP JUMPDEST PUSH2 0x43EE DUP2 DUP6 PUSH2 0x43CA JUMP JUMPDEST SWAP4 POP PUSH2 0x43FE DUP2 DUP6 PUSH1 0x20 DUP7 ADD PUSH2 0x375C JUMP JUMPDEST PUSH2 0x4407 DUP2 PUSH2 0x2F37 JUMP JUMPDEST DUP5 ADD SWAP2 POP POP SWAP3 SWAP2 POP POP JUMP JUMPDEST PUSH0 PUSH2 0x1C0 DUP4 ADD PUSH0 DUP4 ADD MLOAD PUSH2 0x4428 PUSH0 DUP7 ADD DUP3 PUSH2 0x3E48 JUMP JUMPDEST POP PUSH1 0x20 DUP4 ADD MLOAD PUSH2 0x443B PUSH1 0x20 DUP7 ADD DUP3 PUSH2 0x437F JUMP JUMPDEST POP PUSH1 0x40 DUP4 ADD MLOAD PUSH2 0x444E PUSH1 0x40 DUP7 ADD DUP3 PUSH2 0x3E48 JUMP JUMPDEST POP PUSH1 0x60 DUP4 ADD MLOAD PUSH2 0x4461 PUSH1 0x60 DUP7 ADD DUP3 PUSH2 0x437F JUMP JUMPDEST POP PUSH1 0x80 DUP4 ADD MLOAD PUSH2 0x4474 PUSH1 0x80 DUP7 ADD DUP3 PUSH2 0x438E JUMP JUMPDEST POP PUSH1 0xA0 DUP4 ADD MLOAD PUSH2 0x4487 PUSH1 0xC0 DUP7 ADD DUP3 PUSH2 0x438E JUMP JUMPDEST POP PUSH1 0xC0 DUP4 ADD MLOAD PUSH2 0x449B PUSH2 0x100 DUP7 ADD DUP3 PUSH2 0x3E23 JUMP JUMPDEST POP PUSH1 0xE0 DUP4 ADD MLOAD PUSH2 0x44AF PUSH2 0x120 DUP7 ADD DUP3 PUSH2 0x3E23 JUMP JUMPDEST POP PUSH2 0x100 DUP4 ADD MLOAD PUSH2 0x44C4 PUSH2 0x140 DUP7 ADD DUP3 PUSH2 0x3E48 JUMP JUMPDEST POP PUSH2 0x120 DUP4 ADD MLOAD PUSH2 0x44D9 PUSH2 0x160 DUP7 ADD DUP3 PUSH2 0x43BB JUMP JUMPDEST POP PUSH2 0x140 DUP4 ADD MLOAD PUSH2 0x44EE PUSH2 0x180 DUP7 ADD DUP3 PUSH2 0x3E48 JUMP JUMPDEST POP PUSH2 0x160 DUP4 ADD MLOAD DUP5 DUP3 SUB PUSH2 0x1A0 DUP7 ADD MSTORE PUSH2 0x4508 DUP3 DUP3 PUSH2 0x43DA JUMP JUMPDEST SWAP2 POP POP DUP1 SWAP2 POP POP SWAP3 SWAP2 POP POP JUMP JUMPDEST PUSH0 PUSH1 0x20 DUP3 ADD SWAP1 POP DUP2 DUP2 SUB PUSH0 DUP4 ADD MSTORE PUSH2 0x452D DUP2 DUP5 PUSH2 0x4412 JUMP JUMPDEST SWAP1 POP SWAP3 SWAP2 POP POP JUMP JUMPDEST PUSH0 DUP2 SWAP1 POP SWAP2 SWAP1 POP JUMP JUMPDEST PUSH2 0x454F PUSH2 0x454A DUP3 PUSH2 0x305A JUMP JUMPDEST PUSH2 0x4535 JUMP JUMPDEST DUP3 MSTORE POP POP JUMP JUMPDEST PUSH0 DUP2 PUSH1 0x60 SHL SWAP1 POP SWAP2 SWAP1 POP JUMP JUMPDEST PUSH0 PUSH2 0x456B DUP3 PUSH2 0x4555 JUMP JUMPDEST SWAP1 POP SWAP2 SWAP1 POP JUMP JUMPDEST PUSH0 PUSH2 0x457C DUP3 PUSH2 0x4561 JUMP JUMPDEST SWAP1 POP SWAP2 SWAP1 POP JUMP JUMPDEST PUSH2 0x4594 PUSH2 0x458F DUP3 PUSH2 0x2FE2 JUMP JUMPDEST PUSH2 0x4572 JUMP JUMPDEST DUP3 MSTORE POP POP JUMP JUMPDEST PUSH0 PUSH2 0x45A5 DUP3 DUP10 PUSH2 0x453E JUMP JUMPDEST PUSH1 0x20 DUP3 ADD SWAP2 POP PUSH2 0x45B5 DUP3 DUP9 PUSH2 0x4583 JUMP JUMPDEST PUSH1 0x14 DUP3 ADD SWAP2 POP PUSH2 0x45C5 DUP3 DUP8 PUSH2 0x4583 JUMP JUMPDEST PUSH1 0x14 DUP3 ADD SWAP2 POP PUSH2 0x45D5 DUP3 DUP7 PUSH2 0x453E JUMP JUMPDEST PUSH1 0x20 DUP3 ADD SWAP2 POP PUSH2 0x45E5 DUP3 DUP6 PUSH2 0x453E JUMP JUMPDEST PUSH1 0x20 DUP3 ADD SWAP2 POP PUSH2 0x45F5 DUP3 DUP5 PUSH2 0x453E JUMP JUMPDEST PUSH1 0x20 DUP3 ADD SWAP2 POP DUP2 SWAP1 POP SWAP8 SWAP7 POP POP POP POP POP POP POP JUMP JUMPDEST PUSH0 DUP2 SWAP1 POP SWAP3 SWAP2 POP POP JUMP JUMPDEST PUSH32 0x19457468657265756D205369676E6564204D6573736167653A0A333200000000 PUSH0 DUP3 ADD MSTORE POP JUMP JUMPDEST PUSH0 PUSH2 0x4647 PUSH1 0x1C DUP4 PUSH2 0x4609 JUMP JUMPDEST SWAP2 POP PUSH2 0x4652 DUP3 PUSH2 0x4613 JUMP JUMPDEST PUSH1 0x1C DUP3 ADD SWAP1 POP SWAP2 SWAP1 POP JUMP JUMPDEST PUSH0 DUP2 SWAP1 POP SWAP2 SWAP1 POP JUMP JUMPDEST PUSH2 0x4677 PUSH2 0x4672 DUP3 PUSH2 0x30DA JUMP JUMPDEST PUSH2 0x465D JUMP JUMPDEST DUP3 MSTORE POP POP JUMP JUMPDEST PUSH0 PUSH2 0x4687 DUP3 PUSH2 0x463B JUMP JUMPDEST SWAP2 POP PUSH2 0x4693 DUP3 DUP5 PUSH2 0x4666 JUMP JUMPDEST PUSH1 0x20 DUP3 ADD SWAP2 POP DUP2 SWAP1 POP SWAP3 SWAP2 POP POP JUMP JUMPDEST PUSH0 PUSH1 0x40 DUP3 ADD SWAP1 POP PUSH2 0x46B5 PUSH0 DUP4 ADD DUP6 PUSH2 0x387C JUMP JUMPDEST PUSH2 0x46C2 PUSH1 0x20 DUP4 ADD DUP5 PUSH2 0x387C JUMP JUMPDEST SWAP4 SWAP3 POP POP POP JUMP JUMPDEST PUSH32 0x417070726F7665206661696C6564000000000000000000000000000000000000 PUSH0 DUP3 ADD MSTORE POP JUMP JUMPDEST PUSH0 PUSH2 0x46FD PUSH1 0xE DUP4 PUSH2 0x374C JUMP JUMPDEST SWAP2 POP PUSH2 0x4708 DUP3 PUSH2 0x46C9 JUMP JUMPDEST PUSH1 0x20 DUP3 ADD SWAP1 POP SWAP2 SWAP1 POP JUMP JUMPDEST PUSH0 PUSH1 0x20 DUP3 ADD SWAP1 POP DUP2 DUP2 SUB PUSH0 DUP4 ADD MSTORE PUSH2 0x472A DUP2 PUSH2 0x46F1 JUMP JUMPDEST SWAP1 POP SWAP2 SWAP1 POP JUMP JUMPDEST PUSH0 DUP3 CALLDATALOAD PUSH1 0x1 PUSH1 0xE0 SUB DUP4 CALLDATASIZE SUB SUB DUP2 SLT PUSH2 0x474C JUMPI PUSH2 0x474B PUSH2 0x40AD JUMP JUMPDEST JUMPDEST DUP1 DUP4 ADD SWAP2 POP POP SWAP3 SWAP2 POP POP JUMP JUMPDEST PUSH32 0x53776170206661696C6564000000000000000000000000000000000000000000 PUSH0 DUP3 ADD MSTORE POP JUMP JUMPDEST PUSH0 PUSH2 0x478C PUSH1 0xB DUP4 PUSH2 0x374C JUMP JUMPDEST SWAP2 POP PUSH2 0x4797 DUP3 PUSH2 0x4758 JUMP JUMPDEST PUSH1 0x20 DUP3 ADD SWAP1 POP SWAP2 SWAP1 POP JUMP JUMPDEST PUSH0 PUSH1 0x20 DUP3 ADD SWAP1 POP DUP2 DUP2 SUB PUSH0 DUP4 ADD MSTORE PUSH2 0x47B9 DUP2 PUSH2 0x4780 JUMP JUMPDEST SWAP1 POP SWAP2 SWAP1 POP JUMP JUMPDEST PUSH32 0x496E73756666696369656E74206F757470757400000000000000000000000000 PUSH0 DUP3 ADD MSTORE POP JUMP JUMPDEST PUSH0 PUSH2 0x47F4 PUSH1 0x13 DUP4 PUSH2 0x374C JUMP JUMPDEST SWAP2 POP PUSH2 0x47FF DUP3 PUSH2 0x47C0 JUMP JUMPDEST PUSH1 0x20 DUP3 ADD SWAP1 POP SWAP2 SWAP1 POP JUMP JUMPDEST PUSH0 PUSH1 0x20 DUP3 ADD SWAP1 POP DUP2 DUP2 SUB PUSH0 DUP4 ADD MSTORE PUSH2 0x4821 DUP2 PUSH2 0x47E8 JUMP JUMPDEST SWAP1 POP SWAP2 SWAP1 POP JUMP JUMPDEST PUSH0 DUP2 MLOAD SWAP1 POP PUSH2 0x4836 DUP2 PUSH2 0x30E3 JUMP JUMPDEST SWAP3 SWAP2 POP POP JUMP JUMPDEST PUSH0 PUSH1 0x20 DUP3 DUP5 SUB SLT ISZERO PUSH2 0x4851 JUMPI PUSH2 0x4850 PUSH2 0x2E78 JUMP JUMPDEST JUMPDEST PUSH0 PUSH2 0x485E DUP5 DUP3 DUP6 ADD PUSH2 0x4828 JUMP JUMPDEST SWAP2 POP POP SWAP3 SWAP2 POP POP JUMP JUMPDEST PUSH0 PUSH1 0x40 DUP3 ADD SWAP1 POP PUSH2 0x487A PUSH0 DUP4 ADD DUP6 PUSH2 0x387C JUMP JUMPDEST PUSH2 0x4887 PUSH1 0x20 DUP4 ADD DUP5 PUSH2 0x34F6 JUMP JUMPDEST SWAP4 SWAP3 POP POP POP JUMP JUMPDEST PUSH32 0x4E487B7100000000000000000000000000000000000000000000000000000000 PUSH0 MSTORE PUSH1 0x21 PUSH1 0x4 MSTORE PUSH1 0x24 PUSH0 REVERT JUMPDEST PUSH0 PUSH1 0x20 DUP3 ADD SWAP1 POP PUSH2 0x48CE PUSH0 DUP4 ADD DUP5 PUSH2 0x3B0E JUMP JUMPDEST SWAP3 SWAP2 POP POP JUMP JUMPDEST PUSH0 PUSH1 0xFF DUP3 AND SWAP1 POP SWAP2 SWAP1 POP JUMP JUMPDEST PUSH2 0x48E9 DUP2 PUSH2 0x48D4 JUMP JUMPDEST DUP3 MSTORE POP POP JUMP JUMPDEST PUSH0 PUSH1 0x80 DUP3 ADD SWAP1 POP PUSH2 0x4902 PUSH0 DUP4 ADD DUP8 PUSH2 0x34F6 JUMP JUMPDEST PUSH2 0x490F PUSH1 0x20 DUP4 ADD DUP7 PUSH2 0x48E0 JUMP JUMPDEST PUSH2 0x491C PUSH1 0x40 DUP4 ADD DUP6 PUSH2 0x34F6 JUMP JUMPDEST PUSH2 0x4929 PUSH1 0x60 DUP4 ADD DUP5 PUSH2 0x34F6 JUMP JUMPDEST SWAP6 SWAP5 POP POP POP POP POP JUMP INVALID LOG2 PUSH5 0x6970667358 0x22 SLT KECCAK256 PUSH2 0x536F SWAP15 MSTORE 0xBE PUSH7 0xF5D671F0272E41 0xBF RETURN 0xF8 CHAINID 0x4E SWAP9 PC ADDRESS SMOD 0xD SWAP9 SWAP16 0xD4 PUSH28 0x456A7A5764736F6C6343000814003300000000000000000000000000 "
		},
		"gasEstimates": {
			"creation": {
				"codeDepositCost": "3758400",
				"executionCost": "infinite",
				"totalCost": "infinite"
			},
			"external": {
				"AGGREGATOR_LIFI()": "369",
				"BRIDGE_UNABRIDGE()": "415",
				"DEFAULT_ADMIN_ROLE()": "419",
				"MUDSKIPPER_BUFFER()": "391",
				"MUDSKIPPER_MANAGER()": "435",
				"MUDSKIPPER_RESERVE()": "436",
				"MUDSKIPPER_VAULT()": "393",
				"TICKET_PUBLISHER()": "392",
				"TX_RELAYER()": "437",
				"UPGRADE_INTERFACE_VERSION()": "infinite",
				"addressRegistry(bytes32)": "2914",
				"approveMax(address,address,uint256)": "infinite",
				"bridgeViaLiFi(uint256,bytes)": "infinite",
				"bridgeViaUnaBridge((address,uint64,address,uint64,(address,uint256),(address,uint256),uint256,uint256,address,bytes32,address,bytes))": "infinite",
				"callArbitrary((address,uint256,bytes)[])": "infinite",
				"circuitBreaker(bool)": "27306",
				"denyRequest()": "2577",
				"getRoleAdmin(bytes32)": "infinite",
				"grantRole(bytes32,address)": "infinite",
				"hasRole(bytes32,address)": "3241",
				"initialize()": "infinite",
				"proxiableUUID()": "infinite",
				"rejectTransfer(uint256,(address,address,uint256,uint256,uint256))": "infinite",
				"renounceRole(bytes32,address)": "infinite",
				"requestTransfer((uint256,address,address,uint256,uint256,uint256),bytes)": "infinite",
				"revokeRole(bytes32,address)": "infinite",
				"supportsInterface(bytes4)": "764",
				"swap(((address,address,address,uint256,address,bytes,bool)[],uint256))": "infinite",
				"swapAndUnaBridge(((address,address,address,uint256,address,bytes,bool)[],uint256),(address,uint64,address,uint64,(address,uint256),(address,uint256),uint256,uint256,address,bytes32,address,bytes))": "infinite",
				"upgradeToAndCall(address,bytes)": "infinite",
				"writeRegistry(bytes32,address)": "infinite"
			},
			"internal": {
				"_approveMax(address,address,uint256)": "infinite",
				"_authorizeUpgrade(address)": "infinite",
				"_bridgeViaUnaBridge(struct UnaTypes.ExitERC20 memory)": "infinite",
				"_getBalance(address,address)": "infinite",
				"_serializeTicket(struct IMudskipper.RequestTicket calldata)": "infinite",
				"_swap(struct IMudskipper.SwapRequest calldata)": "infinite",
				"_validateSignature(bytes32,bytes memory,bytes calldata)": "infinite"
			}
		},
		"methodIdentifiers": {
			"AGGREGATOR_LIFI()": "dab5bb8f",
			"BRIDGE_UNABRIDGE()": "609ab6ec",
			"DEFAULT_ADMIN_ROLE()": "a217fddf",
			"MUDSKIPPER_BUFFER()": "db404538",
			"MUDSKIPPER_MANAGER()": "ffb77395",
			"MUDSKIPPER_RESERVE()": "50bb43fe",
			"MUDSKIPPER_VAULT()": "2bca2a83",
			"TICKET_PUBLISHER()": "b0079683",
			"TX_RELAYER()": "25d91df4",
			"UPGRADE_INTERFACE_VERSION()": "ad3cb1cc",
			"addressRegistry(bytes32)": "ef4dd55d",
			"approveMax(address,address,uint256)": "16fb0943",
			"bridgeViaLiFi(uint256,bytes)": "145ba058",
			"bridgeViaUnaBridge((address,uint64,address,uint64,(address,uint256),(address,uint256),uint256,uint256,address,bytes32,address,bytes))": "085b21d1",
			"callArbitrary((address,uint256,bytes)[])": "bc53bba9",
			"circuitBreaker(bool)": "80fe39c8",
			"denyRequest()": "a4a44a22",
			"getRoleAdmin(bytes32)": "248a9ca3",
			"grantRole(bytes32,address)": "2f2ff15d",
			"hasRole(bytes32,address)": "91d14854",
			"initialize()": "8129fc1c",
			"proxiableUUID()": "52d1902d",
			"rejectTransfer(uint256,(address,address,uint256,uint256,uint256))": "2b432c39",
			"renounceRole(bytes32,address)": "36568abe",
			"requestTransfer((uint256,address,address,uint256,uint256,uint256),bytes)": "09d90104",
			"revokeRole(bytes32,address)": "d547741f",
			"supportsInterface(bytes4)": "01ffc9a7",
			"swap(((address,address,address,uint256,address,bytes,bool)[],uint256))": "430cf9c2",
			"swapAndUnaBridge(((address,address,address,uint256,address,bytes,bool)[],uint256),(address,uint64,address,uint64,(address,uint256),(address,uint256),uint256,uint256,address,bytes32,address,bytes))": "3956b553",
			"upgradeToAndCall(address,bytes)": "4f1ef286",
			"writeRegistry(bytes32,address)": "50d336ed"
		}
	},
	"abi": [
		{
			"inputs": [],
			"stateMutability": "nonpayable",
			"type": "constructor"
		},
		{
			"inputs": [],
			"name": "AccessControlBadConfirmation",
			"type": "error"
		},
		{
			"inputs": [
				{
					"internalType": "address",
					"name": "account",
					"type": "address"
				},
				{
					"internalType": "bytes32",
					"name": "neededRole",
					"type": "bytes32"
				}
			],
			"name": "AccessControlUnauthorizedAccount",
			"type": "error"
		},
		{
			"inputs": [
				{
					"internalType": "address",
					"name": "target",
					"type": "address"
				}
			],
			"name": "AddressEmptyCode",
			"type": "error"
		},
		{
			"inputs": [],
			"name": "ECDSAInvalidSignature",
			"type": "error"
		},
		{
			"inputs": [
				{
					"internalType": "uint256",
					"name": "length",
					"type": "uint256"
				}
			],
			"name": "ECDSAInvalidSignatureLength",
			"type": "error"
		},
		{
			"inputs": [
				{
					"internalType": "bytes32",
					"name": "s",
					"type": "bytes32"
				}
			],
			"name": "ECDSAInvalidSignatureS",
			"type": "error"
		},
		{
			"inputs": [
				{
					"internalType": "address",
					"name": "implementation",
					"type": "address"
				}
			],
			"name": "ERC1967InvalidImplementation",
			"type": "error"
		},
		{
			"inputs": [],
			"name": "ERC1967NonPayable",
			"type": "error"
		},
		{
			"inputs": [],
			"name": "FailedInnerCall",
			"type": "error"
		},
		{
			"inputs": [],
			"name": "InvalidInitialization",
			"type": "error"
		},
		{
			"inputs": [],
			"name": "NotInitializing",
			"type": "error"
		},
		{
			"inputs": [
				{
					"internalType": "uint256",
					"name": "index",
					"type": "uint256"
				}
			],
			"name": "TransactionFailed",
			"type": "error"
		},
		{
			"inputs": [],
			"name": "UUPSUnauthorizedCallContext",
			"type": "error"
		},
		{
			"inputs": [
				{
					"internalType": "bytes32",
					"name": "slot",
					"type": "bytes32"
				}
			],
			"name": "UUPSUnsupportedProxiableUUID",
			"type": "error"
		},
		{
			"anonymous": false,
			"inputs": [
				{
					"indexed": false,
					"internalType": "uint64",
					"name": "version",
					"type": "uint64"
				}
			],
			"name": "Initialized",
			"type": "event"
		},
		{
			"anonymous": false,
			"inputs": [
				{
					"indexed": true,
					"internalType": "bytes32",
					"name": "role",
					"type": "bytes32"
				},
				{
					"indexed": true,
					"internalType": "bytes32",
					"name": "previousAdminRole",
					"type": "bytes32"
				},
				{
					"indexed": true,
					"internalType": "bytes32",
					"name": "newAdminRole",
					"type": "bytes32"
				}
			],
			"name": "RoleAdminChanged",
			"type": "event"
		},
		{
			"anonymous": false,
			"inputs": [
				{
					"indexed": true,
					"internalType": "bytes32",
					"name": "role",
					"type": "bytes32"
				},
				{
					"indexed": true,
					"internalType": "address",
					"name": "account",
					"type": "address"
				},
				{
					"indexed": true,
					"internalType": "address",
					"name": "sender",
					"type": "address"
				}
			],
			"name": "RoleGranted",
			"type": "event"
		},
		{
			"anonymous": false,
			"inputs": [
				{
					"indexed": true,
					"internalType": "bytes32",
					"name": "role",
					"type": "bytes32"
				},
				{
					"indexed": true,
					"internalType": "address",
					"name": "account",
					"type": "address"
				},
				{
					"indexed": true,
					"internalType": "address",
					"name": "sender",
					"type": "address"
				}
			],
			"name": "RoleRevoked",
			"type": "event"
		},
		{
			"anonymous": false,
			"inputs": [
				{
					"indexed": true,
					"internalType": "uint256",
					"name": "ticketID",
					"type": "uint256"
				},
				{
					"indexed": false,
					"internalType": "uint256",
					"name": "revertFee",
					"type": "uint256"
				},
				{
					"components": [
						{
							"internalType": "address",
							"name": "requester",
							"type": "address"
						},
						{
							"internalType": "address",
							"name": "asset",
							"type": "address"
						},
						{
							"internalType": "uint256",
							"name": "quantity",
							"type": "uint256"
						},
						{
							"internalType": "uint256",
							"name": "collectedFee",
							"type": "uint256"
						},
						{
							"internalType": "uint256",
							"name": "revertFee",
							"type": "uint256"
						}
					],
					"indexed": false,
					"internalType": "struct IMudskipper.Deposit",
					"name": "returnedDeposit",
					"type": "tuple"
				}
			],
			"name": "TransferRejected",
			"type": "event"
		},
		{
			"anonymous": false,
			"inputs": [
				{
					"components": [
						{
							"internalType": "uint256",
							"name": "id",
							"type": "uint256"
						},
						{
							"internalType": "address",
							"name": "sender",
							"type": "address"
						},
						{
							"internalType": "address",
							"name": "asset",
							"type": "address"
						},
						{
							"internalType": "uint256",
							"name": "quantity",
							"type": "uint256"
						},
						{
							"internalType": "uint256",
							"name": "fee",
							"type": "uint256"
						},
						{
							"internalType": "uint256",
							"name": "funding",
							"type": "uint256"
						}
					],
					"indexed": false,
					"internalType": "struct IMudskipper.RequestTicket",
					"name": "ticket",
					"type": "tuple"
				}
			],
			"name": "TransferRequested",
			"type": "event"
		},
		{
			"anonymous": false,
			"inputs": [
				{
					"indexed": true,
					"internalType": "address",
					"name": "implementation",
					"type": "address"
				}
			],
			"name": "Upgraded",
			"type": "event"
		},
		{
			"inputs": [],
			"name": "AGGREGATOR_LIFI",
			"outputs": [
				{
					"internalType": "bytes32",
					"name": "",
					"type": "bytes32"
				}
			],
			"stateMutability": "view",
			"type": "function"
		},
		{
			"inputs": [],
			"name": "BRIDGE_UNABRIDGE",
			"outputs": [
				{
					"internalType": "bytes32",
					"name": "",
					"type": "bytes32"
				}
			],
			"stateMutability": "view",
			"type": "function"
		},
		{
			"inputs": [],
			"name": "DEFAULT_ADMIN_ROLE",
			"outputs": [
				{
					"internalType": "bytes32",
					"name": "",
					"type": "bytes32"
				}
			],
			"stateMutability": "view",
			"type": "function"
		},
		{
			"inputs": [],
			"name": "MUDSKIPPER_BUFFER",
			"outputs": [
				{
					"internalType": "bytes32",
					"name": "",
					"type": "bytes32"
				}
			],
			"stateMutability": "view",
			"type": "function"
		},
		{
			"inputs": [],
			"name": "MUDSKIPPER_MANAGER",
			"outputs": [
				{
					"internalType": "bytes32",
					"name": "",
					"type": "bytes32"
				}
			],
			"stateMutability": "view",
			"type": "function"
		},
		{
			"inputs": [],
			"name": "MUDSKIPPER_RESERVE",
			"outputs": [
				{
					"internalType": "bytes32",
					"name": "",
					"type": "bytes32"
				}
			],
			"stateMutability": "view",
			"type": "function"
		},
		{
			"inputs": [],
			"name": "MUDSKIPPER_VAULT",
			"outputs": [
				{
					"internalType": "bytes32",
					"name": "",
					"type": "bytes32"
				}
			],
			"stateMutability": "view",
			"type": "function"
		},
		{
			"inputs": [],
			"name": "TICKET_PUBLISHER",
			"outputs": [
				{
					"internalType": "bytes32",
					"name": "",
					"type": "bytes32"
				}
			],
			"stateMutability": "view",
			"type": "function"
		},
		{
			"inputs": [],
			"name": "TX_RELAYER",
			"outputs": [
				{
					"internalType": "bytes32",
					"name": "",
					"type": "bytes32"
				}
			],
			"stateMutability": "view",
			"type": "function"
		},
		{
			"inputs": [],
			"name": "UPGRADE_INTERFACE_VERSION",
			"outputs": [
				{
					"internalType": "string",
					"name": "",
					"type": "string"
				}
			],
			"stateMutability": "view",
			"type": "function"
		},
		{
			"inputs": [
				{
					"internalType": "bytes32",
					"name": "",
					"type": "bytes32"
				}
			],
			"name": "addressRegistry",
			"outputs": [
				{
					"internalType": "address",
					"name": "",
					"type": "address"
				}
			],
			"stateMutability": "view",
			"type": "function"
		},
		{
			"inputs": [
				{
					"internalType": "address",
					"name": "token",
					"type": "address"
				},
				{
					"internalType": "address",
					"name": "to",
					"type": "address"
				},
				{
					"internalType": "uint256",
					"name": "min",
					"type": "uint256"
				}
			],
			"name": "approveMax",
			"outputs": [],
			"stateMutability": "nonpayable",
			"type": "function"
		},
		{
			"inputs": [
				{
					"internalType": "uint256",
					"name": "value",
					"type": "uint256"
				},
				{
					"internalType": "bytes",
					"name": "data",
					"type": "bytes"
				}
			],
			"name": "bridgeViaLiFi",
			"outputs": [
				{
					"internalType": "bool",
					"name": "success",
					"type": "bool"
				}
			],
			"stateMutability": "nonpayable",
			"type": "function"
		},
		{
			"inputs": [
				{
					"components": [
						{
							"internalType": "address",
							"name": "from",
							"type": "address"
						},
						{
							"internalType": "uint64",
							"name": "dstChain",
							"type": "uint64"
						},
						{
							"internalType": "address",
							"name": "to",
							"type": "address"
						},
						{
							"internalType": "uint64",
							"name": "gasLimit",
							"type": "uint64"
						},
						{
							"components": [
								{
									"internalType": "address",
									"name": "token",
									"type": "address"
								},
								{
									"internalType": "uint256",
									"name": "amount",
									"type": "uint256"
								}
							],
							"internalType": "struct Client.EVMTokenAmount",
							"name": "ccipFeeTokenAmountForCurrChain",
							"type": "tuple"
						},
						{
							"components": [
								{
									"internalType": "address",
									"name": "token",
									"type": "address"
								},
								{
									"internalType": "uint256",
									"name": "amount",
									"type": "uint256"
								}
							],
							"internalType": "struct Client.EVMTokenAmount",
							"name": "ccipFeeTokenAmountForNextChain",
							"type": "tuple"
						},
						{
							"internalType": "uint256",
							"name": "totalAmount",
							"type": "uint256"
						},
						{
							"internalType": "uint256",
							"name": "bridgedAmount",
							"type": "uint256"
						},
						{
							"internalType": "address",
							"name": "srcToken",
							"type": "address"
						},
						{
							"internalType": "bytes32",
							"name": "metaHash",
							"type": "bytes32"
						},
						{
							"internalType": "address",
							"name": "contractAddress",
							"type": "address"
						},
						{
							"internalType": "bytes",
							"name": "inputs",
							"type": "bytes"
						}
					],
					"internalType": "struct UnaTypes.ExitERC20",
					"name": "unaBridgeCalldata",
					"type": "tuple"
				}
			],
			"name": "bridgeViaUnaBridge",
			"outputs": [
				{
					"internalType": "bool",
					"name": "success",
					"type": "bool"
				}
			],
			"stateMutability": "nonpayable",
			"type": "function"
		},
		{
			"inputs": [
				{
					"components": [
						{
							"internalType": "address",
							"name": "to",
							"type": "address"
						},
						{
							"internalType": "uint256",
							"name": "value",
							"type": "uint256"
						},
						{
							"internalType": "bytes",
							"name": "data",
							"type": "bytes"
						}
					],
					"internalType": "struct IMudskipper.Tx[]",
					"name": "txs",
					"type": "tuple[]"
				}
			],
			"name": "callArbitrary",
			"outputs": [
				{
					"internalType": "bool",
					"name": "success",
					"type": "bool"
				}
			],
			"stateMutability": "nonpayable",
			"type": "function"
		},
		{
			"inputs": [
				{
					"internalType": "bool",
					"name": "_break",
					"type": "bool"
				}
			],
			"name": "circuitBreaker",
			"outputs": [],
			"stateMutability": "nonpayable",
			"type": "function"
		},
		{
			"inputs": [],
			"name": "denyRequest",
			"outputs": [
				{
					"internalType": "bool",
					"name": "",
					"type": "bool"
				}
			],
			"stateMutability": "view",
			"type": "function"
		},
		{
			"inputs": [
				{
					"internalType": "bytes32",
					"name": "role",
					"type": "bytes32"
				}
			],
			"name": "getRoleAdmin",
			"outputs": [
				{
					"internalType": "bytes32",
					"name": "",
					"type": "bytes32"
				}
			],
			"stateMutability": "view",
			"type": "function"
		},
		{
			"inputs": [
				{
					"internalType": "bytes32",
					"name": "role",
					"type": "bytes32"
				},
				{
					"internalType": "address",
					"name": "account",
					"type": "address"
				}
			],
			"name": "grantRole",
			"outputs": [],
			"stateMutability": "nonpayable",
			"type": "function"
		},
		{
			"inputs": [
				{
					"internalType": "bytes32",
					"name": "role",
					"type": "bytes32"
				},
				{
					"internalType": "address",
					"name": "account",
					"type": "address"
				}
			],
			"name": "hasRole",
			"outputs": [
				{
					"internalType": "bool",
					"name": "",
					"type": "bool"
				}
			],
			"stateMutability": "view",
			"type": "function"
		},
		{
			"inputs": [],
			"name": "initialize",
			"outputs": [],
			"stateMutability": "nonpayable",
			"type": "function"
		},
		{
			"inputs": [],
			"name": "proxiableUUID",
			"outputs": [
				{
					"internalType": "bytes32",
					"name": "",
					"type": "bytes32"
				}
			],
			"stateMutability": "view",
			"type": "function"
		},
		{
			"inputs": [
				{
					"internalType": "uint256",
					"name": "ticketID",
					"type": "uint256"
				},
				{
					"components": [
						{
							"internalType": "address",
							"name": "requester",
							"type": "address"
						},
						{
							"internalType": "address",
							"name": "asset",
							"type": "address"
						},
						{
							"internalType": "uint256",
							"name": "quantity",
							"type": "uint256"
						},
						{
							"internalType": "uint256",
							"name": "collectedFee",
							"type": "uint256"
						},
						{
							"internalType": "uint256",
							"name": "revertFee",
							"type": "uint256"
						}
					],
					"internalType": "struct IMudskipper.Deposit",
					"name": "deposit",
					"type": "tuple"
				}
			],
			"name": "rejectTransfer",
			"outputs": [
				{
					"internalType": "bool",
					"name": "success",
					"type": "bool"
				}
			],
			"stateMutability": "nonpayable",
			"type": "function"
		},
		{
			"inputs": [
				{
					"internalType": "bytes32",
					"name": "role",
					"type": "bytes32"
				},
				{
					"internalType": "address",
					"name": "callerConfirmation",
					"type": "address"
				}
			],
			"name": "renounceRole",
			"outputs": [],
			"stateMutability": "nonpayable",
			"type": "function"
		},
		{
			"inputs": [
				{
					"components": [
						{
							"internalType": "uint256",
							"name": "id",
							"type": "uint256"
						},
						{
							"internalType": "address",
							"name": "sender",
							"type": "address"
						},
						{
							"internalType": "address",
							"name": "asset",
							"type": "address"
						},
						{
							"internalType": "uint256",
							"name": "quantity",
							"type": "uint256"
						},
						{
							"internalType": "uint256",
							"name": "fee",
							"type": "uint256"
						},
						{
							"internalType": "uint256",
							"name": "funding",
							"type": "uint256"
						}
					],
					"internalType": "struct IMudskipper.RequestTicket",
					"name": "ticket",
					"type": "tuple"
				},
				{
					"internalType": "bytes",
					"name": "signature",
					"type": "bytes"
				}
			],
			"name": "requestTransfer",
			"outputs": [
				{
					"internalType": "bool",
					"name": "success",
					"type": "bool"
				}
			],
			"stateMutability": "payable",
			"type": "function"
		},
		{
			"inputs": [
				{
					"internalType": "bytes32",
					"name": "role",
					"type": "bytes32"
				},
				{
					"internalType": "address",
					"name": "account",
					"type": "address"
				}
			],
			"name": "revokeRole",
			"outputs": [],
			"stateMutability": "nonpayable",
			"type": "function"
		},
		{
			"inputs": [
				{
					"internalType": "bytes4",
					"name": "interfaceId",
					"type": "bytes4"
				}
			],
			"name": "supportsInterface",
			"outputs": [
				{
					"internalType": "bool",
					"name": "",
					"type": "bool"
				}
			],
			"stateMutability": "view",
			"type": "function"
		},
		{
			"inputs": [
				{
					"components": [
						{
							"components": [
								{
									"internalType": "address",
									"name": "callTo",
									"type": "address"
								},
								{
									"internalType": "address",
									"name": "approveTo",
									"type": "address"
								},
								{
									"internalType": "address",
									"name": "fromAsset",
									"type": "address"
								},
								{
									"internalType": "uint256",
									"name": "fromQuantity",
									"type": "uint256"
								},
								{
									"internalType": "address",
									"name": "toAsset",
									"type": "address"
								},
								{
									"internalType": "bytes",
									"name": "callData",
									"type": "bytes"
								},
								{
									"internalType": "bool",
									"name": "requiresDeposit",
									"type": "bool"
								}
							],
							"internalType": "struct IMudskipper.SwapData[]",
							"name": "swapData",
							"type": "tuple[]"
						},
						{
							"internalType": "uint256",
							"name": "minOutput",
							"type": "uint256"
						}
					],
					"internalType": "struct IMudskipper.SwapRequest",
					"name": "swapRequest",
					"type": "tuple"
				}
			],
			"name": "swap",
			"outputs": [
				{
					"internalType": "bool",
					"name": "success",
					"type": "bool"
				}
			],
			"stateMutability": "nonpayable",
			"type": "function"
		},
		{
			"inputs": [
				{
					"components": [
						{
							"components": [
								{
									"internalType": "address",
									"name": "callTo",
									"type": "address"
								},
								{
									"internalType": "address",
									"name": "approveTo",
									"type": "address"
								},
								{
									"internalType": "address",
									"name": "fromAsset",
									"type": "address"
								},
								{
									"internalType": "uint256",
									"name": "fromQuantity",
									"type": "uint256"
								},
								{
									"internalType": "address",
									"name": "toAsset",
									"type": "address"
								},
								{
									"internalType": "bytes",
									"name": "callData",
									"type": "bytes"
								},
								{
									"internalType": "bool",
									"name": "requiresDeposit",
									"type": "bool"
								}
							],
							"internalType": "struct IMudskipper.SwapData[]",
							"name": "swapData",
							"type": "tuple[]"
						},
						{
							"internalType": "uint256",
							"name": "minOutput",
							"type": "uint256"
						}
					],
					"internalType": "struct IMudskipper.SwapRequest",
					"name": "swapRequest",
					"type": "tuple"
				},
				{
					"components": [
						{
							"internalType": "address",
							"name": "from",
							"type": "address"
						},
						{
							"internalType": "uint64",
							"name": "dstChain",
							"type": "uint64"
						},
						{
							"internalType": "address",
							"name": "to",
							"type": "address"
						},
						{
							"internalType": "uint64",
							"name": "gasLimit",
							"type": "uint64"
						},
						{
							"components": [
								{
									"internalType": "address",
									"name": "token",
									"type": "address"
								},
								{
									"internalType": "uint256",
									"name": "amount",
									"type": "uint256"
								}
							],
							"internalType": "struct Client.EVMTokenAmount",
							"name": "ccipFeeTokenAmountForCurrChain",
							"type": "tuple"
						},
						{
							"components": [
								{
									"internalType": "address",
									"name": "token",
									"type": "address"
								},
								{
									"internalType": "uint256",
									"name": "amount",
									"type": "uint256"
								}
							],
							"internalType": "struct Client.EVMTokenAmount",
							"name": "ccipFeeTokenAmountForNextChain",
							"type": "tuple"
						},
						{
							"internalType": "uint256",
							"name": "totalAmount",
							"type": "uint256"
						},
						{
							"internalType": "uint256",
							"name": "bridgedAmount",
							"type": "uint256"
						},
						{
							"internalType": "address",
							"name": "srcToken",
							"type": "address"
						},
						{
							"internalType": "bytes32",
							"name": "metaHash",
							"type": "bytes32"
						},
						{
							"internalType": "address",
							"name": "contractAddress",
							"type": "address"
						},
						{
							"internalType": "bytes",
							"name": "inputs",
							"type": "bytes"
						}
					],
					"internalType": "struct UnaTypes.ExitERC20",
					"name": "unaBridgeCalldata",
					"type": "tuple"
				}
			],
			"name": "swapAndUnaBridge",
			"outputs": [
				{
					"internalType": "bool",
					"name": "success",
					"type": "bool"
				}
			],
			"stateMutability": "nonpayable",
			"type": "function"
		},
		{
			"inputs": [
				{
					"internalType": "address",
					"name": "newImplementation",
					"type": "address"
				},
				{
					"internalType": "bytes",
					"name": "data",
					"type": "bytes"
				}
			],
			"name": "upgradeToAndCall",
			"outputs": [],
			"stateMutability": "payable",
			"type": "function"
		},
		{
			"inputs": [
				{
					"internalType": "bytes32",
					"name": "key",
					"type": "bytes32"
				},
				{
					"internalType": "address",
					"name": "addr",
					"type": "address"
				}
			],
			"name": "writeRegistry",
			"outputs": [],
			"stateMutability": "nonpayable",
			"type": "function"
		}
	]
}