{
  "_format": "hh-sol-artifact-1",
  "contractName": "ICCIP",
  "sourceName": "contracts/Interface/ICCIP.sol",
  "abi": [
    {
      "inputs": [
        {
          "components": [
            {
              "components": [
                {
                  "internalType": "uint64",
                  "name": "sourceChainSelector",
                  "type": "uint64"
                },
                {
                  "internalType": "address",
                  "name": "sender",
                  "type": "address"
                },
                {
                  "internalType": "address",
                  "name": "receiver",
                  "type": "address"
                },
                {
                  "internalType": "uint64",
                  "name": "sequenceNumber",
                  "type": "uint64"
                },
                {
                  "internalType": "uint256",
                  "name": "gasLimit",
                  "type": "uint256"
                },
                {
                  "internalType": "bool",
                  "name": "strict",
                  "type": "bool"
                },
                {
                  "internalType": "uint64",
                  "name": "nonce",
                  "type": "uint64"
                },
                {
                  "internalType": "address",
                  "name": "feeToken",
                  "type": "address"
                },
                {
                  "internalType": "uint256",
                  "name": "feeTokenAmount",
                  "type": "uint256"
                },
                {
                  "internalType": "bytes",
                  "name": "data",
                  "type": "bytes"
                },
                {
                  "components": [
                    {
                      "internalType": "address",
                      "name": "token",
                      "type": "address"
                    },
                    {
                      "internalType": "uint256",
                      "name": "amount",
                      "type": "uint256"
                    }
                  ],
                  "internalType": "struct Client.EVMTokenAmount[]",
                  "name": "tokenAmounts",
                  "type": "tuple[]"
                },
                {
                  "internalType": "bytes[]",
                  "name": "sourceTokenData",
                  "type": "bytes[]"
                },
                {
                  "internalType": "bytes32",
                  "name": "messageId",
                  "type": "bytes32"
                }
              ],
              "internalType": "struct ICCIP.EVM2EVMMessage[]",
              "name": "messages",
              "type": "tuple[]"
            },
            {
              "internalType": "bytes[][]",
              "name": "offchainTokenData",
              "type": "bytes[][]"
            },
            {
              "internalType": "bytes32[]",
              "name": "proofs",
              "type": "bytes32[]"
            },
            {
              "internalType": "uint256",
              "name": "proofFlagBits",
              "type": "uint256"
            }
          ],
          "internalType": "struct ICCIP.ExecutionReport",
          "name": "report",
          "type": "tuple"
        }
      ],
      "name": "_report",
      "outputs": [],
      "stateMutability": "nonpayable",
      "type": "function"
    },
    {
      "inputs": [
        {
          "components": [
            {
              "internalType": "bytes32",
              "name": "messageId",
              "type": "bytes32"
            },
            {
              "internalType": "uint64",
              "name": "sourceChainSelector",
              "type": "uint64"
            },
            {
              "internalType": "bytes",
              "name": "sender",
              "type": "bytes"
            },
            {
              "internalType": "bytes",
              "name": "data",
              "type": "bytes"
            },
            {
              "components": [
                {
                  "internalType": "address",
                  "name": "token",
                  "type": "address"
                },
                {
                  "internalType": "uint256",
                  "name": "amount",
                  "type": "uint256"
                }
              ],
              "internalType": "struct ICCIP.EVMTokenAmount[]",
              "name": "destTokenAmounts",
              "type": "tuple[]"
            }
          ],
          "internalType": "struct ICCIP.Any2EVMMessage",
          "name": "report",
          "type": "tuple"
        }
      ],
      "name": "_report2",
      "outputs": [],
      "stateMutability": "nonpayable",
      "type": "function"
    }
  ],
  "bytecode": "0x608060405234801561001057600080fd5b50610cb0806100206000396000f3fe608060405234801561001057600080fd5b50600436106100365760003560e01c80633eb928e41461003b5780635236078c14610057575b600080fd5b610055600480360381019061005091906109f5565b610073565b005b610071600480360381019061006c9190610c31565b610076565b005b50565b50565b6000604051905090565b600080fd5b600080fd5b600080fd5b6000601f19601f8301169050919050565b7f4e487b7100000000000000000000000000000000000000000000000000000000600052604160045260246000fd5b6100db82610092565b810181811067ffffffffffffffff821117156100fa576100f96100a3565b5b80604052505050565b600061010d610079565b905061011982826100d2565b919050565b600080fd5b600080fd5b600067ffffffffffffffff821115610143576101426100a3565b5b602082029050602081019050919050565b600080fd5b600067ffffffffffffffff82169050919050565b61017681610159565b811461018157600080fd5b50565b6000813590506101938161016d565b92915050565b600073ffffffffffffffffffffffffffffffffffffffff82169050919050565b60006101c482610199565b9050919050565b6101d4816101b9565b81146101df57600080fd5b50565b6000813590506101f1816101cb565b92915050565b6000819050919050565b61020a816101f7565b811461021557600080fd5b50565b60008135905061022781610201565b92915050565b60008115159050919050565b6102428161022d565b811461024d57600080fd5b50565b60008135905061025f81610239565b92915050565b600080fd5b600067ffffffffffffffff821115610285576102846100a3565b5b61028e82610092565b9050602081019050919050565b82818337600083830152505050565b60006102bd6102b88461026a565b610103565b9050828152602081018484840111156102d9576102d8610265565b5b6102e484828561029b565b509392505050565b600082601f83011261030157610300610123565b5b81356103118482602086016102aa565b91505092915050565b600067ffffffffffffffff821115610335576103346100a3565b5b602082029050602081019050919050565b60006040828403121561035c5761035b61008d565b5b6103666040610103565b90506000610376848285016101e2565b600083015250602061038a84828501610218565b60208301525092915050565b60006103a96103a48461031a565b610103565b905080838252602082019050604084028301858111156103cc576103cb610154565b5b835b818110156103f557806103e18882610346565b8452602084019350506040810190506103ce565b5050509392505050565b600082601f83011261041457610413610123565b5b8135610424848260208601610396565b91505092915050565b600067ffffffffffffffff821115610448576104476100a3565b5b602082029050602081019050919050565b600061046c6104678461042d565b610103565b9050808382526020820190506020840283018581111561048f5761048e610154565b5b835b818110156104d657803567ffffffffffffffff8111156104b4576104b3610123565b5b8086016104c189826102ec565b85526020850194505050602081019050610491565b5050509392505050565b600082601f8301126104f5576104f4610123565b5b8135610505848260208601610459565b91505092915050565b6000819050919050565b6105218161050e565b811461052c57600080fd5b50565b60008135905061053e81610518565b92915050565b60006101a0828403121561055b5761055a61008d565b5b6105666101a0610103565b9050600061057684828501610184565b600083015250602061058a848285016101e2565b602083015250604061059e848285016101e2565b60408301525060606105b284828501610184565b60608301525060806105c684828501610218565b60808301525060a06105da84828501610250565b60a08301525060c06105ee84828501610184565b60c08301525060e0610602848285016101e2565b60e08301525061010061061784828501610218565b6101008301525061012082013567ffffffffffffffff81111561063d5761063c61011e565b5b610649848285016102ec565b6101208301525061014082013567ffffffffffffffff81111561066f5761066e61011e565b5b61067b848285016103ff565b6101408301525061016082013567ffffffffffffffff8111156106a1576106a061011e565b5b6106ad848285016104e0565b610160830152506101806106c38482850161052f565b6101808301525092915050565b60006106e36106de84610128565b610103565b9050808382526020820190506020840283018581111561070657610705610154565b5b835b8181101561074d57803567ffffffffffffffff81111561072b5761072a610123565b5b8086016107388982610544565b85526020850194505050602081019050610708565b5050509392505050565b600082601f83011261076c5761076b610123565b5b813561077c8482602086016106d0565b91505092915050565b600067ffffffffffffffff8211156107a05761079f6100a3565b5b602082029050602081019050919050565b60006107c46107bf84610785565b610103565b905080838252602082019050602084028301858111156107e7576107e6610154565b5b835b8181101561082e57803567ffffffffffffffff81111561080c5761080b610123565b5b80860161081989826104e0565b855260208501945050506020810190506107e9565b5050509392505050565b600082601f83011261084d5761084c610123565b5b813561085d8482602086016107b1565b91505092915050565b600067ffffffffffffffff821115610881576108806100a3565b5b602082029050602081019050919050565b60006108a56108a084610866565b610103565b905080838252602082019050602084028301858111156108c8576108c7610154565b5b835b818110156108f157806108dd888261052f565b8452602084019350506020810190506108ca565b5050509392505050565b600082601f8301126109105761090f610123565b5b8135610920848260208601610892565b91505092915050565b60006080828403121561093f5761093e61008d565b5b6109496080610103565b9050600082013567ffffffffffffffff8111156109695761096861011e565b5b61097584828501610757565b600083015250602082013567ffffffffffffffff8111156109995761099861011e565b5b6109a584828501610838565b602083015250604082013567ffffffffffffffff8111156109c9576109c861011e565b5b6109d5848285016108fb565b60408301525060606109e984828501610218565b60608301525092915050565b600060208284031215610a0b57610a0a610083565b5b600082013567ffffffffffffffff811115610a2957610a28610088565b5b610a3584828501610929565b91505092915050565b600067ffffffffffffffff821115610a5957610a586100a3565b5b602082029050602081019050919050565b600060408284031215610a8057610a7f61008d565b5b610a8a6040610103565b90506000610a9a848285016101e2565b6000830152506020610aae84828501610218565b60208301525092915050565b6000610acd610ac884610a3e565b610103565b90508083825260208201905060408402830185811115610af057610aef610154565b5b835b81811015610b195780610b058882610a6a565b845260208401935050604081019050610af2565b5050509392505050565b600082601f830112610b3857610b37610123565b5b8135610b48848260208601610aba565b91505092915050565b600060a08284031215610b6757610b6661008d565b5b610b7160a0610103565b90506000610b818482850161052f565b6000830152506020610b9584828501610184565b602083015250604082013567ffffffffffffffff811115610bb957610bb861011e565b5b610bc5848285016102ec565b604083015250606082013567ffffffffffffffff811115610be957610be861011e565b5b610bf5848285016102ec565b606083015250608082013567ffffffffffffffff811115610c1957610c1861011e565b5b610c2584828501610b23565b60808301525092915050565b600060208284031215610c4757610c46610083565b5b600082013567ffffffffffffffff811115610c6557610c64610088565b5b610c7184828501610b51565b9150509291505056fea2646970667358221220dab70b66f7e0f78a7f95521c80d4069c3b0ea7ef40de86f753ecb5a61e856c1364736f6c63430008140033",
  "linkReferences": {},
  "deployedLinkReferences": {}
}