{
  "_format": "hh-sol-artifact-1",
  "contractName": "Factory",
  "sourceName": "contracts/Utils/factory.sol",
  "abi": [
    {
      "inputs": [],
      "stateMutability": "nonpayable",
      "type": "constructor"
    },
    {
      "inputs": [],
      "name": "AccessControlBadConfirmation",
      "type": "error"
    },
    {
      "inputs": [
        {
          "internalType": "address",
          "name": "account",
          "type": "address"
        },
        {
          "internalType": "bytes32",
          "name": "neededRole",
          "type": "bytes32"
        }
      ],
      "name": "AccessControlUnauthorizedAccount",
      "type": "error"
    },
    {
      "inputs": [
        {
          "internalType": "address",
          "name": "target",
          "type": "address"
        }
      ],
      "name": "AddressEmptyCode",
      "type": "error"
    },
    {
      "inputs": [],
      "name": "Create2EmptyBytecode",
      "type": "error"
    },
    {
      "inputs": [],
      "name": "Create2FailedDeployment",
      "type": "error"
    },
    {
      "inputs": [
        {
          "internalType": "uint256",
          "name": "balance",
          "type": "uint256"
        },
        {
          "internalType": "uint256",
          "name": "needed",
          "type": "uint256"
        }
      ],
      "name": "Create2InsufficientBalance",
      "type": "error"
    },
    {
      "inputs": [
        {
          "internalType": "address",
          "name": "implementation",
          "type": "address"
        }
      ],
      "name": "ERC1967InvalidImplementation",
      "type": "error"
    },
    {
      "inputs": [],
      "name": "ERC1967NonPayable",
      "type": "error"
    },
    {
      "inputs": [],
      "name": "FailedInnerCall",
      "type": "error"
    },
    {
      "inputs": [],
      "name": "InvalidInitialization",
      "type": "error"
    },
    {
      "inputs": [],
      "name": "NotInitializing",
      "type": "error"
    },
    {
      "inputs": [],
      "name": "UUPSUnauthorizedCallContext",
      "type": "error"
    },
    {
      "inputs": [
        {
          "internalType": "bytes32",
          "name": "slot",
          "type": "bytes32"
        }
      ],
      "name": "UUPSUnsupportedProxiableUUID",
      "type": "error"
    },
    {
      "anonymous": false,
      "inputs": [
        {
          "indexed": false,
          "internalType": "address",
          "name": "deployed",
          "type": "address"
        }
      ],
      "name": "Deployed",
      "type": "event"
    },
    {
      "anonymous": false,
      "inputs": [
        {
          "indexed": false,
          "internalType": "uint64",
          "name": "version",
          "type": "uint64"
        }
      ],
      "name": "Initialized",
      "type": "event"
    },
    {
      "anonymous": false,
      "inputs": [
        {
          "indexed": true,
          "internalType": "bytes32",
          "name": "role",
          "type": "bytes32"
        },
        {
          "indexed": true,
          "internalType": "bytes32",
          "name": "previousAdminRole",
          "type": "bytes32"
        },
        {
          "indexed": true,
          "internalType": "bytes32",
          "name": "newAdminRole",
          "type": "bytes32"
        }
      ],
      "name": "RoleAdminChanged",
      "type": "event"
    },
    {
      "anonymous": false,
      "inputs": [
        {
          "indexed": true,
          "internalType": "bytes32",
          "name": "role",
          "type": "bytes32"
        },
        {
          "indexed": true,
          "internalType": "address",
          "name": "account",
          "type": "address"
        },
        {
          "indexed": true,
          "internalType": "address",
          "name": "sender",
          "type": "address"
        }
      ],
      "name": "RoleGranted",
      "type": "event"
    },
    {
      "anonymous": false,
      "inputs": [
        {
          "indexed": true,
          "internalType": "bytes32",
          "name": "role",
          "type": "bytes32"
        },
        {
          "indexed": true,
          "internalType": "address",
          "name": "account",
          "type": "address"
        },
        {
          "indexed": true,
          "internalType": "address",
          "name": "sender",
          "type": "address"
        }
      ],
      "name": "RoleRevoked",
      "type": "event"
    },
    {
      "anonymous": false,
      "inputs": [
        {
          "indexed": true,
          "internalType": "address",
          "name": "implementation",
          "type": "address"
        }
      ],
      "name": "Upgraded",
      "type": "event"
    },
    {
      "inputs": [],
      "name": "DEFAULT_ADMIN_ROLE",
      "outputs": [
        {
          "internalType": "bytes32",
          "name": "",
          "type": "bytes32"
        }
      ],
      "stateMutability": "view",
      "type": "function"
    },
    {
      "inputs": [],
      "name": "UPGRADE_INTERFACE_VERSION",
      "outputs": [
        {
          "internalType": "string",
          "name": "",
          "type": "string"
        }
      ],
      "stateMutability": "view",
      "type": "function"
    },
    {
      "inputs": [
        {
          "internalType": "bytes32",
          "name": "salt",
          "type": "bytes32"
        },
        {
          "internalType": "bytes32",
          "name": "bytecodeHash",
          "type": "bytes32"
        }
      ],
      "name": "computeAddress",
      "outputs": [
        {
          "internalType": "address",
          "name": "",
          "type": "address"
        }
      ],
      "stateMutability": "view",
      "type": "function"
    },
    {
      "inputs": [
        {
          "internalType": "bytes32",
          "name": "salt",
          "type": "bytes32"
        },
        {
          "internalType": "bytes",
          "name": "bytecode",
          "type": "bytes"
        }
      ],
      "name": "deploy",
      "outputs": [],
      "stateMutability": "nonpayable",
      "type": "function"
    },
    {
      "inputs": [
        {
          "internalType": "bytes32",
          "name": "role",
          "type": "bytes32"
        }
      ],
      "name": "getRoleAdmin",
      "outputs": [
        {
          "internalType": "bytes32",
          "name": "",
          "type": "bytes32"
        }
      ],
      "stateMutability": "view",
      "type": "function"
    },
    {
      "inputs": [
        {
          "internalType": "bytes32",
          "name": "role",
          "type": "bytes32"
        },
        {
          "internalType": "address",
          "name": "account",
          "type": "address"
        }
      ],
      "name": "grantRole",
      "outputs": [],
      "stateMutability": "nonpayable",
      "type": "function"
    },
    {
      "inputs": [
        {
          "internalType": "bytes32",
          "name": "role",
          "type": "bytes32"
        },
        {
          "internalType": "address",
          "name": "account",
          "type": "address"
        }
      ],
      "name": "hasRole",
      "outputs": [
        {
          "internalType": "bool",
          "name": "",
          "type": "bool"
        }
      ],
      "stateMutability": "view",
      "type": "function"
    },
    {
      "inputs": [],
      "name": "initialize",
      "outputs": [],
      "stateMutability": "nonpayable",
      "type": "function"
    },
    {
      "inputs": [],
      "name": "proxiableUUID",
      "outputs": [
        {
          "internalType": "bytes32",
          "name": "",
          "type": "bytes32"
        }
      ],
      "stateMutability": "view",
      "type": "function"
    },
    {
      "inputs": [
        {
          "internalType": "bytes32",
          "name": "role",
          "type": "bytes32"
        },
        {
          "internalType": "address",
          "name": "callerConfirmation",
          "type": "address"
        }
      ],
      "name": "renounceRole",
      "outputs": [],
      "stateMutability": "nonpayable",
      "type": "function"
    },
    {
      "inputs": [
        {
          "internalType": "bytes32",
          "name": "role",
          "type": "bytes32"
        },
        {
          "internalType": "address",
          "name": "account",
          "type": "address"
        }
      ],
      "name": "revokeRole",
      "outputs": [],
      "stateMutability": "nonpayable",
      "type": "function"
    },
    {
      "inputs": [
        {
          "internalType": "bytes4",
          "name": "interfaceId",
          "type": "bytes4"
        }
      ],
      "name": "supportsInterface",
      "outputs": [
        {
          "internalType": "bool",
          "name": "",
          "type": "bool"
        }
      ],
      "stateMutability": "view",
      "type": "function"
    },
    {
      "inputs": [
        {
          "internalType": "address",
          "name": "newImplementation",
          "type": "address"
        },
        {
          "internalType": "bytes",
          "name": "data",
          "type": "bytes"
        }
      ],
      "name": "upgradeToAndCall",
      "outputs": [],
      "stateMutability": "payable",
      "type": "function"
    }
  ],
  "bytecode": "0x60a06040523073ffffffffffffffffffffffffffffffffffffffff1660809073ffffffffffffffffffffffffffffffffffffffff168152503480156200004457600080fd5b50620000556200005b60201b60201c565b620001cf565b60006200006d6200016560201b60201c565b90508060000160089054906101000a900460ff1615620000b9576040517ff92ee8a900000000000000000000000000000000000000000000000000000000815260040160405180910390fd5b67ffffffffffffffff80168160000160009054906101000a900467ffffffffffffffff1667ffffffffffffffff1614620001625767ffffffffffffffff8160000160006101000a81548167ffffffffffffffff021916908367ffffffffffffffff1602179055507fc7f505b2f371ae2175ee4913f4499e1f2633a7b5936321eed1cdaeb6115181d267ffffffffffffffff604051620001599190620001b2565b60405180910390a15b50565b60007ff0c57e16840df040f15088dc2f81fe391c3923bec73e23a9662efc9c229c6a00905090565b600067ffffffffffffffff82169050919050565b620001ac816200018d565b82525050565b6000602082019050620001c96000830184620001a1565b92915050565b608051611863620001f960003960008181610a6501528181610aba0152610c7b01526118636000f3fe6080604052600436106100c25760003560e01c806352d1902d1161007f578063a217fddf11610059578063a217fddf1461026b578063ad3cb1cc14610296578063cdcb760a146102c1578063d547741f146102ea576100c2565b806352d1902d146101ec5780638129fc1c1461021757806391d148541461022e576100c2565b806301ffc9a7146100c7578063248a9ca3146101045780632f2ff15d1461014157806336568abe1461016a578063481286e6146101935780634f1ef286146101d0575b600080fd5b3480156100d357600080fd5b506100ee60048036038101906100e99190611217565b610313565b6040516100fb919061125f565b60405180910390f35b34801561011057600080fd5b5061012b600480360381019061012691906112b0565b61038d565b60405161013891906112ec565b60405180910390f35b34801561014d57600080fd5b5061016860048036038101906101639190611365565b6103bb565b005b34801561017657600080fd5b50610191600480360381019061018c9190611365565b6103dd565b005b34801561019f57600080fd5b506101ba60048036038101906101b591906113a5565b610458565b6040516101c791906113f4565b60405180910390f35b6101ea60048036038101906101e59190611555565b61046d565b005b3480156101f857600080fd5b5061020161048c565b60405161020e91906112ec565b60405180910390f35b34801561022357600080fd5b5061022c6104bf565b005b34801561023a57600080fd5b5061025560048036038101906102509190611365565b610652565b604051610262919061125f565b60405180910390f35b34801561027757600080fd5b506102806106cb565b60405161028d91906112ec565b60405180910390f35b3480156102a257600080fd5b506102ab6106d2565b6040516102b89190611630565b60405180910390f35b3480156102cd57600080fd5b506102e860048036038101906102e39190611652565b61070b565b005b3480156102f657600080fd5b50610311600480360381019061030c9190611365565b610765565b005b60007f7965db0b000000000000000000000000000000000000000000000000000000007bffffffffffffffffffffffffffffffffffffffffffffffffffffffff1916827bffffffffffffffffffffffffffffffffffffffffffffffffffffffff19161480610386575061038582610787565b5b9050919050565b6000806103986107f1565b905080600001600084815260200190815260200160002060010154915050919050565b6103c48261038d565b6103cd81610819565b6103d7838361082d565b50505050565b6103e561092e565b73ffffffffffffffffffffffffffffffffffffffff168173ffffffffffffffffffffffffffffffffffffffff1614610449576040517f6697b23200000000000000000000000000000000000000000000000000000000815260040160405180910390fd5b6104538282610936565b505050565b6000610465838330610a38565b905092915050565b610475610a63565b61047e82610b49565b6104888282610b5a565b5050565b6000610496610c79565b7f360894a13ba1a3210667c828492db98dca3e2076cc3735a920a3ca505d382bbc60001b905090565b60006104c9610d00565b905060008160000160089054906101000a900460ff1615905060008260000160009054906101000a900467ffffffffffffffff1690506000808267ffffffffffffffff161480156105175750825b9050600060018367ffffffffffffffff1614801561054c575060003073ffffffffffffffffffffffffffffffffffffffff163b145b90508115801561055a575080155b15610591576040517ff92ee8a900000000000000000000000000000000000000000000000000000000815260040160405180910390fd5b60018560000160006101000a81548167ffffffffffffffff021916908367ffffffffffffffff16021790555083156105e15760018560000160086101000a81548160ff0219169083151502179055505b6105ee6000801b3361082d565b50831561064b5760008560000160086101000a81548160ff0219169083151502179055507fc7f505b2f371ae2175ee4913f4499e1f2633a7b5936321eed1cdaeb6115181d260016040516106429190611707565b60405180910390a15b5050505050565b60008061065d6107f1565b905080600001600085815260200190815260200160002060000160008473ffffffffffffffffffffffffffffffffffffffff1673ffffffffffffffffffffffffffffffffffffffff16815260200190815260200160002060009054906101000a900460ff1691505092915050565b6000801b81565b6040518060400160405280600581526020017f352e302e3000000000000000000000000000000000000000000000000000000081525081565b6000801b61071881610819565b600061072660008585610d28565b90507ff40fcec21964ffb566044d083b4073f29f7f7929110ea19e1b3ebe375d89055e8160405161075791906113f4565b60405180910390a150505050565b61076e8261038d565b61077781610819565b6107818383610936565b50505050565b60007f01ffc9a7000000000000000000000000000000000000000000000000000000007bffffffffffffffffffffffffffffffffffffffffffffffffffffffff1916827bffffffffffffffffffffffffffffffffffffffffffffffffffffffff1916149050919050565b60007f02dd7bc7dec4dceedda775e58dd541e08a116c6c53815c0bd028192f7b626800905090565b61082a8161082561092e565b610e24565b50565b6000806108386107f1565b90506108448484610652565b61092257600181600001600086815260200190815260200160002060000160008573ffffffffffffffffffffffffffffffffffffffff1673ffffffffffffffffffffffffffffffffffffffff16815260200190815260200160002060006101000a81548160ff0219169083151502179055506108be61092e565b73ffffffffffffffffffffffffffffffffffffffff168373ffffffffffffffffffffffffffffffffffffffff16857f2f8788117e7eff1d82e926ec794901d17c78024a50270940304540a733656f0d60405160405180910390a46001915050610928565b60009150505b92915050565b600033905090565b6000806109416107f1565b905061094d8484610652565b15610a2c57600081600001600086815260200190815260200160002060000160008573ffffffffffffffffffffffffffffffffffffffff1673ffffffffffffffffffffffffffffffffffffffff16815260200190815260200160002060006101000a81548160ff0219169083151502179055506109c861092e565b73ffffffffffffffffffffffffffffffffffffffff168373ffffffffffffffffffffffffffffffffffffffff16857ff6391f5c32d9c69d2a47ea670b442974b53935d1edc7fd64eb21e047a839171b60405160405180910390a46001915050610a32565b60009150505b92915050565b6000604051836040820152846020820152828152600b810160ff815360558120925050509392505050565b7f000000000000000000000000000000000000000000000000000000000000000073ffffffffffffffffffffffffffffffffffffffff163073ffffffffffffffffffffffffffffffffffffffff161480610b1057507f000000000000000000000000000000000000000000000000000000000000000073ffffffffffffffffffffffffffffffffffffffff16610af7610e75565b73ffffffffffffffffffffffffffffffffffffffff1614155b15610b47576040517fe07c8dba00000000000000000000000000000000000000000000000000000000815260040160405180910390fd5b565b6000801b610b5681610819565b5050565b8173ffffffffffffffffffffffffffffffffffffffff166352d1902d6040518163ffffffff1660e01b8152600401602060405180830381865afa925050508015610bc257506040513d601f19601f82011682018060405250810190610bbf9190611737565b60015b610c0357816040517f4c9c8ce3000000000000000000000000000000000000000000000000000000008152600401610bfa91906113f4565b60405180910390fd5b7f360894a13ba1a3210667c828492db98dca3e2076cc3735a920a3ca505d382bbc60001b8114610c6a57806040517faa1d49a4000000000000000000000000000000000000000000000000000000008152600401610c6191906112ec565b60405180910390fd5b610c748383610ecc565b505050565b7f000000000000000000000000000000000000000000000000000000000000000073ffffffffffffffffffffffffffffffffffffffff163073ffffffffffffffffffffffffffffffffffffffff1614610cfe576040517fe07c8dba00000000000000000000000000000000000000000000000000000000815260040160405180910390fd5b565b60007ff0c57e16840df040f15088dc2f81fe391c3923bec73e23a9662efc9c229c6a00905090565b600083471015610d715747846040517fe4bbecac000000000000000000000000000000000000000000000000000000008152600401610d6892919061177d565b60405180910390fd5b6000825103610dac576040517f4ca249dc00000000000000000000000000000000000000000000000000000000815260040160405180910390fd5b8282516020840186f59050600073ffffffffffffffffffffffffffffffffffffffff168173ffffffffffffffffffffffffffffffffffffffff1603610e1d576040517f741752c200000000000000000000000000000000000000000000000000000000815260040160405180910390fd5b9392505050565b610e2e8282610652565b610e715780826040517fe2517d3f000000000000000000000000000000000000000000000000000000008152600401610e689291906117a6565b60405180910390fd5b5050565b6000610ea37f360894a13ba1a3210667c828492db98dca3e2076cc3735a920a3ca505d382bbc60001b610f3f565b60000160009054906101000a900473ffffffffffffffffffffffffffffffffffffffff16905090565b610ed582610f49565b8173ffffffffffffffffffffffffffffffffffffffff167fbc7cd75a20ee27fd9adebab32041f755214dbc6bffa90cc0225b39da2e5c2d3b60405160405180910390a2600081511115610f3257610f2c8282611016565b50610f3b565b610f3a61109a565b5b5050565b6000819050919050565b60008173ffffffffffffffffffffffffffffffffffffffff163b03610fa557806040517f4c9c8ce3000000000000000000000000000000000000000000000000000000008152600401610f9c91906113f4565b60405180910390fd5b80610fd27f360894a13ba1a3210667c828492db98dca3e2076cc3735a920a3ca505d382bbc60001b610f3f565b60000160006101000a81548173ffffffffffffffffffffffffffffffffffffffff021916908373ffffffffffffffffffffffffffffffffffffffff16021790555050565b60606000808473ffffffffffffffffffffffffffffffffffffffff16846040516110409190611816565b600060405180830381855af49150503d806000811461107b576040519150601f19603f3d011682016040523d82523d6000602084013e611080565b606091505b50915091506110908583836110d7565b9250505092915050565b60003411156110d5576040517fb398979f00000000000000000000000000000000000000000000000000000000815260040160405180910390fd5b565b6060826110ec576110e782611166565b61115e565b60008251148015611114575060008473ffffffffffffffffffffffffffffffffffffffff163b145b1561115657836040517f9996b31500000000000000000000000000000000000000000000000000000000815260040161114d91906113f4565b60405180910390fd5b81905061115f565b5b9392505050565b6000815111156111795780518082602001fd5b6040517f1425ea4200000000000000000000000000000000000000000000000000000000815260040160405180910390fd5b6000604051905090565b600080fd5b600080fd5b60007fffffffff0000000000000000000000000000000000000000000000000000000082169050919050565b6111f4816111bf565b81146111ff57600080fd5b50565b600081359050611211816111eb565b92915050565b60006020828403121561122d5761122c6111b5565b5b600061123b84828501611202565b91505092915050565b60008115159050919050565b61125981611244565b82525050565b60006020820190506112746000830184611250565b92915050565b6000819050919050565b61128d8161127a565b811461129857600080fd5b50565b6000813590506112aa81611284565b92915050565b6000602082840312156112c6576112c56111b5565b5b60006112d48482850161129b565b91505092915050565b6112e68161127a565b82525050565b600060208201905061130160008301846112dd565b92915050565b600073ffffffffffffffffffffffffffffffffffffffff82169050919050565b600061133282611307565b9050919050565b61134281611327565b811461134d57600080fd5b50565b60008135905061135f81611339565b92915050565b6000806040838503121561137c5761137b6111b5565b5b600061138a8582860161129b565b925050602061139b85828601611350565b9150509250929050565b600080604083850312156113bc576113bb6111b5565b5b60006113ca8582860161129b565b92505060206113db8582860161129b565b9150509250929050565b6113ee81611327565b82525050565b600060208201905061140960008301846113e5565b92915050565b600080fd5b600080fd5b6000601f19601f8301169050919050565b7f4e487b7100000000000000000000000000000000000000000000000000000000600052604160045260246000fd5b61146282611419565b810181811067ffffffffffffffff821117156114815761148061142a565b5b80604052505050565b60006114946111ab565b90506114a08282611459565b919050565b600067ffffffffffffffff8211156114c0576114bf61142a565b5b6114c982611419565b9050602081019050919050565b82818337600083830152505050565b60006114f86114f3846114a5565b61148a565b90508281526020810184848401111561151457611513611414565b5b61151f8482856114d6565b509392505050565b600082601f83011261153c5761153b61140f565b5b813561154c8482602086016114e5565b91505092915050565b6000806040838503121561156c5761156b6111b5565b5b600061157a85828601611350565b925050602083013567ffffffffffffffff81111561159b5761159a6111ba565b5b6115a785828601611527565b9150509250929050565b600081519050919050565b600082825260208201905092915050565b60005b838110156115eb5780820151818401526020810190506115d0565b60008484015250505050565b6000611602826115b1565b61160c81856115bc565b935061161c8185602086016115cd565b61162581611419565b840191505092915050565b6000602082019050818103600083015261164a81846115f7565b905092915050565b60008060408385031215611669576116686111b5565b5b60006116778582860161129b565b925050602083013567ffffffffffffffff811115611698576116976111ba565b5b6116a485828601611527565b9150509250929050565b6000819050919050565b600067ffffffffffffffff82169050919050565b6000819050919050565b60006116f16116ec6116e7846116ae565b6116cc565b6116b8565b9050919050565b611701816116d6565b82525050565b600060208201905061171c60008301846116f8565b92915050565b60008151905061173181611284565b92915050565b60006020828403121561174d5761174c6111b5565b5b600061175b84828501611722565b91505092915050565b6000819050919050565b61177781611764565b82525050565b6000604082019050611792600083018561176e565b61179f602083018461176e565b9392505050565b60006040820190506117bb60008301856113e5565b6117c860208301846112dd565b9392505050565b600081519050919050565b600081905092915050565b60006117f0826117cf565b6117fa81856117da565b935061180a8185602086016115cd565b80840191505092915050565b600061182282846117e5565b91508190509291505056fea26469706673582212201eca8c34a77af768f223b7e8e5046dfd2b7d86b6438ba09bc22a9636f4a0d74d64736f6c63430008140033",
  "linkReferences": {},
  "deployedLinkReferences": {}
}